{"abi":[{"type":"function","name":"buildAndEncodeTransceiverMessage","inputs":[{"name":"prefix","type":"bytes4","internalType":"bytes4"},{"name":"sourceNttManagerAddress","type":"bytes32","internalType":"bytes32"},{"name":"recipientNttManagerAddress","type":"bytes32","internalType":"bytes32"},{"name":"nttManagerMessage","type":"bytes","internalType":"bytes"},{"name":"transceiverPayload","type":"bytes","internalType":"bytes"}],"outputs":[{"name":"","type":"tuple","internalType":"struct TransceiverStructs.TransceiverMessage","components":[{"name":"sourceNttManagerAddress","type":"bytes32","internalType":"bytes32"},{"name":"recipientNttManagerAddress","type":"bytes32","internalType":"bytes32"},{"name":"nttManagerPayload","type":"bytes","internalType":"bytes"},{"name":"transceiverPayload","type":"bytes","internalType":"bytes"}]},{"name":"","type":"bytes","internalType":"bytes"}],"stateMutability":"pure"},{"type":"function","name":"decodeTransceiverInit","inputs":[{"name":"encoded","type":"bytes","internalType":"bytes"}],"outputs":[{"name":"init","type":"tuple","internalType":"struct TransceiverStructs.TransceiverInit","components":[{"name":"transceiverIdentifier","type":"bytes4","internalType":"bytes4"},{"name":"nttManagerAddress","type":"bytes32","internalType":"bytes32"},{"name":"nttManagerMode","type":"uint8","internalType":"uint8"},{"name":"tokenAddress","type":"bytes32","internalType":"bytes32"},{"name":"tokenDecimals","type":"uint8","internalType":"uint8"}]}],"stateMutability":"pure"},{"type":"function","name":"decodeTransceiverRegistration","inputs":[{"name":"encoded","type":"bytes","internalType":"bytes"}],"outputs":[{"name":"registration","type":"tuple","internalType":"struct TransceiverStructs.TransceiverRegistration","components":[{"name":"transceiverIdentifier","type":"bytes4","internalType":"bytes4"},{"name":"transceiverChainId","type":"uint16","internalType":"uint16"},{"name":"transceiverAddress","type":"bytes32","internalType":"bytes32"}]}],"stateMutability":"pure"},{"type":"function","name":"encodeNativeTokenTransfer","inputs":[{"name":"m","type":"tuple","internalType":"struct TransceiverStructs.NativeTokenTransfer","components":[{"name":"amount","type":"uint72","internalType":"TrimmedAmount"},{"name":"sourceToken","type":"bytes32","internalType":"bytes32"},{"name":"to","type":"bytes32","internalType":"bytes32"},{"name":"toChain","type":"uint16","internalType":"uint16"}]}],"outputs":[{"name":"encoded","type":"bytes","internalType":"bytes"}],"stateMutability":"pure"},{"type":"function","name":"encodeNttManagerMessage","inputs":[{"name":"m","type":"tuple","internalType":"struct TransceiverStructs.NttManagerMessage","components":[{"name":"id","type":"bytes32","internalType":"bytes32"},{"name":"sender","type":"bytes32","internalType":"bytes32"},{"name":"payload","type":"bytes","internalType":"bytes"}]}],"outputs":[{"name":"encoded","type":"bytes","internalType":"bytes"}],"stateMutability":"pure"},{"type":"function","name":"encodeTransceiverInit","inputs":[{"name":"init","type":"tuple","internalType":"struct TransceiverStructs.TransceiverInit","components":[{"name":"transceiverIdentifier","type":"bytes4","internalType":"bytes4"},{"name":"nttManagerAddress","type":"bytes32","internalType":"bytes32"},{"name":"nttManagerMode","type":"uint8","internalType":"uint8"},{"name":"tokenAddress","type":"bytes32","internalType":"bytes32"},{"name":"tokenDecimals","type":"uint8","internalType":"uint8"}]}],"outputs":[{"name":"","type":"bytes","internalType":"bytes"}],"stateMutability":"pure"},{"type":"function","name":"encodeTransceiverInstruction","inputs":[{"name":"instruction","type":"tuple","internalType":"struct TransceiverStructs.TransceiverInstruction","components":[{"name":"index","type":"uint8","internalType":"uint8"},{"name":"payload","type":"bytes","internalType":"bytes"}]}],"outputs":[{"name":"","type":"bytes","internalType":"bytes"}],"stateMutability":"pure"},{"type":"function","name":"encodeTransceiverInstructions","inputs":[{"name":"instructions","type":"tuple[]","internalType":"struct TransceiverStructs.TransceiverInstruction[]","components":[{"name":"index","type":"uint8","internalType":"uint8"},{"name":"payload","type":"bytes","internalType":"bytes"}]}],"outputs":[{"name":"","type":"bytes","internalType":"bytes"}],"stateMutability":"pure"},{"type":"function","name":"encodeTransceiverMessage","inputs":[{"name":"prefix","type":"bytes4","internalType":"bytes4"},{"name":"m","type":"tuple","internalType":"struct TransceiverStructs.TransceiverMessage","components":[{"name":"sourceNttManagerAddress","type":"bytes32","internalType":"bytes32"},{"name":"recipientNttManagerAddress","type":"bytes32","internalType":"bytes32"},{"name":"nttManagerPayload","type":"bytes","internalType":"bytes"},{"name":"transceiverPayload","type":"bytes","internalType":"bytes"}]}],"outputs":[{"name":"encoded","type":"bytes","internalType":"bytes"}],"stateMutability":"pure"},{"type":"function","name":"encodeTransceiverRegistration","inputs":[{"name":"registration","type":"tuple","internalType":"struct TransceiverStructs.TransceiverRegistration","components":[{"name":"transceiverIdentifier","type":"bytes4","internalType":"bytes4"},{"name":"transceiverChainId","type":"uint16","internalType":"uint16"},{"name":"transceiverAddress","type":"bytes32","internalType":"bytes32"}]}],"outputs":[{"name":"","type":"bytes","internalType":"bytes"}],"stateMutability":"pure"},{"type":"function","name":"nttManagerMessageDigest","inputs":[{"name":"sourceChainId","type":"uint16","internalType":"uint16"},{"name":"m","type":"tuple","internalType":"struct TransceiverStructs.NttManagerMessage","components":[{"name":"id","type":"bytes32","internalType":"bytes32"},{"name":"sender","type":"bytes32","internalType":"bytes32"},{"name":"payload","type":"bytes","internalType":"bytes"}]}],"outputs":[{"name":"","type":"bytes32","internalType":"bytes32"}],"stateMutability":"pure"},{"type":"function","name":"parseNativeTokenTransfer","inputs":[{"name":"encoded","type":"bytes","internalType":"bytes"}],"outputs":[{"name":"nativeTokenTransfer","type":"tuple","internalType":"struct TransceiverStructs.NativeTokenTransfer","components":[{"name":"amount","type":"uint72","internalType":"TrimmedAmount"},{"name":"sourceToken","type":"bytes32","internalType":"bytes32"},{"name":"to","type":"bytes32","internalType":"bytes32"},{"name":"toChain","type":"uint16","internalType":"uint16"}]}],"stateMutability":"pure"},{"type":"function","name":"parseNttManagerMessage","inputs":[{"name":"encoded","type":"bytes","internalType":"bytes"}],"outputs":[{"name":"nttManagerMessage","type":"tuple","internalType":"struct TransceiverStructs.NttManagerMessage","components":[{"name":"id","type":"bytes32","internalType":"bytes32"},{"name":"sender","type":"bytes32","internalType":"bytes32"},{"name":"payload","type":"bytes","internalType":"bytes"}]}],"stateMutability":"pure"},{"type":"function","name":"parseTransceiverAndNttManagerMessage","inputs":[{"name":"expectedPrefix","type":"bytes4","internalType":"bytes4"},{"name":"payload","type":"bytes","internalType":"bytes"}],"outputs":[{"name":"","type":"tuple","internalType":"struct TransceiverStructs.TransceiverMessage","components":[{"name":"sourceNttManagerAddress","type":"bytes32","internalType":"bytes32"},{"name":"recipientNttManagerAddress","type":"bytes32","internalType":"bytes32"},{"name":"nttManagerPayload","type":"bytes","internalType":"bytes"},{"name":"transceiverPayload","type":"bytes","internalType":"bytes"}]},{"name":"","type":"tuple","internalType":"struct TransceiverStructs.NttManagerMessage","components":[{"name":"id","type":"bytes32","internalType":"bytes32"},{"name":"sender","type":"bytes32","internalType":"bytes32"},{"name":"payload","type":"bytes","internalType":"bytes"}]}],"stateMutability":"pure"},{"type":"function","name":"parseTransceiverInstructionChecked","inputs":[{"name":"encoded","type":"bytes","internalType":"bytes"}],"outputs":[{"name":"instruction","type":"tuple","internalType":"struct TransceiverStructs.TransceiverInstruction","components":[{"name":"index","type":"uint8","internalType":"uint8"},{"name":"payload","type":"bytes","internalType":"bytes"}]}],"stateMutability":"pure"},{"type":"function","name":"parseTransceiverInstructionUnchecked","inputs":[{"name":"encoded","type":"bytes","internalType":"bytes"},{"name":"offset","type":"uint256","internalType":"uint256"}],"outputs":[{"name":"instruction","type":"tuple","internalType":"struct TransceiverStructs.TransceiverInstruction","components":[{"name":"index","type":"uint8","internalType":"uint8"},{"name":"payload","type":"bytes","internalType":"bytes"}]},{"name":"nextOffset","type":"uint256","internalType":"uint256"}],"stateMutability":"pure"},{"type":"function","name":"parseTransceiverInstructions","inputs":[{"name":"encoded","type":"bytes","internalType":"bytes"},{"name":"numRegisteredTransceivers","type":"uint256","internalType":"uint256"}],"outputs":[{"name":"","type":"tuple[]","internalType":"struct TransceiverStructs.TransceiverInstruction[]","components":[{"name":"index","type":"uint8","internalType":"uint8"},{"name":"payload","type":"bytes","internalType":"bytes"}]}],"stateMutability":"pure"},{"type":"error","name":"IncorrectPrefix","inputs":[{"name":"prefix","type":"bytes4","internalType":"bytes4"}]},{"type":"error","name":"InvalidInstructionIndex","inputs":[{"name":"providedIndex","type":"uint256","internalType":"uint256"},{"name":"numTransceivers","type":"uint256","internalType":"uint256"}]},{"type":"error","name":"LengthMismatch","inputs":[{"name":"encodedLength","type":"uint256","internalType":"uint256"},{"name":"expectedLength","type":"uint256","internalType":"uint256"}]},{"type":"error","name":"PayloadTooLong","inputs":[{"name":"size","type":"uint256","internalType":"uint256"}]},{"type":"error","name":"UnorderedInstructions","inputs":[{"name":"lastIndex","type":"uint256","internalType":"uint256"},{"name":"instructionIndex","type":"uint256","internalType":"uint256"}]}],"bytecode":{"object":"0x611cf3610035600b8282823980515f1a60731461002957634e487b7160e01b5f525f60045260245ffd5b305f52607381538281f3fe7300000000000000000000000000000000000000003014608060405260043610610120575f3560e01c806340d2f75a116100b8578063a733bdaa11610088578063b620e8721161006e578063b620e87214610320578063c9bc77bb14610340578063eeca1f60146103bc575f80fd5b8063a733bdaa146102aa578063b3f07bbd146102ff575f80fd5b806340d2f75a146101fb578063433e3f291461021c5780635f396d4b146102775780638b4979b814610297575f80fd5b80631185b23c116100f35780631185b23c146101a157806322cebdee146101c25780632b9f4796146101d55780633906001d146101e8575f80fd5b8063054a7d8414610124578063055cedbd1461014d57806308a700d614610160578063107383fb14610181575b5f80fd5b61013761013236600461120f565b6103cf565b60405161014491906112f8565b60405180910390f35b61013761015b36600461140e565b610476565b61017361016e3660046114cb565b61055b565b604051610144929190611590565b61019461018f3660046115b4565b6105c0565b60405161014491906115e6565b6101b46101af3660046115f8565b610640565b60405161014492919061167a565b6101376101d036600461169e565b6106a3565b6101376101e33660046116e1565b610725565b6101376101f6366004611741565b6107fc565b61020e6102093660046117f3565b6108e0565b604051610144929190611856565b61022f61022a3660046115b4565b610931565b6040805182517fffffffff0000000000000000000000000000000000000000000000000000000016815260208084015161ffff16908201529181015190820152606001610144565b61028a6102853660046115b4565b6109b6565b6040516101449190611877565b6101376102a53660046118e2565b6109e4565b6102bd6102b83660046115b4565b610a58565b6040516101449190815168ffffffffffffffffff168152602080830151908201526040808301519082015260609182015161ffff169181019190915260800190565b61031261030d366004611914565b610ba1565b604051908152602001610144565b61033361032e3660046117f3565b610bdb565b6040516101449190611955565b61035361034e3660046115b4565b610d69565b60405161014491905f60a0820190507fffffffff0000000000000000000000000000000000000000000000000000000083511682526020830151602083015260ff60408401511660408301526060830151606083015260ff608084015116608083015292915050565b6101376103ca3660046119d3565b610e19565b8051602080830151604080850151606086810151608088015193517fffffffff000000000000000000000000000000000000000000000000000000009097169587019590955260248601939093527fff0000000000000000000000000000000000000000000000000000000000000060f891821b8116604487015260458601949094521b9091166065830152906066015b6040516020818303038152906040529050919050565b606060ff8016825111156104c45781516040517fa34196910000000000000000000000000000000000000000000000000000000081526004016104bb91815260200190565b60405180910390fd5b815160605f5b8281101561052f575f6104f58683815181106104e8576104e8611a1b565b60200260200101516106a3565b9050828160405160200161050a929190611a48565b604051602081830303815290604052925050808061052790611a76565b9150506104ca565b508181604051602001610543929190611ad2565b60405160208183030381529060405292505050919050565b604080516080810182525f808252602082015260609181018290528181019190915260408051606080820183525f8083526020830152918101919091525f6105a38585610e8e565b90505f6105b382604001516105c0565b9196919550909350505050565b60408051606080820183525f8083526020830181905292820152906105e58382610fdb565b90835290506105f48382610fdb565b602084019190915290505f6106128483600291810182015192910190565b925061ffff169050610625848383610fff565b60408501919091529150610639848361108f565b5050919050565b604080516080810182525f808252602082015260609181018290528181019190915260605f60405180608001604052808881526020018781526020018681526020018581525090505f61069389836107fc565b9199919850909650505050505050565b606060ff801682602001515111156106f0578160200151516040517fa34196910000000000000000000000000000000000000000000000000000000081526004016104bb91815260200190565b60208083015180518451604051919361070e93919285929101611b1c565b604051602081830303815290604052915050919050565b805160208083015160408085015160608087015192517f994e5454000000000000000000000000000000000000000000000000000000009581019590955260f886901b7fff0000000000000000000000000000000000000000000000000000000000000016602486015260b886901b7fffffffffffffffff000000000000000000000000000000000000000000000000166025860152602d850193909352604d84015260f01b7fffff00000000000000000000000000000000000000000000000000000000000016606d8301529190606f0161070e565b606061ffff8016826040015151111561084a578160400151516040517fa34196910000000000000000000000000000000000000000000000000000000081526004016104bb91815260200190565b60408201515160608301515161ffff101561089a578260600151516040517fa34196910000000000000000000000000000000000000000000000000000000081526004016104bb91815260200190565b606083015180518451602080870151604080890151905194956108c7958b95948993928992909101611b74565b6040516020818303038152906040529250505092915050565b604080518082019091525f815260606020820152818301600181015160ff9081168352600291820151918401919061091d90869084908416610fff565b846020018194508290525050509250929050565b604080516060810182525f808252602082018190529181018290529061095783826110da565b7fffffffff00000000000000000000000000000000000000000000000000000000919091168352600284820181015161ffff16602085015201905061099c8382610fdb565b604084019190915290506109b0838261108f565b50919050565b604080518082019091525f8152606060208201525f6109d583826108e0565b90925090506109b0838261108f565b606061ffff80168260400151511115610a32578160400151516040517fa34196910000000000000000000000000000000000000000000000000000000081526004016104bb91815260200190565b604080830151805184516020808701519451929461070e94929390928692909101611c1b565b604080516080810182525f80825260208201819052918101829052606081018290529080610a8684826110da565b925090507fffffffff0000000000000000000000000000000000000000000000000000000081167f994e54540000000000000000000000000000000000000000000000000000000014610b29576040517f56d2569d0000000000000000000000000000000000000000000000000000000081527fffffffff00000000000000000000000000000000000000000000000000000000821660048201526024016104bb565b818401600181015160099182015160ff8216600882901b68ffffffffffffffff0016178652919093019290610b5e8685610fdb565b60208701919091529350610b728685610fdb565b6040870191909152600287820181015161ffff166060880152019350610b98868561108f565b50505050919050565b5f82610bac836109e4565b604051602001610bbd929190611c73565b60405160208183030381529060405280519060200120905092915050565b6001828101516060919060ff165f8467ffffffffffffffff811115610c0257610c02611103565b604051908082528060200260200182016040528015610c4757816020015b604080518082019091525f815260606020820152815260200190600190039081610c205790505b5090505f805b83811015610d5457604080518082019091525f815260606020820152610c7389876108e0565b81519097509091508215801590610c8d5750838160ff1611155b15610cd0576040517f0555a4b90000000000000000000000000000000000000000000000000000000081526004810185905260ff821660248201526044016104bb565b888160ff1610610d18576040517f689f501600000000000000000000000000000000000000000000000000000000815260ff82166004820152602481018a90526044016104bb565b8060ff16935081858260ff1681518110610d3457610d34611a1b565b602002602001018190525050508080610d4c90611a76565b915050610c4d565b50610d5f878561108f565b5095945050505050565b6040805160a0810182525f80825260208201819052918101829052606081018290526080810182905290610d9d83826110da565b7fffffffff0000000000000000000000000000000000000000000000000000000090911683529050610dcf8382610fdb565b6020840191909152600184820181015160ff166040850152019050610df48382610fdb565b6060840191909152600184820181015160ff1660808501520190506109b0838261108f565b805160208083015160408085015190517fffffffff000000000000000000000000000000000000000000000000000000009094169284019290925260f01b7fffff0000000000000000000000000000000000000000000000000000000000001660248301526026820152606090604601610460565b604080516080810182525f80825260208201526060918101829052818101919091525f80610ebc84826110da565b925090507fffffffff0000000000000000000000000000000000000000000000000000000080821690861614610f42576040517f56d2569d0000000000000000000000000000000000000000000000000000000081527fffffffff00000000000000000000000000000000000000000000000000000000821660048201526024016104bb565b610f4c8483610fdb565b9084529150610f5b8483610fdb565b602085019190915291505f610f798584600291810182015192910190565b93509050610f8c858461ffff8416610fff565b604086019190915292505f610faa8685600291810182015192910190565b94509050610fbd868561ffff8416610fff565b60608701919091529350610fd1868561108f565b5050505092915050565b5f805f80610ff28686602091810182015192910190565b9097909650945050505050565b60605f825f0361101f575050604080515f81526020810190915282611087565b5050604051828201601f831680611034575060205b80830184810186838901015b81831015611058578051835260209283019201611040565b5050848452601f017fffffffffffffffffffffffffffffffffffffffffffffffffffffffffffffffe016604052505b935093915050565b808251146110d65781516040517fab8b67c60000000000000000000000000000000000000000000000000000000081526004810191909152602481018290526044016104bb565b5050565b5f805f806110f18686600491810182015192910190565b60e09190911b97909650945050505050565b7f4e487b71000000000000000000000000000000000000000000000000000000005f52604160045260245ffd5b6040516080810167ffffffffffffffff8111828210171561115357611153611103565b60405290565b6040516060810167ffffffffffffffff8111828210171561115357611153611103565b604051601f82017fffffffffffffffffffffffffffffffffffffffffffffffffffffffffffffffe016810167ffffffffffffffff811182821017156111c3576111c3611103565b604052919050565b80357fffffffff00000000000000000000000000000000000000000000000000000000811681146111fa575f80fd5b919050565b803560ff811681146111fa575f80fd5b5f60a0828403121561121f575f80fd5b60405160a0810181811067ffffffffffffffff8211171561124257611242611103565b60405261124e836111cb565b815260208301356020820152611266604084016111ff565b604082015260608301356060820152611281608084016111ff565b60808201529392505050565b5f5b838110156112a757818101518382015260200161128f565b50505f910152565b5f81518084526112c681602086016020860161128d565b601f017fffffffffffffffffffffffffffffffffffffffffffffffffffffffffffffffe0169290920160200192915050565b602081525f61130a60208301846112af565b9392505050565b5f82601f830112611320575f80fd5b813567ffffffffffffffff81111561133a5761133a611103565b61136b60207fffffffffffffffffffffffffffffffffffffffffffffffffffffffffffffffe0601f8401160161117c565b81815284602083860101111561137f575f80fd5b816020850160208301375f918101602001919091529392505050565b5f604082840312156113ab575f80fd5b6040516040810167ffffffffffffffff82821081831117156113cf576113cf611103565b816040528293506113df856111ff565b835260208501359150808211156113f4575f80fd5b5061140185828601611311565b6020830152505092915050565b5f602080838503121561141f575f80fd5b823567ffffffffffffffff80821115611436575f80fd5b818501915085601f830112611449575f80fd5b81358181111561145b5761145b611103565b8060051b61146a85820161117c565b9182528381018501918581019089841115611483575f80fd5b86860192505b838310156114be578235858111156114a0575f8081fd5b6114ae8b89838a010161139b565b8352509186019190860190611489565b9998505050505050505050565b5f80604083850312156114dc575f80fd5b6114e5836111cb565b9150602083013567ffffffffffffffff811115611500575f80fd5b61150c85828601611311565b9150509250929050565b80518252602081015160208301525f60408201516080604085015261153e60808501826112af565b90506060830151848203606086015261155782826112af565b95945050505050565b80518252602081015160208301525f60408201516060604085015261158860608501826112af565b949350505050565b604081525f6115a26040830185611516565b82810360208401526115578185611560565b5f602082840312156115c4575f80fd5b813567ffffffffffffffff8111156115da575f80fd5b61158884828501611311565b602081525f61130a6020830184611560565b5f805f805f60a0868803121561160c575f80fd5b611615866111cb565b94506020860135935060408601359250606086013567ffffffffffffffff8082111561163f575f80fd5b61164b89838a01611311565b93506080880135915080821115611660575f80fd5b5061166d88828901611311565b9150509295509295909350565b604081525f61168c6040830185611516565b828103602084015261155781856112af565b5f602082840312156116ae575f80fd5b813567ffffffffffffffff8111156116c4575f80fd5b6115888482850161139b565b803561ffff811681146111fa575f80fd5b5f608082840312156116f1575f80fd5b6116f9611130565b823568ffffffffffffffffff81168114611711575f80fd5b808252506020830135602082015260408301356040820152611735606084016116d0565b60608201529392505050565b5f8060408385031215611752575f80fd5b61175b836111cb565b9150602083013567ffffffffffffffff80821115611777575f80fd5b908401906080828703121561178a575f80fd5b611792611130565b82358152602083013560208201526040830135828111156117b1575f80fd5b6117bd88828601611311565b6040830152506060830135828111156117d4575f80fd5b6117e088828601611311565b6060830152508093505050509250929050565b5f8060408385031215611804575f80fd5b823567ffffffffffffffff81111561181a575f80fd5b61182685828601611311565b95602094909401359450505050565b60ff81511682525f60208201516040602085015261158860408501826112af565b604081525f6118686040830185611835565b90508260208301529392505050565b602081525f61130a6020830184611835565b5f60608284031215611899575f80fd5b6118a1611159565b90508135815260208201356020820152604082013567ffffffffffffffff8111156118ca575f80fd5b6118d684828501611311565b60408301525092915050565b5f602082840312156118f2575f80fd5b813567ffffffffffffffff811115611908575f80fd5b61158884828501611889565b5f8060408385031215611925575f80fd5b61192e836116d0565b9150602083013567ffffffffffffffff811115611949575f80fd5b61150c85828601611889565b5f602080830181845280855180835260408601915060408160051b87010192508387015f5b828110156119c6577fffffffffffffffffffffffffffffffffffffffffffffffffffffffffffffffc08886030184526119b4858351611835565b9450928501929085019060010161197a565b5092979650505050505050565b5f606082840312156119e3575f80fd5b6119eb611159565b6119f4836111cb565b8152611a02602084016116d0565b6020820152604083013560408201528091505092915050565b7f4e487b71000000000000000000000000000000000000000000000000000000005f52603260045260245ffd5b5f8351611a5981846020880161128d565b835190830190611a6d81836020880161128d565b01949350505050565b5f7fffffffffffffffffffffffffffffffffffffffffffffffffffffffffffffffff8203611acb577f4e487b71000000000000000000000000000000000000000000000000000000005f52601160045260245ffd5b5060010190565b7fff000000000000000000000000000000000000000000000000000000000000008360f81b1681525f8251611b0e81600185016020870161128d565b919091016001019392505050565b5f7fff00000000000000000000000000000000000000000000000000000000000000808660f81b168352808560f81b166001840152508251611b6581600285016020870161128d565b91909101600201949350505050565b7fffffffff00000000000000000000000000000000000000000000000000000000881681528660048201528560248201525f7fffff000000000000000000000000000000000000000000000000000000000000808760f01b1660448401528551611be5816046860160208a0161128d565b8084019050818660f01b16604682015284519150611c0a82604883016020880161128d565b016048019998505050505050505050565b8481528360208201527fffff0000000000000000000000000000000000000000000000000000000000008360f01b1660408201525f8251611c6381604285016020870161128d565b9190910160420195945050505050565b7fffff0000000000000000000000000000000000000000000000000000000000008360f01b1681525f8251611caf81600285016020870161128d565b91909101600201939250505056fea2646970667358221220ca179234bf3d7f4923f11bf53a0caed18c854cbd6f6ff31bad1d8bab4616761364736f6c63430008140033","linkReferences":{}},"methodIdentifiers":{"buildAndEncodeTransceiverMessage(bytes4,bytes32,bytes32,bytes,bytes)":"1185b23c","decodeTransceiverInit(bytes)":"c9bc77bb","decodeTransceiverRegistration(bytes)":"433e3f29","encodeNativeTokenTransfer(TransceiverStructs.NativeTokenTransfer)":"2b9f4796","encodeNttManagerMessage(TransceiverStructs.NttManagerMessage)":"8b4979b8","encodeTransceiverInit(TransceiverStructs.TransceiverInit)":"054a7d84","encodeTransceiverInstruction(TransceiverStructs.TransceiverInstruction)":"22cebdee","encodeTransceiverInstructions(TransceiverStructs.TransceiverInstruction[])":"055cedbd","encodeTransceiverMessage(bytes4,TransceiverStructs.TransceiverMessage)":"3906001d","encodeTransceiverRegistration(TransceiverStructs.TransceiverRegistration)":"eeca1f60","nttManagerMessageDigest(uint16,TransceiverStructs.NttManagerMessage)":"b3f07bbd","parseNativeTokenTransfer(bytes)":"a733bdaa","parseNttManagerMessage(bytes)":"107383fb","parseTransceiverAndNttManagerMessage(bytes4,bytes)":"08a700d6","parseTransceiverInstructionChecked(bytes)":"5f396d4b","parseTransceiverInstructionUnchecked(bytes,uint256)":"40d2f75a","parseTransceiverInstructions(bytes,uint256)":"b620e872"},"id":26}