{
  "contracts/EPNS.sol": {
    "EPNS": {
      "abi": [
        {
          "inputs": [],
          "stateMutability": "nonpayable",
          "type": "constructor"
        },
        {
          "anonymous": false,
          "inputs": [
            {
              "indexed": true,
              "internalType": "address",
              "name": "owner",
              "type": "address"
            },
            {
              "indexed": true,
              "internalType": "address",
              "name": "spender",
              "type": "address"
            },
            {
              "indexed": false,
              "internalType": "uint256",
              "name": "amount",
              "type": "uint256"
            }
          ],
          "name": "Approval",
          "type": "event"
        },
        {
          "anonymous": false,
          "inputs": [
            {
              "indexed": true,
              "internalType": "address",
              "name": "delegator",
              "type": "address"
            },
            {
              "indexed": true,
              "internalType": "address",
              "name": "fromDelegate",
              "type": "address"
            },
            {
              "indexed": true,
              "internalType": "address",
              "name": "toDelegate",
              "type": "address"
            }
          ],
          "name": "DelegateChanged",
          "type": "event"
        },
        {
          "anonymous": false,
          "inputs": [
            {
              "indexed": true,
              "internalType": "address",
              "name": "delegate",
              "type": "address"
            },
            {
              "indexed": false,
              "internalType": "uint256",
              "name": "previousBalance",
              "type": "uint256"
            },
            {
              "indexed": false,
              "internalType": "uint256",
              "name": "newBalance",
              "type": "uint256"
            }
          ],
          "name": "DelegateVotesChanged",
          "type": "event"
        },
        {
          "anonymous": false,
          "inputs": [
            {
              "indexed": true,
              "internalType": "address",
              "name": "holder",
              "type": "address"
            },
            {
              "indexed": false,
              "internalType": "uint256",
              "name": "previousRatio",
              "type": "uint256"
            },
            {
              "indexed": false,
              "internalType": "uint256",
              "name": "newRatio",
              "type": "uint256"
            }
          ],
          "name": "FairShareRatioChanged",
          "type": "event"
        },
        {
          "anonymous": false,
          "inputs": [
            {
              "indexed": true,
              "internalType": "address",
              "name": "from",
              "type": "address"
            },
            {
              "indexed": true,
              "internalType": "address",
              "name": "to",
              "type": "address"
            },
            {
              "indexed": false,
              "internalType": "uint256",
              "name": "amount",
              "type": "uint256"
            }
          ],
          "name": "Transfer",
          "type": "event"
        },
        {
          "inputs": [],
          "name": "DELEGATION_TYPEHASH",
          "outputs": [
            {
              "internalType": "bytes32",
              "name": "",
              "type": "bytes32"
            }
          ],
          "stateMutability": "view",
          "type": "function"
        },
        {
          "inputs": [],
          "name": "DOMAIN_TYPEHASH",
          "outputs": [
            {
              "internalType": "bytes32",
              "name": "",
              "type": "bytes32"
            }
          ],
          "stateMutability": "view",
          "type": "function"
        },
        {
          "inputs": [
            {
              "internalType": "address",
              "name": "",
              "type": "address"
            },
            {
              "internalType": "uint32",
              "name": "",
              "type": "uint32"
            }
          ],
          "name": "FSCheckpoints",
          "outputs": [
            {
              "internalType": "uint32",
              "name": "fromBlock",
              "type": "uint32"
            },
            {
              "internalType": "uint96",
              "name": "balance",
              "type": "uint96"
            }
          ],
          "stateMutability": "view",
          "type": "function"
        },
        {
          "inputs": [
            {
              "internalType": "address",
              "name": "account",
              "type": "address"
            },
            {
              "internalType": "address",
              "name": "spender",
              "type": "address"
            }
          ],
          "name": "allowance",
          "outputs": [
            {
              "internalType": "uint256",
              "name": "",
              "type": "uint256"
            }
          ],
          "stateMutability": "view",
          "type": "function"
        },
        {
          "inputs": [
            {
              "internalType": "address",
              "name": "spender",
              "type": "address"
            },
            {
              "internalType": "uint256",
              "name": "rawAmount",
              "type": "uint256"
            }
          ],
          "name": "approve",
          "outputs": [
            {
              "internalType": "bool",
              "name": "",
              "type": "bool"
            }
          ],
          "stateMutability": "nonpayable",
          "type": "function"
        },
        {
          "inputs": [
            {
              "internalType": "address",
              "name": "account",
              "type": "address"
            }
          ],
          "name": "balanceOf",
          "outputs": [
            {
              "internalType": "uint256",
              "name": "",
              "type": "uint256"
            }
          ],
          "stateMutability": "view",
          "type": "function"
        },
        {
          "inputs": [
            {
              "internalType": "address",
              "name": "",
              "type": "address"
            },
            {
              "internalType": "uint32",
              "name": "",
              "type": "uint32"
            }
          ],
          "name": "checkpoints",
          "outputs": [
            {
              "internalType": "uint32",
              "name": "fromBlock",
              "type": "uint32"
            },
            {
              "internalType": "uint96",
              "name": "votes",
              "type": "uint96"
            }
          ],
          "stateMutability": "view",
          "type": "function"
        },
        {
          "inputs": [],
          "name": "decimals",
          "outputs": [
            {
              "internalType": "uint8",
              "name": "",
              "type": "uint8"
            }
          ],
          "stateMutability": "view",
          "type": "function"
        },
        {
          "inputs": [
            {
              "internalType": "address",
              "name": "delegatee",
              "type": "address"
            }
          ],
          "name": "delegate",
          "outputs": [],
          "stateMutability": "nonpayable",
          "type": "function"
        },
        {
          "inputs": [
            {
              "internalType": "address",
              "name": "delegatee",
              "type": "address"
            },
            {
              "internalType": "uint256",
              "name": "nonce",
              "type": "uint256"
            },
            {
              "internalType": "uint256",
              "name": "expiry",
              "type": "uint256"
            },
            {
              "internalType": "uint8",
              "name": "v",
              "type": "uint8"
            },
            {
              "internalType": "bytes32",
              "name": "r",
              "type": "bytes32"
            },
            {
              "internalType": "bytes32",
              "name": "s",
              "type": "bytes32"
            }
          ],
          "name": "delegateBySig",
          "outputs": [],
          "stateMutability": "nonpayable",
          "type": "function"
        },
        {
          "inputs": [
            {
              "internalType": "address",
              "name": "",
              "type": "address"
            }
          ],
          "name": "delegates",
          "outputs": [
            {
              "internalType": "address",
              "name": "",
              "type": "address"
            }
          ],
          "stateMutability": "view",
          "type": "function"
        },
        {
          "inputs": [
            {
              "internalType": "address",
              "name": "account",
              "type": "address"
            }
          ],
          "name": "getCurrentVotes",
          "outputs": [
            {
              "internalType": "uint96",
              "name": "",
              "type": "uint96"
            }
          ],
          "stateMutability": "view",
          "type": "function"
        },
        {
          "inputs": [
            {
              "internalType": "address",
              "name": "account",
              "type": "address"
            },
            {
              "internalType": "uint256",
              "name": "blockNumber",
              "type": "uint256"
            }
          ],
          "name": "getPriorFSRatio",
          "outputs": [
            {
              "internalType": "uint96",
              "name": "",
              "type": "uint96"
            }
          ],
          "stateMutability": "view",
          "type": "function"
        },
        {
          "inputs": [
            {
              "internalType": "address",
              "name": "account",
              "type": "address"
            },
            {
              "internalType": "uint256",
              "name": "blockNumber",
              "type": "uint256"
            }
          ],
          "name": "getPriorVotes",
          "outputs": [
            {
              "internalType": "uint96",
              "name": "",
              "type": "uint96"
            }
          ],
          "stateMutability": "view",
          "type": "function"
        },
        {
          "inputs": [],
          "name": "name",
          "outputs": [
            {
              "internalType": "string",
              "name": "",
              "type": "string"
            }
          ],
          "stateMutability": "view",
          "type": "function"
        },
        {
          "inputs": [
            {
              "internalType": "address",
              "name": "",
              "type": "address"
            }
          ],
          "name": "nonces",
          "outputs": [
            {
              "internalType": "uint256",
              "name": "",
              "type": "uint256"
            }
          ],
          "stateMutability": "view",
          "type": "function"
        },
        {
          "inputs": [
            {
              "internalType": "address",
              "name": "",
              "type": "address"
            }
          ],
          "name": "numCheckpoints",
          "outputs": [
            {
              "internalType": "uint32",
              "name": "",
              "type": "uint32"
            }
          ],
          "stateMutability": "view",
          "type": "function"
        },
        {
          "inputs": [
            {
              "internalType": "address",
              "name": "",
              "type": "address"
            }
          ],
          "name": "numFSCheckpoints",
          "outputs": [
            {
              "internalType": "uint32",
              "name": "",
              "type": "uint32"
            }
          ],
          "stateMutability": "view",
          "type": "function"
        },
        {
          "inputs": [],
          "name": "symbol",
          "outputs": [
            {
              "internalType": "string",
              "name": "",
              "type": "string"
            }
          ],
          "stateMutability": "view",
          "type": "function"
        },
        {
          "inputs": [],
          "name": "totalSupply",
          "outputs": [
            {
              "internalType": "uint256",
              "name": "",
              "type": "uint256"
            }
          ],
          "stateMutability": "view",
          "type": "function"
        },
        {
          "inputs": [
            {
              "internalType": "address",
              "name": "dst",
              "type": "address"
            },
            {
              "internalType": "uint256",
              "name": "rawAmount",
              "type": "uint256"
            }
          ],
          "name": "transfer",
          "outputs": [
            {
              "internalType": "bool",
              "name": "",
              "type": "bool"
            }
          ],
          "stateMutability": "nonpayable",
          "type": "function"
        },
        {
          "inputs": [
            {
              "internalType": "address",
              "name": "src",
              "type": "address"
            },
            {
              "internalType": "address",
              "name": "dst",
              "type": "address"
            },
            {
              "internalType": "uint256",
              "name": "rawAmount",
              "type": "uint256"
            }
          ],
          "name": "transferFrom",
          "outputs": [
            {
              "internalType": "bool",
              "name": "",
              "type": "bool"
            }
          ],
          "stateMutability": "nonpayable",
          "type": "function"
        }
      ],
      "evm": {
        "bytecode": {
          "linkReferences": {},
          "object": "60c0604052601b60808190527f457468657265756d2050757368204e6f74696669636174696f6e73000000000060a090815262000040916000919062000111565b50604080518082019091526004808252630a0aaa6960e31b60209092019182526200006e9160019162000111565b506002805460ff191660121790556a52b7d2dcc80cd2e40000006003553480156200009857600080fd5b50600380543360008181526005602052604080822080546001600160601b0319166001600160601b0390951694909417909355925491519092839290917fddf252ad1be2c89b69c2b068fc378daa952ba7f163c4a11628f55a4df523b3ef916200010291620001b6565b60405180910390a350620001bf565b828054600181600116156101000203166002900490600052602060002090601f016020900481019282601f106200015457805160ff191683800117855562000184565b8280016001018555821562000184579182015b828111156200018457825182559160200191906001019062000167565b506200019292915062000196565b5090565b620001b391905b808211156200019257600081556001016200019d565b90565b90815260200190565b611f5880620001cf6000396000f3fe608060405234801561001057600080fd5b50600436106101425760003560e01c8063782d6fe1116100b8578063c3cda5201161007c578063c3cda520146102a6578063dd62ed3e146102b9578063e4a5049f146102cc578063e7a324dc146102ed578063f1127ed8146102f5578063f5e989031461030857610142565b8063782d6fe1146102525780637ecebe001461026557806395d89b4114610278578063a9059cbb14610280578063b4b5ea571461029357610142565b8063313ce5671161010a578063313ce567146101b5578063449d1c1f146101ca578063587cde1e146101ea5780635c19a95c1461020a5780636fcfff451461021f57806370a082311461023f57610142565b806306fdde0314610147578063095ea7b31461016557806318160ddd1461018557806320606b701461019a57806323b872dd146101a2575b600080fd5b61014f61031b565b60405161015c9190611a7b565b60405180910390f35b6101786101733660046117f0565b6103a9565b60405161015c9190611a01565b61018d610468565b60405161015c9190611a0c565b61018d61046e565b6101786101b03660046117b0565b610485565b6101bd6105cc565b60405161015c9190611ccd565b6101dd6101d83660046117f0565b6105d5565b60405161015c9190611cdb565b6101fd6101f8366004611761565b6107ec565b60405161015c91906119ed565b61021d610218366004611761565b610807565b005b61023261022d366004611761565b610814565b60405161015c9190611c9d565b61018d61024d366004611761565b61082c565b6101dd6102603660046117f0565b610850565b61018d610273366004611761565b610a19565b61014f610a2b565b61017861028e3660046117f0565b610a85565b6101dd6102a1366004611761565b610acc565b61021d6102b436600461181a565b610b3d565b61018d6102c736600461177c565b610cfc565b6102df6102da366004611879565b610d30565b60405161015c929190611cae565b61018d610d65565b6102df610303366004611879565b610d71565b610232610316366004611761565b610da6565b6000805460408051602060026001851615610100026000190190941693909304601f810184900484028201840190925281815292918301828280156103a15780601f10610376576101008083540402835291602001916103a1565b820191906000526020600020905b81548152906001019060200180831161038457829003601f168201915b505050505081565b6000806000198314156103bf57506000196103e4565b6103e183604051806060016040528060258152602001611efe60259139610dbe565b90505b3360008181526004602090815260408083206001600160a01b03891680855292529182902080546001600160601b0319166001600160601b03861617905590519091907f8c5be1e5ebec7d5bd14f71427d1e84f3dd0314c0f7b2291e5b200ac8c7c3b92590610454908590611cdb565b60405180910390a360019150505b92915050565b60035481565b60405161047a90611943565b604051809103902081565b6001600160a01b03831660009081526004602090815260408083203380855290835281842054825160608101909352602580845291936001600160601b039091169285926104dd9288929190611efe90830139610dbe565b9050866001600160a01b0316836001600160a01b03161415801561050a57506001600160601b0382811614155b156105b457600061053483836040518060600160405280603d8152602001611e36603d9139610ded565b6001600160a01b038981166000818152600460209081526040808320948a16808452949091529081902080546001600160601b0319166001600160601b0386161790555192935090917f8c5be1e5ebec7d5bd14f71427d1e84f3dd0314c0f7b2291e5b200ac8c7c3b925906105aa908590611cdb565b60405180910390a3505b6105bf878783610e2c565b5060019695505050505050565b60025460ff1681565b60004382106105ff5760405162461bcd60e51b81526004016105f690611c56565b60405180910390fd5b6001600160a01b0383166000908152600a602052604090205463ffffffff168061062d576000915050610462565b6001600160a01b038416600090815260076020908152604080832063ffffffff6000198601811685529252909120541683106106a9576001600160a01b03841660009081526007602090815260408083206000199490940163ffffffff1683529290522054600160201b90046001600160601b03169050610462565b6001600160a01b038416600090815260076020908152604080832083805290915290205463ffffffff168310156106e4576000915050610462565b600060001982015b8163ffffffff168163ffffffff1611156107a757600282820363ffffffff16048103610716611733565b506001600160a01b038716600090815260076020908152604080832063ffffffff858116855290835292819020815180830190925254928316808252600160201b9093046001600160601b03169181019190915290871415610782576020015194506104629350505050565b805163ffffffff16871115610799578193506107a0565b6001820392505b50506106ec565b506001600160a01b038516600090815260076020908152604080832063ffffffff909416835292905220546001600160601b03600160201b9091041691505092915050565b6006602052600090815260409020546001600160a01b031681565b6108113382610fd7565b50565b60086020526000908152604090205463ffffffff1681565b6001600160a01b03166000908152600560205260409020546001600160601b031690565b60004382106108715760405162461bcd60e51b81526004016105f690611c56565b6001600160a01b03831660009081526008602052604090205463ffffffff168061089f576000915050610462565b6001600160a01b038416600090815260076020908152604080832063ffffffff60001986018116855292529091205416831061091b576001600160a01b03841660009081526007602090815260408083206000199490940163ffffffff1683529290522054600160201b90046001600160601b03169050610462565b6001600160a01b038416600090815260076020908152604080832083805290915290205463ffffffff16831015610956576000915050610462565b600060001982015b8163ffffffff168163ffffffff1611156107a757600282820363ffffffff16048103610988611733565b506001600160a01b038716600090815260076020908152604080832063ffffffff858116855290835292819020815180830190925254928316808252600160201b9093046001600160601b031691810191909152908714156109f4576020015194506104629350505050565b805163ffffffff16871115610a0b57819350610a12565b6001820392505b505061095e565b600b6020526000908152604090205481565b60018054604080516020600284861615610100026000190190941693909304601f810184900484028201840190925281815292918301828280156103a15780601f10610376576101008083540402835291602001916103a1565b600080610aaa83604051806060016040528060268152602001611e7360269139610dbe565b9050610ab7338583611061565b610ac2338583610e2c565b5060019392505050565b6001600160a01b03811660009081526008602052604081205463ffffffff1680610af7576000610b36565b6001600160a01b0383166000908152600760209081526040808320600019850163ffffffff168452909152902054600160201b90046001600160601b03165b9392505050565b6000604051610b4b90611943565b60405180910390206000604051610b6291906118b8565b6040518091039020610b726111f3565b30604051602001610b869493929190611a39565b6040516020818303038152906040528051906020012090506000604051610bac9061199e565b604051908190038120610bc7918a908a908a90602001611a15565b60405160208183030381529060405280519060200120905060008282604051602001610bf4929190611928565b604051602081830303815290604052805190602001209050600060018288888860405160008152602001604052604051610c319493929190611a5d565b6020604051602081039080840390855afa158015610c53573d6000803e3d6000fd5b5050604051601f1901519150506001600160a01b038116610c865760405162461bcd60e51b81526004016105f690611bb3565b6001600160a01b0381166000908152600b602052604090208054600181019091558914610cc55760405162461bcd60e51b81526004016105f690611ace565b87421115610ce55760405162461bcd60e51b81526004016105f690611b6d565b610cef818b610fd7565b505050505b505050505050565b6001600160a01b0391821660009081526004602090815260408083209390941682529190915220546001600160601b031690565b600960209081526000928352604080842090915290825290205463ffffffff811690600160201b90046001600160601b031682565b60405161047a9061199e565b600760209081526000928352604080842090915290825290205463ffffffff811690600160201b90046001600160601b031682565b600a6020526000908152604090205463ffffffff1681565b600081600160601b8410610de55760405162461bcd60e51b81526004016105f69190611a7b565b509192915050565b6000836001600160601b0316836001600160601b031611158290610e245760405162461bcd60e51b81526004016105f69190611a7b565b505050900390565b6001600160a01b038316610e525760405162461bcd60e51b81526004016105f690611b10565b6001600160a01b038216610e785760405162461bcd60e51b81526004016105f690611bf9565b6001600160a01b038316600090815260056020908152604091829020548251606081019093526036808452610ec3936001600160601b039092169285929190611d4790830139610ded565b6001600160a01b03848116600090815260056020908152604080832080546001600160601b0319166001600160601b03968716179055928616825290829020548251606081019093526030808452610f2b9491909116928592909190611db1908301396111f7565b6001600160a01b038381166000818152600560205260409081902080546001600160601b0319166001600160601b0395909516949094179093559151908516907fddf252ad1be2c89b69c2b068fc378daa952ba7f163c4a11628f55a4df523b3ef90610f98908590611cdb565b60405180910390a36001600160a01b03808416600090815260066020526040808220548584168352912054610fd292918216911683611233565b505050565b6001600160a01b03808316600081815260066020818152604080842080546005845282862054949093528787166001600160a01b031984168117909155905191909516946001600160601b039092169391928592917f3134e8a2e6d97e929a7e54011ea5485d7d196dd5f0ba4d4ef95803e8e3fc257f9190a461105b828483611233565b50505050565b816001600160a01b0316836001600160a01b03161415801561108c57506000816001600160601b0316115b15610fd2576001600160a01b03831615611144576001600160a01b0383166000908152600a602052604081205463ffffffff1690816110cc57600061110b565b6001600160a01b0385166000908152600960209081526040808320600019860163ffffffff168452909152902054600160201b90046001600160601b03165b9050600061113282856040518060600160405280602f8152602001611e99602f9139610ded565b9050611140868484846113c5565b5050505b6001600160a01b03821615610fd2576001600160a01b0382166000908152600a602052604081205463ffffffff16908161117f5760006111be565b6001600160a01b0384166000908152600960209081526040808320600019860163ffffffff168452909152902054600160201b90046001600160601b03165b905060006111e582856040518060600160405280602e8152602001611de1602e91396111f7565b9050610cf4858484846113c5565b4690565b6000838301826001600160601b03808716908316101561122a5760405162461bcd60e51b81526004016105f69190611a7b565b50949350505050565b816001600160a01b0316836001600160a01b03161415801561125e57506000816001600160601b0316115b15610fd2576001600160a01b03831615611316576001600160a01b03831660009081526008602052604081205463ffffffff16908161129e5760006112dd565b6001600160a01b0385166000908152600760209081526040808320600019860163ffffffff168452909152902054600160201b90046001600160601b03165b905060006113048285604051806060016040528060288152602001611d1f60289139610ded565b905061131286848484611570565b5050505b6001600160a01b03821615610fd2576001600160a01b03821660009081526008602052604081205463ffffffff169081611351576000611390565b6001600160a01b0384166000908152600760209081526040808320600019860163ffffffff168452909152902054600160201b90046001600160601b03165b905060006113b78285604051806060016040528060278152602001611e0f602791396111f7565b9050610cf485848484611570565b60006113e943604051806060016040528060368152602001611ec86036913961170c565b905060008463ffffffff1611801561143257506001600160a01b038516600090815260096020908152604080832063ffffffff6000198901811685529252909120548282169116145b1561148c576001600160a01b0385166000908152600960209081526040808320600019880163ffffffff16845290915290208054640100000000600160801b031916600160201b6001600160601b03851602179055611526565b60408051808201825263ffffffff80841682526001600160601b0380861660208085019182526001600160a01b038b166000818152600983528781208c871682528352878120965187549451909516600160201b02640100000000600160801b031995871663ffffffff19958616179590951694909417909555938252600a90935292909220805460018801909316929091169190911790555b846001600160a01b03167f3057c18a765fe76320d0f9401f2f7e0d0f1ad9bcee8fe79d7ee864104c1f0fb38484604051611561929190611cef565b60405180910390a25050505050565b600061159443604051806060016040528060348152602001611d7d6034913961170c565b905060008463ffffffff161180156115dd57506001600160a01b038516600090815260076020908152604080832063ffffffff6000198901811685529252909120548282169116145b15611637576001600160a01b0385166000908152600760209081526040808320600019880163ffffffff16845290915290208054640100000000600160801b031916600160201b6001600160601b038516021790556116d1565b60408051808201825263ffffffff80841682526001600160601b0380861660208085019182526001600160a01b038b166000818152600783528781208c871682528352878120965187549451909516600160201b02640100000000600160801b031995871663ffffffff19958616179590951694909417909555938252600890935292909220805460018801909316929091169190911790555b846001600160a01b03167fdec2bacdd2f05b59de34da9b523dff8be42e5e38e818c82fdb0bae774387a7248484604051611561929190611cef565b600081600160201b8410610de55760405162461bcd60e51b81526004016105f69190611a7b565b604080518082019091526000808252602082015290565b80356001600160a01b038116811461046257600080fd5b600060208284031215611772578081fd5b610b36838361174a565b6000806040838503121561178e578081fd5b611798848461174a565b91506117a7846020850161174a565b90509250929050565b6000806000606084860312156117c4578081fd5b83356117cf81611d09565b925060208401356117df81611d09565b929592945050506040919091013590565b60008060408385031215611802578182fd5b61180c848461174a565b946020939093013593505050565b60008060008060008060c08789031215611832578182fd5b61183c888861174a565b95506020870135945060408701359350606087013560ff8116811461185f578283fd5b9598949750929560808101359460a0909101359350915050565b6000806040838503121561188b578182fd5b611895848461174a565b9150602083013563ffffffff811681146118ad578182fd5b809150509250929050565b60008083546001808216600081146118d757600181146118ee5761191d565b60ff198316865260028304607f168601935061191d565b600283048786526020808720875b838110156119155781548a8201529085019082016118fc565b505050860193505b509195945050505050565b61190160f01b81526002810192909252602282015260420190565b7f454950373132446f6d61696e28737472696e67206e616d652c75696e7432353681527f20636861696e49642c6164647265737320766572696679696e67436f6e74726160208201526263742960e81b604082015260430190565b7f44656c65676174696f6e28616464726573732064656c6567617465652c75696e81527f74323536206e6f6e63652c75696e7432353620657870697279290000000000006020820152603a0190565b6001600160a01b0391909116815260200190565b901515815260200190565b90815260200190565b9384526001600160a01b039290921660208401526040830152606082015260800190565b938452602084019290925260408301526001600160a01b0316606082015260800190565b93845260ff9290921660208401526040830152606082015260800190565b6000602080835283518082850152825b81811015611aa757858101830151858201604001528201611a8b565b81811115611ab85783604083870101525b50601f01601f1916929092016040019392505050565b60208082526022908201527f45504e533a3a64656c656761746542795369673a20696e76616c6964206e6f6e604082015261636560f01b606082015260800190565b6020808252603c908201527f45504e533a3a5f7472616e73666572546f6b656e733a2063616e6e6f7420747260408201527f616e736665722066726f6d20746865207a65726f206164647265737300000000606082015260800190565b60208082526026908201527f45504e533a3a64656c656761746542795369673a207369676e617475726520656040820152651e1c1a5c995960d21b606082015260800190565b60208082526026908201527f45504e533a3a64656c656761746542795369673a20696e76616c6964207369676040820152656e617475726560d01b606082015260800190565b6020808252603a908201527f45504e533a3a5f7472616e73666572546f6b656e733a2063616e6e6f7420747260408201527f616e7366657220746f20746865207a65726f2061646472657373000000000000606082015260800190565b60208082526027908201527f45504e533a3a6765745072696f72566f7465733a206e6f742079657420646574604082015266195c9b5a5b995960ca1b606082015260800190565b63ffffffff91909116815260200190565b63ffffffff9290921682526001600160601b0316602082015260400190565b60ff91909116815260200190565b6001600160601b0391909116815260200190565b6001600160601b0392831681529116602082015260400190565b6001600160a01b038116811461081157600080fdfe45504e533a3a5f6d6f7665566f7465733a20766f746520616d6f756e7420756e646572666c6f777345504e533a3a5f7472616e73666572546f6b656e733a207472616e7366657220616d6f756e7420657863656564732062616c616e636545504e533a3a5f7772697465436865636b706f696e743a20626c6f636b206e756d6265722065786365656473203332206269747345504e533a3a5f7472616e73666572546f6b656e733a207472616e7366657220616d6f756e74206f766572666c6f777345504e533a3a5f7570646174654653526174696f3a2062616c616e636520616d6f756e74206f766572666c6f777345504e533a3a5f6d6f7665566f7465733a20766f746520616d6f756e74206f766572666c6f777345504e533a3a7472616e7366657246726f6d3a207472616e7366657220616d6f756e742065786365656473207370656e64657220616c6c6f77616e636545504e533a3a7472616e736665723a20616d6f756e742065786365656473203936206269747345504e533a3a5f7570646174654653526174696f3a2062616c616e636520616d6f756e7420756e646572666c6f777345504e533a3a5f77726974654653436865636b706f696e743a20626c6f636b206e756d6265722065786365656473203332206269747345504e533a3a617070726f76653a20616d6f756e7420657863656564732039362062697473a26469706673582212208399a401b486ea89f2ab8ed7c35413f87d743945acd91829e9d830aa7abbcdec64736f6c634300060b0033",
          "opcodes": "PUSH1 0xC0 PUSH1 0x40 MSTORE PUSH1 0x1B PUSH1 0x80 DUP2 SWAP1 MSTORE PUSH32 0x457468657265756D2050757368204E6F74696669636174696F6E730000000000 PUSH1 0xA0 SWAP1 DUP2 MSTORE PUSH3 0x40 SWAP2 PUSH1 0x0 SWAP2 SWAP1 PUSH3 0x111 JUMP JUMPDEST POP PUSH1 0x40 DUP1 MLOAD DUP1 DUP3 ADD SWAP1 SWAP2 MSTORE PUSH1 0x4 DUP1 DUP3 MSTORE PUSH4 0xA0AAA69 PUSH1 0xE3 SHL PUSH1 0x20 SWAP1 SWAP3 ADD SWAP2 DUP3 MSTORE PUSH3 0x6E SWAP2 PUSH1 0x1 SWAP2 PUSH3 0x111 JUMP JUMPDEST POP PUSH1 0x2 DUP1 SLOAD PUSH1 0xFF NOT AND PUSH1 0x12 OR SWAP1 SSTORE PUSH11 0x52B7D2DCC80CD2E4000000 PUSH1 0x3 SSTORE CALLVALUE DUP1 ISZERO PUSH3 0x98 JUMPI PUSH1 0x0 DUP1 REVERT JUMPDEST POP PUSH1 0x3 DUP1 SLOAD CALLER PUSH1 0x0 DUP2 DUP2 MSTORE PUSH1 0x5 PUSH1 0x20 MSTORE PUSH1 0x40 DUP1 DUP3 KECCAK256 DUP1 SLOAD PUSH1 0x1 PUSH1 0x1 PUSH1 0x60 SHL SUB NOT AND PUSH1 0x1 PUSH1 0x1 PUSH1 0x60 SHL SUB SWAP1 SWAP6 AND SWAP5 SWAP1 SWAP5 OR SWAP1 SWAP4 SSTORE SWAP3 SLOAD SWAP2 MLOAD SWAP1 SWAP3 DUP4 SWAP3 SWAP1 SWAP2 PUSH32 0xDDF252AD1BE2C89B69C2B068FC378DAA952BA7F163C4A11628F55A4DF523B3EF SWAP2 PUSH3 0x102 SWAP2 PUSH3 0x1B6 JUMP JUMPDEST PUSH1 0x40 MLOAD DUP1 SWAP2 SUB SWAP1 LOG3 POP PUSH3 0x1BF JUMP JUMPDEST DUP3 DUP1 SLOAD PUSH1 0x1 DUP2 PUSH1 0x1 AND ISZERO PUSH2 0x100 MUL SUB AND PUSH1 0x2 SWAP1 DIV SWAP1 PUSH1 0x0 MSTORE PUSH1 0x20 PUSH1 0x0 KECCAK256 SWAP1 PUSH1 0x1F ADD PUSH1 0x20 SWAP1 DIV DUP2 ADD SWAP3 DUP3 PUSH1 0x1F LT PUSH3 0x154 JUMPI DUP1 MLOAD PUSH1 0xFF NOT AND DUP4 DUP1 ADD OR DUP6 SSTORE PUSH3 0x184 JUMP JUMPDEST DUP3 DUP1 ADD PUSH1 0x1 ADD DUP6 SSTORE DUP3 ISZERO PUSH3 0x184 JUMPI SWAP2 DUP3 ADD JUMPDEST DUP3 DUP2 GT ISZERO PUSH3 0x184 JUMPI DUP3 MLOAD DUP3 SSTORE SWAP2 PUSH1 0x20 ADD SWAP2 SWAP1 PUSH1 0x1 ADD SWAP1 PUSH3 0x167 JUMP JUMPDEST POP PUSH3 0x192 SWAP3 SWAP2 POP PUSH3 0x196 JUMP JUMPDEST POP SWAP1 JUMP JUMPDEST PUSH3 0x1B3 SWAP2 SWAP1 JUMPDEST DUP1 DUP3 GT ISZERO PUSH3 0x192 JUMPI PUSH1 0x0 DUP2 SSTORE PUSH1 0x1 ADD PUSH3 0x19D JUMP JUMPDEST SWAP1 JUMP JUMPDEST SWAP1 DUP2 MSTORE PUSH1 0x20 ADD SWAP1 JUMP JUMPDEST PUSH2 0x1F58 DUP1 PUSH3 0x1CF PUSH1 0x0 CODECOPY PUSH1 0x0 RETURN INVALID PUSH1 0x80 PUSH1 0x40 MSTORE CALLVALUE DUP1 ISZERO PUSH2 0x10 JUMPI PUSH1 0x0 DUP1 REVERT JUMPDEST POP PUSH1 0x4 CALLDATASIZE LT PUSH2 0x142 JUMPI PUSH1 0x0 CALLDATALOAD PUSH1 0xE0 SHR DUP1 PUSH4 0x782D6FE1 GT PUSH2 0xB8 JUMPI DUP1 PUSH4 0xC3CDA520 GT PUSH2 0x7C JUMPI DUP1 PUSH4 0xC3CDA520 EQ PUSH2 0x2A6 JUMPI DUP1 PUSH4 0xDD62ED3E EQ PUSH2 0x2B9 JUMPI DUP1 PUSH4 0xE4A5049F EQ PUSH2 0x2CC JUMPI DUP1 PUSH4 0xE7A324DC EQ PUSH2 0x2ED JUMPI DUP1 PUSH4 0xF1127ED8 EQ PUSH2 0x2F5 JUMPI DUP1 PUSH4 0xF5E98903 EQ PUSH2 0x308 JUMPI PUSH2 0x142 JUMP JUMPDEST DUP1 PUSH4 0x782D6FE1 EQ PUSH2 0x252 JUMPI DUP1 PUSH4 0x7ECEBE00 EQ PUSH2 0x265 JUMPI DUP1 PUSH4 0x95D89B41 EQ PUSH2 0x278 JUMPI DUP1 PUSH4 0xA9059CBB EQ PUSH2 0x280 JUMPI DUP1 PUSH4 0xB4B5EA57 EQ PUSH2 0x293 JUMPI PUSH2 0x142 JUMP JUMPDEST DUP1 PUSH4 0x313CE567 GT PUSH2 0x10A JUMPI DUP1 PUSH4 0x313CE567 EQ PUSH2 0x1B5 JUMPI DUP1 PUSH4 0x449D1C1F EQ PUSH2 0x1CA JUMPI DUP1 PUSH4 0x587CDE1E EQ PUSH2 0x1EA JUMPI DUP1 PUSH4 0x5C19A95C EQ PUSH2 0x20A JUMPI DUP1 PUSH4 0x6FCFFF45 EQ PUSH2 0x21F JUMPI DUP1 PUSH4 0x70A08231 EQ PUSH2 0x23F JUMPI PUSH2 0x142 JUMP JUMPDEST DUP1 PUSH4 0x6FDDE03 EQ PUSH2 0x147 JUMPI DUP1 PUSH4 0x95EA7B3 EQ PUSH2 0x165 JUMPI DUP1 PUSH4 0x18160DDD EQ PUSH2 0x185 JUMPI DUP1 PUSH4 0x20606B70 EQ PUSH2 0x19A JUMPI DUP1 PUSH4 0x23B872DD EQ PUSH2 0x1A2 JUMPI JUMPDEST PUSH1 0x0 DUP1 REVERT JUMPDEST PUSH2 0x14F PUSH2 0x31B JUMP JUMPDEST PUSH1 0x40 MLOAD PUSH2 0x15C SWAP2 SWAP1 PUSH2 0x1A7B JUMP JUMPDEST PUSH1 0x40 MLOAD DUP1 SWAP2 SUB SWAP1 RETURN JUMPDEST PUSH2 0x178 PUSH2 0x173 CALLDATASIZE PUSH1 0x4 PUSH2 0x17F0 JUMP JUMPDEST PUSH2 0x3A9 JUMP JUMPDEST PUSH1 0x40 MLOAD PUSH2 0x15C SWAP2 SWAP1 PUSH2 0x1A01 JUMP JUMPDEST PUSH2 0x18D PUSH2 0x468 JUMP JUMPDEST PUSH1 0x40 MLOAD PUSH2 0x15C SWAP2 SWAP1 PUSH2 0x1A0C JUMP JUMPDEST PUSH2 0x18D PUSH2 0x46E JUMP JUMPDEST PUSH2 0x178 PUSH2 0x1B0 CALLDATASIZE PUSH1 0x4 PUSH2 0x17B0 JUMP JUMPDEST PUSH2 0x485 JUMP JUMPDEST PUSH2 0x1BD PUSH2 0x5CC JUMP JUMPDEST PUSH1 0x40 MLOAD PUSH2 0x15C SWAP2 SWAP1 PUSH2 0x1CCD JUMP JUMPDEST PUSH2 0x1DD PUSH2 0x1D8 CALLDATASIZE PUSH1 0x4 PUSH2 0x17F0 JUMP JUMPDEST PUSH2 0x5D5 JUMP JUMPDEST PUSH1 0x40 MLOAD PUSH2 0x15C SWAP2 SWAP1 PUSH2 0x1CDB JUMP JUMPDEST PUSH2 0x1FD PUSH2 0x1F8 CALLDATASIZE PUSH1 0x4 PUSH2 0x1761 JUMP JUMPDEST PUSH2 0x7EC JUMP JUMPDEST PUSH1 0x40 MLOAD PUSH2 0x15C SWAP2 SWAP1 PUSH2 0x19ED JUMP JUMPDEST PUSH2 0x21D PUSH2 0x218 CALLDATASIZE PUSH1 0x4 PUSH2 0x1761 JUMP JUMPDEST PUSH2 0x807 JUMP JUMPDEST STOP JUMPDEST PUSH2 0x232 PUSH2 0x22D CALLDATASIZE PUSH1 0x4 PUSH2 0x1761 JUMP JUMPDEST PUSH2 0x814 JUMP JUMPDEST PUSH1 0x40 MLOAD PUSH2 0x15C SWAP2 SWAP1 PUSH2 0x1C9D JUMP JUMPDEST PUSH2 0x18D PUSH2 0x24D CALLDATASIZE PUSH1 0x4 PUSH2 0x1761 JUMP JUMPDEST PUSH2 0x82C JUMP JUMPDEST PUSH2 0x1DD PUSH2 0x260 CALLDATASIZE PUSH1 0x4 PUSH2 0x17F0 JUMP JUMPDEST PUSH2 0x850 JUMP JUMPDEST PUSH2 0x18D PUSH2 0x273 CALLDATASIZE PUSH1 0x4 PUSH2 0x1761 JUMP JUMPDEST PUSH2 0xA19 JUMP JUMPDEST PUSH2 0x14F PUSH2 0xA2B JUMP JUMPDEST PUSH2 0x178 PUSH2 0x28E CALLDATASIZE PUSH1 0x4 PUSH2 0x17F0 JUMP JUMPDEST PUSH2 0xA85 JUMP JUMPDEST PUSH2 0x1DD PUSH2 0x2A1 CALLDATASIZE PUSH1 0x4 PUSH2 0x1761 JUMP JUMPDEST PUSH2 0xACC JUMP JUMPDEST PUSH2 0x21D PUSH2 0x2B4 CALLDATASIZE PUSH1 0x4 PUSH2 0x181A JUMP JUMPDEST PUSH2 0xB3D JUMP JUMPDEST PUSH2 0x18D PUSH2 0x2C7 CALLDATASIZE PUSH1 0x4 PUSH2 0x177C JUMP JUMPDEST PUSH2 0xCFC JUMP JUMPDEST PUSH2 0x2DF PUSH2 0x2DA CALLDATASIZE PUSH1 0x4 PUSH2 0x1879 JUMP JUMPDEST PUSH2 0xD30 JUMP JUMPDEST PUSH1 0x40 MLOAD PUSH2 0x15C SWAP3 SWAP2 SWAP1 PUSH2 0x1CAE JUMP JUMPDEST PUSH2 0x18D PUSH2 0xD65 JUMP JUMPDEST PUSH2 0x2DF PUSH2 0x303 CALLDATASIZE PUSH1 0x4 PUSH2 0x1879 JUMP JUMPDEST PUSH2 0xD71 JUMP JUMPDEST PUSH2 0x232 PUSH2 0x316 CALLDATASIZE PUSH1 0x4 PUSH2 0x1761 JUMP JUMPDEST PUSH2 0xDA6 JUMP JUMPDEST PUSH1 0x0 DUP1 SLOAD PUSH1 0x40 DUP1 MLOAD PUSH1 0x20 PUSH1 0x2 PUSH1 0x1 DUP6 AND ISZERO PUSH2 0x100 MUL PUSH1 0x0 NOT ADD SWAP1 SWAP5 AND SWAP4 SWAP1 SWAP4 DIV PUSH1 0x1F DUP2 ADD DUP5 SWAP1 DIV DUP5 MUL DUP3 ADD DUP5 ADD SWAP1 SWAP3 MSTORE DUP2 DUP2 MSTORE SWAP3 SWAP2 DUP4 ADD DUP3 DUP3 DUP1 ISZERO PUSH2 0x3A1 JUMPI DUP1 PUSH1 0x1F LT PUSH2 0x376 JUMPI PUSH2 0x100 DUP1 DUP4 SLOAD DIV MUL DUP4 MSTORE SWAP2 PUSH1 0x20 ADD SWAP2 PUSH2 0x3A1 JUMP JUMPDEST DUP3 ADD SWAP2 SWAP1 PUSH1 0x0 MSTORE PUSH1 0x20 PUSH1 0x0 KECCAK256 SWAP1 JUMPDEST DUP2 SLOAD DUP2 MSTORE SWAP1 PUSH1 0x1 ADD SWAP1 PUSH1 0x20 ADD DUP1 DUP4 GT PUSH2 0x384 JUMPI DUP3 SWAP1 SUB PUSH1 0x1F AND DUP3 ADD SWAP2 JUMPDEST POP POP POP POP POP DUP2 JUMP JUMPDEST PUSH1 0x0 DUP1 PUSH1 0x0 NOT DUP4 EQ ISZERO PUSH2 0x3BF JUMPI POP PUSH1 0x0 NOT PUSH2 0x3E4 JUMP JUMPDEST PUSH2 0x3E1 DUP4 PUSH1 0x40 MLOAD DUP1 PUSH1 0x60 ADD PUSH1 0x40 MSTORE DUP1 PUSH1 0x25 DUP2 MSTORE PUSH1 0x20 ADD PUSH2 0x1EFE PUSH1 0x25 SWAP2 CODECOPY PUSH2 0xDBE JUMP JUMPDEST SWAP1 POP JUMPDEST CALLER PUSH1 0x0 DUP2 DUP2 MSTORE PUSH1 0x4 PUSH1 0x20 SWAP1 DUP2 MSTORE PUSH1 0x40 DUP1 DUP4 KECCAK256 PUSH1 0x1 PUSH1 0x1 PUSH1 0xA0 SHL SUB DUP10 AND DUP1 DUP6 MSTORE SWAP3 MSTORE SWAP2 DUP3 SWAP1 KECCAK256 DUP1 SLOAD PUSH1 0x1 PUSH1 0x1 PUSH1 0x60 SHL SUB NOT AND PUSH1 0x1 PUSH1 0x1 PUSH1 0x60 SHL SUB DUP7 AND OR SWAP1 SSTORE SWAP1 MLOAD SWAP1 SWAP2 SWAP1 PUSH32 0x8C5BE1E5EBEC7D5BD14F71427D1E84F3DD0314C0F7B2291E5B200AC8C7C3B925 SWAP1 PUSH2 0x454 SWAP1 DUP6 SWAP1 PUSH2 0x1CDB JUMP JUMPDEST PUSH1 0x40 MLOAD DUP1 SWAP2 SUB SWAP1 LOG3 PUSH1 0x1 SWAP2 POP POP JUMPDEST SWAP3 SWAP2 POP POP JUMP JUMPDEST PUSH1 0x3 SLOAD DUP2 JUMP JUMPDEST PUSH1 0x40 MLOAD PUSH2 0x47A SWAP1 PUSH2 0x1943 JUMP JUMPDEST PUSH1 0x40 MLOAD DUP1 SWAP2 SUB SWAP1 KECCAK256 DUP2 JUMP JUMPDEST PUSH1 0x1 PUSH1 0x1 PUSH1 0xA0 SHL SUB DUP4 AND PUSH1 0x0 SWAP1 DUP2 MSTORE PUSH1 0x4 PUSH1 0x20 SWAP1 DUP2 MSTORE PUSH1 0x40 DUP1 DUP4 KECCAK256 CALLER DUP1 DUP6 MSTORE SWAP1 DUP4 MSTORE DUP2 DUP5 KECCAK256 SLOAD DUP3 MLOAD PUSH1 0x60 DUP2 ADD SWAP1 SWAP4 MSTORE PUSH1 0x25 DUP1 DUP5 MSTORE SWAP2 SWAP4 PUSH1 0x1 PUSH1 0x1 PUSH1 0x60 SHL SUB SWAP1 SWAP2 AND SWAP3 DUP6 SWAP3 PUSH2 0x4DD SWAP3 DUP9 SWAP3 SWAP2 SWAP1 PUSH2 0x1EFE SWAP1 DUP4 ADD CODECOPY PUSH2 0xDBE JUMP JUMPDEST SWAP1 POP DUP7 PUSH1 0x1 PUSH1 0x1 PUSH1 0xA0 SHL SUB AND DUP4 PUSH1 0x1 PUSH1 0x1 PUSH1 0xA0 SHL SUB AND EQ ISZERO DUP1 ISZERO PUSH2 0x50A JUMPI POP PUSH1 0x1 PUSH1 0x1 PUSH1 0x60 SHL SUB DUP3 DUP2 AND EQ ISZERO JUMPDEST ISZERO PUSH2 0x5B4 JUMPI PUSH1 0x0 PUSH2 0x534 DUP4 DUP4 PUSH1 0x40 MLOAD DUP1 PUSH1 0x60 ADD PUSH1 0x40 MSTORE DUP1 PUSH1 0x3D DUP2 MSTORE PUSH1 0x20 ADD PUSH2 0x1E36 PUSH1 0x3D SWAP2 CODECOPY PUSH2 0xDED JUMP JUMPDEST PUSH1 0x1 PUSH1 0x1 PUSH1 0xA0 SHL SUB DUP10 DUP2 AND PUSH1 0x0 DUP2 DUP2 MSTORE PUSH1 0x4 PUSH1 0x20 SWAP1 DUP2 MSTORE PUSH1 0x40 DUP1 DUP4 KECCAK256 SWAP5 DUP11 AND DUP1 DUP5 MSTORE SWAP5 SWAP1 SWAP2 MSTORE SWAP1 DUP2 SWAP1 KECCAK256 DUP1 SLOAD PUSH1 0x1 PUSH1 0x1 PUSH1 0x60 SHL SUB NOT AND PUSH1 0x1 PUSH1 0x1 PUSH1 0x60 SHL SUB DUP7 AND OR SWAP1 SSTORE MLOAD SWAP3 SWAP4 POP SWAP1 SWAP2 PUSH32 0x8C5BE1E5EBEC7D5BD14F71427D1E84F3DD0314C0F7B2291E5B200AC8C7C3B925 SWAP1 PUSH2 0x5AA SWAP1 DUP6 SWAP1 PUSH2 0x1CDB JUMP JUMPDEST PUSH1 0x40 MLOAD DUP1 SWAP2 SUB SWAP1 LOG3 POP JUMPDEST PUSH2 0x5BF DUP8 DUP8 DUP4 PUSH2 0xE2C JUMP JUMPDEST POP PUSH1 0x1 SWAP7 SWAP6 POP POP POP POP POP POP JUMP JUMPDEST PUSH1 0x2 SLOAD PUSH1 0xFF AND DUP2 JUMP JUMPDEST PUSH1 0x0 NUMBER DUP3 LT PUSH2 0x5FF JUMPI PUSH1 0x40 MLOAD PUSH3 0x461BCD PUSH1 0xE5 SHL DUP2 MSTORE PUSH1 0x4 ADD PUSH2 0x5F6 SWAP1 PUSH2 0x1C56 JUMP JUMPDEST PUSH1 0x40 MLOAD DUP1 SWAP2 SUB SWAP1 REVERT JUMPDEST PUSH1 0x1 PUSH1 0x1 PUSH1 0xA0 SHL SUB DUP4 AND PUSH1 0x0 SWAP1 DUP2 MSTORE PUSH1 0xA PUSH1 0x20 MSTORE PUSH1 0x40 SWAP1 KECCAK256 SLOAD PUSH4 0xFFFFFFFF AND DUP1 PUSH2 0x62D JUMPI PUSH1 0x0 SWAP2 POP POP PUSH2 0x462 JUMP JUMPDEST PUSH1 0x1 PUSH1 0x1 PUSH1 0xA0 SHL SUB DUP5 AND PUSH1 0x0 SWAP1 DUP2 MSTORE PUSH1 0x7 PUSH1 0x20 SWAP1 DUP2 MSTORE PUSH1 0x40 DUP1 DUP4 KECCAK256 PUSH4 0xFFFFFFFF PUSH1 0x0 NOT DUP7 ADD DUP2 AND DUP6 MSTORE SWAP3 MSTORE SWAP1 SWAP2 KECCAK256 SLOAD AND DUP4 LT PUSH2 0x6A9 JUMPI PUSH1 0x1 PUSH1 0x1 PUSH1 0xA0 SHL SUB DUP5 AND PUSH1 0x0 SWAP1 DUP2 MSTORE PUSH1 0x7 PUSH1 0x20 SWAP1 DUP2 MSTORE PUSH1 0x40 DUP1 DUP4 KECCAK256 PUSH1 0x0 NOT SWAP5 SWAP1 SWAP5 ADD PUSH4 0xFFFFFFFF AND DUP4 MSTORE SWAP3 SWAP1 MSTORE KECCAK256 SLOAD PUSH1 0x1 PUSH1 0x20 SHL SWAP1 DIV PUSH1 0x1 PUSH1 0x1 PUSH1 0x60 SHL SUB AND SWAP1 POP PUSH2 0x462 JUMP JUMPDEST PUSH1 0x1 PUSH1 0x1 PUSH1 0xA0 SHL SUB DUP5 AND PUSH1 0x0 SWAP1 DUP2 MSTORE PUSH1 0x7 PUSH1 0x20 SWAP1 DUP2 MSTORE PUSH1 0x40 DUP1 DUP4 KECCAK256 DUP4 DUP1 MSTORE SWAP1 SWAP2 MSTORE SWAP1 KECCAK256 SLOAD PUSH4 0xFFFFFFFF AND DUP4 LT ISZERO PUSH2 0x6E4 JUMPI PUSH1 0x0 SWAP2 POP POP PUSH2 0x462 JUMP JUMPDEST PUSH1 0x0 PUSH1 0x0 NOT DUP3 ADD JUMPDEST DUP2 PUSH4 0xFFFFFFFF AND DUP2 PUSH4 0xFFFFFFFF AND GT ISZERO PUSH2 0x7A7 JUMPI PUSH1 0x2 DUP3 DUP3 SUB PUSH4 0xFFFFFFFF AND DIV DUP2 SUB PUSH2 0x716 PUSH2 0x1733 JUMP JUMPDEST POP PUSH1 0x1 PUSH1 0x1 PUSH1 0xA0 SHL SUB DUP8 AND PUSH1 0x0 SWAP1 DUP2 MSTORE PUSH1 0x7 PUSH1 0x20 SWAP1 DUP2 MSTORE PUSH1 0x40 DUP1 DUP4 KECCAK256 PUSH4 0xFFFFFFFF DUP6 DUP2 AND DUP6 MSTORE SWAP1 DUP4 MSTORE SWAP3 DUP2 SWAP1 KECCAK256 DUP2 MLOAD DUP1 DUP4 ADD SWAP1 SWAP3 MSTORE SLOAD SWAP3 DUP4 AND DUP1 DUP3 MSTORE PUSH1 0x1 PUSH1 0x20 SHL SWAP1 SWAP4 DIV PUSH1 0x1 PUSH1 0x1 PUSH1 0x60 SHL SUB AND SWAP2 DUP2 ADD SWAP2 SWAP1 SWAP2 MSTORE SWAP1 DUP8 EQ ISZERO PUSH2 0x782 JUMPI PUSH1 0x20 ADD MLOAD SWAP5 POP PUSH2 0x462 SWAP4 POP POP POP POP JUMP JUMPDEST DUP1 MLOAD PUSH4 0xFFFFFFFF AND DUP8 GT ISZERO PUSH2 0x799 JUMPI DUP2 SWAP4 POP PUSH2 0x7A0 JUMP JUMPDEST PUSH1 0x1 DUP3 SUB SWAP3 POP JUMPDEST POP POP PUSH2 0x6EC JUMP JUMPDEST POP PUSH1 0x1 PUSH1 0x1 PUSH1 0xA0 SHL SUB DUP6 AND PUSH1 0x0 SWAP1 DUP2 MSTORE PUSH1 0x7 PUSH1 0x20 SWAP1 DUP2 MSTORE PUSH1 0x40 DUP1 DUP4 KECCAK256 PUSH4 0xFFFFFFFF SWAP1 SWAP5 AND DUP4 MSTORE SWAP3 SWAP1 MSTORE KECCAK256 SLOAD PUSH1 0x1 PUSH1 0x1 PUSH1 0x60 SHL SUB PUSH1 0x1 PUSH1 0x20 SHL SWAP1 SWAP2 DIV AND SWAP2 POP POP SWAP3 SWAP2 POP POP JUMP JUMPDEST PUSH1 0x6 PUSH1 0x20 MSTORE PUSH1 0x0 SWAP1 DUP2 MSTORE PUSH1 0x40 SWAP1 KECCAK256 SLOAD PUSH1 0x1 PUSH1 0x1 PUSH1 0xA0 SHL SUB AND DUP2 JUMP JUMPDEST PUSH2 0x811 CALLER DUP3 PUSH2 0xFD7 JUMP JUMPDEST POP JUMP JUMPDEST PUSH1 0x8 PUSH1 0x20 MSTORE PUSH1 0x0 SWAP1 DUP2 MSTORE PUSH1 0x40 SWAP1 KECCAK256 SLOAD PUSH4 0xFFFFFFFF AND DUP2 JUMP JUMPDEST PUSH1 0x1 PUSH1 0x1 PUSH1 0xA0 SHL SUB AND PUSH1 0x0 SWAP1 DUP2 MSTORE PUSH1 0x5 PUSH1 0x20 MSTORE PUSH1 0x40 SWAP1 KECCAK256 SLOAD PUSH1 0x1 PUSH1 0x1 PUSH1 0x60 SHL SUB AND SWAP1 JUMP JUMPDEST PUSH1 0x0 NUMBER DUP3 LT PUSH2 0x871 JUMPI PUSH1 0x40 MLOAD PUSH3 0x461BCD PUSH1 0xE5 SHL DUP2 MSTORE PUSH1 0x4 ADD PUSH2 0x5F6 SWAP1 PUSH2 0x1C56 JUMP JUMPDEST PUSH1 0x1 PUSH1 0x1 PUSH1 0xA0 SHL SUB DUP4 AND PUSH1 0x0 SWAP1 DUP2 MSTORE PUSH1 0x8 PUSH1 0x20 MSTORE PUSH1 0x40 SWAP1 KECCAK256 SLOAD PUSH4 0xFFFFFFFF AND DUP1 PUSH2 0x89F JUMPI PUSH1 0x0 SWAP2 POP POP PUSH2 0x462 JUMP JUMPDEST PUSH1 0x1 PUSH1 0x1 PUSH1 0xA0 SHL SUB DUP5 AND PUSH1 0x0 SWAP1 DUP2 MSTORE PUSH1 0x7 PUSH1 0x20 SWAP1 DUP2 MSTORE PUSH1 0x40 DUP1 DUP4 KECCAK256 PUSH4 0xFFFFFFFF PUSH1 0x0 NOT DUP7 ADD DUP2 AND DUP6 MSTORE SWAP3 MSTORE SWAP1 SWAP2 KECCAK256 SLOAD AND DUP4 LT PUSH2 0x91B JUMPI PUSH1 0x1 PUSH1 0x1 PUSH1 0xA0 SHL SUB DUP5 AND PUSH1 0x0 SWAP1 DUP2 MSTORE PUSH1 0x7 PUSH1 0x20 SWAP1 DUP2 MSTORE PUSH1 0x40 DUP1 DUP4 KECCAK256 PUSH1 0x0 NOT SWAP5 SWAP1 SWAP5 ADD PUSH4 0xFFFFFFFF AND DUP4 MSTORE SWAP3 SWAP1 MSTORE KECCAK256 SLOAD PUSH1 0x1 PUSH1 0x20 SHL SWAP1 DIV PUSH1 0x1 PUSH1 0x1 PUSH1 0x60 SHL SUB AND SWAP1 POP PUSH2 0x462 JUMP JUMPDEST PUSH1 0x1 PUSH1 0x1 PUSH1 0xA0 SHL SUB DUP5 AND PUSH1 0x0 SWAP1 DUP2 MSTORE PUSH1 0x7 PUSH1 0x20 SWAP1 DUP2 MSTORE PUSH1 0x40 DUP1 DUP4 KECCAK256 DUP4 DUP1 MSTORE SWAP1 SWAP2 MSTORE SWAP1 KECCAK256 SLOAD PUSH4 0xFFFFFFFF AND DUP4 LT ISZERO PUSH2 0x956 JUMPI PUSH1 0x0 SWAP2 POP POP PUSH2 0x462 JUMP JUMPDEST PUSH1 0x0 PUSH1 0x0 NOT DUP3 ADD JUMPDEST DUP2 PUSH4 0xFFFFFFFF AND DUP2 PUSH4 0xFFFFFFFF AND GT ISZERO PUSH2 0x7A7 JUMPI PUSH1 0x2 DUP3 DUP3 SUB PUSH4 0xFFFFFFFF AND DIV DUP2 SUB PUSH2 0x988 PUSH2 0x1733 JUMP JUMPDEST POP PUSH1 0x1 PUSH1 0x1 PUSH1 0xA0 SHL SUB DUP8 AND PUSH1 0x0 SWAP1 DUP2 MSTORE PUSH1 0x7 PUSH1 0x20 SWAP1 DUP2 MSTORE PUSH1 0x40 DUP1 DUP4 KECCAK256 PUSH4 0xFFFFFFFF DUP6 DUP2 AND DUP6 MSTORE SWAP1 DUP4 MSTORE SWAP3 DUP2 SWAP1 KECCAK256 DUP2 MLOAD DUP1 DUP4 ADD SWAP1 SWAP3 MSTORE SLOAD SWAP3 DUP4 AND DUP1 DUP3 MSTORE PUSH1 0x1 PUSH1 0x20 SHL SWAP1 SWAP4 DIV PUSH1 0x1 PUSH1 0x1 PUSH1 0x60 SHL SUB AND SWAP2 DUP2 ADD SWAP2 SWAP1 SWAP2 MSTORE SWAP1 DUP8 EQ ISZERO PUSH2 0x9F4 JUMPI PUSH1 0x20 ADD MLOAD SWAP5 POP PUSH2 0x462 SWAP4 POP POP POP POP JUMP JUMPDEST DUP1 MLOAD PUSH4 0xFFFFFFFF AND DUP8 GT ISZERO PUSH2 0xA0B JUMPI DUP2 SWAP4 POP PUSH2 0xA12 JUMP JUMPDEST PUSH1 0x1 DUP3 SUB SWAP3 POP JUMPDEST POP POP PUSH2 0x95E JUMP JUMPDEST PUSH1 0xB PUSH1 0x20 MSTORE PUSH1 0x0 SWAP1 DUP2 MSTORE PUSH1 0x40 SWAP1 KECCAK256 SLOAD DUP2 JUMP JUMPDEST PUSH1 0x1 DUP1 SLOAD PUSH1 0x40 DUP1 MLOAD PUSH1 0x20 PUSH1 0x2 DUP5 DUP7 AND ISZERO PUSH2 0x100 MUL PUSH1 0x0 NOT ADD SWAP1 SWAP5 AND SWAP4 SWAP1 SWAP4 DIV PUSH1 0x1F DUP2 ADD DUP5 SWAP1 DIV DUP5 MUL DUP3 ADD DUP5 ADD SWAP1 SWAP3 MSTORE DUP2 DUP2 MSTORE SWAP3 SWAP2 DUP4 ADD DUP3 DUP3 DUP1 ISZERO PUSH2 0x3A1 JUMPI DUP1 PUSH1 0x1F LT PUSH2 0x376 JUMPI PUSH2 0x100 DUP1 DUP4 SLOAD DIV MUL DUP4 MSTORE SWAP2 PUSH1 0x20 ADD SWAP2 PUSH2 0x3A1 JUMP JUMPDEST PUSH1 0x0 DUP1 PUSH2 0xAAA DUP4 PUSH1 0x40 MLOAD DUP1 PUSH1 0x60 ADD PUSH1 0x40 MSTORE DUP1 PUSH1 0x26 DUP2 MSTORE PUSH1 0x20 ADD PUSH2 0x1E73 PUSH1 0x26 SWAP2 CODECOPY PUSH2 0xDBE JUMP JUMPDEST SWAP1 POP PUSH2 0xAB7 CALLER DUP6 DUP4 PUSH2 0x1061 JUMP JUMPDEST PUSH2 0xAC2 CALLER DUP6 DUP4 PUSH2 0xE2C JUMP JUMPDEST POP PUSH1 0x1 SWAP4 SWAP3 POP POP POP JUMP JUMPDEST PUSH1 0x1 PUSH1 0x1 PUSH1 0xA0 SHL SUB DUP2 AND PUSH1 0x0 SWAP1 DUP2 MSTORE PUSH1 0x8 PUSH1 0x20 MSTORE PUSH1 0x40 DUP2 KECCAK256 SLOAD PUSH4 0xFFFFFFFF AND DUP1 PUSH2 0xAF7 JUMPI PUSH1 0x0 PUSH2 0xB36 JUMP JUMPDEST PUSH1 0x1 PUSH1 0x1 PUSH1 0xA0 SHL SUB DUP4 AND PUSH1 0x0 SWAP1 DUP2 MSTORE PUSH1 0x7 PUSH1 0x20 SWAP1 DUP2 MSTORE PUSH1 0x40 DUP1 DUP4 KECCAK256 PUSH1 0x0 NOT DUP6 ADD PUSH4 0xFFFFFFFF AND DUP5 MSTORE SWAP1 SWAP2 MSTORE SWAP1 KECCAK256 SLOAD PUSH1 0x1 PUSH1 0x20 SHL SWAP1 DIV PUSH1 0x1 PUSH1 0x1 PUSH1 0x60 SHL SUB AND JUMPDEST SWAP4 SWAP3 POP POP POP JUMP JUMPDEST PUSH1 0x0 PUSH1 0x40 MLOAD PUSH2 0xB4B SWAP1 PUSH2 0x1943 JUMP JUMPDEST PUSH1 0x40 MLOAD DUP1 SWAP2 SUB SWAP1 KECCAK256 PUSH1 0x0 PUSH1 0x40 MLOAD PUSH2 0xB62 SWAP2 SWAP1 PUSH2 0x18B8 JUMP JUMPDEST PUSH1 0x40 MLOAD DUP1 SWAP2 SUB SWAP1 KECCAK256 PUSH2 0xB72 PUSH2 0x11F3 JUMP JUMPDEST ADDRESS PUSH1 0x40 MLOAD PUSH1 0x20 ADD PUSH2 0xB86 SWAP5 SWAP4 SWAP3 SWAP2 SWAP1 PUSH2 0x1A39 JUMP JUMPDEST PUSH1 0x40 MLOAD PUSH1 0x20 DUP2 DUP4 SUB SUB DUP2 MSTORE SWAP1 PUSH1 0x40 MSTORE DUP1 MLOAD SWAP1 PUSH1 0x20 ADD KECCAK256 SWAP1 POP PUSH1 0x0 PUSH1 0x40 MLOAD PUSH2 0xBAC SWAP1 PUSH2 0x199E JUMP JUMPDEST PUSH1 0x40 MLOAD SWAP1 DUP2 SWAP1 SUB DUP2 KECCAK256 PUSH2 0xBC7 SWAP2 DUP11 SWAP1 DUP11 SWAP1 DUP11 SWAP1 PUSH1 0x20 ADD PUSH2 0x1A15 JUMP JUMPDEST PUSH1 0x40 MLOAD PUSH1 0x20 DUP2 DUP4 SUB SUB DUP2 MSTORE SWAP1 PUSH1 0x40 MSTORE DUP1 MLOAD SWAP1 PUSH1 0x20 ADD KECCAK256 SWAP1 POP PUSH1 0x0 DUP3 DUP3 PUSH1 0x40 MLOAD PUSH1 0x20 ADD PUSH2 0xBF4 SWAP3 SWAP2 SWAP1 PUSH2 0x1928 JUMP JUMPDEST PUSH1 0x40 MLOAD PUSH1 0x20 DUP2 DUP4 SUB SUB DUP2 MSTORE SWAP1 PUSH1 0x40 MSTORE DUP1 MLOAD SWAP1 PUSH1 0x20 ADD KECCAK256 SWAP1 POP PUSH1 0x0 PUSH1 0x1 DUP3 DUP9 DUP9 DUP9 PUSH1 0x40 MLOAD PUSH1 0x0 DUP2 MSTORE PUSH1 0x20 ADD PUSH1 0x40 MSTORE PUSH1 0x40 MLOAD PUSH2 0xC31 SWAP5 SWAP4 SWAP3 SWAP2 SWAP1 PUSH2 0x1A5D JUMP JUMPDEST PUSH1 0x20 PUSH1 0x40 MLOAD PUSH1 0x20 DUP2 SUB SWAP1 DUP1 DUP5 SUB SWAP1 DUP6 GAS STATICCALL ISZERO DUP1 ISZERO PUSH2 0xC53 JUMPI RETURNDATASIZE PUSH1 0x0 DUP1 RETURNDATACOPY RETURNDATASIZE PUSH1 0x0 REVERT JUMPDEST POP POP PUSH1 0x40 MLOAD PUSH1 0x1F NOT ADD MLOAD SWAP2 POP POP PUSH1 0x1 PUSH1 0x1 PUSH1 0xA0 SHL SUB DUP2 AND PUSH2 0xC86 JUMPI PUSH1 0x40 MLOAD PUSH3 0x461BCD PUSH1 0xE5 SHL DUP2 MSTORE PUSH1 0x4 ADD PUSH2 0x5F6 SWAP1 PUSH2 0x1BB3 JUMP JUMPDEST PUSH1 0x1 PUSH1 0x1 PUSH1 0xA0 SHL SUB DUP2 AND PUSH1 0x0 SWAP1 DUP2 MSTORE PUSH1 0xB PUSH1 0x20 MSTORE PUSH1 0x40 SWAP1 KECCAK256 DUP1 SLOAD PUSH1 0x1 DUP2 ADD SWAP1 SWAP2 SSTORE DUP10 EQ PUSH2 0xCC5 JUMPI PUSH1 0x40 MLOAD PUSH3 0x461BCD PUSH1 0xE5 SHL DUP2 MSTORE PUSH1 0x4 ADD PUSH2 0x5F6 SWAP1 PUSH2 0x1ACE JUMP JUMPDEST DUP8 TIMESTAMP GT ISZERO PUSH2 0xCE5 JUMPI PUSH1 0x40 MLOAD PUSH3 0x461BCD PUSH1 0xE5 SHL DUP2 MSTORE PUSH1 0x4 ADD PUSH2 0x5F6 SWAP1 PUSH2 0x1B6D JUMP JUMPDEST PUSH2 0xCEF DUP2 DUP12 PUSH2 0xFD7 JUMP JUMPDEST POP POP POP POP JUMPDEST POP POP POP POP POP POP JUMP JUMPDEST PUSH1 0x1 PUSH1 0x1 PUSH1 0xA0 SHL SUB SWAP2 DUP3 AND PUSH1 0x0 SWAP1 DUP2 MSTORE PUSH1 0x4 PUSH1 0x20 SWAP1 DUP2 MSTORE PUSH1 0x40 DUP1 DUP4 KECCAK256 SWAP4 SWAP1 SWAP5 AND DUP3 MSTORE SWAP2 SWAP1 SWAP2 MSTORE KECCAK256 SLOAD PUSH1 0x1 PUSH1 0x1 PUSH1 0x60 SHL SUB AND SWAP1 JUMP JUMPDEST PUSH1 0x9 PUSH1 0x20 SWAP1 DUP2 MSTORE PUSH1 0x0 SWAP3 DUP4 MSTORE PUSH1 0x40 DUP1 DUP5 KECCAK256 SWAP1 SWAP2 MSTORE SWAP1 DUP3 MSTORE SWAP1 KECCAK256 SLOAD PUSH4 0xFFFFFFFF DUP2 AND SWAP1 PUSH1 0x1 PUSH1 0x20 SHL SWAP1 DIV PUSH1 0x1 PUSH1 0x1 PUSH1 0x60 SHL SUB AND DUP3 JUMP JUMPDEST PUSH1 0x40 MLOAD PUSH2 0x47A SWAP1 PUSH2 0x199E JUMP JUMPDEST PUSH1 0x7 PUSH1 0x20 SWAP1 DUP2 MSTORE PUSH1 0x0 SWAP3 DUP4 MSTORE PUSH1 0x40 DUP1 DUP5 KECCAK256 SWAP1 SWAP2 MSTORE SWAP1 DUP3 MSTORE SWAP1 KECCAK256 SLOAD PUSH4 0xFFFFFFFF DUP2 AND SWAP1 PUSH1 0x1 PUSH1 0x20 SHL SWAP1 DIV PUSH1 0x1 PUSH1 0x1 PUSH1 0x60 SHL SUB AND DUP3 JUMP JUMPDEST PUSH1 0xA PUSH1 0x20 MSTORE PUSH1 0x0 SWAP1 DUP2 MSTORE PUSH1 0x40 SWAP1 KECCAK256 SLOAD PUSH4 0xFFFFFFFF AND DUP2 JUMP JUMPDEST PUSH1 0x0 DUP2 PUSH1 0x1 PUSH1 0x60 SHL DUP5 LT PUSH2 0xDE5 JUMPI PUSH1 0x40 MLOAD PUSH3 0x461BCD PUSH1 0xE5 SHL DUP2 MSTORE PUSH1 0x4 ADD PUSH2 0x5F6 SWAP2 SWAP1 PUSH2 0x1A7B JUMP JUMPDEST POP SWAP2 SWAP3 SWAP2 POP POP JUMP JUMPDEST PUSH1 0x0 DUP4 PUSH1 0x1 PUSH1 0x1 PUSH1 0x60 SHL SUB AND DUP4 PUSH1 0x1 PUSH1 0x1 PUSH1 0x60 SHL SUB AND GT ISZERO DUP3 SWAP1 PUSH2 0xE24 JUMPI PUSH1 0x40 MLOAD PUSH3 0x461BCD PUSH1 0xE5 SHL DUP2 MSTORE PUSH1 0x4 ADD PUSH2 0x5F6 SWAP2 SWAP1 PUSH2 0x1A7B JUMP JUMPDEST POP POP POP SWAP1 SUB SWAP1 JUMP JUMPDEST PUSH1 0x1 PUSH1 0x1 PUSH1 0xA0 SHL SUB DUP4 AND PUSH2 0xE52 JUMPI PUSH1 0x40 MLOAD PUSH3 0x461BCD PUSH1 0xE5 SHL DUP2 MSTORE PUSH1 0x4 ADD PUSH2 0x5F6 SWAP1 PUSH2 0x1B10 JUMP JUMPDEST PUSH1 0x1 PUSH1 0x1 PUSH1 0xA0 SHL SUB DUP3 AND PUSH2 0xE78 JUMPI PUSH1 0x40 MLOAD PUSH3 0x461BCD PUSH1 0xE5 SHL DUP2 MSTORE PUSH1 0x4 ADD PUSH2 0x5F6 SWAP1 PUSH2 0x1BF9 JUMP JUMPDEST PUSH1 0x1 PUSH1 0x1 PUSH1 0xA0 SHL SUB DUP4 AND PUSH1 0x0 SWAP1 DUP2 MSTORE PUSH1 0x5 PUSH1 0x20 SWAP1 DUP2 MSTORE PUSH1 0x40 SWAP2 DUP3 SWAP1 KECCAK256 SLOAD DUP3 MLOAD PUSH1 0x60 DUP2 ADD SWAP1 SWAP4 MSTORE PUSH1 0x36 DUP1 DUP5 MSTORE PUSH2 0xEC3 SWAP4 PUSH1 0x1 PUSH1 0x1 PUSH1 0x60 SHL SUB SWAP1 SWAP3 AND SWAP3 DUP6 SWAP3 SWAP2 SWAP1 PUSH2 0x1D47 SWAP1 DUP4 ADD CODECOPY PUSH2 0xDED JUMP JUMPDEST PUSH1 0x1 PUSH1 0x1 PUSH1 0xA0 SHL SUB DUP5 DUP2 AND PUSH1 0x0 SWAP1 DUP2 MSTORE PUSH1 0x5 PUSH1 0x20 SWAP1 DUP2 MSTORE PUSH1 0x40 DUP1 DUP4 KECCAK256 DUP1 SLOAD PUSH1 0x1 PUSH1 0x1 PUSH1 0x60 SHL SUB NOT AND PUSH1 0x1 PUSH1 0x1 PUSH1 0x60 SHL SUB SWAP7 DUP8 AND OR SWAP1 SSTORE SWAP3 DUP7 AND DUP3 MSTORE SWAP1 DUP3 SWAP1 KECCAK256 SLOAD DUP3 MLOAD PUSH1 0x60 DUP2 ADD SWAP1 SWAP4 MSTORE PUSH1 0x30 DUP1 DUP5 MSTORE PUSH2 0xF2B SWAP5 SWAP2 SWAP1 SWAP2 AND SWAP3 DUP6 SWAP3 SWAP1 SWAP2 SWAP1 PUSH2 0x1DB1 SWAP1 DUP4 ADD CODECOPY PUSH2 0x11F7 JUMP JUMPDEST PUSH1 0x1 PUSH1 0x1 PUSH1 0xA0 SHL SUB DUP4 DUP2 AND PUSH1 0x0 DUP2 DUP2 MSTORE PUSH1 0x5 PUSH1 0x20 MSTORE PUSH1 0x40 SWAP1 DUP2 SWAP1 KECCAK256 DUP1 SLOAD PUSH1 0x1 PUSH1 0x1 PUSH1 0x60 SHL SUB NOT AND PUSH1 0x1 PUSH1 0x1 PUSH1 0x60 SHL SUB SWAP6 SWAP1 SWAP6 AND SWAP5 SWAP1 SWAP5 OR SWAP1 SWAP4 SSTORE SWAP2 MLOAD SWAP1 DUP6 AND SWAP1 PUSH32 0xDDF252AD1BE2C89B69C2B068FC378DAA952BA7F163C4A11628F55A4DF523B3EF SWAP1 PUSH2 0xF98 SWAP1 DUP6 SWAP1 PUSH2 0x1CDB JUMP JUMPDEST PUSH1 0x40 MLOAD DUP1 SWAP2 SUB SWAP1 LOG3 PUSH1 0x1 PUSH1 0x1 PUSH1 0xA0 SHL SUB DUP1 DUP5 AND PUSH1 0x0 SWAP1 DUP2 MSTORE PUSH1 0x6 PUSH1 0x20 MSTORE PUSH1 0x40 DUP1 DUP3 KECCAK256 SLOAD DUP6 DUP5 AND DUP4 MSTORE SWAP2 KECCAK256 SLOAD PUSH2 0xFD2 SWAP3 SWAP2 DUP3 AND SWAP2 AND DUP4 PUSH2 0x1233 JUMP JUMPDEST POP POP POP JUMP JUMPDEST PUSH1 0x1 PUSH1 0x1 PUSH1 0xA0 SHL SUB DUP1 DUP4 AND PUSH1 0x0 DUP2 DUP2 MSTORE PUSH1 0x6 PUSH1 0x20 DUP2 DUP2 MSTORE PUSH1 0x40 DUP1 DUP5 KECCAK256 DUP1 SLOAD PUSH1 0x5 DUP5 MSTORE DUP3 DUP7 KECCAK256 SLOAD SWAP5 SWAP1 SWAP4 MSTORE DUP8 DUP8 AND PUSH1 0x1 PUSH1 0x1 PUSH1 0xA0 SHL SUB NOT DUP5 AND DUP2 OR SWAP1 SWAP2 SSTORE SWAP1 MLOAD SWAP2 SWAP1 SWAP6 AND SWAP5 PUSH1 0x1 PUSH1 0x1 PUSH1 0x60 SHL SUB SWAP1 SWAP3 AND SWAP4 SWAP2 SWAP3 DUP6 SWAP3 SWAP2 PUSH32 0x3134E8A2E6D97E929A7E54011EA5485D7D196DD5F0BA4D4EF95803E8E3FC257F SWAP2 SWAP1 LOG4 PUSH2 0x105B DUP3 DUP5 DUP4 PUSH2 0x1233 JUMP JUMPDEST POP POP POP POP JUMP JUMPDEST DUP2 PUSH1 0x1 PUSH1 0x1 PUSH1 0xA0 SHL SUB AND DUP4 PUSH1 0x1 PUSH1 0x1 PUSH1 0xA0 SHL SUB AND EQ ISZERO DUP1 ISZERO PUSH2 0x108C JUMPI POP PUSH1 0x0 DUP2 PUSH1 0x1 PUSH1 0x1 PUSH1 0x60 SHL SUB AND GT JUMPDEST ISZERO PUSH2 0xFD2 JUMPI PUSH1 0x1 PUSH1 0x1 PUSH1 0xA0 SHL SUB DUP4 AND ISZERO PUSH2 0x1144 JUMPI PUSH1 0x1 PUSH1 0x1 PUSH1 0xA0 SHL SUB DUP4 AND PUSH1 0x0 SWAP1 DUP2 MSTORE PUSH1 0xA PUSH1 0x20 MSTORE PUSH1 0x40 DUP2 KECCAK256 SLOAD PUSH4 0xFFFFFFFF AND SWAP1 DUP2 PUSH2 0x10CC JUMPI PUSH1 0x0 PUSH2 0x110B JUMP JUMPDEST PUSH1 0x1 PUSH1 0x1 PUSH1 0xA0 SHL SUB DUP6 AND PUSH1 0x0 SWAP1 DUP2 MSTORE PUSH1 0x9 PUSH1 0x20 SWAP1 DUP2 MSTORE PUSH1 0x40 DUP1 DUP4 KECCAK256 PUSH1 0x0 NOT DUP7 ADD PUSH4 0xFFFFFFFF AND DUP5 MSTORE SWAP1 SWAP2 MSTORE SWAP1 KECCAK256 SLOAD PUSH1 0x1 PUSH1 0x20 SHL SWAP1 DIV PUSH1 0x1 PUSH1 0x1 PUSH1 0x60 SHL SUB AND JUMPDEST SWAP1 POP PUSH1 0x0 PUSH2 0x1132 DUP3 DUP6 PUSH1 0x40 MLOAD DUP1 PUSH1 0x60 ADD PUSH1 0x40 MSTORE DUP1 PUSH1 0x2F DUP2 MSTORE PUSH1 0x20 ADD PUSH2 0x1E99 PUSH1 0x2F SWAP2 CODECOPY PUSH2 0xDED JUMP JUMPDEST SWAP1 POP PUSH2 0x1140 DUP7 DUP5 DUP5 DUP5 PUSH2 0x13C5 JUMP JUMPDEST POP POP POP JUMPDEST PUSH1 0x1 PUSH1 0x1 PUSH1 0xA0 SHL SUB DUP3 AND ISZERO PUSH2 0xFD2 JUMPI PUSH1 0x1 PUSH1 0x1 PUSH1 0xA0 SHL SUB DUP3 AND PUSH1 0x0 SWAP1 DUP2 MSTORE PUSH1 0xA PUSH1 0x20 MSTORE PUSH1 0x40 DUP2 KECCAK256 SLOAD PUSH4 0xFFFFFFFF AND SWAP1 DUP2 PUSH2 0x117F JUMPI PUSH1 0x0 PUSH2 0x11BE JUMP JUMPDEST PUSH1 0x1 PUSH1 0x1 PUSH1 0xA0 SHL SUB DUP5 AND PUSH1 0x0 SWAP1 DUP2 MSTORE PUSH1 0x9 PUSH1 0x20 SWAP1 DUP2 MSTORE PUSH1 0x40 DUP1 DUP4 KECCAK256 PUSH1 0x0 NOT DUP7 ADD PUSH4 0xFFFFFFFF AND DUP5 MSTORE SWAP1 SWAP2 MSTORE SWAP1 KECCAK256 SLOAD PUSH1 0x1 PUSH1 0x20 SHL SWAP1 DIV PUSH1 0x1 PUSH1 0x1 PUSH1 0x60 SHL SUB AND JUMPDEST SWAP1 POP PUSH1 0x0 PUSH2 0x11E5 DUP3 DUP6 PUSH1 0x40 MLOAD DUP1 PUSH1 0x60 ADD PUSH1 0x40 MSTORE DUP1 PUSH1 0x2E DUP2 MSTORE PUSH1 0x20 ADD PUSH2 0x1DE1 PUSH1 0x2E SWAP2 CODECOPY PUSH2 0x11F7 JUMP JUMPDEST SWAP1 POP PUSH2 0xCF4 DUP6 DUP5 DUP5 DUP5 PUSH2 0x13C5 JUMP JUMPDEST CHAINID SWAP1 JUMP JUMPDEST PUSH1 0x0 DUP4 DUP4 ADD DUP3 PUSH1 0x1 PUSH1 0x1 PUSH1 0x60 SHL SUB DUP1 DUP8 AND SWAP1 DUP4 AND LT ISZERO PUSH2 0x122A JUMPI PUSH1 0x40 MLOAD PUSH3 0x461BCD PUSH1 0xE5 SHL DUP2 MSTORE PUSH1 0x4 ADD PUSH2 0x5F6 SWAP2 SWAP1 PUSH2 0x1A7B JUMP JUMPDEST POP SWAP5 SWAP4 POP POP POP POP JUMP JUMPDEST DUP2 PUSH1 0x1 PUSH1 0x1 PUSH1 0xA0 SHL SUB AND DUP4 PUSH1 0x1 PUSH1 0x1 PUSH1 0xA0 SHL SUB AND EQ ISZERO DUP1 ISZERO PUSH2 0x125E JUMPI POP PUSH1 0x0 DUP2 PUSH1 0x1 PUSH1 0x1 PUSH1 0x60 SHL SUB AND GT JUMPDEST ISZERO PUSH2 0xFD2 JUMPI PUSH1 0x1 PUSH1 0x1 PUSH1 0xA0 SHL SUB DUP4 AND ISZERO PUSH2 0x1316 JUMPI PUSH1 0x1 PUSH1 0x1 PUSH1 0xA0 SHL SUB DUP4 AND PUSH1 0x0 SWAP1 DUP2 MSTORE PUSH1 0x8 PUSH1 0x20 MSTORE PUSH1 0x40 DUP2 KECCAK256 SLOAD PUSH4 0xFFFFFFFF AND SWAP1 DUP2 PUSH2 0x129E JUMPI PUSH1 0x0 PUSH2 0x12DD JUMP JUMPDEST PUSH1 0x1 PUSH1 0x1 PUSH1 0xA0 SHL SUB DUP6 AND PUSH1 0x0 SWAP1 DUP2 MSTORE PUSH1 0x7 PUSH1 0x20 SWAP1 DUP2 MSTORE PUSH1 0x40 DUP1 DUP4 KECCAK256 PUSH1 0x0 NOT DUP7 ADD PUSH4 0xFFFFFFFF AND DUP5 MSTORE SWAP1 SWAP2 MSTORE SWAP1 KECCAK256 SLOAD PUSH1 0x1 PUSH1 0x20 SHL SWAP1 DIV PUSH1 0x1 PUSH1 0x1 PUSH1 0x60 SHL SUB AND JUMPDEST SWAP1 POP PUSH1 0x0 PUSH2 0x1304 DUP3 DUP6 PUSH1 0x40 MLOAD DUP1 PUSH1 0x60 ADD PUSH1 0x40 MSTORE DUP1 PUSH1 0x28 DUP2 MSTORE PUSH1 0x20 ADD PUSH2 0x1D1F PUSH1 0x28 SWAP2 CODECOPY PUSH2 0xDED JUMP JUMPDEST SWAP1 POP PUSH2 0x1312 DUP7 DUP5 DUP5 DUP5 PUSH2 0x1570 JUMP JUMPDEST POP POP POP JUMPDEST PUSH1 0x1 PUSH1 0x1 PUSH1 0xA0 SHL SUB DUP3 AND ISZERO PUSH2 0xFD2 JUMPI PUSH1 0x1 PUSH1 0x1 PUSH1 0xA0 SHL SUB DUP3 AND PUSH1 0x0 SWAP1 DUP2 MSTORE PUSH1 0x8 PUSH1 0x20 MSTORE PUSH1 0x40 DUP2 KECCAK256 SLOAD PUSH4 0xFFFFFFFF AND SWAP1 DUP2 PUSH2 0x1351 JUMPI PUSH1 0x0 PUSH2 0x1390 JUMP JUMPDEST PUSH1 0x1 PUSH1 0x1 PUSH1 0xA0 SHL SUB DUP5 AND PUSH1 0x0 SWAP1 DUP2 MSTORE PUSH1 0x7 PUSH1 0x20 SWAP1 DUP2 MSTORE PUSH1 0x40 DUP1 DUP4 KECCAK256 PUSH1 0x0 NOT DUP7 ADD PUSH4 0xFFFFFFFF AND DUP5 MSTORE SWAP1 SWAP2 MSTORE SWAP1 KECCAK256 SLOAD PUSH1 0x1 PUSH1 0x20 SHL SWAP1 DIV PUSH1 0x1 PUSH1 0x1 PUSH1 0x60 SHL SUB AND JUMPDEST SWAP1 POP PUSH1 0x0 PUSH2 0x13B7 DUP3 DUP6 PUSH1 0x40 MLOAD DUP1 PUSH1 0x60 ADD PUSH1 0x40 MSTORE DUP1 PUSH1 0x27 DUP2 MSTORE PUSH1 0x20 ADD PUSH2 0x1E0F PUSH1 0x27 SWAP2 CODECOPY PUSH2 0x11F7 JUMP JUMPDEST SWAP1 POP PUSH2 0xCF4 DUP6 DUP5 DUP5 DUP5 PUSH2 0x1570 JUMP JUMPDEST PUSH1 0x0 PUSH2 0x13E9 NUMBER PUSH1 0x40 MLOAD DUP1 PUSH1 0x60 ADD PUSH1 0x40 MSTORE DUP1 PUSH1 0x36 DUP2 MSTORE PUSH1 0x20 ADD PUSH2 0x1EC8 PUSH1 0x36 SWAP2 CODECOPY PUSH2 0x170C JUMP JUMPDEST SWAP1 POP PUSH1 0x0 DUP5 PUSH4 0xFFFFFFFF AND GT DUP1 ISZERO PUSH2 0x1432 JUMPI POP PUSH1 0x1 PUSH1 0x1 PUSH1 0xA0 SHL SUB DUP6 AND PUSH1 0x0 SWAP1 DUP2 MSTORE PUSH1 0x9 PUSH1 0x20 SWAP1 DUP2 MSTORE PUSH1 0x40 DUP1 DUP4 KECCAK256 PUSH4 0xFFFFFFFF PUSH1 0x0 NOT DUP10 ADD DUP2 AND DUP6 MSTORE SWAP3 MSTORE SWAP1 SWAP2 KECCAK256 SLOAD DUP3 DUP3 AND SWAP2 AND EQ JUMPDEST ISZERO PUSH2 0x148C JUMPI PUSH1 0x1 PUSH1 0x1 PUSH1 0xA0 SHL SUB DUP6 AND PUSH1 0x0 SWAP1 DUP2 MSTORE PUSH1 0x9 PUSH1 0x20 SWAP1 DUP2 MSTORE PUSH1 0x40 DUP1 DUP4 KECCAK256 PUSH1 0x0 NOT DUP9 ADD PUSH4 0xFFFFFFFF AND DUP5 MSTORE SWAP1 SWAP2 MSTORE SWAP1 KECCAK256 DUP1 SLOAD PUSH5 0x100000000 PUSH1 0x1 PUSH1 0x80 SHL SUB NOT AND PUSH1 0x1 PUSH1 0x20 SHL PUSH1 0x1 PUSH1 0x1 PUSH1 0x60 SHL SUB DUP6 AND MUL OR SWAP1 SSTORE PUSH2 0x1526 JUMP JUMPDEST PUSH1 0x40 DUP1 MLOAD DUP1 DUP3 ADD DUP3 MSTORE PUSH4 0xFFFFFFFF DUP1 DUP5 AND DUP3 MSTORE PUSH1 0x1 PUSH1 0x1 PUSH1 0x60 SHL SUB DUP1 DUP7 AND PUSH1 0x20 DUP1 DUP6 ADD SWAP2 DUP3 MSTORE PUSH1 0x1 PUSH1 0x1 PUSH1 0xA0 SHL SUB DUP12 AND PUSH1 0x0 DUP2 DUP2 MSTORE PUSH1 0x9 DUP4 MSTORE DUP8 DUP2 KECCAK256 DUP13 DUP8 AND DUP3 MSTORE DUP4 MSTORE DUP8 DUP2 KECCAK256 SWAP7 MLOAD DUP8 SLOAD SWAP5 MLOAD SWAP1 SWAP6 AND PUSH1 0x1 PUSH1 0x20 SHL MUL PUSH5 0x100000000 PUSH1 0x1 PUSH1 0x80 SHL SUB NOT SWAP6 DUP8 AND PUSH4 0xFFFFFFFF NOT SWAP6 DUP7 AND OR SWAP6 SWAP1 SWAP6 AND SWAP5 SWAP1 SWAP5 OR SWAP1 SWAP6 SSTORE SWAP4 DUP3 MSTORE PUSH1 0xA SWAP1 SWAP4 MSTORE SWAP3 SWAP1 SWAP3 KECCAK256 DUP1 SLOAD PUSH1 0x1 DUP9 ADD SWAP1 SWAP4 AND SWAP3 SWAP1 SWAP2 AND SWAP2 SWAP1 SWAP2 OR SWAP1 SSTORE JUMPDEST DUP5 PUSH1 0x1 PUSH1 0x1 PUSH1 0xA0 SHL SUB AND PUSH32 0x3057C18A765FE76320D0F9401F2F7E0D0F1AD9BCEE8FE79D7EE864104C1F0FB3 DUP5 DUP5 PUSH1 0x40 MLOAD PUSH2 0x1561 SWAP3 SWAP2 SWAP1 PUSH2 0x1CEF JUMP JUMPDEST PUSH1 0x40 MLOAD DUP1 SWAP2 SUB SWAP1 LOG2 POP POP POP POP POP JUMP JUMPDEST PUSH1 0x0 PUSH2 0x1594 NUMBER PUSH1 0x40 MLOAD DUP1 PUSH1 0x60 ADD PUSH1 0x40 MSTORE DUP1 PUSH1 0x34 DUP2 MSTORE PUSH1 0x20 ADD PUSH2 0x1D7D PUSH1 0x34 SWAP2 CODECOPY PUSH2 0x170C JUMP JUMPDEST SWAP1 POP PUSH1 0x0 DUP5 PUSH4 0xFFFFFFFF AND GT DUP1 ISZERO PUSH2 0x15DD JUMPI POP PUSH1 0x1 PUSH1 0x1 PUSH1 0xA0 SHL SUB DUP6 AND PUSH1 0x0 SWAP1 DUP2 MSTORE PUSH1 0x7 PUSH1 0x20 SWAP1 DUP2 MSTORE PUSH1 0x40 DUP1 DUP4 KECCAK256 PUSH4 0xFFFFFFFF PUSH1 0x0 NOT DUP10 ADD DUP2 AND DUP6 MSTORE SWAP3 MSTORE SWAP1 SWAP2 KECCAK256 SLOAD DUP3 DUP3 AND SWAP2 AND EQ JUMPDEST ISZERO PUSH2 0x1637 JUMPI PUSH1 0x1 PUSH1 0x1 PUSH1 0xA0 SHL SUB DUP6 AND PUSH1 0x0 SWAP1 DUP2 MSTORE PUSH1 0x7 PUSH1 0x20 SWAP1 DUP2 MSTORE PUSH1 0x40 DUP1 DUP4 KECCAK256 PUSH1 0x0 NOT DUP9 ADD PUSH4 0xFFFFFFFF AND DUP5 MSTORE SWAP1 SWAP2 MSTORE SWAP1 KECCAK256 DUP1 SLOAD PUSH5 0x100000000 PUSH1 0x1 PUSH1 0x80 SHL SUB NOT AND PUSH1 0x1 PUSH1 0x20 SHL PUSH1 0x1 PUSH1 0x1 PUSH1 0x60 SHL SUB DUP6 AND MUL OR SWAP1 SSTORE PUSH2 0x16D1 JUMP JUMPDEST PUSH1 0x40 DUP1 MLOAD DUP1 DUP3 ADD DUP3 MSTORE PUSH4 0xFFFFFFFF DUP1 DUP5 AND DUP3 MSTORE PUSH1 0x1 PUSH1 0x1 PUSH1 0x60 SHL SUB DUP1 DUP7 AND PUSH1 0x20 DUP1 DUP6 ADD SWAP2 DUP3 MSTORE PUSH1 0x1 PUSH1 0x1 PUSH1 0xA0 SHL SUB DUP12 AND PUSH1 0x0 DUP2 DUP2 MSTORE PUSH1 0x7 DUP4 MSTORE DUP8 DUP2 KECCAK256 DUP13 DUP8 AND DUP3 MSTORE DUP4 MSTORE DUP8 DUP2 KECCAK256 SWAP7 MLOAD DUP8 SLOAD SWAP5 MLOAD SWAP1 SWAP6 AND PUSH1 0x1 PUSH1 0x20 SHL MUL PUSH5 0x100000000 PUSH1 0x1 PUSH1 0x80 SHL SUB NOT SWAP6 DUP8 AND PUSH4 0xFFFFFFFF NOT SWAP6 DUP7 AND OR SWAP6 SWAP1 SWAP6 AND SWAP5 SWAP1 SWAP5 OR SWAP1 SWAP6 SSTORE SWAP4 DUP3 MSTORE PUSH1 0x8 SWAP1 SWAP4 MSTORE SWAP3 SWAP1 SWAP3 KECCAK256 DUP1 SLOAD PUSH1 0x1 DUP9 ADD SWAP1 SWAP4 AND SWAP3 SWAP1 SWAP2 AND SWAP2 SWAP1 SWAP2 OR SWAP1 SSTORE JUMPDEST DUP5 PUSH1 0x1 PUSH1 0x1 PUSH1 0xA0 SHL SUB AND PUSH32 0xDEC2BACDD2F05B59DE34DA9B523DFF8BE42E5E38E818C82FDB0BAE774387A724 DUP5 DUP5 PUSH1 0x40 MLOAD PUSH2 0x1561 SWAP3 SWAP2 SWAP1 PUSH2 0x1CEF JUMP JUMPDEST PUSH1 0x0 DUP2 PUSH1 0x1 PUSH1 0x20 SHL DUP5 LT PUSH2 0xDE5 JUMPI PUSH1 0x40 MLOAD PUSH3 0x461BCD PUSH1 0xE5 SHL DUP2 MSTORE PUSH1 0x4 ADD PUSH2 0x5F6 SWAP2 SWAP1 PUSH2 0x1A7B JUMP JUMPDEST PUSH1 0x40 DUP1 MLOAD DUP1 DUP3 ADD SWAP1 SWAP2 MSTORE PUSH1 0x0 DUP1 DUP3 MSTORE PUSH1 0x20 DUP3 ADD MSTORE SWAP1 JUMP JUMPDEST DUP1 CALLDATALOAD PUSH1 0x1 PUSH1 0x1 PUSH1 0xA0 SHL SUB DUP2 AND DUP2 EQ PUSH2 0x462 JUMPI PUSH1 0x0 DUP1 REVERT JUMPDEST PUSH1 0x0 PUSH1 0x20 DUP3 DUP5 SUB SLT ISZERO PUSH2 0x1772 JUMPI DUP1 DUP2 REVERT JUMPDEST PUSH2 0xB36 DUP4 DUP4 PUSH2 0x174A JUMP JUMPDEST PUSH1 0x0 DUP1 PUSH1 0x40 DUP4 DUP6 SUB SLT ISZERO PUSH2 0x178E JUMPI DUP1 DUP2 REVERT JUMPDEST PUSH2 0x1798 DUP5 DUP5 PUSH2 0x174A JUMP JUMPDEST SWAP2 POP PUSH2 0x17A7 DUP5 PUSH1 0x20 DUP6 ADD PUSH2 0x174A JUMP JUMPDEST SWAP1 POP SWAP3 POP SWAP3 SWAP1 POP JUMP JUMPDEST PUSH1 0x0 DUP1 PUSH1 0x0 PUSH1 0x60 DUP5 DUP7 SUB SLT ISZERO PUSH2 0x17C4 JUMPI DUP1 DUP2 REVERT JUMPDEST DUP4 CALLDATALOAD PUSH2 0x17CF DUP2 PUSH2 0x1D09 JUMP JUMPDEST SWAP3 POP PUSH1 0x20 DUP5 ADD CALLDATALOAD PUSH2 0x17DF DUP2 PUSH2 0x1D09 JUMP JUMPDEST SWAP3 SWAP6 SWAP3 SWAP5 POP POP POP PUSH1 0x40 SWAP2 SWAP1 SWAP2 ADD CALLDATALOAD SWAP1 JUMP JUMPDEST PUSH1 0x0 DUP1 PUSH1 0x40 DUP4 DUP6 SUB SLT ISZERO PUSH2 0x1802 JUMPI DUP2 DUP3 REVERT JUMPDEST PUSH2 0x180C DUP5 DUP5 PUSH2 0x174A JUMP JUMPDEST SWAP5 PUSH1 0x20 SWAP4 SWAP1 SWAP4 ADD CALLDATALOAD SWAP4 POP POP POP JUMP JUMPDEST PUSH1 0x0 DUP1 PUSH1 0x0 DUP1 PUSH1 0x0 DUP1 PUSH1 0xC0 DUP8 DUP10 SUB SLT ISZERO PUSH2 0x1832 JUMPI DUP2 DUP3 REVERT JUMPDEST PUSH2 0x183C DUP9 DUP9 PUSH2 0x174A JUMP JUMPDEST SWAP6 POP PUSH1 0x20 DUP8 ADD CALLDATALOAD SWAP5 POP PUSH1 0x40 DUP8 ADD CALLDATALOAD SWAP4 POP PUSH1 0x60 DUP8 ADD CALLDATALOAD PUSH1 0xFF DUP2 AND DUP2 EQ PUSH2 0x185F JUMPI DUP3 DUP4 REVERT JUMPDEST SWAP6 SWAP9 SWAP5 SWAP8 POP SWAP3 SWAP6 PUSH1 0x80 DUP2 ADD CALLDATALOAD SWAP5 PUSH1 0xA0 SWAP1 SWAP2 ADD CALLDATALOAD SWAP4 POP SWAP2 POP POP JUMP JUMPDEST PUSH1 0x0 DUP1 PUSH1 0x40 DUP4 DUP6 SUB SLT ISZERO PUSH2 0x188B JUMPI DUP2 DUP3 REVERT JUMPDEST PUSH2 0x1895 DUP5 DUP5 PUSH2 0x174A JUMP JUMPDEST SWAP2 POP PUSH1 0x20 DUP4 ADD CALLDATALOAD PUSH4 0xFFFFFFFF DUP2 AND DUP2 EQ PUSH2 0x18AD JUMPI DUP2 DUP3 REVERT JUMPDEST DUP1 SWAP2 POP POP SWAP3 POP SWAP3 SWAP1 POP JUMP JUMPDEST PUSH1 0x0 DUP1 DUP4 SLOAD PUSH1 0x1 DUP1 DUP3 AND PUSH1 0x0 DUP2 EQ PUSH2 0x18D7 JUMPI PUSH1 0x1 DUP2 EQ PUSH2 0x18EE JUMPI PUSH2 0x191D JUMP JUMPDEST PUSH1 0xFF NOT DUP4 AND DUP7 MSTORE PUSH1 0x2 DUP4 DIV PUSH1 0x7F AND DUP7 ADD SWAP4 POP PUSH2 0x191D JUMP JUMPDEST PUSH1 0x2 DUP4 DIV DUP8 DUP7 MSTORE PUSH1 0x20 DUP1 DUP8 KECCAK256 DUP8 JUMPDEST DUP4 DUP2 LT ISZERO PUSH2 0x1915 JUMPI DUP2 SLOAD DUP11 DUP3 ADD MSTORE SWAP1 DUP6 ADD SWAP1 DUP3 ADD PUSH2 0x18FC JUMP JUMPDEST POP POP POP DUP7 ADD SWAP4 POP JUMPDEST POP SWAP2 SWAP6 SWAP5 POP POP POP POP POP JUMP JUMPDEST PUSH2 0x1901 PUSH1 0xF0 SHL DUP2 MSTORE PUSH1 0x2 DUP2 ADD SWAP3 SWAP1 SWAP3 MSTORE PUSH1 0x22 DUP3 ADD MSTORE PUSH1 0x42 ADD SWAP1 JUMP JUMPDEST PUSH32 0x454950373132446F6D61696E28737472696E67206E616D652C75696E74323536 DUP2 MSTORE PUSH32 0x20636861696E49642C6164647265737320766572696679696E67436F6E747261 PUSH1 0x20 DUP3 ADD MSTORE PUSH3 0x637429 PUSH1 0xE8 SHL PUSH1 0x40 DUP3 ADD MSTORE PUSH1 0x43 ADD SWAP1 JUMP JUMPDEST PUSH32 0x44656C65676174696F6E28616464726573732064656C6567617465652C75696E DUP2 MSTORE PUSH32 0x74323536206E6F6E63652C75696E743235362065787069727929000000000000 PUSH1 0x20 DUP3 ADD MSTORE PUSH1 0x3A ADD SWAP1 JUMP JUMPDEST PUSH1 0x1 PUSH1 0x1 PUSH1 0xA0 SHL SUB SWAP2 SWAP1 SWAP2 AND DUP2 MSTORE PUSH1 0x20 ADD SWAP1 JUMP JUMPDEST SWAP1 ISZERO ISZERO DUP2 MSTORE PUSH1 0x20 ADD SWAP1 JUMP JUMPDEST SWAP1 DUP2 MSTORE PUSH1 0x20 ADD SWAP1 JUMP JUMPDEST SWAP4 DUP5 MSTORE PUSH1 0x1 PUSH1 0x1 PUSH1 0xA0 SHL SUB SWAP3 SWAP1 SWAP3 AND PUSH1 0x20 DUP5 ADD MSTORE PUSH1 0x40 DUP4 ADD MSTORE PUSH1 0x60 DUP3 ADD MSTORE PUSH1 0x80 ADD SWAP1 JUMP JUMPDEST SWAP4 DUP5 MSTORE PUSH1 0x20 DUP5 ADD SWAP3 SWAP1 SWAP3 MSTORE PUSH1 0x40 DUP4 ADD MSTORE PUSH1 0x1 PUSH1 0x1 PUSH1 0xA0 SHL SUB AND PUSH1 0x60 DUP3 ADD MSTORE PUSH1 0x80 ADD SWAP1 JUMP JUMPDEST SWAP4 DUP5 MSTORE PUSH1 0xFF SWAP3 SWAP1 SWAP3 AND PUSH1 0x20 DUP5 ADD MSTORE PUSH1 0x40 DUP4 ADD MSTORE PUSH1 0x60 DUP3 ADD MSTORE PUSH1 0x80 ADD SWAP1 JUMP JUMPDEST PUSH1 0x0 PUSH1 0x20 DUP1 DUP4 MSTORE DUP4 MLOAD DUP1 DUP3 DUP6 ADD MSTORE DUP3 JUMPDEST DUP2 DUP2 LT ISZERO PUSH2 0x1AA7 JUMPI DUP6 DUP2 ADD DUP4 ADD MLOAD DUP6 DUP3 ADD PUSH1 0x40 ADD MSTORE DUP3 ADD PUSH2 0x1A8B JUMP JUMPDEST DUP2 DUP2 GT ISZERO PUSH2 0x1AB8 JUMPI DUP4 PUSH1 0x40 DUP4 DUP8 ADD ADD MSTORE JUMPDEST POP PUSH1 0x1F ADD PUSH1 0x1F NOT AND SWAP3 SWAP1 SWAP3 ADD PUSH1 0x40 ADD SWAP4 SWAP3 POP POP POP JUMP JUMPDEST PUSH1 0x20 DUP1 DUP3 MSTORE PUSH1 0x22 SWAP1 DUP3 ADD MSTORE PUSH32 0x45504E533A3A64656C656761746542795369673A20696E76616C6964206E6F6E PUSH1 0x40 DUP3 ADD MSTORE PUSH2 0x6365 PUSH1 0xF0 SHL PUSH1 0x60 DUP3 ADD MSTORE PUSH1 0x80 ADD SWAP1 JUMP JUMPDEST PUSH1 0x20 DUP1 DUP3 MSTORE PUSH1 0x3C SWAP1 DUP3 ADD MSTORE PUSH32 0x45504E533A3A5F7472616E73666572546F6B656E733A2063616E6E6F74207472 PUSH1 0x40 DUP3 ADD MSTORE PUSH32 0x616E736665722066726F6D20746865207A65726F206164647265737300000000 PUSH1 0x60 DUP3 ADD MSTORE PUSH1 0x80 ADD SWAP1 JUMP JUMPDEST PUSH1 0x20 DUP1 DUP3 MSTORE PUSH1 0x26 SWAP1 DUP3 ADD MSTORE PUSH32 0x45504E533A3A64656C656761746542795369673A207369676E61747572652065 PUSH1 0x40 DUP3 ADD MSTORE PUSH6 0x1E1C1A5C9959 PUSH1 0xD2 SHL PUSH1 0x60 DUP3 ADD MSTORE PUSH1 0x80 ADD SWAP1 JUMP JUMPDEST PUSH1 0x20 DUP1 DUP3 MSTORE PUSH1 0x26 SWAP1 DUP3 ADD MSTORE PUSH32 0x45504E533A3A64656C656761746542795369673A20696E76616C696420736967 PUSH1 0x40 DUP3 ADD MSTORE PUSH6 0x6E6174757265 PUSH1 0xD0 SHL PUSH1 0x60 DUP3 ADD MSTORE PUSH1 0x80 ADD SWAP1 JUMP JUMPDEST PUSH1 0x20 DUP1 DUP3 MSTORE PUSH1 0x3A SWAP1 DUP3 ADD MSTORE PUSH32 0x45504E533A3A5F7472616E73666572546F6B656E733A2063616E6E6F74207472 PUSH1 0x40 DUP3 ADD MSTORE PUSH32 0x616E7366657220746F20746865207A65726F2061646472657373000000000000 PUSH1 0x60 DUP3 ADD MSTORE PUSH1 0x80 ADD SWAP1 JUMP JUMPDEST PUSH1 0x20 DUP1 DUP3 MSTORE PUSH1 0x27 SWAP1 DUP3 ADD MSTORE PUSH32 0x45504E533A3A6765745072696F72566F7465733A206E6F742079657420646574 PUSH1 0x40 DUP3 ADD MSTORE PUSH7 0x195C9B5A5B9959 PUSH1 0xCA SHL PUSH1 0x60 DUP3 ADD MSTORE PUSH1 0x80 ADD SWAP1 JUMP JUMPDEST PUSH4 0xFFFFFFFF SWAP2 SWAP1 SWAP2 AND DUP2 MSTORE PUSH1 0x20 ADD SWAP1 JUMP JUMPDEST PUSH4 0xFFFFFFFF SWAP3 SWAP1 SWAP3 AND DUP3 MSTORE PUSH1 0x1 PUSH1 0x1 PUSH1 0x60 SHL SUB AND PUSH1 0x20 DUP3 ADD MSTORE PUSH1 0x40 ADD SWAP1 JUMP JUMPDEST PUSH1 0xFF SWAP2 SWAP1 SWAP2 AND DUP2 MSTORE PUSH1 0x20 ADD SWAP1 JUMP JUMPDEST PUSH1 0x1 PUSH1 0x1 PUSH1 0x60 SHL SUB SWAP2 SWAP1 SWAP2 AND DUP2 MSTORE PUSH1 0x20 ADD SWAP1 JUMP JUMPDEST PUSH1 0x1 PUSH1 0x1 PUSH1 0x60 SHL SUB SWAP3 DUP4 AND DUP2 MSTORE SWAP2 AND PUSH1 0x20 DUP3 ADD MSTORE PUSH1 0x40 ADD SWAP1 JUMP JUMPDEST PUSH1 0x1 PUSH1 0x1 PUSH1 0xA0 SHL SUB DUP2 AND DUP2 EQ PUSH2 0x811 JUMPI PUSH1 0x0 DUP1 REVERT INVALID GASLIMIT POP 0x4E MSTORE8 GASPRICE GASPRICE 0x5F PUSH14 0x6F7665566F7465733A20766F7465 KECCAK256 PUSH2 0x6D6F PUSH22 0x6E7420756E646572666C6F777345504E533A3A5F7472 PUSH2 0x6E73 PUSH7 0x6572546F6B656E PUSH20 0x3A207472616E7366657220616D6F756E74206578 PUSH4 0x65656473 KECCAK256 PUSH3 0x616C61 PUSH15 0x636545504E533A3A5F777269746543 PUSH9 0x65636B706F696E743A KECCAK256 PUSH3 0x6C6F63 PUSH12 0x206E756D6265722065786365 PUSH6 0x647320333220 PUSH3 0x697473 GASLIMIT POP 0x4E MSTORE8 GASPRICE GASPRICE 0x5F PUSH21 0x72616E73666572546F6B656E733A207472616E7366 PUSH6 0x7220616D6F75 PUSH15 0x74206F766572666C6F777345504E53 GASPRICE GASPRICE 0x5F PUSH22 0x70646174654653526174696F3A2062616C616E636520 PUSH2 0x6D6F PUSH22 0x6E74206F766572666C6F777345504E533A3A5F6D6F76 PUSH6 0x566F7465733A KECCAK256 PUSH23 0x6F746520616D6F756E74206F766572666C6F777345504E MSTORE8 GASPRICE GASPRICE PUSH21 0x72616E7366657246726F6D3A207472616E73666572 KECCAK256 PUSH2 0x6D6F PUSH22 0x6E742065786365656473207370656E64657220616C6C PUSH16 0x77616E636545504E533A3A7472616E73 PUSH7 0x65723A20616D6F PUSH22 0x6E742065786365656473203936206269747345504E53 GASPRICE GASPRICE 0x5F PUSH22 0x70646174654653526174696F3A2062616C616E636520 PUSH2 0x6D6F PUSH22 0x6E7420756E646572666C6F777345504E533A3A5F7772 PUSH10 0x74654653436865636B70 PUSH16 0x696E743A20626C6F636B206E756D6265 PUSH19 0x2065786365656473203332206269747345504E MSTORE8 GASPRICE GASPRICE PUSH2 0x7070 PUSH19 0x6F76653A20616D6F756E742065786365656473 KECCAK256 CODECOPY CALLDATASIZE KECCAK256 PUSH3 0x697473 LOG2 PUSH5 0x6970667358 0x22 SLT KECCAK256 DUP4 SWAP10 LOG4 ADD 0xB4 DUP7 0xEA DUP10 CALLCODE 0xAB DUP15 0xD7 0xC3 SLOAD SGT 0xF8 PUSH30 0x743945ACD91829E9D830AA7ABBCDEC64736F6C634300060B003300000000 "
        },
        "methodIdentifiers": {
          "DELEGATION_TYPEHASH()": "e7a324dc",
          "DOMAIN_TYPEHASH()": "20606b70",
          "FSCheckpoints(address,uint32)": "e4a5049f",
          "allowance(address,address)": "dd62ed3e",
          "approve(address,uint256)": "095ea7b3",
          "balanceOf(address)": "70a08231",
          "checkpoints(address,uint32)": "f1127ed8",
          "decimals()": "313ce567",
          "delegate(address)": "5c19a95c",
          "delegateBySig(address,uint256,uint256,uint8,bytes32,bytes32)": "c3cda520",
          "delegates(address)": "587cde1e",
          "getCurrentVotes(address)": "b4b5ea57",
          "getPriorFSRatio(address,uint256)": "449d1c1f",
          "getPriorVotes(address,uint256)": "782d6fe1",
          "name()": "06fdde03",
          "nonces(address)": "7ecebe00",
          "numCheckpoints(address)": "6fcfff45",
          "numFSCheckpoints(address)": "f5e98903",
          "symbol()": "95d89b41",
          "totalSupply()": "18160ddd",
          "transfer(address,uint256)": "a9059cbb",
          "transferFrom(address,address,uint256)": "23b872dd"
        }
      }
    }
  }
}