{"abi":[{"type":"function","name":"ADD_CHANNEL_MIN_FEES","inputs":[],"outputs":[{"name":"","type":"uint256","internalType":"uint256"}],"stateMutability":"view"},{"type":"function","name":"CHANNEL_POOL_FUNDS","inputs":[],"outputs":[{"name":"","type":"uint256","internalType":"uint256"}],"stateMutability":"view"},{"type":"function","name":"CREATE_CHANNEL_TYPEHASH","inputs":[],"outputs":[{"name":"","type":"bytes32","internalType":"bytes32"}],"stateMutability":"view"},{"type":"function","name":"DOMAIN_TYPEHASH","inputs":[],"outputs":[{"name":"","type":"bytes32","internalType":"bytes32"}],"stateMutability":"view"},{"type":"function","name":"FEE_AMOUNT","inputs":[],"outputs":[{"name":"","type":"uint256","internalType":"uint256"}],"stateMutability":"view"},{"type":"function","name":"MIN_POOL_CONTRIBUTION","inputs":[],"outputs":[{"name":"","type":"uint256","internalType":"uint256"}],"stateMutability":"view"},{"type":"function","name":"PROTOCOL_POOL_FEES","inputs":[],"outputs":[{"name":"","type":"uint256","internalType":"uint256"}],"stateMutability":"view"},{"type":"function","name":"PUSH_TOKEN_ADDRESS","inputs":[],"outputs":[{"name":"","type":"address","internalType":"address"}],"stateMutability":"view"},{"type":"function","name":"REFERRAL_CODE","inputs":[],"outputs":[{"name":"","type":"uint256","internalType":"uint256"}],"stateMutability":"view"},{"type":"function","name":"UNISWAP_V2_ROUTER","inputs":[],"outputs":[{"name":"","type":"address","internalType":"address"}],"stateMutability":"view"},{"type":"function","name":"WETH_ADDRESS","inputs":[],"outputs":[{"name":"","type":"address","internalType":"address"}],"stateMutability":"view"},{"type":"function","name":"aDaiAddress","inputs":[],"outputs":[{"name":"","type":"address","internalType":"address"}],"stateMutability":"view"},{"type":"function","name":"addPoolFees","inputs":[{"name":"_rewardAmount","type":"uint256","internalType":"uint256"}],"outputs":[],"stateMutability":"nonpayable"},{"type":"function","name":"addSubGraph","inputs":[{"name":"_subGraphData","type":"bytes","internalType":"bytes"}],"outputs":[],"stateMutability":"nonpayable"},{"type":"function","name":"batchVerification","inputs":[{"name":"_startIndex","type":"uint256","internalType":"uint256"},{"name":"_endIndex","type":"uint256","internalType":"uint256"},{"name":"_channelList","type":"address[]","internalType":"address[]"}],"outputs":[{"name":"","type":"bool","internalType":"bool"}],"stateMutability":"nonpayable"},{"type":"function","name":"blockChannel","inputs":[{"name":"_channelAddress","type":"address","internalType":"address"}],"outputs":[],"stateMutability":"nonpayable"},{"type":"function","name":"celebUserFunds","inputs":[{"name":"","type":"address","internalType":"address"}],"outputs":[{"name":"","type":"uint256","internalType":"uint256"}],"stateMutability":"view"},{"type":"function","name":"channelById","inputs":[{"name":"","type":"uint256","internalType":"uint256"}],"outputs":[{"name":"","type":"address","internalType":"address"}],"stateMutability":"view"},{"type":"function","name":"channelNotifSettings","inputs":[{"name":"","type":"address","internalType":"address"}],"outputs":[{"name":"","type":"string","internalType":"string"}],"stateMutability":"view"},{"type":"function","name":"channelUpdateCounter","inputs":[{"name":"","type":"address","internalType":"address"}],"outputs":[{"name":"","type":"uint256","internalType":"uint256"}],"stateMutability":"view"},{"type":"function","name":"channels","inputs":[{"name":"","type":"address","internalType":"address"}],"outputs":[{"name":"channelType","type":"uint8","internalType":"enum CoreTypes.ChannelType"},{"name":"channelState","type":"uint8","internalType":"uint8"},{"name":"verifiedBy","type":"address","internalType":"address"},{"name":"poolContribution","type":"uint256","internalType":"uint256"},{"name":"channelHistoricalZ","type":"uint256","internalType":"uint256"},{"name":"channelFairShareCount","type":"uint256","internalType":"uint256"},{"name":"channelLastUpdate","type":"uint256","internalType":"uint256"},{"name":"channelStartBlock","type":"uint256","internalType":"uint256"},{"name":"channelUpdateBlock","type":"uint256","internalType":"uint256"},{"name":"channelWeight","type":"uint256","internalType":"uint256"},{"name":"expiryTime","type":"uint256","internalType":"uint256"}],"stateMutability":"view"},{"type":"function","name":"channelsCount","inputs":[],"outputs":[{"name":"","type":"uint256","internalType":"uint256"}],"stateMutability":"view"},{"type":"function","name":"claimChatIncentives","inputs":[{"name":"_amount","type":"uint256","internalType":"uint256"}],"outputs":[],"stateMutability":"nonpayable"},{"type":"function","name":"createChannelSettings","inputs":[{"name":"_notifOptions","type":"uint256","internalType":"uint256"},{"name":"_notifSettings","type":"string","internalType":"string"},{"name":"_notifDescription","type":"string","internalType":"string"},{"name":"_amountDeposited","type":"uint256","internalType":"uint256"}],"outputs":[],"stateMutability":"nonpayable"},{"type":"function","name":"createChannelWithPUSH","inputs":[{"name":"_channelType","type":"uint8","internalType":"enum CoreTypes.ChannelType"},{"name":"_identity","type":"bytes","internalType":"bytes"},{"name":"_amount","type":"uint256","internalType":"uint256"},{"name":"_channelExpiryTime","type":"uint256","internalType":"uint256"}],"outputs":[],"stateMutability":"nonpayable"},{"type":"function","name":"daiAddress","inputs":[],"outputs":[{"name":"","type":"address","internalType":"address"}],"stateMutability":"view"},{"type":"function","name":"deactivateChannel","inputs":[],"outputs":[],"stateMutability":"nonpayable"},{"type":"function","name":"destroyTimeBoundChannel","inputs":[{"name":"_channelAddress","type":"address","internalType":"address"}],"outputs":[],"stateMutability":"nonpayable"},{"type":"function","name":"epnsCommunicator","inputs":[],"outputs":[{"name":"","type":"address","internalType":"address"}],"stateMutability":"view"},{"type":"function","name":"epochDuration","inputs":[],"outputs":[{"name":"","type":"uint256","internalType":"uint256"}],"stateMutability":"view"},{"type":"function","name":"epochRewards","inputs":[{"name":"","type":"uint256","internalType":"uint256"}],"outputs":[{"name":"","type":"uint256","internalType":"uint256"}],"stateMutability":"view"},{"type":"function","name":"epochToTotalStakedWeight","inputs":[{"name":"","type":"uint256","internalType":"uint256"}],"outputs":[{"name":"","type":"uint256","internalType":"uint256"}],"stateMutability":"view"},{"type":"function","name":"feePoolStakingContract","inputs":[],"outputs":[{"name":"","type":"address","internalType":"address"}],"stateMutability":"view"},{"type":"function","name":"genesisEpoch","inputs":[],"outputs":[{"name":"","type":"uint256","internalType":"uint256"}],"stateMutability":"view"},{"type":"function","name":"getChannelVerfication","inputs":[{"name":"_channel","type":"address","internalType":"address"}],"outputs":[{"name":"verificationStatus","type":"uint8","internalType":"uint8"}],"stateMutability":"view"},{"type":"function","name":"governance","inputs":[],"outputs":[{"name":"","type":"address","internalType":"address"}],"stateMutability":"view"},{"type":"function","name":"groupFairShareCount","inputs":[],"outputs":[{"name":"","type":"uint256","internalType":"uint256"}],"stateMutability":"view"},{"type":"function","name":"groupHistoricalZ","inputs":[],"outputs":[{"name":"","type":"uint256","internalType":"uint256"}],"stateMutability":"view"},{"type":"function","name":"groupLastUpdate","inputs":[],"outputs":[{"name":"","type":"uint256","internalType":"uint256"}],"stateMutability":"view"},{"type":"function","name":"groupNormalizedWeight","inputs":[],"outputs":[{"name":"","type":"uint256","internalType":"uint256"}],"stateMutability":"view"},{"type":"function","name":"handleChatRequestData","inputs":[{"name":"requestSender","type":"address","internalType":"address"},{"name":"requestReceiver","type":"address","internalType":"address"},{"name":"amount","type":"uint256","internalType":"uint256"}],"outputs":[],"stateMutability":"nonpayable"},{"type":"function","name":"initialize","inputs":[{"name":"_pushChannelAdmin","type":"address","internalType":"address"},{"name":"_pushTokenAddress","type":"address","internalType":"address"},{"name":"_wethAddress","type":"address","internalType":"address"},{"name":"_uniswapRouterAddress","type":"address","internalType":"address"},{"name":"_lendingPoolProviderAddress","type":"address","internalType":"address"},{"name":"_daiAddress","type":"address","internalType":"address"},{"name":"_aDaiAddress","type":"address","internalType":"address"},{"name":"_referralCode","type":"uint256","internalType":"uint256"}],"outputs":[{"name":"success","type":"bool","internalType":"bool"}],"stateMutability":"nonpayable"},{"type":"function","name":"isMigrationComplete","inputs":[],"outputs":[{"name":"","type":"bool","internalType":"bool"}],"stateMutability":"view"},{"type":"function","name":"lendingPoolProviderAddress","inputs":[],"outputs":[{"name":"","type":"address","internalType":"address"}],"stateMutability":"view"},{"type":"function","name":"name","inputs":[],"outputs":[{"name":"","type":"string","internalType":"string"}],"stateMutability":"view"},{"type":"function","name":"nonces","inputs":[{"name":"","type":"address","internalType":"address"}],"outputs":[{"name":"","type":"uint256","internalType":"uint256"}],"stateMutability":"view"},{"type":"function","name":"pauseContract","inputs":[],"outputs":[],"stateMutability":"nonpayable"},{"type":"function","name":"paused","inputs":[],"outputs":[{"name":"","type":"bool","internalType":"bool"}],"stateMutability":"view"},{"type":"function","name":"previouslySetEpochRewards","inputs":[],"outputs":[{"name":"","type":"uint256","internalType":"uint256"}],"stateMutability":"view"},{"type":"function","name":"pushChannelAdmin","inputs":[],"outputs":[{"name":"","type":"address","internalType":"address"}],"stateMutability":"view"},{"type":"function","name":"reactivateChannel","inputs":[{"name":"_amount","type":"uint256","internalType":"uint256"}],"outputs":[],"stateMutability":"nonpayable"},{"type":"function","name":"sendFunds","inputs":[{"name":"_user","type":"address","internalType":"address"},{"name":"_amount","type":"uint256","internalType":"uint256"}],"outputs":[],"stateMutability":"nonpayable"},{"type":"function","name":"setEpnsCommunicatorAddress","inputs":[{"name":"_commAddress","type":"address","internalType":"address"}],"outputs":[],"stateMutability":"nonpayable"},{"type":"function","name":"setFeeAmount","inputs":[{"name":"_newFees","type":"uint256","internalType":"uint256"}],"outputs":[],"stateMutability":"nonpayable"},{"type":"function","name":"setGovernanceAddress","inputs":[{"name":"_governanceAddress","type":"address","internalType":"address"}],"outputs":[],"stateMutability":"nonpayable"},{"type":"function","name":"setMinChannelCreationFees","inputs":[{"name":"_newFees","type":"uint256","internalType":"uint256"}],"outputs":[],"stateMutability":"nonpayable"},{"type":"function","name":"setMinPoolContribution","inputs":[{"name":"_newAmount","type":"uint256","internalType":"uint256"}],"outputs":[],"stateMutability":"nonpayable"},{"type":"function","name":"totalStakedAmount","inputs":[],"outputs":[{"name":"","type":"uint256","internalType":"uint256"}],"stateMutability":"view"},{"type":"function","name":"transferPushChannelAdminControl","inputs":[{"name":"_newAdmin","type":"address","internalType":"address"}],"outputs":[],"stateMutability":"nonpayable"},{"type":"function","name":"unPauseContract","inputs":[],"outputs":[],"stateMutability":"nonpayable"},{"type":"function","name":"unverifyChannel","inputs":[{"name":"_channel","type":"address","internalType":"address"}],"outputs":[],"stateMutability":"nonpayable"},{"type":"function","name":"updateChannelMeta","inputs":[{"name":"_channel","type":"address","internalType":"address"},{"name":"_newIdentity","type":"bytes","internalType":"bytes"},{"name":"_amount","type":"uint256","internalType":"uint256"}],"outputs":[],"stateMutability":"nonpayable"},{"type":"function","name":"updateStakingAddress","inputs":[{"name":"_stakingAddress","type":"address","internalType":"address"}],"outputs":[],"stateMutability":"nonpayable"},{"type":"function","name":"userFeesInfo","inputs":[{"name":"","type":"address","internalType":"address"}],"outputs":[{"name":"stakedAmount","type":"uint256","internalType":"uint256"},{"name":"stakedWeight","type":"uint256","internalType":"uint256"},{"name":"lastStakedBlock","type":"uint256","internalType":"uint256"},{"name":"lastClaimedBlock","type":"uint256","internalType":"uint256"}],"stateMutability":"view"},{"type":"function","name":"usersRewardsClaimed","inputs":[{"name":"","type":"address","internalType":"address"}],"outputs":[{"name":"","type":"uint256","internalType":"uint256"}],"stateMutability":"view"},{"type":"function","name":"verifyChannel","inputs":[{"name":"_channel","type":"address","internalType":"address"}],"outputs":[],"stateMutability":"nonpayable"},{"type":"event","name":"AddChannel","inputs":[{"name":"channel","type":"address","indexed":true,"internalType":"address"},{"name":"channelType","type":"uint8","indexed":true,"internalType":"enum CoreTypes.ChannelType"},{"name":"identity","type":"bytes","indexed":false,"internalType":"bytes"}],"anonymous":false},{"type":"event","name":"AddSubGraph","inputs":[{"name":"channel","type":"address","indexed":true,"internalType":"address"},{"name":"_subGraphData","type":"bytes","indexed":false,"internalType":"bytes"}],"anonymous":false},{"type":"event","name":"ChannelBlocked","inputs":[{"name":"channel","type":"address","indexed":true,"internalType":"address"}],"anonymous":false},{"type":"event","name":"ChannelNotifcationSettingsAdded","inputs":[{"name":"_channel","type":"address","indexed":false,"internalType":"address"},{"name":"totalNotifOptions","type":"uint256","indexed":false,"internalType":"uint256"},{"name":"_notifSettings","type":"string","indexed":false,"internalType":"string"},{"name":"_notifDescription","type":"string","indexed":false,"internalType":"string"}],"anonymous":false},{"type":"event","name":"ChannelVerificationRevoked","inputs":[{"name":"channel","type":"address","indexed":true,"internalType":"address"},{"name":"revoker","type":"address","indexed":true,"internalType":"address"}],"anonymous":false},{"type":"event","name":"ChannelVerified","inputs":[{"name":"channel","type":"address","indexed":true,"internalType":"address"},{"name":"verifier","type":"address","indexed":true,"internalType":"address"}],"anonymous":false},{"type":"event","name":"ChatIncentiveClaimed","inputs":[{"name":"user","type":"address","indexed":true,"internalType":"address"},{"name":"amountClaimed","type":"uint256","indexed":true,"internalType":"uint256"}],"anonymous":false},{"type":"event","name":"DeactivateChannel","inputs":[{"name":"channel","type":"address","indexed":true,"internalType":"address"},{"name":"amountRefunded","type":"uint256","indexed":true,"internalType":"uint256"}],"anonymous":false},{"type":"event","name":"IncentivizeChatReqReceived","inputs":[{"name":"requestSender","type":"address","indexed":false,"internalType":"address"},{"name":"requestReceiver","type":"address","indexed":false,"internalType":"address"},{"name":"amountForReqReceiver","type":"uint256","indexed":false,"internalType":"uint256"},{"name":"feePoolAmount","type":"uint256","indexed":false,"internalType":"uint256"},{"name":"timestamp","type":"uint256","indexed":false,"internalType":"uint256"}],"anonymous":false},{"type":"event","name":"Initialized","inputs":[{"name":"version","type":"uint64","indexed":false,"internalType":"uint64"}],"anonymous":false},{"type":"event","name":"Paused","inputs":[{"name":"account","type":"address","indexed":false,"internalType":"address"}],"anonymous":false},{"type":"event","name":"ReactivateChannel","inputs":[{"name":"channel","type":"address","indexed":true,"internalType":"address"},{"name":"amountDeposited","type":"uint256","indexed":true,"internalType":"uint256"}],"anonymous":false},{"type":"event","name":"RewardsHarvested","inputs":[{"name":"user","type":"address","indexed":true,"internalType":"address"},{"name":"rewardAmount","type":"uint256","indexed":true,"internalType":"uint256"},{"name":"fromEpoch","type":"uint256","indexed":false,"internalType":"uint256"},{"name":"tillEpoch","type":"uint256","indexed":false,"internalType":"uint256"}],"anonymous":false},{"type":"event","name":"Staked","inputs":[{"name":"user","type":"address","indexed":true,"internalType":"address"},{"name":"amountStaked","type":"uint256","indexed":true,"internalType":"uint256"}],"anonymous":false},{"type":"event","name":"TimeBoundChannelDestroyed","inputs":[{"name":"channel","type":"address","indexed":true,"internalType":"address"},{"name":"amountRefunded","type":"uint256","indexed":true,"internalType":"uint256"}],"anonymous":false},{"type":"event","name":"Unpaused","inputs":[{"name":"account","type":"address","indexed":false,"internalType":"address"}],"anonymous":false},{"type":"event","name":"Unstaked","inputs":[{"name":"user","type":"address","indexed":true,"internalType":"address"},{"name":"amountUnstaked","type":"uint256","indexed":true,"internalType":"uint256"}],"anonymous":false},{"type":"event","name":"UpdateChannel","inputs":[{"name":"channel","type":"address","indexed":true,"internalType":"address"},{"name":"identity","type":"bytes","indexed":false,"internalType":"bytes"},{"name":"amountDeposited","type":"uint256","indexed":true,"internalType":"uint256"}],"anonymous":false},{"type":"error","name":"AddressEmptyCode","inputs":[{"name":"target","type":"address","internalType":"address"}]},{"type":"error","name":"AddressInsufficientBalance","inputs":[{"name":"account","type":"address","internalType":"address"}]},{"type":"error","name":"CallerNotAdmin","inputs":[]},{"type":"error","name":"CallerNotGovernance","inputs":[]},{"type":"error","name":"Core_InvalidChannel","inputs":[]},{"type":"error","name":"Core_InvalidChannelType","inputs":[]},{"type":"error","name":"Core_InvalidExpiryTime","inputs":[]},{"type":"error","name":"EnforcedPause","inputs":[]},{"type":"error","name":"ExpectedPause","inputs":[]},{"type":"error","name":"FailedInnerCall","inputs":[]},{"type":"error","name":"InvalidArg_LessThanExpected","inputs":[{"name":"min_threshold","type":"uint256","internalType":"uint256"},{"name":"actual_value","type":"uint256","internalType":"uint256"}]},{"type":"error","name":"InvalidArg_MoreThanExpected","inputs":[{"name":"max_threshold","type":"uint256","internalType":"uint256"},{"name":"actual_value","type":"uint256","internalType":"uint256"}]},{"type":"error","name":"InvalidArgument_WrongAddress","inputs":[{"name":"user","type":"address","internalType":"address"}]},{"type":"error","name":"InvalidInitialization","inputs":[]},{"type":"error","name":"NotInitializing","inputs":[]},{"type":"error","name":"SafeERC20FailedOperation","inputs":[{"name":"token","type":"address","internalType":"address"}]},{"type":"error","name":"UnauthorizedCaller","inputs":[{"name":"caller","type":"address","internalType":"address"}]}],"bytecode":{"object":"0x608060405234801561001057600080fd5b506138b4806100206000396000f3fe608060405234801561001057600080fd5b50600436106104065760003560e01c8063883019111161021a578063c175256f11610135578063dfdbd358116100c8578063eea0b5c511610097578063f029c18c1161007c578063f029c18c14610a44578063f8ac833614610a7a578063fc6b859b14610aa157600080fd5b8063eea0b5c514610a1e578063f01948c114610a3157600080fd5b8063dfdbd358146109cf578063e9f36598146109e2578063ec50b8e0146109eb578063edd13959146109fe57600080fd5b8063d487e30511610104578063d487e3051461098e578063d7128084146109a1578063daa947f5146109b3578063dc4e3571146109bc57600080fd5b8063c175256f1461094c578063c57acfe514610955578063cdc43a4b14610968578063cfc162541461097b57600080fd5b8063aba03325116101ad578063bac152031161017c578063bac15203146108eb578063bc680515146108f3578063bd42720314610913578063bd90f8151461092657600080fd5b8063aba03325146108b1578063ad5f1574146108b9578063af809d09146108c2578063b70e6be6146108e257600080fd5b8063954e5f61116101e9578063954e5f6114610816578063991996421461086b578063a82ed9ec1461087e578063a90521c31461089e57600080fd5b806388301911146107c75780638cfbc3e0146107da578063908519db146107fa578063952b33311461080d57600080fd5b8063439766ce116103255780635c975abb116102b85780636f64234e116102875780637ecebe001161026c5780637ecebe001461076f578063843fdad31461078f5780638779904e146107b457600080fd5b80636f64234e146106c95780637dce34f7146106dc57600080fd5b80635c975abb1461065757806368a8e5b61461068d5780636b392680146106965780636d1b6d46146106a957600080fd5b806355091fe5116102f457806355091fe514610612578063567e98f91461061b5780635aa6e675146106245780635b06a1d11461064457600080fd5b8063439766ce146105d85780634dc47d34146105e05780634def9ef2146105ff5780634ff0876a1461060857600080fd5b806320606b701161039d5780632f00dfe01161036c5780632f00dfe01461057c5780633583849a1461058f57806337a1b782146105985780633ecaec8b146105b857600080fd5b806320606b70146105195780632359600c14610540578063270dd8a0146105535780632c3872751461055c57600080fd5b80630d01c2d5116103d95780630d01c2d5146104d35780630d33a019146104e65780630ded7731146104f9578063110e01a81461051057600080fd5b8063017d5efe1461040b578063040141e51461042057806306fdde031461046a578063098b2041146104b3575b600080fd5b61041e610419366004612fa5565b610ac1565b005b6007546104409073ffffffffffffffffffffffffffffffffffffffff1681565b60405173ffffffffffffffffffffffffffffffffffffffff90911681526020015b60405180910390f35b6104a66040518060400160405280600c81526020017f45504e535f434f52455f5632000000000000000000000000000000000000000081525081565b604051610461919061302e565b6006546104409073ffffffffffffffffffffffffffffffffffffffff1681565b61041e6104e1366004612fa5565b610bad565b61041e6104f436600461308a565b610d70565b610502600f5481565b604051908152602001610461565b61050260115481565b6105027f2ce9970b46ea1bff1d78000ab660407f50a9499f6742ac914d6e6aa91d8c8b2481565b61041e61054e3660046130e4565b610ebd565b61050260145481565b6005546104409073ffffffffffffffffffffffffffffffffffffffff1681565b61041e61058a366004613120565b610fdb565b610502600c5481565b6105026105a6366004612fa5565b601a6020526000908152604090205481565b6105026105c6366004613120565b60226020526000908152604090205481565b61041e611187565b6105026105ee366004613120565b602080526000908152604090205481565b61050260175481565b61050262024b0481565b610502600e5481565b610502601e5481565b6004546104409073ffffffffffffffffffffffffffffffffffffffff1681565b61041e610652366004612fa5565b611199565b7fcd5ed15c6e187e77e9aee88184c21f4f2182ab5827cb3b7e07fbedcd63f033005460ff165b6040519015158152602001610461565b61050260105481565b61041e6106a4366004613120565b6111e8565b600b546104409073ffffffffffffffffffffffffffffffffffffffff1681565b61041e6106d7366004613139565b611282565b6107586106ea366004612fa5565b60006020819052908152604090208054600182015460028301546003840154600485015460058601546006870154600788015460089098015460ff808916996101008a049091169862010000900473ffffffffffffffffffffffffffffffffffffffff16979695949392918b565b6040516104619b9a99989796959493929190613192565b61050261077d366004612fa5565b60186020526000908152604090205481565b6107a261079d366004612fa5565b611377565b60405160ff9091168152602001610461565b61041e6107c2366004613232565b61148d565b61067d6107d5366004613274565b6114ea565b600a546104409073ffffffffffffffffffffffffffffffffffffffff1681565b61041e610808366004612fa5565b6118c9565b610502601f5481565b61084b610824366004612fa5565b60216020526000908152604090208054600182015460028301546003909301549192909184565b604080519485526020850193909352918301526060820152608001610461565b61041e610879366004612fa5565b611a13565b6009546104409073ffffffffffffffffffffffffffffffffffffffff1681565b61041e6108ac366004613304565b611b17565b61041e611cf1565b61050260165481565b6105026108d0366004612fa5565b60236020526000908152604090205481565b610502601b5481565b61041e611de8565b6024546104409073ffffffffffffffffffffffffffffffffffffffff1681565b61041e610921366004612fa5565b611df8565b6003546104409062010000900473ffffffffffffffffffffffffffffffffffffffff1681565b61050260155481565b61067d61096336600461336f565b612119565b61041e610976366004613120565b61216b565b61041e610989366004612fa5565b612248565b61041e61099c366004613120565b612297565b60035461067d90610100900460ff1681565b61050260125481565b61041e6109ca366004613120565b6122d0565b61041e6109dd366004612fa5565b612321565b61050260135481565b61041e6109f9366004613120565b612370565b610502610a0c366004612fa5565b60196020526000908152604090205481565b6104a6610a2c366004612fa5565b6123d6565b61041e610a3f3660046133f2565b612470565b610440610a52366004613120565b60016020526000908152604090205473ffffffffffffffffffffffffffffffffffffffff1681565b6105027f0eb0b7c1f0e1a4ef47cef3c68abdb1aaaa449bede7fde99a8d0ee0952ce817e981565b6008546104409073ffffffffffffffffffffffffffffffffffffffff1681565b610ac96125a8565b73ffffffffffffffffffffffffffffffffffffffff81161580610b0c575060035473ffffffffffffffffffffffffffffffffffffffff8281166201000090920416145b15610b60576040517f3e1378c100000000000000000000000000000000000000000000000000000000815273ffffffffffffffffffffffffffffffffffffffff821660048201526024015b60405180910390fd5b6003805473ffffffffffffffffffffffffffffffffffffffff90921662010000027fffffffffffffffffffff0000000000000000000000000000000000000000ffff909216919091179055565b610bb56125ff565b610bbd61265b565b73ffffffffffffffffffffffffffffffffffffffff8116600090815260208190526040902054610100900460ff1660031480610c24575073ffffffffffffffffffffffffffffffffffffffff8116600090815260208190526040902054610100900460ff16155b15610c5b576040517f4052a4ad00000000000000000000000000000000000000000000000000000000815260040160405180910390fd5b60175473ffffffffffffffffffffffffffffffffffffffff821660009081526020819052604081206001810154909190610c969084906134a3565b905080601354610ca691906134a3565b601355601454610cb79082906134b6565b601455600d546000908490610ccc90826134c9565b610cd691906134e0565b90506001600e54610ce791906134a3565b600e5582547fffffffffffffffffffffffffffffffffffffffffffffffffffffffffffff00ff16610300178355600783018190554360068401556001830184905560405173ffffffffffffffffffffffffffffffffffffffff8616907ffbbb06adde8edc33cf72be5516c0a7d1eca7103419494556226e58774943c17690600090a25050505050565b610d786125ff565b610d81846126ac565b73ffffffffffffffffffffffffffffffffffffffff8416600090815260196020526040812054610db29060016134b6565b9050600081601554610dc491906134c9565b905080831015610e0a576040517f2d93586c0000000000000000000000000000000000000000000000000000000081526004810182905260248101849052604401610b57565b82601454610e1891906134b6565b60145573ffffffffffffffffffffffffffffffffffffffff808716600090815260196020908152604080832086905590829052902043600690910155600a54610e64911633308661273a565b828673ffffffffffffffffffffffffffffffffffffffff167fd080354cc7cff21b2f3e3190c00a803ac7dce5831b8291ec60b4860392045b7a8787604051610ead929190613564565b60405180910390a3505050505050565b60085473ffffffffffffffffffffffffffffffffffffffff163314610f10576040517fd86ad9cf000000000000000000000000000000000000000000000000000000008152336004820152602401610b57565b6016546000610f1f82846134a3565b73ffffffffffffffffffffffffffffffffffffffff8516600090815260236020526040812080549293508392909190610f599084906134b6565b9091555050601454610f6c9083906134b6565b6014556040805173ffffffffffffffffffffffffffffffffffffffff808816825286166020820152908101829052606081018390524260808201527fe37c9556702a8226b38b7fe7302b45c6cfa7c8c6b55b38636fe8da4cd62038519060a00160405180910390a15050505050565b610fe36125ff565b60155481101561102d576015546040517f2d93586c000000000000000000000000000000000000000000000000000000008152600481019190915260248101829052604401610b57565b33600090815260208190526040902054610100900460ff1660021461107e576040517f4052a4ad00000000000000000000000000000000000000000000000000000000815260040160405180910390fd5b600a546110a39073ffffffffffffffffffffffffffffffffffffffff1633308461273a565b60165460006110b282846134a3565b9050806013546110c291906134b6565b6013556014546110d39083906134b6565b60145533600090815260208190526040812060018101549091906110f89084906134b6565b90506000601754600d548361110d91906134c9565b61111791906134e0565b83547fffffffffffffffffffffffffffffffffffffffffffffffffffffffffffff00ff166101001784556001840183905560078401819055604051909150869033907fbc047405ceee77073c6c9c3fcc50396bd24c9a1e36ad8c3574db1ce6674f0a8790600090a3505050505050565b61118f6125a8565b6111976127c9565b565b6111a16125a8565b602480547fffffffffffffffffffffffff00000000000000000000000000000000000000001673ffffffffffffffffffffffffffffffffffffffff92909216919091179055565b6111f061265b565b80600003611234576040517f2d93586c0000000000000000000000000000000000000000000000000000000081526001600482015260248101829052604401610b57565b601554811061127d576015546040517f308eac4d000000000000000000000000000000000000000000000000000000008152600481019190915260248101829052604401610b57565b601655565b60245473ffffffffffffffffffffffffffffffffffffffff1633146112d5576040517fd86ad9cf000000000000000000000000000000000000000000000000000000008152336004820152602401610b57565b600a546040517fa9059cbb00000000000000000000000000000000000000000000000000000000815273ffffffffffffffffffffffffffffffffffffffff8481166004830152602482018490529091169063a9059cbb906044016020604051808303816000875af115801561134e573d6000803e3d6000fd5b505050506040513d601f19601f820116820180604052508101906113729190613580565b505050565b73ffffffffffffffffffffffffffffffffffffffff8082166000908152602081905260408120546003549192620100009182900481169284929004168214806113e0575060035473ffffffffffffffffffffffffffffffffffffffff8581166201000090920416145b156113ee5760019250611486565b5b806114865773ffffffffffffffffffffffffffffffffffffffff821661141b57506000915060016113ef565b60035473ffffffffffffffffffffffffffffffffffffffff6201000090910481169083160361145057506002915060016113ef565b73ffffffffffffffffffffffffffffffffffffffff918216600090815260208190526040902054620100009004909116906113ef565b5050919050565b61149633612869565b3373ffffffffffffffffffffffffffffffffffffffff167f3c6f586adc28bd6371da8f4f7a15d49e8350b80e99cb596d4268805db193cc1983836040516114de929190613564565b60405180910390a25050565b7ff0c57e16840df040f15088dc2f81fe391c3923bec73e23a9662efc9c229c6a0080546000919068010000000000000000810460ff16159067ffffffffffffffff1683811580156115385750825b905060008267ffffffffffffffff1660011480156115555750303b155b905081158015611563575080155b1561159a576040517ff92ee8a900000000000000000000000000000000000000000000000000000000815260040160405180910390fd5b84547fffffffffffffffffffffffffffffffffffffffffffffffff000000000000000016600117855583156115fb5784547fffffffffffffffffffffffffffffffffffffffffffffff00ffffffffffffffff16680100000000000000001785555b8d600360026101000a81548173ffffffffffffffffffffffffffffffffffffffff021916908373ffffffffffffffffffffffffffffffffffffffff1602179055508d600460006101000a81548173ffffffffffffffffffffffffffffffffffffffff021916908373ffffffffffffffffffffffffffffffffffffffff16021790555088600560006101000a81548173ffffffffffffffffffffffffffffffffffffffff021916908373ffffffffffffffffffffffffffffffffffffffff16021790555087600660006101000a81548173ffffffffffffffffffffffffffffffffffffffff021916908373ffffffffffffffffffffffffffffffffffffffff1602179055508b600760006101000a81548173ffffffffffffffffffffffffffffffffffffffff021916908373ffffffffffffffffffffffffffffffffffffffff16021790555086600c819055508c600a60006101000a81548173ffffffffffffffffffffffffffffffffffffffff021916908373ffffffffffffffffffffffffffffffffffffffff1602179055508a600960006101000a81548173ffffffffffffffffffffffffffffffffffffffff021916908373ffffffffffffffffffffffffffffffffffffffff16021790555089600b60006101000a81548173ffffffffffffffffffffffffffffffffffffffff021916908373ffffffffffffffffffffffffffffffffffffffff160217905550678ac7230489e800006016819055506802b5e3af16b18800006017819055506802b5e3af16b188000060158190555062989680600d8190555043601181905550600d54600f819055506001955083156118b85784547fffffffffffffffffffffffffffffffffffffffffffffff00ffffffffffffffff168555604051600181527fc7f505b2f371ae2175ee4913f4499e1f2633a7b5936321eed1cdaeb6115181d29060200160405180910390a15b505050505098975050505050505050565b6118d281612869565b60006118dd33611377565b90508060ff1660000361191e576040517fd86ad9cf000000000000000000000000000000000000000000000000000000008152336004820152602401610b57565b600061192983611377565b905060ff81161580611958575060035462010000900473ffffffffffffffffffffffffffffffffffffffff1633145b61198e576040517f4052a4ad00000000000000000000000000000000000000000000000000000000815260040160405180910390fd5b73ffffffffffffffffffffffffffffffffffffffff831660008181526020819052604080822080547fffffffffffffffffffff0000000000000000000000000000000000000000ffff16336201000081029190911790915590519092917f84899820e388057bcb96cb9aa9c946c45de73a45051bb4184391046c4438329a91a3505050565b73ffffffffffffffffffffffffffffffffffffffff81811660009081526020819052604090205462010000900416331480611a6b575060035462010000900473ffffffffffffffffffffffffffffffffffffffff1633145b611aa1576040517f06d919f200000000000000000000000000000000000000000000000000000000815260040160405180910390fd5b73ffffffffffffffffffffffffffffffffffffffff811660008181526020819052604080822080547fffffffffffffffffffff0000000000000000000000000000000000000000ffff169055513392917f9d0e3265e47ea38b22548ea0663e73c8f406d4b04ade46b227c1b766ffbc605e91a350565b611b1f6125ff565b601554821015611b69576015546040517f2d93586c000000000000000000000000000000000000000000000000000000008152600481019190915260248101839052604401610b57565b33600090815260208190526040902054610100900460ff1615611bb8576040517f4052a4ad00000000000000000000000000000000000000000000000000000000815260040160405180910390fd5b6002856005811115611bcc57611bcc613163565b1480611be957506003856005811115611be757611be7613163565b145b80611c0557506004856005811115611c0357611c03613163565b145b80611c2157506005856005811115611c1f57611c1f613163565b145b611c57576040517f43376f5100000000000000000000000000000000000000000000000000000000815260040160405180910390fd5b846005811115611c6957611c69613163565b3373ffffffffffffffffffffffffffffffffffffffff167f1f97bc77a1686355f130d93883d42f2434474cf65f97b29bc451ea7f9388d36a8686604051611cb1929190613564565b60405180910390a3600a54611cde9073ffffffffffffffffffffffffffffffffffffffff1633308561273a565b611cea338684846128d1565b5050505050565b611cf96125ff565b611d0233612869565b336000908152602081905260408120601754600182015491929091611d289083906134a3565b9050600082600d5484611d3b91906134c9565b611d4591906134e0565b84547fffffffffffffffffffffffffffffffffffffffffffffffffffffffffffff00ff16610200178555601354909150611d809083906134a3565b6013556007840181905560018401839055600a54611db59073ffffffffffffffffffffffffffffffffffffffff163384612a8d565b604051829033907f2280e0164fd038143a9177af9744ff6b78c8a7b2547be0efaf673d8c2876ca1790600090a350505050565b611df06125a8565b611197612acb565b611e006125ff565b611e0981612869565b73ffffffffffffffffffffffffffffffffffffffff8116600090815260208190526040808220815161016081019092528054829060ff166005811115611e5157611e51613163565b6005811115611e6257611e62613163565b8152815461010080820460ff1660208401526201000090910473ffffffffffffffffffffffffffffffffffffffff1660408301526001830154606083015260028301546080830152600383015460a083015260048084015460c0840152600584015460e084015260068401549183019190915260078301546101208301526008909201546101409091015290915081516005811115611f0357611f03613163565b14611f3a576040517f43376f5100000000000000000000000000000000000000000000000000000000815260040160405180910390fd5b3373ffffffffffffffffffffffffffffffffffffffff8316148015611f63575042816101400151105b80611fa8575060035462010000900473ffffffffffffffffffffffffffffffffffffffff1633148015611fa857504281610140015162127500611fa691906134b6565b105b611fe0576040517fd86ad9cf000000000000000000000000000000000000000000000000000000008152336004820152602401610b57565b6060810151601354611ff39082906134a3565b60135560035462010000900473ffffffffffffffffffffffffffffffffffffffff16331461204457600a5461203f9073ffffffffffffffffffffffffffffffffffffffff163383612a8d565b612056565b8060145461205291906134b6565b6014555b6001600e5461206591906134a3565b600e5573ffffffffffffffffffffffffffffffffffffffff831660009081526020819052604080822080547fffffffffffffffffffff000000000000000000000000000000000000000000001681556001810183905560028101839055600381018390556004810183905560058101839055600681018390556007810183905560080182905551829133917f994ca324b9d2f7966a11b77f1853c1152783ae967ac925ddb5c42fc5b793f68a9190a3505050565b60006121236125a8565b845b8481101561215f57612157848483818110612142576121426135a2565b90506020020160208101906108089190612fa5565b600101612125565b50600195945050505050565b336000908152602360205260409020548111156121d05733600090815260236020526040908190205490517f308eac4d000000000000000000000000000000000000000000000000000000008152600481019190915260248101829052604401610b57565b33600090815260236020526040812080548392906121ef9084906134a3565b9091555050600a546122189073ffffffffffffffffffffffffffffffffffffffff163383612a8d565b604051819033907f2230358eceb5a0a4628b45edd28b2a8cbeb1811be034efa5f1c9af7e3f3efa7e90600090a350565b6122506125a8565b600480547fffffffffffffffffffffffff00000000000000000000000000000000000000001673ffffffffffffffffffffffffffffffffffffffff92909216919091179055565b600a546122bc9073ffffffffffffffffffffffffffffffffffffffff1633308461273a565b806014546122ca91906134b6565b60145550565b6122d861265b565b8060000361231c576040517f2d93586c0000000000000000000000000000000000000000000000000000000081526001600482015260248101829052604401610b57565b601755565b6123296125a8565b600880547fffffffffffffffffffffffff00000000000000000000000000000000000000001673ffffffffffffffffffffffffffffffffffffffff92909216919091179055565b61237861265b565b600060165460175461238a91906134b6565b9050808210156123d0576040517f2d93586c0000000000000000000000000000000000000000000000000000000081526004810182905260248101839052604401610b57565b50601555565b600260205260009081526040902080546123ef906135d1565b80601f016020809104026020016040519081016040528092919081815260200182805461241b906135d1565b80156124685780601f1061243d57610100808354040283529160200191612468565b820191906000526020600020905b81548152906001019060200180831161244b57829003601f168201915b505050505081565b61247933612869565b6015548110156124c3576015546040517f2d93586c000000000000000000000000000000000000000000000000000000008152600481019190915260248101829052604401610b57565b60006124ce87612b41565b86866040516020016124e293929190613624565b604080517fffffffffffffffffffffffffffffffffffffffffffffffffffffffffffffffe081840301815291815233600090815260026020522090915061252982826136f4565b508160145461253891906134b6565b601455600a546125609073ffffffffffffffffffffffffffffffffffffffff1633308561273a565b7f87cfb53b7cc0f446465723d1075eb0d650edc90e4365956fc1419a675c867bba338883878760405161259795949392919061380e565b60405180910390a150505050505050565b60035462010000900473ffffffffffffffffffffffffffffffffffffffff163314611197576040517f06d919f200000000000000000000000000000000000000000000000000000000815260040160405180910390fd5b7fcd5ed15c6e187e77e9aee88184c21f4f2182ab5827cb3b7e07fbedcd63f033005460ff1615611197576040517fd93c066500000000000000000000000000000000000000000000000000000000815260040160405180910390fd5b60045473ffffffffffffffffffffffffffffffffffffffff163314611197576040517ff2be30fb00000000000000000000000000000000000000000000000000000000815260040160405180910390fd5b73ffffffffffffffffffffffffffffffffffffffff811660009081526020819052604090205460ff6101009091041660011480156126ff57503373ffffffffffffffffffffffffffffffffffffffff8216145b612737576040517fd86ad9cf000000000000000000000000000000000000000000000000000000008152336004820152602401610b57565b50565b60405173ffffffffffffffffffffffffffffffffffffffff84811660248301528381166044830152606482018390526127c39186918216906323b872dd906084015b604051602081830303815290604052915060e01b6020820180517bffffffffffffffffffffffffffffffffffffffffffffffffffffffff8381831617835250505050612bff565b50505050565b6127d16125ff565b7fcd5ed15c6e187e77e9aee88184c21f4f2182ab5827cb3b7e07fbedcd63f0330080547fffffffffffffffffffffffffffffffffffffffffffffffffffffffffffffff001660011781557f62e78cea01bee320cd4e420270b5ea74000d11b0c9f74754ebdbfc544b05a258335b60405173ffffffffffffffffffffffffffffffffffffffff909116815260200160405180910390a150565b73ffffffffffffffffffffffffffffffffffffffff811660009081526020819052604090205460ff61010090910416600114612737576040517f4052a4ad00000000000000000000000000000000000000000000000000000000815260040160405180910390fd5b60165460006128e082856134a3565b9050806013546128f091906134b6565b6013556014546129019083906134b6565b601455601754600d546000919061291890846134c9565b61292291906134e0565b73ffffffffffffffffffffffffffffffffffffffff8816600090815260208190526040902080546101007fffffffffffffffffffffffffffffffffffffffffffffffffffffffffffff00ff821681178355600180840187905593945089937fffffffffffffffffffffffffffffffffffffffffffffffffffffffffffff000090921617908360058111156129b8576129b8613163565b021790555073ffffffffffffffffffffffffffffffffffffffff8716600090815260208190526040902043600582018190556006820155600701819055600e54612a039060016134b6565b600e556004866005811115612a1a57612a1a613163565b03612a8457428411612a58576040517f52743ef000000000000000000000000000000000000000000000000000000000815260040160405180910390fd5b73ffffffffffffffffffffffffffffffffffffffff871660009081526020819052604090206008018490555b50505050505050565b60405173ffffffffffffffffffffffffffffffffffffffff83811660248301526044820183905261137291859182169063a9059cbb9060640161277c565b612ad3612c95565b7fcd5ed15c6e187e77e9aee88184c21f4f2182ab5827cb3b7e07fbedcd63f0330080547fffffffffffffffffffffffffffffffffffffffffffffffffffffffffffffff001681557f5db9ee0a495bf2e6ff9c91a7834c1ba4fdd244a5e8aa4e537bd38aeae4b073aa3361283e565b60606000612b4e83612cf0565b600101905060008167ffffffffffffffff811115612b6e57612b6e613677565b6040519080825280601f01601f191660200182016040528015612b98576020820181803683370190505b5090508181016020015b7fffffffffffffffffffffffffffffffffffffffffffffffffffffffffffffffff017f3031323334353637383961626364656600000000000000000000000000000000600a86061a8153600a8504945084612ba257509392505050565b6000612c2173ffffffffffffffffffffffffffffffffffffffff841683612dd3565b90508051600014158015612c46575080806020019051810190612c449190613580565b155b15611372576040517f5274afe700000000000000000000000000000000000000000000000000000000815273ffffffffffffffffffffffffffffffffffffffff84166004820152602401610b57565b7fcd5ed15c6e187e77e9aee88184c21f4f2182ab5827cb3b7e07fbedcd63f033005460ff16611197576040517f8dfc202b00000000000000000000000000000000000000000000000000000000815260040160405180910390fd5b6000807a184f03e93ff9f4daa797ed6e38ed64bf6a1f0100000000000000008310612d39577a184f03e93ff9f4daa797ed6e38ed64bf6a1f010000000000000000830492506040015b6d04ee2d6d415b85acef81000000008310612d65576d04ee2d6d415b85acef8100000000830492506020015b662386f26fc100008310612d8357662386f26fc10000830492506010015b6305f5e1008310612d9b576305f5e100830492506008015b6127108310612daf57612710830492506004015b60648310612dc1576064830492506002015b600a8310612dcd576001015b92915050565b6060612de183836000612de8565b9392505050565b606081471015612e26576040517fcd786059000000000000000000000000000000000000000000000000000000008152306004820152602401610b57565b6000808573ffffffffffffffffffffffffffffffffffffffff168486604051612e4f9190613862565b60006040518083038185875af1925050503d8060008114612e8c576040519150601f19603f3d011682016040523d82523d6000602084013e612e91565b606091505b5091509150612ea1868383612eab565b9695505050505050565b606082612ec057612ebb82612f3a565b612de1565b8151158015612ee4575073ffffffffffffffffffffffffffffffffffffffff84163b155b15612f33576040517f9996b31500000000000000000000000000000000000000000000000000000000815273ffffffffffffffffffffffffffffffffffffffff85166004820152602401610b57565b5080612de1565b805115612f4a5780518082602001fd5b6040517f1425ea4200000000000000000000000000000000000000000000000000000000815260040160405180910390fd5b803573ffffffffffffffffffffffffffffffffffffffff81168114612fa057600080fd5b919050565b600060208284031215612fb757600080fd5b612de182612f7c565b60005b83811015612fdb578181015183820152602001612fc3565b50506000910152565b60008151808452612ffc816020860160208601612fc0565b601f017fffffffffffffffffffffffffffffffffffffffffffffffffffffffffffffffe0169290920160200192915050565b602081526000612de16020830184612fe4565b60008083601f84011261305357600080fd5b50813567ffffffffffffffff81111561306b57600080fd5b60208301915083602082850101111561308357600080fd5b9250929050565b600080600080606085870312156130a057600080fd5b6130a985612f7c565b9350602085013567ffffffffffffffff8111156130c557600080fd5b6130d187828801613041565b9598909750949560400135949350505050565b6000806000606084860312156130f957600080fd5b61310284612f7c565b925061311060208501612f7c565b9150604084013590509250925092565b60006020828403121561313257600080fd5b5035919050565b6000806040838503121561314c57600080fd5b61315583612f7c565b946020939093013593505050565b7f4e487b7100000000000000000000000000000000000000000000000000000000600052602160045260246000fd5b610160810160068d106131ce577f4e487b7100000000000000000000000000000000000000000000000000000000600052602160045260246000fd5b9b815260ff9a909a1660208b015273ffffffffffffffffffffffffffffffffffffffff9890981660408a01526060890196909652608088019490945260a087019290925260c086015260e08501526101008401526101208301526101409091015290565b6000806020838503121561324557600080fd5b823567ffffffffffffffff81111561325c57600080fd5b61326885828601613041565b90969095509350505050565b600080600080600080600080610100898b03121561329157600080fd5b61329a89612f7c565b97506132a860208a01612f7c565b96506132b660408a01612f7c565b95506132c460608a01612f7c565b94506132d260808a01612f7c565b93506132e060a08a01612f7c565b92506132ee60c08a01612f7c565b915060e089013590509295985092959890939650565b60008060008060006080868803121561331c57600080fd5b85356006811061332b57600080fd5b9450602086013567ffffffffffffffff81111561334757600080fd5b61335388828901613041565b9699909850959660408101359660609091013595509350505050565b6000806000806060858703121561338557600080fd5b8435935060208501359250604085013567ffffffffffffffff808211156133ab57600080fd5b818701915087601f8301126133bf57600080fd5b8135818111156133ce57600080fd5b8860208260051b85010111156133e357600080fd5b95989497505060200194505050565b6000806000806000806080878903121561340b57600080fd5b86359550602087013567ffffffffffffffff8082111561342a57600080fd5b6134368a838b01613041565b9097509550604089013591508082111561344f57600080fd5b5061345c89828a01613041565b979a9699509497949695606090950135949350505050565b7f4e487b7100000000000000000000000000000000000000000000000000000000600052601160045260246000fd5b81810381811115612dcd57612dcd613474565b80820180821115612dcd57612dcd613474565b8082028115828204841417612dcd57612dcd613474565b600082613516577f4e487b7100000000000000000000000000000000000000000000000000000000600052601260045260246000fd5b500490565b8183528181602085013750600060208284010152600060207fffffffffffffffffffffffffffffffffffffffffffffffffffffffffffffffe0601f840116840101905092915050565b60208152600061357860208301848661351b565b949350505050565b60006020828403121561359257600080fd5b81518015158114612de157600080fd5b7f4e487b7100000000000000000000000000000000000000000000000000000000600052603260045260246000fd5b600181811c908216806135e557607f821691505b60208210810361361e577f4e487b7100000000000000000000000000000000000000000000000000000000600052602260045260246000fd5b50919050565b60008451613636818460208901612fc0565b7f2b00000000000000000000000000000000000000000000000000000000000000908301908152838560018301376000930160010192835250909392505050565b7f4e487b7100000000000000000000000000000000000000000000000000000000600052604160045260246000fd5b601f82111561137257600081815260208120601f850160051c810160208610156136cd5750805b601f850160051c820191505b818110156136ec578281556001016136d9565b505050505050565b815167ffffffffffffffff81111561370e5761370e613677565b6137228161371c84546135d1565b846136a6565b602080601f831160018114613775576000841561373f5750858301515b7fffffffffffffffffffffffffffffffffffffffffffffffffffffffffffffffff600386901b1c1916600185901b1785556136ec565b6000858152602081207fffffffffffffffffffffffffffffffffffffffffffffffffffffffffffffffe08616915b828110156137c2578886015182559484019460019091019084016137a3565b50858210156137fe57878501517fffffffffffffffffffffffffffffffffffffffffffffffffffffffffffffffff600388901b60f8161c191681555b5050505050600190811b01905550565b73ffffffffffffffffffffffffffffffffffffffff861681528460208201526080604082015260006138436080830186612fe4565b828103606084015261385681858761351b565b98975050505050505050565b60008251613874818460208701612fc0565b919091019291505056fea2646970667358221220cb3c413b48e5dbd81d139f918ddb28b7aa38d5b685aa37877c665024c817393c64736f6c63430008140033","linkReferences":{}},"methodIdentifiers":{"ADD_CHANNEL_MIN_FEES()":"c175256f","CHANNEL_POOL_FUNDS()":"e9f36598","CREATE_CHANNEL_TYPEHASH()":"f8ac8336","DOMAIN_TYPEHASH()":"20606b70","FEE_AMOUNT()":"ad5f1574","MIN_POOL_CONTRIBUTION()":"4def9ef2","PROTOCOL_POOL_FEES()":"270dd8a0","PUSH_TOKEN_ADDRESS()":"8cfbc3e0","REFERRAL_CODE()":"3583849a","UNISWAP_V2_ROUTER()":"a82ed9ec","WETH_ADDRESS()":"040141e5","aDaiAddress()":"098b2041","addPoolFees(uint256)":"d487e305","addSubGraph(bytes)":"8779904e","batchVerification(uint256,uint256,address[])":"c57acfe5","blockChannel(address)":"0d01c2d5","celebUserFunds(address)":"af809d09","channelById(uint256)":"f029c18c","channelNotifSettings(address)":"eea0b5c5","channelUpdateCounter(address)":"edd13959","channels(address)":"7dce34f7","channelsCount()":"55091fe5","claimChatIncentives(uint256)":"cdc43a4b","createChannelSettings(uint256,string,string,uint256)":"f01948c1","createChannelWithPUSH(uint8,bytes,uint256,uint256)":"a90521c3","daiAddress()":"2c387275","deactivateChannel()":"aba03325","destroyTimeBoundChannel(address)":"bd427203","epnsCommunicator()":"fc6b859b","epochDuration()":"4ff0876a","epochRewards(uint256)":"4dc47d34","epochToTotalStakedWeight(uint256)":"3ecaec8b","feePoolStakingContract()":"bc680515","genesisEpoch()":"b70e6be6","getChannelVerfication(address)":"843fdad3","governance()":"5aa6e675","groupFairShareCount()":"daa947f5","groupHistoricalZ()":"68a8e5b6","groupLastUpdate()":"110e01a8","groupNormalizedWeight()":"0ded7731","handleChatRequestData(address,address,uint256)":"2359600c","initialize(address,address,address,address,address,address,address,uint256)":"88301911","isMigrationComplete()":"d7128084","lendingPoolProviderAddress()":"6d1b6d46","name()":"06fdde03","nonces(address)":"7ecebe00","pauseContract()":"439766ce","paused()":"5c975abb","previouslySetEpochRewards()":"952b3331","pushChannelAdmin()":"bd90f815","reactivateChannel(uint256)":"2f00dfe0","sendFunds(address,uint256)":"6f64234e","setEpnsCommunicatorAddress(address)":"dfdbd358","setFeeAmount(uint256)":"6b392680","setGovernanceAddress(address)":"cfc16254","setMinChannelCreationFees(uint256)":"ec50b8e0","setMinPoolContribution(uint256)":"dc4e3571","totalStakedAmount()":"567e98f9","transferPushChannelAdminControl(address)":"017d5efe","unPauseContract()":"bac15203","unverifyChannel(address)":"99199642","updateChannelMeta(address,bytes,uint256)":"0d33a019","updateStakingAddress(address)":"5b06a1d1","userFeesInfo(address)":"954e5f61","usersRewardsClaimed(address)":"37a1b782","verifyChannel(address)":"908519db"},"id":8}