{"abi":[{"type":"function","name":"PUSH_TOKEN_ADDRESS","inputs":[],"outputs":[{"name":"","type":"address","internalType":"address"}],"stateMutability":"view"},{"type":"function","name":"calculateEpochRewards","inputs":[{"name":"_user","type":"address","internalType":"address"},{"name":"_epochId","type":"uint256","internalType":"uint256"}],"outputs":[{"name":"rewards","type":"uint256","internalType":"uint256"}],"stateMutability":"view"},{"type":"function","name":"core","inputs":[],"outputs":[{"name":"","type":"address","internalType":"address"}],"stateMutability":"view"},{"type":"function","name":"daoHarvestPaginated","inputs":[{"name":"_tillEpoch","type":"uint256","internalType":"uint256"}],"outputs":[],"stateMutability":"nonpayable"},{"type":"function","name":"epochDuration","inputs":[],"outputs":[{"name":"","type":"uint256","internalType":"uint256"}],"stateMutability":"view"},{"type":"function","name":"epochRewards","inputs":[{"name":"","type":"uint256","internalType":"uint256"}],"outputs":[{"name":"","type":"uint256","internalType":"uint256"}],"stateMutability":"view"},{"type":"function","name":"epochToTotalStakedWeight","inputs":[{"name":"","type":"uint256","internalType":"uint256"}],"outputs":[{"name":"","type":"uint256","internalType":"uint256"}],"stateMutability":"view"},{"type":"function","name":"genesisEpoch","inputs":[],"outputs":[{"name":"","type":"uint256","internalType":"uint256"}],"stateMutability":"view"},{"type":"function","name":"governance","inputs":[],"outputs":[{"name":"","type":"address","internalType":"address"}],"stateMutability":"view"},{"type":"function","name":"harvestAll","inputs":[],"outputs":[],"stateMutability":"nonpayable"},{"type":"function","name":"harvestPaginated","inputs":[{"name":"_tillEpoch","type":"uint256","internalType":"uint256"}],"outputs":[],"stateMutability":"nonpayable"},{"type":"function","name":"initialize","inputs":[{"name":"_pushChannelAdmin","type":"address","internalType":"address"},{"name":"_core","type":"address","internalType":"address"},{"name":"_pushToken","type":"address","internalType":"address"},{"name":"_genesisEpoch","type":"uint256","internalType":"uint256"},{"name":"_lastEpochInitialized","type":"uint256","internalType":"uint256"},{"name":"_lastTotalStakeEpochInitialized","type":"uint256","internalType":"uint256"},{"name":"_totalStakedAmount","type":"uint256","internalType":"uint256"},{"name":"_previouslySetEpochRewards","type":"uint256","internalType":"uint256"}],"outputs":[],"stateMutability":"nonpayable"},{"type":"function","name":"lastEpochRelative","inputs":[{"name":"_from","type":"uint256","internalType":"uint256"},{"name":"_to","type":"uint256","internalType":"uint256"}],"outputs":[{"name":"","type":"uint256","internalType":"uint256"}],"stateMutability":"pure"},{"type":"function","name":"migrateEpochDetails","inputs":[{"name":"_currentEpoch","type":"uint256","internalType":"uint256"},{"name":"_epochRewards","type":"uint256[]","internalType":"uint256[]"},{"name":"_epochToTotalStakedWeight","type":"uint256[]","internalType":"uint256[]"}],"outputs":[],"stateMutability":"nonpayable"},{"type":"function","name":"migrateUserData","inputs":[{"name":"start","type":"uint256","internalType":"uint256"},{"name":"end","type":"uint256","internalType":"uint256"},{"name":"_user","type":"address[]","internalType":"address[]"},{"name":"_stakedAmount","type":"uint256[]","internalType":"uint256[]"},{"name":"_stakedWeight","type":"uint256[]","internalType":"uint256[]"},{"name":"_lastStakedBlock","type":"uint256[]","internalType":"uint256[]"},{"name":"_lastClaimedBlock","type":"uint256[]","internalType":"uint256[]"}],"outputs":[],"stateMutability":"nonpayable"},{"type":"function","name":"migrateUserMappings","inputs":[{"name":"_epoch","type":"uint256","internalType":"uint256"},{"name":"startIndex","type":"uint256","internalType":"uint256"},{"name":"endIndex","type":"uint256","internalType":"uint256"},{"name":"_user","type":"address[]","internalType":"address[]"},{"name":"_epochToUserStakedWeight","type":"uint256[]","internalType":"uint256[]"},{"name":"_userRewardsClaimed","type":"uint256[]","internalType":"uint256[]"}],"outputs":[],"stateMutability":"nonpayable"},{"type":"function","name":"preserveVotingPower","inputs":[{"name":"_delegate","type":"address","internalType":"address"}],"outputs":[{"name":"_voteDelegator","type":"address","internalType":"contract PushVoteDelegator"}],"stateMutability":"nonpayable"},{"type":"function","name":"previouslySetEpochRewards","inputs":[],"outputs":[{"name":"","type":"uint256","internalType":"uint256"}],"stateMutability":"view"},{"type":"function","name":"pushChannelAdmin","inputs":[],"outputs":[{"name":"","type":"address","internalType":"address"}],"stateMutability":"view"},{"type":"function","name":"setGovernanceAddress","inputs":[{"name":"_governanceAddress","type":"address","internalType":"address"}],"outputs":[],"stateMutability":"nonpayable"},{"type":"function","name":"setMigrationComplete","inputs":[],"outputs":[],"stateMutability":"nonpayable"},{"type":"function","name":"stake","inputs":[{"name":"_amount","type":"uint256","internalType":"uint256"}],"outputs":[],"stateMutability":"nonpayable"},{"type":"function","name":"totalStakedAmount","inputs":[],"outputs":[{"name":"","type":"uint256","internalType":"uint256"}],"stateMutability":"view"},{"type":"function","name":"unstake","inputs":[],"outputs":[],"stateMutability":"nonpayable"},{"type":"function","name":"userFeesInfo","inputs":[{"name":"","type":"address","internalType":"address"}],"outputs":[{"name":"stakedAmount","type":"uint256","internalType":"uint256"},{"name":"stakedWeight","type":"uint256","internalType":"uint256"},{"name":"lastStakedBlock","type":"uint256","internalType":"uint256"},{"name":"lastClaimedBlock","type":"uint256","internalType":"uint256"}],"stateMutability":"view"},{"type":"function","name":"userVotesInfo","inputs":[{"name":"","type":"address","internalType":"address"}],"outputs":[{"name":"delegate","type":"address","internalType":"address"},{"name":"voteDelegator","type":"address","internalType":"contract PushVoteDelegator"}],"stateMutability":"view"},{"type":"function","name":"usersRewardsClaimed","inputs":[{"name":"","type":"address","internalType":"address"}],"outputs":[{"name":"","type":"uint256","internalType":"uint256"}],"stateMutability":"view"},{"type":"event","name":"Initialized","inputs":[{"name":"version","type":"uint64","indexed":false,"internalType":"uint64"}],"anonymous":false},{"type":"event","name":"RewardsHarvested","inputs":[{"name":"user","type":"address","indexed":true,"internalType":"address"},{"name":"rewardAmount","type":"uint256","indexed":true,"internalType":"uint256"},{"name":"fromEpoch","type":"uint256","indexed":false,"internalType":"uint256"},{"name":"tillEpoch","type":"uint256","indexed":false,"internalType":"uint256"}],"anonymous":false},{"type":"event","name":"Staked","inputs":[{"name":"user","type":"address","indexed":true,"internalType":"address"},{"name":"amountStaked","type":"uint256","indexed":true,"internalType":"uint256"}],"anonymous":false},{"type":"event","name":"Unstaked","inputs":[{"name":"user","type":"address","indexed":true,"internalType":"address"},{"name":"amountUnstaked","type":"uint256","indexed":true,"internalType":"uint256"}],"anonymous":false},{"type":"error","name":"AddressEmptyCode","inputs":[{"name":"target","type":"address","internalType":"address"}]},{"type":"error","name":"AddressInsufficientBalance","inputs":[{"name":"account","type":"address","internalType":"address"}]},{"type":"error","name":"CallerNotAdmin","inputs":[]},{"type":"error","name":"FailedInnerCall","inputs":[]},{"type":"error","name":"InvalidArg_ArrayLengthMismatch","inputs":[]},{"type":"error","name":"InvalidArg_LessThanExpected","inputs":[{"name":"min_threshold","type":"uint256","internalType":"uint256"},{"name":"actual_value","type":"uint256","internalType":"uint256"}]},{"type":"error","name":"InvalidArgument_WrongAddress","inputs":[{"name":"user","type":"address","internalType":"address"}]},{"type":"error","name":"InvalidInitialization","inputs":[]},{"type":"error","name":"NotInitializing","inputs":[]},{"type":"error","name":"PushStaking_InvalidEpoch_LessThanExpected","inputs":[]},{"type":"error","name":"PushStaking_MigrationCompleted","inputs":[]},{"type":"error","name":"SafeERC20FailedOperation","inputs":[{"name":"token","type":"address","internalType":"address"}]},{"type":"error","name":"UnauthorizedCaller","inputs":[{"name":"caller","type":"address","internalType":"address"}]}],"bytecode":{"object":"0x608060405234801561001057600080fd5b50612ac9806100206000396000f3fe60806040523480156200001157600080fd5b5060043610620001dd5760003560e01c80638d394972116200010d578063bd90f81511620000a3578063cfc16254116200007a578063cfc1625414620004b3578063dc4a4e4e14620004ca578063df8fa43014620004e1578063f2f4eb2614620004f857600080fd5b8063bd90f8151462000464578063bfaa887f1462000485578063c048799b146200049c57600080fd5b8063952b333111620000e4578063952b333114620003e0578063954e5f6114620003ea578063a694fc3a1462000443578063b70e6be6146200045a57600080fd5b80638d394972146200035a5780638ed955b9146200036457806390f739ba146200036e57600080fd5b80634dc47d341162000183578063572cdb25116200015a578063572cdb2514620002c45780635aa6e67514620002db5780637b704b0214620003225780638cfbc3e0146200033957600080fd5b80634dc47d34146200028c5780634ff0876a14620002af578063567e98f914620002ba57600080fd5b80632def662011620001b85780632def6620146200022957806337a1b78214620002335780633ecaec8b146200026957600080fd5b8063035d42b014620001e2578063185e1a6a14620001fb57806321f45ca61462000212575b600080fd5b620001f9620001f336600462002260565b62000519565b005b620001f96200020c36600462002260565b620005b8565b620001f962000223366004620022c9565b62000632565b620001f96200091a565b620002566200024436600462002429565b60006020819052908152604090205481565b6040519081526020015b60405180910390f35b620002566200027a36600462002260565b600c6020526000908152604090205481565b620002566200029d36600462002260565b600a6020526000908152604090205481565b6200025662024b0481565b6200025660045481565b620001f9620002d536600462002447565b62000b2f565b600854620002fc9073ffffffffffffffffffffffffffffffffffffffff1681565b60405173ffffffffffffffffffffffffffffffffffffffff909116815260200162000260565b620001f962000333366004620025fc565b62000d24565b600754620002fc9073ffffffffffffffffffffffffffffffffffffffff1681565b620001f962000e9c565b620001f962000f1b565b620003b26200037f36600462002429565b600e602052600090815260409020805460019091015473ffffffffffffffffffffffffffffffffffffffff918216911682565b6040805173ffffffffffffffffffffffffffffffffffffffff93841681529290911660208301520162000260565b6200025660055481565b62000422620003fb36600462002429565b600b6020526000908152604090208054600182015460028301546003909301549192909184565b60408051948552602085019390935291830152606082015260800162000260565b620001f96200045436600462002260565b62000f47565b6200025660015481565b600654620002fc9073ffffffffffffffffffffffffffffffffffffffff1681565b620002fc6200049636600462002429565b62000f83565b62000256620004ad36600462002670565b620011be565b620001f9620004c436600462002429565b62001238565b62000256620004db36600462002693565b620012d1565b620001f9620004f2366004620026c0565b62001331565b600954620002fc9073ffffffffffffffffffffffffffffffffffffffff1681565b6000620005273383620015db565b6009546040517f6f64234e0000000000000000000000000000000000000000000000000000000081523360048201526024810183905291925073ffffffffffffffffffffffffffffffffffffffff1690636f64234e90604401600060405180830381600087803b1580156200059b57600080fd5b505af1158015620005b0573d6000803e3d6000fd5b505050505050565b60085473ffffffffffffffffffffffffffffffffffffffff1633146200060a576040517f06d919f200000000000000000000000000000000000000000000000000000000815260040160405180910390fd5b600954600090620005279073ffffffffffffffffffffffffffffffffffffffff1683620015db565b60065473ffffffffffffffffffffffffffffffffffffffff16331462000684576040517f06d919f200000000000000000000000000000000000000000000000000000000815260040160405180910390fd5b600d5460ff1615620006c2576040517f69c5e82900000000000000000000000000000000000000000000000000000000815260040160405180910390fd5b8887141580620006d25750888514155b80620006de5750888314155b80620006ea5750888114155b1562000722576040517f7a6f77ec00000000000000000000000000000000000000000000000000000000815260040160405180910390fd5b8b5b8b8110156200090b5788888281811062000742576200074262002738565b90506020020135600b60008d8d8581811062000762576200076262002738565b905060200201602081019062000779919062002429565b73ffffffffffffffffffffffffffffffffffffffff168152602081019190915260400160002055868682818110620007b557620007b562002738565b90506020020135600b60008d8d85818110620007d557620007d562002738565b9050602002016020810190620007ec919062002429565b73ffffffffffffffffffffffffffffffffffffffff1681526020810191909152604001600020600101558484828181106200082b576200082b62002738565b90506020020135600b60008d8d858181106200084b576200084b62002738565b905060200201602081019062000862919062002429565b73ffffffffffffffffffffffffffffffffffffffff168152602081019190915260400160002060020155828282818110620008a157620008a162002738565b90506020020135600b60008d8d85818110620008c157620008c162002738565b9050602002016020810190620008d8919062002429565b73ffffffffffffffffffffffffffffffffffffffff16815260208101919091526040016000206003015560010162000724565b50505050505050505050505050565b336000908152600b60205260409020600201546200093d9062024b049062002796565b431162000976576040517f2c44f48000000000000000000000000000000000000000000000000000000000815260040160405180910390fd5b336000908152600b60205260408120549003620009c6576040517fd86ad9cf0000000000000000000000000000000000000000000000000000000081523360048201526024015b60405180910390fd5b620009d062000f1b565b336000908152600b6020908152604080832054600e9092529091206001015473ffffffffffffffffffffffffffffffffffffffff16801562000a1f5762000a198133846200186c565b62000aac565b6009546040517f6f64234e0000000000000000000000000000000000000000000000000000000081523360048201526024810184905273ffffffffffffffffffffffffffffffffffffffff90911690636f64234e90604401600060405180830381600087803b15801562000a9257600080fd5b505af115801562000aa7573d6000803e3d6000fd5b505050505b336000818152600b6020526040902060019081015462000acd929162001898565b336000908152600b602052604081208181556001018190556004805484929062000af9908490620027ac565b9091555050604051829033907f0f5bb82176feb1b5e747e28471aa92156a04d9f3ab9f45f28e2d704232b93f7590600090a35050565b60065473ffffffffffffffffffffffffffffffffffffffff16331462000b81576040517f06d919f200000000000000000000000000000000000000000000000000000000815260040160405180910390fd5b600d5460ff161562000bbf576040517f69c5e82900000000000000000000000000000000000000000000000000000000815260040160405180910390fd5b848314158062000bcf5750848114155b1562000c07576040517f7a6f77ec00000000000000000000000000000000000000000000000000000000815260040160405180910390fd5b875b8781101562000d185784848281811062000c275762000c2762002738565b90506020020135600b600089898581811062000c475762000c4762002738565b905060200201602081019062000c5e919062002429565b73ffffffffffffffffffffffffffffffffffffffff168152602080820192909252604090810160009081208e8252600401909252902055811562000d0f5782828281811062000cb15762000cb162002738565b9050602002013560008089898581811062000cd05762000cd062002738565b905060200201602081019062000ce7919062002429565b73ffffffffffffffffffffffffffffffffffffffff1681526020810191909152604001600020555b60010162000c09565b50505050505050505050565b60065473ffffffffffffffffffffffffffffffffffffffff16331462000d76576040517f06d919f200000000000000000000000000000000000000000000000000000000815260040160405180910390fd5b600d5460ff161562000db4576040517f69c5e82900000000000000000000000000000000000000000000000000000000815260040160405180910390fd5b81518314158062000dc6575080518314155b1562000dfe576040517f7a6f77ec00000000000000000000000000000000000000000000000000000000815260040160405180910390fd5b60005b8381101562000e965782818151811062000e1f5762000e1f62002738565b6020026020010151600a600083600162000e3a919062002796565b81526020019081526020016000208190555081818151811062000e615762000e6162002738565b6020026020010151600c600083600162000e7c919062002796565b815260208101919091526040016000205560010162000e01565b50505050565b60065473ffffffffffffffffffffffffffffffffffffffff16331462000eee576040517f06d919f200000000000000000000000000000000000000000000000000000000815260040160405180910390fd5b600d80547fffffffffffffffffffffffffffffffffffffffffffffffffffffffffffffff00166001179055565b600062000f2b60015443620011be565b90506000620005273362000f41600185620027ac565b620015db565b62000f53338262001ab2565b604051819033907f9e71bc8eea02a63969f509818f2dafb9254532904319f9dbda79b67bd34a5f3d90600090a350565b336000908152600b6020526040812054810362000fcf576040517fd86ad9cf000000000000000000000000000000000000000000000000000000008152336004820152602401620009bd565b73ffffffffffffffffffffffffffffffffffffffff821662001036576040517f3e1378c100000000000000000000000000000000000000000000000000000000815273ffffffffffffffffffffffffffffffffffffffff83166004820152602401620009bd565b50336000908152600b60209081526040808320600e909252909120600181015473ffffffffffffffffffffffffffffffffffffffff16919082620011275760075460405173ffffffffffffffffffffffffffffffffffffffff909116908590620010a09062002252565b73ffffffffffffffffffffffffffffffffffffffff928316815291166020820152604001604051809103906000f080158015620010e1573d6000803e3d6000fd5b506001820180547fffffffffffffffffffffffff00000000000000000000000000000000000000001673ffffffffffffffffffffffffffffffffffffffff831617905592505b60095482546040517f6f64234e00000000000000000000000000000000000000000000000000000000815273ffffffffffffffffffffffffffffffffffffffff86811660048301526024820192909252911690636f64234e90604401600060405180830381600087803b1580156200119e57600080fd5b505af1158015620011b3573d6000803e3d6000fd5b505050505050919050565b60008282101562001206576040517f2d93586c0000000000000000000000000000000000000000000000000000000081526004810184905260248101839052604401620009bd565b62024b04620012168484620027ac565b620012229190620027c2565b6200122f90600162002796565b90505b92915050565b60065473ffffffffffffffffffffffffffffffffffffffff1633146200128a576040517f06d919f200000000000000000000000000000000000000000000000000000000815260040160405180910390fd5b600880547fffffffffffffffffffffffff00000000000000000000000000000000000000001673ffffffffffffffffffffffffffffffffffffffff92909216919091179055565b6000818152600c6020908152604080832054600a83528184205473ffffffffffffffffffffffffffffffffffffffff87168552600b84528285208686526004019093529083205490916200132591620027fe565b6200122f9190620027c2565b7ff0c57e16840df040f15088dc2f81fe391c3923bec73e23a9662efc9c229c6a00805468010000000000000000810460ff16159067ffffffffffffffff166000811580156200137d5750825b905060008267ffffffffffffffff1660011480156200139b5750303b155b905081158015620013aa575080155b15620013e2576040517ff92ee8a900000000000000000000000000000000000000000000000000000000815260040160405180910390fd5b84547fffffffffffffffffffffffffffffffffffffffffffffffff00000000000000001660011785558315620014445784547fffffffffffffffffffffffffffffffffffffffffffffff00ffffffffffffffff16680100000000000000001785555b8c600660006101000a81548173ffffffffffffffffffffffffffffffffffffffff021916908373ffffffffffffffffffffffffffffffffffffffff1602179055508c600860006101000a81548173ffffffffffffffffffffffffffffffffffffffff021916908373ffffffffffffffffffffffffffffffffffffffff1602179055508b600960006101000a81548173ffffffffffffffffffffffffffffffffffffffff021916908373ffffffffffffffffffffffffffffffffffffffff1602179055508a600760006101000a81548173ffffffffffffffffffffffffffffffffffffffff021916908373ffffffffffffffffffffffffffffffffffffffff160217905550896001819055508860028190555087600381905550866004819055508560058190555083156200090b5784547fffffffffffffffffffffffffffffffffffffffffffffff00ffffffffffffffff168555604051600181527fc7f505b2f371ae2175ee4913f4499e1f2633a7b5936321eed1cdaeb6115181d29060200160405180910390a150505050505050505050505050565b6007546040517ff18365d900000000000000000000000000000000000000000000000000000000815273ffffffffffffffffffffffffffffffffffffffff8481166004830152600092169063f18365d990602401600060405180830381600087803b1580156200164a57600080fd5b505af11580156200165f573d6000803e3d6000fd5b50505050620016718360008062001898565b60006200168160015443620011be565b60015473ffffffffffffffffffffffffffffffffffffffff86166000908152600b602052604081206003015492935091620016bd9190620011be565b9050838211620016f9576040517f2c44f48000000000000000000000000000000000000000000000000000000000815260040160405180910390fd5b808410156200173f576040517f2d93586c0000000000000000000000000000000000000000000000000000000081526004810182905260248101859052604401620009bd565b805b8481116200177e576000620017578783620012d1565b905062001765818662002796565b9450508080620017759062002818565b91505062001741565b5073ffffffffffffffffffffffffffffffffffffffff8516600090815260208190526040902054620017b290849062002796565b73ffffffffffffffffffffffffffffffffffffffff8616600090815260208190526040812091909155620017ea62024b0486620027fe565b600154620017f9919062002796565b73ffffffffffffffffffffffffffffffffffffffff87166000818152600b6020908152604091829020600301849055815186815290810189905292935086927f57f92f16fa09c9e4bb565a3d9d987c04877f97eb9067730674bb415730aaa652910160405180910390a350505092915050565b600754620018939073ffffffffffffffffffffffffffffffffffffffff1684848462001c55565b505050565b6000620018a860015443620011be565b9050620018b783828462001cec565b73ffffffffffffffffffffffffffffffffffffffff84166000908152600b6020526040812060010154908190036200191a5773ffffffffffffffffffffffffffffffffffffffff85166000908152600b6020526040902060010184905562001a77565b60015473ffffffffffffffffffffffffffffffffffffffff86166000908152600b602052604081206002015490916200195391620011be565b9050808303620019b0578362001975576200196f858362002796565b62001981565b620019818583620027ac565b73ffffffffffffffffffffffffffffffffffffffff87166000908152600b602052604090206001015562001a75565b805b83811162001a7357838114620019fe5773ffffffffffffffffffffffffffffffffffffffff87166000908152600b60209081526040808320848452600401909152902083905562001a5e565b8462001a165762001a10868462002796565b62001a22565b62001a228684620027ac565b73ffffffffffffffffffffffffffffffffffffffff88166000908152600b60209081526040808320600181018590558584526004019091529020555b8062001a6a8162002818565b915050620019b2565b505b505b831562001aab5773ffffffffffffffffffffffffffffffffffffffff85166000908152600b60205260409020436002909101555b5050505050565b600062001ac260015443620011be565b9050600062001ad58262024b04620027fe565b60015462001ae4919062002796565b9050600062001af585858462001f8b565b336000908152600e602052604090206001015490915073ffffffffffffffffffffffffffffffffffffffff16801562001b3b5762001b353382876200186c565b62001b69565b60095460075462001b699173ffffffffffffffffffffffffffffffffffffffff918216913391168862001c55565b73ffffffffffffffffffffffffffffffffffffffff86166000908152600b602052604090205462001b9c90869062002796565b73ffffffffffffffffffffffffffffffffffffffff87166000908152600b60205260409020908155600301541562001bfd5773ffffffffffffffffffffffffffffffffffffffff86166000908152600b602052604090206003015462001c01565b6001545b73ffffffffffffffffffffffffffffffffffffffff87166000908152600b60205260408120600301919091556004805487929062001c4190849062002796565b90915550620005b090508683600062001898565b6040805173ffffffffffffffffffffffffffffffffffffffff85811660248301528416604482015260648082018490528251808303909101815260849091019091526020810180517bffffffffffffffffffffffffffffffffffffffffffffffffffffffff167f23b872dd0000000000000000000000000000000000000000000000000000000017905262000e9690859062002045565b600062001cfe600154600254620011be565b90508083118062001d0f5750826001145b1562001e4957600954604080517f270dd8a0000000000000000000000000000000000000000000000000000000008152905160009273ffffffffffffffffffffffffffffffffffffffff169163270dd8a09160048083019260209291908290030181865afa15801562001d86573d6000803e3d6000fd5b505050506040513d601f19601f8201168201806040525081019062001dac919062002853565b905060006005548262001dc09190620027ac565b9050600062001dd08487620027ac565b9050600181111562001e195781600a600062001dee60018a620027ac565b8152602001908152602001600020600082825462001e0d919062002796565b9091555062001e3f9050565b6000868152600a60205260408120805484929062001e3990849062002796565b90915550505b5050436002556005555b600354158062001e5a575082600354145b1562001eb9578162001e88576000838152600c602052604090205462001e8290859062002796565b62001ea4565b6000838152600c602052604090205462001ea4908590620027ac565b6000848152600c602052604090205562001f83565b6000600354600162001ecc919062002796565b90505b62001edc600185620027ac565b811162001f28576000818152600c6020526040812054900362001f13576003546000908152600c6020526040808220548383529120555b8062001f1f8162002818565b91505062001ecf565b508162001f54576003546000908152600c602052604090205462001f4e90859062002796565b62001f73565b6003546000908152600c602052604090205462001f73908590620027ac565b6000848152600c60205260409020555b505060035550565b6007546040517f51b0718000000000000000000000000000000000000000000000000000000000815273ffffffffffffffffffffffffffffffffffffffff858116600483015260009216906351b0718090602401602060405180830381865afa15801562001ffd573d6000803e3d6000fd5b505050506040513d601f19601f8201168201806040525081019062002023919062002853565b6200202f9083620027ac565b6200203b9084620027fe565b90505b9392505050565b60006200206973ffffffffffffffffffffffffffffffffffffffff841683620020e2565b90508051600014158015620020915750808060200190518101906200208f91906200286d565b155b1562001893576040517f5274afe700000000000000000000000000000000000000000000000000000000815273ffffffffffffffffffffffffffffffffffffffff84166004820152602401620009bd565b60606200122f83836000846000808573ffffffffffffffffffffffffffffffffffffffff16848660405162002118919062002891565b60006040518083038185875af1925050503d806000811462002157576040519150601f19603f3d011682016040523d82523d6000602084013e6200215c565b606091505b50915091506200216e86838362002178565b9695505050505050565b60608262002191576200218b826200220f565b6200203e565b8151158015620021b6575073ffffffffffffffffffffffffffffffffffffffff84163b155b1562002207576040517f9996b31500000000000000000000000000000000000000000000000000000000815273ffffffffffffffffffffffffffffffffffffffff85166004820152602401620009bd565b50806200203e565b805115620022205780518082602001fd5b6040517f1425ea4200000000000000000000000000000000000000000000000000000000815260040160405180910390fd5b6101d180620028c383390190565b6000602082840312156200227357600080fd5b5035919050565b60008083601f8401126200228d57600080fd5b50813567ffffffffffffffff811115620022a657600080fd5b6020830191508360208260051b8501011115620022c257600080fd5b9250929050565b60008060008060008060008060008060008060e08d8f031215620022ec57600080fd5b8c359b5060208d01359a5067ffffffffffffffff60408e013511156200231157600080fd5b620023238e60408f01358f016200227a565b909a50985067ffffffffffffffff60608e013511156200234257600080fd5b620023548e60608f01358f016200227a565b909850965067ffffffffffffffff60808e013511156200237357600080fd5b620023858e60808f01358f016200227a565b909650945067ffffffffffffffff60a08e01351115620023a457600080fd5b620023b68e60a08f01358f016200227a565b909450925067ffffffffffffffff60c08e01351115620023d557600080fd5b620023e78e60c08f01358f016200227a565b81935080925050509295989b509295989b509295989b565b803573ffffffffffffffffffffffffffffffffffffffff811681146200242457600080fd5b919050565b6000602082840312156200243c57600080fd5b6200122f82620023ff565b600080600080600080600080600060c08a8c0312156200246657600080fd5b8935985060208a0135975060408a0135965060608a013567ffffffffffffffff808211156200249457600080fd5b620024a28d838e016200227a565b909850965060808c0135915080821115620024bc57600080fd5b620024ca8d838e016200227a565b909650945060a08c0135915080821115620024e457600080fd5b50620024f38c828d016200227a565b915080935050809150509295985092959850929598565b7f4e487b7100000000000000000000000000000000000000000000000000000000600052604160045260246000fd5b600082601f8301126200254b57600080fd5b8135602067ffffffffffffffff808311156200256b576200256b6200250a565b8260051b6040517fffffffffffffffffffffffffffffffffffffffffffffffffffffffffffffffe0603f83011681018181108482111715620025b157620025b16200250a565b604052938452858101830193838101925087851115620025d057600080fd5b83870191505b84821015620025f157813583529183019190830190620025d6565b979650505050505050565b6000806000606084860312156200261257600080fd5b83359250602084013567ffffffffffffffff808211156200263257600080fd5b620026408783880162002539565b935060408601359150808211156200265757600080fd5b50620026668682870162002539565b9150509250925092565b600080604083850312156200268457600080fd5b50508035926020909101359150565b60008060408385031215620026a757600080fd5b620026b283620023ff565b946020939093013593505050565b600080600080600080600080610100898b031215620026de57600080fd5b620026e989620023ff565b9750620026f960208a01620023ff565b96506200270960408a01620023ff565b979a96995096976060810135975060808101359660a0820135965060c0820135955060e0909101359350915050565b7f4e487b7100000000000000000000000000000000000000000000000000000000600052603260045260246000fd5b7f4e487b7100000000000000000000000000000000000000000000000000000000600052601160045260246000fd5b8082018082111562001232576200123262002767565b8181038181111562001232576200123262002767565b600082620027f9577f4e487b7100000000000000000000000000000000000000000000000000000000600052601260045260246000fd5b500490565b808202811582820484141762001232576200123262002767565b60007fffffffffffffffffffffffffffffffffffffffffffffffffffffffffffffffff82036200284c576200284c62002767565b5060010190565b6000602082840312156200286657600080fd5b5051919050565b6000602082840312156200288057600080fd5b815180151581146200203e57600080fd5b6000825160005b81811015620028b4576020818601810151858301520162002898565b50600092019182525091905056fe608060405234801561001057600080fd5b506040516101d13803806101d183398101604081905261002f91610121565b6040516317066a5760e21b81526001600160a01b038281166004830152831690635c19a95c90602401600060405180830381600087803b15801561007257600080fd5b505af1158015610086573d6000803e3d6000fd5b505060405163095ea7b360e01b81523360048201526001600160601b0360248201526001600160a01b038516925063095ea7b391506044016020604051808303816000875af11580156100dd573d6000803e3d6000fd5b505050506040513d601f19601f82011682018060405250810190610101919061015b565b505050610184565b6001600160a01b038116811461011e57600080fd5b50565b6000806040838503121561013457600080fd5b825161013f81610109565b602084015190925061015081610109565b809150509250929050565b60006020828403121561016d57600080fd5b8151801515811461017d57600080fd5b9392505050565b603f806101926000396000f3fe6080604052600080fdfea26469706673582212203d6392eff0c9297a88e9eeb98175fee698f5a3997fe62a547129af5dfc6f5c4764736f6c63430008140033a2646970667358221220b6c83e7acd350ca71c62934a0fd5953ed483c2fa4cdaa0ad164bb698d7b0d4d864736f6c63430008140033","linkReferences":{}},"methodIdentifiers":{"PUSH_TOKEN_ADDRESS()":"8cfbc3e0","calculateEpochRewards(address,uint256)":"dc4a4e4e","core()":"f2f4eb26","daoHarvestPaginated(uint256)":"185e1a6a","epochDuration()":"4ff0876a","epochRewards(uint256)":"4dc47d34","epochToTotalStakedWeight(uint256)":"3ecaec8b","genesisEpoch()":"b70e6be6","governance()":"5aa6e675","harvestAll()":"8ed955b9","harvestPaginated(uint256)":"035d42b0","initialize(address,address,address,uint256,uint256,uint256,uint256,uint256)":"df8fa430","lastEpochRelative(uint256,uint256)":"c048799b","migrateEpochDetails(uint256,uint256[],uint256[])":"7b704b02","migrateUserData(uint256,uint256,address[],uint256[],uint256[],uint256[],uint256[])":"21f45ca6","migrateUserMappings(uint256,uint256,uint256,address[],uint256[],uint256[])":"572cdb25","preserveVotingPower(address)":"bfaa887f","previouslySetEpochRewards()":"952b3331","pushChannelAdmin()":"bd90f815","setGovernanceAddress(address)":"cfc16254","setMigrationComplete()":"8d394972","stake(uint256)":"a694fc3a","totalStakedAmount()":"567e98f9","unstake()":"2def6620","userFeesInfo(address)":"954e5f61","userVotesInfo(address)":"90f739ba","usersRewardsClaimed(address)":"37a1b782"},"id":9}