{"abi":[{"type":"function","name":"PUSH_TOKEN_ADDRESS","inputs":[],"outputs":[{"name":"","type":"address","internalType":"address"}],"stateMutability":"view"},{"type":"function","name":"core","inputs":[],"outputs":[{"name":"","type":"address","internalType":"address"}],"stateMutability":"view"},{"type":"function","name":"epochDuration","inputs":[],"outputs":[{"name":"","type":"uint256","internalType":"uint256"}],"stateMutability":"view"},{"type":"function","name":"epochRewards","inputs":[{"name":"","type":"uint256","internalType":"uint256"}],"outputs":[{"name":"","type":"uint256","internalType":"uint256"}],"stateMutability":"view"},{"type":"function","name":"epochToTotalStakedWeight","inputs":[{"name":"","type":"uint256","internalType":"uint256"}],"outputs":[{"name":"","type":"uint256","internalType":"uint256"}],"stateMutability":"view"},{"type":"function","name":"genesisEpoch","inputs":[],"outputs":[{"name":"","type":"uint256","internalType":"uint256"}],"stateMutability":"view"},{"type":"function","name":"governance","inputs":[],"outputs":[{"name":"","type":"address","internalType":"address"}],"stateMutability":"view"},{"type":"function","name":"previouslySetEpochRewards","inputs":[],"outputs":[{"name":"","type":"uint256","internalType":"uint256"}],"stateMutability":"view"},{"type":"function","name":"pushChannelAdmin","inputs":[],"outputs":[{"name":"","type":"address","internalType":"address"}],"stateMutability":"view"},{"type":"function","name":"totalStakedAmount","inputs":[],"outputs":[{"name":"","type":"uint256","internalType":"uint256"}],"stateMutability":"view"},{"type":"function","name":"userFeesInfo","inputs":[{"name":"","type":"address","internalType":"address"}],"outputs":[{"name":"stakedAmount","type":"uint256","internalType":"uint256"},{"name":"stakedWeight","type":"uint256","internalType":"uint256"},{"name":"lastStakedBlock","type":"uint256","internalType":"uint256"},{"name":"lastClaimedBlock","type":"uint256","internalType":"uint256"}],"stateMutability":"view"},{"type":"function","name":"usersRewardsClaimed","inputs":[{"name":"","type":"address","internalType":"address"}],"outputs":[{"name":"","type":"uint256","internalType":"uint256"}],"stateMutability":"view"}],"bytecode":{"object":"0x608060405234801561001057600080fd5b506102f7806100206000396000f3fe608060405234801561001057600080fd5b50600436106100d45760003560e01c80638cfbc3e011610081578063b70e6be61161005b578063b70e6be614610222578063bd90f8151461022b578063f2f4eb261461024b57600080fd5b80638cfbc3e0146101a4578063952b3331146101c4578063954e5f61146101cd57600080fd5b80634ff0876a116100b25780634ff0876a1461014c578063567e98f9146101565780635aa6e6751461015f57600080fd5b806337a1b782146100d95780633ecaec8b1461010c5780634dc47d341461012c575b600080fd5b6100f96100e736600461026b565b60006020819052908152604090205481565b6040519081526020015b60405180910390f35b6100f961011a3660046102a8565b600c6020526000908152604090205481565b6100f961013a3660046102a8565b600a6020526000908152604090205481565b6100f962024b0481565b6100f960045481565b60085461017f9073ffffffffffffffffffffffffffffffffffffffff1681565b60405173ffffffffffffffffffffffffffffffffffffffff9091168152602001610103565b60075461017f9073ffffffffffffffffffffffffffffffffffffffff1681565b6100f960055481565b6102026101db36600461026b565b600b6020526000908152604090208054600182015460028301546003909301549192909184565b604080519485526020850193909352918301526060820152608001610103565b6100f960015481565b60065461017f9073ffffffffffffffffffffffffffffffffffffffff1681565b60095461017f9073ffffffffffffffffffffffffffffffffffffffff1681565b60006020828403121561027d57600080fd5b813573ffffffffffffffffffffffffffffffffffffffff811681146102a157600080fd5b9392505050565b6000602082840312156102ba57600080fd5b503591905056fea2646970667358221220abaac09579e3d82b6a81d3b021144e50f568a7fb462c4876b245a17155e4565d64736f6c63430008140033","linkReferences":{}},"methodIdentifiers":{"PUSH_TOKEN_ADDRESS()":"8cfbc3e0","core()":"f2f4eb26","epochDuration()":"4ff0876a","epochRewards(uint256)":"4dc47d34","epochToTotalStakedWeight(uint256)":"3ecaec8b","genesisEpoch()":"b70e6be6","governance()":"5aa6e675","previouslySetEpochRewards()":"952b3331","pushChannelAdmin()":"bd90f815","totalStakedAmount()":"567e98f9","userFeesInfo(address)":"954e5f61","usersRewardsClaimed(address)":"37a1b782"},"id":19}