{"abi":[{"type":"function","name":"ADD_CHANNEL_MIN_FEES","inputs":[],"outputs":[{"name":"","type":"uint256","internalType":"uint256"}],"stateMutability":"view"},{"type":"function","name":"CHANNEL_POOL_FUNDS","inputs":[],"outputs":[{"name":"","type":"uint256","internalType":"uint256"}],"stateMutability":"view"},{"type":"function","name":"CREATE_CHANNEL_TYPEHASH","inputs":[],"outputs":[{"name":"","type":"bytes32","internalType":"bytes32"}],"stateMutability":"view"},{"type":"function","name":"DOMAIN_TYPEHASH","inputs":[],"outputs":[{"name":"","type":"bytes32","internalType":"bytes32"}],"stateMutability":"view"},{"type":"function","name":"FEE_AMOUNT","inputs":[],"outputs":[{"name":"","type":"uint256","internalType":"uint256"}],"stateMutability":"view"},{"type":"function","name":"MIN_POOL_CONTRIBUTION","inputs":[],"outputs":[{"name":"","type":"uint256","internalType":"uint256"}],"stateMutability":"view"},{"type":"function","name":"PROTOCOL_POOL_FEES","inputs":[],"outputs":[{"name":"","type":"uint256","internalType":"uint256"}],"stateMutability":"view"},{"type":"function","name":"PUSH_TOKEN_ADDRESS","inputs":[],"outputs":[{"name":"","type":"address","internalType":"address"}],"stateMutability":"view"},{"type":"function","name":"REFERRAL_CODE","inputs":[],"outputs":[{"name":"","type":"uint256","internalType":"uint256"}],"stateMutability":"view"},{"type":"function","name":"UNISWAP_V2_ROUTER","inputs":[],"outputs":[{"name":"","type":"address","internalType":"address"}],"stateMutability":"view"},{"type":"function","name":"WETH_ADDRESS","inputs":[],"outputs":[{"name":"","type":"address","internalType":"address"}],"stateMutability":"view"},{"type":"function","name":"aDaiAddress","inputs":[],"outputs":[{"name":"","type":"address","internalType":"address"}],"stateMutability":"view"},{"type":"function","name":"arbitraryReqFees","inputs":[{"name":"","type":"address","internalType":"address"}],"outputs":[{"name":"","type":"uint256","internalType":"uint256"}],"stateMutability":"view"},{"type":"function","name":"celebUserFunds","inputs":[{"name":"","type":"address","internalType":"address"}],"outputs":[{"name":"","type":"uint256","internalType":"uint256"}],"stateMutability":"view"},{"type":"function","name":"channelById","inputs":[{"name":"","type":"uint256","internalType":"uint256"}],"outputs":[{"name":"","type":"address","internalType":"address"}],"stateMutability":"view"},{"type":"function","name":"channelInfo","inputs":[{"name":"","type":"bytes32","internalType":"bytes32"}],"outputs":[{"name":"channelType","type":"uint8","internalType":"enum CoreTypes.ChannelType"},{"name":"channelState","type":"uint8","internalType":"uint8"},{"name":"verifiedBy","type":"address","internalType":"address"},{"name":"poolContribution","type":"uint256","internalType":"uint256"},{"name":"channelHistoricalZ","type":"uint256","internalType":"uint256"},{"name":"channelFairShareCount","type":"uint256","internalType":"uint256"},{"name":"channelLastUpdate","type":"uint256","internalType":"uint256"},{"name":"channelStartBlock","type":"uint256","internalType":"uint256"},{"name":"channelUpdateBlock","type":"uint256","internalType":"uint256"},{"name":"channelWeight","type":"uint256","internalType":"uint256"},{"name":"expiryTime","type":"uint256","internalType":"uint256"}],"stateMutability":"view"},{"type":"function","name":"channelNotifSettings","inputs":[{"name":"","type":"address","internalType":"address"}],"outputs":[{"name":"","type":"string","internalType":"string"}],"stateMutability":"view"},{"type":"function","name":"channelUpdateCounter","inputs":[{"name":"","type":"bytes32","internalType":"bytes32"}],"outputs":[{"name":"","type":"uint256","internalType":"uint256"}],"stateMutability":"view"},{"type":"function","name":"channels","inputs":[{"name":"","type":"address","internalType":"address"}],"outputs":[{"name":"channelType","type":"uint8","internalType":"enum CoreTypes.ChannelType"},{"name":"channelState","type":"uint8","internalType":"uint8"},{"name":"verifiedBy","type":"address","internalType":"address"},{"name":"poolContribution","type":"uint256","internalType":"uint256"},{"name":"channelHistoricalZ","type":"uint256","internalType":"uint256"},{"name":"channelFairShareCount","type":"uint256","internalType":"uint256"},{"name":"channelLastUpdate","type":"uint256","internalType":"uint256"},{"name":"channelStartBlock","type":"uint256","internalType":"uint256"},{"name":"channelUpdateBlock","type":"uint256","internalType":"uint256"},{"name":"channelWeight","type":"uint256","internalType":"uint256"},{"name":"expiryTime","type":"uint256","internalType":"uint256"}],"stateMutability":"view"},{"type":"function","name":"channelsCount","inputs":[],"outputs":[{"name":"","type":"uint256","internalType":"uint256"}],"stateMutability":"view"},{"type":"function","name":"createChannelWithPUSH","inputs":[{"name":"_channelType","type":"uint8","internalType":"enum CoreTypes.ChannelType"},{"name":"_identity","type":"bytes","internalType":"bytes"},{"name":"_amount","type":"uint256","internalType":"uint256"},{"name":"_channelExpiryTime","type":"uint256","internalType":"uint256"}],"outputs":[],"stateMutability":"nonpayable"},{"type":"function","name":"daiAddress","inputs":[],"outputs":[{"name":"","type":"address","internalType":"address"}],"stateMutability":"view"},{"type":"function","name":"epnsCommunicator","inputs":[],"outputs":[{"name":"","type":"address","internalType":"address"}],"stateMutability":"view"},{"type":"function","name":"epochDuration","inputs":[],"outputs":[{"name":"","type":"uint256","internalType":"uint256"}],"stateMutability":"view"},{"type":"function","name":"epochRewards","inputs":[{"name":"","type":"uint256","internalType":"uint256"}],"outputs":[{"name":"","type":"uint256","internalType":"uint256"}],"stateMutability":"view"},{"type":"function","name":"epochToTotalStakedWeight","inputs":[{"name":"","type":"uint256","internalType":"uint256"}],"outputs":[{"name":"","type":"uint256","internalType":"uint256"}],"stateMutability":"view"},{"type":"function","name":"feePoolStakingContract","inputs":[],"outputs":[{"name":"","type":"address","internalType":"address"}],"stateMutability":"view"},{"type":"function","name":"genesisEpoch","inputs":[],"outputs":[{"name":"","type":"uint256","internalType":"uint256"}],"stateMutability":"view"},{"type":"function","name":"governance","inputs":[],"outputs":[{"name":"","type":"address","internalType":"address"}],"stateMutability":"view"},{"type":"function","name":"groupFairShareCount","inputs":[],"outputs":[{"name":"","type":"uint256","internalType":"uint256"}],"stateMutability":"view"},{"type":"function","name":"groupHistoricalZ","inputs":[],"outputs":[{"name":"","type":"uint256","internalType":"uint256"}],"stateMutability":"view"},{"type":"function","name":"groupLastUpdate","inputs":[],"outputs":[{"name":"","type":"uint256","internalType":"uint256"}],"stateMutability":"view"},{"type":"function","name":"groupNormalizedWeight","inputs":[],"outputs":[{"name":"","type":"uint256","internalType":"uint256"}],"stateMutability":"view"},{"type":"function","name":"initialize","inputs":[{"name":"_pushChannelAdmin","type":"address","internalType":"address"},{"name":"_pushTokenAddress","type":"address","internalType":"address"},{"name":"_wethAddress","type":"address","internalType":"address"},{"name":"_uniswapRouterAddress","type":"address","internalType":"address"},{"name":"_lendingPoolProviderAddress","type":"address","internalType":"address"},{"name":"_daiAddress","type":"address","internalType":"address"},{"name":"_aDaiAddress","type":"address","internalType":"address"},{"name":"_referralCode","type":"uint256","internalType":"uint256"}],"outputs":[{"name":"success","type":"bool","internalType":"bool"}],"stateMutability":"nonpayable"},{"type":"function","name":"isMigrationComplete","inputs":[],"outputs":[{"name":"","type":"bool","internalType":"bool"}],"stateMutability":"view"},{"type":"function","name":"lendingPoolProviderAddress","inputs":[],"outputs":[{"name":"","type":"address","internalType":"address"}],"stateMutability":"view"},{"type":"function","name":"name","inputs":[],"outputs":[{"name":"","type":"string","internalType":"string"}],"stateMutability":"view"},{"type":"function","name":"nonces","inputs":[{"name":"","type":"address","internalType":"address"}],"outputs":[{"name":"","type":"uint256","internalType":"uint256"}],"stateMutability":"view"},{"type":"function","name":"oldChannelUpdateCounter","inputs":[{"name":"","type":"address","internalType":"address"}],"outputs":[{"name":"","type":"uint256","internalType":"uint256"}],"stateMutability":"view"},{"type":"function","name":"paused","inputs":[],"outputs":[{"name":"","type":"bool","internalType":"bool"}],"stateMutability":"view"},{"type":"function","name":"previouslySetEpochRewards","inputs":[],"outputs":[{"name":"","type":"uint256","internalType":"uint256"}],"stateMutability":"view"},{"type":"function","name":"processedMessages","inputs":[{"name":"","type":"bytes32","internalType":"bytes32"}],"outputs":[{"name":"","type":"bool","internalType":"bool"}],"stateMutability":"view"},{"type":"function","name":"pushChannelAdmin","inputs":[],"outputs":[{"name":"","type":"address","internalType":"address"}],"stateMutability":"view"},{"type":"function","name":"registeredSenders","inputs":[{"name":"","type":"uint16","internalType":"uint16"}],"outputs":[{"name":"","type":"bytes32","internalType":"bytes32"}],"stateMutability":"view"},{"type":"function","name":"totalStakedAmount","inputs":[],"outputs":[{"name":"","type":"uint256","internalType":"uint256"}],"stateMutability":"view"},{"type":"function","name":"userFeesInfo","inputs":[{"name":"","type":"address","internalType":"address"}],"outputs":[{"name":"stakedAmount","type":"uint256","internalType":"uint256"},{"name":"stakedWeight","type":"uint256","internalType":"uint256"},{"name":"lastStakedBlock","type":"uint256","internalType":"uint256"},{"name":"lastClaimedBlock","type":"uint256","internalType":"uint256"}],"stateMutability":"view"},{"type":"function","name":"usersRewardsClaimed","inputs":[{"name":"","type":"address","internalType":"address"}],"outputs":[{"name":"","type":"uint256","internalType":"uint256"}],"stateMutability":"view"},{"type":"function","name":"wormholeRelayer","inputs":[],"outputs":[{"name":"","type":"address","internalType":"address"}],"stateMutability":"view"},{"type":"event","name":"AddChannel","inputs":[{"name":"channel","type":"address","indexed":true,"internalType":"address"},{"name":"channelType","type":"uint8","indexed":true,"internalType":"enum CoreTypes.ChannelType"},{"name":"identity","type":"bytes","indexed":false,"internalType":"bytes"}],"anonymous":false},{"type":"event","name":"Initialized","inputs":[{"name":"version","type":"uint8","indexed":false,"internalType":"uint8"}],"anonymous":false},{"type":"event","name":"Paused","inputs":[{"name":"account","type":"address","indexed":false,"internalType":"address"}],"anonymous":false},{"type":"event","name":"Unpaused","inputs":[{"name":"account","type":"address","indexed":false,"internalType":"address"}],"anonymous":false},{"type":"error","name":"Core_InvalidChannel","inputs":[]},{"type":"error","name":"Core_InvalidChannelType","inputs":[]},{"type":"error","name":"Core_InvalidExpiryTime","inputs":[]},{"type":"error","name":"InvalidArg_LessThanExpected","inputs":[{"name":"min_threshold","type":"uint256","internalType":"uint256"},{"name":"actual_value","type":"uint256","internalType":"uint256"}]}],"bytecode":{"object":"0x608060405234801561000f575f80fd5b506118718061001d5f395ff3fe608060405234801561000f575f80fd5b506004361061030f575f3560e01c8063883019111161019d578063bc680515116100e8578063daa947f511610093578063f029c18c1161006e578063f029c18c1461088a578063f8ac8336146108bf578063fc6b859b146108e6575f80fd5b8063daa947f514610865578063e9f365981461086e578063eea0b5c514610877575f80fd5b8063d7128084116100c3578063d712808414610814578063d8c4402114610826578063da25b72514610845575f80fd5b8063bc680515146107c5578063bd90f815146107e5578063c175256f1461080b575f80fd5b8063a82ed9ec11610148578063af809d0911610123578063af809d091461077e578063afe40c911461079d578063b70e6be6146107bc575f80fd5b8063a82ed9ec14610740578063a90521c314610760578063ad5f157414610775575f80fd5b80638cfbc3e0116101785780638cfbc3e0146106c3578063952b3331146106e3578063954e5f61146106ec575f80fd5b8063883019111461061357806388ba16ab146106265780638b749ce514610648575f80fd5b80634def9ef21161025d5780635c975abb1161020857806379f0371d116101e357806379f0371d146105405780637dce34f71461055f5780637ecebe00146105f4575f80fd5b80635c975abb1461050057806368a8e5b6146105175780636d1b6d4614610520575f80fd5b806355091fe51161023857806355091fe5146104ce578063567e98f9146104d75780635aa6e675146104e0575f80fd5b80634def9ef21461049c5780634ff0876a146104a557806353905089146104af575f80fd5b8063270dd8a0116102bd57806337a1b7821161029857806337a1b7821461043f5780633ecaec8b1461045e5780634dc47d341461047d575f80fd5b8063270dd8a01461040d5780632c387275146104165780633583849a14610436575f80fd5b80630ded7731116102ed5780630ded7731146103c6578063110e01a8146103dd57806320606b70146103e6575f80fd5b8063040141e51461031357806306fdde031461035d578063098b2041146103a6575b5f80fd5b6008546103339073ffffffffffffffffffffffffffffffffffffffff1681565b60405173ffffffffffffffffffffffffffffffffffffffff90911681526020015b60405180910390f35b6103996040518060400160405280600c81526020017f45504e535f434f52455f5632000000000000000000000000000000000000000081525081565b6040516103549190611407565b6007546103339073ffffffffffffffffffffffffffffffffffffffff1681565b6103cf60105481565b604051908152602001610354565b6103cf60125481565b6103cf7f2ce9970b46ea1bff1d78000ab660407f50a9499f6742ac914d6e6aa91d8c8b2481565b6103cf60155481565b6006546103339073ffffffffffffffffffffffffffffffffffffffff1681565b6103cf600d5481565b6103cf61044d36600461147f565b607f6020525f908152604090205481565b6103cf61046c36600461149f565b60876020525f908152604090205481565b6103cf61048b36600461149f565b60856020525f908152604090205481565b6103cf60185481565b6103cf62024b0481565b6103cf6104bd36600461147f565b608d6020525f908152604090205481565b6103cf600f5481565b6103cf60835481565b6005546103339073ffffffffffffffffffffffffffffffffffffffff1681565b604b5460ff165b6040519015158152602001610354565b6103cf60115481565b600c546103339073ffffffffffffffffffffffffffffffffffffffff1681565b6103cf61054e3660046114b6565b608c6020525f908152604090205481565b6105dd61056d36600461147f565b600160208190525f918252604090912080549181015460028201546003830154600484015460058501546006860154600787015460089097015460ff808a16996101008104909116986201000090910473ffffffffffffffffffffffffffffffffffffffff16979695949392918b565b6040516103549b9a99989796959493929190611504565b6103cf61060236600461147f565b607d6020525f908152604090205481565b6105076106213660046115a2565b610906565b61050761063436600461149f565b608b6020525f908152604090205460ff1681565b6105dd61065636600461149f565b608e6020525f908152604090208054600182015460028301546003840154600485015460058601546006870154600788015460089098015460ff808916996101008a049091169862010000900473ffffffffffffffffffffffffffffffffffffffff16979695949392918b565b600b546103339073ffffffffffffffffffffffffffffffffffffffff1681565b6103cf60845481565b6107206106fa36600461147f565b60866020525f908152604090208054600182015460028301546003909301549192909184565b604080519485526020850193909352918301526060820152608001610354565b600a546103339073ffffffffffffffffffffffffffffffffffffffff1681565b61077361076e36600461162d565b610b93565b005b6103cf60175481565b6103cf61078c36600461147f565b60886020525f908152604090205481565b6103cf6107ab36600461149f565b608f6020525f908152604090205481565b6103cf60805481565b6089546103339073ffffffffffffffffffffffffffffffffffffffff1681565b6004546103339062010000900473ffffffffffffffffffffffffffffffffffffffff1681565b6103cf60165481565b60045461050790610100900460ff1681565b6103cf61083436600461147f565b607e6020525f908152604090205481565b608a546103339073ffffffffffffffffffffffffffffffffffffffff1681565b6103cf60135481565b6103cf60145481565b61039961088536600461147f565b610d6c565b61033361089836600461149f565b60026020525f908152604090205473ffffffffffffffffffffffffffffffffffffffff1681565b6103cf7f0eb0b7c1f0e1a4ef47cef3c68abdb1aaaa449bede7fde99a8d0ee0952ce817e981565b6009546103339073ffffffffffffffffffffffffffffffffffffffff1681565b5f8054610100900460ff161580801561092557505f54600160ff909116105b8061093e5750303b15801561093e57505f5460ff166001145b6109cf576040517f08c379a000000000000000000000000000000000000000000000000000000000815260206004820152602e60248201527f496e697469616c697a61626c653a20636f6e747261637420697320616c72656160448201527f647920696e697469616c697a656400000000000000000000000000000000000060648201526084015b60405180910390fd5b5f80547fffffffffffffffffffffffffffffffffffffffffffffffffffffffffffffff001660011790558015610a2b575f80547fffffffffffffffffffffffffffffffffffffffffffffffffffffffffffff00ff166101001790555b600480547fffffffffffffffffffff0000000000000000000000000000000000000000ffff166201000073ffffffffffffffffffffffffffffffffffffffff8d811691820292909217909255600580547fffffffffffffffffffffffff000000000000000000000000000000000000000090811690931790556006805483168883161790556007805483168783161790556008805483168b8316179055600d859055600b805483168c8316179055600a805483168a8316179055600c8054909216908816179055678ac7230489e800006017556802b5e3af16b1880000601881905560165562989680600e81905543601255601055600191508015610b86575f80547fffffffffffffffffffffffffffffffffffffffffffffffffffffffffffff00ff169055604051600181527f7f26b83ff96e1f2b6a682f133852f6798a09c465da95921460cefb38474024989060200160405180910390a15b5098975050505050505050565b610b9b610e03565b601654821015610be5576016546040517f2d93586c0000000000000000000000000000000000000000000000000000000081526004810191909152602481018390526044016109c6565b335f90815260016020526040902054610100900460ff1615610c33576040517f4052a4ad00000000000000000000000000000000000000000000000000000000815260040160405180910390fd5b6002856005811115610c4757610c476114d7565b1480610c6457506003856005811115610c6257610c626114d7565b145b80610c8057506004856005811115610c7e57610c7e6114d7565b145b80610c9c57506005856005811115610c9a57610c9a6114d7565b145b610cd2576040517f43376f5100000000000000000000000000000000000000000000000000000000815260040160405180910390fd5b846005811115610ce457610ce46114d7565b3373ffffffffffffffffffffffffffffffffffffffff167f1f97bc77a1686355f130d93883d42f2434474cf65f97b29bc451ea7f9388d36a8686604051610d2c9291906116bc565b60405180910390a3600b54610d599073ffffffffffffffffffffffffffffffffffffffff16333085610e72565b610d6533868484610f0d565b5050505050565b60036020525f908152604090208054610d8490611708565b80601f0160208091040260200160405190810160405280929190818152602001828054610db090611708565b8015610dfb5780601f10610dd257610100808354040283529160200191610dfb565b820191905f5260205f20905b815481529060010190602001808311610dde57829003601f168201915b505050505081565b604b5460ff1615610e70576040517f08c379a000000000000000000000000000000000000000000000000000000000815260206004820152601060248201527f5061757361626c653a207061757365640000000000000000000000000000000060448201526064016109c6565b565b6040805173ffffffffffffffffffffffffffffffffffffffff85811660248301528416604482015260648082018490528251808303909101815260849091019091526020810180517bffffffffffffffffffffffffffffffffffffffffffffffffffffffff167f23b872dd00000000000000000000000000000000000000000000000000000000179052610f079085906110ca565b50505050565b6017545f610f1b8285611786565b905080601454610f2b919061179f565b601455601554610f3c90839061179f565b601555601854600e545f9190610f5290846117b2565b610f5c91906117c9565b73ffffffffffffffffffffffffffffffffffffffff88165f90815260016020819052604090912080546101007fffffffffffffffffffffffffffffffffffffffffffffffffffffffffffff00ff821681178355828401879055939450899391927fffffffffffffffffffffffffffffffffffffffffffffffffffffffffffff000090911690911790836005811115610ff657610ff66114d7565b021790555073ffffffffffffffffffffffffffffffffffffffff87165f90815260016020819052604090912043600582018190556006820155600701829055600f546110419161179f565b600f556004866005811115611058576110586114d7565b036110c157428411611096576040517f52743ef000000000000000000000000000000000000000000000000000000000815260040160405180910390fd5b73ffffffffffffffffffffffffffffffffffffffff87165f9081526001602052604090206008018490555b50505050505050565b5f61112b826040518060400160405280602081526020017f5361666545524332303a206c6f772d6c6576656c2063616c6c206661696c65648152508573ffffffffffffffffffffffffffffffffffffffff166111dc9092919063ffffffff16565b905080515f148061114b57508080602001905181019061114b9190611801565b6111d7576040517f08c379a000000000000000000000000000000000000000000000000000000000815260206004820152602a60248201527f5361666545524332303a204552433230206f7065726174696f6e20646964206e60448201527f6f7420737563636565640000000000000000000000000000000000000000000060648201526084016109c6565b505050565b60606111ea84845f856111f2565b949350505050565b606082471015611284576040517f08c379a000000000000000000000000000000000000000000000000000000000815260206004820152602660248201527f416464726573733a20696e73756666696369656e742062616c616e636520666f60448201527f722063616c6c000000000000000000000000000000000000000000000000000060648201526084016109c6565b5f808673ffffffffffffffffffffffffffffffffffffffff1685876040516112ac9190611820565b5f6040518083038185875af1925050503d805f81146112e6576040519150601f19603f3d011682016040523d82523d5f602084013e6112eb565b606091505b50915091506112fc87838387611307565b979650505050505050565b6060831561139c5782515f036113955773ffffffffffffffffffffffffffffffffffffffff85163b611395576040517f08c379a000000000000000000000000000000000000000000000000000000000815260206004820152601d60248201527f416464726573733a2063616c6c20746f206e6f6e2d636f6e747261637400000060448201526064016109c6565b50816111ea565b6111ea83838151156113b15781518083602001fd5b806040517f08c379a00000000000000000000000000000000000000000000000000000000081526004016109c69190611407565b5f5b838110156113ff5781810151838201526020016113e7565b50505f910152565b602081525f82518060208401526114258160408501602087016113e5565b601f017fffffffffffffffffffffffffffffffffffffffffffffffffffffffffffffffe0169190910160400192915050565b803573ffffffffffffffffffffffffffffffffffffffff8116811461147a575f80fd5b919050565b5f6020828403121561148f575f80fd5b61149882611457565b9392505050565b5f602082840312156114af575f80fd5b5035919050565b5f602082840312156114c6575f80fd5b813561ffff81168114611498575f80fd5b7f4e487b71000000000000000000000000000000000000000000000000000000005f52602160045260245ffd5b610160810160068d1061153e577f4e487b71000000000000000000000000000000000000000000000000000000005f52602160045260245ffd5b9b815260ff9a909a1660208b015273ffffffffffffffffffffffffffffffffffffffff9890981660408a01526060890196909652608088019490945260a087019290925260c086015260e08501526101008401526101208301526101409091015290565b5f805f805f805f80610100898b0312156115ba575f80fd5b6115c389611457565b97506115d160208a01611457565b96506115df60408a01611457565b95506115ed60608a01611457565b94506115fb60808a01611457565b935061160960a08a01611457565b925061161760c08a01611457565b915060e089013590509295985092959890939650565b5f805f805f60808688031215611641575f80fd5b85356006811061164f575f80fd5b9450602086013567ffffffffffffffff8082111561166b575f80fd5b818801915088601f83011261167e575f80fd5b81358181111561168c575f80fd5b89602082850101111561169d575f80fd5b9699602092909201985095966040810135965060600135945092505050565b60208152816020820152818360408301375f818301604090810191909152601f9092017fffffffffffffffffffffffffffffffffffffffffffffffffffffffffffffffe0160101919050565b600181811c9082168061171c57607f821691505b602082108103611753577f4e487b71000000000000000000000000000000000000000000000000000000005f52602260045260245ffd5b50919050565b7f4e487b71000000000000000000000000000000000000000000000000000000005f52601160045260245ffd5b8181038181111561179957611799611759565b92915050565b8082018082111561179957611799611759565b808202811582820484141761179957611799611759565b5f826117fc577f4e487b71000000000000000000000000000000000000000000000000000000005f52601260045260245ffd5b500490565b5f60208284031215611811575f80fd5b81518015158114611498575f80fd5b5f82516118318184602087016113e5565b919091019291505056fea2646970667358221220164419d27ea86839e23a409c73590abd6a2cde4551377c12d8420a062636a85464736f6c63430008140033","linkReferences":{}},"methodIdentifiers":{"ADD_CHANNEL_MIN_FEES()":"c175256f","CHANNEL_POOL_FUNDS()":"e9f36598","CREATE_CHANNEL_TYPEHASH()":"f8ac8336","DOMAIN_TYPEHASH()":"20606b70","FEE_AMOUNT()":"ad5f1574","MIN_POOL_CONTRIBUTION()":"4def9ef2","PROTOCOL_POOL_FEES()":"270dd8a0","PUSH_TOKEN_ADDRESS()":"8cfbc3e0","REFERRAL_CODE()":"3583849a","UNISWAP_V2_ROUTER()":"a82ed9ec","WETH_ADDRESS()":"040141e5","aDaiAddress()":"098b2041","arbitraryReqFees(address)":"53905089","celebUserFunds(address)":"af809d09","channelById(uint256)":"f029c18c","channelInfo(bytes32)":"8b749ce5","channelNotifSettings(address)":"eea0b5c5","channelUpdateCounter(bytes32)":"afe40c91","channels(address)":"7dce34f7","channelsCount()":"55091fe5","createChannelWithPUSH(uint8,bytes,uint256,uint256)":"a90521c3","daiAddress()":"2c387275","epnsCommunicator()":"fc6b859b","epochDuration()":"4ff0876a","epochRewards(uint256)":"4dc47d34","epochToTotalStakedWeight(uint256)":"3ecaec8b","feePoolStakingContract()":"bc680515","genesisEpoch()":"b70e6be6","governance()":"5aa6e675","groupFairShareCount()":"daa947f5","groupHistoricalZ()":"68a8e5b6","groupLastUpdate()":"110e01a8","groupNormalizedWeight()":"0ded7731","initialize(address,address,address,address,address,address,address,uint256)":"88301911","isMigrationComplete()":"d7128084","lendingPoolProviderAddress()":"6d1b6d46","name()":"06fdde03","nonces(address)":"7ecebe00","oldChannelUpdateCounter(address)":"d8c44021","paused()":"5c975abb","previouslySetEpochRewards()":"952b3331","processedMessages(bytes32)":"88ba16ab","pushChannelAdmin()":"bd90f815","registeredSenders(uint16)":"79f0371d","totalStakedAmount()":"567e98f9","userFeesInfo(address)":"954e5f61","usersRewardsClaimed(address)":"37a1b782","wormholeRelayer()":"da25b725"},"id":32}