{"abi":[{"type":"constructor","inputs":[{"name":"wormhole_","type":"address","internalType":"address"},{"name":"devnetGuardian","type":"uint256","internalType":"uint256"}],"stateMutability":"nonpayable"},{"type":"function","name":"encodeAndSignMessage","inputs":[{"name":"vm_","type":"tuple","internalType":"struct IWormhole.VM","components":[{"name":"version","type":"uint8","internalType":"uint8"},{"name":"timestamp","type":"uint32","internalType":"uint32"},{"name":"nonce","type":"uint32","internalType":"uint32"},{"name":"emitterChainId","type":"uint16","internalType":"uint16"},{"name":"emitterAddress","type":"bytes32","internalType":"bytes32"},{"name":"sequence","type":"uint64","internalType":"uint64"},{"name":"consistencyLevel","type":"uint8","internalType":"uint8"},{"name":"payload","type":"bytes","internalType":"bytes"},{"name":"guardianSetIndex","type":"uint32","internalType":"uint32"},{"name":"signatures","type":"tuple[]","internalType":"struct IWormhole.Signature[]","components":[{"name":"r","type":"bytes32","internalType":"bytes32"},{"name":"s","type":"bytes32","internalType":"bytes32"},{"name":"v","type":"uint8","internalType":"uint8"},{"name":"guardianIndex","type":"uint8","internalType":"uint8"}]},{"name":"hash","type":"bytes32","internalType":"bytes32"}]}],"outputs":[{"name":"signedMessage","type":"bytes","internalType":"bytes"}],"stateMutability":"view"},{"type":"function","name":"encodeObservation","inputs":[{"name":"vm_","type":"tuple","internalType":"struct IWormhole.VM","components":[{"name":"version","type":"uint8","internalType":"uint8"},{"name":"timestamp","type":"uint32","internalType":"uint32"},{"name":"nonce","type":"uint32","internalType":"uint32"},{"name":"emitterChainId","type":"uint16","internalType":"uint16"},{"name":"emitterAddress","type":"bytes32","internalType":"bytes32"},{"name":"sequence","type":"uint64","internalType":"uint64"},{"name":"consistencyLevel","type":"uint8","internalType":"uint8"},{"name":"payload","type":"bytes","internalType":"bytes"},{"name":"guardianSetIndex","type":"uint32","internalType":"uint32"},{"name":"signatures","type":"tuple[]","internalType":"struct IWormhole.Signature[]","components":[{"name":"r","type":"bytes32","internalType":"bytes32"},{"name":"s","type":"bytes32","internalType":"bytes32"},{"name":"v","type":"uint8","internalType":"uint8"},{"name":"guardianIndex","type":"uint8","internalType":"uint8"}]},{"name":"hash","type":"bytes32","internalType":"bytes32"}]}],"outputs":[{"name":"encodedObservation","type":"bytes","internalType":"bytes"}],"stateMutability":"pure"},{"type":"function","name":"fetchSignedMessageFromLogs","inputs":[{"name":"log","type":"tuple","internalType":"struct VmSafe.Log","components":[{"name":"topics","type":"bytes32[]","internalType":"bytes32[]"},{"name":"data","type":"bytes","internalType":"bytes"},{"name":"emitter","type":"address","internalType":"address"}]},{"name":"emitterChainId","type":"uint16","internalType":"uint16"}],"outputs":[{"name":"signedMessage","type":"bytes","internalType":"bytes"}],"stateMutability":"view"},{"type":"function","name":"fetchWormholeMessageFromLog","inputs":[{"name":"logs","type":"tuple[]","internalType":"struct VmSafe.Log[]","components":[{"name":"topics","type":"bytes32[]","internalType":"bytes32[]"},{"name":"data","type":"bytes","internalType":"bytes"},{"name":"emitter","type":"address","internalType":"address"}]}],"outputs":[{"name":"","type":"tuple[]","internalType":"struct VmSafe.Log[]","components":[{"name":"topics","type":"bytes32[]","internalType":"bytes32[]"},{"name":"data","type":"bytes","internalType":"bytes"},{"name":"emitter","type":"address","internalType":"address"}]}],"stateMutability":"pure"},{"type":"function","name":"setMessageFee","inputs":[{"name":"newFee","type":"uint256","internalType":"uint256"}],"outputs":[],"stateMutability":"nonpayable"},{"type":"function","name":"vm","inputs":[],"outputs":[{"name":"","type":"address","internalType":"contract Vm"}],"stateMutability":"view"},{"type":"function","name":"wormhole","inputs":[],"outputs":[{"name":"","type":"address","internalType":"contract IWormhole"}],"stateMutability":"view"}],"bytecode":{"object":"0x608060405234801562000010575f80fd5b50604051620023703803806200237083398101604081905262000033916200062c565b5f80546001600160a01b0319166001600160a01b03841617905560018190556040516001625e79b760e01b0319815260048101829052620000cf905f80516020620023508339815191529063ffa1864990602401602060405180830381865afa158015620000a3573d5f803e3d5ffd5b505050506040513d601f19601f82011682018060405250810190620000c9919062000659565b620000d7565b505062000866565b604051630667f9d760e41b8152306004820152600260248201525f905f80516020620023508339815191529063667f9d7090604401602060405180830381865afa15801562000128573d5f803e3d5ffd5b505050506040513d601f19601f820116820180604052508101906200014e91906200067c565b90508015620001955760405162461bcd60e51b815260206004820152600e60248201526d1a5b98dbdc9c9958dd081cdb1bdd60921b60448201526064015b60405180910390fd5b5f805f9054906101000a90046001600160a01b03166001600160a01b0316631cfe79516040518163ffffffff1660e01b8152600401602060405180830381865afa158015620001e6573d5f803e3d5ffd5b505050506040513d601f19601f820116820180604052508101906200020c9190620006a8565b6040805163ffffffff831660208201526002918101919091529091505f9060600160408051808303601f190181529082905280516020909101205f8054630667f9d760e41b84526001600160a01b0316600484015260248301829052909250905f80516020620023508339815191529063667f9d7090604401602060405180830381865afa158015620002a1573d5f803e3d5ffd5b505050506040513d601f19601f82011682018060405250810190620002c791906200067c565b905060015b8181101562000393575f5460408051602080820187905282518083038201815291830190925280519101205f8051602062002350833981519152916370ca10bb916001600160a01b039091169062000326908590620006c4565b60405160e084901b6001600160e01b03191681526001600160a01b03909216600483015260248201525f60448201526064015f604051808303815f87803b15801562000370575f80fd5b505af115801562000383573d5f803e3d5ffd5b50505050600181019050620002cc565b505f805460408051602080820187905282518083038201815291830190925280519101205f8051602062002350833981519152926370ca10bb926001600160a01b031691620003e291620006c4565b60405160e084901b6001600160e01b03191681526001600160a01b039283166004820152602481019190915290881660448201526064015f604051808303815f87803b15801562000431575f80fd5b505af115801562000444573d5f803e3d5ffd5b50505f546040516370ca10bb60e01b81526001600160a01b03909116600482015260248101859052600160448201525f805160206200235083398151915292506370ca10bb91506064015f604051808303815f87803b158015620004a6575f80fd5b505af1158015620004b9573d5f803e3d5ffd5b50505f8054604051637ca8cbad60e11b815263ffffffff881660048201529193506001600160a01b0316915063f951975a906024015f60405180830381865afa15801562000509573d5f803e3d5ffd5b505050506040513d5f823e601f3d908101601f191682016040526200053291908101906200075c565b518051909150600114620005895760405162461bcd60e51b815260206004820152601560248201527f677561726469616e732e6c656e67746820213d2031000000000000000000000060448201526064016200018c565b856001600160a01b0316815f81518110620005a857620005a862000852565b60200260200101516001600160a01b031614620006085760405162461bcd60e51b815260206004820152601f60248201527f696e636f727265637420677561726469616e20736574206f766572726964650060448201526064016200018c565b505050505050565b80516001600160a01b038116811462000627575f80fd5b919050565b5f80604083850312156200063e575f80fd5b620006498362000610565b9150602083015190509250929050565b5f602082840312156200066a575f80fd5b620006758262000610565b9392505050565b5f602082840312156200068d575f80fd5b5051919050565b805163ffffffff8116811462000627575f80fd5b5f60208284031215620006b9575f80fd5b620006758262000694565b80820180821115620006e457634e487b7160e01b5f52601160045260245ffd5b92915050565b634e487b7160e01b5f52604160045260245ffd5b604080519081016001600160401b0381118282101715620007235762000723620006ea565b60405290565b604051601f8201601f191681016001600160401b0381118282101715620007545762000754620006ea565b604052919050565b5f60208083850312156200076e575f80fd5b82516001600160401b038082111562000785575f80fd5b908401906040828703121562000799575f80fd5b620007a3620006fe565b825182811115620007b2575f80fd5b8301601f81018813620007c3575f80fd5b805183811115620007d857620007d8620006ea565b8060051b9350620007eb86850162000729565b818152938201860193868101908a86111562000805575f80fd5b928701925b858410156200082e576200081e8462000610565b825292870192908701906200080a565b8452506200084191505083850162000694565b848201528094505050505092915050565b634e487b7160e01b5f52603260045260245ffd5b611adc80620008745f395ff3fe608060405234801561000f575f80fd5b506004361061007a575f3560e01c806355a58d7d1161005857806355a58d7d146100fc57806364bb9bfb1461011c57806384acd1bb1461012f578063b34cd8601461014e575f80fd5b80630e6452951461007e57806323aa2a9d146100a75780633a768463146100bc575b5f80fd5b61009161008c366004611335565b610161565b60405161009e91906114bf565b60405180910390f35b6100ba6100b53660046114d8565b61045a565b005b6100d7737109709ecfa91a80626ff3989d68f67f5b1dd12d81565b60405173ffffffffffffffffffffffffffffffffffffffff909116815260200161009e565b61010f61010a3660046115e2565b61080b565b60405161009e919061168d565b61009161012a366004611335565b6109c8565b5f546100d79073ffffffffffffffffffffffffffffffffffffffff1681565b61009161015c366004611779565b610a19565b60605f61016d836109c8565b905061017881610aaa565b6101408401526040805160018082528183019092525f91816020015b604080516080810182525f8082526020808301829052928201819052606082015282527fffffffffffffffffffffffffffffffffffffffffffffffffffffffffffffffff909201910181610194579050506001546101408601516040517fe341eaa400000000000000000000000000000000000000000000000000000000815260048101929092526024820152909150737109709ecfa91a80626ff3989d68f67f5b1dd12d9063e341eaa490604401606060405180830381865afa15801561025e573d5f803e3d5ffd5b505050506040513d601f19601f8201168201806040525081019061028291906117c8565b835f81518110610294576102946117fc565b6020026020010151604001845f815181106102b1576102b16117fc565b60200260200101515f01855f815181106102cd576102cd6117fc565b602002602001015160200183815250838152508360ff1660ff168152505050505f815f81518110610300576103006117fc565b60200260200101516060019060ff16908160ff1681525050835f01515f8054906101000a900473ffffffffffffffffffffffffffffffffffffffff1673ffffffffffffffffffffffffffffffffffffffff16631cfe79516040518163ffffffff1660e01b8152600401602060405180830381865afa158015610384573d5f803e3d5ffd5b505050506040513d601f19601f820116820180604052508101906103a89190611829565b8251835f826103b9576103b96117fc565b602002602001015160600151845f815181106103d7576103d76117fc565b60200260200101515f0151855f815181106103f4576103f46117fc565b602002602001015160200151601b875f81518110610414576104146117fc565b60200260200101516040015161042a9190611871565b8860405160200161044298979695949392919061188a565b60405160208183030381529060405292505050919050565b5f63436f72655f1b90505f8160035f8054906101000a900473ffffffffffffffffffffffffffffffffffffffff1673ffffffffffffffffffffffffffffffffffffffff16639a8a05926040518163ffffffff1660e01b8152600401602060405180830381865afa1580156104d0573d5f803e3d5ffd5b505050506040513d601f19601f820116820180604052508101906104f49190611934565b85604051602001610568949392919093845260f89290921b7fff0000000000000000000000000000000000000000000000000000000000000016602084015260f01b7fffff000000000000000000000000000000000000000000000000000000000000166021830152602382015260430190565b604080517fffffffffffffffffffffffffffffffffffffffffffffffffffffffffffffffe0818403018152610160830182526001835263ffffffff42166020848101919091525f848401819052805484517ffbe3c2cd0000000000000000000000000000000000000000000000000000000081529451939650909493606085019373ffffffffffffffffffffffffffffffffffffffff9092169263fbe3c2cd926004808401938290030181865afa158015610625573d5f803e3d5ffd5b505050506040513d601f19601f820116820180604052508101906106499190611934565b61ffff1681526020015f8054906101000a900473ffffffffffffffffffffffffffffffffffffffff1673ffffffffffffffffffffffffffffffffffffffff1663b172b2226040518163ffffffff1660e01b8152600401602060405180830381865afa1580156106ba573d5f803e3d5ffd5b505050506040513d601f19601f820116820180604052508101906106de919061194f565b81525f602080830182905260c860408085019190915260608401879052608084018390528051838152918201905260a09092019190610769565b604080516080810182525f8082526020808301829052928201819052606082015282527fffffffffffffffffffffffffffffffffffffffffffffffffffffffffffffffff9092019101816107185790505b5081525f602090910181905290915061078182610161565b5f546040517ff42bc64100000000000000000000000000000000000000000000000000000000815291925073ffffffffffffffffffffffffffffffffffffffff169063f42bc641906107d79084906004016114bf565b5f604051808303815f87803b1580156107ee575f80fd5b505af1158015610800573d5f803e3d5ffd5b505050505050505050565b60605f805b8351811015610895577f6eb224fb001ed210e379b335e35efe88672a8ce935d981a6896b27ffdf52a3b284828151811061084c5761084c6117fc565b60200260200101515f01515f81518110610868576108686117fc565b60200260200101510361088357610880600183611966565b91505b8061088d81611979565b915050610810565b505f8167ffffffffffffffff8111156108b0576108b061107d565b6040519080825280602002602001820160405280156108fc57816020015b604080516060808201835280825260208201525f918101919091528152602001906001900390816108ce5790505b5090505f805b85518110156109be577f6eb224fb001ed210e379b335e35efe88672a8ce935d981a6896b27ffdf52a3b286828151811061093e5761093e6117fc565b60200260200101515f01515f8151811061095a5761095a6117fc565b6020026020010151036109ac57858181518110610979576109796117fc565b6020026020010151838381518110610993576109936117fc565b60209081029190910101526109a9600183611966565b91505b806109b681611979565b915050610902565b5090949350505050565b606081602001518260400151836060015184608001518560a001518660c001518760e00151604051602001610a0397969594939291906119b0565b6040516020818303038152906040529050919050565b60408051610160810182525f8082526020820181905291810182905260608181018390526080820183905260a0820183905260c0820183905260e0820181905261010082018390526101208201819052610140820192909252610a7b84610ae2565b6001815263ffffffff4216602082015261ffff841660608201529050610aa081610161565b9150505b92915050565b5f8180519060200120604051602001610ac591815260200190565b604051602081830303815290604052805190602001209050919050565b60408051610160810182525f8082526020820181905291810182905260608082018390526080820183905260a0820183905260c0820183905260e0820181905261010082018390526101208201526101408101919091525f825f0151600181518110610b5057610b506117fc565b6020026020010151826080018181525050610b886008826020610b739190611966565b610b7d9190611a93565b602085015190610d08565b67ffffffffffffffff1660a0830152610ba2602082611966565b9050610bc96004610bb4836020611966565b610bbe9190611a93565b602085015190610d87565b63ffffffff166040830152610bdf602082611966565b9050610bec602082611966565b9050610c136001610bfe836020611966565b610c089190611a93565b602085015190610e06565b60ff1660c0830152610c26602082611966565b90505f610c40828560200151610e8590919063ffffffff16565b9050610c4d602083611966565b6020850151909250610c60908383610f04565b60e0840152610c6f8183611966565b915081846020015151610c829190611a93565b610c8c9083611966565b91508360200151518214610d01576040517f08c379a000000000000000000000000000000000000000000000000000000000815260206004820181905260248201527f6661696c656420746f20706172736520776f726d686f6c65206d65737361676560448201526064015b60405180910390fd5b5050919050565b5f610d14826008611966565b83511015610d7e576040517f08c379a000000000000000000000000000000000000000000000000000000000815260206004820152601460248201527f746f55696e7436345f6f75744f66426f756e64730000000000000000000000006044820152606401610cf8565b50016008015190565b5f610d93826004611966565b83511015610dfd576040517f08c379a000000000000000000000000000000000000000000000000000000000815260206004820152601460248201527f746f55696e7433325f6f75744f66426f756e64730000000000000000000000006044820152606401610cf8565b50016004015190565b5f610e12826001611966565b83511015610e7c576040517f08c379a000000000000000000000000000000000000000000000000000000000815260206004820152601360248201527f746f55696e74385f6f75744f66426f756e6473000000000000000000000000006044820152606401610cf8565b50016001015190565b5f610e91826020611966565b83511015610efb576040517f08c379a000000000000000000000000000000000000000000000000000000000815260206004820152601560248201527f746f55696e743235365f6f75744f66426f756e647300000000000000000000006044820152606401610cf8565b50016020015190565b606081610f1281601f611966565b1015610f7a576040517f08c379a000000000000000000000000000000000000000000000000000000000815260206004820152600e60248201527f736c6963655f6f766572666c6f770000000000000000000000000000000000006044820152606401610cf8565b610f848284611966565b84511015610fee576040517f08c379a000000000000000000000000000000000000000000000000000000000815260206004820152601160248201527f736c6963655f6f75744f66426f756e64730000000000000000000000000000006044820152606401610cf8565b60608215801561100c5760405191505f825260208201604052611074565b6040519150601f8416801560200281840101858101878315602002848b0101015b8183101561104557805183526020928301920161102d565b5050858452601f017fffffffffffffffffffffffffffffffffffffffffffffffffffffffffffffffe016604052505b50949350505050565b7f4e487b71000000000000000000000000000000000000000000000000000000005f52604160045260245ffd5b6040516080810167ffffffffffffffff811182821017156110cd576110cd61107d565b60405290565b604051610160810167ffffffffffffffff811182821017156110cd576110cd61107d565b6040516060810167ffffffffffffffff811182821017156110cd576110cd61107d565b604051601f82017fffffffffffffffffffffffffffffffffffffffffffffffffffffffffffffffe016810167ffffffffffffffff811182821017156111615761116161107d565b604052919050565b60ff81168114611177575f80fd5b50565b803561118581611169565b919050565b63ffffffff81168114611177575f80fd5b80356111858161118a565b61ffff81168114611177575f80fd5b8035611185816111a6565b803567ffffffffffffffff81168114611185575f80fd5b5f82601f8301126111e6575f80fd5b813567ffffffffffffffff8111156112005761120061107d565b61123160207fffffffffffffffffffffffffffffffffffffffffffffffffffffffffffffffe0601f8401160161111a565b818152846020838601011115611245575f80fd5b816020850160208301375f918101602001919091529392505050565b5f67ffffffffffffffff82111561127a5761127a61107d565b5060051b60200190565b5f82601f830112611293575f80fd5b813560206112a86112a383611261565b61111a565b82815260079290921b840181019181810190868411156112c6575f80fd5b8286015b8481101561132a57608081890312156112e2575f8081fd5b6112ea6110aa565b81358152848201358582015260408083013561130581611169565b9082015260608281013561131881611169565b908201528352918301916080016112ca565b509695505050505050565b5f60208284031215611345575f80fd5b813567ffffffffffffffff8082111561135c575f80fd5b908301906101608286031215611370575f80fd5b6113786110d3565b6113818361117a565b815261138f6020840161119b565b60208201526113a06040840161119b565b60408201526113b1606084016111b5565b6060820152608083013560808201526113cc60a084016111c0565b60a08201526113dd60c0840161117a565b60c082015260e0830135828111156113f3575f80fd5b6113ff878286016111d7565b60e08301525061010061141381850161119b565b90820152610120838101358381111561142a575f80fd5b61143688828701611284565b91830191909152506101409283013592810192909252509392505050565b5f5b8381101561146e578181015183820152602001611456565b50505f910152565b5f815180845261148d816020860160208601611454565b601f017fffffffffffffffffffffffffffffffffffffffffffffffffffffffffffffffe0169290920160200192915050565b602081525f6114d16020830184611476565b9392505050565b5f602082840312156114e8575f80fd5b5035919050565b803573ffffffffffffffffffffffffffffffffffffffff81168114611185575f80fd5b5f60608284031215611522575f80fd5b61152a6110f7565b9050813567ffffffffffffffff80821115611543575f80fd5b818401915084601f830112611556575f80fd5b813560206115666112a383611261565b82815260059290921b84018101918181019088841115611584575f80fd5b948201945b838610156115a257853582529482019490820190611589565b865250858101359350828411156115b7575f80fd5b6115c3878588016111d7565b81860152505050506115d7604083016114ef565b604082015292915050565b5f60208083850312156115f3575f80fd5b823567ffffffffffffffff8082111561160a575f80fd5b818501915085601f83011261161d575f80fd5b813561162b6112a382611261565b81815260059190911b83018401908481019088831115611649575f80fd5b8585015b8381101561168057803585811115611664575f8081fd5b6116728b89838a0101611512565b84525091860191860161164d565b5098975050505050505050565b5f6020808301818452808551808352604092508286019150828160051b8701018488015f805b8481101561176a578984037fffffffffffffffffffffffffffffffffffffffffffffffffffffffffffffffc0018652825180516060808752815190870181905260808701918b019085905b8082101561171e5782518452928c0192918c0191600191909101906116fe565b505050898201518682038b8801526117368282611476565b928a015173ffffffffffffffffffffffffffffffffffffffff16968a019690965250958801959350918701916001016116b3565b50919998505050505050505050565b5f806040838503121561178a575f80fd5b823567ffffffffffffffff8111156117a0575f80fd5b6117ac85828601611512565b92505060208301356117bd816111a6565b809150509250929050565b5f805f606084860312156117da575f80fd5b83516117e581611169565b602085015160409095015190969495509392505050565b7f4e487b71000000000000000000000000000000000000000000000000000000005f52603260045260245ffd5b5f60208284031215611839575f80fd5b81516114d18161118a565b7f4e487b71000000000000000000000000000000000000000000000000000000005f52601160045260245ffd5b60ff8281168282160390811115610aa457610aa4611844565b5f7fff00000000000000000000000000000000000000000000000000000000000000808b60f81b1683527fffffffff000000000000000000000000000000000000000000000000000000008a60e01b166001840152808960f81b166005840152808860f81b166006840152866007840152856027840152808560f81b166047840152508251611920816048850160208701611454565b919091016048019998505050505050505050565b5f60208284031215611944575f80fd5b81516114d1816111a6565b5f6020828403121561195f575f80fd5b5051919050565b80820180821115610aa457610aa4611844565b5f7fffffffffffffffffffffffffffffffffffffffffffffffffffffffffffffffff82036119a9576119a9611844565b5060010190565b5f7fffffffff00000000000000000000000000000000000000000000000000000000808a60e01b168352808960e01b166004840152507fffff0000000000000000000000000000000000000000000000000000000000008760f01b16600883015285600a8301527fffffffffffffffff0000000000000000000000000000000000000000000000008560c01b16602a8301527fff000000000000000000000000000000000000000000000000000000000000008460f81b1660328301528251611a80816033850160208701611454565b9190910160330198975050505050505050565b81810381811115610aa457610aa461184456fea2646970667358221220f822e5ae41e59f27cd569dfc82aa9e096309c0ba415c410f1366cec9fd209fd764736f6c634300081400330000000000000000000000007109709ecfa91a80626ff3989d68f67f5b1dd12d","linkReferences":{}},"methodIdentifiers":{"encodeAndSignMessage((uint8,uint32,uint32,uint16,bytes32,uint64,uint8,bytes,uint32,(bytes32,bytes32,uint8,uint8)[],bytes32))":"0e645295","encodeObservation((uint8,uint32,uint32,uint16,bytes32,uint64,uint8,bytes,uint32,(bytes32,bytes32,uint8,uint8)[],bytes32))":"64bb9bfb","fetchSignedMessageFromLogs((bytes32[],bytes,address),uint16)":"b34cd860","fetchWormholeMessageFromLog((bytes32[],bytes,address)[])":"55a58d7d","setMessageFee(uint256)":"23aa2a9d","vm()":"3a768463","wormhole()":"84acd1bb"},"id":56}