{
  "_format": "hh-sol-artifact-1",
  "contractName": "GovernorAlpha",
  "sourceName": "contracts/GovernorAlpha.sol",
  "abi": [
    {
      "inputs": [
        {
          "internalType": "address",
          "name": "timelock_",
          "type": "address"
        },
        {
          "internalType": "address",
          "name": "EPNS_",
          "type": "address"
        },
        {
          "internalType": "address",
          "name": "guardian_",
          "type": "address"
        }
      ],
      "stateMutability": "nonpayable",
      "type": "constructor"
    },
    {
      "anonymous": false,
      "inputs": [
        {
          "indexed": false,
          "internalType": "uint256",
          "name": "id",
          "type": "uint256"
        }
      ],
      "name": "ProposalCanceled",
      "type": "event"
    },
    {
      "anonymous": false,
      "inputs": [
        {
          "indexed": false,
          "internalType": "uint256",
          "name": "id",
          "type": "uint256"
        },
        {
          "indexed": false,
          "internalType": "address",
          "name": "proposer",
          "type": "address"
        },
        {
          "indexed": false,
          "internalType": "address[]",
          "name": "targets",
          "type": "address[]"
        },
        {
          "indexed": false,
          "internalType": "uint256[]",
          "name": "values",
          "type": "uint256[]"
        },
        {
          "indexed": false,
          "internalType": "string[]",
          "name": "signatures",
          "type": "string[]"
        },
        {
          "indexed": false,
          "internalType": "bytes[]",
          "name": "calldatas",
          "type": "bytes[]"
        },
        {
          "indexed": false,
          "internalType": "uint256",
          "name": "startBlock",
          "type": "uint256"
        },
        {
          "indexed": false,
          "internalType": "uint256",
          "name": "endBlock",
          "type": "uint256"
        },
        {
          "indexed": false,
          "internalType": "string",
          "name": "description",
          "type": "string"
        }
      ],
      "name": "ProposalCreated",
      "type": "event"
    },
    {
      "anonymous": false,
      "inputs": [
        {
          "indexed": false,
          "internalType": "uint256",
          "name": "id",
          "type": "uint256"
        }
      ],
      "name": "ProposalExecuted",
      "type": "event"
    },
    {
      "anonymous": false,
      "inputs": [
        {
          "indexed": false,
          "internalType": "uint256",
          "name": "id",
          "type": "uint256"
        },
        {
          "indexed": false,
          "internalType": "uint256",
          "name": "eta",
          "type": "uint256"
        }
      ],
      "name": "ProposalQueued",
      "type": "event"
    },
    {
      "anonymous": false,
      "inputs": [
        {
          "indexed": false,
          "internalType": "address",
          "name": "voter",
          "type": "address"
        },
        {
          "indexed": false,
          "internalType": "uint256",
          "name": "proposalId",
          "type": "uint256"
        },
        {
          "indexed": false,
          "internalType": "bool",
          "name": "support",
          "type": "bool"
        },
        {
          "indexed": false,
          "internalType": "uint256",
          "name": "votes",
          "type": "uint256"
        }
      ],
      "name": "VoteCast",
      "type": "event"
    },
    {
      "inputs": [],
      "name": "BALLOT_TYPEHASH",
      "outputs": [
        {
          "internalType": "bytes32",
          "name": "",
          "type": "bytes32"
        }
      ],
      "stateMutability": "view",
      "type": "function"
    },
    {
      "inputs": [],
      "name": "DOMAIN_TYPEHASH",
      "outputs": [
        {
          "internalType": "bytes32",
          "name": "",
          "type": "bytes32"
        }
      ],
      "stateMutability": "view",
      "type": "function"
    },
    {
      "inputs": [],
      "name": "EPNS",
      "outputs": [
        {
          "internalType": "contract EPNSInterface",
          "name": "",
          "type": "address"
        }
      ],
      "stateMutability": "view",
      "type": "function"
    },
    {
      "inputs": [],
      "name": "__abdicate",
      "outputs": [],
      "stateMutability": "nonpayable",
      "type": "function"
    },
    {
      "inputs": [],
      "name": "__acceptAdmin",
      "outputs": [],
      "stateMutability": "nonpayable",
      "type": "function"
    },
    {
      "inputs": [
        {
          "internalType": "address",
          "name": "newPendingAdmin",
          "type": "address"
        },
        {
          "internalType": "uint256",
          "name": "eta",
          "type": "uint256"
        }
      ],
      "name": "__executeSetTimelockPendingAdmin",
      "outputs": [],
      "stateMutability": "nonpayable",
      "type": "function"
    },
    {
      "inputs": [
        {
          "internalType": "address",
          "name": "newPendingAdmin",
          "type": "address"
        },
        {
          "internalType": "uint256",
          "name": "eta",
          "type": "uint256"
        }
      ],
      "name": "__queueSetTimelockPendingAdmin",
      "outputs": [],
      "stateMutability": "nonpayable",
      "type": "function"
    },
    {
      "inputs": [
        {
          "internalType": "uint256",
          "name": "proposalId",
          "type": "uint256"
        }
      ],
      "name": "cancel",
      "outputs": [],
      "stateMutability": "nonpayable",
      "type": "function"
    },
    {
      "inputs": [
        {
          "internalType": "uint256",
          "name": "proposalId",
          "type": "uint256"
        },
        {
          "internalType": "bool",
          "name": "support",
          "type": "bool"
        }
      ],
      "name": "castVote",
      "outputs": [],
      "stateMutability": "nonpayable",
      "type": "function"
    },
    {
      "inputs": [
        {
          "internalType": "uint256",
          "name": "proposalId",
          "type": "uint256"
        },
        {
          "internalType": "bool",
          "name": "support",
          "type": "bool"
        },
        {
          "internalType": "uint8",
          "name": "v",
          "type": "uint8"
        },
        {
          "internalType": "bytes32",
          "name": "r",
          "type": "bytes32"
        },
        {
          "internalType": "bytes32",
          "name": "s",
          "type": "bytes32"
        }
      ],
      "name": "castVoteBySig",
      "outputs": [],
      "stateMutability": "nonpayable",
      "type": "function"
    },
    {
      "inputs": [
        {
          "internalType": "uint256",
          "name": "proposalId",
          "type": "uint256"
        }
      ],
      "name": "execute",
      "outputs": [],
      "stateMutability": "payable",
      "type": "function"
    },
    {
      "inputs": [
        {
          "internalType": "uint256",
          "name": "proposalId",
          "type": "uint256"
        }
      ],
      "name": "getActions",
      "outputs": [
        {
          "internalType": "address[]",
          "name": "targets",
          "type": "address[]"
        },
        {
          "internalType": "uint256[]",
          "name": "values",
          "type": "uint256[]"
        },
        {
          "internalType": "string[]",
          "name": "signatures",
          "type": "string[]"
        },
        {
          "internalType": "bytes[]",
          "name": "calldatas",
          "type": "bytes[]"
        }
      ],
      "stateMutability": "view",
      "type": "function"
    },
    {
      "inputs": [
        {
          "internalType": "uint256",
          "name": "proposalId",
          "type": "uint256"
        },
        {
          "internalType": "address",
          "name": "voter",
          "type": "address"
        }
      ],
      "name": "getReceipt",
      "outputs": [
        {
          "components": [
            {
              "internalType": "bool",
              "name": "hasVoted",
              "type": "bool"
            },
            {
              "internalType": "bool",
              "name": "support",
              "type": "bool"
            },
            {
              "internalType": "uint96",
              "name": "votes",
              "type": "uint96"
            }
          ],
          "internalType": "struct GovernorAlpha.Receipt",
          "name": "",
          "type": "tuple"
        }
      ],
      "stateMutability": "view",
      "type": "function"
    },
    {
      "inputs": [],
      "name": "guardian",
      "outputs": [
        {
          "internalType": "address",
          "name": "",
          "type": "address"
        }
      ],
      "stateMutability": "view",
      "type": "function"
    },
    {
      "inputs": [
        {
          "internalType": "address",
          "name": "",
          "type": "address"
        }
      ],
      "name": "latestProposalIds",
      "outputs": [
        {
          "internalType": "uint256",
          "name": "",
          "type": "uint256"
        }
      ],
      "stateMutability": "view",
      "type": "function"
    },
    {
      "inputs": [],
      "name": "name",
      "outputs": [
        {
          "internalType": "string",
          "name": "",
          "type": "string"
        }
      ],
      "stateMutability": "view",
      "type": "function"
    },
    {
      "inputs": [],
      "name": "proposalCount",
      "outputs": [
        {
          "internalType": "uint256",
          "name": "",
          "type": "uint256"
        }
      ],
      "stateMutability": "view",
      "type": "function"
    },
    {
      "inputs": [],
      "name": "proposalMaxOperations",
      "outputs": [
        {
          "internalType": "uint256",
          "name": "",
          "type": "uint256"
        }
      ],
      "stateMutability": "pure",
      "type": "function"
    },
    {
      "inputs": [],
      "name": "proposalThreshold",
      "outputs": [
        {
          "internalType": "uint256",
          "name": "",
          "type": "uint256"
        }
      ],
      "stateMutability": "pure",
      "type": "function"
    },
    {
      "inputs": [
        {
          "internalType": "uint256",
          "name": "",
          "type": "uint256"
        }
      ],
      "name": "proposals",
      "outputs": [
        {
          "internalType": "uint256",
          "name": "id",
          "type": "uint256"
        },
        {
          "internalType": "address",
          "name": "proposer",
          "type": "address"
        },
        {
          "internalType": "uint256",
          "name": "eta",
          "type": "uint256"
        },
        {
          "internalType": "uint256",
          "name": "startBlock",
          "type": "uint256"
        },
        {
          "internalType": "uint256",
          "name": "endBlock",
          "type": "uint256"
        },
        {
          "internalType": "uint256",
          "name": "forVotes",
          "type": "uint256"
        },
        {
          "internalType": "uint256",
          "name": "againstVotes",
          "type": "uint256"
        },
        {
          "internalType": "bool",
          "name": "canceled",
          "type": "bool"
        },
        {
          "internalType": "bool",
          "name": "executed",
          "type": "bool"
        }
      ],
      "stateMutability": "view",
      "type": "function"
    },
    {
      "inputs": [
        {
          "internalType": "address[]",
          "name": "targets",
          "type": "address[]"
        },
        {
          "internalType": "uint256[]",
          "name": "values",
          "type": "uint256[]"
        },
        {
          "internalType": "string[]",
          "name": "signatures",
          "type": "string[]"
        },
        {
          "internalType": "bytes[]",
          "name": "calldatas",
          "type": "bytes[]"
        },
        {
          "internalType": "string",
          "name": "description",
          "type": "string"
        }
      ],
      "name": "propose",
      "outputs": [
        {
          "internalType": "uint256",
          "name": "",
          "type": "uint256"
        }
      ],
      "stateMutability": "nonpayable",
      "type": "function"
    },
    {
      "inputs": [
        {
          "internalType": "uint256",
          "name": "proposalId",
          "type": "uint256"
        }
      ],
      "name": "queue",
      "outputs": [],
      "stateMutability": "nonpayable",
      "type": "function"
    },
    {
      "inputs": [],
      "name": "quorumVotes",
      "outputs": [
        {
          "internalType": "uint256",
          "name": "",
          "type": "uint256"
        }
      ],
      "stateMutability": "pure",
      "type": "function"
    },
    {
      "inputs": [
        {
          "internalType": "uint256",
          "name": "proposalId",
          "type": "uint256"
        }
      ],
      "name": "state",
      "outputs": [
        {
          "internalType": "enum GovernorAlpha.ProposalState",
          "name": "",
          "type": "uint8"
        }
      ],
      "stateMutability": "view",
      "type": "function"
    },
    {
      "inputs": [],
      "name": "timelock",
      "outputs": [
        {
          "internalType": "contract TimelockInterface",
          "name": "",
          "type": "address"
        }
      ],
      "stateMutability": "view",
      "type": "function"
    },
    {
      "inputs": [],
      "name": "votingDelay",
      "outputs": [
        {
          "internalType": "uint256",
          "name": "",
          "type": "uint256"
        }
      ],
      "stateMutability": "pure",
      "type": "function"
    },
    {
      "inputs": [],
      "name": "votingPeriod",
      "outputs": [
        {
          "internalType": "uint256",
          "name": "",
          "type": "uint256"
        }
      ],
      "stateMutability": "pure",
      "type": "function"
    }
  ],
  "bytecode": "0x60806040523480156200001157600080fd5b506040516200330f3803806200330f833981016040819052620000349162000077565b600080546001600160a01b039485166001600160a01b031991821617909155600180549385169382169390931790925560028054919093169116179055620000e3565b6000806000606084860312156200008c578283fd5b83516200009981620000ca565b6020850151909350620000ac81620000ca565b6040850151909250620000bf81620000ca565b809150509250925092565b6001600160a01b0381168114620000e057600080fd5b50565b61321c80620000f36000396000f3fe60806040526004361061019c5760003560e01c80634634c61f116100ec578063d33219b41161008a578063ddf0b00911610064578063ddf0b00914610441578063deaaa7cc14610461578063e23a9a5214610476578063fe0d94c1146104a35761019c565b8063d33219b4146103f7578063da35c6641461040c578063da95691a146104215761019c565b80637bdbe4d0116100c65780637bdbe4d01461039857806391500671146103ad578063b58131b0146103cd578063b9a61961146103e25761019c565b80634634c61f1461034e578063686ff7e41461036e578063760fbc13146103835761019c565b806321f43e42116101595780633932abb1116101335780633932abb1146101df5780633e4f49e6146102df57806340e58ee51461030c578063452a93201461032c5761019c565b806321f43e421461027a57806324bc1a641461029a578063328dd982146102af5761019c565b8063013cf08b146101a157806302a251a3146101df57806306fdde031461020157806315373e3d1461022357806317977c611461024557806320606b7014610265575b600080fd5b3480156101ad57600080fd5b506101c16101bc366004612374565b6104b6565b6040516101d6999897969594939291906130db565b60405180910390f35b3480156101eb57600080fd5b506101f461050f565b6040516101d6919061282a565b34801561020d57600080fd5b50610216610515565b6040516101d691906128a1565b34801561022f57600080fd5b5061024361023e3660046123b8565b610544565b005b34801561025157600080fd5b506101f46102603660046121b9565b610553565b34801561027157600080fd5b506101f4610565565b34801561028657600080fd5b506102436102953660046121d4565b61057c565b3480156102a657600080fd5b506101f4610663565b3480156102bb57600080fd5b506102cf6102ca366004612374565b610672565b6040516101d694939291906127d3565b3480156102eb57600080fd5b506102ff6102fa366004612374565b610901565b6040516101d6919061288d565b34801561031857600080fd5b50610243610327366004612374565b610a83565b34801561033857600080fd5b50610341610cec565b6040516101d69190612684565b34801561035a57600080fd5b506102436103693660046123e7565b610cfb565b34801561037a57600080fd5b50610341610e8e565b34801561038f57600080fd5b50610243610e9d565b3480156103a457600080fd5b506101f4610ed9565b3480156103b957600080fd5b506102436103c83660046121d4565b610ede565b3480156103d957600080fd5b506101f4610fb3565b3480156103ee57600080fd5b50610243610fc1565b34801561040357600080fd5b50610341611046565b34801561041857600080fd5b506101f4611055565b34801561042d57600080fd5b506101f461043c3660046121fe565b61105b565b34801561044d57600080fd5b5061024361045c366004612374565b61147b565b34801561046d57600080fd5b506101f46116e5565b34801561048257600080fd5b5061049661049136600461238c565b6116f1565b6040516101d69190613017565b6102436104b1366004612374565b611760565b6004602052600090815260409020805460018201546002830154600784015460088501546009860154600a870154600b9097015495966001600160a01b0390951695939492939192909160ff8082169161010090041689565b60015b90565b6040518060400160405280601381526020017245504e5320476f7665726e6f7220416c70686160681b81525081565b61054f338383611925565b5050565b60056020526000908152604090205481565b604051610571906125f0565b604051809103902081565b6002546001600160a01b031633146105af5760405162461bcd60e51b81526004016105a690612a2e565b60405180910390fd5b600080546040516001600160a01b0390911691630825f38f918391906105d9908790602001612684565b604051602081830303815290604052856040518563ffffffff1660e01b815260040161060894939291906126b1565b600060405180830381600087803b15801561062257600080fd5b505af1158015610636573d6000803e3d6000fd5b505050506040513d6000823e601f3d908101601f1916820160405261065e91908101906122fe565b505050565b6a211654585005212800000090565b606080606080600060046000878152602001908152602001600020905080600301816004018260050183600601838054806020026020016040519081016040528092919081815260200182805480156106f457602002820191906000526020600020905b81546001600160a01b031681526001909101906020018083116106d6575b505050505093508280548060200260200160405190810160405280929190818152602001828054801561074657602002820191906000526020600020905b815481526020019060010190808311610732575b5050505050925081805480602002602001604051908101604052809291908181526020016000905b828210156108195760008481526020908190208301805460408051601f60026000196101006001871615020190941693909304928301859004850281018501909152818152928301828280156108055780601f106107da57610100808354040283529160200191610805565b820191906000526020600020905b8154815290600101906020018083116107e857829003601f168201915b50505050508152602001906001019061076e565b50505050915080805480602002602001604051908101604052809291908181526020016000905b828210156108eb5760008481526020908190208301805460408051601f60026000196101006001871615020190941693909304928301859004850281018501909152818152928301828280156108d75780601f106108ac576101008083540402835291602001916108d7565b820191906000526020600020905b8154815290600101906020018083116108ba57829003601f168201915b505050505081526020019060010190610840565b5050505090509450945094509450509193509193565b600081600354101580156109155750600082115b6109315760405162461bcd60e51b81526004016105a690612aa0565b6000828152600460205260409020600b81015460ff1615610956576002915050610a7e565b8060070154431161096b576000915050610a7e565b80600801544311610980576001915050610a7e565b80600a015481600901541115806109a1575061099a610663565b8160090154105b156109b0576003915050610a7e565b60028101546109c3576004915050610a7e565b600b810154610100900460ff16156109df576007915050610a7e565b6002810154600054604080516360d143f160e11b81529051610a6893926001600160a01b03169163c1a287e2916004808301926020929190829003018186803b158015610a2b57600080fd5b505afa158015610a3f573d6000803e3d6000fd5b505050506040513d601f19601f82011682018060405250810190610a6391906122e6565b611aee565b4210610a78576006915050610a7e565b60059150505b919050565b6000610a8e82610901565b90506007816007811115610a9e57fe5b1415610abc5760405162461bcd60e51b81526004016105a690612ef2565b60008281526004602052604090206002546001600160a01b0316331480610b875750610ae6610fb3565b60018054838201546001600160a01b039182169263782d6fe19290911690610b0f904390611b1a565b6040518363ffffffff1660e01b8152600401610b2c929190612698565b60206040518083038186803b158015610b4457600080fd5b505afa158015610b58573d6000803e3d6000fd5b505050506040513d601f19601f82011682018060405250810190610b7c919061243d565b6001600160601b0316105b610ba35760405162461bcd60e51b81526004016105a690612cbe565b600b8101805460ff1916600117905560005b6003820154811015610caf576000546003830180546001600160a01b039092169163591fcdfe919084908110610be757fe5b6000918252602090912001546004850180546001600160a01b039092169185908110610c0f57fe5b9060005260206000200154856005018581548110610c2957fe5b90600052602060002001866006018681548110610c4257fe5b9060005260206000200187600201546040518663ffffffff1660e01b8152600401610c7195949392919061279a565b600060405180830381600087803b158015610c8b57600080fd5b505af1158015610c9f573d6000803e3d6000fd5b505060019092019150610bb59050565b507f789cf55be980739dad1d0699b93b58e806b51c9d96619bfa8fe0a28abaa7b30c83604051610cdf919061282a565b60405180910390a1505050565b6002546001600160a01b031681565b6000604051610d09906125f0565b60408051918290038220828201909152601382527245504e5320476f7665726e6f7220416c70686160681b6020909201919091527f6e5b3d0e2c0bcbfb6aee881183fbf0716badcb7297447174751882fa7dc5d3c6610d66611b42565b30604051602001610d7a9493929190612833565b6040516020818303038152906040528051906020012090506000604051610da09061264b565b604051908190038120610db99189908990602001612857565b60405160208183030381529060405280519060200120905060008282604051602001610de69291906125d5565b604051602081830303815290604052805190602001209050600060018288888860405160008152602001604052604051610e23949392919061286f565b6020604051602081039080840390855afa158015610e45573d6000803e3d6000fd5b5050604051601f1901519150506001600160a01b038116610e785760405162461bcd60e51b81526004016105a690612e20565b610e83818a8a611925565b505050505050505050565b6001546001600160a01b031681565b6002546001600160a01b03163314610ec75760405162461bcd60e51b81526004016105a690612fc1565b600280546001600160a01b0319169055565b600a90565b6002546001600160a01b03163314610f085760405162461bcd60e51b81526004016105a690612bb9565b600080546040516001600160a01b0390911691633a66f90191839190610f32908790602001612684565b604051602081830303815290604052856040518563ffffffff1660e01b8152600401610f6194939291906126b1565b602060405180830381600087803b158015610f7b57600080fd5b505af1158015610f8f573d6000803e3d6000fd5b505050506040513d601f19601f8201168201806040525081019061065e91906122e6565b6969e10de76676d080000090565b6002546001600160a01b03163314610feb5760405162461bcd60e51b81526004016105a6906128b4565b6000805460408051630e18b68160e01b815290516001600160a01b0390921692630e18b6819260048084019382900301818387803b15801561102c57600080fd5b505af1158015611040573d6000803e3d6000fd5b50505050565b6000546001600160a01b031681565b60035481565b6000611065610fb3565b600180546001600160a01b03169063782d6fe1903390611086904390611b1a565b6040518363ffffffff1660e01b81526004016110a3929190612698565b60206040518083038186803b1580156110bb57600080fd5b505afa1580156110cf573d6000803e3d6000fd5b505050506040513d601f19601f820116820180604052508101906110f3919061243d565b6001600160601b0316116111195760405162461bcd60e51b81526004016105a690612dc3565b8451865114801561112b575083518651145b8015611138575082518651145b6111545760405162461bcd60e51b81526004016105a690612c54565b85516111725760405162461bcd60e51b81526004016105a690612d77565b61117a610ed9565b8651111561119a5760405162461bcd60e51b81526004016105a690612911565b3360009081526005602052604090205480156112175760006111bb82610901565b905060018160078111156111cb57fe5b14156111e95760405162461bcd60e51b81526004016105a690612e6f565b60008160078111156111f757fe5b14156112155760405162461bcd60e51b81526004016105a690612b36565b505b600061122543610a6361050f565b9050600061123582610a6361050f565b6003805460010190559050611248611ca5565b604051806101a001604052806003548152602001336001600160a01b03168152602001600081526020018b81526020018a815260200189815260200188815260200184815260200183815260200160008152602001600081526020016000151581526020016000151581525090508060046000836000015181526020019081526020016000206000820151816000015560208201518160010160006101000a8154816001600160a01b0302191690836001600160a01b0316021790555060408201518160020155606082015181600301908051906020019061132b929190611d1a565b5060808201518051611347916004840191602090910190611d7f565b5060a08201518051611363916005840191602090910190611dc6565b5060c0820151805161137f916006840191602090910190611e1f565b5060e082015181600701556101008201518160080155610120820151816009015561014082015181600a015561016082015181600b0160006101000a81548160ff02191690831515021790555061018082015181600b0160016101000a81548160ff02191690831515021790555090505080600001516005600083602001516001600160a01b03166001600160a01b03168152602001908152602001600020819055507f7d84a6263ae0d98d3329bd7b46bb4e8d6f98cd35a7adb45c274c8b7fd5ebd5e08160000151338c8c8c8c89898e60405161146599989796959493929190613045565b60405180910390a1519998505050505050505050565b600461148682610901565b600781111561149157fe5b146114ae5760405162461bcd60e51b81526004016105a690612959565b600081815260046020818152604080842084548251630d48571f60e31b815292519195946115039442946001600160a01b0390931693636a42b8f8938084019390829003018186803b158015610a2b57600080fd5b905060005b60038301548110156116ab576116a383600301828154811061152657fe5b6000918252602090912001546004850180546001600160a01b03909216918490811061154e57fe5b906000526020600020015485600501848154811061156857fe5b600091825260209182902001805460408051601f60026000196101006001871615020190941693909304928301859004850281018501909152818152928301828280156115f65780601f106115cb576101008083540402835291602001916115f6565b820191906000526020600020905b8154815290600101906020018083116115d957829003601f168201915b505050505086600601858154811061160a57fe5b600091825260209182902001805460408051601f60026000196101006001871615020190941693909304928301859004850281018501909152818152928301828280156116985780601f1061166d57610100808354040283529160200191611698565b820191906000526020600020905b81548152906001019060200180831161167b57829003601f168201915b505050505086611b46565b600101611508565b50600282018190556040517f9a2e42fd6722813d69113e7d0079d3d940171428df7373df9c7f7617cfda289290610cdf9085908490613127565b6040516105719061264b565b6116f9611e78565b5060008281526004602090815260408083206001600160a01b0385168452600c018252918290208251606081018452905460ff80821615158352610100820416151592820192909252620100009091046001600160601b0316918101919091525b92915050565b600561176b82610901565b600781111561177657fe5b146117935760405162461bcd60e51b81526004016105a6906129c3565b6000818152600460205260408120600b8101805461ff001916610100179055905b60038201548110156118e9576000546004830180546001600160a01b0390921691630825f38f9190849081106117e657fe5b906000526020600020015484600301848154811061180057fe5b6000918252602090912001546004860180546001600160a01b03909216918690811061182857fe5b906000526020600020015486600501868154811061184257fe5b9060005260206000200187600601878154811061185b57fe5b9060005260206000200188600201546040518763ffffffff1660e01b815260040161188a95949392919061279a565b6000604051808303818588803b1580156118a357600080fd5b505af11580156118b7573d6000803e3d6000fd5b50505050506040513d6000823e601f3d908101601f191682016040526118e091908101906122fe565b506001016117b4565b507f712ae1383f79ac853f8d882153778e0260ef8f03b504e2866e0593e04d2b291f82604051611919919061282a565b60405180910390a15050565b600161193083610901565b600781111561193b57fe5b146119585760405162461bcd60e51b81526004016105a690612f48565b60008281526004602090815260408083206001600160a01b0387168452600c8101909252909120805460ff16156119a15760405162461bcd60e51b81526004016105a690612ae9565b600154600783015460405163782d6fe160e01b81526000926001600160a01b03169163782d6fe1916119d7918a91600401612698565b60206040518083038186803b1580156119ef57600080fd5b505afa158015611a03573d6000803e3d6000fd5b505050506040513d601f19601f82011682018060405250810190611a27919061243d565b90508315611a5057611a468360090154826001600160601b0316611aee565b6009840155611a6d565b611a6783600a0154826001600160601b0316611aee565b600a8401555b8154600160ff199091161761ff00191661010085151502176dffffffffffffffffffffffff00001916620100006001600160601b038316021782556040517f877856338e13f63d0c36822ff0ef736b80934cd90574a3a5bc9262c39d217c4690611ade90889088908890869061271d565b60405180910390a1505050505050565b600082820183811015611b135760405162461bcd60e51b81526004016105a690612c29565b9392505050565b600082821115611b3c5760405162461bcd60e51b81526004016105a690612f92565b50900390565b4690565b6000546040516001600160a01b039091169063f2b0653790611b74908890889088908890889060200161274e565b604051602081830303815290604052805190602001206040518263ffffffff1660e01b8152600401611ba6919061282a565b60206040518083038186803b158015611bbe57600080fd5b505afa158015611bd2573d6000803e3d6000fd5b505050506040513d601f19601f82011682018060405250810190611bf691906122ca565b15611c135760405162461bcd60e51b81526004016105a690612d0d565b600054604051633a66f90160e01b81526001600160a01b0390911690633a66f90190611c4b908890889088908890889060040161274e565b602060405180830381600087803b158015611c6557600080fd5b505af1158015611c79573d6000803e3d6000fd5b505050506040513d601f19601f82011682018060405250810190611c9d91906122e6565b505050505050565b604051806101a001604052806000815260200160006001600160a01b031681526020016000815260200160608152602001606081526020016060815260200160608152602001600081526020016000815260200160008152602001600081526020016000151581526020016000151581525090565b828054828255906000526020600020908101928215611d6f579160200282015b82811115611d6f57825182546001600160a01b0319166001600160a01b03909116178255602090920191600190910190611d3a565b50611d7b929150611e98565b5090565b828054828255906000526020600020908101928215611dba579160200282015b82811115611dba578251825591602001919060010190611d9f565b50611d7b929150611ebc565b828054828255906000526020600020908101928215611e13579160200282015b82811115611e135782518051611e03918491602090910190611ed6565b5091602001919060010190611de6565b50611d7b929150611f43565b828054828255906000526020600020908101928215611e6c579160200282015b82811115611e6c5782518051611e5c918491602090910190611ed6565b5091602001919060010190611e3f565b50611d7b929150611f66565b604080516060810182526000808252602082018190529181019190915290565b61051291905b80821115611d7b5780546001600160a01b0319168155600101611e9e565b61051291905b80821115611d7b5760008155600101611ec2565b828054600181600116156101000203166002900490600052602060002090601f016020900481019282601f10611f1757805160ff1916838001178555611dba565b82800160010185558215611dba5791820182811115611dba578251825591602001919060010190611d9f565b61051291905b80821115611d7b576000611f5d8282611f89565b50600101611f49565b61051291905b80821115611d7b576000611f808282611f89565b50600101611f6c565b50805460018160011615610100020316600290046000825580601f10611faf5750611fcd565b601f016020900490600052602060002090810190611fcd9190611ebc565b50565b80356001600160a01b038116811461175a57600080fd5b600082601f830112611ff7578081fd5b813561200a6120058261315c565b613135565b81815291506020808301908481018184028601820187101561202b57600080fd5b60005b84811015612052576120408883611fd0565b8452928201929082019060010161202e565b505050505092915050565b600082601f83011261206d578081fd5b813561207b6120058261315c565b818152915060208083019084810160005b84811015612052576120a3888484358a010161216b565b8452928201929082019060010161208c565b600082601f8301126120c5578081fd5b81356120d36120058261315c565b818152915060208083019084810160005b84811015612052576120fb888484358a010161216b565b845292820192908201906001016120e4565b600082601f83011261211d578081fd5b813561212b6120058261315c565b81815291506020808301908481018184028601820187101561214c57600080fd5b60005b848110156120525781358452928201929082019060010161214f565b600082601f83011261217b578081fd5b81356121896120058261317c565b91508082528360208285010111156121a057600080fd5b8060208401602084013760009082016020015292915050565b6000602082840312156121ca578081fd5b611b138383611fd0565b600080604083850312156121e6578081fd5b6121f08484611fd0565b946020939093013593505050565b600080600080600060a08688031215612215578081fd5b853567ffffffffffffffff8082111561222c578283fd5b61223889838a01611fe7565b9650602088013591508082111561224d578283fd5b61225989838a0161210d565b9550604088013591508082111561226e578283fd5b61227a89838a016120b5565b9450606088013591508082111561228f578283fd5b61229b89838a0161205d565b935060808801359150808211156122b0578283fd5b506122bd8882890161216b565b9150509295509295909350565b6000602082840312156122db578081fd5b8151611b13816131d8565b6000602082840312156122f7578081fd5b5051919050565b60006020828403121561230f578081fd5b815167ffffffffffffffff811115612325578182fd5b80830184601f820112612336578283fd5b805191506123466120058361317c565b82815285602084840101111561235a578384fd5b61236b8360208301602085016131ac565b95945050505050565b600060208284031215612385578081fd5b5035919050565b6000806040838503121561239e578182fd5b823591506123af8460208501611fd0565b90509250929050565b600080604083850312156123ca578182fd5b8235915060208301356123dc816131d8565b809150509250929050565b600080600080600060a086880312156123fe578283fd5b853594506020860135612410816131d8565b9350604086013560ff81168114612425578384fd5b94979396509394606081013594506080013592915050565b60006020828403121561244e578081fd5b81516001600160601b0381168114611b13578182fd5b6000815180845260208085019450808401835b8381101561249c5781516001600160a01b031687529582019590820190600101612477565b509495945050505050565b6000815180845260208085019450848183028601828601855b858110156124ea5783830389526124d8838351612526565b988501989250908401906001016124c0565b5090979650505050505050565b6000815180845260208085019450808401835b8381101561249c5781518752958201959082019060010161250a565b6000815180845261253e8160208601602086016131ac565b601f01601f19169290920160200192915050565b60008154600180821660008114612570576001811461258e576125cc565b60028304607f16865260ff19831660208701526040860193506125cc565b6002830480875261259e866131a0565b60005b828110156125c25781546020828b01015284820191506020810190506125a1565b8801602001955050505b50505092915050565b61190160f01b81526002810192909252602282015260420190565b7f454950373132446f6d61696e28737472696e67206e616d652c75696e7432353681527f20636861696e49642c6164647265737320766572696679696e67436f6e74726160208201526263742960e81b604082015260430190565b7f42616c6c6f742875696e743235362070726f706f73616c49642c626f6f6c20738152667570706f72742960c81b602082015260270190565b6001600160a01b0391909116815260200190565b6001600160a01b03929092168252602082015260400190565b600060018060a01b038616825284602083015260a06040830152601860a08301527f73657450656e64696e6741646d696e286164647265737329000000000000000060c083015260e0606083015261270c60e0830185612526565b905082608083015295945050505050565b6001600160a01b039490941684526020840192909252151560408301526001600160601b0316606082015260800190565b600060018060a01b038716825285602083015260a0604083015261277560a0830186612526565b82810360608401526127878186612526565b9150508260808301529695505050505050565b600060018060a01b038716825285602083015260a060408301526127c160a0830186612552565b82810360608401526127878186612552565b6000608082526127e66080830187612464565b82810360208401526127f881876124f7565b838103604085015261280a81876124a7565b915050828103606084015261281f81856124a7565b979650505050505050565b90815260200190565b938452602084019290925260408301526001600160a01b0316606082015260800190565b92835260208301919091521515604082015260600190565b93845260ff9290921660208401526040830152606082015260800190565b602081016008831061289b57fe5b91905290565b600060208252611b136020830184612526565b60208082526039908201527f476f7665726e6f72416c7068613a3a5f5f61636365707441646d696e3a20736560408201527f6e646572206d75737420626520676f7620677561726469616e00000000000000606082015260800190565b60208082526028908201527f476f7665726e6f72416c7068613a3a70726f706f73653a20746f6f2045504e5360408201526720616374696f6e7360c01b606082015260800190565b60208082526044908201527f476f7665726e6f72416c7068613a3a71756575653a2070726f706f73616c206360408201527f616e206f6e6c79206265207175657565642069662069742069732073756363656060820152631959195960e21b608082015260a00190565b60208082526045908201527f476f7665726e6f72416c7068613a3a657865637574653a2070726f706f73616c60408201527f2063616e206f6e6c7920626520657865637574656420696620697420697320716060820152641d595d595960da1b608082015260a00190565b6020808252604c908201527f476f7665726e6f72416c7068613a3a5f5f6578656375746553657454696d656c60408201527f6f636b50656e64696e6741646d696e3a2073656e646572206d7573742062652060608201526b33b7bb1033bab0b93234b0b760a11b608082015260a00190565b60208082526029908201527f476f7665726e6f72416c7068613a3a73746174653a20696e76616c69642070726040820152681bdc1bdcd85b081a5960ba1b606082015260800190565b6020808252602d908201527f476f7665726e6f72416c7068613a3a5f63617374566f74653a20766f7465722060408201526c185b1c9958591e481d9bdd1959609a1b606082015260800190565b60208082526059908201527f476f7665726e6f72416c7068613a3a70726f706f73653a206f6e65206c69766560408201527f2070726f706f73616c207065722070726f706f7365722c20666f756e6420616e60608201527f20616c72656164792070656e64696e672070726f706f73616c00000000000000608082015260a00190565b6020808252604a908201527f476f7665726e6f72416c7068613a3a5f5f717565756553657454696d656c6f6360408201527f6b50656e64696e6741646d696e3a2073656e646572206d75737420626520676f6060820152693b1033bab0b93234b0b760b11b608082015260a00190565b6020808252601190820152706164646974696f6e206f766572666c6f7760781b604082015260600190565b60208082526044908201527f476f7665726e6f72416c7068613a3a70726f706f73653a2070726f706f73616c60408201527f2066756e6374696f6e20696e666f726d6174696f6e206172697479206d69736d6060820152630c2e8c6d60e31b608082015260a00190565b6020808252602f908201527f476f7665726e6f72416c7068613a3a63616e63656c3a2070726f706f7365722060408201526e18589bdd99481d1a1c995cda1bdb19608a1b606082015260800190565b60208082526044908201527f476f7665726e6f72416c7068613a3a5f71756575654f725265766572743a207060408201527f726f706f73616c20616374696f6e20616c7265616479207175657565642061746060820152632065746160e01b608082015260a00190565b6020808252602c908201527f476f7665726e6f72416c7068613a3a70726f706f73653a206d7573742070726f60408201526b7669646520616374696f6e7360a01b606082015260800190565b6020808252603f908201527f476f7665726e6f72416c7068613a3a70726f706f73653a2070726f706f73657260408201527f20766f7465732062656c6f772070726f706f73616c207468726573686f6c6400606082015260800190565b6020808252602f908201527f476f7665726e6f72416c7068613a3a63617374566f746542795369673a20696e60408201526e76616c6964207369676e617475726560881b606082015260800190565b60208082526058908201527f476f7665726e6f72416c7068613a3a70726f706f73653a206f6e65206c69766560408201527f2070726f706f73616c207065722070726f706f7365722c20666f756e6420616e60608201527f20616c7265616479206163746976652070726f706f73616c0000000000000000608082015260a00190565b60208082526036908201527f476f7665726e6f72416c7068613a3a63616e63656c3a2063616e6e6f742063616040820152751b98d95b08195e1958dd5d1959081c1c9bdc1bdcd85b60521b606082015260800190565b6020808252602a908201527f476f7665726e6f72416c7068613a3a5f63617374566f74653a20766f74696e67604082015269081a5cc818db1bdcd95960b21b606082015260800190565b6020808252601590820152747375627472616374696f6e20756e646572666c6f7760581b604082015260600190565b60208082526036908201527f476f7665726e6f72416c7068613a3a5f5f61626469636174653a2073656e6465604082015275391036bab9ba1031329033b7bb1033bab0b93234b0b760511b606082015260800190565b8151151581526020808301511515908201526040918201516001600160601b03169181019190915260600190565b8981526001600160a01b0389166020820152610120604082018190526000906130708382018b612464565b8381036060850152613082818b6124f7565b915050828103608084015261309781896124a7565b83810360a08501526130a981896124a7565b9150508560c08401528460e08401528281036101008401526130cb8185612526565b9c9b505050505050505050505050565b9889526001600160a01b0397909716602089015260408801959095526060870193909352608086019190915260a085015260c0840152151560e083015215156101008201526101200190565b918252602082015260400190565b60405181810167ffffffffffffffff8111828210171561315457600080fd5b604052919050565b600067ffffffffffffffff821115613172578081fd5b5060209081020190565b600067ffffffffffffffff821115613192578081fd5b50601f01601f191660200190565b60009081526020902090565b60005b838110156131c75781810151838201526020016131af565b838111156110405750506000910152565b8015158114611fcd57600080fdfea2646970667358221220b4aba7f044799fee7aff51ddbaba4d37d11e0fbfb2795bdade75d02b5115c54164736f6c634300060b0033",
  "linkReferences": {},
  "deployedLinkReferences": {}
}