{"abi":[{"type":"function","name":"ADD_CHANNEL_MIN_FEES","inputs":[],"outputs":[{"name":"","type":"uint256","internalType":"uint256"}],"stateMutability":"view"},{"type":"function","name":"DOMAIN_TYPEHASH","inputs":[],"outputs":[{"name":"","type":"bytes32","internalType":"bytes32"}],"stateMutability":"view"},{"type":"function","name":"EPNSCoreAddress","inputs":[],"outputs":[{"name":"","type":"address","internalType":"address"}],"stateMutability":"view"},{"type":"function","name":"FEE_AMOUNT","inputs":[],"outputs":[{"name":"","type":"uint256","internalType":"uint256"}],"stateMutability":"view"},{"type":"function","name":"NAME_HASH","inputs":[],"outputs":[{"name":"","type":"bytes32","internalType":"bytes32"}],"stateMutability":"view"},{"type":"function","name":"NTT_MANAGER","inputs":[],"outputs":[{"name":"","type":"address","internalType":"contract INttManager"}],"stateMutability":"view"},{"type":"function","name":"PROTOCOL_POOL_FEE","inputs":[],"outputs":[{"name":"","type":"uint256","internalType":"uint256"}],"stateMutability":"view"},{"type":"function","name":"PUSH_NTT","inputs":[],"outputs":[{"name":"","type":"address","internalType":"contract IERC20"}],"stateMutability":"view"},{"type":"function","name":"PUSH_TOKEN_ADDRESS","inputs":[],"outputs":[{"name":"","type":"address","internalType":"address"}],"stateMutability":"view"},{"type":"function","name":"SEND_NOTIFICATION_TYPEHASH","inputs":[],"outputs":[{"name":"","type":"bytes32","internalType":"bytes32"}],"stateMutability":"view"},{"type":"function","name":"SUBSCRIBE_TYPEHASH","inputs":[],"outputs":[{"name":"","type":"bytes32","internalType":"bytes32"}],"stateMutability":"view"},{"type":"function","name":"UNSUBSCRIBE_TYPEHASH","inputs":[],"outputs":[{"name":"","type":"bytes32","internalType":"bytes32"}],"stateMutability":"view"},{"type":"function","name":"WORMHOLE_RECIPIENT_CHAIN","inputs":[],"outputs":[{"name":"","type":"uint16","internalType":"uint16"}],"stateMutability":"view"},{"type":"function","name":"WORMHOLE_RELAYER","inputs":[],"outputs":[{"name":"","type":"address","internalType":"contract IWormholeRelayer"}],"stateMutability":"view"},{"type":"function","name":"WORMHOLE_TRANSCEIVER","inputs":[],"outputs":[{"name":"","type":"address","internalType":"contract IWormholeTransceiver"}],"stateMutability":"view"},{"type":"function","name":"addDelegate","inputs":[{"name":"_delegate","type":"address","internalType":"address"}],"outputs":[],"stateMutability":"nonpayable"},{"type":"function","name":"batchSubscribe","inputs":[{"name":"_channelList","type":"address[]","internalType":"address[]"}],"outputs":[{"name":"","type":"bool","internalType":"bool"}],"stateMutability":"nonpayable"},{"type":"function","name":"batchUnsubscribe","inputs":[{"name":"_channelList","type":"address[]","internalType":"address[]"}],"outputs":[{"name":"","type":"bool","internalType":"bool"}],"stateMutability":"nonpayable"},{"type":"function","name":"chainID","inputs":[],"outputs":[{"name":"","type":"uint256","internalType":"uint256"}],"stateMutability":"view"},{"type":"function","name":"chainName","inputs":[],"outputs":[{"name":"","type":"string","internalType":"string"}],"stateMutability":"view"},{"type":"function","name":"changeUserChannelSettings","inputs":[{"name":"_channel","type":"address","internalType":"address"},{"name":"_notifID","type":"uint256","internalType":"uint256"},{"name":"_notifSettings","type":"string","internalType":"string"}],"outputs":[],"stateMutability":"nonpayable"},{"type":"function","name":"createCrossChainRequest","inputs":[{"name":"functionType","type":"uint8","internalType":"enum CrossChainRequestTypes.CrossChainFunction"},{"name":"payload","type":"bytes","internalType":"bytes"},{"name":"amount","type":"uint256","internalType":"uint256"},{"name":"gasLimit","type":"uint256","internalType":"uint256"}],"outputs":[],"stateMutability":"payable"},{"type":"function","name":"delegatedNotificationSenders","inputs":[{"name":"","type":"address","internalType":"address"},{"name":"","type":"address","internalType":"address"}],"outputs":[{"name":"","type":"bool","internalType":"bool"}],"stateMutability":"view"},{"type":"function","name":"governance","inputs":[],"outputs":[{"name":"","type":"address","internalType":"address"}],"stateMutability":"view"},{"type":"function","name":"initialize","inputs":[{"name":"_pushChannelAdmin","type":"address","internalType":"address"},{"name":"_chainName","type":"string","internalType":"string"}],"outputs":[{"name":"","type":"bool","internalType":"bool"}],"stateMutability":"nonpayable"},{"type":"function","name":"isMigrationComplete","inputs":[],"outputs":[{"name":"","type":"bool","internalType":"bool"}],"stateMutability":"view"},{"type":"function","name":"isUserSubscribed","inputs":[{"name":"_channel","type":"address","internalType":"address"},{"name":"_user","type":"address","internalType":"address"}],"outputs":[{"name":"","type":"bool","internalType":"bool"}],"stateMutability":"view"},{"type":"function","name":"mapAddressUsers","inputs":[{"name":"","type":"uint256","internalType":"uint256"}],"outputs":[{"name":"","type":"address","internalType":"address"}],"stateMutability":"view"},{"type":"function","name":"name","inputs":[],"outputs":[{"name":"","type":"string","internalType":"string"}],"stateMutability":"view"},{"type":"function","name":"nonces","inputs":[{"name":"","type":"address","internalType":"address"}],"outputs":[{"name":"","type":"uint256","internalType":"uint256"}],"stateMutability":"view"},{"type":"function","name":"pauseContract","inputs":[],"outputs":[],"stateMutability":"nonpayable"},{"type":"function","name":"paused","inputs":[],"outputs":[{"name":"","type":"bool","internalType":"bool"}],"stateMutability":"view"},{"type":"function","name":"pushChannelAdmin","inputs":[],"outputs":[{"name":"","type":"address","internalType":"address"}],"stateMutability":"view"},{"type":"function","name":"quoteMsgRelayCost","inputs":[{"name":"targetChain","type":"uint16","internalType":"uint16"},{"name":"gasLimit","type":"uint256","internalType":"uint256"}],"outputs":[{"name":"cost","type":"uint256","internalType":"uint256"}],"stateMutability":"view"},{"type":"function","name":"quoteTokenBridgingCost","inputs":[],"outputs":[{"name":"cost","type":"uint256","internalType":"uint256"}],"stateMutability":"view"},{"type":"function","name":"removeChannelAlias","inputs":[{"name":"_channelAddress","type":"string","internalType":"string"}],"outputs":[],"stateMutability":"nonpayable"},{"type":"function","name":"removeDelegate","inputs":[{"name":"_delegate","type":"address","internalType":"address"}],"outputs":[],"stateMutability":"nonpayable"},{"type":"function","name":"sendNotifBySig","inputs":[{"name":"_channel","type":"address","internalType":"address"},{"name":"_recipient","type":"address","internalType":"address"},{"name":"_signer","type":"address","internalType":"address"},{"name":"_identity","type":"bytes","internalType":"bytes"},{"name":"nonce","type":"uint256","internalType":"uint256"},{"name":"expiry","type":"uint256","internalType":"uint256"},{"name":"v","type":"uint8","internalType":"uint8"},{"name":"r","type":"bytes32","internalType":"bytes32"},{"name":"s","type":"bytes32","internalType":"bytes32"}],"outputs":[{"name":"","type":"bool","internalType":"bool"}],"stateMutability":"nonpayable"},{"type":"function","name":"sendNotification","inputs":[{"name":"_channel","type":"address","internalType":"address"},{"name":"_recipient","type":"address","internalType":"address"},{"name":"_identity","type":"bytes","internalType":"bytes"}],"outputs":[{"name":"","type":"bool","internalType":"bool"}],"stateMutability":"nonpayable"},{"type":"function","name":"setBridgeConfig","inputs":[{"name":"_pushNTT","type":"address","internalType":"address"},{"name":"_nttManager","type":"address","internalType":"address"},{"name":"_wormholeTransceiver","type":"address","internalType":"contract IWormholeTransceiver"},{"name":"_wormholeRelayerAddress","type":"address","internalType":"contract IWormholeRelayer"},{"name":"_recipientChain","type":"uint16","internalType":"uint16"}],"outputs":[],"stateMutability":"nonpayable"},{"type":"function","name":"setCoreFeeConfig","inputs":[{"name":"_minChannelCreationFee","type":"uint256","internalType":"uint256"},{"name":"_feeAmount","type":"uint256","internalType":"uint256"}],"outputs":[],"stateMutability":"nonpayable"},{"type":"function","name":"setEPNSCoreAddress","inputs":[{"name":"_coreAddress","type":"address","internalType":"address"}],"outputs":[],"stateMutability":"nonpayable"},{"type":"function","name":"setGovernanceAddress","inputs":[{"name":"_governanceAddress","type":"address","internalType":"address"}],"outputs":[],"stateMutability":"nonpayable"},{"type":"function","name":"setPushTokenAddress","inputs":[{"name":"_tokenAddress","type":"address","internalType":"address"}],"outputs":[],"stateMutability":"nonpayable"},{"type":"function","name":"subscribe","inputs":[{"name":"_channel","type":"address","internalType":"address"}],"outputs":[{"name":"","type":"bool","internalType":"bool"}],"stateMutability":"nonpayable"},{"type":"function","name":"subscribeBySig","inputs":[{"name":"channel","type":"address","internalType":"address"},{"name":"subscriber","type":"address","internalType":"address"},{"name":"nonce","type":"uint256","internalType":"uint256"},{"name":"expiry","type":"uint256","internalType":"uint256"},{"name":"v","type":"uint8","internalType":"uint8"},{"name":"r","type":"bytes32","internalType":"bytes32"},{"name":"s","type":"bytes32","internalType":"bytes32"}],"outputs":[],"stateMutability":"nonpayable"},{"type":"function","name":"subscribeViaCore","inputs":[{"name":"_channel","type":"address","internalType":"address"},{"name":"_user","type":"address","internalType":"address"}],"outputs":[{"name":"","type":"bool","internalType":"bool"}],"stateMutability":"nonpayable"},{"type":"function","name":"transferFeePoolToCore","inputs":[{"name":"amount","type":"uint256","internalType":"uint256"},{"name":"gasLimit","type":"uint256","internalType":"uint256"}],"outputs":[],"stateMutability":"payable"},{"type":"function","name":"transferPushChannelAdminControl","inputs":[{"name":"_newAdmin","type":"address","internalType":"address"}],"outputs":[],"stateMutability":"nonpayable"},{"type":"function","name":"unPauseContract","inputs":[],"outputs":[],"stateMutability":"nonpayable"},{"type":"function","name":"unSubscribeViaCore","inputs":[{"name":"_channel","type":"address","internalType":"address"},{"name":"_user","type":"address","internalType":"address"}],"outputs":[{"name":"","type":"bool","internalType":"bool"}],"stateMutability":"nonpayable"},{"type":"function","name":"unsubscribe","inputs":[{"name":"_channel","type":"address","internalType":"address"}],"outputs":[{"name":"","type":"bool","internalType":"bool"}],"stateMutability":"nonpayable"},{"type":"function","name":"unsubscribeBySig","inputs":[{"name":"channel","type":"address","internalType":"address"},{"name":"subscriber","type":"address","internalType":"address"},{"name":"nonce","type":"uint256","internalType":"uint256"},{"name":"expiry","type":"uint256","internalType":"uint256"},{"name":"v","type":"uint8","internalType":"uint8"},{"name":"r","type":"bytes32","internalType":"bytes32"},{"name":"s","type":"bytes32","internalType":"bytes32"}],"outputs":[],"stateMutability":"nonpayable"},{"type":"function","name":"userChatData","inputs":[{"name":"","type":"address","internalType":"address"}],"outputs":[{"name":"requestSender","type":"address","internalType":"address"},{"name":"timestamp","type":"uint256","internalType":"uint256"},{"name":"amountDeposited","type":"uint256","internalType":"uint256"}],"stateMutability":"view"},{"type":"function","name":"userToChannelNotifs","inputs":[{"name":"","type":"address","internalType":"address"},{"name":"","type":"address","internalType":"address"}],"outputs":[{"name":"","type":"string","internalType":"string"}],"stateMutability":"view"},{"type":"function","name":"users","inputs":[{"name":"","type":"address","internalType":"address"}],"outputs":[{"name":"userActivated","type":"bool","internalType":"bool"},{"name":"publicKeyRegistered","type":"bool","internalType":"bool"},{"name":"userStartBlock","type":"uint256","internalType":"uint256"},{"name":"subscribedCount","type":"uint256","internalType":"uint256"}],"stateMutability":"view"},{"type":"function","name":"usersCount","inputs":[],"outputs":[{"name":"","type":"uint256","internalType":"uint256"}],"stateMutability":"view"},{"type":"function","name":"verifyChannelAlias","inputs":[{"name":"_channelAddress","type":"string","internalType":"string"}],"outputs":[],"stateMutability":"nonpayable"},{"type":"event","name":"AddDelegate","inputs":[{"name":"channel","type":"address","indexed":false,"internalType":"address"},{"name":"delegate","type":"address","indexed":false,"internalType":"address"}],"anonymous":false},{"type":"event","name":"ChannelAlias","inputs":[{"name":"_chainName","type":"string","indexed":false,"internalType":"string"},{"name":"_chainID","type":"uint256","indexed":true,"internalType":"uint256"},{"name":"_channelOwnerAddress","type":"address","indexed":true,"internalType":"address"},{"name":"_ethereumChannelAddress","type":"string","indexed":false,"internalType":"string"}],"anonymous":false},{"type":"event","name":"IncentivizeChatReqInitiated","inputs":[{"name":"requestSender","type":"address","indexed":false,"internalType":"address"},{"name":"requestReceiver","type":"address","indexed":false,"internalType":"address"},{"name":"amountDeposited","type":"uint256","indexed":false,"internalType":"uint256"},{"name":"timestamp","type":"uint256","indexed":false,"internalType":"uint256"}],"anonymous":false},{"type":"event","name":"Initialized","inputs":[{"name":"version","type":"uint8","indexed":false,"internalType":"uint8"}],"anonymous":false},{"type":"event","name":"Paused","inputs":[{"name":"account","type":"address","indexed":false,"internalType":"address"}],"anonymous":false},{"type":"event","name":"PublicKeyRegistered","inputs":[{"name":"owner","type":"address","indexed":true,"internalType":"address"},{"name":"publickey","type":"bytes","indexed":false,"internalType":"bytes"}],"anonymous":false},{"type":"event","name":"RemoveChannelAlias","inputs":[{"name":"_chainName","type":"string","indexed":false,"internalType":"string"},{"name":"_chainID","type":"uint256","indexed":true,"internalType":"uint256"},{"name":"_channelOwnerAddress","type":"address","indexed":true,"internalType":"address"},{"name":"_baseChannelAddress","type":"string","indexed":false,"internalType":"string"}],"anonymous":false},{"type":"event","name":"RemoveDelegate","inputs":[{"name":"channel","type":"address","indexed":false,"internalType":"address"},{"name":"delegate","type":"address","indexed":false,"internalType":"address"}],"anonymous":false},{"type":"event","name":"SendNotification","inputs":[{"name":"channel","type":"address","indexed":true,"internalType":"address"},{"name":"recipient","type":"address","indexed":true,"internalType":"address"},{"name":"identity","type":"bytes","indexed":false,"internalType":"bytes"}],"anonymous":false},{"type":"event","name":"Subscribe","inputs":[{"name":"channel","type":"address","indexed":true,"internalType":"address"},{"name":"user","type":"address","indexed":true,"internalType":"address"}],"anonymous":false},{"type":"event","name":"Unpaused","inputs":[{"name":"account","type":"address","indexed":false,"internalType":"address"}],"anonymous":false},{"type":"event","name":"Unsubscribe","inputs":[{"name":"channel","type":"address","indexed":true,"internalType":"address"},{"name":"user","type":"address","indexed":true,"internalType":"address"}],"anonymous":false},{"type":"event","name":"UserNotifcationSettingsAdded","inputs":[{"name":"_channel","type":"address","indexed":false,"internalType":"address"},{"name":"_user","type":"address","indexed":false,"internalType":"address"},{"name":"_notifID","type":"uint256","indexed":false,"internalType":"uint256"},{"name":"_notifSettings","type":"string","indexed":false,"internalType":"string"}],"anonymous":false},{"type":"error","name":"CallerNotAdmin","inputs":[]},{"type":"error","name":"Comm_InvalidNonce","inputs":[]},{"type":"error","name":"Comm_InvalidSignature_FromContract","inputs":[]},{"type":"error","name":"Comm_InvalidSignature_FromEOA","inputs":[]},{"type":"error","name":"Comm_InvalidSubscriber","inputs":[]},{"type":"error","name":"Comm_TimeExpired","inputs":[{"name":"endTime","type":"uint256","internalType":"uint256"},{"name":"currentTime","type":"uint256","internalType":"uint256"}]},{"type":"error","name":"InsufficientFunds","inputs":[]},{"type":"error","name":"InvalidArg_LessThanExpected","inputs":[{"name":"min_threshold","type":"uint256","internalType":"uint256"},{"name":"actual_value","type":"uint256","internalType":"uint256"}]},{"type":"error","name":"InvalidArgument_WrongAddress","inputs":[{"name":"user","type":"address","internalType":"address"}]},{"type":"error","name":"UnauthorizedCaller","inputs":[{"name":"caller","type":"address","internalType":"address"}]}],"bytecode":{"object":"0x608060405234801561000f575f80fd5b5061471d8061001d5f395ff3fe608060405260043610610370575f3560e01c80637f6c16dc116101c8578063bd90f815116100fd578063e059c6d01161009d578063f50c9e1a1161006d578063f50c9e1a14610c28578063f60eeb7714610c47578063f83c7f7714610c5a578063ffb8488314610c79575f80fd5b8063e059c6d014610b98578063e71bdf4114610bcb578063ed7ee0f614610bea578063f399e22e14610c09575f80fd5b8063cf22d18b116100d8578063cf22d18b14610b1f578063cfc1625414610b34578063d197413f14610b53578063d712808414610b7f575f80fd5b8063bd90f81514610aca578063c175256f14610af6578063c8e4391914610b0b575f80fd5b8063a0e30b2c11610168578063ad5f157411610143578063ad5f157414610a6d578063adc879e914610a82578063ba3d69d714610a97578063bac1520314610ab6575f80fd5b8063a0e30b2c146109a0578063a87430ba146109bf578063aab0cab814610a28575f80fd5b806392d41a53116101a357806392d41a531461093057806393b56a321461094f5780639c1727f51461096e5780639ceef05a1461098d575f80fd5b80637f6c16dc146108b957806380d4a43a146108d85780638cfbc3e014610904575f80fd5b806342564cb4116102a957806367e7646f1161024957806371fed0921161021957806371fed092146108315780637262561c1461085057806373ec8cfb1461086f5780637ecebe001461088e575f80fd5b806367e7646f146107985780636ba13a82146107b75780636cf124f2146107cc5780636e0d232c146107f8575f80fd5b80635227dd05116102845780635227dd05146106f557806356aaba49146107365780635aa6e675146107555780635c975abb14610781575f80fd5b806342564cb414610691578063439766ce146106c257806344c3bca5146106d6575f80fd5b80631c93b03a1161031457806337a4ebb8116102ef57806337a4ebb8146105b15780633e5b73c6146105d05780633f6109fb1461065357806341a7726a14610672575f80fd5b80631c93b03a1461054b57806320606b701461055f57806330da443a14610592575f80fd5b806304622c2e1161034f57806304622c2e1461040a57806306fdde03146104725780630f1f9cfc146104c757806317aeae5814610518575f80fd5b806224be7a14610374578063017d5efe146103a8578063040e80ed146103c9575b5f80fd5b34801561037f575f80fd5b5061039361038e3660046139e4565b610c98565b60405190151581526020015b60405180910390f35b3480156103b3575f80fd5b506103c76103c2366004613a74565b610ce9565b005b3480156103d4575f80fd5b506103fc7f25283200315ac15e79f5b17ebe844bb8f5facab77bd5c9c8f8d4b592b9949d8981565b60405190815260200161039f565b348015610415575f80fd5b5060408051808201909152600c81527f45504e5320434f4d4d20563100000000000000000000000000000000000000006020909101526103fc7f7c232e0a8d7516843ab49a97f72ad251bb744a65be4e5bc6de77904d54673db981565b34801561047d575f80fd5b506104ba6040518060400160405280600c81526020017f45504e5320434f4d4d205631000000000000000000000000000000000000000081525081565b60405161039f9190613afa565b3480156104d2575f80fd5b506011546104f39073ffffffffffffffffffffffffffffffffffffffff1681565b60405173ffffffffffffffffffffffffffffffffffffffff909116815260200161039f565b348015610523575f80fd5b506103fc7fa3e12f3a1cbc87b63b39a5ed58d9a2941caba455abcd2a654e7800d7c3a69de281565b348015610556575f80fd5b506104ba610e12565b34801561056a575f80fd5b506103fc7f8cad95687ba82c2ce50e74f7b754645e5117c3a5bec8151c0726d5857980a86681565b34801561059d575f80fd5b506103c76105ac366004613b22565b610e9e565b3480156105bc575f80fd5b506103936105cb3660046139e4565b610fa8565b3480156105db575f80fd5b506106216105ea366004613a74565b600d6020525f908152604090208054600182015460029092015473ffffffffffffffffffffffffffffffffffffffff909116919083565b6040805173ffffffffffffffffffffffffffffffffffffffff909416845260208401929092529082015260600161039f565b34801561065e575f80fd5b506103c761066d366004613b9b565b610fec565b34801561067d575f80fd5b5061039361068c366004613a74565b6114b3565b34801561069c575f80fd5b50600a546104f390610100900473ffffffffffffffffffffffffffffffffffffffff1681565b3480156106cd575f80fd5b506103c76114c6565b3480156106e1575f80fd5b506103c76106f0366004613b9b565b611521565b348015610700575f80fd5b506104f361070f366004613c04565b60036020525f908152604090205473ffffffffffffffffffffffffffffffffffffffff1681565b348015610741575f80fd5b506103c7610750366004613a74565b6119dc565b348015610760575f80fd5b506006546104f39073ffffffffffffffffffffffffffffffffffffffff1681565b34801561078c575f80fd5b5060475460ff16610393565b3480156107a3575f80fd5b506103c76107b2366004613a74565b611a74565b3480156107c2575f80fd5b506103fc60095481565b3480156107d7575f80fd5b50600e546104f39073ffffffffffffffffffffffffffffffffffffffff1681565b348015610803575f80fd5b50610393610812366004613c1b565b600560209081525f928352604080842090915290825290205460ff1681565b34801561083c575f80fd5b506103c761084b366004613a74565b611b07565b34801561085b575f80fd5b5061039361086a366004613a74565b611ba4565b34801561087a575f80fd5b50610393610889366004613c1b565b611baf565b348015610899575f80fd5b506103fc6108a8366004613a74565b60026020525f908152604090205481565b3480156108c4575f80fd5b506103c76108d3366004613d2e565b611c1c565b3480156108e3575f80fd5b50600f546104f39073ffffffffffffffffffffffffffffffffffffffff1681565b34801561090f575f80fd5b50600c546104f39073ffffffffffffffffffffffffffffffffffffffff1681565b34801561093b575f80fd5b5061039361094a366004613c1b565b611c73565b34801561095a575f80fd5b506103c7610969366004613d68565b611cd7565b348015610979575f80fd5b506103c7610988366004613d2e565b611d33565b6103c761099b366004613dcd565b611d7f565b3480156109ab575f80fd5b506103936109ba366004613e32565b611fb1565b3480156109ca575f80fd5b50610a066109d9366004613a74565b600160208190525f918252604090912080549181015460029091015460ff80841693610100900416919084565b604080519415158552921515602085015291830152606082015260800161039f565b348015610a33575f80fd5b50601154610a5a9074010000000000000000000000000000000000000000900461ffff1681565b60405161ffff909116815260200161039f565b348015610a78575f80fd5b506103fc60135481565b348015610a8d575f80fd5b506103fc60085481565b348015610aa2575f80fd5b50610393610ab1366004613ede565b6123f4565b348015610ac1575f80fd5b506103c7612483565b348015610ad5575f80fd5b506007546104f39073ffffffffffffffffffffffffffffffffffffffff1681565b348015610b01575f80fd5b506103fc60125481565b348015610b16575f80fd5b506103fc6124dc565b348015610b2a575f80fd5b506103fc60145481565b348015610b3f575f80fd5b506103c7610b4e366004613a74565b6125c4565b348015610b5e575f80fd5b506010546104f39073ffffffffffffffffffffffffffffffffffffffff1681565b348015610b8a575f80fd5b50600a546103939060ff1681565b348015610ba3575f80fd5b506103fc7f8d9aa0830ab50a97d876b6b35a987f5043ee4c983259ae5783c506feee3842c581565b348015610bd6575f80fd5b506103c7610be5366004613a74565b61265c565b348015610bf5575f80fd5b506103c7610c04366004613f4f565b612709565b348015610c14575f80fd5b50610393610c23366004613fa7565b612812565b348015610c33575f80fd5b506103fc610c42366004613ff4565b612a00565b6103c7610c55366004613d68565b612aa9565b348015610c65575f80fd5b506104ba610c74366004613c1b565b612e20565b348015610c84575f80fd5b50610393610c93366004613c1b565b612e43565b5f81815b81811015610cdc57610cd4858583818110610cb957610cb961401c565b9050602002016020810190610cce9190613a74565b33612e90565b600101610c9c565b5060019150505b92915050565b60075473ffffffffffffffffffffffffffffffffffffffff163314610d3a576040517f06d919f200000000000000000000000000000000000000000000000000000000815260040160405180910390fd5b73ffffffffffffffffffffffffffffffffffffffff81161580610d77575060075473ffffffffffffffffffffffffffffffffffffffff8281169116145b15610dcb576040517f3e1378c100000000000000000000000000000000000000000000000000000000815273ffffffffffffffffffffffffffffffffffffffff821660048201526024015b60405180910390fd5b600780547fffffffffffffffffffffffff00000000000000000000000000000000000000001673ffffffffffffffffffffffffffffffffffffffff92909216919091179055565b600b8054610e1f90614049565b80601f0160208091040260200160405190810160405280929190818152602001828054610e4b90614049565b8015610e965780601f10610e6d57610100808354040283529160200191610e96565b820191905f5260205f20905b815481529060010190602001808311610e7957829003601f168201915b505050505081565b60075473ffffffffffffffffffffffffffffffffffffffff163314610eef576040517f06d919f200000000000000000000000000000000000000000000000000000000815260040160405180910390fd5b600e805473ffffffffffffffffffffffffffffffffffffffff9687167fffffffffffffffffffffffff000000000000000000000000000000000000000091821617909155600f8054958716958216959095179094556010805493861693909416929092179092556011805461ffff90921674010000000000000000000000000000000000000000027fffffffffffffffffffff000000000000000000000000000000000000000000009092169290931691909117179055565b5f81815b81811015610cdc57610fe4858583818110610fc957610fc961401c565b9050602002016020810190610fde9190613a74565b33612fce565b600101610fac565b73ffffffffffffffffffffffffffffffffffffffff8616611051576040517f3e1378c100000000000000000000000000000000000000000000000000000000815273ffffffffffffffffffffffffffffffffffffffff87166004820152602401610dc2565b73ffffffffffffffffffffffffffffffffffffffff86165f908152600260205260408120805491611081836140c7565b9190505585146110bd576040517f2dc499f600000000000000000000000000000000000000000000000000000000815260040160405180910390fd5b83421115611100576040517f4ba2d6f900000000000000000000000000000000000000000000000000000000815260048101859052426024820152604401610dc2565b604080518082018252600c81527f45504e5320434f4d4d205631000000000000000000000000000000000000000060209182015281517f8cad95687ba82c2ce50e74f7b754645e5117c3a5bec8151c0726d5857980a866818301527f7c232e0a8d7516843ab49a97f72ad251bb744a65be4e5bc6de77904d54673db981840152466060820152306080808301919091528351808303909101815260a0820184528051908301207f8d9aa0830ab50a97d876b6b35a987f5043ee4c983259ae5783c506feee3842c560c083015273ffffffffffffffffffffffffffffffffffffffff8b811660e08401528a16610100830152610120820189905261014080830189905284518084039091018152610160830185528051908401207f190100000000000000000000000000000000000000000000000000000000000061018084015261018283018290526101a2808401829052855180850390910181526101c290930190945281519190920120909190883b156113d957604080516020810187905280820186905260f888901b7fff000000000000000000000000000000000000000000000000000000000000001660608201528151604181830301815260618201928390527f1626ba7e000000000000000000000000000000000000000000000000000000009092525f9173ffffffffffffffffffffffffffffffffffffffff8c1691631626ba7e91611317918691906065016140fe565b602060405180830381865afa158015611332573d5f803e3d5ffd5b505050506040513d601f19601f820116820180604052508101906113569190614116565b90507f1626ba7e000000000000000000000000000000000000000000000000000000007fffffffff000000000000000000000000000000000000000000000000000000008216146113d3576040517fd0f006f100000000000000000000000000000000000000000000000000000000815260040160405180910390fd5b5061149d565b604080515f8082526020820180845284905260ff891692820192909252606081018790526080810186905260019060a0016020604051602081039080840390855afa15801561142a573d5f803e3d5ffd5b5050506020604051035190508973ffffffffffffffffffffffffffffffffffffffff168173ffffffffffffffffffffffffffffffffffffffff161461149b576040517fbc4057ad00000000000000000000000000000000000000000000000000000000815260040160405180910390fd5b505b6114a78a8a612fce565b50505050505050505050565b5f6114be8233612fce565b506001919050565b60075473ffffffffffffffffffffffffffffffffffffffff163314611517576040517f06d919f200000000000000000000000000000000000000000000000000000000815260040160405180910390fd5b61151f6130e8565b565b73ffffffffffffffffffffffffffffffffffffffff8616611586576040517f3e1378c100000000000000000000000000000000000000000000000000000000815273ffffffffffffffffffffffffffffffffffffffff87166004820152602401610dc2565b73ffffffffffffffffffffffffffffffffffffffff86165f9081526002602052604081208054916115b6836140c7565b9190505585146115f2576040517f2dc499f600000000000000000000000000000000000000000000000000000000815260040160405180910390fd5b83421115611635576040517f4ba2d6f900000000000000000000000000000000000000000000000000000000815260048101859052426024820152604401610dc2565b604080518082018252600c81527f45504e5320434f4d4d205631000000000000000000000000000000000000000060209182015281517f8cad95687ba82c2ce50e74f7b754645e5117c3a5bec8151c0726d5857980a866818301527f7c232e0a8d7516843ab49a97f72ad251bb744a65be4e5bc6de77904d54673db981840152466060820152306080808301919091528351808303909101815260a0820184528051908301207f25283200315ac15e79f5b17ebe844bb8f5facab77bd5c9c8f8d4b592b9949d8960c083015273ffffffffffffffffffffffffffffffffffffffff8b811660e08401528a16610100830152610120820189905261014080830189905284518084039091018152610160830185528051908401207f190100000000000000000000000000000000000000000000000000000000000061018084015261018283018290526101a2808401829052855180850390910181526101c290930190945281519190920120909190883b1561190e57604080516020810187905280820186905260f888901b7fff000000000000000000000000000000000000000000000000000000000000001660608201528151604181830301815260618201928390527f1626ba7e000000000000000000000000000000000000000000000000000000009092525f9173ffffffffffffffffffffffffffffffffffffffff8c1691631626ba7e9161184c918691906065016140fe565b602060405180830381865afa158015611867573d5f803e3d5ffd5b505050506040513d601f19601f8201168201806040525081019061188b9190614116565b90507f1626ba7e000000000000000000000000000000000000000000000000000000007fffffffff00000000000000000000000000000000000000000000000000000000821614611908576040517fd0f006f100000000000000000000000000000000000000000000000000000000815260040160405180910390fd5b506119d2565b604080515f8082526020820180845284905260ff891692820192909252606081018790526080810186905260019060a0016020604051602081039080840390855afa15801561195f573d5f803e3d5ffd5b5050506020604051035190508973ffffffffffffffffffffffffffffffffffffffff168173ffffffffffffffffffffffffffffffffffffffff16146119d0576040517fbc4057ad00000000000000000000000000000000000000000000000000000000815260040160405180910390fd5b505b6114a78a8a612e90565b60075473ffffffffffffffffffffffffffffffffffffffff163314611a2d576040517f06d919f200000000000000000000000000000000000000000000000000000000815260040160405180910390fd5b600c80547fffffffffffffffffffffffff00000000000000000000000000000000000000001673ffffffffffffffffffffffffffffffffffffffff92909216919091179055565b335f81815260056020908152604080832073ffffffffffffffffffffffffffffffffffffffff86168085529083529281902080547fffffffffffffffffffffffffffffffffffffffffffffffffffffffffffffff001690558051938452908301919091527fdccc2d936ded24d2153d2760581a7f0dcb23ec71190c9726b3584cdd700214d491015b60405180910390a150565b60075473ffffffffffffffffffffffffffffffffffffffff163314611b58576040517f06d919f200000000000000000000000000000000000000000000000000000000815260040160405180910390fd5b600a805473ffffffffffffffffffffffffffffffffffffffff909216610100027fffffffffffffffffffffff0000000000000000000000000000000000000000ff909216919091179055565b5f6114be8233612e90565b600a545f90610100900473ffffffffffffffffffffffffffffffffffffffff163314611c09576040517fd86ad9cf000000000000000000000000000000000000000000000000000000008152336004820152602401610dc2565b611c138383612fce565b50600192915050565b3373ffffffffffffffffffffffffffffffffffffffff166008547f6bc2285dcf7383bc0c0f37cc28ca4786636941d3a6d3e09c6d6f46f7efa39268600b84604051611c68929190614155565b60405180910390a350565b600a545f90610100900473ffffffffffffffffffffffffffffffffffffffff163314611ccd576040517fd86ad9cf000000000000000000000000000000000000000000000000000000008152336004820152602401610dc2565b611c138383612e90565b60075473ffffffffffffffffffffffffffffffffffffffff163314611d28576040517f06d919f200000000000000000000000000000000000000000000000000000000815260040160405180910390fd5b601291909155601355565b3373ffffffffffffffffffffffffffffffffffffffff166008547f8c4b6a23961dde2a11ffbb433538b4a405f643b57dc134dad9d236d13cbccc86600b84604051611c68929190614155565b611d8761316d565b5f856007811115611d9a57611d9a614204565b03611dee57601254821015611de9576012546040517f2d93586c000000000000000000000000000000000000000000000000000000008152600481019190915260248101839052604401610dc2565b611f73565b6001856007811115611e0257611e02614204565b03611e5157601354821015611de9576013546040517f2d93586c000000000000000000000000000000000000000000000000000000008152600481019190915260248101839052604401610dc2565b6003856007811115611e6557611e65614204565b03611eb457601254821015611de9576012546040517f2d93586c000000000000000000000000000000000000000000000000000000008152600481019190915260248101839052604401610dc2565b6002856007811115611ec857611ec8614204565b03611f1057815f03611de9576040517f2d93586c0000000000000000000000000000000000000000000000000000000081526001600482015260248101839052604401610dc2565b6005856007811115611f2457611f24614204565b03611f7357601254821015611f73576012546040517f2d93586c000000000000000000000000000000000000000000000000000000008152600481019190915260248101839052604401610dc2565b5f8585858533604051602001611f8d9594939291906142b1565b6040516020818303038152906040529050611fa98184846131da565b505050505050565b5f73ffffffffffffffffffffffffffffffffffffffff89161580611ff9575073ffffffffffffffffffffffffffffffffffffffff89165f908152600260205260409020548614155b8061200357508442115b1561200f57505f6123e6565b604080518082018252600c81527f45504e5320434f4d4d205631000000000000000000000000000000000000000060209182015281517f8cad95687ba82c2ce50e74f7b754645e5117c3a5bec8151c0726d5857980a866918101919091527f7c232e0a8d7516843ab49a97f72ad251bb744a65be4e5bc6de77904d54673db9918101919091524660608201523060808201525f9060a0016040516020818303038152906040528051906020012090505f7fa3e12f3a1cbc87b63b39a5ed58d9a2941caba455abcd2a654e7800d7c3a69de28d8d8c8c6040516120f29291906142ff565b60408051918290038220602083019590955273ffffffffffffffffffffffffffffffffffffffff9384169082015291166060820152608081019190915260a0810189905260c0810188905260e0016040516020818303038152906040528051906020012090505f828260405160200161219d9291907f190100000000000000000000000000000000000000000000000000000000000081526002810192909252602282015260420190565b6040516020818303038152906040528051906020012090506121bf8c3b151590565b1561230257604080516020810188905280820187905260f889901b7fff000000000000000000000000000000000000000000000000000000000000001660608201528151604181830301815260618201928390527f1626ba7e000000000000000000000000000000000000000000000000000000009092525f9173ffffffffffffffffffffffffffffffffffffffff8f1691631626ba7e91612266918691906065016140fe565b602060405180830381865afa158015612281573d5f803e3d5ffd5b505050506040513d601f19601f820116820180604052508101906122a59190614116565b90507f1626ba7e000000000000000000000000000000000000000000000000000000007fffffffff000000000000000000000000000000000000000000000000000000008216146122fc575f9450505050506123e6565b506123a0565b604080515f8082526020820180845284905260ff8a1692820192909252606081018890526080810187905260019060a0016020604051602081039080840390855afa158015612353573d5f803e3d5ffd5b5050506020604051035190508c73ffffffffffffffffffffffffffffffffffffffff168173ffffffffffffffffffffffffffffffffffffffff161461239e575f9450505050506123e6565b505b5f6123ae8f8f8f8f8f613566565b90506123bb8a600161430e565b73ffffffffffffffffffffffffffffffffffffffff8e165f9081526002602052604090205593505050505b9a9950505050505050505050565b5f806124008585613652565b90508015612477578373ffffffffffffffffffffffffffffffffffffffff168573ffffffffffffffffffffffffffffffffffffffff167fcc2b84a32bce3d060db75a4c0e59bfef192503be5c83bfa5ad79a41d384ff22c856040516124659190613afa565b60405180910390a3600191505061247c565b5f9150505b9392505050565b60075473ffffffffffffffffffffffffffffffffffffffff1633146124d4576040517f06d919f200000000000000000000000000000000000000000000000000000000815260040160405180910390fd5b61151f6136bb565b6040805180820182525f80825282516020808201839052845180830360010181526021909201855283015260105460115493517fb5634c73000000000000000000000000000000000000000000000000000000008152919373ffffffffffffffffffffffffffffffffffffffff9091169163b5634c739161257f917401000000000000000000000000000000000000000090910461ffff16908590600401614321565b602060405180830381865afa15801561259a573d5f803e3d5ffd5b505050506040513d601f19601f820116820180604052508101906125be9190614353565b91505090565b60075473ffffffffffffffffffffffffffffffffffffffff163314612615576040517f06d919f200000000000000000000000000000000000000000000000000000000815260040160405180910390fd5b600680547fffffffffffffffffffffffff00000000000000000000000000000000000000001673ffffffffffffffffffffffffffffffffffffffff92909216919091179055565b335f81815260056020908152604080832073ffffffffffffffffffffffffffffffffffffffff86168452909152902080547fffffffffffffffffffffffffffffffffffffffffffffffffffffffffffffff001660011790556126be9082612fce565b6040805133815273ffffffffffffffffffffffffffffffffffffffff831660208201527f2fd5b26f00131bd8ca0fc556207292b85a6bec241341df82724333227458e6309101611afc565b6127138433612e43565b612749576040517f02155a6800000000000000000000000000000000000000000000000000000000815260040160405180910390fd5b5f61275384613712565b83836040516020016127679392919061436a565b604080517fffffffffffffffffffffffffffffffffffffffffffffffffffffffffffffffe0818403018152918152335f9081526004602090815282822073ffffffffffffffffffffffffffffffffffffffff8a1683529052209091506127cd8282614405565b507f790dac2f69fa06ffde2a1ba07cccf57910606213ce442099a2ab6ebe3bedc0ad85338684604051612803949392919061451d565b60405180910390a15050505050565b5f8054610100900460ff161580801561283157505f54600160ff909116105b8061284a5750303b15801561284a57505f5460ff166001145b6128d6576040517f08c379a000000000000000000000000000000000000000000000000000000000815260206004820152602e60248201527f496e697469616c697a61626c653a20636f6e747261637420697320616c72656160448201527f647920696e697469616c697a65640000000000000000000000000000000000006064820152608401610dc2565b5f80547fffffffffffffffffffffffffffffffffffffffffffffffffffffffffffffff001660011790558015612932575f80547fffffffffffffffffffffffffffffffffffffffffffffffffffffffffffff00ff166101001790555b6007805473ffffffffffffffffffffffffffffffffffffffff86167fffffffffffffffffffffffff00000000000000000000000000000000000000009182168117909255600680549091169091179055600b61298e8482614405565b50466008556001915080156129f9575f80547fffffffffffffffffffffffffffffffffffffffffffffffffffffffffffff00ff169055604051600181527f7f26b83ff96e1f2b6a682f133852f6798a09c465da95921460cefb38474024989060200160405180910390a15b5092915050565b6011546040517fc23ee3c300000000000000000000000000000000000000000000000000000000815261ffff841660048201525f60248201819052604482018490529173ffffffffffffffffffffffffffffffffffffffff169063c23ee3c3906064016040805180830381865afa158015612a7d573d5f803e3d5ffd5b505050506040513d601f19601f82011682018060405250810190612aa19190614565565b509392505050565b60075473ffffffffffffffffffffffffffffffffffffffff163314612afa576040517f06d919f200000000000000000000000000000000000000000000000000000000815260040160405180910390fd5b60145482811015612b37576040517f356680b700000000000000000000000000000000000000000000000000000000815260040160405180910390fd5b600a5460115461010090910473ffffffffffffffffffffffffffffffffffffffff169074010000000000000000000000000000000000000000900461ffff165f612b818286612a00565b90505f612b8c6124dc565b9050612b98818361430e565b341015612bd1576040517f356680b700000000000000000000000000000000000000000000000000000000815260040160405180910390fd5b612bdb8786614587565b6014819055600f54600e546040517f095ea7b300000000000000000000000000000000000000000000000000000000815273ffffffffffffffffffffffffffffffffffffffff92831660048201819052602482018c905293985091169063095ea7b3906044016020604051808303815f875af1158015612c5d573d5f803e3d5ffd5b505050506040513d601f19601f82011682018060405250810190612c81919061459a565b508073ffffffffffffffffffffffffffffffffffffffff1663b293f97f838a87612cbe8a73ffffffffffffffffffffffffffffffffffffffff1690565b336040805160018082528183019092525f91602082018180368337019050506040518863ffffffff1660e01b8152600401612cfe969594939291906145b9565b60206040518083038185885af1158015612d1a573d5f803e3d5ffd5b50505050506040513d601f19601f82011682018060405250810190612d3f91906145fb565b505f600460405180602001604052805f8152508a33604051602001612d679493929190614622565b604051602081830303815290604052905060115f9054906101000a900473ffffffffffffffffffffffffffffffffffffffff1673ffffffffffffffffffffffffffffffffffffffff16634b5ca6f4858789855f8e8c336040518963ffffffff1660e01b8152600401612ddf979695949392919061466e565b60206040518083038185885af1158015612dfb573d5f803e3d5ffd5b50505050506040513d601f19601f820116820180604052508101906114a791906145fb565b600460209081525f928352604080842090915290825290208054610e1f90614049565b73ffffffffffffffffffffffffffffffffffffffff8082165f90815260016020818152604080842094871684526003850190915282205491929160ff1690036129f9576001915050610ce3565b612e9a8282612e43565b15612fca5773ffffffffffffffffffffffffffffffffffffffff81165f90815260016020819052604082206002810154909291612ed691614587565b73ffffffffffffffffffffffffffffffffffffffff8581165f818152600386016020908152604080832080547fffffffffffffffffffffffffffffffffffffffffffffffffffffffffffffff0016905560048801808352818420805488865260058b0180865284872080548a168852938652848720829055835491875290945282852080549488167fffffffffffffffffffffffff0000000000000000000000000000000000000000958616179055849055868452805490921690915560028701859055519394509186169290917f9d3d878d2fb01c43ad7ec7c20d8f5d0dbac4888df940a4edaab4540ccefdc10291a350505b5050565b612fd88282612e43565b612fca57612fe5816137ce565b73ffffffffffffffffffffffffffffffffffffffff8082165f908152600160208181526040808420600281015495881680865260038201845282862080547fffffffffffffffffffffffffffffffffffffffffffffffffffffffffffffff00168617905560048201845282862087905586865260058201909352932080547fffffffffffffffffffffffff000000000000000000000000000000000000000016909117905590919061309890829061430e565b600283015560405173ffffffffffffffffffffffffffffffffffffffff80851691908616907f5ffe3cc8f1055f172e55be8d832143a6cffb4cb3a56a18bf780fd4112d4cecc7905f90a350505050565b6130f061316d565b604780547fffffffffffffffffffffffffffffffffffffffffffffffffffffffffffffff001660011790557f62e78cea01bee320cd4e420270b5ea74000d11b0c9f74754ebdbfc544b05a2586131433390565b60405173ffffffffffffffffffffffffffffffffffffffff909116815260200160405180910390a1565b60475460ff161561151f576040517f08c379a000000000000000000000000000000000000000000000000000000000815260206004820152601060248201527f5061757361626c653a20706175736564000000000000000000000000000000006044820152606401610dc2565b60115474010000000000000000000000000000000000000000900461ffff165f6132048284612a00565b90505f61320f6124dc565b600a54909150610100900473ffffffffffffffffffffffffffffffffffffffff16851561347d57613240828461430e565b341015613279576040517f356680b700000000000000000000000000000000000000000000000000000000815260040160405180910390fd5b600e54600f546040517f23b872dd0000000000000000000000000000000000000000000000000000000081523360048201523060248201526044810189905273ffffffffffffffffffffffffffffffffffffffff928316929091169082906323b872dd906064016020604051808303815f875af11580156132fc573d5f803e3d5ffd5b505050506040513d601f19601f82011682018060405250810190613320919061459a565b506040517f095ea7b300000000000000000000000000000000000000000000000000000000815273ffffffffffffffffffffffffffffffffffffffff8281166004830152602482018a905283169063095ea7b3906044016020604051808303815f875af1158015613393573d5f803e3d5ffd5b505050506040513d601f19601f820116820180604052508101906133b7919061459a565b508073ffffffffffffffffffffffffffffffffffffffff1663b293f97f858a896133f48873ffffffffffffffffffffffffffffffffffffffff1690565b336040805160018082528183019092525f91602082018180368337019050506040518863ffffffff1660e01b8152600401613434969594939291906145b9565b60206040518083038185885af1158015613450573d5f803e3d5ffd5b50505050506040513d601f19601f8201168201806040525081019061347591906145fb565b5050506134b7565b823410156134b7576040517f356680b700000000000000000000000000000000000000000000000000000000815260040160405180910390fd5b6011546040517f4b5ca6f400000000000000000000000000000000000000000000000000000000815273ffffffffffffffffffffffffffffffffffffffff90911690634b5ca6f490859061351b90889086908d905f908d908590339060040161466e565b60206040518083038185885af1158015613537573d5f803e3d5ffd5b50505050506040513d601f19601f8201168201806040525081019061355c91906145fb565b5050505050505050565b5f8373ffffffffffffffffffffffffffffffffffffffff168673ffffffffffffffffffffffffffffffffffffffff1614806135d2575073ffffffffffffffffffffffffffffffffffffffff8087165f9081526005602090815260408083209388168352929052205460ff165b15613646578473ffffffffffffffffffffffffffffffffffffffff168673ffffffffffffffffffffffffffffffffffffffff167fcc2b84a32bce3d060db75a4c0e59bfef192503be5c83bfa5ad79a41d384ff22c85856040516136369291906146d4565b60405180910390a3506001613649565b505f5b95945050505050565b5f73ffffffffffffffffffffffffffffffffffffffff83163314806136a6575073ffffffffffffffffffffffffffffffffffffffff83165f90815260056020908152604080832033845290915290205460ff165b156136b357506001610ce3565b505f92915050565b6136c3613897565b604780547fffffffffffffffffffffffffffffffffffffffffffffffffffffffffffffff001690557f5db9ee0a495bf2e6ff9c91a7834c1ba4fdd244a5e8aa4e537bd38aeae4b073aa33613143565b60605f61371e83613903565b60010190505f8167ffffffffffffffff81111561373d5761373d613c52565b6040519080825280601f01601f191660200182016040528015613767576020820181803683370190505b5090508181016020015b7fffffffffffffffffffffffffffffffffffffffffffffffffffffffffffffffff017f3031323334353637383961626364656600000000000000000000000000000000600a86061a8153600a850494508461377157509392505050565b73ffffffffffffffffffffffffffffffffffffffff81165f9081526001602052604090205460ff166138945773ffffffffffffffffffffffffffffffffffffffff81165f818152600160208181526040808420438185015580547fffffffffffffffffffffffffffffffffffffffffffffffffffffffffffffff001684179055600980548552600390925290922080547fffffffffffffffffffffffff000000000000000000000000000000000000000016909317909255546138909161430e565b6009555b50565b60475460ff1661151f576040517f08c379a000000000000000000000000000000000000000000000000000000000815260206004820152601460248201527f5061757361626c653a206e6f74207061757365640000000000000000000000006044820152606401610dc2565b5f807a184f03e93ff9f4daa797ed6e38ed64bf6a1f010000000000000000831061394b577a184f03e93ff9f4daa797ed6e38ed64bf6a1f010000000000000000830492506040015b6d04ee2d6d415b85acef81000000008310613977576d04ee2d6d415b85acef8100000000830492506020015b662386f26fc10000831061399557662386f26fc10000830492506010015b6305f5e10083106139ad576305f5e100830492506008015b61271083106139c157612710830492506004015b606483106139d3576064830492506002015b600a8310610ce35760010192915050565b5f80602083850312156139f5575f80fd5b823567ffffffffffffffff80821115613a0c575f80fd5b818501915085601f830112613a1f575f80fd5b813581811115613a2d575f80fd5b8660208260051b8501011115613a41575f80fd5b60209290920196919550909350505050565b73ffffffffffffffffffffffffffffffffffffffff81168114613894575f80fd5b5f60208284031215613a84575f80fd5b813561247c81613a53565b5f5b83811015613aa9578181015183820152602001613a91565b50505f910152565b5f8151808452613ac8816020860160208601613a8f565b601f017fffffffffffffffffffffffffffffffffffffffffffffffffffffffffffffffe0169290920160200192915050565b602081525f61247c6020830184613ab1565b803561ffff81168114613b1d575f80fd5b919050565b5f805f805f60a08688031215613b36575f80fd5b8535613b4181613a53565b94506020860135613b5181613a53565b93506040860135613b6181613a53565b92506060860135613b7181613a53565b9150613b7f60808701613b0c565b90509295509295909350565b803560ff81168114613b1d575f80fd5b5f805f805f805f60e0888a031215613bb1575f80fd5b8735613bbc81613a53565b96506020880135613bcc81613a53565b95506040880135945060608801359350613be860808901613b8b565b925060a0880135915060c0880135905092959891949750929550565b5f60208284031215613c14575f80fd5b5035919050565b5f8060408385031215613c2c575f80fd5b8235613c3781613a53565b91506020830135613c4781613a53565b809150509250929050565b7f4e487b71000000000000000000000000000000000000000000000000000000005f52604160045260245ffd5b5f67ffffffffffffffff80841115613c9957613c99613c52565b604051601f85017fffffffffffffffffffffffffffffffffffffffffffffffffffffffffffffffe0908116603f01168101908282118183101715613cdf57613cdf613c52565b81604052809350858152868686011115613cf7575f80fd5b858560208301375f602087830101525050509392505050565b5f82601f830112613d1f575f80fd5b61247c83833560208501613c7f565b5f60208284031215613d3e575f80fd5b813567ffffffffffffffff811115613d54575f80fd5b613d6084828501613d10565b949350505050565b5f8060408385031215613d79575f80fd5b50508035926020909101359150565b5f8083601f840112613d98575f80fd5b50813567ffffffffffffffff811115613daf575f80fd5b602083019150836020828501011115613dc6575f80fd5b9250929050565b5f805f805f60808688031215613de1575f80fd5b853560088110613def575f80fd5b9450602086013567ffffffffffffffff811115613e0a575f80fd5b613e1688828901613d88565b9699909850959660408101359660609091013595509350505050565b5f805f805f805f805f806101208b8d031215613e4c575f80fd5b8a35613e5781613a53565b995060208b0135613e6781613a53565b985060408b0135613e7781613a53565b975060608b013567ffffffffffffffff811115613e92575f80fd5b613e9e8d828e01613d88565b90985096505060808b0135945060a08b01359350613ebe60c08c01613b8b565b925060e08b013591506101008b013590509295989b9194979a5092959850565b5f805f60608486031215613ef0575f80fd5b8335613efb81613a53565b92506020840135613f0b81613a53565b9150604084013567ffffffffffffffff811115613f26575f80fd5b8401601f81018613613f36575f80fd5b613f4586823560208401613c7f565b9150509250925092565b5f805f8060608587031215613f62575f80fd5b8435613f6d81613a53565b935060208501359250604085013567ffffffffffffffff811115613f8f575f80fd5b613f9b87828801613d88565b95989497509550505050565b5f8060408385031215613fb8575f80fd5b8235613fc381613a53565b9150602083013567ffffffffffffffff811115613fde575f80fd5b613fea85828601613d10565b9150509250929050565b5f8060408385031215614005575f80fd5b61400e83613b0c565b946020939093013593505050565b7f4e487b71000000000000000000000000000000000000000000000000000000005f52603260045260245ffd5b600181811c9082168061405d57607f821691505b602082108103614094577f4e487b71000000000000000000000000000000000000000000000000000000005f52602260045260245ffd5b50919050565b7f4e487b71000000000000000000000000000000000000000000000000000000005f52601160045260245ffd5b5f7fffffffffffffffffffffffffffffffffffffffffffffffffffffffffffffffff82036140f7576140f761409a565b5060010190565b828152604060208201525f613d606040830184613ab1565b5f60208284031215614126575f80fd5b81517fffffffff000000000000000000000000000000000000000000000000000000008116811461247c575f80fd5b604081525f80845461416681614049565b806040860152606060018084165f811461418757600181146141bf576141ed565b7fffffffffffffffffffffffffffffffffffffffffffffffffffffffffffffff008516838901528284151560051b89010195506141ed565b895f526020805f205f5b868110156141e45781548b82018701529084019082016141c9565b8a018501975050505b505050505082810360208401526136498185613ab1565b7f4e487b71000000000000000000000000000000000000000000000000000000005f52602160045260245ffd5b60088110614266577f4e487b71000000000000000000000000000000000000000000000000000000005f52602160045260245ffd5b9052565b81835281816020850137505f602082840101525f60207fffffffffffffffffffffffffffffffffffffffffffffffffffffffffffffffe0601f840116840101905092915050565b6142bb8187614231565b608060208201525f6142d160808301868861426a565b905083604083015273ffffffffffffffffffffffffffffffffffffffff831660608301529695505050505050565b818382375f9101908152919050565b80820180821115610ce357610ce361409a565b61ffff831681526040602082015260ff82511660408201525f6020830151604060608401526136496080840182613ab1565b5f60208284031215614363575f80fd5b5051919050565b5f845161437b818460208901613a8f565b7f2b00000000000000000000000000000000000000000000000000000000000000908301908152838560018301375f930160010192835250909392505050565b601f821115614400575f81815260208120601f850160051c810160208610156143e15750805b601f850160051c820191505b81811015611fa9578281556001016143ed565b505050565b815167ffffffffffffffff81111561441f5761441f613c52565b6144338161442d8454614049565b846143bb565b602080601f831160018114614485575f841561444f5750858301515b7fffffffffffffffffffffffffffffffffffffffffffffffffffffffffffffffff600386901b1c1916600185901b178555611fa9565b5f858152602081207fffffffffffffffffffffffffffffffffffffffffffffffffffffffffffffffe08616915b828110156144d1578886015182559484019460019091019084016144b2565b508582101561450d57878501517fffffffffffffffffffffffffffffffffffffffffffffffffffffffffffffffff600388901b60f8161c191681555b5050505050600190811b01905550565b5f73ffffffffffffffffffffffffffffffffffffffff80871683528086166020840152508360408301526080606083015261455b6080830184613ab1565b9695505050505050565b5f8060408385031215614576575f80fd5b505080516020909101519092909150565b81810381811115610ce357610ce361409a565b5f602082840312156145aa575f80fd5b8151801515811461247c575f80fd5b86815261ffff86166020820152846040820152836060820152821515608082015260c060a08201525f6145ef60c0830184613ab1565b98975050505050505050565b5f6020828403121561460b575f80fd5b815167ffffffffffffffff8116811461247c575f80fd5b61462c8186614231565b608060208201525f6146416080830186613ab1565b905083604083015273ffffffffffffffffffffffffffffffffffffffff8316606083015295945050505050565b5f61ffff808a16835273ffffffffffffffffffffffffffffffffffffffff808a16602085015260e060408501526146a860e085018a613ab1565b925087606085015286608085015281861660a085015280851660c0850152505098975050505050505050565b602081525f613d6060208301848661426a56fea2646970667358221220208712436b537d0cb67875dc30aae01e66f54430dc40ad21afe524f4a327be8664736f6c63430008140033","linkReferences":{}},"methodIdentifiers":{"ADD_CHANNEL_MIN_FEES()":"c175256f","DOMAIN_TYPEHASH()":"20606b70","EPNSCoreAddress()":"42564cb4","FEE_AMOUNT()":"ad5f1574","NAME_HASH()":"04622c2e","NTT_MANAGER()":"80d4a43a","PROTOCOL_POOL_FEE()":"cf22d18b","PUSH_NTT()":"6cf124f2","PUSH_TOKEN_ADDRESS()":"8cfbc3e0","SEND_NOTIFICATION_TYPEHASH()":"17aeae58","SUBSCRIBE_TYPEHASH()":"e059c6d0","UNSUBSCRIBE_TYPEHASH()":"040e80ed","WORMHOLE_RECIPIENT_CHAIN()":"aab0cab8","WORMHOLE_RELAYER()":"0f1f9cfc","WORMHOLE_TRANSCEIVER()":"d197413f","addDelegate(address)":"e71bdf41","batchSubscribe(address[])":"37a4ebb8","batchUnsubscribe(address[])":"0024be7a","chainID()":"adc879e9","chainName()":"1c93b03a","changeUserChannelSettings(address,uint256,string)":"ed7ee0f6","createCrossChainRequest(uint8,bytes,uint256,uint256)":"9ceef05a","delegatedNotificationSenders(address,address)":"6e0d232c","governance()":"5aa6e675","initialize(address,string)":"f399e22e","isMigrationComplete()":"d7128084","isUserSubscribed(address,address)":"ffb84883","mapAddressUsers(uint256)":"5227dd05","name()":"06fdde03","nonces(address)":"7ecebe00","pauseContract()":"439766ce","paused()":"5c975abb","pushChannelAdmin()":"bd90f815","quoteMsgRelayCost(uint16,uint256)":"f50c9e1a","quoteTokenBridgingCost()":"c8e43919","removeChannelAlias(string)":"9c1727f5","removeDelegate(address)":"67e7646f","sendNotifBySig(address,address,address,bytes,uint256,uint256,uint8,bytes32,bytes32)":"a0e30b2c","sendNotification(address,address,bytes)":"ba3d69d7","setBridgeConfig(address,address,address,address,uint16)":"30da443a","setCoreFeeConfig(uint256,uint256)":"93b56a32","setEPNSCoreAddress(address)":"71fed092","setGovernanceAddress(address)":"cfc16254","setPushTokenAddress(address)":"56aaba49","subscribe(address)":"41a7726a","subscribeBySig(address,address,uint256,uint256,uint8,bytes32,bytes32)":"3f6109fb","subscribeViaCore(address,address)":"73ec8cfb","transferFeePoolToCore(uint256,uint256)":"f60eeb77","transferPushChannelAdminControl(address)":"017d5efe","unPauseContract()":"bac15203","unSubscribeViaCore(address,address)":"92d41a53","unsubscribe(address)":"7262561c","unsubscribeBySig(address,address,uint256,uint256,uint8,bytes32,bytes32)":"44c3bca5","userChatData(address)":"3e5b73c6","userToChannelNotifs(address,address)":"f83c7f77","users(address)":"a87430ba","usersCount()":"6ba13a82","verifyChannelAlias(string)":"7f6c16dc"},"id":6}