{"abi":[{"type":"constructor","inputs":[],"stateMutability":"nonpayable"},{"type":"function","name":"isValidSignature","inputs":[{"name":"hash","type":"bytes32","internalType":"bytes32"},{"name":"signature","type":"bytes","internalType":"bytes"}],"outputs":[{"name":"","type":"bytes4","internalType":"bytes4"}],"stateMutability":"view"},{"type":"function","name":"owner","inputs":[],"outputs":[{"name":"","type":"address","internalType":"address"}],"stateMutability":"view"},{"type":"function","name":"supportsStaticCall","inputs":[{"name":"_methodId","type":"bytes4","internalType":"bytes4"}],"outputs":[{"name":"_isSupported","type":"bool","internalType":"bool"}],"stateMutability":"pure"}],"bytecode":{"object":"0x608060405234801561000f575f80fd5b505f80546001600160a01b031916331790556106498061002e5f395ff3fe608060405234801561000f575f80fd5b506004361061003f575f3560e01c80631626ba7e1461004357806325b509341461008c5780638da5cb5b146100f1575b5f80fd5b6100566100513660046104cd565b610135565b6040517fffffffff0000000000000000000000000000000000000000000000000000000090911681526020015b60405180910390f35b6100e161009a3660046105a0565b7fffffffff00000000000000000000000000000000000000000000000000000000167f1626ba7e000000000000000000000000000000000000000000000000000000001490565b6040519015158152602001610083565b5f546101109073ffffffffffffffffffffffffffffffffffffffff1681565b60405173ffffffffffffffffffffffffffffffffffffffff9091168152602001610083565b5f80610141848461019a565b5f5490915073ffffffffffffffffffffffffffffffffffffffff9081169082160361018f577f1626ba7e356f5979dd355a3d2bfb43e80420a480c3b854edce286a82d7496869915050610194565b505f90505b92915050565b5f805f6101a785856101bc565b915091506101b4816101fe565b509392505050565b5f8082516041036101f0576020830151604084015160608501515f1a6101e4878285856103b8565b945094505050506101f7565b505f905060025b9250929050565b5f816004811115610211576102116105e6565b036102195750565b600181600481111561022d5761022d6105e6565b03610299576040517f08c379a000000000000000000000000000000000000000000000000000000000815260206004820152601860248201527f45434453413a20696e76616c6964207369676e6174757265000000000000000060448201526064015b60405180910390fd5b60028160048111156102ad576102ad6105e6565b03610314576040517f08c379a000000000000000000000000000000000000000000000000000000000815260206004820152601f60248201527f45434453413a20696e76616c6964207369676e6174757265206c656e677468006044820152606401610290565b6003816004811115610328576103286105e6565b036103b5576040517f08c379a000000000000000000000000000000000000000000000000000000000815260206004820152602260248201527f45434453413a20696e76616c6964207369676e6174757265202773272076616c60448201527f75650000000000000000000000000000000000000000000000000000000000006064820152608401610290565b50565b5f807f7fffffffffffffffffffffffffffffff5d576e7357a4501ddfe92f46681b20a08311156103ed57505f90506003610497565b604080515f8082526020820180845289905260ff881692820192909252606081018690526080810185905260019060a0016020604051602081039080840390855afa15801561043e573d5f803e3d5ffd5b50506040517fffffffffffffffffffffffffffffffffffffffffffffffffffffffffffffffe0015191505073ffffffffffffffffffffffffffffffffffffffff8116610491575f60019250925050610497565b91505f90505b94509492505050565b7f4e487b71000000000000000000000000000000000000000000000000000000005f52604160045260245ffd5b5f80604083850312156104de575f80fd5b82359150602083013567ffffffffffffffff808211156104fc575f80fd5b818501915085601f83011261050f575f80fd5b813581811115610521576105216104a0565b604051601f82017fffffffffffffffffffffffffffffffffffffffffffffffffffffffffffffffe0908116603f01168101908382118183101715610567576105676104a0565b8160405282815288602084870101111561057f575f80fd5b826020860160208301375f6020848301015280955050505050509250929050565b5f602082840312156105b0575f80fd5b81357fffffffff00000000000000000000000000000000000000000000000000000000811681146105df575f80fd5b9392505050565b7f4e487b71000000000000000000000000000000000000000000000000000000005f52602160045260245ffdfea2646970667358221220d85d2ded9d2c90fe184b747199349caaca737197115610c6a2a4dd2b5559906e64736f6c63430008140033","linkReferences":{}},"methodIdentifiers":{"isValidSignature(bytes32,bytes)":"1626ba7e","owner()":"8da5cb5b","supportsStaticCall(bytes4)":"25b50934"},"id":30}