{
  "_format": "hh-sol-artifact-1",
  "contractName": "EPNS",
  "sourceName": "contracts/EPNS.sol",
  "abi": [
    {
      "inputs": [],
      "stateMutability": "nonpayable",
      "type": "constructor"
    },
    {
      "anonymous": false,
      "inputs": [
        {
          "indexed": true,
          "internalType": "address",
          "name": "owner",
          "type": "address"
        },
        {
          "indexed": true,
          "internalType": "address",
          "name": "spender",
          "type": "address"
        },
        {
          "indexed": false,
          "internalType": "uint256",
          "name": "amount",
          "type": "uint256"
        }
      ],
      "name": "Approval",
      "type": "event"
    },
    {
      "anonymous": false,
      "inputs": [
        {
          "indexed": true,
          "internalType": "address",
          "name": "delegator",
          "type": "address"
        },
        {
          "indexed": true,
          "internalType": "address",
          "name": "fromDelegate",
          "type": "address"
        },
        {
          "indexed": true,
          "internalType": "address",
          "name": "toDelegate",
          "type": "address"
        }
      ],
      "name": "DelegateChanged",
      "type": "event"
    },
    {
      "anonymous": false,
      "inputs": [
        {
          "indexed": true,
          "internalType": "address",
          "name": "delegate",
          "type": "address"
        },
        {
          "indexed": false,
          "internalType": "uint256",
          "name": "previousBalance",
          "type": "uint256"
        },
        {
          "indexed": false,
          "internalType": "uint256",
          "name": "newBalance",
          "type": "uint256"
        }
      ],
      "name": "DelegateVotesChanged",
      "type": "event"
    },
    {
      "anonymous": false,
      "inputs": [
        {
          "indexed": true,
          "internalType": "address",
          "name": "holder",
          "type": "address"
        },
        {
          "indexed": false,
          "internalType": "uint256",
          "name": "previousRatio",
          "type": "uint256"
        },
        {
          "indexed": false,
          "internalType": "uint256",
          "name": "newRatio",
          "type": "uint256"
        }
      ],
      "name": "FairShareRatioChanged",
      "type": "event"
    },
    {
      "anonymous": false,
      "inputs": [
        {
          "indexed": true,
          "internalType": "address",
          "name": "from",
          "type": "address"
        },
        {
          "indexed": true,
          "internalType": "address",
          "name": "to",
          "type": "address"
        },
        {
          "indexed": false,
          "internalType": "uint256",
          "name": "amount",
          "type": "uint256"
        }
      ],
      "name": "Transfer",
      "type": "event"
    },
    {
      "inputs": [],
      "name": "DELEGATION_TYPEHASH",
      "outputs": [
        {
          "internalType": "bytes32",
          "name": "",
          "type": "bytes32"
        }
      ],
      "stateMutability": "view",
      "type": "function"
    },
    {
      "inputs": [],
      "name": "DOMAIN_TYPEHASH",
      "outputs": [
        {
          "internalType": "bytes32",
          "name": "",
          "type": "bytes32"
        }
      ],
      "stateMutability": "view",
      "type": "function"
    },
    {
      "inputs": [
        {
          "internalType": "address",
          "name": "",
          "type": "address"
        },
        {
          "internalType": "uint32",
          "name": "",
          "type": "uint32"
        }
      ],
      "name": "FSCheckpoints",
      "outputs": [
        {
          "internalType": "uint32",
          "name": "fromBlock",
          "type": "uint32"
        },
        {
          "internalType": "uint96",
          "name": "balance",
          "type": "uint96"
        }
      ],
      "stateMutability": "view",
      "type": "function"
    },
    {
      "inputs": [
        {
          "internalType": "address",
          "name": "account",
          "type": "address"
        },
        {
          "internalType": "address",
          "name": "spender",
          "type": "address"
        }
      ],
      "name": "allowance",
      "outputs": [
        {
          "internalType": "uint256",
          "name": "",
          "type": "uint256"
        }
      ],
      "stateMutability": "view",
      "type": "function"
    },
    {
      "inputs": [
        {
          "internalType": "address",
          "name": "spender",
          "type": "address"
        },
        {
          "internalType": "uint256",
          "name": "rawAmount",
          "type": "uint256"
        }
      ],
      "name": "approve",
      "outputs": [
        {
          "internalType": "bool",
          "name": "",
          "type": "bool"
        }
      ],
      "stateMutability": "nonpayable",
      "type": "function"
    },
    {
      "inputs": [
        {
          "internalType": "address",
          "name": "account",
          "type": "address"
        }
      ],
      "name": "balanceOf",
      "outputs": [
        {
          "internalType": "uint256",
          "name": "",
          "type": "uint256"
        }
      ],
      "stateMutability": "view",
      "type": "function"
    },
    {
      "inputs": [
        {
          "internalType": "address",
          "name": "",
          "type": "address"
        },
        {
          "internalType": "uint32",
          "name": "",
          "type": "uint32"
        }
      ],
      "name": "checkpoints",
      "outputs": [
        {
          "internalType": "uint32",
          "name": "fromBlock",
          "type": "uint32"
        },
        {
          "internalType": "uint96",
          "name": "votes",
          "type": "uint96"
        }
      ],
      "stateMutability": "view",
      "type": "function"
    },
    {
      "inputs": [],
      "name": "decimals",
      "outputs": [
        {
          "internalType": "uint8",
          "name": "",
          "type": "uint8"
        }
      ],
      "stateMutability": "view",
      "type": "function"
    },
    {
      "inputs": [
        {
          "internalType": "address",
          "name": "delegatee",
          "type": "address"
        }
      ],
      "name": "delegate",
      "outputs": [],
      "stateMutability": "nonpayable",
      "type": "function"
    },
    {
      "inputs": [
        {
          "internalType": "address",
          "name": "delegatee",
          "type": "address"
        },
        {
          "internalType": "uint256",
          "name": "nonce",
          "type": "uint256"
        },
        {
          "internalType": "uint256",
          "name": "expiry",
          "type": "uint256"
        },
        {
          "internalType": "uint8",
          "name": "v",
          "type": "uint8"
        },
        {
          "internalType": "bytes32",
          "name": "r",
          "type": "bytes32"
        },
        {
          "internalType": "bytes32",
          "name": "s",
          "type": "bytes32"
        }
      ],
      "name": "delegateBySig",
      "outputs": [],
      "stateMutability": "nonpayable",
      "type": "function"
    },
    {
      "inputs": [
        {
          "internalType": "address",
          "name": "",
          "type": "address"
        }
      ],
      "name": "delegates",
      "outputs": [
        {
          "internalType": "address",
          "name": "",
          "type": "address"
        }
      ],
      "stateMutability": "view",
      "type": "function"
    },
    {
      "inputs": [
        {
          "internalType": "address",
          "name": "account",
          "type": "address"
        }
      ],
      "name": "getCurrentVotes",
      "outputs": [
        {
          "internalType": "uint96",
          "name": "",
          "type": "uint96"
        }
      ],
      "stateMutability": "view",
      "type": "function"
    },
    {
      "inputs": [
        {
          "internalType": "address",
          "name": "account",
          "type": "address"
        },
        {
          "internalType": "uint256",
          "name": "blockNumber",
          "type": "uint256"
        }
      ],
      "name": "getPriorFSRatio",
      "outputs": [
        {
          "internalType": "uint96",
          "name": "",
          "type": "uint96"
        }
      ],
      "stateMutability": "view",
      "type": "function"
    },
    {
      "inputs": [
        {
          "internalType": "address",
          "name": "account",
          "type": "address"
        },
        {
          "internalType": "uint256",
          "name": "blockNumber",
          "type": "uint256"
        }
      ],
      "name": "getPriorVotes",
      "outputs": [
        {
          "internalType": "uint96",
          "name": "",
          "type": "uint96"
        }
      ],
      "stateMutability": "view",
      "type": "function"
    },
    {
      "inputs": [],
      "name": "name",
      "outputs": [
        {
          "internalType": "string",
          "name": "",
          "type": "string"
        }
      ],
      "stateMutability": "view",
      "type": "function"
    },
    {
      "inputs": [
        {
          "internalType": "address",
          "name": "",
          "type": "address"
        }
      ],
      "name": "nonces",
      "outputs": [
        {
          "internalType": "uint256",
          "name": "",
          "type": "uint256"
        }
      ],
      "stateMutability": "view",
      "type": "function"
    },
    {
      "inputs": [
        {
          "internalType": "address",
          "name": "",
          "type": "address"
        }
      ],
      "name": "numCheckpoints",
      "outputs": [
        {
          "internalType": "uint32",
          "name": "",
          "type": "uint32"
        }
      ],
      "stateMutability": "view",
      "type": "function"
    },
    {
      "inputs": [
        {
          "internalType": "address",
          "name": "",
          "type": "address"
        }
      ],
      "name": "numFSCheckpoints",
      "outputs": [
        {
          "internalType": "uint32",
          "name": "",
          "type": "uint32"
        }
      ],
      "stateMutability": "view",
      "type": "function"
    },
    {
      "inputs": [],
      "name": "symbol",
      "outputs": [
        {
          "internalType": "string",
          "name": "",
          "type": "string"
        }
      ],
      "stateMutability": "view",
      "type": "function"
    },
    {
      "inputs": [],
      "name": "totalSupply",
      "outputs": [
        {
          "internalType": "uint256",
          "name": "",
          "type": "uint256"
        }
      ],
      "stateMutability": "view",
      "type": "function"
    },
    {
      "inputs": [
        {
          "internalType": "address",
          "name": "dst",
          "type": "address"
        },
        {
          "internalType": "uint256",
          "name": "rawAmount",
          "type": "uint256"
        }
      ],
      "name": "transfer",
      "outputs": [
        {
          "internalType": "bool",
          "name": "",
          "type": "bool"
        }
      ],
      "stateMutability": "nonpayable",
      "type": "function"
    },
    {
      "inputs": [
        {
          "internalType": "address",
          "name": "src",
          "type": "address"
        },
        {
          "internalType": "address",
          "name": "dst",
          "type": "address"
        },
        {
          "internalType": "uint256",
          "name": "rawAmount",
          "type": "uint256"
        }
      ],
      "name": "transferFrom",
      "outputs": [
        {
          "internalType": "bool",
          "name": "",
          "type": "bool"
        }
      ],
      "stateMutability": "nonpayable",
      "type": "function"
    }
  ],
  "bytecode": "0x60c0604052601b60808190527f457468657265756d2050757368204e6f74696669636174696f6e73000000000060a090815262000040916000919062000111565b50604080518082019091526004808252630a0aaa6960e31b60209092019182526200006e9160019162000111565b506002805460ff191660121790556a52b7d2dcc80cd2e40000006003553480156200009857600080fd5b50600380543360008181526005602052604080822080546001600160601b0319166001600160601b0390951694909417909355925491519092839290917fddf252ad1be2c89b69c2b068fc378daa952ba7f163c4a11628f55a4df523b3ef916200010291620001b6565b60405180910390a350620001bf565b828054600181600116156101000203166002900490600052602060002090601f016020900481019282601f106200015457805160ff191683800117855562000184565b8280016001018555821562000184579182015b828111156200018457825182559160200191906001019062000167565b506200019292915062000196565b5090565b620001b391905b808211156200019257600081556001016200019d565b90565b90815260200190565b611f5880620001cf6000396000f3fe608060405234801561001057600080fd5b50600436106101425760003560e01c8063782d6fe1116100b8578063c3cda5201161007c578063c3cda520146102a6578063dd62ed3e146102b9578063e4a5049f146102cc578063e7a324dc146102ed578063f1127ed8146102f5578063f5e989031461030857610142565b8063782d6fe1146102525780637ecebe001461026557806395d89b4114610278578063a9059cbb14610280578063b4b5ea571461029357610142565b8063313ce5671161010a578063313ce567146101b5578063449d1c1f146101ca578063587cde1e146101ea5780635c19a95c1461020a5780636fcfff451461021f57806370a082311461023f57610142565b806306fdde0314610147578063095ea7b31461016557806318160ddd1461018557806320606b701461019a57806323b872dd146101a2575b600080fd5b61014f61031b565b60405161015c9190611a7b565b60405180910390f35b6101786101733660046117f0565b6103a9565b60405161015c9190611a01565b61018d610468565b60405161015c9190611a0c565b61018d61046e565b6101786101b03660046117b0565b610485565b6101bd6105cc565b60405161015c9190611ccd565b6101dd6101d83660046117f0565b6105d5565b60405161015c9190611cdb565b6101fd6101f8366004611761565b6107ec565b60405161015c91906119ed565b61021d610218366004611761565b610807565b005b61023261022d366004611761565b610814565b60405161015c9190611c9d565b61018d61024d366004611761565b61082c565b6101dd6102603660046117f0565b610850565b61018d610273366004611761565b610a19565b61014f610a2b565b61017861028e3660046117f0565b610a85565b6101dd6102a1366004611761565b610acc565b61021d6102b436600461181a565b610b3d565b61018d6102c736600461177c565b610cfc565b6102df6102da366004611879565b610d30565b60405161015c929190611cae565b61018d610d65565b6102df610303366004611879565b610d71565b610232610316366004611761565b610da6565b6000805460408051602060026001851615610100026000190190941693909304601f810184900484028201840190925281815292918301828280156103a15780601f10610376576101008083540402835291602001916103a1565b820191906000526020600020905b81548152906001019060200180831161038457829003601f168201915b505050505081565b6000806000198314156103bf57506000196103e4565b6103e183604051806060016040528060258152602001611efe60259139610dbe565b90505b3360008181526004602090815260408083206001600160a01b03891680855292529182902080546001600160601b0319166001600160601b03861617905590519091907f8c5be1e5ebec7d5bd14f71427d1e84f3dd0314c0f7b2291e5b200ac8c7c3b92590610454908590611cdb565b60405180910390a360019150505b92915050565b60035481565b60405161047a90611943565b604051809103902081565b6001600160a01b03831660009081526004602090815260408083203380855290835281842054825160608101909352602580845291936001600160601b039091169285926104dd9288929190611efe90830139610dbe565b9050866001600160a01b0316836001600160a01b03161415801561050a57506001600160601b0382811614155b156105b457600061053483836040518060600160405280603d8152602001611e36603d9139610ded565b6001600160a01b038981166000818152600460209081526040808320948a16808452949091529081902080546001600160601b0319166001600160601b0386161790555192935090917f8c5be1e5ebec7d5bd14f71427d1e84f3dd0314c0f7b2291e5b200ac8c7c3b925906105aa908590611cdb565b60405180910390a3505b6105bf878783610e2c565b5060019695505050505050565b60025460ff1681565b60004382106105ff5760405162461bcd60e51b81526004016105f690611c56565b60405180910390fd5b6001600160a01b0383166000908152600a602052604090205463ffffffff168061062d576000915050610462565b6001600160a01b038416600090815260076020908152604080832063ffffffff6000198601811685529252909120541683106106a9576001600160a01b03841660009081526007602090815260408083206000199490940163ffffffff1683529290522054600160201b90046001600160601b03169050610462565b6001600160a01b038416600090815260076020908152604080832083805290915290205463ffffffff168310156106e4576000915050610462565b600060001982015b8163ffffffff168163ffffffff1611156107a757600282820363ffffffff16048103610716611733565b506001600160a01b038716600090815260076020908152604080832063ffffffff858116855290835292819020815180830190925254928316808252600160201b9093046001600160601b03169181019190915290871415610782576020015194506104629350505050565b805163ffffffff16871115610799578193506107a0565b6001820392505b50506106ec565b506001600160a01b038516600090815260076020908152604080832063ffffffff909416835292905220546001600160601b03600160201b9091041691505092915050565b6006602052600090815260409020546001600160a01b031681565b6108113382610fd7565b50565b60086020526000908152604090205463ffffffff1681565b6001600160a01b03166000908152600560205260409020546001600160601b031690565b60004382106108715760405162461bcd60e51b81526004016105f690611c56565b6001600160a01b03831660009081526008602052604090205463ffffffff168061089f576000915050610462565b6001600160a01b038416600090815260076020908152604080832063ffffffff60001986018116855292529091205416831061091b576001600160a01b03841660009081526007602090815260408083206000199490940163ffffffff1683529290522054600160201b90046001600160601b03169050610462565b6001600160a01b038416600090815260076020908152604080832083805290915290205463ffffffff16831015610956576000915050610462565b600060001982015b8163ffffffff168163ffffffff1611156107a757600282820363ffffffff16048103610988611733565b506001600160a01b038716600090815260076020908152604080832063ffffffff858116855290835292819020815180830190925254928316808252600160201b9093046001600160601b031691810191909152908714156109f4576020015194506104629350505050565b805163ffffffff16871115610a0b57819350610a12565b6001820392505b505061095e565b600b6020526000908152604090205481565b60018054604080516020600284861615610100026000190190941693909304601f810184900484028201840190925281815292918301828280156103a15780601f10610376576101008083540402835291602001916103a1565b600080610aaa83604051806060016040528060268152602001611e7360269139610dbe565b9050610ab7338583611061565b610ac2338583610e2c565b5060019392505050565b6001600160a01b03811660009081526008602052604081205463ffffffff1680610af7576000610b36565b6001600160a01b0383166000908152600760209081526040808320600019850163ffffffff168452909152902054600160201b90046001600160601b03165b9392505050565b6000604051610b4b90611943565b60405180910390206000604051610b6291906118b8565b6040518091039020610b726111f3565b30604051602001610b869493929190611a39565b6040516020818303038152906040528051906020012090506000604051610bac9061199e565b604051908190038120610bc7918a908a908a90602001611a15565b60405160208183030381529060405280519060200120905060008282604051602001610bf4929190611928565b604051602081830303815290604052805190602001209050600060018288888860405160008152602001604052604051610c319493929190611a5d565b6020604051602081039080840390855afa158015610c53573d6000803e3d6000fd5b5050604051601f1901519150506001600160a01b038116610c865760405162461bcd60e51b81526004016105f690611bb3565b6001600160a01b0381166000908152600b602052604090208054600181019091558914610cc55760405162461bcd60e51b81526004016105f690611ace565b87421115610ce55760405162461bcd60e51b81526004016105f690611b6d565b610cef818b610fd7565b505050505b505050505050565b6001600160a01b0391821660009081526004602090815260408083209390941682529190915220546001600160601b031690565b600960209081526000928352604080842090915290825290205463ffffffff811690600160201b90046001600160601b031682565b60405161047a9061199e565b600760209081526000928352604080842090915290825290205463ffffffff811690600160201b90046001600160601b031682565b600a6020526000908152604090205463ffffffff1681565b600081600160601b8410610de55760405162461bcd60e51b81526004016105f69190611a7b565b509192915050565b6000836001600160601b0316836001600160601b031611158290610e245760405162461bcd60e51b81526004016105f69190611a7b565b505050900390565b6001600160a01b038316610e525760405162461bcd60e51b81526004016105f690611b10565b6001600160a01b038216610e785760405162461bcd60e51b81526004016105f690611bf9565b6001600160a01b038316600090815260056020908152604091829020548251606081019093526036808452610ec3936001600160601b039092169285929190611d4790830139610ded565b6001600160a01b03848116600090815260056020908152604080832080546001600160601b0319166001600160601b03968716179055928616825290829020548251606081019093526030808452610f2b9491909116928592909190611db1908301396111f7565b6001600160a01b038381166000818152600560205260409081902080546001600160601b0319166001600160601b0395909516949094179093559151908516907fddf252ad1be2c89b69c2b068fc378daa952ba7f163c4a11628f55a4df523b3ef90610f98908590611cdb565b60405180910390a36001600160a01b03808416600090815260066020526040808220548584168352912054610fd292918216911683611233565b505050565b6001600160a01b03808316600081815260066020818152604080842080546005845282862054949093528787166001600160a01b031984168117909155905191909516946001600160601b039092169391928592917f3134e8a2e6d97e929a7e54011ea5485d7d196dd5f0ba4d4ef95803e8e3fc257f9190a461105b828483611233565b50505050565b816001600160a01b0316836001600160a01b03161415801561108c57506000816001600160601b0316115b15610fd2576001600160a01b03831615611144576001600160a01b0383166000908152600a602052604081205463ffffffff1690816110cc57600061110b565b6001600160a01b0385166000908152600960209081526040808320600019860163ffffffff168452909152902054600160201b90046001600160601b03165b9050600061113282856040518060600160405280602f8152602001611e99602f9139610ded565b9050611140868484846113c5565b5050505b6001600160a01b03821615610fd2576001600160a01b0382166000908152600a602052604081205463ffffffff16908161117f5760006111be565b6001600160a01b0384166000908152600960209081526040808320600019860163ffffffff168452909152902054600160201b90046001600160601b03165b905060006111e582856040518060600160405280602e8152602001611de1602e91396111f7565b9050610cf4858484846113c5565b4690565b6000838301826001600160601b03808716908316101561122a5760405162461bcd60e51b81526004016105f69190611a7b565b50949350505050565b816001600160a01b0316836001600160a01b03161415801561125e57506000816001600160601b0316115b15610fd2576001600160a01b03831615611316576001600160a01b03831660009081526008602052604081205463ffffffff16908161129e5760006112dd565b6001600160a01b0385166000908152600760209081526040808320600019860163ffffffff168452909152902054600160201b90046001600160601b03165b905060006113048285604051806060016040528060288152602001611d1f60289139610ded565b905061131286848484611570565b5050505b6001600160a01b03821615610fd2576001600160a01b03821660009081526008602052604081205463ffffffff169081611351576000611390565b6001600160a01b0384166000908152600760209081526040808320600019860163ffffffff168452909152902054600160201b90046001600160601b03165b905060006113b78285604051806060016040528060278152602001611e0f602791396111f7565b9050610cf485848484611570565b60006113e943604051806060016040528060368152602001611ec86036913961170c565b905060008463ffffffff1611801561143257506001600160a01b038516600090815260096020908152604080832063ffffffff6000198901811685529252909120548282169116145b1561148c576001600160a01b0385166000908152600960209081526040808320600019880163ffffffff16845290915290208054640100000000600160801b031916600160201b6001600160601b03851602179055611526565b60408051808201825263ffffffff80841682526001600160601b0380861660208085019182526001600160a01b038b166000818152600983528781208c871682528352878120965187549451909516600160201b02640100000000600160801b031995871663ffffffff19958616179590951694909417909555938252600a90935292909220805460018801909316929091169190911790555b846001600160a01b03167f3057c18a765fe76320d0f9401f2f7e0d0f1ad9bcee8fe79d7ee864104c1f0fb38484604051611561929190611cef565b60405180910390a25050505050565b600061159443604051806060016040528060348152602001611d7d6034913961170c565b905060008463ffffffff161180156115dd57506001600160a01b038516600090815260076020908152604080832063ffffffff6000198901811685529252909120548282169116145b15611637576001600160a01b0385166000908152600760209081526040808320600019880163ffffffff16845290915290208054640100000000600160801b031916600160201b6001600160601b038516021790556116d1565b60408051808201825263ffffffff80841682526001600160601b0380861660208085019182526001600160a01b038b166000818152600783528781208c871682528352878120965187549451909516600160201b02640100000000600160801b031995871663ffffffff19958616179590951694909417909555938252600890935292909220805460018801909316929091169190911790555b846001600160a01b03167fdec2bacdd2f05b59de34da9b523dff8be42e5e38e818c82fdb0bae774387a7248484604051611561929190611cef565b600081600160201b8410610de55760405162461bcd60e51b81526004016105f69190611a7b565b604080518082019091526000808252602082015290565b80356001600160a01b038116811461046257600080fd5b600060208284031215611772578081fd5b610b36838361174a565b6000806040838503121561178e578081fd5b611798848461174a565b91506117a7846020850161174a565b90509250929050565b6000806000606084860312156117c4578081fd5b83356117cf81611d09565b925060208401356117df81611d09565b929592945050506040919091013590565b60008060408385031215611802578182fd5b61180c848461174a565b946020939093013593505050565b60008060008060008060c08789031215611832578182fd5b61183c888861174a565b95506020870135945060408701359350606087013560ff8116811461185f578283fd5b9598949750929560808101359460a0909101359350915050565b6000806040838503121561188b578182fd5b611895848461174a565b9150602083013563ffffffff811681146118ad578182fd5b809150509250929050565b60008083546001808216600081146118d757600181146118ee5761191d565b60ff198316865260028304607f168601935061191d565b600283048786526020808720875b838110156119155781548a8201529085019082016118fc565b505050860193505b509195945050505050565b61190160f01b81526002810192909252602282015260420190565b7f454950373132446f6d61696e28737472696e67206e616d652c75696e7432353681527f20636861696e49642c6164647265737320766572696679696e67436f6e74726160208201526263742960e81b604082015260430190565b7f44656c65676174696f6e28616464726573732064656c6567617465652c75696e81527f74323536206e6f6e63652c75696e7432353620657870697279290000000000006020820152603a0190565b6001600160a01b0391909116815260200190565b901515815260200190565b90815260200190565b9384526001600160a01b039290921660208401526040830152606082015260800190565b938452602084019290925260408301526001600160a01b0316606082015260800190565b93845260ff9290921660208401526040830152606082015260800190565b6000602080835283518082850152825b81811015611aa757858101830151858201604001528201611a8b565b81811115611ab85783604083870101525b50601f01601f1916929092016040019392505050565b60208082526022908201527f45504e533a3a64656c656761746542795369673a20696e76616c6964206e6f6e604082015261636560f01b606082015260800190565b6020808252603c908201527f45504e533a3a5f7472616e73666572546f6b656e733a2063616e6e6f7420747260408201527f616e736665722066726f6d20746865207a65726f206164647265737300000000606082015260800190565b60208082526026908201527f45504e533a3a64656c656761746542795369673a207369676e617475726520656040820152651e1c1a5c995960d21b606082015260800190565b60208082526026908201527f45504e533a3a64656c656761746542795369673a20696e76616c6964207369676040820152656e617475726560d01b606082015260800190565b6020808252603a908201527f45504e533a3a5f7472616e73666572546f6b656e733a2063616e6e6f7420747260408201527f616e7366657220746f20746865207a65726f2061646472657373000000000000606082015260800190565b60208082526027908201527f45504e533a3a6765745072696f72566f7465733a206e6f742079657420646574604082015266195c9b5a5b995960ca1b606082015260800190565b63ffffffff91909116815260200190565b63ffffffff9290921682526001600160601b0316602082015260400190565b60ff91909116815260200190565b6001600160601b0391909116815260200190565b6001600160601b0392831681529116602082015260400190565b6001600160a01b038116811461081157600080fdfe45504e533a3a5f6d6f7665566f7465733a20766f746520616d6f756e7420756e646572666c6f777345504e533a3a5f7472616e73666572546f6b656e733a207472616e7366657220616d6f756e7420657863656564732062616c616e636545504e533a3a5f7772697465436865636b706f696e743a20626c6f636b206e756d6265722065786365656473203332206269747345504e533a3a5f7472616e73666572546f6b656e733a207472616e7366657220616d6f756e74206f766572666c6f777345504e533a3a5f7570646174654653526174696f3a2062616c616e636520616d6f756e74206f766572666c6f777345504e533a3a5f6d6f7665566f7465733a20766f746520616d6f756e74206f766572666c6f777345504e533a3a7472616e7366657246726f6d3a207472616e7366657220616d6f756e742065786365656473207370656e64657220616c6c6f77616e636545504e533a3a7472616e736665723a20616d6f756e742065786365656473203936206269747345504e533a3a5f7570646174654653526174696f3a2062616c616e636520616d6f756e7420756e646572666c6f777345504e533a3a5f77726974654653436865636b706f696e743a20626c6f636b206e756d6265722065786365656473203332206269747345504e533a3a617070726f76653a20616d6f756e7420657863656564732039362062697473a26469706673582212208399a401b486ea89f2ab8ed7c35413f87d743945acd91829e9d830aa7abbcdec64736f6c634300060b0033",
  "linkReferences": {},
  "deployedLinkReferences": {}
}