{"abi":[{"type":"function","name":"DOMAIN_TYPEHASH","inputs":[],"outputs":[{"name":"","type":"bytes32","internalType":"bytes32"}],"stateMutability":"view"},{"type":"function","name":"EPNSCoreAddress","inputs":[],"outputs":[{"name":"","type":"address","internalType":"address"}],"stateMutability":"view"},{"type":"function","name":"NAME_HASH","inputs":[],"outputs":[{"name":"","type":"bytes32","internalType":"bytes32"}],"stateMutability":"view"},{"type":"function","name":"PUSH_TOKEN_ADDRESS","inputs":[],"outputs":[{"name":"","type":"address","internalType":"address"}],"stateMutability":"view"},{"type":"function","name":"SEND_NOTIFICATION_TYPEHASH","inputs":[],"outputs":[{"name":"","type":"bytes32","internalType":"bytes32"}],"stateMutability":"view"},{"type":"function","name":"SUBSCRIBE_TYPEHASH","inputs":[],"outputs":[{"name":"","type":"bytes32","internalType":"bytes32"}],"stateMutability":"view"},{"type":"function","name":"UNSUBSCRIBE_TYPEHASH","inputs":[],"outputs":[{"name":"","type":"bytes32","internalType":"bytes32"}],"stateMutability":"view"},{"type":"function","name":"addDelegate","inputs":[{"name":"_delegate","type":"address","internalType":"address"}],"outputs":[],"stateMutability":"nonpayable"},{"type":"function","name":"batchSubscribe","inputs":[{"name":"_channelList","type":"address[]","internalType":"address[]"}],"outputs":[{"name":"","type":"bool","internalType":"bool"}],"stateMutability":"nonpayable"},{"type":"function","name":"batchUnsubscribe","inputs":[{"name":"_channelList","type":"address[]","internalType":"address[]"}],"outputs":[{"name":"","type":"bool","internalType":"bool"}],"stateMutability":"nonpayable"},{"type":"function","name":"chainID","inputs":[],"outputs":[{"name":"","type":"uint256","internalType":"uint256"}],"stateMutability":"view"},{"type":"function","name":"chainName","inputs":[],"outputs":[{"name":"","type":"string","internalType":"string"}],"stateMutability":"view"},{"type":"function","name":"changeUserChannelSettings","inputs":[{"name":"_channel","type":"address","internalType":"address"},{"name":"_notifID","type":"uint256","internalType":"uint256"},{"name":"_notifSettings","type":"string","internalType":"string"}],"outputs":[],"stateMutability":"nonpayable"},{"type":"function","name":"createIncentivizeChatRequest","inputs":[{"name":"requestReceiver","type":"address","internalType":"address"},{"name":"amount","type":"uint256","internalType":"uint256"}],"outputs":[],"stateMutability":"nonpayable"},{"type":"function","name":"delegatedNotificationSenders","inputs":[{"name":"","type":"address","internalType":"address"},{"name":"","type":"address","internalType":"address"}],"outputs":[{"name":"","type":"bool","internalType":"bool"}],"stateMutability":"view"},{"type":"function","name":"governance","inputs":[],"outputs":[{"name":"","type":"address","internalType":"address"}],"stateMutability":"view"},{"type":"function","name":"initialize","inputs":[{"name":"_pushChannelAdmin","type":"address","internalType":"address"},{"name":"_chainName","type":"string","internalType":"string"}],"outputs":[{"name":"","type":"bool","internalType":"bool"}],"stateMutability":"nonpayable"},{"type":"function","name":"isMigrationComplete","inputs":[],"outputs":[{"name":"","type":"bool","internalType":"bool"}],"stateMutability":"view"},{"type":"function","name":"isUserSubscribed","inputs":[{"name":"_channel","type":"address","internalType":"address"},{"name":"_user","type":"address","internalType":"address"}],"outputs":[{"name":"","type":"bool","internalType":"bool"}],"stateMutability":"view"},{"type":"function","name":"mapAddressUsers","inputs":[{"name":"","type":"uint256","internalType":"uint256"}],"outputs":[{"name":"","type":"address","internalType":"address"}],"stateMutability":"view"},{"type":"function","name":"name","inputs":[],"outputs":[{"name":"","type":"string","internalType":"string"}],"stateMutability":"view"},{"type":"function","name":"nonces","inputs":[{"name":"","type":"address","internalType":"address"}],"outputs":[{"name":"","type":"uint256","internalType":"uint256"}],"stateMutability":"view"},{"type":"function","name":"pushChannelAdmin","inputs":[],"outputs":[{"name":"","type":"address","internalType":"address"}],"stateMutability":"view"},{"type":"function","name":"removeChannelAlias","inputs":[{"name":"_channelAddress","type":"string","internalType":"string"}],"outputs":[],"stateMutability":"nonpayable"},{"type":"function","name":"removeDelegate","inputs":[{"name":"_delegate","type":"address","internalType":"address"}],"outputs":[],"stateMutability":"nonpayable"},{"type":"function","name":"sendNotifBySig","inputs":[{"name":"_channel","type":"address","internalType":"address"},{"name":"_recipient","type":"address","internalType":"address"},{"name":"_signer","type":"address","internalType":"address"},{"name":"_identity","type":"bytes","internalType":"bytes"},{"name":"nonce","type":"uint256","internalType":"uint256"},{"name":"expiry","type":"uint256","internalType":"uint256"},{"name":"v","type":"uint8","internalType":"uint8"},{"name":"r","type":"bytes32","internalType":"bytes32"},{"name":"s","type":"bytes32","internalType":"bytes32"}],"outputs":[{"name":"","type":"bool","internalType":"bool"}],"stateMutability":"nonpayable"},{"type":"function","name":"sendNotification","inputs":[{"name":"_channel","type":"address","internalType":"address"},{"name":"_recipient","type":"address","internalType":"address"},{"name":"_identity","type":"bytes","internalType":"bytes"}],"outputs":[{"name":"","type":"bool","internalType":"bool"}],"stateMutability":"nonpayable"},{"type":"function","name":"setEPNSCoreAddress","inputs":[{"name":"_coreAddress","type":"address","internalType":"address"}],"outputs":[],"stateMutability":"nonpayable"},{"type":"function","name":"setGovernanceAddress","inputs":[{"name":"_governanceAddress","type":"address","internalType":"address"}],"outputs":[],"stateMutability":"nonpayable"},{"type":"function","name":"setPushTokenAddress","inputs":[{"name":"_tokenAddress","type":"address","internalType":"address"}],"outputs":[],"stateMutability":"nonpayable"},{"type":"function","name":"subscribe","inputs":[{"name":"_channel","type":"address","internalType":"address"}],"outputs":[{"name":"","type":"bool","internalType":"bool"}],"stateMutability":"nonpayable"},{"type":"function","name":"subscribeBySig","inputs":[{"name":"channel","type":"address","internalType":"address"},{"name":"subscriber","type":"address","internalType":"address"},{"name":"nonce","type":"uint256","internalType":"uint256"},{"name":"expiry","type":"uint256","internalType":"uint256"},{"name":"v","type":"uint8","internalType":"uint8"},{"name":"r","type":"bytes32","internalType":"bytes32"},{"name":"s","type":"bytes32","internalType":"bytes32"}],"outputs":[],"stateMutability":"nonpayable"},{"type":"function","name":"subscribeViaCore","inputs":[{"name":"_channel","type":"address","internalType":"address"},{"name":"_user","type":"address","internalType":"address"}],"outputs":[{"name":"","type":"bool","internalType":"bool"}],"stateMutability":"nonpayable"},{"type":"function","name":"transferPushChannelAdminControl","inputs":[{"name":"_newAdmin","type":"address","internalType":"address"}],"outputs":[],"stateMutability":"nonpayable"},{"type":"function","name":"unSubscribeViaCore","inputs":[{"name":"_channel","type":"address","internalType":"address"},{"name":"_user","type":"address","internalType":"address"}],"outputs":[{"name":"","type":"bool","internalType":"bool"}],"stateMutability":"nonpayable"},{"type":"function","name":"unsubscribe","inputs":[{"name":"_channel","type":"address","internalType":"address"}],"outputs":[{"name":"","type":"bool","internalType":"bool"}],"stateMutability":"nonpayable"},{"type":"function","name":"unsubscribeBySig","inputs":[{"name":"channel","type":"address","internalType":"address"},{"name":"subscriber","type":"address","internalType":"address"},{"name":"nonce","type":"uint256","internalType":"uint256"},{"name":"expiry","type":"uint256","internalType":"uint256"},{"name":"v","type":"uint8","internalType":"uint8"},{"name":"r","type":"bytes32","internalType":"bytes32"},{"name":"s","type":"bytes32","internalType":"bytes32"}],"outputs":[],"stateMutability":"nonpayable"},{"type":"function","name":"userChatData","inputs":[{"name":"","type":"address","internalType":"address"}],"outputs":[{"name":"requestSender","type":"address","internalType":"address"},{"name":"timestamp","type":"uint256","internalType":"uint256"},{"name":"amountDeposited","type":"uint256","internalType":"uint256"}],"stateMutability":"view"},{"type":"function","name":"userToChannelNotifs","inputs":[{"name":"","type":"address","internalType":"address"},{"name":"","type":"address","internalType":"address"}],"outputs":[{"name":"","type":"string","internalType":"string"}],"stateMutability":"view"},{"type":"function","name":"users","inputs":[{"name":"","type":"address","internalType":"address"}],"outputs":[{"name":"userActivated","type":"bool","internalType":"bool"},{"name":"publicKeyRegistered","type":"bool","internalType":"bool"},{"name":"userStartBlock","type":"uint256","internalType":"uint256"},{"name":"subscribedCount","type":"uint256","internalType":"uint256"}],"stateMutability":"view"},{"type":"function","name":"usersCount","inputs":[],"outputs":[{"name":"","type":"uint256","internalType":"uint256"}],"stateMutability":"view"},{"type":"function","name":"verifyChannelAlias","inputs":[{"name":"_channelAddress","type":"string","internalType":"string"}],"outputs":[],"stateMutability":"nonpayable"},{"type":"event","name":"AddDelegate","inputs":[{"name":"channel","type":"address","indexed":false,"internalType":"address"},{"name":"delegate","type":"address","indexed":false,"internalType":"address"}],"anonymous":false},{"type":"event","name":"ChannelAlias","inputs":[{"name":"_chainName","type":"string","indexed":false,"internalType":"string"},{"name":"_chainID","type":"uint256","indexed":true,"internalType":"uint256"},{"name":"_channelOwnerAddress","type":"address","indexed":true,"internalType":"address"},{"name":"_ethereumChannelAddress","type":"string","indexed":false,"internalType":"string"}],"anonymous":false},{"type":"event","name":"IncentivizeChatReqInitiated","inputs":[{"name":"requestSender","type":"address","indexed":false,"internalType":"address"},{"name":"requestReceiver","type":"address","indexed":false,"internalType":"address"},{"name":"amountDeposited","type":"uint256","indexed":false,"internalType":"uint256"},{"name":"timestamp","type":"uint256","indexed":false,"internalType":"uint256"}],"anonymous":false},{"type":"event","name":"Initialized","inputs":[{"name":"version","type":"uint8","indexed":false,"internalType":"uint8"}],"anonymous":false},{"type":"event","name":"PublicKeyRegistered","inputs":[{"name":"owner","type":"address","indexed":true,"internalType":"address"},{"name":"publickey","type":"bytes","indexed":false,"internalType":"bytes"}],"anonymous":false},{"type":"event","name":"RemoveChannelAlias","inputs":[{"name":"_chainName","type":"string","indexed":false,"internalType":"string"},{"name":"_chainID","type":"uint256","indexed":true,"internalType":"uint256"},{"name":"_channelOwnerAddress","type":"address","indexed":true,"internalType":"address"},{"name":"_baseChannelAddress","type":"string","indexed":false,"internalType":"string"}],"anonymous":false},{"type":"event","name":"RemoveDelegate","inputs":[{"name":"channel","type":"address","indexed":false,"internalType":"address"},{"name":"delegate","type":"address","indexed":false,"internalType":"address"}],"anonymous":false},{"type":"event","name":"SendNotification","inputs":[{"name":"channel","type":"address","indexed":true,"internalType":"address"},{"name":"recipient","type":"address","indexed":true,"internalType":"address"},{"name":"identity","type":"bytes","indexed":false,"internalType":"bytes"}],"anonymous":false},{"type":"event","name":"Subscribe","inputs":[{"name":"channel","type":"address","indexed":true,"internalType":"address"},{"name":"user","type":"address","indexed":true,"internalType":"address"}],"anonymous":false},{"type":"event","name":"Unsubscribe","inputs":[{"name":"channel","type":"address","indexed":true,"internalType":"address"},{"name":"user","type":"address","indexed":true,"internalType":"address"}],"anonymous":false},{"type":"event","name":"UserNotifcationSettingsAdded","inputs":[{"name":"_channel","type":"address","indexed":false,"internalType":"address"},{"name":"_user","type":"address","indexed":false,"internalType":"address"},{"name":"_notifID","type":"uint256","indexed":false,"internalType":"uint256"},{"name":"_notifSettings","type":"string","indexed":false,"internalType":"string"}],"anonymous":false},{"type":"error","name":"CallerNotAdmin","inputs":[]},{"type":"error","name":"Comm_InvalidNonce","inputs":[]},{"type":"error","name":"Comm_InvalidSignature_FromContract","inputs":[]},{"type":"error","name":"Comm_InvalidSignature_FromEOA","inputs":[]},{"type":"error","name":"Comm_InvalidSubscriber","inputs":[]},{"type":"error","name":"Comm_TimeExpired","inputs":[{"name":"endTime","type":"uint256","internalType":"uint256"},{"name":"currentTime","type":"uint256","internalType":"uint256"}]},{"type":"error","name":"InvalidArg_LessThanExpected","inputs":[{"name":"min_threshold","type":"uint256","internalType":"uint256"},{"name":"actual_value","type":"uint256","internalType":"uint256"}]},{"type":"error","name":"InvalidArgument_WrongAddress","inputs":[{"name":"user","type":"address","internalType":"address"}]},{"type":"error","name":"UnauthorizedCaller","inputs":[{"name":"caller","type":"address","internalType":"address"}]}],"bytecode":{"object":"0x608060405234801561000f575f80fd5b506136578061001d5f395ff3fe608060405234801561000f575f80fd5b50600436106102cc575f3560e01c806371fed0921161017c578063adc879e9116100dd578063e059c6d011610093578063f399e22e1161006e578063f399e22e146107d8578063f83c7f77146107eb578063ffb84883146107fe575f80fd5b8063e059c6d01461078b578063e71bdf41146107b2578063ed7ee0f6146107c5575f80fd5b8063bd90f815116100c3578063bd90f8151461074b578063cfc162541461076b578063d71280841461077e575f80fd5b8063adc879e91461072f578063ba3d69d714610738575f80fd5b80638cfbc3e0116101325780639c1727f5116101185780639c1727f5146106ac578063a0e30b2c146106bf578063a87430ba146106d2575f80fd5b80638cfbc3e01461067957806392d41a5314610699575f80fd5b806373ec8cfb1161016257806373ec8cfb146106345780637ecebe00146106475780637f6c16dc14610666575f80fd5b806371fed0921461060e5780637262561c14610621575f80fd5b80633e5b73c6116102315780635227dd05116101e757806367e7646f116101c257806367e7646f146105c55780636ba13a82146105d85780636e0d232c146105e1575f80fd5b80635227dd051461055d57806356aaba49146105925780635aa6e675146105a5575f80fd5b806341a7726a1161021757806341a7726a146104ed57806342564cb41461050057806344c3bca51461054a575f80fd5b80633e5b73c6146104635780633f6109fb146104da575f80fd5b806317aeae581161028657806320606b701161026c57806320606b70146104165780632d57f9361461043d57806337a4ebb814610450575f80fd5b806317aeae58146103e75780631c93b03a1461040e575f80fd5b8063040e80ed116102b6578063040e80ed1461030d57806304622c2e1461034257806306fdde031461039e575f80fd5b806224be7a146102d0578063017d5efe146102f8575b5f80fd5b6102e36102de366004612c67565b610811565b60405190151581526020015b60405180910390f35b61030b610306366004612cfe565b610862565b005b6103347f25283200315ac15e79f5b17ebe844bb8f5facab77bd5c9c8f8d4b592b9949d8981565b6040519081526020016102ef565b60408051808201909152600c81527f45504e5320434f4d4d20563100000000000000000000000000000000000000006020909101526103347f7c232e0a8d7516843ab49a97f72ad251bb744a65be4e5bc6de77904d54673db981565b6103da6040518060400160405280600c81526020017f45504e5320434f4d4d205631000000000000000000000000000000000000000081525081565b6040516102ef9190612d82565b6103347fa3e12f3a1cbc87b63b39a5ed58d9a2941caba455abcd2a654e7800d7c3a69de281565b6103da61098b565b6103347f8cad95687ba82c2ce50e74f7b754645e5117c3a5bec8151c0726d5857980a86681565b61030b61044b366004612d94565b610a17565b6102e361045e366004612c67565b610c0f565b6104a8610471366004612cfe565b600d6020525f908152604090208054600182015460029092015473ffffffffffffffffffffffffffffffffffffffff909116919083565b6040805173ffffffffffffffffffffffffffffffffffffffff90941684526020840192909252908201526060016102ef565b61030b6104e8366004612dcc565b610c53565b6102e36104fb366004612cfe565b61111a565b600a5461052590610100900473ffffffffffffffffffffffffffffffffffffffff1681565b60405173ffffffffffffffffffffffffffffffffffffffff90911681526020016102ef565b61030b610558366004612dcc565b61112d565b61052561056b366004612e31565b60036020525f908152604090205473ffffffffffffffffffffffffffffffffffffffff1681565b61030b6105a0366004612cfe565b6115e8565b6006546105259073ffffffffffffffffffffffffffffffffffffffff1681565b61030b6105d3366004612cfe565b611680565b61033460095481565b6102e36105ef366004612e48565b600560209081525f928352604080842090915290825290205460ff1681565b61030b61061c366004612cfe565b611713565b6102e361062f366004612cfe565b6117b0565b6102e3610642366004612e48565b6117bb565b610334610655366004612cfe565b60026020525f908152604090205481565b61030b610674366004612f55565b611828565b600c546105259073ffffffffffffffffffffffffffffffffffffffff1681565b6102e36106a7366004612e48565b61187f565b61030b6106ba366004612f55565b6118e3565b6102e36106cd366004612fcc565b61192f565b61070d6106e0366004612cfe565b600160208190525f918252604090912080549181015460029091015460ff80841693610100900416919084565b60408051941515855292151560208501529183015260608201526080016102ef565b61033460085481565b6102e3610746366004613072565b611d72565b6007546105259073ffffffffffffffffffffffffffffffffffffffff1681565b61030b610779366004612cfe565b611e01565b600a546102e39060ff1681565b6103347f8d9aa0830ab50a97d876b6b35a987f5043ee4c983259ae5783c506feee3842c581565b61030b6107c0366004612cfe565b611e99565b61030b6107d33660046130df565b611f46565b6102e36107e6366004613135565b612040565b6103da6107f9366004612e48565b61222e565b6102e361080c366004612e48565b612251565b5f81815b818110156108555761084d85858381811061083257610832613180565b90506020020160208101906108479190612cfe565b3361229e565b600101610815565b5060019150505b92915050565b60075473ffffffffffffffffffffffffffffffffffffffff1633146108b3576040517f06d919f200000000000000000000000000000000000000000000000000000000815260040160405180910390fd5b73ffffffffffffffffffffffffffffffffffffffff811615806108f0575060075473ffffffffffffffffffffffffffffffffffffffff8281169116145b15610944576040517f3e1378c100000000000000000000000000000000000000000000000000000000815273ffffffffffffffffffffffffffffffffffffffff821660048201526024015b60405180910390fd5b600780547fffffffffffffffffffffffff00000000000000000000000000000000000000001673ffffffffffffffffffffffffffffffffffffffff92909216919091179055565b600b8054610998906131ad565b80601f01602080910402602001604051908101604052809291908181526020018280546109c4906131ad565b8015610a0f5780601f106109e657610100808354040283529160200191610a0f565b820191905f5260205f20905b8154815290600101906020018083116109f257829003601f168201915b505050505081565b805f03610a5a576040517f2d93586c000000000000000000000000000000000000000000000000000000008152600160048201526024810182905260440161093b565b600a54600c54339173ffffffffffffffffffffffffffffffffffffffff610100909104811691610a8d91168383866123dc565b73ffffffffffffffffffffffffffffffffffffffff82165f908152600d602052604081206002810154909103610afc5780547fffffffffffffffffffffffff00000000000000000000000000000000000000001673ffffffffffffffffffffffffffffffffffffffff84161781555b42816001018190555083816002015f828254610b18919061322b565b90915550506040517f2359600c00000000000000000000000000000000000000000000000000000000815273ffffffffffffffffffffffffffffffffffffffff8481166004830152868116602483015260448201869052831690632359600c906064015f604051808303815f87803b158015610b92575f80fd5b505af1158015610ba4573d5f803e3d5ffd5b50506040805173ffffffffffffffffffffffffffffffffffffffff8088168252891660208201529081018790524260608201527fed128fa94586dc6952f835aebbb851abae26a553240d766abf93ba2429e22a62925060800190505b60405180910390a15050505050565b5f81815b8181101561085557610c4b858583818110610c3057610c30613180565b9050602002016020810190610c459190612cfe565b33612477565b600101610c13565b73ffffffffffffffffffffffffffffffffffffffff8616610cb8576040517f3e1378c100000000000000000000000000000000000000000000000000000000815273ffffffffffffffffffffffffffffffffffffffff8716600482015260240161093b565b73ffffffffffffffffffffffffffffffffffffffff86165f908152600260205260408120805491610ce88361323e565b919050558514610d24576040517f2dc499f600000000000000000000000000000000000000000000000000000000815260040160405180910390fd5b83421115610d67576040517f4ba2d6f90000000000000000000000000000000000000000000000000000000081526004810185905242602482015260440161093b565b604080518082018252600c81527f45504e5320434f4d4d205631000000000000000000000000000000000000000060209182015281517f8cad95687ba82c2ce50e74f7b754645e5117c3a5bec8151c0726d5857980a866818301527f7c232e0a8d7516843ab49a97f72ad251bb744a65be4e5bc6de77904d54673db981840152466060820152306080808301919091528351808303909101815260a0820184528051908301207f8d9aa0830ab50a97d876b6b35a987f5043ee4c983259ae5783c506feee3842c560c083015273ffffffffffffffffffffffffffffffffffffffff8b811660e08401528a16610100830152610120820189905261014080830189905284518084039091018152610160830185528051908401207f190100000000000000000000000000000000000000000000000000000000000061018084015261018283018290526101a2808401829052855180850390910181526101c290930190945281519190920120909190883b1561104057604080516020810187905280820186905260f888901b7fff000000000000000000000000000000000000000000000000000000000000001660608201528151604181830301815260618201928390527f1626ba7e000000000000000000000000000000000000000000000000000000009092525f9173ffffffffffffffffffffffffffffffffffffffff8c1691631626ba7e91610f7e91869190606501613275565b602060405180830381865afa158015610f99573d5f803e3d5ffd5b505050506040513d601f19601f82011682018060405250810190610fbd919061328d565b90507f1626ba7e000000000000000000000000000000000000000000000000000000007fffffffff0000000000000000000000000000000000000000000000000000000082161461103a576040517fd0f006f100000000000000000000000000000000000000000000000000000000815260040160405180910390fd5b50611104565b604080515f8082526020820180845284905260ff891692820192909252606081018790526080810186905260019060a0016020604051602081039080840390855afa158015611091573d5f803e3d5ffd5b5050506020604051035190508973ffffffffffffffffffffffffffffffffffffffff168173ffffffffffffffffffffffffffffffffffffffff1614611102576040517fbc4057ad00000000000000000000000000000000000000000000000000000000815260040160405180910390fd5b505b61110e8a8a612477565b50505050505050505050565b5f6111258233612477565b506001919050565b73ffffffffffffffffffffffffffffffffffffffff8616611192576040517f3e1378c100000000000000000000000000000000000000000000000000000000815273ffffffffffffffffffffffffffffffffffffffff8716600482015260240161093b565b73ffffffffffffffffffffffffffffffffffffffff86165f9081526002602052604081208054916111c28361323e565b9190505585146111fe576040517f2dc499f600000000000000000000000000000000000000000000000000000000815260040160405180910390fd5b83421115611241576040517f4ba2d6f90000000000000000000000000000000000000000000000000000000081526004810185905242602482015260440161093b565b604080518082018252600c81527f45504e5320434f4d4d205631000000000000000000000000000000000000000060209182015281517f8cad95687ba82c2ce50e74f7b754645e5117c3a5bec8151c0726d5857980a866818301527f7c232e0a8d7516843ab49a97f72ad251bb744a65be4e5bc6de77904d54673db981840152466060820152306080808301919091528351808303909101815260a0820184528051908301207f25283200315ac15e79f5b17ebe844bb8f5facab77bd5c9c8f8d4b592b9949d8960c083015273ffffffffffffffffffffffffffffffffffffffff8b811660e08401528a16610100830152610120820189905261014080830189905284518084039091018152610160830185528051908401207f190100000000000000000000000000000000000000000000000000000000000061018084015261018283018290526101a2808401829052855180850390910181526101c290930190945281519190920120909190883b1561151a57604080516020810187905280820186905260f888901b7fff000000000000000000000000000000000000000000000000000000000000001660608201528151604181830301815260618201928390527f1626ba7e000000000000000000000000000000000000000000000000000000009092525f9173ffffffffffffffffffffffffffffffffffffffff8c1691631626ba7e9161145891869190606501613275565b602060405180830381865afa158015611473573d5f803e3d5ffd5b505050506040513d601f19601f82011682018060405250810190611497919061328d565b90507f1626ba7e000000000000000000000000000000000000000000000000000000007fffffffff00000000000000000000000000000000000000000000000000000000821614611514576040517fd0f006f100000000000000000000000000000000000000000000000000000000815260040160405180910390fd5b506115de565b604080515f8082526020820180845284905260ff891692820192909252606081018790526080810186905260019060a0016020604051602081039080840390855afa15801561156b573d5f803e3d5ffd5b5050506020604051035190508973ffffffffffffffffffffffffffffffffffffffff168173ffffffffffffffffffffffffffffffffffffffff16146115dc576040517fbc4057ad00000000000000000000000000000000000000000000000000000000815260040160405180910390fd5b505b61110e8a8a61229e565b60075473ffffffffffffffffffffffffffffffffffffffff163314611639576040517f06d919f200000000000000000000000000000000000000000000000000000000815260040160405180910390fd5b600c80547fffffffffffffffffffffffff00000000000000000000000000000000000000001673ffffffffffffffffffffffffffffffffffffffff92909216919091179055565b335f81815260056020908152604080832073ffffffffffffffffffffffffffffffffffffffff86168085529083529281902080547fffffffffffffffffffffffffffffffffffffffffffffffffffffffffffffff001690558051938452908301919091527fdccc2d936ded24d2153d2760581a7f0dcb23ec71190c9726b3584cdd700214d491015b60405180910390a150565b60075473ffffffffffffffffffffffffffffffffffffffff163314611764576040517f06d919f200000000000000000000000000000000000000000000000000000000815260040160405180910390fd5b600a805473ffffffffffffffffffffffffffffffffffffffff909216610100027fffffffffffffffffffffff0000000000000000000000000000000000000000ff909216919091179055565b5f611125823361229e565b600a545f90610100900473ffffffffffffffffffffffffffffffffffffffff163314611815576040517fd86ad9cf00000000000000000000000000000000000000000000000000000000815233600482015260240161093b565b61181f8383612477565b50600192915050565b3373ffffffffffffffffffffffffffffffffffffffff166008547f6bc2285dcf7383bc0c0f37cc28ca4786636941d3a6d3e09c6d6f46f7efa39268600b846040516118749291906132cc565b60405180910390a350565b600a545f90610100900473ffffffffffffffffffffffffffffffffffffffff1633146118d9576040517fd86ad9cf00000000000000000000000000000000000000000000000000000000815233600482015260240161093b565b61181f838361229e565b3373ffffffffffffffffffffffffffffffffffffffff166008547f8c4b6a23961dde2a11ffbb433538b4a405f643b57dc134dad9d236d13cbccc86600b846040516118749291906132cc565b5f73ffffffffffffffffffffffffffffffffffffffff89161580611977575073ffffffffffffffffffffffffffffffffffffffff89165f908152600260205260409020548614155b8061198157508442115b1561198d57505f611d64565b604080518082018252600c81527f45504e5320434f4d4d205631000000000000000000000000000000000000000060209182015281517f8cad95687ba82c2ce50e74f7b754645e5117c3a5bec8151c0726d5857980a866918101919091527f7c232e0a8d7516843ab49a97f72ad251bb744a65be4e5bc6de77904d54673db9918101919091524660608201523060808201525f9060a0016040516020818303038152906040528051906020012090505f7fa3e12f3a1cbc87b63b39a5ed58d9a2941caba455abcd2a654e7800d7c3a69de28d8d8c8c604051611a7092919061337b565b60408051918290038220602083019590955273ffffffffffffffffffffffffffffffffffffffff9384169082015291166060820152608081019190915260a0810189905260c0810188905260e0016040516020818303038152906040528051906020012090505f8282604051602001611b1b9291907f190100000000000000000000000000000000000000000000000000000000000081526002810192909252602282015260420190565b604051602081830303815290604052805190602001209050611b3d8c3b151590565b15611c8057604080516020810188905280820187905260f889901b7fff000000000000000000000000000000000000000000000000000000000000001660608201528151604181830301815260618201928390527f1626ba7e000000000000000000000000000000000000000000000000000000009092525f9173ffffffffffffffffffffffffffffffffffffffff8f1691631626ba7e91611be491869190606501613275565b602060405180830381865afa158015611bff573d5f803e3d5ffd5b505050506040513d601f19601f82011682018060405250810190611c23919061328d565b90507f1626ba7e000000000000000000000000000000000000000000000000000000007fffffffff00000000000000000000000000000000000000000000000000000000821614611c7a575f945050505050611d64565b50611d1e565b604080515f8082526020820180845284905260ff8a1692820192909252606081018890526080810187905260019060a0016020604051602081039080840390855afa158015611cd1573d5f803e3d5ffd5b5050506020604051035190508c73ffffffffffffffffffffffffffffffffffffffff168173ffffffffffffffffffffffffffffffffffffffff1614611d1c575f945050505050611d64565b505b5f611d2c8f8f8f8f8f612591565b9050611d398a600161322b565b73ffffffffffffffffffffffffffffffffffffffff8e165f9081526002602052604090205593505050505b9a9950505050505050505050565b5f80611d7e858561267d565b90508015611df5578373ffffffffffffffffffffffffffffffffffffffff168573ffffffffffffffffffffffffffffffffffffffff167fcc2b84a32bce3d060db75a4c0e59bfef192503be5c83bfa5ad79a41d384ff22c85604051611de39190612d82565b60405180910390a36001915050611dfa565b5f9150505b9392505050565b60075473ffffffffffffffffffffffffffffffffffffffff163314611e52576040517f06d919f200000000000000000000000000000000000000000000000000000000815260040160405180910390fd5b600680547fffffffffffffffffffffffff00000000000000000000000000000000000000001673ffffffffffffffffffffffffffffffffffffffff92909216919091179055565b335f81815260056020908152604080832073ffffffffffffffffffffffffffffffffffffffff86168452909152902080547fffffffffffffffffffffffffffffffffffffffffffffffffffffffffffffff00166001179055611efb9082612477565b6040805133815273ffffffffffffffffffffffffffffffffffffffff831660208201527f2fd5b26f00131bd8ca0fc556207292b85a6bec241341df82724333227458e6309101611708565b611f508433612251565b611f86576040517f02155a6800000000000000000000000000000000000000000000000000000000815260040160405180910390fd5b5f611f90846126e6565b8383604051602001611fa49392919061338a565b604080517fffffffffffffffffffffffffffffffffffffffffffffffffffffffffffffffe0818403018152918152335f9081526004602090815282822073ffffffffffffffffffffffffffffffffffffffff8a16835290522090915061200a8282613428565b507f790dac2f69fa06ffde2a1ba07cccf57910606213ce442099a2ab6ebe3bedc0ad85338684604051610c009493929190613540565b5f8054610100900460ff161580801561205f57505f54600160ff909116105b806120785750303b15801561207857505f5460ff166001145b612104576040517f08c379a000000000000000000000000000000000000000000000000000000000815260206004820152602e60248201527f496e697469616c697a61626c653a20636f6e747261637420697320616c72656160448201527f647920696e697469616c697a6564000000000000000000000000000000000000606482015260840161093b565b5f80547fffffffffffffffffffffffffffffffffffffffffffffffffffffffffffffff001660011790558015612160575f80547fffffffffffffffffffffffffffffffffffffffffffffffffffffffffffff00ff166101001790555b6007805473ffffffffffffffffffffffffffffffffffffffff86167fffffffffffffffffffffffff00000000000000000000000000000000000000009182168117909255600680549091169091179055600b6121bc8482613428565b5046600855600191508015612227575f80547fffffffffffffffffffffffffffffffffffffffffffffffffffffffffffff00ff169055604051600181527f7f26b83ff96e1f2b6a682f133852f6798a09c465da95921460cefb38474024989060200160405180910390a15b5092915050565b600460209081525f928352604080842090915290825290208054610998906131ad565b73ffffffffffffffffffffffffffffffffffffffff8082165f90815260016020818152604080842094871684526003850190915282205491929160ff16900361222757600191505061085c565b6122a88282612251565b156123d85773ffffffffffffffffffffffffffffffffffffffff81165f908152600160208190526040822060028101549092916122e491613588565b73ffffffffffffffffffffffffffffffffffffffff8581165f818152600386016020908152604080832080547fffffffffffffffffffffffffffffffffffffffffffffffffffffffffffffff0016905560048801808352818420805488865260058b0180865284872080548a168852938652848720829055835491875290945282852080549488167fffffffffffffffffffffffff0000000000000000000000000000000000000000958616179055849055868452805490921690915560028701859055519394509186169290917f9d3d878d2fb01c43ad7ec7c20d8f5d0dbac4888df940a4edaab4540ccefdc10291a350505b5050565b6040805173ffffffffffffffffffffffffffffffffffffffff85811660248301528416604482015260648082018490528251808303909101815260849091019091526020810180517bffffffffffffffffffffffffffffffffffffffffffffffffffffffff167f23b872dd000000000000000000000000000000000000000000000000000000001790526124719085906127a2565b50505050565b6124818282612251565b6123d85761248e816128b4565b73ffffffffffffffffffffffffffffffffffffffff8082165f908152600160208181526040808420600281015495881680865260038201845282862080547fffffffffffffffffffffffffffffffffffffffffffffffffffffffffffffff00168617905560048201845282862087905586865260058201909352932080547fffffffffffffffffffffffff000000000000000000000000000000000000000016909117905590919061254190829061322b565b600283015560405173ffffffffffffffffffffffffffffffffffffffff80851691908616907f5ffe3cc8f1055f172e55be8d832143a6cffb4cb3a56a18bf780fd4112d4cecc7905f90a350505050565b5f8373ffffffffffffffffffffffffffffffffffffffff168673ffffffffffffffffffffffffffffffffffffffff1614806125fd575073ffffffffffffffffffffffffffffffffffffffff8087165f9081526005602090815260408083209388168352929052205460ff165b15612671578473ffffffffffffffffffffffffffffffffffffffff168673ffffffffffffffffffffffffffffffffffffffff167fcc2b84a32bce3d060db75a4c0e59bfef192503be5c83bfa5ad79a41d384ff22c858560405161266192919061359b565b60405180910390a3506001612674565b505f5b95945050505050565b5f73ffffffffffffffffffffffffffffffffffffffff83163314806126d1575073ffffffffffffffffffffffffffffffffffffffff83165f90815260056020908152604080832033845290915290205460ff165b156126de5750600161085c565b505f92915050565b60605f6126f28361297d565b60010190505f8167ffffffffffffffff81111561271157612711612e79565b6040519080825280601f01601f19166020018201604052801561273b576020820181803683370190505b5090508181016020015b7fffffffffffffffffffffffffffffffffffffffffffffffffffffffffffffffff017f3031323334353637383961626364656600000000000000000000000000000000600a86061a8153600a850494508461274557509392505050565b5f612803826040518060400160405280602081526020017f5361666545524332303a206c6f772d6c6576656c2063616c6c206661696c65648152508573ffffffffffffffffffffffffffffffffffffffff16612a5e9092919063ffffffff16565b905080515f148061282357508080602001905181019061282391906135e7565b6128af576040517f08c379a000000000000000000000000000000000000000000000000000000000815260206004820152602a60248201527f5361666545524332303a204552433230206f7065726174696f6e20646964206e60448201527f6f74207375636365656400000000000000000000000000000000000000000000606482015260840161093b565b505050565b73ffffffffffffffffffffffffffffffffffffffff81165f9081526001602052604090205460ff1661297a5773ffffffffffffffffffffffffffffffffffffffff81165f818152600160208181526040808420438185015580547fffffffffffffffffffffffffffffffffffffffffffffffffffffffffffffff001684179055600980548552600390925290922080547fffffffffffffffffffffffff000000000000000000000000000000000000000016909317909255546129769161322b565b6009555b50565b5f807a184f03e93ff9f4daa797ed6e38ed64bf6a1f01000000000000000083106129c5577a184f03e93ff9f4daa797ed6e38ed64bf6a1f010000000000000000830492506040015b6d04ee2d6d415b85acef810000000083106129f1576d04ee2d6d415b85acef8100000000830492506020015b662386f26fc100008310612a0f57662386f26fc10000830492506010015b6305f5e1008310612a27576305f5e100830492506008015b6127108310612a3b57612710830492506004015b60648310612a4d576064830492506002015b600a831061085c5760010192915050565b6060612a6c84845f85612a74565b949350505050565b606082471015612b06576040517f08c379a000000000000000000000000000000000000000000000000000000000815260206004820152602660248201527f416464726573733a20696e73756666696369656e742062616c616e636520666f60448201527f722063616c6c0000000000000000000000000000000000000000000000000000606482015260840161093b565b5f808673ffffffffffffffffffffffffffffffffffffffff168587604051612b2e9190613606565b5f6040518083038185875af1925050503d805f8114612b68576040519150601f19603f3d011682016040523d82523d5f602084013e612b6d565b606091505b5091509150612b7e87838387612b89565b979650505050505050565b60608315612c1e5782515f03612c175773ffffffffffffffffffffffffffffffffffffffff85163b612c17576040517f08c379a000000000000000000000000000000000000000000000000000000000815260206004820152601d60248201527f416464726573733a2063616c6c20746f206e6f6e2d636f6e7472616374000000604482015260640161093b565b5081612a6c565b612a6c8383815115612c335781518083602001fd5b806040517f08c379a000000000000000000000000000000000000000000000000000000000815260040161093b9190612d82565b5f8060208385031215612c78575f80fd5b823567ffffffffffffffff80821115612c8f575f80fd5b818501915085601f830112612ca2575f80fd5b813581811115612cb0575f80fd5b8660208260051b8501011115612cc4575f80fd5b60209290920196919550909350505050565b803573ffffffffffffffffffffffffffffffffffffffff81168114612cf9575f80fd5b919050565b5f60208284031215612d0e575f80fd5b611dfa82612cd6565b5f5b83811015612d31578181015183820152602001612d19565b50505f910152565b5f8151808452612d50816020860160208601612d17565b601f017fffffffffffffffffffffffffffffffffffffffffffffffffffffffffffffffe0169290920160200192915050565b602081525f611dfa6020830184612d39565b5f8060408385031215612da5575f80fd5b612dae83612cd6565b946020939093013593505050565b803560ff81168114612cf9575f80fd5b5f805f805f805f60e0888a031215612de2575f80fd5b612deb88612cd6565b9650612df960208901612cd6565b95506040880135945060608801359350612e1560808901612dbc565b925060a0880135915060c0880135905092959891949750929550565b5f60208284031215612e41575f80fd5b5035919050565b5f8060408385031215612e59575f80fd5b612e6283612cd6565b9150612e7060208401612cd6565b90509250929050565b7f4e487b71000000000000000000000000000000000000000000000000000000005f52604160045260245ffd5b5f67ffffffffffffffff80841115612ec057612ec0612e79565b604051601f85017fffffffffffffffffffffffffffffffffffffffffffffffffffffffffffffffe0908116603f01168101908282118183101715612f0657612f06612e79565b81604052809350858152868686011115612f1e575f80fd5b858560208301375f602087830101525050509392505050565b5f82601f830112612f46575f80fd5b611dfa83833560208501612ea6565b5f60208284031215612f65575f80fd5b813567ffffffffffffffff811115612f7b575f80fd5b612a6c84828501612f37565b5f8083601f840112612f97575f80fd5b50813567ffffffffffffffff811115612fae575f80fd5b602083019150836020828501011115612fc5575f80fd5b9250929050565b5f805f805f805f805f806101208b8d031215612fe6575f80fd5b612fef8b612cd6565b9950612ffd60208c01612cd6565b985061300b60408c01612cd6565b975060608b013567ffffffffffffffff811115613026575f80fd5b6130328d828e01612f87565b90985096505060808b0135945060a08b0135935061305260c08c01612dbc565b925060e08b013591506101008b013590509295989b9194979a5092959850565b5f805f60608486031215613084575f80fd5b61308d84612cd6565b925061309b60208501612cd6565b9150604084013567ffffffffffffffff8111156130b6575f80fd5b8401601f810186136130c6575f80fd5b6130d586823560208401612ea6565b9150509250925092565b5f805f80606085870312156130f2575f80fd5b6130fb85612cd6565b935060208501359250604085013567ffffffffffffffff81111561311d575f80fd5b61312987828801612f87565b95989497509550505050565b5f8060408385031215613146575f80fd5b61314f83612cd6565b9150602083013567ffffffffffffffff81111561316a575f80fd5b61317685828601612f37565b9150509250929050565b7f4e487b71000000000000000000000000000000000000000000000000000000005f52603260045260245ffd5b600181811c908216806131c157607f821691505b6020821081036131f8577f4e487b71000000000000000000000000000000000000000000000000000000005f52602260045260245ffd5b50919050565b7f4e487b71000000000000000000000000000000000000000000000000000000005f52601160045260245ffd5b8082018082111561085c5761085c6131fe565b5f7fffffffffffffffffffffffffffffffffffffffffffffffffffffffffffffffff820361326e5761326e6131fe565b5060010190565b828152604060208201525f612a6c6040830184612d39565b5f6020828403121561329d575f80fd5b81517fffffffff0000000000000000000000000000000000000000000000000000000081168114611dfa575f80fd5b604081525f8084546132dd816131ad565b806040860152606060018084165f81146132fe576001811461333657613364565b7fffffffffffffffffffffffffffffffffffffffffffffffffffffffffffffff008516838901528284151560051b8901019550613364565b895f526020805f205f5b8681101561335b5781548b8201870152908401908201613340565b8a018501975050505b505050505082810360208401526126748185612d39565b818382375f9101908152919050565b5f845161339b818460208901612d17565b7f2b00000000000000000000000000000000000000000000000000000000000000908301908152838560018301375f930160010192835250909392505050565b601f8211156128af575f81815260208120601f850160051c810160208610156134015750805b601f850160051c820191505b818110156134205782815560010161340d565b505050505050565b815167ffffffffffffffff81111561344257613442612e79565b6134568161345084546131ad565b846133db565b602080601f8311600181146134a8575f84156134725750858301515b7fffffffffffffffffffffffffffffffffffffffffffffffffffffffffffffffff600386901b1c1916600185901b178555613420565b5f858152602081207fffffffffffffffffffffffffffffffffffffffffffffffffffffffffffffffe08616915b828110156134f4578886015182559484019460019091019084016134d5565b508582101561353057878501517fffffffffffffffffffffffffffffffffffffffffffffffffffffffffffffffff600388901b60f8161c191681555b5050505050600190811b01905550565b5f73ffffffffffffffffffffffffffffffffffffffff80871683528086166020840152508360408301526080606083015261357e6080830184612d39565b9695505050505050565b8181038181111561085c5761085c6131fe565b60208152816020820152818360408301375f818301604090810191909152601f9092017fffffffffffffffffffffffffffffffffffffffffffffffffffffffffffffffe0160101919050565b5f602082840312156135f7575f80fd5b81518015158114611dfa575f80fd5b5f8251613617818460208701612d17565b919091019291505056fea264697066735822122076da7978fff4aad5690e0069ae00552c8f914448a9cce6ca9dc1de0cfec32ce364736f6c63430008140033","linkReferences":{}},"methodIdentifiers":{"DOMAIN_TYPEHASH()":"20606b70","EPNSCoreAddress()":"42564cb4","NAME_HASH()":"04622c2e","PUSH_TOKEN_ADDRESS()":"8cfbc3e0","SEND_NOTIFICATION_TYPEHASH()":"17aeae58","SUBSCRIBE_TYPEHASH()":"e059c6d0","UNSUBSCRIBE_TYPEHASH()":"040e80ed","addDelegate(address)":"e71bdf41","batchSubscribe(address[])":"37a4ebb8","batchUnsubscribe(address[])":"0024be7a","chainID()":"adc879e9","chainName()":"1c93b03a","changeUserChannelSettings(address,uint256,string)":"ed7ee0f6","createIncentivizeChatRequest(address,uint256)":"2d57f936","delegatedNotificationSenders(address,address)":"6e0d232c","governance()":"5aa6e675","initialize(address,string)":"f399e22e","isMigrationComplete()":"d7128084","isUserSubscribed(address,address)":"ffb84883","mapAddressUsers(uint256)":"5227dd05","name()":"06fdde03","nonces(address)":"7ecebe00","pushChannelAdmin()":"bd90f815","removeChannelAlias(string)":"9c1727f5","removeDelegate(address)":"67e7646f","sendNotifBySig(address,address,address,bytes,uint256,uint256,uint8,bytes32,bytes32)":"a0e30b2c","sendNotification(address,address,bytes)":"ba3d69d7","setEPNSCoreAddress(address)":"71fed092","setGovernanceAddress(address)":"cfc16254","setPushTokenAddress(address)":"56aaba49","subscribe(address)":"41a7726a","subscribeBySig(address,address,uint256,uint256,uint8,bytes32,bytes32)":"3f6109fb","subscribeViaCore(address,address)":"73ec8cfb","transferPushChannelAdminControl(address)":"017d5efe","unSubscribeViaCore(address,address)":"92d41a53","unsubscribe(address)":"7262561c","unsubscribeBySig(address,address,uint256,uint256,uint8,bytes32,bytes32)":"44c3bca5","userChatData(address)":"3e5b73c6","userToChannelNotifs(address,address)":"f83c7f77","users(address)":"a87430ba","usersCount()":"6ba13a82","verifyChannelAlias(string)":"7f6c16dc"},"id":4}