{"abi":[{"type":"constructor","inputs":[{"name":"account","type":"address","internalType":"address"}],"stateMutability":"nonpayable"},{"type":"function","name":"DELEGATION_TYPEHASH","inputs":[],"outputs":[{"name":"","type":"bytes32","internalType":"bytes32"}],"stateMutability":"view"},{"type":"function","name":"DOMAIN_TYPEHASH","inputs":[],"outputs":[{"name":"","type":"bytes32","internalType":"bytes32"}],"stateMutability":"view"},{"type":"function","name":"PERMIT_TYPEHASH","inputs":[],"outputs":[{"name":"","type":"bytes32","internalType":"bytes32"}],"stateMutability":"view"},{"type":"function","name":"allowance","inputs":[{"name":"account","type":"address","internalType":"address"},{"name":"spender","type":"address","internalType":"address"}],"outputs":[{"name":"","type":"uint256","internalType":"uint256"}],"stateMutability":"view"},{"type":"function","name":"approve","inputs":[{"name":"spender","type":"address","internalType":"address"},{"name":"rawAmount","type":"uint256","internalType":"uint256"}],"outputs":[{"name":"","type":"bool","internalType":"bool"}],"stateMutability":"nonpayable"},{"type":"function","name":"balanceOf","inputs":[{"name":"account","type":"address","internalType":"address"}],"outputs":[{"name":"","type":"uint256","internalType":"uint256"}],"stateMutability":"view"},{"type":"function","name":"born","inputs":[],"outputs":[{"name":"","type":"uint256","internalType":"uint256"}],"stateMutability":"view"},{"type":"function","name":"burn","inputs":[{"name":"rawAmount","type":"uint256","internalType":"uint256"}],"outputs":[],"stateMutability":"nonpayable"},{"type":"function","name":"checkpoints","inputs":[{"name":"","type":"address","internalType":"address"},{"name":"","type":"uint32","internalType":"uint32"}],"outputs":[{"name":"fromBlock","type":"uint32","internalType":"uint32"},{"name":"votes","type":"uint96","internalType":"uint96"}],"stateMutability":"view"},{"type":"function","name":"decimals","inputs":[],"outputs":[{"name":"","type":"uint8","internalType":"uint8"}],"stateMutability":"view"},{"type":"function","name":"delegate","inputs":[{"name":"delegatee","type":"address","internalType":"address"}],"outputs":[],"stateMutability":"nonpayable"},{"type":"function","name":"delegateBySig","inputs":[{"name":"delegatee","type":"address","internalType":"address"},{"name":"nonce","type":"uint256","internalType":"uint256"},{"name":"expiry","type":"uint256","internalType":"uint256"},{"name":"v","type":"uint8","internalType":"uint8"},{"name":"r","type":"bytes32","internalType":"bytes32"},{"name":"s","type":"bytes32","internalType":"bytes32"}],"outputs":[],"stateMutability":"nonpayable"},{"type":"function","name":"delegates","inputs":[{"name":"","type":"address","internalType":"address"}],"outputs":[{"name":"","type":"address","internalType":"address"}],"stateMutability":"view"},{"type":"function","name":"getCurrentVotes","inputs":[{"name":"account","type":"address","internalType":"address"}],"outputs":[{"name":"","type":"uint96","internalType":"uint96"}],"stateMutability":"view"},{"type":"function","name":"getPriorVotes","inputs":[{"name":"account","type":"address","internalType":"address"},{"name":"blockNumber","type":"uint256","internalType":"uint256"}],"outputs":[{"name":"","type":"uint96","internalType":"uint96"}],"stateMutability":"view"},{"type":"function","name":"holderDelegation","inputs":[{"name":"","type":"address","internalType":"address"},{"name":"","type":"address","internalType":"address"}],"outputs":[{"name":"","type":"bool","internalType":"bool"}],"stateMutability":"view"},{"type":"function","name":"holderWeight","inputs":[{"name":"","type":"address","internalType":"address"}],"outputs":[{"name":"","type":"uint256","internalType":"uint256"}],"stateMutability":"view"},{"type":"function","name":"name","inputs":[],"outputs":[{"name":"","type":"string","internalType":"string"}],"stateMutability":"view"},{"type":"function","name":"nonces","inputs":[{"name":"","type":"address","internalType":"address"}],"outputs":[{"name":"","type":"uint256","internalType":"uint256"}],"stateMutability":"view"},{"type":"function","name":"numCheckpoints","inputs":[{"name":"","type":"address","internalType":"address"}],"outputs":[{"name":"","type":"uint32","internalType":"uint32"}],"stateMutability":"view"},{"type":"function","name":"permit","inputs":[{"name":"owner","type":"address","internalType":"address"},{"name":"spender","type":"address","internalType":"address"},{"name":"rawAmount","type":"uint256","internalType":"uint256"},{"name":"deadline","type":"uint256","internalType":"uint256"},{"name":"v","type":"uint8","internalType":"uint8"},{"name":"r","type":"bytes32","internalType":"bytes32"},{"name":"s","type":"bytes32","internalType":"bytes32"}],"outputs":[],"stateMutability":"nonpayable"},{"type":"function","name":"resetHolderWeight","inputs":[{"name":"holder","type":"address","internalType":"address"}],"outputs":[],"stateMutability":"nonpayable"},{"type":"function","name":"returnHolderDelegation","inputs":[{"name":"account","type":"address","internalType":"address"},{"name":"delegate","type":"address","internalType":"address"}],"outputs":[{"name":"","type":"bool","internalType":"bool"}],"stateMutability":"view"},{"type":"function","name":"returnHolderUnits","inputs":[{"name":"account","type":"address","internalType":"address"},{"name":"atBlock","type":"uint256","internalType":"uint256"}],"outputs":[{"name":"","type":"uint256","internalType":"uint256"}],"stateMutability":"view"},{"type":"function","name":"setHolderDelegation","inputs":[{"name":"delegate","type":"address","internalType":"address"},{"name":"value","type":"bool","internalType":"bool"}],"outputs":[],"stateMutability":"nonpayable"},{"type":"function","name":"symbol","inputs":[],"outputs":[{"name":"","type":"string","internalType":"string"}],"stateMutability":"view"},{"type":"function","name":"totalSupply","inputs":[],"outputs":[{"name":"","type":"uint256","internalType":"uint256"}],"stateMutability":"view"},{"type":"function","name":"transfer","inputs":[{"name":"dst","type":"address","internalType":"address"},{"name":"rawAmount","type":"uint256","internalType":"uint256"}],"outputs":[{"name":"","type":"bool","internalType":"bool"}],"stateMutability":"nonpayable"},{"type":"function","name":"transferFrom","inputs":[{"name":"src","type":"address","internalType":"address"},{"name":"dst","type":"address","internalType":"address"},{"name":"rawAmount","type":"uint256","internalType":"uint256"}],"outputs":[{"name":"","type":"bool","internalType":"bool"}],"stateMutability":"nonpayable"},{"type":"event","name":"Approval","inputs":[{"name":"owner","type":"address","indexed":true,"internalType":"address"},{"name":"spender","type":"address","indexed":true,"internalType":"address"},{"name":"amount","type":"uint256","indexed":false,"internalType":"uint256"}],"anonymous":false},{"type":"event","name":"DelegateChanged","inputs":[{"name":"delegator","type":"address","indexed":true,"internalType":"address"},{"name":"fromDelegate","type":"address","indexed":true,"internalType":"address"},{"name":"toDelegate","type":"address","indexed":true,"internalType":"address"}],"anonymous":false},{"type":"event","name":"DelegateVotesChanged","inputs":[{"name":"delegate","type":"address","indexed":true,"internalType":"address"},{"name":"previousBalance","type":"uint256","indexed":false,"internalType":"uint256"},{"name":"newBalance","type":"uint256","indexed":false,"internalType":"uint256"}],"anonymous":false},{"type":"event","name":"HolderWeightChanged","inputs":[{"name":"holder","type":"address","indexed":true,"internalType":"address"},{"name":"amount","type":"uint256","indexed":false,"internalType":"uint256"},{"name":"weight","type":"uint256","indexed":false,"internalType":"uint256"}],"anonymous":false},{"type":"event","name":"Transfer","inputs":[{"name":"from","type":"address","indexed":true,"internalType":"address"},{"name":"to","type":"address","indexed":true,"internalType":"address"},{"name":"amount","type":"uint256","indexed":false,"internalType":"uint256"}],"anonymous":false}],"bytecode":{"object":"0x60806040526a52b7d2dcc80cd2e40000006000553480156200002057600080fd5b50604051620031a7380380620031a78339810160408190526200004391620000d8565b600080546001600160a01b03831680835260036020908152604080852080546001600160601b0319166001600160601b0390951694909417909355835492519283529092917fddf252ad1be2c89b69c2b068fc378daa952ba7f163c4a11628f55a4df523b3ef910160405180910390a36001600160a01b0316600090815260046020526040902043908190556001556200010a565b600060208284031215620000eb57600080fd5b81516001600160a01b03811681146200010357600080fd5b9392505050565b61308d806200011a6000396000f3fe608060405234801561001057600080fd5b50600436106101cf5760003560e01c8063587cde1e11610104578063a9059cbb116100a2578063dd62ed3e11610071578063dd62ed3e146105a5578063e7a324dc146105f9578063f1127ed814610620578063f18365d91461069257600080fd5b8063a9059cbb14610559578063b4b5ea571461056c578063c3cda5201461057f578063d505accf1461059257600080fd5b806370a08231116100de57806370a0823114610489578063782d6fe1146104cd5780637ecebe00146104fd57806395d89b411461051d57600080fd5b8063587cde1e146103e05780635c19a95c1461043b5780636fcfff451461044e57600080fd5b80632477c6e8116101715780633f5af2441161014b5780633f5af2441461033657806342966c681461037f5780634823838d1461039257806351b07180146103c057600080fd5b80632477c6e81461028257806330adf81f146102f5578063313ce5671461031c57600080fd5b806310c19421116101ad57806310c194211461023657806318160ddd1461023f57806320606b701461024857806323b872dd1461026f57600080fd5b806306fdde03146101d4578063095ea7b3146101f25780630b1b72f214610215575b600080fd5b6101dc6106a5565b6040516101e99190612877565b60405180910390f35b61020561020036600461290c565b6106c1565b60405190151581526020016101e9565b61022861022336600461290c565b610839565b6040519081526020016101e9565b61022860015481565b61022860005481565b6102287f8cad95687ba82c2ce50e74f7b754645e5117c3a5bec8151c0726d5857980a86681565b61020561027d366004612936565b6108c6565b6102f3610290366004612972565b33600090815260056020908152604080832073ffffffffffffffffffffffffffffffffffffffff9590951683529390529190912080547fffffffffffffffffffffffffffffffffffffffffffffffffffffffffffffff0016911515919091179055565b005b6102287f6e71edae12b1b97f4d1f60370fef10105fa2faae0126114a169c64845d6126c981565b610324601281565b60405160ff90911681526020016101e9565b6102056103443660046129ae565b73ffffffffffffffffffffffffffffffffffffffff918216600090815260056020908152604080832093909416825291909152205460ff1690565b6102f361038d3660046129e1565b610a66565b6102056103a03660046129ae565b600560209081526000928352604080842090915290825290205460ff1681565b6102286103ce3660046129fa565b60046020526000908152604090205481565b6104166103ee3660046129fa565b60066020526000908152604090205473ffffffffffffffffffffffffffffffffffffffff1681565b60405173ffffffffffffffffffffffffffffffffffffffff90911681526020016101e9565b6102f36104493660046129fa565b610be5565b61047461045c3660046129fa565b60086020526000908152604090205463ffffffff1681565b60405163ffffffff90911681526020016101e9565b6102286104973660046129fa565b73ffffffffffffffffffffffffffffffffffffffff166000908152600360205260409020546bffffffffffffffffffffffff1690565b6104e06104db36600461290c565b610bf2565b6040516bffffffffffffffffffffffff90911681526020016101e9565b61022861050b3660046129fa565b60096020526000908152604090205481565b6101dc6040518060400160405280600481526020017f505553480000000000000000000000000000000000000000000000000000000081525081565b61020561056736600461290c565b610ee5565b6104e061057a3660046129fa565b610f21565b6102f361058d366004612a26565b610fbe565b6102f36105a0366004612a7e565b6113a9565b6102286105b33660046129ae565b73ffffffffffffffffffffffffffffffffffffffff91821660009081526002602090815260408083209390941682529190915220546bffffffffffffffffffffffff1690565b6102287fe48329057bfd03d55e49b547132e39cffd9c1820ad7b9d4c5307691425d15adf81565b61066961062e366004612ae8565b600760209081526000928352604080842090915290825290205463ffffffff81169064010000000090046bffffffffffffffffffffffff1682565b6040805163ffffffff90931683526bffffffffffffffffffffffff9091166020830152016101e9565b6102f36106a03660046129fa565b611981565b604051806060016040528060228152602001612d546022913981565b6000806bffffffffffffffffffffffff83106106ea57506bffffffffffffffffffffffff61078e565b50816bffffffffffffffffffffffff8116811461078e576040517f08c379a000000000000000000000000000000000000000000000000000000000815260206004820152602560248201527f507573683a3a617070726f76653a20616d6f756e74206578636565647320393660448201527f206269747300000000000000000000000000000000000000000000000000000060648201526084015b60405180910390fd5b33600081815260026020908152604080832073ffffffffffffffffffffffffffffffffffffffff89168085529083529281902080547fffffffffffffffffffffffffffffffffffffffff000000000000000000000000166bffffffffffffffffffffffff871690811790915590519081529192917f8c5be1e5ebec7d5bd14f71427d1e84f3dd0314c0f7b2291e5b200ac8c7c3b925910160405180910390a360019150505b92915050565b73ffffffffffffffffffffffffffffffffffffffff8216600090815260036020908152604080832054600483528184205482516080810190935260448084526108bf946bffffffffffffffffffffffff909316936108a19388939290612f9190830139611ae5565b604051806060016040528060308152602001612ce960309139611b39565b9392505050565b73ffffffffffffffffffffffffffffffffffffffff831660009081526002602090815260408083203380855290835281842054825160608101909352602580845291936bffffffffffffffffffffffff9091169285926109309288929190612f0890830139611ba7565b90508673ffffffffffffffffffffffffffffffffffffffff168373ffffffffffffffffffffffffffffffffffffffff161415801561097c57506bffffffffffffffffffffffff82811614155b15610a4e5760006109a683836040518060600160405280603d8152602001612f2d603d9139611bf9565b73ffffffffffffffffffffffffffffffffffffffff8981166000818152600260209081526040808320948a168084529482529182902080547fffffffffffffffffffffffffffffffffffffffff000000000000000000000000166bffffffffffffffffffffffff87169081179091559151918252939450919290917f8c5be1e5ebec7d5bd14f71427d1e84f3dd0314c0f7b2291e5b200ac8c7c3b925910160405180910390a3505b610a59878783611c67565b5060019695505050505050565b3360008181526003602090815260408083205481516060810190925260228083526bffffffffffffffffffffffff9091169392610aad9287929091612e1690830139611ba7565b9050610ad28282604051806060016040528060278152602001612f6a60279139611bf9565b600360008573ffffffffffffffffffffffffffffffffffffffff1673ffffffffffffffffffffffffffffffffffffffff16815260200190815260200160002060006101000a8154816bffffffffffffffffffffffff02191690836bffffffffffffffffffffffff160217905550610b81600054856040518060400160405280601c81526020017f507573683a3a6275726e3a20737570706c7920756e646572666c6f7700000000815250611ae5565b60009081556040516bffffffffffffffffffffffff8316815273ffffffffffffffffffffffffffffffffffffffff8516907fddf252ad1be2c89b69c2b068fc378daa952ba7f163c4a11628f55a4df523b3ef9060200160405180910390a350505050565b610bef3382611f84565b50565b6000438210610c83576040517f08c379a000000000000000000000000000000000000000000000000000000000815260206004820152602760248201527f507573683a3a6765745072696f72566f7465733a206e6f74207965742064657460448201527f65726d696e6564000000000000000000000000000000000000000000000000006064820152608401610785565b73ffffffffffffffffffffffffffffffffffffffff831660009081526008602052604081205463ffffffff1690819003610cc1576000915050610833565b73ffffffffffffffffffffffffffffffffffffffff8416600090815260076020526040812081610cf2600185612b4c565b63ffffffff908116825260208083019390935260409182016000208251808401909352549081168083526401000000009091046bffffffffffffffffffffffff169282019290925291508410610d4f576020015191506108339050565b73ffffffffffffffffffffffffffffffffffffffff8516600090815260076020908152604080832083805290915290205463ffffffff16841015610d9857600092505050610833565b600080610da6600185612b4c565b90505b8163ffffffff168163ffffffff161115610e8c5760006002610dcb8484612b4c565b610dd59190612b9f565b610ddf9083612b4c565b73ffffffffffffffffffffffffffffffffffffffff8916600090815260076020908152604080832063ffffffff8581168552908352928190208151808301909252549283168082526401000000009093046bffffffffffffffffffffffff1691810191909152919250889003610e6057602001519550610833945050505050565b805163ffffffff16881115610e7757819350610e85565b610e82600183612b4c565b92505b5050610da9565b5073ffffffffffffffffffffffffffffffffffffffff8616600090815260076020908152604080832063ffffffff909416835292905220546bffffffffffffffffffffffff640100000000909104169250505092915050565b600080610f0a83604051806060016040528060268152602001612ffc60269139611ba7565b9050610f17338583611c67565b5060019392505050565b73ffffffffffffffffffffffffffffffffffffffff811660009081526008602052604081205463ffffffff1680610f595760006108bf565b73ffffffffffffffffffffffffffffffffffffffff8316600090815260076020526040812090610f8a600184612b4c565b63ffffffff16815260208101919091526040016000205464010000000090046bffffffffffffffffffffffff169392505050565b60007f8cad95687ba82c2ce50e74f7b754645e5117c3a5bec8151c0726d5857980a866604051806060016040528060228152602001612d54602291398051602091820120604080518084019490945283810191909152466060840152306080808501919091528151808503909101815260a0840182528051908301207fe48329057bfd03d55e49b547132e39cffd9c1820ad7b9d4c5307691425d15adf60c085015273ffffffffffffffffffffffffffffffffffffffff8b1660e085015261010084018a90526101208085018a9052825180860390910181526101408501909252815191909201207f190100000000000000000000000000000000000000000000000000000000000061016084015261016283018290526101828301819052909250906000906101a201604080517fffffffffffffffffffffffffffffffffffffffffffffffffffffffffffffffe08184030181528282528051602091820120600080855291840180845281905260ff8a169284019290925260608301889052608083018790529092509060019060a0016020604051602081039080840390855afa158015611171573d6000803e3d6000fd5b50506040517fffffffffffffffffffffffffffffffffffffffffffffffffffffffffffffffe0015191505073ffffffffffffffffffffffffffffffffffffffff811661123f576040517f08c379a000000000000000000000000000000000000000000000000000000000815260206004820152602660248201527f507573683a3a64656c656761746542795369673a20696e76616c69642073696760448201527f6e617475726500000000000000000000000000000000000000000000000000006064820152608401610785565b73ffffffffffffffffffffffffffffffffffffffff8116600090815260096020526040812080549161127083612bc2565b919050558914611302576040517f08c379a000000000000000000000000000000000000000000000000000000000815260206004820152602260248201527f507573683a3a64656c656761746542795369673a20696e76616c6964206e6f6e60448201527f63650000000000000000000000000000000000000000000000000000000000006064820152608401610785565b87421115611392576040517f08c379a000000000000000000000000000000000000000000000000000000000815260206004820152602660248201527f507573683a3a64656c656761746542795369673a207369676e6174757265206560448201527f78706972656400000000000000000000000000000000000000000000000000006064820152608401610785565b61139c818b611f84565b505050505b505050505050565b60007fffffffffffffffffffffffffffffffffffffffffffffffffffffffffffffffff86036113e557506bffffffffffffffffffffffff611482565b6bffffffffffffffffffffffff861061147f576040517f08c379a0000000000000000000000000000000000000000000000000000000008152602060048201526024808201527f507573683a3a7065726d69743a20616d6f756e7420657863656564732039362060448201527f62697473000000000000000000000000000000000000000000000000000000006064820152608401610785565b50845b60007f8cad95687ba82c2ce50e74f7b754645e5117c3a5bec8151c0726d5857980a866604051806060016040528060228152602001612d5460229139805160209182012060408051928301939093529181019190915246606082015230608082015260a001604080517fffffffffffffffffffffffffffffffffffffffffffffffffffffffffffffffe0818403018152918152815160209283012073ffffffffffffffffffffffffffffffffffffffff8c166000908152600990935290822080549193507f6e71edae12b1b97f4d1f60370fef10105fa2faae0126114a169c64845d6126c9918c918c918c918661157883612bc2565b9091555060408051602081019690965273ffffffffffffffffffffffffffffffffffffffff94851690860152929091166060840152608083015260a082015260c0810188905260e0016040516020818303038152906040528051906020012090506000828260405160200161161f9291907f190100000000000000000000000000000000000000000000000000000000000081526002810192909252602282015260420190565b604080517fffffffffffffffffffffffffffffffffffffffffffffffffffffffffffffffe08184030181528282528051602091820120600080855291840180845281905260ff8b169284019290925260608301899052608083018890529092509060019060a0016020604051602081039080840390855afa1580156116a8573d6000803e3d6000fd5b50506040517fffffffffffffffffffffffffffffffffffffffffffffffffffffffffffffffe0015191505073ffffffffffffffffffffffffffffffffffffffff8116611750576040517f08c379a000000000000000000000000000000000000000000000000000000000815260206004820152601f60248201527f507573683a3a7065726d69743a20696e76616c6964207369676e6174757265006044820152606401610785565b8b73ffffffffffffffffffffffffffffffffffffffff168173ffffffffffffffffffffffffffffffffffffffff16146117e5576040517f08c379a000000000000000000000000000000000000000000000000000000000815260206004820152601a60248201527f507573683a3a7065726d69743a20756e617574686f72697a65640000000000006044820152606401610785565b8842111561184f576040517f08c379a000000000000000000000000000000000000000000000000000000000815260206004820152601f60248201527f507573683a3a7065726d69743a207369676e61747572652065787069726564006044820152606401610785565b84600260008e73ffffffffffffffffffffffffffffffffffffffff1673ffffffffffffffffffffffffffffffffffffffff16815260200190815260200160002060008d73ffffffffffffffffffffffffffffffffffffffff1673ffffffffffffffffffffffffffffffffffffffff16815260200190815260200160002060006101000a8154816bffffffffffffffffffffffff02191690836bffffffffffffffffffffffff1602179055508a73ffffffffffffffffffffffffffffffffffffffff168c73ffffffffffffffffffffffffffffffffffffffff167f8c5be1e5ebec7d5bd14f71427d1e84f3dd0314c0f7b2291e5b200ac8c7c3b9258760405161196b91906bffffffffffffffffffffffff91909116815260200190565b60405180910390a3505050505050505050505050565b73ffffffffffffffffffffffffffffffffffffffff8116600090815260056020908152604080832033845290915290205460ff161515600114806119da575073ffffffffffffffffffffffffffffffffffffffff811633145b611a66576040517f08c379a000000000000000000000000000000000000000000000000000000000815260206004820152602560248201527f507573683a3a7265736574486f6c6465725765696768743a20756e617574686f60448201527f72697a65640000000000000000000000000000000000000000000000000000006064820152608401610785565b73ffffffffffffffffffffffffffffffffffffffff81166000818152600460209081526040808320439081905560038352928190205481516bffffffffffffffffffffffff9091168152918201929092527f7ffd5ecbf13a4814c06acbd9d31dff13c728c3936046c339e8053a8c26b38bb5910160405180910390a250565b60008184841115611b23576040517f08c379a00000000000000000000000000000000000000000000000000000000081526004016107859190612877565b506000611b308486612bfa565b95945050505050565b600083600003611b4b575060006108bf565b6000611b578486612c0d565b905083611b648683612c24565b148390611b9e576040517f08c379a00000000000000000000000000000000000000000000000000000000081526004016107859190612877565b50949350505050565b6000816c010000000000000000000000008410611bf1576040517f08c379a00000000000000000000000000000000000000000000000000000000081526004016107859190612877565b509192915050565b6000836bffffffffffffffffffffffff16836bffffffffffffffffffffffff1611158290611c54576040517f08c379a00000000000000000000000000000000000000000000000000000000081526004016107859190612877565b50611c5f8385612c38565b949350505050565b73ffffffffffffffffffffffffffffffffffffffff8316611d0a576040517f08c379a000000000000000000000000000000000000000000000000000000000815260206004820152603c60248201527f507573683a3a5f7472616e73666572546f6b656e733a2063616e6e6f7420747260448201527f616e736665722066726f6d20746865207a65726f2061646472657373000000006064820152608401610785565b73ffffffffffffffffffffffffffffffffffffffff8216611dad576040517f08c379a000000000000000000000000000000000000000000000000000000000815260206004820152603a60248201527f507573683a3a5f7472616e73666572546f6b656e733a2063616e6e6f7420747260448201527f616e7366657220746f20746865207a65726f20616464726573730000000000006064820152608401610785565b611db8838383612038565b73ffffffffffffffffffffffffffffffffffffffff8316600090815260036020908152604091829020548251606081019093526036808452611e15936bffffffffffffffffffffffff9092169285929190612de090830139611bf9565b73ffffffffffffffffffffffffffffffffffffffff848116600090815260036020908152604080832080547fffffffffffffffffffffffffffffffffffffffff000000000000000000000000166bffffffffffffffffffffffff968716179055928616825290829020548251606081019093526030808452611ea79491909116928592909190612db090830139612296565b73ffffffffffffffffffffffffffffffffffffffff83811660008181526003602090815260409182902080547fffffffffffffffffffffffffffffffffffffffff000000000000000000000000166bffffffffffffffffffffffff968716179055905193851684529092918616917fddf252ad1be2c89b69c2b068fc378daa952ba7f163c4a11628f55a4df523b3ef910160405180910390a373ffffffffffffffffffffffffffffffffffffffff808416600090815260066020526040808220548584168352912054611f7f929182169116836122fe565b505050565b73ffffffffffffffffffffffffffffffffffffffff808316600081815260066020818152604080842080546003845282862054949093528787167fffffffffffffffffffffffff000000000000000000000000000000000000000084168117909155905191909516946bffffffffffffffffffffffff9092169391928592917f3134e8a2e6d97e929a7e54011ea5485d7d196dd5f0ba4d4ef95803e8e3fc257f9190a46120328284836122fe565b50505050565b73ffffffffffffffffffffffffffffffffffffffff82166000908152600360205260408120546bffffffffffffffffffffffff16908190036120a95773ffffffffffffffffffffffffffffffffffffffff808516600090815260046020526040808220549286168252902055612032565b600061211b600460008673ffffffffffffffffffffffffffffffffffffffff1673ffffffffffffffffffffffffffffffffffffffff16815260200190815260200160002054836bffffffffffffffffffffffff166040518060600160405280603b8152602001612ea5603b9139611b39565b9050600061218f600460008873ffffffffffffffffffffffffffffffffffffffff1673ffffffffffffffffffffffffffffffffffffffff16815260200190815260200160002054856bffffffffffffffffffffffff166040518060600160405280603b8152602001612d19603b9139611b39565b905060006121b68383604051806060016040528060368152602001612cb360369139612523565b905060006121f9856bffffffffffffffffffffffff16876bffffffffffffffffffffffff1660405180606001604052806036815260200161302260369139612523565b905060006122188260026040518060200160405280600081525061256e565b9050600061223f8483604051806060016040528060398152602001612e3860399139612523565b905061226481846040518060600160405280603a8152602001612d76603a913961256e565b73ffffffffffffffffffffffffffffffffffffffff8a1660009081526004602052604090205550505050505050505050565b6000806122a38486612c5d565b9050846bffffffffffffffffffffffff16816bffffffffffffffffffffffff1610158390611b9e576040517f08c379a00000000000000000000000000000000000000000000000000000000081526004016107859190612877565b8173ffffffffffffffffffffffffffffffffffffffff168373ffffffffffffffffffffffffffffffffffffffff161415801561234857506000816bffffffffffffffffffffffff16115b15611f7f5773ffffffffffffffffffffffffffffffffffffffff83161561243a5773ffffffffffffffffffffffffffffffffffffffff831660009081526008602052604081205463ffffffff1690816123a2576000612401565b73ffffffffffffffffffffffffffffffffffffffff85166000908152600760205260408120906123d3600185612b4c565b63ffffffff16815260208101919091526040016000205464010000000090046bffffffffffffffffffffffff165b905060006124288285604051806060016040528060288152602001612ee060289139611bf9565b9050612436868484846125b6565b5050505b73ffffffffffffffffffffffffffffffffffffffff821615611f7f5773ffffffffffffffffffffffffffffffffffffffff821660009081526008602052604081205463ffffffff16908161248f5760006124ee565b73ffffffffffffffffffffffffffffffffffffffff84166000908152600760205260408120906124c0600185612b4c565b63ffffffff16815260208101919091526040016000205464010000000090046bffffffffffffffffffffffff165b905060006125158285604051806060016040528060278152602001612fd560279139612296565b90506113a1858484846125b6565b6000806125308486612c82565b90508285821015611b9e576040517f08c379a00000000000000000000000000000000000000000000000000000000081526004016107859190612877565b600081836125a9576040517f08c379a00000000000000000000000000000000000000000000000000000000081526004016107859190612877565b506000611b308486612c24565b60006125da43604051806060016040528060348152602001612e7160349139612839565b905060008463ffffffff16118015612641575073ffffffffffffffffffffffffffffffffffffffff8516600090815260076020526040812063ffffffff831691612625600188612b4c565b63ffffffff908116825260208201929092526040016000205416145b156126d75773ffffffffffffffffffffffffffffffffffffffff851660009081526007602052604081208391612678600188612b4c565b63ffffffff168152602081019190915260400160002080546bffffffffffffffffffffffff92909216640100000000027fffffffffffffffffffffffffffffffff000000000000000000000000ffffffff9092169190911790556127d2565b60408051808201825263ffffffff80841682526bffffffffffffffffffffffff808616602080850191825273ffffffffffffffffffffffffffffffffffffffff8b166000908152600782528681208b8616825290915294909420925183549451909116640100000000027fffffffffffffffffffffffffffffffff00000000000000000000000000000000909416911617919091179055612779846001612c95565b73ffffffffffffffffffffffffffffffffffffffff8616600090815260086020526040902080547fffffffffffffffffffffffffffffffffffffffffffffffffffffffff000000001663ffffffff929092169190911790555b604080516bffffffffffffffffffffffff80861682528416602082015273ffffffffffffffffffffffffffffffffffffffff8716917fdec2bacdd2f05b59de34da9b523dff8be42e5e38e818c82fdb0bae774387a724910160405180910390a25050505050565b6000816401000000008410611bf1576040517f08c379a000000000000000000000000000000000000000000000000000000000815260040161078591905b600060208083528351808285015260005b818110156128a457858101830151858201604001528201612888565b5060006040828601015260407fffffffffffffffffffffffffffffffffffffffffffffffffffffffffffffffe0601f8301168501019250505092915050565b803573ffffffffffffffffffffffffffffffffffffffff8116811461290757600080fd5b919050565b6000806040838503121561291f57600080fd5b612928836128e3565b946020939093013593505050565b60008060006060848603121561294b57600080fd5b612954846128e3565b9250612962602085016128e3565b9150604084013590509250925092565b6000806040838503121561298557600080fd5b61298e836128e3565b9150602083013580151581146129a357600080fd5b809150509250929050565b600080604083850312156129c157600080fd5b6129ca836128e3565b91506129d8602084016128e3565b90509250929050565b6000602082840312156129f357600080fd5b5035919050565b600060208284031215612a0c57600080fd5b6108bf826128e3565b803560ff8116811461290757600080fd5b60008060008060008060c08789031215612a3f57600080fd5b612a48876128e3565b95506020870135945060408701359350612a6460608801612a15565b92506080870135915060a087013590509295509295509295565b600080600080600080600060e0888a031215612a9957600080fd5b612aa2886128e3565b9650612ab0602089016128e3565b95506040880135945060608801359350612acc60808901612a15565b925060a0880135915060c0880135905092959891949750929550565b60008060408385031215612afb57600080fd5b612b04836128e3565b9150602083013563ffffffff811681146129a357600080fd5b7f4e487b7100000000000000000000000000000000000000000000000000000000600052601160045260246000fd5b63ffffffff828116828216039080821115612b6957612b69612b1d565b5092915050565b7f4e487b7100000000000000000000000000000000000000000000000000000000600052601260045260246000fd5b600063ffffffff80841680612bb657612bb6612b70565b92169190910492915050565b60007fffffffffffffffffffffffffffffffffffffffffffffffffffffffffffffffff8203612bf357612bf3612b1d565b5060010190565b8181038181111561083357610833612b1d565b808202811582820484141761083357610833612b1d565b600082612c3357612c33612b70565b500490565b6bffffffffffffffffffffffff828116828216039080821115612b6957612b69612b1d565b6bffffffffffffffffffffffff818116838216019080821115612b6957612b69612b1d565b8082018082111561083357610833612b1d565b63ffffffff818116838216019080821115612b6957612b69612b1d56fe507573683a3a5f61646a757374486f6c6465725765696768743a20746f74616c20776569676874206578636565646564206c696d6974507573683a3a72657475726e486f6c646572556e6974733a20726174696f2065786365656473206d61782072616e6765507573683a3a5f61646a757374486f6c6465725765696768743a20686f6c6465722073726320776569676874206578636565646564206c696d6974457468657265756d2050757368204e6f74696669636174696f6e2053657276696365507573683a3a5f61646a757374486f6c6465725765696768743a2061646a757374656420686f6c646572206e6567617469766520646976696465507573683a3a5f7472616e73666572546f6b656e733a207472616e7366657220616d6f756e74206f766572666c6f7773507573683a3a5f7472616e73666572546f6b656e733a207472616e7366657220616d6f756e7420657863656564732062616c616e6365507573683a3a6275726e3a20616d6f756e7420657863656564732039362062697473507573683a3a5f61646a757374486f6c6465725765696768743a20726f756e6420757020616d6f756e74206578636565646564206c696d6974507573683a3a5f7772697465436865636b706f696e743a20626c6f636b206e756d62657220657863656564732033322062697473507573683a3a5f61646a757374486f6c6465725765696768743a20686f6c6465722064737420776569676874206578636565646564206c696d6974507573683a3a5f6d6f7665566f7465733a20766f746520616d6f756e7420756e646572666c6f7773507573683a3a617070726f76653a20616d6f756e7420657863656564732039362062697473507573683a3a7472616e7366657246726f6d3a207472616e7366657220616d6f756e742065786365656473207370656e64657220616c6c6f77616e6365507573683a3a6275726e3a206275726e20616d6f756e7420657863656564732062616c616e6365507573683a3a72657475726e486f6c646572556e6974733a206174426c6f636b2073686f756c642062652067726561746572207468616e20686f6c646572576569676874507573683a3a5f6d6f7665566f7465733a20766f746520616d6f756e74206f766572666c6f7773507573683a3a7472616e736665723a20616d6f756e7420657863656564732039362062697473507573683a3a5f61646a757374486f6c6465725765696768743a20746f74616c20616d6f756e74206578636565646564206c696d6974a2646970667358221220ee178fff7976e3f60f9188ce35e878de4d433d3791833dece7237363cbfeb28e64736f6c63430008140033","linkReferences":{}},"methodIdentifiers":{"DELEGATION_TYPEHASH()":"e7a324dc","DOMAIN_TYPEHASH()":"20606b70","PERMIT_TYPEHASH()":"30adf81f","allowance(address,address)":"dd62ed3e","approve(address,uint256)":"095ea7b3","balanceOf(address)":"70a08231","born()":"10c19421","burn(uint256)":"42966c68","checkpoints(address,uint32)":"f1127ed8","decimals()":"313ce567","delegate(address)":"5c19a95c","delegateBySig(address,uint256,uint256,uint8,bytes32,bytes32)":"c3cda520","delegates(address)":"587cde1e","getCurrentVotes(address)":"b4b5ea57","getPriorVotes(address,uint256)":"782d6fe1","holderDelegation(address,address)":"4823838d","holderWeight(address)":"51b07180","name()":"06fdde03","nonces(address)":"7ecebe00","numCheckpoints(address)":"6fcfff45","permit(address,address,uint256,uint256,uint8,bytes32,bytes32)":"d505accf","resetHolderWeight(address)":"f18365d9","returnHolderDelegation(address,address)":"3f5af244","returnHolderUnits(address,uint256)":"0b1b72f2","setHolderDelegation(address,bool)":"2477c6e8","symbol()":"95d89b41","totalSupply()":"18160ddd","transfer(address,uint256)":"a9059cbb","transferFrom(address,address,uint256)":"23b872dd"},"id":10}