{"abi":[{"type":"function","name":"BALLOT_TYPEHASH","inputs":[],"outputs":[{"name":"","type":"bytes32","internalType":"bytes32"}],"stateMutability":"view"},{"type":"function","name":"DOMAIN_TYPEHASH","inputs":[],"outputs":[{"name":"","type":"bytes32","internalType":"bytes32"}],"stateMutability":"view"},{"type":"function","name":"MAX_PROPOSAL_THRESHOLD","inputs":[],"outputs":[{"name":"","type":"uint256","internalType":"uint256"}],"stateMutability":"view"},{"type":"function","name":"MAX_VOTING_DELAY","inputs":[],"outputs":[{"name":"","type":"uint256","internalType":"uint256"}],"stateMutability":"view"},{"type":"function","name":"MAX_VOTING_PERIOD","inputs":[],"outputs":[{"name":"","type":"uint256","internalType":"uint256"}],"stateMutability":"view"},{"type":"function","name":"MIN_PROPOSAL_THRESHOLD","inputs":[],"outputs":[{"name":"","type":"uint256","internalType":"uint256"}],"stateMutability":"view"},{"type":"function","name":"MIN_VOTING_DELAY","inputs":[],"outputs":[{"name":"","type":"uint256","internalType":"uint256"}],"stateMutability":"view"},{"type":"function","name":"MIN_VOTING_PERIOD","inputs":[],"outputs":[{"name":"","type":"uint256","internalType":"uint256"}],"stateMutability":"view"},{"type":"function","name":"NAME_HASH","inputs":[],"outputs":[{"name":"","type":"bytes32","internalType":"bytes32"}],"stateMutability":"view"},{"type":"function","name":"PUSH","inputs":[],"outputs":[{"name":"","type":"address","internalType":"contract PushInterface"}],"stateMutability":"view"},{"type":"function","name":"_acceptAdmin","inputs":[],"outputs":[],"stateMutability":"nonpayable"},{"type":"function","name":"_setPendingAdmin","inputs":[{"name":"newPendingAdmin","type":"address","internalType":"address"}],"outputs":[],"stateMutability":"nonpayable"},{"type":"function","name":"_setProposalThreshold","inputs":[{"name":"newProposalThreshold","type":"uint256","internalType":"uint256"}],"outputs":[],"stateMutability":"nonpayable"},{"type":"function","name":"_setVotingDelay","inputs":[{"name":"newVotingDelay","type":"uint256","internalType":"uint256"}],"outputs":[],"stateMutability":"nonpayable"},{"type":"function","name":"_setVotingPeriod","inputs":[{"name":"newVotingPeriod","type":"uint256","internalType":"uint256"}],"outputs":[],"stateMutability":"nonpayable"},{"type":"function","name":"admin","inputs":[],"outputs":[{"name":"","type":"address","internalType":"address"}],"stateMutability":"view"},{"type":"function","name":"cancel","inputs":[{"name":"proposalId","type":"uint256","internalType":"uint256"}],"outputs":[],"stateMutability":"nonpayable"},{"type":"function","name":"castVote","inputs":[{"name":"proposalId","type":"uint256","internalType":"uint256"},{"name":"support","type":"uint8","internalType":"uint8"}],"outputs":[],"stateMutability":"nonpayable"},{"type":"function","name":"castVoteBySig","inputs":[{"name":"proposalId","type":"uint256","internalType":"uint256"},{"name":"support","type":"uint8","internalType":"uint8"},{"name":"v","type":"uint8","internalType":"uint8"},{"name":"r","type":"bytes32","internalType":"bytes32"},{"name":"s","type":"bytes32","internalType":"bytes32"}],"outputs":[],"stateMutability":"nonpayable"},{"type":"function","name":"castVoteWithReason","inputs":[{"name":"proposalId","type":"uint256","internalType":"uint256"},{"name":"support","type":"uint8","internalType":"uint8"},{"name":"reason","type":"string","internalType":"string"}],"outputs":[],"stateMutability":"nonpayable"},{"type":"function","name":"execute","inputs":[{"name":"proposalId","type":"uint256","internalType":"uint256"}],"outputs":[],"stateMutability":"payable"},{"type":"function","name":"getActions","inputs":[{"name":"proposalId","type":"uint256","internalType":"uint256"}],"outputs":[{"name":"targets","type":"address[]","internalType":"address[]"},{"name":"values","type":"uint256[]","internalType":"uint256[]"},{"name":"signatures","type":"string[]","internalType":"string[]"},{"name":"calldatas","type":"bytes[]","internalType":"bytes[]"}],"stateMutability":"view"},{"type":"function","name":"getReceipt","inputs":[{"name":"proposalId","type":"uint256","internalType":"uint256"},{"name":"voter","type":"address","internalType":"address"}],"outputs":[{"name":"","type":"tuple","internalType":"struct GovernorBravoDelegateStorageV1.Receipt","components":[{"name":"hasVoted","type":"bool","internalType":"bool"},{"name":"support","type":"uint8","internalType":"uint8"},{"name":"votes","type":"uint96","internalType":"uint96"}]}],"stateMutability":"view"},{"type":"function","name":"initialize","inputs":[{"name":"admin_","type":"address","internalType":"address"},{"name":"timelock_","type":"address","internalType":"address"},{"name":"push_","type":"address","internalType":"address"},{"name":"votingPeriod_","type":"uint256","internalType":"uint256"},{"name":"votingDelay_","type":"uint256","internalType":"uint256"},{"name":"proposalThreshold_","type":"uint256","internalType":"uint256"}],"outputs":[],"stateMutability":"nonpayable"},{"type":"function","name":"latestProposalIds","inputs":[{"name":"","type":"address","internalType":"address"}],"outputs":[{"name":"","type":"uint256","internalType":"uint256"}],"stateMutability":"view"},{"type":"function","name":"name","inputs":[],"outputs":[{"name":"","type":"string","internalType":"string"}],"stateMutability":"view"},{"type":"function","name":"pendingAdmin","inputs":[],"outputs":[{"name":"","type":"address","internalType":"address"}],"stateMutability":"view"},{"type":"function","name":"proposalCount","inputs":[],"outputs":[{"name":"","type":"uint256","internalType":"uint256"}],"stateMutability":"view"},{"type":"function","name":"proposalMaxOperations","inputs":[],"outputs":[{"name":"","type":"uint256","internalType":"uint256"}],"stateMutability":"view"},{"type":"function","name":"proposalThreshold","inputs":[],"outputs":[{"name":"","type":"uint256","internalType":"uint256"}],"stateMutability":"view"},{"type":"function","name":"proposals","inputs":[{"name":"","type":"uint256","internalType":"uint256"}],"outputs":[{"name":"id","type":"uint256","internalType":"uint256"},{"name":"proposer","type":"address","internalType":"address"},{"name":"eta","type":"uint256","internalType":"uint256"},{"name":"startBlock","type":"uint256","internalType":"uint256"},{"name":"endBlock","type":"uint256","internalType":"uint256"},{"name":"forVotes","type":"uint256","internalType":"uint256"},{"name":"againstVotes","type":"uint256","internalType":"uint256"},{"name":"abstainVotes","type":"uint256","internalType":"uint256"},{"name":"canceled","type":"bool","internalType":"bool"},{"name":"executed","type":"bool","internalType":"bool"}],"stateMutability":"view"},{"type":"function","name":"propose","inputs":[{"name":"targets","type":"address[]","internalType":"address[]"},{"name":"values","type":"uint256[]","internalType":"uint256[]"},{"name":"signatures","type":"string[]","internalType":"string[]"},{"name":"calldatas","type":"bytes[]","internalType":"bytes[]"},{"name":"description","type":"string","internalType":"string"}],"outputs":[{"name":"","type":"uint256","internalType":"uint256"}],"stateMutability":"nonpayable"},{"type":"function","name":"queue","inputs":[{"name":"proposalId","type":"uint256","internalType":"uint256"}],"outputs":[],"stateMutability":"nonpayable"},{"type":"function","name":"quorumVotes","inputs":[],"outputs":[{"name":"","type":"uint256","internalType":"uint256"}],"stateMutability":"view"},{"type":"function","name":"state","inputs":[{"name":"proposalId","type":"uint256","internalType":"uint256"}],"outputs":[{"name":"","type":"uint8","internalType":"enum GovernorBravoDelegateStorageV1.ProposalState"}],"stateMutability":"view"},{"type":"function","name":"timelock","inputs":[],"outputs":[{"name":"","type":"address","internalType":"contract TimelockInterface"}],"stateMutability":"view"},{"type":"function","name":"votingDelay","inputs":[],"outputs":[{"name":"","type":"uint256","internalType":"uint256"}],"stateMutability":"view"},{"type":"function","name":"votingPeriod","inputs":[],"outputs":[{"name":"","type":"uint256","internalType":"uint256"}],"stateMutability":"view"},{"type":"event","name":"NewAdmin","inputs":[{"name":"oldAdmin","type":"address","indexed":false,"internalType":"address"},{"name":"newAdmin","type":"address","indexed":false,"internalType":"address"}],"anonymous":false},{"type":"event","name":"NewPendingAdmin","inputs":[{"name":"oldPendingAdmin","type":"address","indexed":false,"internalType":"address"},{"name":"newPendingAdmin","type":"address","indexed":false,"internalType":"address"}],"anonymous":false},{"type":"event","name":"ProposalCanceled","inputs":[{"name":"id","type":"uint256","indexed":false,"internalType":"uint256"}],"anonymous":false},{"type":"event","name":"ProposalCreated","inputs":[{"name":"id","type":"uint256","indexed":false,"internalType":"uint256"},{"name":"proposer","type":"address","indexed":false,"internalType":"address"},{"name":"targets","type":"address[]","indexed":false,"internalType":"address[]"},{"name":"values","type":"uint256[]","indexed":false,"internalType":"uint256[]"},{"name":"signatures","type":"string[]","indexed":false,"internalType":"string[]"},{"name":"calldatas","type":"bytes[]","indexed":false,"internalType":"bytes[]"},{"name":"startBlock","type":"uint256","indexed":false,"internalType":"uint256"},{"name":"endBlock","type":"uint256","indexed":false,"internalType":"uint256"},{"name":"description","type":"string","indexed":false,"internalType":"string"}],"anonymous":false},{"type":"event","name":"ProposalExecuted","inputs":[{"name":"id","type":"uint256","indexed":false,"internalType":"uint256"}],"anonymous":false},{"type":"event","name":"ProposalQueued","inputs":[{"name":"id","type":"uint256","indexed":false,"internalType":"uint256"},{"name":"eta","type":"uint256","indexed":false,"internalType":"uint256"}],"anonymous":false},{"type":"event","name":"ProposalThresholdSet","inputs":[{"name":"oldProposalThreshold","type":"uint256","indexed":false,"internalType":"uint256"},{"name":"newProposalThreshold","type":"uint256","indexed":false,"internalType":"uint256"}],"anonymous":false},{"type":"event","name":"VoteCast","inputs":[{"name":"voter","type":"address","indexed":true,"internalType":"address"},{"name":"proposalId","type":"uint256","indexed":false,"internalType":"uint256"},{"name":"support","type":"uint8","indexed":false,"internalType":"uint8"},{"name":"votes","type":"uint256","indexed":false,"internalType":"uint256"},{"name":"reason","type":"string","indexed":false,"internalType":"string"}],"anonymous":false},{"type":"event","name":"VotingDelaySet","inputs":[{"name":"oldVotingDelay","type":"uint256","indexed":false,"internalType":"uint256"},{"name":"newVotingDelay","type":"uint256","indexed":false,"internalType":"uint256"}],"anonymous":false},{"type":"event","name":"VotingPeriodSet","inputs":[{"name":"oldVotingPeriod","type":"uint256","indexed":false,"internalType":"uint256"},{"name":"newVotingPeriod","type":"uint256","indexed":false,"internalType":"uint256"}],"anonymous":false}],"bytecode":{"object":"0x608060405234801561001057600080fd5b506144cc806100206000396000f3fe6080604052600436106102855760003560e01c8063728cdbca11610153578063d33219b4116100cb578063e23a9a521161007f578063e9c714f211610064578063e9c714f2146108bd578063f851a440146108d2578063fe0d94c1146108ff57600080fd5b8063e23a9a5214610853578063e48083fe146108a857600080fd5b8063da95691a116100b0578063da95691a146107df578063ddf0b009146107ff578063deaaa7cc1461081f57600080fd5b8063d33219b41461079c578063da35c664146107c957600080fd5b8063a64e024a11610122578063b58131b011610107578063b58131b014610739578063b71d1a0c1461074f578063cc6804c81461076f57600080fd5b8063a64e024a1461070c578063b11262631461072357600080fd5b8063728cdbca14610699578063791f5d23146106b95780637b3c71d3146106d75780637bdbe4d0146106f757600080fd5b8063215809ca116102015780633932abb1116101b55780633e4f49e61161019a5780633e4f49e61461062c57806340e58ee514610659578063567813881461067957600080fd5b80633932abb1146105f65780633bccf4fd1461060c57600080fd5b806325fd935a116101e657806325fd935a146105565780632678224714610574578063328dd982146105c657600080fd5b8063215809ca1461052157806324bc1a641461053757600080fd5b80630ea2d98c1161025857806317ba1b8b1161023d57806317ba1b8b146104ad5780631dfb1b5a146104cd57806320606b70146104ed57600080fd5b80630ea2d98c1461045e57806317977c611461048057600080fd5b8063013cf08b1461028a57806302a251a31461037b57806304622c2e1461039f57806306fdde0314610408575b600080fd5b34801561029657600080fd5b506103136102a53660046136ea565b60086020819052600091825260409091208054600182015460028301546007840154948401546009850154600a860154600b870154600c90970154959773ffffffffffffffffffffffffffffffffffffffff9095169693959293919290919060ff808216916101009004168a565b604080519a8b5273ffffffffffffffffffffffffffffffffffffffff90991660208b0152978901969096526060880194909452608087019290925260a086015260c085015260e084015215156101008301521515610120820152610140015b60405180910390f35b34801561038757600080fd5b5061039160035481565b604051908152602001610372565b3480156103ab57600080fd5b5060408051808201909152601381527f5055534820476f7665726e6f7220427261766f000000000000000000000000006020909101526103917fd41f782f03ec0d73a32a88346fba46f038b1b264c60291ade32ea104e4a8235681565b34801561041457600080fd5b506104516040518060400160405280601381526020017f5055534820476f7665726e6f7220427261766f0000000000000000000000000081525081565b6040516103729190613771565b34801561046a57600080fd5b5061047e6104793660046136ea565b610912565b005b34801561048c57600080fd5b5061039161049b3660046137b4565b60096020526000908152604090205481565b3480156104b957600080fd5b5061047e6104c83660046136ea565b610aa5565b3480156104d957600080fd5b5061047e6104e83660046136ea565b610c3c565b3480156104f957600080fd5b506103917f8cad95687ba82c2ce50e74f7b754645e5117c3a5bec8151c0726d5857980a86681565b34801561052d57600080fd5b5061039161168081565b34801561054357600080fd5b506103916a211654585005212800000081565b34801561056257600080fd5b5061039169d3c21bcecceda100000081565b34801561058057600080fd5b506001546105a19073ffffffffffffffffffffffffffffffffffffffff1681565b60405173ffffffffffffffffffffffffffffffffffffffff9091168152602001610372565b3480156105d257600080fd5b506105e66105e13660046136ea565b610dc0565b60405161037294939291906138a5565b34801561060257600080fd5b5061039160025481565b34801561061857600080fd5b5061047e61062736600461390e565b61105e565b34801561063857600080fd5b5061064c6106473660046136ea565b61137f565b604051610372919061398b565b34801561066557600080fd5b5061047e6106743660046136ea565b61158c565b34801561068557600080fd5b5061047e6106943660046139cc565b611960565b3480156106a557600080fd5b5061047e6106b43660046139f8565b6119d0565b3480156106c557600080fd5b506103916969e10de76676d080000081565b3480156106e357600080fd5b5061047e6106f2366004613a57565b611e20565b34801561070357600080fd5b50610391600a81565b34801561071857600080fd5b5061039162013b0081565b34801561072f57600080fd5b50610391619d8081565b34801561074557600080fd5b5061039160045481565b34801561075b57600080fd5b5061047e61076a3660046137b4565b611e70565b34801561077b57600080fd5b506007546105a19073ffffffffffffffffffffffffffffffffffffffff1681565b3480156107a857600080fd5b506006546105a19073ffffffffffffffffffffffffffffffffffffffff1681565b3480156107d557600080fd5b5061039160055481565b3480156107eb57600080fd5b506103916107fa366004613e01565b611f96565b34801561080b57600080fd5b5061047e61081a3660046136ea565b6126a6565b34801561082b57600080fd5b506103917f150214d74d59b7d1e90c73fc22ef3d991dd0a76b046543d4d80ab92d2a50328f81565b34801561085f57600080fd5b5061087361086e366004613ed3565b612a3e565b6040805182511515815260208084015160ff1690820152918101516bffffffffffffffffffffffff1690820152606001610372565b3480156108b457600080fd5b50610391600181565b3480156108c957600080fd5b5061047e612ac8565b3480156108de57600080fd5b506000546105a19073ffffffffffffffffffffffffffffffffffffffff1681565b61047e61090d3660046136ea565b612c4f565b60005473ffffffffffffffffffffffffffffffffffffffff1633146109be576040517f08c379a000000000000000000000000000000000000000000000000000000000815260206004820152602b60248201527f476f7665726e6f72427261766f3a3a5f736574566f74696e67506572696f643a60448201527f2061646d696e206f6e6c7900000000000000000000000000000000000000000060648201526084015b60405180910390fd5b61168081101580156109d3575062013b008111155b610a5f576040517f08c379a000000000000000000000000000000000000000000000000000000000815260206004820152603660248201527f476f7665726e6f72427261766f3a3a5f736574566f74696e67506572696f643a60448201527f20696e76616c696420766f74696e6720706572696f640000000000000000000060648201526084016109b5565b600380549082905560408051828152602081018490527f7e3f7f0708a84de9203036abaa450dccc85ad5ff52f78c170f3edb55cf5e882891015b60405180910390a15050565b60005473ffffffffffffffffffffffffffffffffffffffff163314610b4c576040517f08c379a000000000000000000000000000000000000000000000000000000000815260206004820152603060248201527f476f7665726e6f72427261766f3a3a5f73657450726f706f73616c546872657360448201527f686f6c643a2061646d696e206f6e6c790000000000000000000000000000000060648201526084016109b5565b6969e10de76676d08000008110158015610b70575069d3c21bcecceda10000008111155b610bfe57604080517f08c379a00000000000000000000000000000000000000000000000000000000081526020600482015260248101919091527f476f7665726e6f72427261766f3a3a5f73657450726f706f73616c546872657360448201527f686f6c643a20696e76616c69642070726f706f73616c207468726573686f6c6460648201526084016109b5565b600480549082905560408051828152602081018490527fccb45da8d5717e6c4544694297c4ba5cf151d455c9bb0ed4fc7a38411bc054619101610a99565b60005473ffffffffffffffffffffffffffffffffffffffff163314610ce3576040517f08c379a000000000000000000000000000000000000000000000000000000000815260206004820152602a60248201527f476f7665726e6f72427261766f3a3a5f736574566f74696e6744656c61793a2060448201527f61646d696e206f6e6c790000000000000000000000000000000000000000000060648201526084016109b5565b60018110158015610cf65750619d808111155b610d82576040517f08c379a000000000000000000000000000000000000000000000000000000000815260206004820152603460248201527f476f7665726e6f72427261766f3a3a5f736574566f74696e6744656c61793a2060448201527f696e76616c696420766f74696e672064656c617900000000000000000000000060648201526084016109b5565b600280549082905560408051828152602081018490527fc565b045403dc03c2eea82b81a0465edad9e2e7fc4d97e11421c209da93d7a939101610a99565b60608060608060006008600087815260200190815260200160002090508060030181600401826005018360060183805480602002602001604051908101604052809291908181526020018280548015610e4f57602002820191906000526020600020905b815473ffffffffffffffffffffffffffffffffffffffff168152600190910190602001808311610e24575b5050505050935082805480602002602001604051908101604052809291908181526020018280548015610ea157602002820191906000526020600020905b815481526020019060010190808311610e8d575b5050505050925081805480602002602001604051908101604052809291908181526020016000905b82821015610f75578382906000526020600020018054610ee890613ef6565b80601f0160208091040260200160405190810160405280929190818152602001828054610f1490613ef6565b8015610f615780601f10610f3657610100808354040283529160200191610f61565b820191906000526020600020905b815481529060010190602001808311610f4457829003601f168201915b505050505081526020019060010190610ec9565b50505050915080805480602002602001604051908101604052809291908181526020016000905b82821015611048578382906000526020600020018054610fbb90613ef6565b80601f0160208091040260200160405190810160405280929190818152602001828054610fe790613ef6565b80156110345780601f1061100957610100808354040283529160200191611034565b820191906000526020600020905b81548152906001019060200180831161101757829003601f168201915b505050505081526020019060010190610f9c565b5050505090509450945094509450509193509193565b604080518082018252601381527f5055534820476f7665726e6f7220427261766f0000000000000000000000000060209182015281517f8cad95687ba82c2ce50e74f7b754645e5117c3a5bec8151c0726d5857980a866818301527fd41f782f03ec0d73a32a88346fba46f038b1b264c60291ade32ea104e4a8235681840152466060820152306080808301919091528351808303909101815260a0820184528051908301207f150214d74d59b7d1e90c73fc22ef3d991dd0a76b046543d4d80ab92d2a50328f60c083015260e0820189905260ff881661010080840191909152845180840390910181526101208301909452835193909201929092207f190100000000000000000000000000000000000000000000000000000000000061014084015261014283018290526101628301819052909160009061018201604080517fffffffffffffffffffffffffffffffffffffffffffffffffffffffffffffffe08184030181528282528051602091820120600080855291840180845281905260ff8a169284019290925260608301889052608083018790529092509060019060a0016020604051602081039080840390855afa158015611224573d6000803e3d6000fd5b50506040517fffffffffffffffffffffffffffffffffffffffffffffffffffffffffffffffe0015191505073ffffffffffffffffffffffffffffffffffffffff81166112f2576040517f08c379a000000000000000000000000000000000000000000000000000000000815260206004820152602f60248201527f476f7665726e6f72427261766f3a3a63617374566f746542795369673a20696e60448201527f76616c6964207369676e6174757265000000000000000000000000000000000060648201526084016109b5565b8073ffffffffffffffffffffffffffffffffffffffff167fb8e138887d0aa13bab447e82de9d5c1777041ecd21ca36ba824ff1e6c07ddda48a8a611337858e8e612f13565b6040805193845260ff90921660208401526bffffffffffffffffffffffff169082015260806060820181905260009082015260a00160405180910390a2505050505050505050565b600081600554101580156113935750600082115b61141f576040517f08c379a000000000000000000000000000000000000000000000000000000000815260206004820152602960248201527f476f7665726e6f72427261766f3a3a73746174653a20696e76616c696420707260448201527f6f706f73616c206964000000000000000000000000000000000000000000000060648201526084016109b5565b6000828152600860205260409020600c81015460ff16156114435750600292915050565b806007015443116114575750600092915050565b8060080154431161146b5750600192915050565b80600a0154816009015411158061149057506a21165458500521280000008160090154105b1561149e5750600392915050565b80600201546000036114b35750600492915050565b600c810154610100900460ff16156114ce5750600792915050565b600660009054906101000a900473ffffffffffffffffffffffffffffffffffffffff1673ffffffffffffffffffffffffffffffffffffffff1663c1a287e26040518163ffffffff1660e01b8152600401602060405180830381865afa15801561153b573d6000803e3d6000fd5b505050506040513d601f19601f8201168201806040525081019061155f9190613f43565b816002015461156e9190613f8b565b421061157d5750600692915050565b50600592915050565b50919050565b60076115978261137f565b60078111156115a8576115a861395c565b03611635576040517f08c379a000000000000000000000000000000000000000000000000000000000815260206004820152603660248201527f476f7665726e6f72427261766f3a3a63616e63656c3a2063616e6e6f7420636160448201527f6e63656c2065786563757465642070726f706f73616c0000000000000000000060648201526084016109b5565b6000818152600860205260409020600181015473ffffffffffffffffffffffffffffffffffffffff16331480611740575060045460075460018381015473ffffffffffffffffffffffffffffffffffffffff9283169263782d6fe19291169061169e9043613f9e565b6040517fffffffff0000000000000000000000000000000000000000000000000000000060e085901b16815273ffffffffffffffffffffffffffffffffffffffff90921660048301526024820152604401602060405180830381865afa15801561170c573d6000803e3d6000fd5b505050506040513d601f19601f820116820180604052508101906117309190613fb1565b6bffffffffffffffffffffffff16105b6117cc576040517f08c379a000000000000000000000000000000000000000000000000000000000815260206004820152602f60248201527f476f7665726e6f72427261766f3a3a63616e63656c3a2070726f706f7365722060448201527f61626f7665207468726573686f6c64000000000000000000000000000000000060648201526084016109b5565b600c810180547fffffffffffffffffffffffffffffffffffffffffffffffffffffffffffffff0016600117905560005b600382015481101561192f5760065460038301805473ffffffffffffffffffffffffffffffffffffffff9092169163591fcdfe91908490811061184157611841613fdf565b60009182526020909120015460048501805473ffffffffffffffffffffffffffffffffffffffff909216918590811061187c5761187c613fdf565b906000526020600020015485600501858154811061189c5761189c613fdf565b906000526020600020018660060186815481106118bb576118bb613fdf565b9060005260206000200187600201546040518663ffffffff1660e01b81526004016118ea9594939291906140a9565b600060405180830381600087803b15801561190457600080fd5b505af1158015611918573d6000803e3d6000fd5b50505050808061192790614103565b9150506117fc565b506040518281527f789cf55be980739dad1d0699b93b58e806b51c9d96619bfa8fe0a28abaa7b30c90602001610a99565b337fb8e138887d0aa13bab447e82de9d5c1777041ecd21ca36ba824ff1e6c07ddda4838361198f848383612f13565b6040805193845260ff90921660208401526bffffffffffffffffffffffff169082015260806060820181905260009082015260a00160405180910390a25050565b60065473ffffffffffffffffffffffffffffffffffffffff1615611a76576040517f08c379a000000000000000000000000000000000000000000000000000000000815260206004820152603360248201527f476f7665726e6f72427261766f3a3a696e697469616c697a653a2063616e206f60448201527f6e6c7920696e697469616c697a65206f6e63650000000000000000000000000060648201526084016109b5565b73ffffffffffffffffffffffffffffffffffffffff8516611b19576040517f08c379a000000000000000000000000000000000000000000000000000000000815260206004820152603360248201527f476f7665726e6f72427261766f3a3a696e697469616c697a653a20696e76616c60448201527f69642074696d656c6f636b20616464726573730000000000000000000000000060648201526084016109b5565b73ffffffffffffffffffffffffffffffffffffffff8416611bbc576040517f08c379a000000000000000000000000000000000000000000000000000000000815260206004820152602f60248201527f476f7665726e6f72427261766f3a3a696e697469616c697a653a20696e76616c60448201527f696420505553482061646472657373000000000000000000000000000000000060648201526084016109b5565b6116808310158015611bd1575062013b008311155b611c5d576040517f08c379a000000000000000000000000000000000000000000000000000000000815260206004820152603060248201527f476f7665726e6f72427261766f3a3a696e697469616c697a653a20696e76616c60448201527f696420766f74696e6720706572696f640000000000000000000000000000000060648201526084016109b5565b60018210158015611c705750619d808211155b611cfc576040517f08c379a000000000000000000000000000000000000000000000000000000000815260206004820152602f60248201527f476f7665726e6f72427261766f3a3a696e697469616c697a653a20696e76616c60448201527f696420766f74696e672064656c6179000000000000000000000000000000000060648201526084016109b5565b6969e10de76676d08000008110158015611d20575069d3c21bcecceda10000008111155b611dac576040517f08c379a000000000000000000000000000000000000000000000000000000000815260206004820152603560248201527f476f7665726e6f72427261766f3a3a696e697469616c697a653a20696e76616c60448201527f69642070726f706f73616c207468726573686f6c64000000000000000000000060648201526084016109b5565b600080547fffffffffffffffffffffffff000000000000000000000000000000000000000090811673ffffffffffffffffffffffffffffffffffffffff9889161790915560068054821696881696909617909555600780549095169390951692909217909255600391909155600255600455565b337fb8e138887d0aa13bab447e82de9d5c1777041ecd21ca36ba824ff1e6c07ddda48585611e4f848383612f13565b8686604051611e6295949392919061413b565b60405180910390a250505050565b60005473ffffffffffffffffffffffffffffffffffffffff163314611f17576040517f08c379a000000000000000000000000000000000000000000000000000000000815260206004820152602a60248201527f476f7665726e6f72427261766f3a5f73657450656e64696e6741646d696e3a2060448201527f61646d696e206f6e6c790000000000000000000000000000000000000000000060648201526084016109b5565b6001805473ffffffffffffffffffffffffffffffffffffffff8381167fffffffffffffffffffffffff000000000000000000000000000000000000000083168117909355604080519190921680825260208201939093527fca4f2f25d0898edd99413412fb94012f9e54ec8142f9b093e7720646a95b16a99101610a99565b6004546007546000919073ffffffffffffffffffffffffffffffffffffffff1663782d6fe133611fc7600143613f9e565b6040517fffffffff0000000000000000000000000000000000000000000000000000000060e085901b16815273ffffffffffffffffffffffffffffffffffffffff90921660048301526024820152604401602060405180830381865afa158015612035573d6000803e3d6000fd5b505050506040513d601f19601f820116820180604052508101906120599190613fb1565b6bffffffffffffffffffffffff16116120f4576040517f08c379a000000000000000000000000000000000000000000000000000000000815260206004820152603f60248201527f476f7665726e6f72427261766f3a3a70726f706f73653a2070726f706f73657260448201527f20766f7465732062656c6f772070726f706f73616c207468726573686f6c640060648201526084016109b5565b84518651148015612106575083518651145b8015612113575082518651145b6121c6576040517f08c379a0000000000000000000000000000000000000000000000000000000008152602060048201526044602482018190527f476f7665726e6f72427261766f3a3a70726f706f73653a2070726f706f73616c908201527f2066756e6374696f6e20696e666f726d6174696f6e206172697479206d69736d60648201527f6174636800000000000000000000000000000000000000000000000000000000608482015260a4016109b5565b8551600003612257576040517f08c379a000000000000000000000000000000000000000000000000000000000815260206004820152602c60248201527f476f7665726e6f72427261766f3a3a70726f706f73653a206d7573742070726f60448201527f7669646520616374696f6e73000000000000000000000000000000000000000060648201526084016109b5565b600a865111156122e9576040517f08c379a000000000000000000000000000000000000000000000000000000000815260206004820152602860248201527f476f7665726e6f72427261766f3a3a70726f706f73653a20746f6f206d616e7960448201527f20616374696f6e7300000000000000000000000000000000000000000000000060648201526084016109b5565b33600090815260096020526040902054801561249c57600061230a8261137f565b905060018160078111156123205761232061395c565b036123d3576040517f08c379a000000000000000000000000000000000000000000000000000000000815260206004820152605860248201527f476f7665726e6f72427261766f3a3a70726f706f73653a206f6e65206c69766560448201527f2070726f706f73616c207065722070726f706f7365722c20666f756e6420616e60648201527f20616c7265616479206163746976652070726f706f73616c0000000000000000608482015260a4016109b5565b60008160078111156123e7576123e761395c565b0361249a576040517f08c379a000000000000000000000000000000000000000000000000000000000815260206004820152605960248201527f476f7665726e6f72427261766f3a3a70726f706f73653a206f6e65206c69766560448201527f2070726f706f73616c207065722070726f706f7365722c20666f756e6420616e60648201527f20616c72656164792070656e64696e672070726f706f73616c00000000000000608482015260a4016109b5565b505b6000600254436124ac9190613f8b565b90506000600354826124be9190613f8b565b6005805491925060006124d083614103565b9091555050600554600081815260086020908152604082208381556001810180547fffffffffffffffffffffffff0000000000000000000000000000000000000000163317905560028101929092558b51612533916003840191908e01906134f5565b50895161254990600483019060208d019061357f565b50885161255f90600583019060208c01906135ba565b50875161257590600683019060208b019061360c565b5083816007018190555082816008018190555060008160090181905550600081600a0181905550600081600b0181905550600081600c0160006101000a81548160ff021916908315150217905550600081600c0160016101000a81548160ff0219169083151502179055508060000154600960008360010160009054906101000a900473ffffffffffffffffffffffffffffffffffffffff1673ffffffffffffffffffffffffffffffffffffffff1673ffffffffffffffffffffffffffffffffffffffff168152602001908152602001600020819055507f7d84a6263ae0d98d3329bd7b46bb4e8d6f98cd35a7adb45c274c8b7fd5ebd5e08160000154338d8d8d8d8a8a8f60405161268f999897969594939291906141ae565b60405180910390a1549a9950505050505050505050565b60046126b18261137f565b60078111156126c2576126c261395c565b14612776576040517f08c379a0000000000000000000000000000000000000000000000000000000008152602060048201526044602482018190527f476f7665726e6f72427261766f3a3a71756575653a2070726f706f73616c2063908201527f616e206f6e6c792062652071756575656420696620697420697320737563636560648201527f6564656400000000000000000000000000000000000000000000000000000000608482015260a4016109b5565b600081815260086020908152604080832060065482517f6a42b8f8000000000000000000000000000000000000000000000000000000008152925191949373ffffffffffffffffffffffffffffffffffffffff90911692636a42b8f892600480830193928290030181865afa1580156127f3573d6000803e3d6000fd5b505050506040513d601f19601f820116820180604052508101906128179190613f43565b6128219042613f8b565b905060005b60038301548110156129f8576129e683600301828154811061284a5761284a613fdf565b60009182526020909120015460048501805473ffffffffffffffffffffffffffffffffffffffff909216918490811061288557612885613fdf565b90600052602060002001548560050184815481106128a5576128a5613fdf565b9060005260206000200180546128ba90613ef6565b80601f01602080910402602001604051908101604052809291908181526020018280546128e690613ef6565b80156129335780601f1061290857610100808354040283529160200191612933565b820191906000526020600020905b81548152906001019060200180831161291657829003601f168201915b505050505086600601858154811061294d5761294d613fdf565b90600052602060002001805461296290613ef6565b80601f016020809104026020016040519081016040528092919081815260200182805461298e90613ef6565b80156129db5780601f106129b0576101008083540402835291602001916129db565b820191906000526020600020905b8154815290600101906020018083116129be57829003601f168201915b5050505050866132e9565b806129f081614103565b915050612826565b506002820181905560408051848152602081018390527f9a2e42fd6722813d69113e7d0079d3d940171428df7373df9c7f7617cfda2892910160405180910390a1505050565b6040805160608082018352600080835260208084018290529284018190528581526008835283812073ffffffffffffffffffffffffffffffffffffffff86168252600d018352839020835191820184525460ff8082161515835261010082041692820192909252620100009091046bffffffffffffffffffffffff16918101919091525b92915050565b60015473ffffffffffffffffffffffffffffffffffffffff163314612b6f576040517f08c379a000000000000000000000000000000000000000000000000000000000815260206004820152602e60248201527f476f7665726e6f72427261766f3a5f61636365707441646d696e3a2070656e6460448201527f696e672061646d696e206f6e6c7900000000000000000000000000000000000060648201526084016109b5565b600080546001805473ffffffffffffffffffffffffffffffffffffffff8082167fffffffffffffffffffffffff000000000000000000000000000000000000000080861682179096559490911690915560408051919092168082526020820184905292917ff9ffabca9c8276e99321725bcb43fb076a6c66a54b7f21c4e8146d8519b417dc910160405180910390a16001546040805173ffffffffffffffffffffffffffffffffffffffff808516825290921660208301527fca4f2f25d0898edd99413412fb94012f9e54ec8142f9b093e7720646a95b16a99101610a99565b6005612c5a8261137f565b6007811115612c6b57612c6b61395c565b14612d1e576040517f08c379a000000000000000000000000000000000000000000000000000000000815260206004820152604560248201527f476f7665726e6f72427261766f3a3a657865637574653a2070726f706f73616c60448201527f2063616e206f6e6c79206265206578656375746564206966206974206973207160648201527f7565756564000000000000000000000000000000000000000000000000000000608482015260a4016109b5565b6000818152600860205260408120600c810180547fffffffffffffffffffffffffffffffffffffffffffffffffffffffffffff00ff16610100179055905b6003820154811015612ee25760065460048301805473ffffffffffffffffffffffffffffffffffffffff90921691630825f38f919084908110612da157612da1613fdf565b9060005260206000200154846003018481548110612dc157612dc1613fdf565b60009182526020909120015460048601805473ffffffffffffffffffffffffffffffffffffffff9092169186908110612dfc57612dfc613fdf565b9060005260206000200154866005018681548110612e1c57612e1c613fdf565b90600052602060002001876006018781548110612e3b57612e3b613fdf565b9060005260206000200188600201546040518763ffffffff1660e01b8152600401612e6a9594939291906140a9565b60006040518083038185885af1158015612e88573d6000803e3d6000fd5b50505050506040513d6000823e601f3d9081017fffffffffffffffffffffffffffffffffffffffffffffffffffffffffffffffe0168201604052612ecf9190810190614251565b5080612eda81614103565b915050612d5c565b506040518281527f712ae1383f79ac853f8d882153778e0260ef8f03b504e2866e0593e04d2b291f90602001610a99565b60006001612f208461137f565b6007811115612f3157612f3161395c565b14612fbe576040517f08c379a000000000000000000000000000000000000000000000000000000000815260206004820152603160248201527f476f7665726e6f72427261766f3a3a63617374566f7465496e7465726e616c3a60448201527f20766f74696e6720697320636c6f73656400000000000000000000000000000060648201526084016109b5565b60028260ff161115613052576040517f08c379a000000000000000000000000000000000000000000000000000000000815260206004820152603260248201527f476f7665726e6f72427261766f3a3a63617374566f7465496e7465726e616c3a60448201527f20696e76616c696420766f74652074797065000000000000000000000000000060648201526084016109b5565b600083815260086020908152604080832073ffffffffffffffffffffffffffffffffffffffff88168452600d8101909252909120805460ff1615613118576040517f08c379a000000000000000000000000000000000000000000000000000000000815260206004820152603460248201527f476f7665726e6f72427261766f3a3a63617374566f7465496e7465726e616c3a60448201527f20766f74657220616c726561647920766f74656400000000000000000000000060648201526084016109b5565b60078054908301546040517f782d6fe100000000000000000000000000000000000000000000000000000000815260009273ffffffffffffffffffffffffffffffffffffffff169163782d6fe191613195918b9160040173ffffffffffffffffffffffffffffffffffffffff929092168252602082015260400190565b602060405180830381865afa1580156131b2573d6000803e3d6000fd5b505050506040513d601f19601f820116820180604052508101906131d69190613fb1565b90508460ff1660000361320b57806bffffffffffffffffffffffff1683600a01546132019190613f8b565b600a84015561326d565b8460ff1660010361323e57806bffffffffffffffffffffffff1683600901546132349190613f8b565b600984015561326d565b8460ff1660020361326d57806bffffffffffffffffffffffff1683600b01546132679190613f8b565b600b8401555b81546bffffffffffffffffffffffff821662010000027fffffffffffffffffffffffffffffffffffff000000000000000000000000ffff60ff8816610100027fffffffffffffffffffffffffffffffffffffffffffffffffffffffffffff00009093169290921760011791909116179091559150509392505050565b60065460405173ffffffffffffffffffffffffffffffffffffffff9091169063f2b065379061332490889088908890889088906020016142c8565b604051602081830303815290604052805190602001206040518263ffffffff1660e01b815260040161335891815260200190565b602060405180830381865afa158015613375573d6000803e3d6000fd5b505050506040513d601f19601f82011682018060405250810190613399919061430f565b1561344c576040517f08c379a000000000000000000000000000000000000000000000000000000000815260206004820152605560248201527f476f7665726e6f72427261766f3a3a71756575654f72526576657274496e746560448201527f726e616c3a206964656e746963616c2070726f706f73616c20616374696f6e2060648201527f616c726561647920717565756564206174206574610000000000000000000000608482015260a4016109b5565b6006546040517f3a66f90100000000000000000000000000000000000000000000000000000000815273ffffffffffffffffffffffffffffffffffffffff90911690633a66f901906134aa90889088908890889088906004016142c8565b6020604051808303816000875af11580156134c9573d6000803e3d6000fd5b505050506040513d601f19601f820116820180604052508101906134ed9190613f43565b505050505050565b82805482825590600052602060002090810192821561356f579160200282015b8281111561356f57825182547fffffffffffffffffffffffff00000000000000000000000000000000000000001673ffffffffffffffffffffffffffffffffffffffff909116178255602090920191600190910190613515565b5061357b92915061365e565b5090565b82805482825590600052602060002090810192821561356f579160200282015b8281111561356f57825182559160200191906001019061359f565b828054828255906000526020600020908101928215613600579160200282015b8281111561360057825182906135f0908261437c565b50916020019190600101906135da565b5061357b929150613673565b828054828255906000526020600020908101928215613652579160200282015b828111156136525782518290613642908261437c565b509160200191906001019061362c565b5061357b929150613690565b5b8082111561357b576000815560010161365f565b8082111561357b57600061368782826136ad565b50600101613673565b8082111561357b5760006136a482826136ad565b50600101613690565b5080546136b990613ef6565b6000825580601f106136c9575050565b601f0160209004906000526020600020908101906136e7919061365e565b50565b6000602082840312156136fc57600080fd5b5035919050565b60005b8381101561371e578181015183820152602001613706565b50506000910152565b6000815180845261373f816020860160208601613703565b601f017fffffffffffffffffffffffffffffffffffffffffffffffffffffffffffffffe0169290920160200192915050565b6020815260006137846020830184613727565b9392505050565b803573ffffffffffffffffffffffffffffffffffffffff811681146137af57600080fd5b919050565b6000602082840312156137c657600080fd5b6137848261378b565b600081518084526020808501945080840160005b8381101561381557815173ffffffffffffffffffffffffffffffffffffffff16875295820195908201906001016137e3565b509495945050505050565b600081518084526020808501945080840160005b8381101561381557815187529582019590820190600101613834565b600081518084526020808501808196508360051b8101915082860160005b85811015613898578284038952613886848351613727565b9885019893509084019060010161386e565b5091979650505050505050565b6080815260006138b860808301876137cf565b82810360208401526138ca8187613820565b905082810360408401526138de8186613850565b905082810360608401526138f28185613850565b979650505050505050565b803560ff811681146137af57600080fd5b600080600080600060a0868803121561392657600080fd5b85359450613936602087016138fd565b9350613944604087016138fd565b94979396509394606081013594506080013592915050565b7f4e487b7100000000000000000000000000000000000000000000000000000000600052602160045260246000fd5b60208101600883106139c6577f4e487b7100000000000000000000000000000000000000000000000000000000600052602160045260246000fd5b91905290565b600080604083850312156139df57600080fd5b823591506139ef602084016138fd565b90509250929050565b60008060008060008060c08789031215613a1157600080fd5b613a1a8761378b565b9550613a286020880161378b565b9450613a366040880161378b565b9350606087013592506080870135915060a087013590509295509295509295565b60008060008060608587031215613a6d57600080fd5b84359350613a7d602086016138fd565b9250604085013567ffffffffffffffff80821115613a9a57600080fd5b818701915087601f830112613aae57600080fd5b813581811115613abd57600080fd5b886020828501011115613acf57600080fd5b95989497505060200194505050565b7f4e487b7100000000000000000000000000000000000000000000000000000000600052604160045260246000fd5b604051601f82017fffffffffffffffffffffffffffffffffffffffffffffffffffffffffffffffe016810167ffffffffffffffff81118282101715613b5457613b54613ade565b604052919050565b600067ffffffffffffffff821115613b7657613b76613ade565b5060051b60200190565b600082601f830112613b9157600080fd5b81356020613ba6613ba183613b5c565b613b0d565b82815260059290921b84018101918181019086841115613bc557600080fd5b8286015b84811015613be757613bda8161378b565b8352918301918301613bc9565b509695505050505050565b600082601f830112613c0357600080fd5b81356020613c13613ba183613b5c565b82815260059290921b84018101918181019086841115613c3257600080fd5b8286015b84811015613be75780358352918301918301613c36565b600067ffffffffffffffff821115613c6757613c67613ade565b50601f017fffffffffffffffffffffffffffffffffffffffffffffffffffffffffffffffe01660200190565b6000613ca1613ba184613c4d565b9050828152838383011115613cb557600080fd5b828260208301376000602084830101529392505050565b600082601f830112613cdd57600080fd5b61378483833560208501613c93565b600082601f830112613cfd57600080fd5b81356020613d0d613ba183613b5c565b82815260059290921b84018101918181019086841115613d2c57600080fd5b8286015b84811015613be757803567ffffffffffffffff811115613d505760008081fd5b613d5e8986838b0101613ccc565b845250918301918301613d30565b600082601f830112613d7d57600080fd5b81356020613d8d613ba183613b5c565b82815260059290921b84018101918181019086841115613dac57600080fd5b8286015b84811015613be757803567ffffffffffffffff811115613dd05760008081fd5b8701603f81018913613de25760008081fd5b613df3898683013560408401613c93565b845250918301918301613db0565b600080600080600060a08688031215613e1957600080fd5b853567ffffffffffffffff80821115613e3157600080fd5b613e3d89838a01613b80565b96506020880135915080821115613e5357600080fd5b613e5f89838a01613bf2565b95506040880135915080821115613e7557600080fd5b613e8189838a01613cec565b94506060880135915080821115613e9757600080fd5b613ea389838a01613d6c565b93506080880135915080821115613eb957600080fd5b50613ec688828901613ccc565b9150509295509295909350565b60008060408385031215613ee657600080fd5b823591506139ef6020840161378b565b600181811c90821680613f0a57607f821691505b602082108103611586577f4e487b7100000000000000000000000000000000000000000000000000000000600052602260045260246000fd5b600060208284031215613f5557600080fd5b5051919050565b7f4e487b7100000000000000000000000000000000000000000000000000000000600052601160045260246000fd5b80820180821115612ac257612ac2613f5c565b81810381811115612ac257612ac2613f5c565b600060208284031215613fc357600080fd5b81516bffffffffffffffffffffffff8116811461378457600080fd5b7f4e487b7100000000000000000000000000000000000000000000000000000000600052603260045260246000fd5b6000815461401b81613ef6565b80855260206001838116801561403857600181146140705761409e565b7fffffffffffffffffffffffffffffffffffffffffffffffffffffffffffffff008516838901528284151560051b890101955061409e565b866000528260002060005b858110156140965781548a820186015290830190840161407b565b890184019650505b505050505092915050565b73ffffffffffffffffffffffffffffffffffffffff8616815284602082015260a0604082015260006140de60a083018661400e565b82810360608401526140f0818661400e565b9150508260808301529695505050505050565b60007fffffffffffffffffffffffffffffffffffffffffffffffffffffffffffffffff820361413457614134613f5c565b5060010190565b85815260ff851660208201526bffffffffffffffffffffffff8416604082015260806060820152816080820152818360a0830137600081830160a090810191909152601f9092017fffffffffffffffffffffffffffffffffffffffffffffffffffffffffffffffe0160101949350505050565b60006101208b835273ffffffffffffffffffffffffffffffffffffffff8b1660208401528060408401526141e48184018b6137cf565b905082810360608401526141f8818a613820565b9050828103608084015261420c8189613850565b905082810360a08401526142208188613850565b90508560c08401528460e08401528281036101008401526142418185613727565b9c9b505050505050505050505050565b60006020828403121561426357600080fd5b815167ffffffffffffffff81111561427a57600080fd5b8201601f8101841361428b57600080fd5b8051614299613ba182613c4d565b8181528560208385010111156142ae57600080fd5b6142bf826020830160208601613703565b95945050505050565b73ffffffffffffffffffffffffffffffffffffffff8616815284602082015260a0604082015260006142fd60a0830186613727565b82810360608401526140f08186613727565b60006020828403121561432157600080fd5b8151801515811461378457600080fd5b601f82111561437757600081815260208120601f850160051c810160208610156143585750805b601f850160051c820191505b818110156134ed57828155600101614364565b505050565b815167ffffffffffffffff81111561439657614396613ade565b6143aa816143a48454613ef6565b84614331565b602080601f8311600181146143fd57600084156143c75750858301515b7fffffffffffffffffffffffffffffffffffffffffffffffffffffffffffffffff600386901b1c1916600185901b1785556134ed565b6000858152602081207fffffffffffffffffffffffffffffffffffffffffffffffffffffffffffffffe08616915b8281101561444a5788860151825594840194600190910190840161442b565b508582101561448657878501517fffffffffffffffffffffffffffffffffffffffffffffffffffffffffffffffff600388901b60f8161c191681555b5050505050600190811b0190555056fea26469706673582212205317bd7b796f093328cd005c1e1988cfc6662f648927257973c48c35612e496b64736f6c63430008140033","linkReferences":{}},"methodIdentifiers":{"BALLOT_TYPEHASH()":"deaaa7cc","DOMAIN_TYPEHASH()":"20606b70","MAX_PROPOSAL_THRESHOLD()":"25fd935a","MAX_VOTING_DELAY()":"b1126263","MAX_VOTING_PERIOD()":"a64e024a","MIN_PROPOSAL_THRESHOLD()":"791f5d23","MIN_VOTING_DELAY()":"e48083fe","MIN_VOTING_PERIOD()":"215809ca","NAME_HASH()":"04622c2e","PUSH()":"cc6804c8","_acceptAdmin()":"e9c714f2","_setPendingAdmin(address)":"b71d1a0c","_setProposalThreshold(uint256)":"17ba1b8b","_setVotingDelay(uint256)":"1dfb1b5a","_setVotingPeriod(uint256)":"0ea2d98c","admin()":"f851a440","cancel(uint256)":"40e58ee5","castVote(uint256,uint8)":"56781388","castVoteBySig(uint256,uint8,uint8,bytes32,bytes32)":"3bccf4fd","castVoteWithReason(uint256,uint8,string)":"7b3c71d3","execute(uint256)":"fe0d94c1","getActions(uint256)":"328dd982","getReceipt(uint256,address)":"e23a9a52","initialize(address,address,address,uint256,uint256,uint256)":"728cdbca","latestProposalIds(address)":"17977c61","name()":"06fdde03","pendingAdmin()":"26782247","proposalCount()":"da35c664","proposalMaxOperations()":"7bdbe4d0","proposalThreshold()":"b58131b0","proposals(uint256)":"013cf08b","propose(address[],uint256[],string[],bytes[],string)":"da95691a","queue(uint256)":"ddf0b009","quorumVotes()":"24bc1a64","state(uint256)":"3e4f49e6","timelock()":"d33219b4","votingDelay()":"3932abb1","votingPeriod()":"02a251a3"},"id":11}