{"abi":[{"type":"constructor","inputs":[],"stateMutability":"nonpayable"},{"type":"function","name":"DELEGATION_TYPEHASH","inputs":[],"outputs":[{"name":"","type":"bytes32","internalType":"bytes32"}],"stateMutability":"view"},{"type":"function","name":"DOMAIN_TYPEHASH","inputs":[],"outputs":[{"name":"","type":"bytes32","internalType":"bytes32"}],"stateMutability":"view"},{"type":"function","name":"PERMIT_TYPEHASH","inputs":[],"outputs":[{"name":"","type":"bytes32","internalType":"bytes32"}],"stateMutability":"view"},{"type":"function","name":"allowance","inputs":[{"name":"account","type":"address","internalType":"address"},{"name":"spender","type":"address","internalType":"address"}],"outputs":[{"name":"","type":"uint256","internalType":"uint256"}],"stateMutability":"view"},{"type":"function","name":"approve","inputs":[{"name":"spender","type":"address","internalType":"address"},{"name":"rawAmount","type":"uint256","internalType":"uint256"}],"outputs":[{"name":"","type":"bool","internalType":"bool"}],"stateMutability":"nonpayable"},{"type":"function","name":"balanceOf","inputs":[{"name":"account","type":"address","internalType":"address"}],"outputs":[{"name":"","type":"uint256","internalType":"uint256"}],"stateMutability":"view"},{"type":"function","name":"born","inputs":[],"outputs":[{"name":"","type":"uint256","internalType":"uint256"}],"stateMutability":"view"},{"type":"function","name":"burn","inputs":[{"name":"rawAmount","type":"uint256","internalType":"uint256"}],"outputs":[],"stateMutability":"nonpayable"},{"type":"function","name":"checkpoints","inputs":[{"name":"","type":"address","internalType":"address"},{"name":"","type":"uint32","internalType":"uint32"}],"outputs":[{"name":"fromBlock","type":"uint32","internalType":"uint32"},{"name":"votes","type":"uint96","internalType":"uint96"}],"stateMutability":"view"},{"type":"function","name":"decimals","inputs":[],"outputs":[{"name":"","type":"uint8","internalType":"uint8"}],"stateMutability":"view"},{"type":"function","name":"delegate","inputs":[{"name":"delegatee","type":"address","internalType":"address"}],"outputs":[],"stateMutability":"nonpayable"},{"type":"function","name":"delegateBySig","inputs":[{"name":"delegatee","type":"address","internalType":"address"},{"name":"nonce","type":"uint256","internalType":"uint256"},{"name":"expiry","type":"uint256","internalType":"uint256"},{"name":"v","type":"uint8","internalType":"uint8"},{"name":"r","type":"bytes32","internalType":"bytes32"},{"name":"s","type":"bytes32","internalType":"bytes32"}],"outputs":[],"stateMutability":"nonpayable"},{"type":"function","name":"delegates","inputs":[{"name":"","type":"address","internalType":"address"}],"outputs":[{"name":"","type":"address","internalType":"address"}],"stateMutability":"view"},{"type":"function","name":"getCurrentVotes","inputs":[{"name":"account","type":"address","internalType":"address"}],"outputs":[{"name":"","type":"uint96","internalType":"uint96"}],"stateMutability":"view"},{"type":"function","name":"getPriorVotes","inputs":[{"name":"account","type":"address","internalType":"address"},{"name":"blockNumber","type":"uint256","internalType":"uint256"}],"outputs":[{"name":"","type":"uint96","internalType":"uint96"}],"stateMutability":"view"},{"type":"function","name":"holderDelegation","inputs":[{"name":"","type":"address","internalType":"address"},{"name":"","type":"address","internalType":"address"}],"outputs":[{"name":"","type":"bool","internalType":"bool"}],"stateMutability":"view"},{"type":"function","name":"holderWeight","inputs":[{"name":"","type":"address","internalType":"address"}],"outputs":[{"name":"","type":"uint256","internalType":"uint256"}],"stateMutability":"view"},{"type":"function","name":"initialize","inputs":[],"outputs":[],"stateMutability":"nonpayable"},{"type":"function","name":"maxSupply","inputs":[],"outputs":[{"name":"","type":"uint256","internalType":"uint256"}],"stateMutability":"view"},{"type":"function","name":"mint","inputs":[{"name":"account","type":"address","internalType":"address"},{"name":"rawAmount","type":"uint256","internalType":"uint256"}],"outputs":[],"stateMutability":"nonpayable"},{"type":"function","name":"minter","inputs":[],"outputs":[{"name":"","type":"address","internalType":"address"}],"stateMutability":"view"},{"type":"function","name":"name","inputs":[],"outputs":[{"name":"","type":"string","internalType":"string"}],"stateMutability":"view"},{"type":"function","name":"nonces","inputs":[{"name":"","type":"address","internalType":"address"}],"outputs":[{"name":"","type":"uint256","internalType":"uint256"}],"stateMutability":"view"},{"type":"function","name":"numCheckpoints","inputs":[{"name":"","type":"address","internalType":"address"}],"outputs":[{"name":"","type":"uint32","internalType":"uint32"}],"stateMutability":"view"},{"type":"function","name":"owner","inputs":[],"outputs":[{"name":"","type":"address","internalType":"address"}],"stateMutability":"view"},{"type":"function","name":"permit","inputs":[{"name":"owner","type":"address","internalType":"address"},{"name":"spender","type":"address","internalType":"address"},{"name":"rawAmount","type":"uint256","internalType":"uint256"},{"name":"deadline","type":"uint256","internalType":"uint256"},{"name":"v","type":"uint8","internalType":"uint8"},{"name":"r","type":"bytes32","internalType":"bytes32"},{"name":"s","type":"bytes32","internalType":"bytes32"}],"outputs":[],"stateMutability":"nonpayable"},{"type":"function","name":"renounceOwnership","inputs":[],"outputs":[],"stateMutability":"nonpayable"},{"type":"function","name":"resetHolderWeight","inputs":[{"name":"holder","type":"address","internalType":"address"}],"outputs":[],"stateMutability":"nonpayable"},{"type":"function","name":"returnHolderDelegation","inputs":[{"name":"account","type":"address","internalType":"address"},{"name":"delegate","type":"address","internalType":"address"}],"outputs":[{"name":"","type":"bool","internalType":"bool"}],"stateMutability":"view"},{"type":"function","name":"returnHolderUnits","inputs":[{"name":"account","type":"address","internalType":"address"},{"name":"atBlock","type":"uint256","internalType":"uint256"}],"outputs":[{"name":"","type":"uint256","internalType":"uint256"}],"stateMutability":"view"},{"type":"function","name":"setHolderDelegation","inputs":[{"name":"delegate","type":"address","internalType":"address"},{"name":"value","type":"bool","internalType":"bool"}],"outputs":[],"stateMutability":"nonpayable"},{"type":"function","name":"setMinter","inputs":[{"name":"newMinter","type":"address","internalType":"address"}],"outputs":[],"stateMutability":"nonpayable"},{"type":"function","name":"symbol","inputs":[],"outputs":[{"name":"","type":"string","internalType":"string"}],"stateMutability":"view"},{"type":"function","name":"totalSupply","inputs":[],"outputs":[{"name":"","type":"uint256","internalType":"uint256"}],"stateMutability":"view"},{"type":"function","name":"transfer","inputs":[{"name":"dst","type":"address","internalType":"address"},{"name":"rawAmount","type":"uint256","internalType":"uint256"}],"outputs":[{"name":"","type":"bool","internalType":"bool"}],"stateMutability":"nonpayable"},{"type":"function","name":"transferFrom","inputs":[{"name":"src","type":"address","internalType":"address"},{"name":"dst","type":"address","internalType":"address"},{"name":"rawAmount","type":"uint256","internalType":"uint256"}],"outputs":[{"name":"","type":"bool","internalType":"bool"}],"stateMutability":"nonpayable"},{"type":"function","name":"transferOwnership","inputs":[{"name":"newOwner","type":"address","internalType":"address"}],"outputs":[],"stateMutability":"nonpayable"},{"type":"event","name":"Approval","inputs":[{"name":"owner","type":"address","indexed":true,"internalType":"address"},{"name":"spender","type":"address","indexed":true,"internalType":"address"},{"name":"amount","type":"uint256","indexed":false,"internalType":"uint256"}],"anonymous":false},{"type":"event","name":"DelegateChanged","inputs":[{"name":"delegator","type":"address","indexed":true,"internalType":"address"},{"name":"fromDelegate","type":"address","indexed":true,"internalType":"address"},{"name":"toDelegate","type":"address","indexed":true,"internalType":"address"}],"anonymous":false},{"type":"event","name":"DelegateVotesChanged","inputs":[{"name":"delegate","type":"address","indexed":true,"internalType":"address"},{"name":"previousBalance","type":"uint256","indexed":false,"internalType":"uint256"},{"name":"newBalance","type":"uint256","indexed":false,"internalType":"uint256"}],"anonymous":false},{"type":"event","name":"HolderWeightChanged","inputs":[{"name":"holder","type":"address","indexed":true,"internalType":"address"},{"name":"amount","type":"uint256","indexed":false,"internalType":"uint256"},{"name":"weight","type":"uint256","indexed":false,"internalType":"uint256"}],"anonymous":false},{"type":"event","name":"Initialized","inputs":[{"name":"version","type":"uint8","indexed":false,"internalType":"uint8"}],"anonymous":false},{"type":"event","name":"NewMinter","inputs":[{"name":"newMinter","type":"address","indexed":true,"internalType":"address"}],"anonymous":false},{"type":"event","name":"OwnershipTransferred","inputs":[{"name":"previousOwner","type":"address","indexed":true,"internalType":"address"},{"name":"newOwner","type":"address","indexed":true,"internalType":"address"}],"anonymous":false},{"type":"event","name":"Transfer","inputs":[{"name":"from","type":"address","indexed":true,"internalType":"address"},{"name":"to","type":"address","indexed":true,"internalType":"address"},{"name":"amount","type":"uint256","indexed":false,"internalType":"uint256"}],"anonymous":false},{"type":"error","name":"CallerNotMinter","inputs":[{"name":"caller","type":"address","internalType":"address"}]},{"type":"error","name":"InvalidMinterZeroAddress","inputs":[]}],"bytecode":{"object":"0x608060405234801562000010575f80fd5b506200001b62000021565b620000df565b5f54610100900460ff16156200008d5760405162461bcd60e51b815260206004820152602760248201527f496e697469616c697a61626c653a20636f6e747261637420697320696e697469604482015266616c697a696e6760c81b606482015260840160405180910390fd5b5f5460ff90811614620000dd575f805460ff191660ff9081179091556040519081527f7f26b83ff96e1f2b6a682f133852f6798a09c465da95921460cefb38474024989060200160405180910390a15b565b6138ab80620000ed5f395ff3fe608060405234801561000f575f80fd5b5060043610610269575f3560e01c80636fcfff4511610157578063b4b5ea57116100d2578063e7a324dc11610088578063f18365d91161006e578063f18365d9146107c8578063f2fde38b146107db578063fca3b5aa146107ee575f80fd5b8063e7a324dc14610730578063f1127ed814610757575f80fd5b8063d505accf116100b8578063d505accf146106b8578063d5abeb01146106cb578063dd62ed3e146106dd575f80fd5b8063b4b5ea5714610692578063c3cda520146106a5575f80fd5b80637ecebe00116101275780638da5cb5b1161010d5780638da5cb5b1461062557806395d89b4114610643578063a9059cbb1461067f575f80fd5b80637ecebe00146105fe5780638129fc1c1461061d575f80fd5b80636fcfff451461054957806370a0823114610583578063715018a6146105c6578063782d6fe1146105ce575f80fd5b806330adf81f116101e757806342966c68116101b757806351b071801161019d57806351b07180146104e2578063587cde1e146105015780635c19a95c14610536575f80fd5b806342966c68146104a25780634823838d146104b5575f80fd5b806330adf81f14610406578063313ce5671461042d5780633f5af2441461044757806340c10f191461048f575f80fd5b806310c194211161023c57806320606b701161022257806320606b701461035a57806323b872dd146103815780632477c6e814610394575f80fd5b806310c194211461034857806318160ddd14610351575f80fd5b806306fdde031461026d57806307546172146102bf578063095ea7b3146103045780630b1b72f214610327575b5f80fd5b6102a96040518060400160405280600d81526020017f507573682050726f746f636f6c0000000000000000000000000000000000000081525081565b6040516102b69190613076565b60405180910390f35b6067546102df9073ffffffffffffffffffffffffffffffffffffffff1681565b60405173ffffffffffffffffffffffffffffffffffffffff90911681526020016102b6565b610317610312366004613107565b610801565b60405190151581526020016102b6565b61033a610335366004613107565b6108f8565b6040519081526020016102b6565b61033a60665481565b61033a60655481565b61033a7f8cad95687ba82c2ce50e74f7b754645e5117c3a5bec8151c0726d5857980a86681565b61031761038f36600461312f565b610984565b6104046103a2366004613168565b335f908152606b6020908152604080832073ffffffffffffffffffffffffffffffffffffffff9590951683529390529190912080547fffffffffffffffffffffffffffffffffffffffffffffffffffffffffffffff0016911515919091179055565b005b61033a7f6e71edae12b1b97f4d1f60370fef10105fa2faae0126114a169c64845d6126c981565b610435601281565b60405160ff90911681526020016102b6565b6103176104553660046131a1565b73ffffffffffffffffffffffffffffffffffffffff9182165f908152606b6020908152604080832093909416825291909152205460ff1690565b61040461049d366004613107565b610b21565b6104046104b03660046131d2565b610df6565b6103176104c33660046131a1565b606b60209081525f928352604080842090915290825290205460ff1681565b61033a6104f03660046131e9565b606a6020525f908152604090205481565b6102df61050f3660046131e9565b606c6020525f908152604090205473ffffffffffffffffffffffffffffffffffffffff1681565b6104046105443660046131e9565b610f2f565b61056e6105573660046131e9565b606e6020525f908152604090205463ffffffff1681565b60405163ffffffff90911681526020016102b6565b61033a6105913660046131e9565b73ffffffffffffffffffffffffffffffffffffffff165f908152606960205260409020546bffffffffffffffffffffffff1690565b610404610f3c565b6105e16105dc366004613107565b610f4f565b6040516bffffffffffffffffffffffff90911681526020016102b6565b61033a61060c3660046131e9565b606f6020525f908152604090205481565b610404611237565b60335473ffffffffffffffffffffffffffffffffffffffff166102df565b6102a96040518060400160405280600481526020017f505553480000000000000000000000000000000000000000000000000000000081525081565b61031761068d366004613107565b6113c6565b6105e16106a03660046131e9565b611401565b6104046106b3366004613212565b61149a565b6104046106c6366004613266565b6118ab565b61033a6a52b7d2dcc80cd2e400000081565b61033a6106eb3660046131a1565b73ffffffffffffffffffffffffffffffffffffffff9182165f9081526068602090815260408083209390941682529190915220546bffffffffffffffffffffffff1690565b61033a7fe48329057bfd03d55e49b547132e39cffd9c1820ad7b9d4c5307691425d15adf81565b61079f6107653660046132cb565b606d60209081525f928352604080842090915290825290205463ffffffff81169064010000000090046bffffffffffffffffffffffff1682565b6040805163ffffffff90931683526bffffffffffffffffffffffff9091166020830152016102b6565b6104046107d63660046131e9565b611e0a565b6104046107e93660046131e9565b611f6c565b6104046107fc3660046131e9565b612020565b5f806bffffffffffffffffffffffff831061082957506bffffffffffffffffffffffff61084e565b61084b83604051806060016040528060258152602001613702602591396120e3565b90505b335f81815260686020908152604080832073ffffffffffffffffffffffffffffffffffffffff89168085529083529281902080547fffffffffffffffffffffffffffffffffffffffff000000000000000000000000166bffffffffffffffffffffffff871690811790915590519081529192917f8c5be1e5ebec7d5bd14f71427d1e84f3dd0314c0f7b2291e5b200ac8c7c3b925910160405180910390a360019150505b92915050565b73ffffffffffffffffffffffffffffffffffffffff82165f90815260696020908152604080832054606a835281842054825160808101909352604480845261097d946bffffffffffffffffffffffff9093169361095f938893929061378b90830139612134565b6040518060600160405280603081526020016134e460309139612186565b9392505050565b73ffffffffffffffffffffffffffffffffffffffff83165f9081526068602090815260408083203380855290835281842054825160608101909352602580845291936bffffffffffffffffffffffff9091169285926109ed9288929190613702908301396120e3565b90508673ffffffffffffffffffffffffffffffffffffffff168373ffffffffffffffffffffffffffffffffffffffff1614158015610a3957506bffffffffffffffffffffffff82811614155b15610b09575f610a6283836040518060600160405280603d8152602001613727603d91396121f0565b73ffffffffffffffffffffffffffffffffffffffff8981165f818152606860209081526040808320948a168084529482529182902080547fffffffffffffffffffffffffffffffffffffffff000000000000000000000000166bffffffffffffffffffffffff87169081179091559151918252939450919290917f8c5be1e5ebec7d5bd14f71427d1e84f3dd0314c0f7b2291e5b200ac8c7c3b925910160405180910390a3505b610b1487878361225d565b5060019695505050505050565b60675473ffffffffffffffffffffffffffffffffffffffff163314610b79576040517f5fb5729e0000000000000000000000000000000000000000000000000000000081523360048201526024015b60405180910390fd5b73ffffffffffffffffffffffffffffffffffffffff8216610c1c576040517f08c379a000000000000000000000000000000000000000000000000000000000815260206004820152603260248201527f507573683a3a6d696e743a2063616e6e6f74206d696e7420746f6b656e73207460448201527f6f20746865207a65726f206164647265737300000000000000000000000000006064820152608401610b70565b5f610c3f8260405180606001604052806022815260200161348c602291396120e3565b90505f816bffffffffffffffffffffffff16606554610c5e919061332a565b90506a52b7d2dcc80cd2e4000000811115610cfb576040517f08c379a000000000000000000000000000000000000000000000000000000000815260206004820152602860248201527f507573683a3a6d696e743a20746f74616c20737570706c79206578636565647360448201527f204d4158204341500000000000000000000000000000000000000000000000006064820152608401610b70565b73ffffffffffffffffffffffffffffffffffffffff84165f90815260696020908152604091829020548251606081019093526021808452610d57936bffffffffffffffffffffffff909216928692919061354f90830139612576565b73ffffffffffffffffffffffffffffffffffffffff85165f81815260696020908152604080832080547fffffffffffffffffffffffffffffffffffffffff000000000000000000000000166bffffffffffffffffffffffff9687161790556065869055519386168452919290917fddf252ad1be2c89b69c2b068fc378daa952ba7f163c4a11628f55a4df523b3ef91015b60405180910390a350505050565b335f8181526069602090815260408083205481516060810190925260228083526bffffffffffffffffffffffff9091169392610e3c9287929091613610908301396120e3565b9050610e618282604051806060016040528060278152602001613764602791396121f0565b73ffffffffffffffffffffffffffffffffffffffff84165f90815260696020526040812080547fffffffffffffffffffffffffffffffffffffffff000000000000000000000000166bffffffffffffffffffffffff9384161790556065805492841692909190610ed290849061333d565b90915550506040516bffffffffffffffffffffffff821681525f9073ffffffffffffffffffffffffffffffffffffffff8516907fddf252ad1be2c89b69c2b068fc378daa952ba7f163c4a11628f55a4df523b3ef90602001610de8565b610f3933826125dd565b50565b610f44612690565b610f4d5f612711565b565b5f438210610fdf576040517f08c379a000000000000000000000000000000000000000000000000000000000815260206004820152602760248201527f507573683a3a6765745072696f72566f7465733a206e6f74207965742064657460448201527f65726d696e6564000000000000000000000000000000000000000000000000006064820152608401610b70565b73ffffffffffffffffffffffffffffffffffffffff83165f908152606e602052604081205463ffffffff169081900361101b575f9150506108f2565b73ffffffffffffffffffffffffffffffffffffffff84165f908152606d602052604081208161104b600185613350565b63ffffffff908116825260208083019390935260409182015f208251808401909352549081168083526401000000009091046bffffffffffffffffffffffff1692820192909252915084106110a7576020015191506108f29050565b73ffffffffffffffffffffffffffffffffffffffff85165f908152606d6020908152604080832083805290915290205463ffffffff168410156110ee575f925050506108f2565b5f806110fb600185613350565b90505b8163ffffffff168163ffffffff1611156111df575f600261111f8484613350565b61112991906133a1565b6111339083613350565b73ffffffffffffffffffffffffffffffffffffffff89165f908152606d6020908152604080832063ffffffff8581168552908352928190208151808301909252549283168082526401000000009093046bffffffffffffffffffffffff16918101919091529192508890036111b3576020015195506108f2945050505050565b805163ffffffff168811156111ca578193506111d8565b6111d5600183613350565b92505b50506110fe565b5073ffffffffffffffffffffffffffffffffffffffff86165f908152606d6020908152604080832063ffffffff909416835292905220546bffffffffffffffffffffffff640100000000909104169250505092915050565b5f54610100900460ff161580801561125557505f54600160ff909116105b8061126e5750303b15801561126e57505f5460ff166001145b6112fa576040517f08c379a000000000000000000000000000000000000000000000000000000000815260206004820152602e60248201527f496e697469616c697a61626c653a20636f6e747261637420697320616c72656160448201527f647920696e697469616c697a65640000000000000000000000000000000000006064820152608401610b70565b5f80547fffffffffffffffffffffffffffffffffffffffffffffffffffffffffffffff001660011790558015611356575f80547fffffffffffffffffffffffffffffffffffffffffffffffffffffffffffff00ff166101001790555b43606655611362612787565b8015610f39575f80547fffffffffffffffffffffffffffffffffffffffffffffffffffffffffffff00ff169055604051600181527f7f26b83ff96e1f2b6a682f133852f6798a09c465da95921460cefb38474024989060200160405180910390a150565b5f806113ea836040518060600160405280602681526020016137f6602691396120e3565b90506113f733858361225d565b5060019392505050565b73ffffffffffffffffffffffffffffffffffffffff81165f908152606e602052604081205463ffffffff1680611437575f61097d565b73ffffffffffffffffffffffffffffffffffffffff83165f908152606d6020526040812090611467600184613350565b63ffffffff16815260208101919091526040015f205464010000000090046bffffffffffffffffffffffff169392505050565b604080518082018252600d81527f507573682050726f746f636f6c0000000000000000000000000000000000000060209182015281517f8cad95687ba82c2ce50e74f7b754645e5117c3a5bec8151c0726d5857980a866818301527fc69e90ea3aa936ce367d6b0c0d2b45a928da9802430c5b699f9fa75a5e519a7481840152466060820152306080808301919091528351808303909101815260a0820184528051908301207fe48329057bfd03d55e49b547132e39cffd9c1820ad7b9d4c5307691425d15adf60c083015273ffffffffffffffffffffffffffffffffffffffff8a1660e08301526101008201899052610120808301899052845180840390910181526101408301909452835193909201929092207f19010000000000000000000000000000000000000000000000000000000000006101608401526101628301829052610182830181905290915f906101a201604080517fffffffffffffffffffffffffffffffffffffffffffffffffffffffffffffffe081840301815282825280516020918201205f80855291840180845281905260ff8a169284019290925260608301889052608083018790529092509060019060a0016020604051602081039080840390855afa158015611674573d5f803e3d5ffd5b50506040517fffffffffffffffffffffffffffffffffffffffffffffffffffffffffffffffe0015191505073ffffffffffffffffffffffffffffffffffffffff8116611742576040517f08c379a000000000000000000000000000000000000000000000000000000000815260206004820152602660248201527f507573683a3a64656c656761746542795369673a20696e76616c69642073696760448201527f6e617475726500000000000000000000000000000000000000000000000000006064820152608401610b70565b73ffffffffffffffffffffffffffffffffffffffff81165f908152606f60205260408120805491611772836133c3565b919050558914611804576040517f08c379a000000000000000000000000000000000000000000000000000000000815260206004820152602260248201527f507573683a3a64656c656761746542795369673a20696e76616c6964206e6f6e60448201527f63650000000000000000000000000000000000000000000000000000000000006064820152608401610b70565b87421115611894576040517f08c379a000000000000000000000000000000000000000000000000000000000815260206004820152602660248201527f507573683a3a64656c656761746542795369673a207369676e6174757265206560448201527f78706972656400000000000000000000000000000000000000000000000000006064820152608401610b70565b61189e818b6125dd565b505050505b505050505050565b5f7fffffffffffffffffffffffffffffffffffffffffffffffffffffffffffffffff86036118e657506bffffffffffffffffffffffff61190b565b6119088660405180606001604052806024815260200161381c602491396120e3565b90505b604080518082018252600d81527f507573682050726f746f636f6c0000000000000000000000000000000000000060209182015281517f8cad95687ba82c2ce50e74f7b754645e5117c3a5bec8151c0726d5857980a866818301527fc69e90ea3aa936ce367d6b0c0d2b45a928da9802430c5b699f9fa75a5e519a7481840152466060820152306080808301919091528351808303909101815260a0909101835280519082012073ffffffffffffffffffffffffffffffffffffffff8b165f908152606f90925291812080547f6e71edae12b1b97f4d1f60370fef10105fa2faae0126114a169c64845d6126c9918c918c918c919086611a0a836133c3565b9091555060408051602081019690965273ffffffffffffffffffffffffffffffffffffffff94851690860152929091166060840152608083015260a082015260c0810188905260e0016040516020818303038152906040528051906020012090505f8282604051602001611ab09291907f190100000000000000000000000000000000000000000000000000000000000081526002810192909252602282015260420190565b604080517fffffffffffffffffffffffffffffffffffffffffffffffffffffffffffffffe081840301815282825280516020918201205f80855291840180845281905260ff8b169284019290925260608301899052608083018890529092509060019060a0016020604051602081039080840390855afa158015611b36573d5f803e3d5ffd5b50506040517fffffffffffffffffffffffffffffffffffffffffffffffffffffffffffffffe0015191505073ffffffffffffffffffffffffffffffffffffffff8116611bde576040517f08c379a000000000000000000000000000000000000000000000000000000000815260206004820152601f60248201527f507573683a3a7065726d69743a20696e76616c6964207369676e6174757265006044820152606401610b70565b8b73ffffffffffffffffffffffffffffffffffffffff168173ffffffffffffffffffffffffffffffffffffffff1614611c73576040517f08c379a000000000000000000000000000000000000000000000000000000000815260206004820152601a60248201527f507573683a3a7065726d69743a20756e617574686f72697a65640000000000006044820152606401610b70565b88421115611cdd576040517f08c379a000000000000000000000000000000000000000000000000000000000815260206004820152601f60248201527f507573683a3a7065726d69743a207369676e61747572652065787069726564006044820152606401610b70565b8460685f8e73ffffffffffffffffffffffffffffffffffffffff1673ffffffffffffffffffffffffffffffffffffffff1681526020019081526020015f205f8d73ffffffffffffffffffffffffffffffffffffffff1673ffffffffffffffffffffffffffffffffffffffff1681526020019081526020015f205f6101000a8154816bffffffffffffffffffffffff02191690836bffffffffffffffffffffffff1602179055508a73ffffffffffffffffffffffffffffffffffffffff168c73ffffffffffffffffffffffffffffffffffffffff167f8c5be1e5ebec7d5bd14f71427d1e84f3dd0314c0f7b2291e5b200ac8c7c3b92587604051611df491906bffffffffffffffffffffffff91909116815260200190565b60405180910390a3505050505050505050505050565b73ffffffffffffffffffffffffffffffffffffffff81165f908152606b6020908152604080832033845290915290205460ff16151560011480611e62575073ffffffffffffffffffffffffffffffffffffffff811633145b611eee576040517f08c379a000000000000000000000000000000000000000000000000000000000815260206004820152602560248201527f507573683a3a7265736574486f6c6465725765696768743a20756e617574686f60448201527f72697a65640000000000000000000000000000000000000000000000000000006064820152608401610b70565b73ffffffffffffffffffffffffffffffffffffffff81165f818152606a60209081526040808320439081905560698352928190205481516bffffffffffffffffffffffff9091168152918201929092527f7ffd5ecbf13a4814c06acbd9d31dff13c728c3936046c339e8053a8c26b38bb5910160405180910390a250565b611f74612690565b73ffffffffffffffffffffffffffffffffffffffff8116612017576040517f08c379a000000000000000000000000000000000000000000000000000000000815260206004820152602660248201527f4f776e61626c653a206e6577206f776e657220697320746865207a65726f206160448201527f64647265737300000000000000000000000000000000000000000000000000006064820152608401610b70565b610f3981612711565b612028612690565b73ffffffffffffffffffffffffffffffffffffffff8116612075576040517f04a208c700000000000000000000000000000000000000000000000000000000815260040160405180910390fd5b606780547fffffffffffffffffffffffff00000000000000000000000000000000000000001673ffffffffffffffffffffffffffffffffffffffff83169081179091556040517f6adffd5c93085d835dac6f3b40adf7c242ca4b3284048d20c3d8a501748dc973905f90a250565b5f816c01000000000000000000000000841061212c576040517f08c379a0000000000000000000000000000000000000000000000000000000008152600401610b709190613076565b509192915050565b5f8184841115612171576040517f08c379a0000000000000000000000000000000000000000000000000000000008152600401610b709190613076565b505f61217d848661333d565b95945050505050565b5f835f0361219557505f61097d565b5f6121a084866133fa565b9050836121ad8683613411565b1483906121e7576040517f08c379a0000000000000000000000000000000000000000000000000000000008152600401610b709190613076565b50949350505050565b5f836bffffffffffffffffffffffff16836bffffffffffffffffffffffff161115829061224a576040517f08c379a0000000000000000000000000000000000000000000000000000000008152600401610b709190613076565b506122558385613424565b949350505050565b73ffffffffffffffffffffffffffffffffffffffff8316612300576040517f08c379a000000000000000000000000000000000000000000000000000000000815260206004820152603c60248201527f507573683a3a5f7472616e73666572546f6b656e733a2063616e6e6f7420747260448201527f616e736665722066726f6d20746865207a65726f2061646472657373000000006064820152608401610b70565b73ffffffffffffffffffffffffffffffffffffffff82166123a3576040517f08c379a000000000000000000000000000000000000000000000000000000000815260206004820152603a60248201527f507573683a3a5f7472616e73666572546f6b656e733a2063616e6e6f7420747260448201527f616e7366657220746f20746865207a65726f20616464726573730000000000006064820152608401610b70565b6123ae838383612825565b73ffffffffffffffffffffffffffffffffffffffff83165f9081526069602090815260409182902054825160608101909352603680845261240a936bffffffffffffffffffffffff90921692859291906135da908301396121f0565b73ffffffffffffffffffffffffffffffffffffffff8481165f90815260696020908152604080832080547fffffffffffffffffffffffffffffffffffffffff000000000000000000000000166bffffffffffffffffffffffff96871617905592861682529082902054825160608101909352603080845261249b94919091169285929091906135aa90830139612576565b73ffffffffffffffffffffffffffffffffffffffff8381165f8181526069602090815260409182902080547fffffffffffffffffffffffffffffffffffffffff000000000000000000000000166bffffffffffffffffffffffff968716179055905193851684529092918616917fddf252ad1be2c89b69c2b068fc378daa952ba7f163c4a11628f55a4df523b3ef910160405180910390a373ffffffffffffffffffffffffffffffffffffffff8084165f908152606c602052604080822054858416835291205461257192918216911683612a75565b505050565b5f806125828486613449565b9050846bffffffffffffffffffffffff16816bffffffffffffffffffffffff16101583906121e7576040517f08c379a0000000000000000000000000000000000000000000000000000000008152600401610b709190613076565b73ffffffffffffffffffffffffffffffffffffffff8083165f818152606c6020818152604080842080546069845282862054949093528787167fffffffffffffffffffffffff000000000000000000000000000000000000000084168117909155905191909516946bffffffffffffffffffffffff9092169391928592917f3134e8a2e6d97e929a7e54011ea5485d7d196dd5f0ba4d4ef95803e8e3fc257f9190a461268a828483612a75565b50505050565b60335473ffffffffffffffffffffffffffffffffffffffff163314610f4d576040517f08c379a000000000000000000000000000000000000000000000000000000000815260206004820181905260248201527f4f776e61626c653a2063616c6c6572206973206e6f7420746865206f776e65726044820152606401610b70565b6033805473ffffffffffffffffffffffffffffffffffffffff8381167fffffffffffffffffffffffff0000000000000000000000000000000000000000831681179093556040519116919082907f8be0079c531659141344cd1fd0a4f28419497f9722a3daafe3b4186f6b6457e0905f90a35050565b5f54610100900460ff1661281d576040517f08c379a000000000000000000000000000000000000000000000000000000000815260206004820152602b60248201527f496e697469616c697a61626c653a20636f6e7472616374206973206e6f74206960448201527f6e697469616c697a696e670000000000000000000000000000000000000000006064820152608401610b70565b610f4d612c8f565b73ffffffffffffffffffffffffffffffffffffffff82165f908152606960205260408120546bffffffffffffffffffffffff16908190036128945773ffffffffffffffffffffffffffffffffffffffff8085165f908152606a602052604080822054928616825290205561268a565b5f612903606a5f8673ffffffffffffffffffffffffffffffffffffffff1673ffffffffffffffffffffffffffffffffffffffff1681526020019081526020015f2054836bffffffffffffffffffffffff166040518060600160405280603b815260200161369f603b9139612186565b90505f612974606a5f8873ffffffffffffffffffffffffffffffffffffffff1673ffffffffffffffffffffffffffffffffffffffff1681526020019081526020015f2054856bffffffffffffffffffffffff166040518060600160405280603b8152602001613514603b9139612186565b90505f61299a83836040518060600160405280603681526020016134ae60369139612d2e565b90505f6129dc856bffffffffffffffffffffffff16876bffffffffffffffffffffffff1660405180606001604052806036815260200161384060369139612d2e565b90505f6129f982600260405180602001604052805f815250612d78565b90505f612a1f848360405180606001604052806039815260200161363260399139612d2e565b9050612a4481846040518060600160405280603a8152602001613570603a9139612d78565b73ffffffffffffffffffffffffffffffffffffffff8a165f908152606a602052604090205550505050505050505050565b8173ffffffffffffffffffffffffffffffffffffffff168373ffffffffffffffffffffffffffffffffffffffff1614158015612abe57505f816bffffffffffffffffffffffff16115b156125715773ffffffffffffffffffffffffffffffffffffffff831615612bab5773ffffffffffffffffffffffffffffffffffffffff83165f908152606e602052604081205463ffffffff169081612b16575f612b73565b73ffffffffffffffffffffffffffffffffffffffff85165f908152606d6020526040812090612b46600185613350565b63ffffffff16815260208101919091526040015f205464010000000090046bffffffffffffffffffffffff165b90505f612b9982856040518060600160405280602881526020016136da602891396121f0565b9050612ba786848484612dbe565b5050505b73ffffffffffffffffffffffffffffffffffffffff8216156125715773ffffffffffffffffffffffffffffffffffffffff82165f908152606e602052604081205463ffffffff169081612bfe575f612c5b565b73ffffffffffffffffffffffffffffffffffffffff84165f908152606d6020526040812090612c2e600185613350565b63ffffffff16815260208101919091526040015f205464010000000090046bffffffffffffffffffffffff165b90505f612c8182856040518060600160405280602781526020016137cf60279139612576565b90506118a385848484612dbe565b5f54610100900460ff16612d25576040517f08c379a000000000000000000000000000000000000000000000000000000000815260206004820152602b60248201527f496e697469616c697a61626c653a20636f6e7472616374206973206e6f74206960448201527f6e697469616c697a696e670000000000000000000000000000000000000000006064820152608401610b70565b610f4d33612711565b5f80612d3a848661332a565b905082858210156121e7576040517f08c379a0000000000000000000000000000000000000000000000000000000008152600401610b709190613076565b5f8183612db2576040517f08c379a0000000000000000000000000000000000000000000000000000000008152600401610b709190613076565b505f61217d8486613411565b5f612de14360405180606001604052806034815260200161366b60349139613039565b90505f8463ffffffff16118015612e45575073ffffffffffffffffffffffffffffffffffffffff85165f908152606d6020526040812063ffffffff831691612e2a600188613350565b63ffffffff908116825260208201929092526040015f205416145b15612ed95773ffffffffffffffffffffffffffffffffffffffff85165f908152606d602052604081208391612e7b600188613350565b63ffffffff16815260208101919091526040015f2080546bffffffffffffffffffffffff92909216640100000000027fffffffffffffffffffffffffffffffff000000000000000000000000ffffffff909216919091179055612fd2565b60408051808201825263ffffffff80841682526bffffffffffffffffffffffff808616602080850191825273ffffffffffffffffffffffffffffffffffffffff8b165f908152606d82528681208b8616825290915294909420925183549451909116640100000000027fffffffffffffffffffffffffffffffff00000000000000000000000000000000909416911617919091179055612f7a84600161346e565b73ffffffffffffffffffffffffffffffffffffffff86165f908152606e6020526040902080547fffffffffffffffffffffffffffffffffffffffffffffffffffffffff000000001663ffffffff929092169190911790555b604080516bffffffffffffffffffffffff80861682528416602082015273ffffffffffffffffffffffffffffffffffffffff8716917fdec2bacdd2f05b59de34da9b523dff8be42e5e38e818c82fdb0bae774387a724910160405180910390a25050505050565b5f81640100000000841061212c576040517f08c379a0000000000000000000000000000000000000000000000000000000008152600401610b7091905b5f6020808352835180828501525f5b818110156130a157858101830151858201604001528201613085565b505f6040828601015260407fffffffffffffffffffffffffffffffffffffffffffffffffffffffffffffffe0601f8301168501019250505092915050565b803573ffffffffffffffffffffffffffffffffffffffff81168114613102575f80fd5b919050565b5f8060408385031215613118575f80fd5b613121836130df565b946020939093013593505050565b5f805f60608486031215613141575f80fd5b61314a846130df565b9250613158602085016130df565b9150604084013590509250925092565b5f8060408385031215613179575f80fd5b613182836130df565b915060208301358015158114613196575f80fd5b809150509250929050565b5f80604083850312156131b2575f80fd5b6131bb836130df565b91506131c9602084016130df565b90509250929050565b5f602082840312156131e2575f80fd5b5035919050565b5f602082840312156131f9575f80fd5b61097d826130df565b803560ff81168114613102575f80fd5b5f805f805f8060c08789031215613227575f80fd5b613230876130df565b9550602087013594506040870135935061324c60608801613202565b92506080870135915060a087013590509295509295509295565b5f805f805f805f60e0888a03121561327c575f80fd5b613285886130df565b9650613293602089016130df565b955060408801359450606088013593506132af60808901613202565b925060a0880135915060c0880135905092959891949750929550565b5f80604083850312156132dc575f80fd5b6132e5836130df565b9150602083013563ffffffff81168114613196575f80fd5b7f4e487b71000000000000000000000000000000000000000000000000000000005f52601160045260245ffd5b808201808211156108f2576108f26132fd565b818103818111156108f2576108f26132fd565b63ffffffff82811682821603908082111561336d5761336d6132fd565b5092915050565b7f4e487b71000000000000000000000000000000000000000000000000000000005f52601260045260245ffd5b5f63ffffffff808416806133b7576133b7613374565b92169190910492915050565b5f7fffffffffffffffffffffffffffffffffffffffffffffffffffffffffffffffff82036133f3576133f36132fd565b5060010190565b80820281158282048414176108f2576108f26132fd565b5f8261341f5761341f613374565b500490565b6bffffffffffffffffffffffff82811682821603908082111561336d5761336d6132fd565b6bffffffffffffffffffffffff81811683821601908082111561336d5761336d6132fd565b63ffffffff81811683821601908082111561336d5761336d6132fd56fe507573683a3a6d696e743a20616d6f756e7420657863656564732039362062697473507573683a3a5f61646a757374486f6c6465725765696768743a20746f74616c20776569676874206578636565646564206c696d6974507573683a3a72657475726e486f6c646572556e6974733a20726174696f2065786365656473206d61782072616e6765507573683a3a5f61646a757374486f6c6465725765696768743a20686f6c6465722073726320776569676874206578636565646564206c696d6974507573683a3a6d696e743a206d696e7420616d6f756e74206f766572666c6f7773507573683a3a5f61646a757374486f6c6465725765696768743a2061646a757374656420686f6c646572206e6567617469766520646976696465507573683a3a5f7472616e73666572546f6b656e733a207472616e7366657220616d6f756e74206f766572666c6f7773507573683a3a5f7472616e73666572546f6b656e733a207472616e7366657220616d6f756e7420657863656564732062616c616e6365507573683a3a6275726e3a20616d6f756e7420657863656564732039362062697473507573683a3a5f61646a757374486f6c6465725765696768743a20726f756e6420757020616d6f756e74206578636565646564206c696d6974507573683a3a5f7772697465436865636b706f696e743a20626c6f636b206e756d62657220657863656564732033322062697473507573683a3a5f61646a757374486f6c6465725765696768743a20686f6c6465722064737420776569676874206578636565646564206c696d6974507573683a3a5f6d6f7665566f7465733a20766f746520616d6f756e7420756e646572666c6f7773507573683a3a617070726f76653a20616d6f756e7420657863656564732039362062697473507573683a3a7472616e7366657246726f6d3a207472616e7366657220616d6f756e742065786365656473207370656e64657220616c6c6f77616e6365507573683a3a6275726e3a206275726e20616d6f756e7420657863656564732062616c616e6365507573683a3a72657475726e486f6c646572556e6974733a206174426c6f636b2073686f756c642062652067726561746572207468616e20686f6c646572576569676874507573683a3a5f6d6f7665566f7465733a20766f746520616d6f756e74206f766572666c6f7773507573683a3a7472616e736665723a20616d6f756e7420657863656564732039362062697473507573683a3a7065726d69743a20616d6f756e7420657863656564732039362062697473507573683a3a5f61646a757374486f6c6465725765696768743a20746f74616c20616d6f756e74206578636565646564206c696d6974a2646970667358221220ac56dd0dfd308792691088043a4ec7bc28254a32d6a436ddb4839d04d9a93d7264736f6c63430008140033","linkReferences":{}},"methodIdentifiers":{"DELEGATION_TYPEHASH()":"e7a324dc","DOMAIN_TYPEHASH()":"20606b70","PERMIT_TYPEHASH()":"30adf81f","allowance(address,address)":"dd62ed3e","approve(address,uint256)":"095ea7b3","balanceOf(address)":"70a08231","born()":"10c19421","burn(uint256)":"42966c68","checkpoints(address,uint32)":"f1127ed8","decimals()":"313ce567","delegate(address)":"5c19a95c","delegateBySig(address,uint256,uint256,uint8,bytes32,bytes32)":"c3cda520","delegates(address)":"587cde1e","getCurrentVotes(address)":"b4b5ea57","getPriorVotes(address,uint256)":"782d6fe1","holderDelegation(address,address)":"4823838d","holderWeight(address)":"51b07180","initialize()":"8129fc1c","maxSupply()":"d5abeb01","mint(address,uint256)":"40c10f19","minter()":"07546172","name()":"06fdde03","nonces(address)":"7ecebe00","numCheckpoints(address)":"6fcfff45","owner()":"8da5cb5b","permit(address,address,uint256,uint256,uint8,bytes32,bytes32)":"d505accf","renounceOwnership()":"715018a6","resetHolderWeight(address)":"f18365d9","returnHolderDelegation(address,address)":"3f5af244","returnHolderUnits(address,uint256)":"0b1b72f2","setHolderDelegation(address,bool)":"2477c6e8","setMinter(address)":"fca3b5aa","symbol()":"95d89b41","totalSupply()":"18160ddd","transfer(address,uint256)":"a9059cbb","transferFrom(address,address,uint256)":"23b872dd","transferOwnership(address)":"f2fde38b"},"id":34}