{"abi":[{"type":"constructor","inputs":[],"stateMutability":"nonpayable"},{"type":"function","name":"burnOldTokens","inputs":[{"name":"_amount","type":"uint256","internalType":"uint256"}],"outputs":[],"stateMutability":"nonpayable"},{"type":"function","name":"initialize","inputs":[{"name":"_owner","type":"address","internalType":"address"},{"name":"_oldToken","type":"address","internalType":"address"}],"outputs":[],"stateMutability":"nonpayable"},{"type":"function","name":"migratePushTokens","inputs":[{"name":"_amount","type":"uint256","internalType":"uint256"}],"outputs":[],"stateMutability":"nonpayable"},{"type":"function","name":"migratePushTokensTo","inputs":[{"name":"_recipient","type":"address","internalType":"address"},{"name":"_amount","type":"uint256","internalType":"uint256"}],"outputs":[],"stateMutability":"nonpayable"},{"type":"function","name":"newPushToken","inputs":[],"outputs":[{"name":"","type":"address","internalType":"contract IERC20"}],"stateMutability":"view"},{"type":"function","name":"oldPushToken","inputs":[],"outputs":[{"name":"","type":"address","internalType":"contract IERC20"}],"stateMutability":"view"},{"type":"function","name":"owner","inputs":[],"outputs":[{"name":"","type":"address","internalType":"address"}],"stateMutability":"view"},{"type":"function","name":"pauseContract","inputs":[],"outputs":[],"stateMutability":"nonpayable"},{"type":"function","name":"paused","inputs":[],"outputs":[{"name":"","type":"bool","internalType":"bool"}],"stateMutability":"view"},{"type":"function","name":"renounceOwnership","inputs":[],"outputs":[],"stateMutability":"nonpayable"},{"type":"function","name":"setNewPushToken","inputs":[{"name":"_newToken","type":"address","internalType":"address"}],"outputs":[],"stateMutability":"nonpayable"},{"type":"function","name":"toggleUnMigrationStatus","inputs":[{"name":"_unMigrationFlag","type":"bool","internalType":"bool"}],"outputs":[],"stateMutability":"nonpayable"},{"type":"function","name":"transferOwnership","inputs":[{"name":"newOwner","type":"address","internalType":"address"}],"outputs":[],"stateMutability":"nonpayable"},{"type":"function","name":"unMigrationPaused","inputs":[],"outputs":[{"name":"","type":"bool","internalType":"bool"}],"stateMutability":"view"},{"type":"function","name":"unPauseContract","inputs":[],"outputs":[],"stateMutability":"nonpayable"},{"type":"function","name":"unmigratePushTokens","inputs":[{"name":"_amount","type":"uint256","internalType":"uint256"}],"outputs":[],"stateMutability":"nonpayable"},{"type":"event","name":"Initialized","inputs":[{"name":"version","type":"uint8","indexed":false,"internalType":"uint8"}],"anonymous":false},{"type":"event","name":"NewPushTokenUpdated","inputs":[{"name":"_newTokenAddress","type":"address","indexed":true,"internalType":"address"}],"anonymous":false},{"type":"event","name":"OwnershipTransferred","inputs":[{"name":"previousOwner","type":"address","indexed":true,"internalType":"address"},{"name":"newOwner","type":"address","indexed":true,"internalType":"address"}],"anonymous":false},{"type":"event","name":"Paused","inputs":[{"name":"account","type":"address","indexed":false,"internalType":"address"}],"anonymous":false},{"type":"event","name":"TokenMigrated","inputs":[{"name":"_tokenHolder","type":"address","indexed":true,"internalType":"address"},{"name":"_tokenReceiver","type":"address","indexed":true,"internalType":"address"},{"name":"_amountMigrated","type":"uint256","indexed":false,"internalType":"uint256"}],"anonymous":false},{"type":"event","name":"TokenUnmigrated","inputs":[{"name":"_tokenHolder","type":"address","indexed":true,"internalType":"address"},{"name":"_amountUnmigrated","type":"uint256","indexed":false,"internalType":"uint256"}],"anonymous":false},{"type":"event","name":"TokenUnmigrationStatusUpdated","inputs":[{"name":"_status","type":"bool","indexed":false,"internalType":"bool"}],"anonymous":false},{"type":"event","name":"Unpaused","inputs":[{"name":"account","type":"address","indexed":false,"internalType":"address"}],"anonymous":false},{"type":"error","name":"InvalidArgument_WrongAddress","inputs":[{"name":"user","type":"address","internalType":"address"}]},{"type":"error","name":"UnmigrationPaused","inputs":[]}],"bytecode":{"object":"0x608060405234801561000f575f80fd5b5061001861001d565b6100d9565b5f54610100900460ff16156100885760405162461bcd60e51b815260206004820152602760248201527f496e697469616c697a61626c653a20636f6e747261637420697320696e697469604482015266616c697a696e6760c81b606482015260840160405180910390fd5b5f5460ff908116146100d7575f805460ff191660ff9081179091556040519081527f7f26b83ff96e1f2b6a682f133852f6798a09c465da95921460cefb38474024989060200160405180910390a15b565b611348806100e65f395ff3fe608060405234801561000f575f80fd5b50600436106100fb575f3560e01c80638da5cb5b11610093578063e0f4b35311610063578063e0f4b3531461021c578063f2fde38b1461023c578063f7061d0c1461024f578063f954deb214610262575f80fd5b80638da5cb5b146101d0578063a3efee30146101ee578063a581589914610201578063bac1520314610214575f80fd5b80635c975abb116100ce5780635c975abb14610179578063715018a6146101905780637e96c3c8146101985780637fdb3100146101bd575f80fd5b80633821b6fc146100ff578063439766ce14610114578063485cc9551461011c5780634b4ddd551461012f575b5f80fd5b61011261010d36600461118a565b610275565b005b6101126102a6565b61011261012a3660046111c9565b6102b8565b60985461014f9073ffffffffffffffffffffffffffffffffffffffff1681565b60405173ffffffffffffffffffffffffffffffffffffffff90911681526020015b60405180910390f35b60655460ff165b6040519015158152602001610170565b61011261048b565b6098546101809074010000000000000000000000000000000000000000900460ff1681565b6101126101cb366004611207565b61049c565b60335473ffffffffffffffffffffffffffffffffffffffff1661014f565b6101126101fc366004611229565b610528565b61011261020f36600461118a565b61062f565b6101126106ba565b60975461014f9073ffffffffffffffffffffffffffffffffffffffff1681565b61011261024a366004611251565b6106ca565b61011261025d366004611251565b61077e565b61011261027036600461118a565b61087d565b61027d610953565b6097546102a39073ffffffffffffffffffffffffffffffffffffffff1661dead836109d4565b50565b6102ae610953565b6102b6610aa8565b565b5f54610100900460ff16158080156102d657505f54600160ff909116105b806102ef5750303b1580156102ef57505f5460ff166001145b610380576040517f08c379a000000000000000000000000000000000000000000000000000000000815260206004820152602e60248201527f496e697469616c697a61626c653a20636f6e747261637420697320616c72656160448201527f647920696e697469616c697a656400000000000000000000000000000000000060648201526084015b60405180910390fd5b5f80547fffffffffffffffffffffffffffffffffffffffffffffffffffffffffffffff0016600117905580156103dc575f80547fffffffffffffffffffffffffffffffffffffffffffffffffffffffffffff00ff166101001790555b609780547fffffffffffffffffffffffff00000000000000000000000000000000000000001673ffffffffffffffffffffffffffffffffffffffff8416179055610424610b2d565b8015610486575f80547fffffffffffffffffffffffffffffffffffffffffffffffffffffffffffff00ff169055604051600181527f7f26b83ff96e1f2b6a682f133852f6798a09c465da95921460cefb38474024989060200160405180910390a15b505050565b610493610953565b6102b65f610bcb565b6104a4610953565b6098805482151574010000000000000000000000000000000000000000027fffffffffffffffffffffff00ffffffffffffffffffffffffffffffffffffffff9091161790556040517ffe1d7067bebb0798de7ca02d1f0b9e1d2bbe33dd448ab10147c7b9871b9d3e179061051d90831515815260200190565b60405180910390a150565b610530610c41565b73ffffffffffffffffffffffffffffffffffffffff8216610595576040517f3e1378c100000000000000000000000000000000000000000000000000000000815273ffffffffffffffffffffffffffffffffffffffff83166004820152602401610377565b6097546105ba9073ffffffffffffffffffffffffffffffffffffffff16333084610cae565b6098546105de9073ffffffffffffffffffffffffffffffffffffffff1683836109d4565b60405181815273ffffffffffffffffffffffffffffffffffffffff83169033907f39a54d7a71ca31798e3d96be34be0322c214765144b2b52e142d763c6c7b86b49060200160405180910390a35050565b610637610c41565b60975461065c9073ffffffffffffffffffffffffffffffffffffffff16333084610cae565b6098546106809073ffffffffffffffffffffffffffffffffffffffff1633836109d4565b604051818152339081907f39a54d7a71ca31798e3d96be34be0322c214765144b2b52e142d763c6c7b86b49060200160405180910390a350565b6106c2610953565b6102b6610d12565b6106d2610953565b73ffffffffffffffffffffffffffffffffffffffff8116610775576040517f08c379a000000000000000000000000000000000000000000000000000000000815260206004820152602660248201527f4f776e61626c653a206e6577206f776e657220697320746865207a65726f206160448201527f64647265737300000000000000000000000000000000000000000000000000006064820152608401610377565b6102a381610bcb565b610786610953565b73ffffffffffffffffffffffffffffffffffffffff811615806107c0575060985473ffffffffffffffffffffffffffffffffffffffff1615155b1561080f576040517f3e1378c100000000000000000000000000000000000000000000000000000000815273ffffffffffffffffffffffffffffffffffffffff82166004820152602401610377565b609880547fffffffffffffffffffffffff00000000000000000000000000000000000000001673ffffffffffffffffffffffffffffffffffffffff83169081179091556040517f68d8ddf8d701597352b0781e02024480209b78296e77d0c00437488c4918dc7d905f90a250565b60985474010000000000000000000000000000000000000000900460ff16156108d2576040517f7844957900000000000000000000000000000000000000000000000000000000815260040160405180910390fd5b6098546108f79073ffffffffffffffffffffffffffffffffffffffff16333084610cae565b60975461091b9073ffffffffffffffffffffffffffffffffffffffff1633836109d4565b60405181815233907f54ce512bca134b346b2e68339aca83ae35f1294f1f29f332d88a19c50d304ddf9060200160405180910390a250565b60335473ffffffffffffffffffffffffffffffffffffffff1633146102b6576040517f08c379a000000000000000000000000000000000000000000000000000000000815260206004820181905260248201527f4f776e61626c653a2063616c6c6572206973206e6f7420746865206f776e65726044820152606401610377565b60405173ffffffffffffffffffffffffffffffffffffffff83166024820152604481018290526104869084907fa9059cbb00000000000000000000000000000000000000000000000000000000906064015b604080517fffffffffffffffffffffffffffffffffffffffffffffffffffffffffffffffe08184030181529190526020810180517bffffffffffffffffffffffffffffffffffffffffffffffffffffffff167fffffffff0000000000000000000000000000000000000000000000000000000090931692909217909152610d69565b610ab0610c41565b606580547fffffffffffffffffffffffffffffffffffffffffffffffffffffffffffffff001660011790557f62e78cea01bee320cd4e420270b5ea74000d11b0c9f74754ebdbfc544b05a258610b033390565b60405173ffffffffffffffffffffffffffffffffffffffff909116815260200160405180910390a1565b5f54610100900460ff16610bc3576040517f08c379a000000000000000000000000000000000000000000000000000000000815260206004820152602b60248201527f496e697469616c697a61626c653a20636f6e7472616374206973206e6f74206960448201527f6e697469616c697a696e670000000000000000000000000000000000000000006064820152608401610377565b6102b6610e76565b6033805473ffffffffffffffffffffffffffffffffffffffff8381167fffffffffffffffffffffffff0000000000000000000000000000000000000000831681179093556040519116919082907f8be0079c531659141344cd1fd0a4f28419497f9722a3daafe3b4186f6b6457e0905f90a35050565b60655460ff16156102b6576040517f08c379a000000000000000000000000000000000000000000000000000000000815260206004820152601060248201527f5061757361626c653a20706175736564000000000000000000000000000000006044820152606401610377565b60405173ffffffffffffffffffffffffffffffffffffffff80851660248301528316604482015260648101829052610d0c9085907f23b872dd0000000000000000000000000000000000000000000000000000000090608401610a26565b50505050565b610d1a610f15565b606580547fffffffffffffffffffffffffffffffffffffffffffffffffffffffffffffff001690557f5db9ee0a495bf2e6ff9c91a7834c1ba4fdd244a5e8aa4e537bd38aeae4b073aa33610b03565b5f610dca826040518060400160405280602081526020017f5361666545524332303a206c6f772d6c6576656c2063616c6c206661696c65648152508573ffffffffffffffffffffffffffffffffffffffff16610f819092919063ffffffff16565b905080515f1480610dea575080806020019051810190610dea919061126a565b610486576040517f08c379a000000000000000000000000000000000000000000000000000000000815260206004820152602a60248201527f5361666545524332303a204552433230206f7065726174696f6e20646964206e60448201527f6f742073756363656564000000000000000000000000000000000000000000006064820152608401610377565b5f54610100900460ff16610f0c576040517f08c379a000000000000000000000000000000000000000000000000000000000815260206004820152602b60248201527f496e697469616c697a61626c653a20636f6e7472616374206973206e6f74206960448201527f6e697469616c697a696e670000000000000000000000000000000000000000006064820152608401610377565b6102b633610bcb565b60655460ff166102b6576040517f08c379a000000000000000000000000000000000000000000000000000000000815260206004820152601460248201527f5061757361626c653a206e6f74207061757365640000000000000000000000006044820152606401610377565b6060610f8f84845f85610f97565b949350505050565b606082471015611029576040517f08c379a000000000000000000000000000000000000000000000000000000000815260206004820152602660248201527f416464726573733a20696e73756666696369656e742062616c616e636520666f60448201527f722063616c6c00000000000000000000000000000000000000000000000000006064820152608401610377565b5f808673ffffffffffffffffffffffffffffffffffffffff16858760405161105191906112a7565b5f6040518083038185875af1925050503d805f811461108b576040519150601f19603f3d011682016040523d82523d5f602084013e611090565b606091505b50915091506110a1878383876110ac565b979650505050505050565b606083156111415782515f0361113a5773ffffffffffffffffffffffffffffffffffffffff85163b61113a576040517f08c379a000000000000000000000000000000000000000000000000000000000815260206004820152601d60248201527f416464726573733a2063616c6c20746f206e6f6e2d636f6e74726163740000006044820152606401610377565b5081610f8f565b610f8f83838151156111565781518083602001fd5b806040517f08c379a000000000000000000000000000000000000000000000000000000000815260040161037791906112c2565b5f6020828403121561119a575f80fd5b5035919050565b803573ffffffffffffffffffffffffffffffffffffffff811681146111c4575f80fd5b919050565b5f80604083850312156111da575f80fd5b6111e3836111a1565b91506111f1602084016111a1565b90509250929050565b80151581146102a3575f80fd5b5f60208284031215611217575f80fd5b8135611222816111fa565b9392505050565b5f806040838503121561123a575f80fd5b611243836111a1565b946020939093013593505050565b5f60208284031215611261575f80fd5b611222826111a1565b5f6020828403121561127a575f80fd5b8151611222816111fa565b5f5b8381101561129f578181015183820152602001611287565b50505f910152565b5f82516112b8818460208701611285565b9190910192915050565b602081525f82518060208401526112e0816040850160208701611285565b601f017fffffffffffffffffffffffffffffffffffffffffffffffffffffffffffffffe016919091016040019291505056fea264697066735822122094081db5c60d34c1604c39fd54176592e23266e838d68b12445c86954fffaf9b64736f6c63430008140033","linkReferences":{}},"methodIdentifiers":{"burnOldTokens(uint256)":"3821b6fc","initialize(address,address)":"485cc955","migratePushTokens(uint256)":"a5815899","migratePushTokensTo(address,uint256)":"a3efee30","newPushToken()":"4b4ddd55","oldPushToken()":"e0f4b353","owner()":"8da5cb5b","pauseContract()":"439766ce","paused()":"5c975abb","renounceOwnership()":"715018a6","setNewPushToken(address)":"f7061d0c","toggleUnMigrationStatus(bool)":"7fdb3100","transferOwnership(address)":"f2fde38b","unMigrationPaused()":"7e96c3c8","unPauseContract()":"bac15203","unmigratePushTokens(uint256)":"f954deb2"},"id":35}