{"abi":[{"type":"constructor","inputs":[{"name":"account","type":"address","internalType":"address"}],"stateMutability":"nonpayable"},{"type":"function","name":"DELEGATION_TYPEHASH","inputs":[],"outputs":[{"name":"","type":"bytes32","internalType":"bytes32"}],"stateMutability":"view"},{"type":"function","name":"DOMAIN_TYPEHASH","inputs":[],"outputs":[{"name":"","type":"bytes32","internalType":"bytes32"}],"stateMutability":"view"},{"type":"function","name":"PERMIT_TYPEHASH","inputs":[],"outputs":[{"name":"","type":"bytes32","internalType":"bytes32"}],"stateMutability":"view"},{"type":"function","name":"allowance","inputs":[{"name":"account","type":"address","internalType":"address"},{"name":"spender","type":"address","internalType":"address"}],"outputs":[{"name":"","type":"uint256","internalType":"uint256"}],"stateMutability":"view"},{"type":"function","name":"approve","inputs":[{"name":"spender","type":"address","internalType":"address"},{"name":"rawAmount","type":"uint256","internalType":"uint256"}],"outputs":[{"name":"","type":"bool","internalType":"bool"}],"stateMutability":"nonpayable"},{"type":"function","name":"balanceOf","inputs":[{"name":"account","type":"address","internalType":"address"}],"outputs":[{"name":"","type":"uint256","internalType":"uint256"}],"stateMutability":"view"},{"type":"function","name":"born","inputs":[],"outputs":[{"name":"","type":"uint256","internalType":"uint256"}],"stateMutability":"view"},{"type":"function","name":"burn","inputs":[{"name":"rawAmount","type":"uint256","internalType":"uint256"}],"outputs":[],"stateMutability":"nonpayable"},{"type":"function","name":"checkpoints","inputs":[{"name":"","type":"address","internalType":"address"},{"name":"","type":"uint32","internalType":"uint32"}],"outputs":[{"name":"fromBlock","type":"uint32","internalType":"uint32"},{"name":"votes","type":"uint96","internalType":"uint96"}],"stateMutability":"view"},{"type":"function","name":"decimals","inputs":[],"outputs":[{"name":"","type":"uint8","internalType":"uint8"}],"stateMutability":"view"},{"type":"function","name":"delegate","inputs":[{"name":"delegatee","type":"address","internalType":"address"}],"outputs":[],"stateMutability":"nonpayable"},{"type":"function","name":"delegateBySig","inputs":[{"name":"delegatee","type":"address","internalType":"address"},{"name":"nonce","type":"uint256","internalType":"uint256"},{"name":"expiry","type":"uint256","internalType":"uint256"},{"name":"v","type":"uint8","internalType":"uint8"},{"name":"r","type":"bytes32","internalType":"bytes32"},{"name":"s","type":"bytes32","internalType":"bytes32"}],"outputs":[],"stateMutability":"nonpayable"},{"type":"function","name":"delegates","inputs":[{"name":"","type":"address","internalType":"address"}],"outputs":[{"name":"","type":"address","internalType":"address"}],"stateMutability":"view"},{"type":"function","name":"getCurrentVotes","inputs":[{"name":"account","type":"address","internalType":"address"}],"outputs":[{"name":"","type":"uint96","internalType":"uint96"}],"stateMutability":"view"},{"type":"function","name":"getPriorVotes","inputs":[{"name":"account","type":"address","internalType":"address"},{"name":"blockNumber","type":"uint256","internalType":"uint256"}],"outputs":[{"name":"","type":"uint96","internalType":"uint96"}],"stateMutability":"view"},{"type":"function","name":"holderDelegation","inputs":[{"name":"","type":"address","internalType":"address"},{"name":"","type":"address","internalType":"address"}],"outputs":[{"name":"","type":"bool","internalType":"bool"}],"stateMutability":"view"},{"type":"function","name":"holderWeight","inputs":[{"name":"","type":"address","internalType":"address"}],"outputs":[{"name":"","type":"uint256","internalType":"uint256"}],"stateMutability":"view"},{"type":"function","name":"mint","inputs":[{"name":"_account","type":"address","internalType":"address"},{"name":"_amountToMint","type":"uint96","internalType":"uint96"}],"outputs":[],"stateMutability":"nonpayable"},{"type":"function","name":"name","inputs":[],"outputs":[{"name":"","type":"string","internalType":"string"}],"stateMutability":"view"},{"type":"function","name":"nonces","inputs":[{"name":"","type":"address","internalType":"address"}],"outputs":[{"name":"","type":"uint256","internalType":"uint256"}],"stateMutability":"view"},{"type":"function","name":"numCheckpoints","inputs":[{"name":"","type":"address","internalType":"address"}],"outputs":[{"name":"","type":"uint32","internalType":"uint32"}],"stateMutability":"view"},{"type":"function","name":"permit","inputs":[{"name":"owner","type":"address","internalType":"address"},{"name":"spender","type":"address","internalType":"address"},{"name":"rawAmount","type":"uint256","internalType":"uint256"},{"name":"deadline","type":"uint256","internalType":"uint256"},{"name":"v","type":"uint8","internalType":"uint8"},{"name":"r","type":"bytes32","internalType":"bytes32"},{"name":"s","type":"bytes32","internalType":"bytes32"}],"outputs":[],"stateMutability":"nonpayable"},{"type":"function","name":"resetHolderWeight","inputs":[{"name":"holder","type":"address","internalType":"address"}],"outputs":[],"stateMutability":"nonpayable"},{"type":"function","name":"returnHolderDelegation","inputs":[{"name":"account","type":"address","internalType":"address"},{"name":"delegate","type":"address","internalType":"address"}],"outputs":[{"name":"","type":"bool","internalType":"bool"}],"stateMutability":"view"},{"type":"function","name":"returnHolderUnits","inputs":[{"name":"account","type":"address","internalType":"address"},{"name":"atBlock","type":"uint256","internalType":"uint256"}],"outputs":[{"name":"","type":"uint256","internalType":"uint256"}],"stateMutability":"view"},{"type":"function","name":"setHolderDelegation","inputs":[{"name":"delegate","type":"address","internalType":"address"},{"name":"value","type":"bool","internalType":"bool"}],"outputs":[],"stateMutability":"nonpayable"},{"type":"function","name":"symbol","inputs":[],"outputs":[{"name":"","type":"string","internalType":"string"}],"stateMutability":"view"},{"type":"function","name":"totalSupply","inputs":[],"outputs":[{"name":"","type":"uint256","internalType":"uint256"}],"stateMutability":"view"},{"type":"function","name":"transfer","inputs":[{"name":"dst","type":"address","internalType":"address"},{"name":"rawAmount","type":"uint256","internalType":"uint256"}],"outputs":[{"name":"","type":"bool","internalType":"bool"}],"stateMutability":"nonpayable"},{"type":"function","name":"transferFrom","inputs":[{"name":"src","type":"address","internalType":"address"},{"name":"dst","type":"address","internalType":"address"},{"name":"rawAmount","type":"uint256","internalType":"uint256"}],"outputs":[{"name":"","type":"bool","internalType":"bool"}],"stateMutability":"nonpayable"},{"type":"event","name":"Approval","inputs":[{"name":"owner","type":"address","indexed":true,"internalType":"address"},{"name":"spender","type":"address","indexed":true,"internalType":"address"},{"name":"amount","type":"uint256","indexed":false,"internalType":"uint256"}],"anonymous":false},{"type":"event","name":"DelegateChanged","inputs":[{"name":"delegator","type":"address","indexed":true,"internalType":"address"},{"name":"fromDelegate","type":"address","indexed":true,"internalType":"address"},{"name":"toDelegate","type":"address","indexed":true,"internalType":"address"}],"anonymous":false},{"type":"event","name":"DelegateVotesChanged","inputs":[{"name":"delegate","type":"address","indexed":true,"internalType":"address"},{"name":"previousBalance","type":"uint256","indexed":false,"internalType":"uint256"},{"name":"newBalance","type":"uint256","indexed":false,"internalType":"uint256"}],"anonymous":false},{"type":"event","name":"HolderWeightChanged","inputs":[{"name":"holder","type":"address","indexed":true,"internalType":"address"},{"name":"amount","type":"uint256","indexed":false,"internalType":"uint256"},{"name":"weight","type":"uint256","indexed":false,"internalType":"uint256"}],"anonymous":false},{"type":"event","name":"Transfer","inputs":[{"name":"from","type":"address","indexed":true,"internalType":"address"},{"name":"to","type":"address","indexed":true,"internalType":"address"},{"name":"amount","type":"uint256","indexed":false,"internalType":"uint256"}],"anonymous":false}],"bytecode":{"object":"0x60806040526a52b7d2dcc80cd2e40000006000553480156200002057600080fd5b506040516200327b3803806200327b8339810160408190526200004391620000d8565b600080546001600160a01b03831680835260036020908152604080852080546001600160601b0319166001600160601b0390951694909417909355835492519283529092917fddf252ad1be2c89b69c2b068fc378daa952ba7f163c4a11628f55a4df523b3ef910160405180910390a36001600160a01b0316600090815260046020526040902043908190556001556200010a565b600060208284031215620000eb57600080fd5b81516001600160a01b03811681146200010357600080fd5b9392505050565b613161806200011a6000396000f3fe608060405234801561001057600080fd5b50600436106101da5760003560e01c8063587cde1e11610104578063a9059cbb116100a2578063dd62ed3e11610071578063dd62ed3e146105c3578063e7a324dc14610617578063f1127ed81461063e578063f18365d9146106b057600080fd5b8063a9059cbb14610577578063b4b5ea571461058a578063c3cda5201461059d578063d505accf146105b057600080fd5b806370a08231116100de57806370a08231146104a7578063782d6fe1146104eb5780637ecebe001461051b57806395d89b411461053b57600080fd5b8063587cde1e146103fe5780635c19a95c146104595780636fcfff451461046c57600080fd5b806323b872dd1161017c5780633f5af2441161014b5780633f5af2441461035457806342966c681461039d5780634823838d146103b057806351b07180146103de57600080fd5b806323b872dd1461028f5780632477c6e8146102a257806330adf81f14610313578063313ce5671461033a57600080fd5b806310c19421116101b857806310c194211461024157806318160ddd1461024a5780631b025a401461025357806320606b701461026857600080fd5b806306fdde03146101df578063095ea7b3146101fd5780630b1b72f214610220575b600080fd5b6101e76106c3565b6040516101f4919061290e565b60405180910390f35b61021061020b3660046129a3565b6106df565b60405190151581526020016101f4565b61023361022e3660046129a3565b610857565b6040519081526020016101f4565b61023360015481565b61023360005481565b6102666102613660046129cd565b6108e4565b005b6102337f8cad95687ba82c2ce50e74f7b754645e5117c3a5bec8151c0726d5857980a86681565b61021061029d366004612a15565b61095d565b6102666102b0366004612a51565b33600090815260056020908152604080832073ffffffffffffffffffffffffffffffffffffffff9590951683529390529190912080547fffffffffffffffffffffffffffffffffffffffffffffffffffffffffffffff0016911515919091179055565b6102337f6e71edae12b1b97f4d1f60370fef10105fa2faae0126114a169c64845d6126c981565b610342601281565b60405160ff90911681526020016101f4565b610210610362366004612a82565b73ffffffffffffffffffffffffffffffffffffffff918216600090815260056020908152604080832093909416825291909152205460ff1690565b6102666103ab366004612ab5565b610afd565b6102106103be366004612a82565b600560209081526000928352604080842090915290825290205460ff1681565b6102336103ec366004612ace565b60046020526000908152604090205481565b61043461040c366004612ace565b60066020526000908152604090205473ffffffffffffffffffffffffffffffffffffffff1681565b60405173ffffffffffffffffffffffffffffffffffffffff90911681526020016101f4565b610266610467366004612ace565b610c7c565b61049261047a366004612ace565b60086020526000908152604090205463ffffffff1681565b60405163ffffffff90911681526020016101f4565b6102336104b5366004612ace565b73ffffffffffffffffffffffffffffffffffffffff166000908152600360205260409020546bffffffffffffffffffffffff1690565b6104fe6104f93660046129a3565b610c89565b6040516bffffffffffffffffffffffff90911681526020016101f4565b610233610529366004612ace565b60096020526000908152604090205481565b6101e76040518060400160405280600481526020017f505553480000000000000000000000000000000000000000000000000000000081525081565b6102106105853660046129a3565b610f7c565b6104fe610598366004612ace565b610fb8565b6102666105ab366004612afa565b611055565b6102666105be366004612b52565b611440565b6102336105d1366004612a82565b73ffffffffffffffffffffffffffffffffffffffff91821660009081526002602090815260408083209390941682529190915220546bffffffffffffffffffffffff1690565b6102337fe48329057bfd03d55e49b547132e39cffd9c1820ad7b9d4c5307691425d15adf81565b61068761064c366004612bbc565b600760209081526000928352604080842090915290825290205463ffffffff81169064010000000090046bffffffffffffffffffffffff1682565b6040805163ffffffff90931683526bffffffffffffffffffffffff9091166020830152016101f4565b6102666106be366004612ace565b611a18565b604051806060016040528060228152602001612e286022913981565b6000806bffffffffffffffffffffffff831061070857506bffffffffffffffffffffffff6107ac565b50816bffffffffffffffffffffffff811681146107ac576040517f08c379a000000000000000000000000000000000000000000000000000000000815260206004820152602560248201527f507573683a3a617070726f76653a20616d6f756e74206578636565647320393660448201527f206269747300000000000000000000000000000000000000000000000000000060648201526084015b60405180910390fd5b33600081815260026020908152604080832073ffffffffffffffffffffffffffffffffffffffff89168085529083529281902080547fffffffffffffffffffffffffffffffffffffffff000000000000000000000000166bffffffffffffffffffffffff871690811790915590519081529192917f8c5be1e5ebec7d5bd14f71427d1e84f3dd0314c0f7b2291e5b200ac8c7c3b925910160405180910390a360019150505b92915050565b73ffffffffffffffffffffffffffffffffffffffff8216600090815260036020908152604080832054600483528184205482516080810190935260448084526108dd946bffffffffffffffffffffffff909316936108bf938893929061306590830139611b7c565b604051806060016040528060308152602001612dbd60309139611bd0565b9392505050565b73ffffffffffffffffffffffffffffffffffffffff8216600090815260036020526040812080547fffffffffffffffffffffffffffffffffffffffff000000000000000000000000166bffffffffffffffffffffffff841690811790915581549091908190610954908490612c20565b90915550505050565b73ffffffffffffffffffffffffffffffffffffffff831660009081526002602090815260408083203380855290835281842054825160608101909352602580845291936bffffffffffffffffffffffff9091169285926109c79288929190612fdc90830139611c3e565b90508673ffffffffffffffffffffffffffffffffffffffff168373ffffffffffffffffffffffffffffffffffffffff1614158015610a1357506bffffffffffffffffffffffff82811614155b15610ae5576000610a3d83836040518060600160405280603d8152602001613001603d9139611c90565b73ffffffffffffffffffffffffffffffffffffffff8981166000818152600260209081526040808320948a168084529482529182902080547fffffffffffffffffffffffffffffffffffffffff000000000000000000000000166bffffffffffffffffffffffff87169081179091559151918252939450919290917f8c5be1e5ebec7d5bd14f71427d1e84f3dd0314c0f7b2291e5b200ac8c7c3b925910160405180910390a3505b610af0878783611cfe565b5060019695505050505050565b3360008181526003602090815260408083205481516060810190925260228083526bffffffffffffffffffffffff9091169392610b449287929091612eea90830139611c3e565b9050610b69828260405180606001604052806027815260200161303e60279139611c90565b600360008573ffffffffffffffffffffffffffffffffffffffff1673ffffffffffffffffffffffffffffffffffffffff16815260200190815260200160002060006101000a8154816bffffffffffffffffffffffff02191690836bffffffffffffffffffffffff160217905550610c18600054856040518060400160405280601c81526020017f507573683a3a6275726e3a20737570706c7920756e646572666c6f7700000000815250611b7c565b60009081556040516bffffffffffffffffffffffff8316815273ffffffffffffffffffffffffffffffffffffffff8516907fddf252ad1be2c89b69c2b068fc378daa952ba7f163c4a11628f55a4df523b3ef9060200160405180910390a350505050565b610c86338261201b565b50565b6000438210610d1a576040517f08c379a000000000000000000000000000000000000000000000000000000000815260206004820152602760248201527f507573683a3a6765745072696f72566f7465733a206e6f74207965742064657460448201527f65726d696e65640000000000000000000000000000000000000000000000000060648201526084016107a3565b73ffffffffffffffffffffffffffffffffffffffff831660009081526008602052604081205463ffffffff1690819003610d58576000915050610851565b73ffffffffffffffffffffffffffffffffffffffff8416600090815260076020526040812081610d89600185612c33565b63ffffffff908116825260208083019390935260409182016000208251808401909352549081168083526401000000009091046bffffffffffffffffffffffff169282019290925291508410610de6576020015191506108519050565b73ffffffffffffffffffffffffffffffffffffffff8516600090815260076020908152604080832083805290915290205463ffffffff16841015610e2f57600092505050610851565b600080610e3d600185612c33565b90505b8163ffffffff168163ffffffff161115610f235760006002610e628484612c33565b610e6c9190612c86565b610e769083612c33565b73ffffffffffffffffffffffffffffffffffffffff8916600090815260076020908152604080832063ffffffff8581168552908352928190208151808301909252549283168082526401000000009093046bffffffffffffffffffffffff1691810191909152919250889003610ef757602001519550610851945050505050565b805163ffffffff16881115610f0e57819350610f1c565b610f19600183612c33565b92505b5050610e40565b5073ffffffffffffffffffffffffffffffffffffffff8616600090815260076020908152604080832063ffffffff909416835292905220546bffffffffffffffffffffffff640100000000909104169250505092915050565b600080610fa1836040518060600160405280602681526020016130d060269139611c3e565b9050610fae338583611cfe565b5060019392505050565b73ffffffffffffffffffffffffffffffffffffffff811660009081526008602052604081205463ffffffff1680610ff05760006108dd565b73ffffffffffffffffffffffffffffffffffffffff8316600090815260076020526040812090611021600184612c33565b63ffffffff16815260208101919091526040016000205464010000000090046bffffffffffffffffffffffff169392505050565b60007f8cad95687ba82c2ce50e74f7b754645e5117c3a5bec8151c0726d5857980a866604051806060016040528060228152602001612e28602291398051602091820120604080518084019490945283810191909152466060840152306080808501919091528151808503909101815260a0840182528051908301207fe48329057bfd03d55e49b547132e39cffd9c1820ad7b9d4c5307691425d15adf60c085015273ffffffffffffffffffffffffffffffffffffffff8b1660e085015261010084018a90526101208085018a9052825180860390910181526101408501909252815191909201207f190100000000000000000000000000000000000000000000000000000000000061016084015261016283018290526101828301819052909250906000906101a201604080517fffffffffffffffffffffffffffffffffffffffffffffffffffffffffffffffe08184030181528282528051602091820120600080855291840180845281905260ff8a169284019290925260608301889052608083018790529092509060019060a0016020604051602081039080840390855afa158015611208573d6000803e3d6000fd5b50506040517fffffffffffffffffffffffffffffffffffffffffffffffffffffffffffffffe0015191505073ffffffffffffffffffffffffffffffffffffffff81166112d6576040517f08c379a000000000000000000000000000000000000000000000000000000000815260206004820152602660248201527f507573683a3a64656c656761746542795369673a20696e76616c69642073696760448201527f6e6174757265000000000000000000000000000000000000000000000000000060648201526084016107a3565b73ffffffffffffffffffffffffffffffffffffffff8116600090815260096020526040812080549161130783612ca9565b919050558914611399576040517f08c379a000000000000000000000000000000000000000000000000000000000815260206004820152602260248201527f507573683a3a64656c656761746542795369673a20696e76616c6964206e6f6e60448201527f636500000000000000000000000000000000000000000000000000000000000060648201526084016107a3565b87421115611429576040517f08c379a000000000000000000000000000000000000000000000000000000000815260206004820152602660248201527f507573683a3a64656c656761746542795369673a207369676e6174757265206560448201527f787069726564000000000000000000000000000000000000000000000000000060648201526084016107a3565b611433818b61201b565b505050505b505050505050565b60007fffffffffffffffffffffffffffffffffffffffffffffffffffffffffffffffff860361147c57506bffffffffffffffffffffffff611519565b6bffffffffffffffffffffffff8610611516576040517f08c379a0000000000000000000000000000000000000000000000000000000008152602060048201526024808201527f507573683a3a7065726d69743a20616d6f756e7420657863656564732039362060448201527f626974730000000000000000000000000000000000000000000000000000000060648201526084016107a3565b50845b60007f8cad95687ba82c2ce50e74f7b754645e5117c3a5bec8151c0726d5857980a866604051806060016040528060228152602001612e2860229139805160209182012060408051928301939093529181019190915246606082015230608082015260a001604080517fffffffffffffffffffffffffffffffffffffffffffffffffffffffffffffffe0818403018152918152815160209283012073ffffffffffffffffffffffffffffffffffffffff8c166000908152600990935290822080549193507f6e71edae12b1b97f4d1f60370fef10105fa2faae0126114a169c64845d6126c9918c918c918c918661160f83612ca9565b9091555060408051602081019690965273ffffffffffffffffffffffffffffffffffffffff94851690860152929091166060840152608083015260a082015260c0810188905260e001604051602081830303815290604052805190602001209050600082826040516020016116b69291907f190100000000000000000000000000000000000000000000000000000000000081526002810192909252602282015260420190565b604080517fffffffffffffffffffffffffffffffffffffffffffffffffffffffffffffffe08184030181528282528051602091820120600080855291840180845281905260ff8b169284019290925260608301899052608083018890529092509060019060a0016020604051602081039080840390855afa15801561173f573d6000803e3d6000fd5b50506040517fffffffffffffffffffffffffffffffffffffffffffffffffffffffffffffffe0015191505073ffffffffffffffffffffffffffffffffffffffff81166117e7576040517f08c379a000000000000000000000000000000000000000000000000000000000815260206004820152601f60248201527f507573683a3a7065726d69743a20696e76616c6964207369676e61747572650060448201526064016107a3565b8b73ffffffffffffffffffffffffffffffffffffffff168173ffffffffffffffffffffffffffffffffffffffff161461187c576040517f08c379a000000000000000000000000000000000000000000000000000000000815260206004820152601a60248201527f507573683a3a7065726d69743a20756e617574686f72697a656400000000000060448201526064016107a3565b884211156118e6576040517f08c379a000000000000000000000000000000000000000000000000000000000815260206004820152601f60248201527f507573683a3a7065726d69743a207369676e617475726520657870697265640060448201526064016107a3565b84600260008e73ffffffffffffffffffffffffffffffffffffffff1673ffffffffffffffffffffffffffffffffffffffff16815260200190815260200160002060008d73ffffffffffffffffffffffffffffffffffffffff1673ffffffffffffffffffffffffffffffffffffffff16815260200190815260200160002060006101000a8154816bffffffffffffffffffffffff02191690836bffffffffffffffffffffffff1602179055508a73ffffffffffffffffffffffffffffffffffffffff168c73ffffffffffffffffffffffffffffffffffffffff167f8c5be1e5ebec7d5bd14f71427d1e84f3dd0314c0f7b2291e5b200ac8c7c3b92587604051611a0291906bffffffffffffffffffffffff91909116815260200190565b60405180910390a3505050505050505050505050565b73ffffffffffffffffffffffffffffffffffffffff8116600090815260056020908152604080832033845290915290205460ff16151560011480611a71575073ffffffffffffffffffffffffffffffffffffffff811633145b611afd576040517f08c379a000000000000000000000000000000000000000000000000000000000815260206004820152602560248201527f507573683a3a7265736574486f6c6465725765696768743a20756e617574686f60448201527f72697a656400000000000000000000000000000000000000000000000000000060648201526084016107a3565b73ffffffffffffffffffffffffffffffffffffffff81166000818152600460209081526040808320439081905560038352928190205481516bffffffffffffffffffffffff9091168152918201929092527f7ffd5ecbf13a4814c06acbd9d31dff13c728c3936046c339e8053a8c26b38bb5910160405180910390a250565b60008184841115611bba576040517f08c379a00000000000000000000000000000000000000000000000000000000081526004016107a3919061290e565b506000611bc78486612ce1565b95945050505050565b600083600003611be2575060006108dd565b6000611bee8486612cf4565b905083611bfb8683612d0b565b148390611c35576040517f08c379a00000000000000000000000000000000000000000000000000000000081526004016107a3919061290e565b50949350505050565b6000816c010000000000000000000000008410611c88576040517f08c379a00000000000000000000000000000000000000000000000000000000081526004016107a3919061290e565b509192915050565b6000836bffffffffffffffffffffffff16836bffffffffffffffffffffffff1611158290611ceb576040517f08c379a00000000000000000000000000000000000000000000000000000000081526004016107a3919061290e565b50611cf68385612d1f565b949350505050565b73ffffffffffffffffffffffffffffffffffffffff8316611da1576040517f08c379a000000000000000000000000000000000000000000000000000000000815260206004820152603c60248201527f507573683a3a5f7472616e73666572546f6b656e733a2063616e6e6f7420747260448201527f616e736665722066726f6d20746865207a65726f20616464726573730000000060648201526084016107a3565b73ffffffffffffffffffffffffffffffffffffffff8216611e44576040517f08c379a000000000000000000000000000000000000000000000000000000000815260206004820152603a60248201527f507573683a3a5f7472616e73666572546f6b656e733a2063616e6e6f7420747260448201527f616e7366657220746f20746865207a65726f206164647265737300000000000060648201526084016107a3565b611e4f8383836120cf565b73ffffffffffffffffffffffffffffffffffffffff8316600090815260036020908152604091829020548251606081019093526036808452611eac936bffffffffffffffffffffffff9092169285929190612eb490830139611c90565b73ffffffffffffffffffffffffffffffffffffffff848116600090815260036020908152604080832080547fffffffffffffffffffffffffffffffffffffffff000000000000000000000000166bffffffffffffffffffffffff968716179055928616825290829020548251606081019093526030808452611f3e9491909116928592909190612e849083013961232d565b73ffffffffffffffffffffffffffffffffffffffff83811660008181526003602090815260409182902080547fffffffffffffffffffffffffffffffffffffffff000000000000000000000000166bffffffffffffffffffffffff968716179055905193851684529092918616917fddf252ad1be2c89b69c2b068fc378daa952ba7f163c4a11628f55a4df523b3ef910160405180910390a373ffffffffffffffffffffffffffffffffffffffff80841660009081526006602052604080822054858416835291205461201692918216911683612395565b505050565b73ffffffffffffffffffffffffffffffffffffffff808316600081815260066020818152604080842080546003845282862054949093528787167fffffffffffffffffffffffff000000000000000000000000000000000000000084168117909155905191909516946bffffffffffffffffffffffff9092169391928592917f3134e8a2e6d97e929a7e54011ea5485d7d196dd5f0ba4d4ef95803e8e3fc257f9190a46120c9828483612395565b50505050565b73ffffffffffffffffffffffffffffffffffffffff82166000908152600360205260408120546bffffffffffffffffffffffff16908190036121405773ffffffffffffffffffffffffffffffffffffffff8085166000908152600460205260408082205492861682529020556120c9565b60006121b2600460008673ffffffffffffffffffffffffffffffffffffffff1673ffffffffffffffffffffffffffffffffffffffff16815260200190815260200160002054836bffffffffffffffffffffffff166040518060600160405280603b8152602001612f79603b9139611bd0565b90506000612226600460008873ffffffffffffffffffffffffffffffffffffffff1673ffffffffffffffffffffffffffffffffffffffff16815260200190815260200160002054856bffffffffffffffffffffffff166040518060600160405280603b8152602001612ded603b9139611bd0565b9050600061224d8383604051806060016040528060368152602001612d87603691396125ba565b90506000612290856bffffffffffffffffffffffff16876bffffffffffffffffffffffff166040518060600160405280603681526020016130f6603691396125ba565b905060006122af82600260405180602001604052806000815250612605565b905060006122d68483604051806060016040528060398152602001612f0c603991396125ba565b90506122fb81846040518060600160405280603a8152602001612e4a603a9139612605565b73ffffffffffffffffffffffffffffffffffffffff8a1660009081526004602052604090205550505050505050505050565b60008061233a8486612d44565b9050846bffffffffffffffffffffffff16816bffffffffffffffffffffffff1610158390611c35576040517f08c379a00000000000000000000000000000000000000000000000000000000081526004016107a3919061290e565b8173ffffffffffffffffffffffffffffffffffffffff168373ffffffffffffffffffffffffffffffffffffffff16141580156123df57506000816bffffffffffffffffffffffff16115b156120165773ffffffffffffffffffffffffffffffffffffffff8316156124d15773ffffffffffffffffffffffffffffffffffffffff831660009081526008602052604081205463ffffffff169081612439576000612498565b73ffffffffffffffffffffffffffffffffffffffff851660009081526007602052604081209061246a600185612c33565b63ffffffff16815260208101919091526040016000205464010000000090046bffffffffffffffffffffffff165b905060006124bf8285604051806060016040528060288152602001612fb460289139611c90565b90506124cd8684848461264d565b5050505b73ffffffffffffffffffffffffffffffffffffffff8216156120165773ffffffffffffffffffffffffffffffffffffffff821660009081526008602052604081205463ffffffff169081612526576000612585565b73ffffffffffffffffffffffffffffffffffffffff8416600090815260076020526040812090612557600185612c33565b63ffffffff16815260208101919091526040016000205464010000000090046bffffffffffffffffffffffff165b905060006125ac82856040518060600160405280602781526020016130a96027913961232d565b90506114388584848461264d565b6000806125c78486612c20565b90508285821015611c35576040517f08c379a00000000000000000000000000000000000000000000000000000000081526004016107a3919061290e565b60008183612640576040517f08c379a00000000000000000000000000000000000000000000000000000000081526004016107a3919061290e565b506000611bc78486612d0b565b600061267143604051806060016040528060348152602001612f45603491396128d0565b905060008463ffffffff161180156126d8575073ffffffffffffffffffffffffffffffffffffffff8516600090815260076020526040812063ffffffff8316916126bc600188612c33565b63ffffffff908116825260208201929092526040016000205416145b1561276e5773ffffffffffffffffffffffffffffffffffffffff85166000908152600760205260408120839161270f600188612c33565b63ffffffff168152602081019190915260400160002080546bffffffffffffffffffffffff92909216640100000000027fffffffffffffffffffffffffffffffff000000000000000000000000ffffffff909216919091179055612869565b60408051808201825263ffffffff80841682526bffffffffffffffffffffffff808616602080850191825273ffffffffffffffffffffffffffffffffffffffff8b166000908152600782528681208b8616825290915294909420925183549451909116640100000000027fffffffffffffffffffffffffffffffff00000000000000000000000000000000909416911617919091179055612810846001612d69565b73ffffffffffffffffffffffffffffffffffffffff8616600090815260086020526040902080547fffffffffffffffffffffffffffffffffffffffffffffffffffffffff000000001663ffffffff929092169190911790555b604080516bffffffffffffffffffffffff80861682528416602082015273ffffffffffffffffffffffffffffffffffffffff8716917fdec2bacdd2f05b59de34da9b523dff8be42e5e38e818c82fdb0bae774387a724910160405180910390a25050505050565b6000816401000000008410611c88576040517f08c379a00000000000000000000000000000000000000000000000000000000081526004016107a391905b600060208083528351808285015260005b8181101561293b5785810183015185820160400152820161291f565b5060006040828601015260407fffffffffffffffffffffffffffffffffffffffffffffffffffffffffffffffe0601f8301168501019250505092915050565b803573ffffffffffffffffffffffffffffffffffffffff8116811461299e57600080fd5b919050565b600080604083850312156129b657600080fd5b6129bf8361297a565b946020939093013593505050565b600080604083850312156129e057600080fd5b6129e98361297a565b915060208301356bffffffffffffffffffffffff81168114612a0a57600080fd5b809150509250929050565b600080600060608486031215612a2a57600080fd5b612a338461297a565b9250612a416020850161297a565b9150604084013590509250925092565b60008060408385031215612a6457600080fd5b612a6d8361297a565b915060208301358015158114612a0a57600080fd5b60008060408385031215612a9557600080fd5b612a9e8361297a565b9150612aac6020840161297a565b90509250929050565b600060208284031215612ac757600080fd5b5035919050565b600060208284031215612ae057600080fd5b6108dd8261297a565b803560ff8116811461299e57600080fd5b60008060008060008060c08789031215612b1357600080fd5b612b1c8761297a565b95506020870135945060408701359350612b3860608801612ae9565b92506080870135915060a087013590509295509295509295565b600080600080600080600060e0888a031215612b6d57600080fd5b612b768861297a565b9650612b846020890161297a565b95506040880135945060608801359350612ba060808901612ae9565b925060a0880135915060c0880135905092959891949750929550565b60008060408385031215612bcf57600080fd5b612bd88361297a565b9150602083013563ffffffff81168114612a0a57600080fd5b7f4e487b7100000000000000000000000000000000000000000000000000000000600052601160045260246000fd5b8082018082111561085157610851612bf1565b63ffffffff828116828216039080821115612c5057612c50612bf1565b5092915050565b7f4e487b7100000000000000000000000000000000000000000000000000000000600052601260045260246000fd5b600063ffffffff80841680612c9d57612c9d612c57565b92169190910492915050565b60007fffffffffffffffffffffffffffffffffffffffffffffffffffffffffffffffff8203612cda57612cda612bf1565b5060010190565b8181038181111561085157610851612bf1565b808202811582820484141761085157610851612bf1565b600082612d1a57612d1a612c57565b500490565b6bffffffffffffffffffffffff828116828216039080821115612c5057612c50612bf1565b6bffffffffffffffffffffffff818116838216019080821115612c5057612c50612bf1565b63ffffffff818116838216019080821115612c5057612c50612bf156fe507573683a3a5f61646a757374486f6c6465725765696768743a20746f74616c20776569676874206578636565646564206c696d6974507573683a3a72657475726e486f6c646572556e6974733a20726174696f2065786365656473206d61782072616e6765507573683a3a5f61646a757374486f6c6465725765696768743a20686f6c6465722073726320776569676874206578636565646564206c696d6974457468657265756d2050757368204e6f74696669636174696f6e2053657276696365507573683a3a5f61646a757374486f6c6465725765696768743a2061646a757374656420686f6c646572206e6567617469766520646976696465507573683a3a5f7472616e73666572546f6b656e733a207472616e7366657220616d6f756e74206f766572666c6f7773507573683a3a5f7472616e73666572546f6b656e733a207472616e7366657220616d6f756e7420657863656564732062616c616e6365507573683a3a6275726e3a20616d6f756e7420657863656564732039362062697473507573683a3a5f61646a757374486f6c6465725765696768743a20726f756e6420757020616d6f756e74206578636565646564206c696d6974507573683a3a5f7772697465436865636b706f696e743a20626c6f636b206e756d62657220657863656564732033322062697473507573683a3a5f61646a757374486f6c6465725765696768743a20686f6c6465722064737420776569676874206578636565646564206c696d6974507573683a3a5f6d6f7665566f7465733a20766f746520616d6f756e7420756e646572666c6f7773507573683a3a617070726f76653a20616d6f756e7420657863656564732039362062697473507573683a3a7472616e7366657246726f6d3a207472616e7366657220616d6f756e742065786365656473207370656e64657220616c6c6f77616e6365507573683a3a6275726e3a206275726e20616d6f756e7420657863656564732062616c616e6365507573683a3a72657475726e486f6c646572556e6974733a206174426c6f636b2073686f756c642062652067726561746572207468616e20686f6c646572576569676874507573683a3a5f6d6f7665566f7465733a20766f746520616d6f756e74206f766572666c6f7773507573683a3a7472616e736665723a20616d6f756e7420657863656564732039362062697473507573683a3a5f61646a757374486f6c6465725765696768743a20746f74616c20616d6f756e74206578636565646564206c696d6974a26469706673582212207426c51dd98374b49d3c9a51ee960fd928cb5362f5bead78301f8e5e5e8e4efd64736f6c63430008140033","linkReferences":{}},"methodIdentifiers":{"DELEGATION_TYPEHASH()":"e7a324dc","DOMAIN_TYPEHASH()":"20606b70","PERMIT_TYPEHASH()":"30adf81f","allowance(address,address)":"dd62ed3e","approve(address,uint256)":"095ea7b3","balanceOf(address)":"70a08231","born()":"10c19421","burn(uint256)":"42966c68","checkpoints(address,uint32)":"f1127ed8","decimals()":"313ce567","delegate(address)":"5c19a95c","delegateBySig(address,uint256,uint256,uint8,bytes32,bytes32)":"c3cda520","delegates(address)":"587cde1e","getCurrentVotes(address)":"b4b5ea57","getPriorVotes(address,uint256)":"782d6fe1","holderDelegation(address,address)":"4823838d","holderWeight(address)":"51b07180","mint(address,uint96)":"1b025a40","name()":"06fdde03","nonces(address)":"7ecebe00","numCheckpoints(address)":"6fcfff45","permit(address,address,uint256,uint256,uint8,bytes32,bytes32)":"d505accf","resetHolderWeight(address)":"f18365d9","returnHolderDelegation(address,address)":"3f5af244","returnHolderUnits(address,uint256)":"0b1b72f2","setHolderDelegation(address,bool)":"2477c6e8","symbol()":"95d89b41","totalSupply()":"18160ddd","transfer(address,uint256)":"a9059cbb","transferFrom(address,address,uint256)":"23b872dd"},"id":110}