{"abi":[{"type":"function","name":"CREATE_CHANNEL_TYPEHASH","inputs":[],"outputs":[{"name":"","type":"bytes32","internalType":"bytes32"}],"stateMutability":"view"},{"type":"function","name":"DOMAIN_TYPEHASH","inputs":[],"outputs":[{"name":"","type":"bytes32","internalType":"bytes32"}],"stateMutability":"view"},{"type":"function","name":"arbitraryReqFees","inputs":[{"name":"","type":"address","internalType":"address"}],"outputs":[{"name":"","type":"uint256","internalType":"uint256"}],"stateMutability":"view"},{"type":"function","name":"celebUserFunds","inputs":[{"name":"","type":"address","internalType":"address"}],"outputs":[{"name":"","type":"uint256","internalType":"uint256"}],"stateMutability":"view"},{"type":"function","name":"channelInfo","inputs":[{"name":"","type":"bytes32","internalType":"bytes32"}],"outputs":[{"name":"channelType","type":"uint8","internalType":"enum CoreTypes.ChannelType"},{"name":"channelState","type":"uint8","internalType":"uint8"},{"name":"verifiedBy","type":"address","internalType":"address"},{"name":"poolContribution","type":"uint256","internalType":"uint256"},{"name":"channelHistoricalZ","type":"uint256","internalType":"uint256"},{"name":"channelFairShareCount","type":"uint256","internalType":"uint256"},{"name":"channelLastUpdate","type":"uint256","internalType":"uint256"},{"name":"channelStartBlock","type":"uint256","internalType":"uint256"},{"name":"channelUpdateBlock","type":"uint256","internalType":"uint256"},{"name":"channelWeight","type":"uint256","internalType":"uint256"},{"name":"expiryTime","type":"uint256","internalType":"uint256"}],"stateMutability":"view"},{"type":"function","name":"channelUpdateCounter","inputs":[{"name":"","type":"bytes32","internalType":"bytes32"}],"outputs":[{"name":"","type":"uint256","internalType":"uint256"}],"stateMutability":"view"},{"type":"function","name":"epochDuration","inputs":[],"outputs":[{"name":"","type":"uint256","internalType":"uint256"}],"stateMutability":"view"},{"type":"function","name":"epochRewards","inputs":[{"name":"","type":"uint256","internalType":"uint256"}],"outputs":[{"name":"","type":"uint256","internalType":"uint256"}],"stateMutability":"view"},{"type":"function","name":"epochToTotalStakedWeight","inputs":[{"name":"","type":"uint256","internalType":"uint256"}],"outputs":[{"name":"","type":"uint256","internalType":"uint256"}],"stateMutability":"view"},{"type":"function","name":"feePoolStakingContract","inputs":[],"outputs":[{"name":"","type":"address","internalType":"address"}],"stateMutability":"view"},{"type":"function","name":"genesisEpoch","inputs":[],"outputs":[{"name":"","type":"uint256","internalType":"uint256"}],"stateMutability":"view"},{"type":"function","name":"nonces","inputs":[{"name":"","type":"address","internalType":"address"}],"outputs":[{"name":"","type":"uint256","internalType":"uint256"}],"stateMutability":"view"},{"type":"function","name":"oldChannelUpdateCounter","inputs":[{"name":"","type":"address","internalType":"address"}],"outputs":[{"name":"","type":"uint256","internalType":"uint256"}],"stateMutability":"view"},{"type":"function","name":"previouslySetEpochRewards","inputs":[],"outputs":[{"name":"","type":"uint256","internalType":"uint256"}],"stateMutability":"view"},{"type":"function","name":"processedMessages","inputs":[{"name":"","type":"bytes32","internalType":"bytes32"}],"outputs":[{"name":"","type":"bool","internalType":"bool"}],"stateMutability":"view"},{"type":"function","name":"registeredSenders","inputs":[{"name":"","type":"uint16","internalType":"uint16"}],"outputs":[{"name":"","type":"bytes32","internalType":"bytes32"}],"stateMutability":"view"},{"type":"function","name":"totalStakedAmount","inputs":[],"outputs":[{"name":"","type":"uint256","internalType":"uint256"}],"stateMutability":"view"},{"type":"function","name":"userFeesInfo","inputs":[{"name":"","type":"address","internalType":"address"}],"outputs":[{"name":"stakedAmount","type":"uint256","internalType":"uint256"},{"name":"stakedWeight","type":"uint256","internalType":"uint256"},{"name":"lastStakedBlock","type":"uint256","internalType":"uint256"},{"name":"lastClaimedBlock","type":"uint256","internalType":"uint256"}],"stateMutability":"view"},{"type":"function","name":"usersRewardsClaimed","inputs":[{"name":"","type":"address","internalType":"address"}],"outputs":[{"name":"","type":"uint256","internalType":"uint256"}],"stateMutability":"view"},{"type":"function","name":"wormholeRelayer","inputs":[],"outputs":[{"name":"","type":"address","internalType":"address"}],"stateMutability":"view"}],"bytecode":{"object":"0x608060405234801561000f575f80fd5b506105c78061001d5f395ff3fe608060405234801561000f575f80fd5b5060043610610163575f3560e01c80638b749ce5116100c7578063b70e6be61161007d578063d8c4402111610063578063d8c440211461041b578063da25b7251461043a578063f8ac83361461045a575f80fd5b8063b70e6be6146103cd578063bc680515146103d6575f80fd5b8063954e5f61116100ad578063954e5f611461033b578063af809d091461038f578063afe40c91146103ae575f80fd5b80638b749ce5146102a0578063952b333114610332575f80fd5b8063539050891161011c57806379f0371d1161010257806379f0371d146102305780637ecebe001461024f57806388ba16ab1461026e575f80fd5b80635390508914610208578063567e98f914610227575f80fd5b80633ecaec8b1161014c5780633ecaec8b146101c05780634dc47d34146101df5780634ff0876a146101fe575f80fd5b806320606b701461016757806337a1b782146101a1575b5f80fd5b61018e7f2ce9970b46ea1bff1d78000ab660407f50a9499f6742ac914d6e6aa91d8c8b2481565b6040519081526020015b60405180910390f35b61018e6101af366004610481565b60026020525f908152604090205481565b61018e6101ce3660046104bb565b600a6020525f908152604090205481565b61018e6101ed3660046104bb565b60086020525f908152604090205481565b61018e62024b0481565b61018e610216366004610481565b60106020525f908152604090205481565b61018e60065481565b61018e61023e3660046104d2565b600f6020525f908152604090205481565b61018e61025d366004610481565b5f6020819052908152604090205481565b61029061027c3660046104bb565b600e6020525f908152604090205460ff1681565b6040519015158152602001610198565b61031b6102ae3660046104bb565b60116020525f908152604090208054600182015460028301546003840154600485015460058601546006870154600788015460089098015460ff808916996101008a049091169862010000900473ffffffffffffffffffffffffffffffffffffffff16979695949392918b565b6040516101989b9a999897969594939291906104f3565b61018e60075481565b61036f610349366004610481565b60096020525f908152604090208054600182015460028301546003909301549192909184565b604080519485526020850193909352918301526060820152608001610198565b61018e61039d366004610481565b600b6020525f908152604090205481565b61018e6103bc3660046104bb565b60126020525f908152604090205481565b61018e60035481565b600c546103f69073ffffffffffffffffffffffffffffffffffffffff1681565b60405173ffffffffffffffffffffffffffffffffffffffff9091168152602001610198565b61018e610429366004610481565b60016020525f908152604090205481565b600d546103f69073ffffffffffffffffffffffffffffffffffffffff1681565b61018e7f0eb0b7c1f0e1a4ef47cef3c68abdb1aaaa449bede7fde99a8d0ee0952ce817e981565b5f60208284031215610491575f80fd5b813573ffffffffffffffffffffffffffffffffffffffff811681146104b4575f80fd5b9392505050565b5f602082840312156104cb575f80fd5b5035919050565b5f602082840312156104e2575f80fd5b813561ffff811681146104b4575f80fd5b610160810160068d1061052d577f4e487b71000000000000000000000000000000000000000000000000000000005f52602160045260245ffd5b9b815260ff9a909a1660208b015273ffffffffffffffffffffffffffffffffffffffff9890981660408a01526060890196909652608088019490945260a087019290925260c086015260e0850152610100840152610120830152610140909101529056fea26469706673582212208bbfc4725c842db11e75d89f4da687b90eac939acc76ba6920be31ffc38c19db64736f6c63430008140033","linkReferences":{}},"methodIdentifiers":{"CREATE_CHANNEL_TYPEHASH()":"f8ac8336","DOMAIN_TYPEHASH()":"20606b70","arbitraryReqFees(address)":"53905089","celebUserFunds(address)":"af809d09","channelInfo(bytes32)":"8b749ce5","channelUpdateCounter(bytes32)":"afe40c91","epochDuration()":"4ff0876a","epochRewards(uint256)":"4dc47d34","epochToTotalStakedWeight(uint256)":"3ecaec8b","feePoolStakingContract()":"bc680515","genesisEpoch()":"b70e6be6","nonces(address)":"7ecebe00","oldChannelUpdateCounter(address)":"d8c44021","previouslySetEpochRewards()":"952b3331","processedMessages(bytes32)":"88ba16ab","registeredSenders(uint16)":"79f0371d","totalStakedAmount()":"567e98f9","userFeesInfo(address)":"954e5f61","usersRewardsClaimed(address)":"37a1b782","wormholeRelayer()":"da25b725"},"id":10}