{
  "_format": "hh-sol-artifact-1",
  "contractName": "EPNSStagingV4",
  "sourceName": "contracts/EPNS_StagingV4.sol",
  "abi": [
    {
      "anonymous": false,
      "inputs": [
        {
          "indexed": true,
          "internalType": "address",
          "name": "channel",
          "type": "address"
        },
        {
          "indexed": true,
          "internalType": "enum EPNSStagingV4.ChannelType",
          "name": "channelType",
          "type": "uint8"
        },
        {
          "indexed": false,
          "internalType": "bytes",
          "name": "identity",
          "type": "bytes"
        }
      ],
      "name": "AddChannel",
      "type": "event"
    },
    {
      "anonymous": false,
      "inputs": [
        {
          "indexed": false,
          "internalType": "address",
          "name": "channel",
          "type": "address"
        },
        {
          "indexed": false,
          "internalType": "address",
          "name": "delegate",
          "type": "address"
        }
      ],
      "name": "AddDelegate",
      "type": "event"
    },
    {
      "anonymous": false,
      "inputs": [
        {
          "indexed": true,
          "internalType": "address",
          "name": "channel",
          "type": "address"
        }
      ],
      "name": "DeactivateChannel",
      "type": "event"
    },
    {
      "anonymous": false,
      "inputs": [
        {
          "indexed": true,
          "internalType": "address",
          "name": "user",
          "type": "address"
        },
        {
          "indexed": true,
          "internalType": "uint256",
          "name": "amount",
          "type": "uint256"
        }
      ],
      "name": "InterestClaimed",
      "type": "event"
    },
    {
      "anonymous": false,
      "inputs": [
        {
          "indexed": true,
          "internalType": "address",
          "name": "owner",
          "type": "address"
        },
        {
          "indexed": false,
          "internalType": "bytes",
          "name": "publickey",
          "type": "bytes"
        }
      ],
      "name": "PublicKeyRegistered",
      "type": "event"
    },
    {
      "anonymous": false,
      "inputs": [
        {
          "indexed": false,
          "internalType": "address",
          "name": "channel",
          "type": "address"
        },
        {
          "indexed": false,
          "internalType": "address",
          "name": "delegate",
          "type": "address"
        }
      ],
      "name": "RemoveDelegate",
      "type": "event"
    },
    {
      "anonymous": false,
      "inputs": [
        {
          "indexed": true,
          "internalType": "address",
          "name": "channel",
          "type": "address"
        },
        {
          "indexed": true,
          "internalType": "address",
          "name": "recipient",
          "type": "address"
        },
        {
          "indexed": false,
          "internalType": "bytes",
          "name": "identity",
          "type": "bytes"
        }
      ],
      "name": "SendNotification",
      "type": "event"
    },
    {
      "anonymous": false,
      "inputs": [
        {
          "indexed": true,
          "internalType": "address",
          "name": "channel",
          "type": "address"
        },
        {
          "indexed": true,
          "internalType": "address",
          "name": "user",
          "type": "address"
        }
      ],
      "name": "Subscribe",
      "type": "event"
    },
    {
      "anonymous": false,
      "inputs": [
        {
          "indexed": true,
          "internalType": "address",
          "name": "channel",
          "type": "address"
        },
        {
          "indexed": true,
          "internalType": "address",
          "name": "user",
          "type": "address"
        }
      ],
      "name": "Unsubscribe",
      "type": "event"
    },
    {
      "anonymous": false,
      "inputs": [
        {
          "indexed": true,
          "internalType": "address",
          "name": "channel",
          "type": "address"
        },
        {
          "indexed": false,
          "internalType": "bytes",
          "name": "identity",
          "type": "bytes"
        }
      ],
      "name": "UpdateChannel",
      "type": "event"
    },
    {
      "anonymous": false,
      "inputs": [
        {
          "indexed": true,
          "internalType": "address",
          "name": "to",
          "type": "address"
        },
        {
          "indexed": false,
          "internalType": "address",
          "name": "token",
          "type": "address"
        },
        {
          "indexed": false,
          "internalType": "uint256",
          "name": "amount",
          "type": "uint256"
        }
      ],
      "name": "Withdrawal",
      "type": "event"
    },
    {
      "inputs": [],
      "name": "REFERRAL_CODE",
      "outputs": [
        {
          "internalType": "uint256",
          "name": "",
          "type": "uint256"
        }
      ],
      "stateMutability": "view",
      "type": "function"
    },
    {
      "inputs": [],
      "name": "aDaiAddress",
      "outputs": [
        {
          "internalType": "address",
          "name": "",
          "type": "address"
        }
      ],
      "stateMutability": "view",
      "type": "function"
    },
    {
      "inputs": [
        {
          "internalType": "address",
          "name": "_delegate",
          "type": "address"
        }
      ],
      "name": "addDelegate",
      "outputs": [],
      "stateMutability": "nonpayable",
      "type": "function"
    },
    {
      "inputs": [
        {
          "internalType": "bytes",
          "name": "_publicKey",
          "type": "bytes"
        }
      ],
      "name": "broadcastUserPublicKey",
      "outputs": [],
      "stateMutability": "nonpayable",
      "type": "function"
    },
    {
      "inputs": [
        {
          "internalType": "address",
          "name": "_user",
          "type": "address"
        },
        {
          "internalType": "uint256",
          "name": "_block",
          "type": "uint256"
        }
      ],
      "name": "calcAllChannelsRatio",
      "outputs": [
        {
          "internalType": "uint256",
          "name": "ratio",
          "type": "uint256"
        }
      ],
      "stateMutability": "view",
      "type": "function"
    },
    {
      "inputs": [
        {
          "internalType": "address",
          "name": "_channel",
          "type": "address"
        },
        {
          "internalType": "address",
          "name": "_user",
          "type": "address"
        },
        {
          "internalType": "uint256",
          "name": "_block",
          "type": "uint256"
        }
      ],
      "name": "calcSingleChannelEarnRatio",
      "outputs": [
        {
          "internalType": "uint256",
          "name": "ratio",
          "type": "uint256"
        }
      ],
      "stateMutability": "view",
      "type": "function"
    },
    {
      "inputs": [
        {
          "internalType": "address",
          "name": "",
          "type": "address"
        }
      ],
      "name": "channels",
      "outputs": [
        {
          "internalType": "enum EPNSStagingV4.ChannelType",
          "name": "channelType",
          "type": "uint8"
        },
        {
          "internalType": "bool",
          "name": "deactivated",
          "type": "bool"
        },
        {
          "internalType": "uint256",
          "name": "poolContribution",
          "type": "uint256"
        },
        {
          "internalType": "uint256",
          "name": "memberCount",
          "type": "uint256"
        },
        {
          "internalType": "uint256",
          "name": "channelHistoricalZ",
          "type": "uint256"
        },
        {
          "internalType": "uint256",
          "name": "channelFairShareCount",
          "type": "uint256"
        },
        {
          "internalType": "uint256",
          "name": "channelLastUpdate",
          "type": "uint256"
        },
        {
          "internalType": "uint256",
          "name": "channelStartBlock",
          "type": "uint256"
        },
        {
          "internalType": "uint256",
          "name": "channelUpdateBlock",
          "type": "uint256"
        },
        {
          "internalType": "uint256",
          "name": "channelWeight",
          "type": "uint256"
        }
      ],
      "stateMutability": "view",
      "type": "function"
    },
    {
      "inputs": [],
      "name": "channelsCount",
      "outputs": [
        {
          "internalType": "uint256",
          "name": "",
          "type": "uint256"
        }
      ],
      "stateMutability": "view",
      "type": "function"
    },
    {
      "inputs": [],
      "name": "claimFairShare",
      "outputs": [
        {
          "internalType": "uint256",
          "name": "ratio",
          "type": "uint256"
        }
      ],
      "stateMutability": "nonpayable",
      "type": "function"
    },
    {
      "inputs": [
        {
          "internalType": "enum EPNSStagingV4.ChannelType",
          "name": "_channelType",
          "type": "uint8"
        },
        {
          "internalType": "bytes",
          "name": "_identity",
          "type": "bytes"
        },
        {
          "internalType": "uint256",
          "name": "_amount",
          "type": "uint256"
        }
      ],
      "name": "createChannelWithFees",
      "outputs": [],
      "stateMutability": "nonpayable",
      "type": "function"
    },
    {
      "inputs": [
        {
          "internalType": "enum EPNSStagingV4.ChannelType",
          "name": "_channelType",
          "type": "uint8"
        },
        {
          "internalType": "bytes",
          "name": "_identity",
          "type": "bytes"
        },
        {
          "internalType": "bytes",
          "name": "_publickey",
          "type": "bytes"
        },
        {
          "internalType": "uint256",
          "name": "_amount",
          "type": "uint256"
        }
      ],
      "name": "createChannelWithFeesAndPublicKey",
      "outputs": [],
      "stateMutability": "nonpayable",
      "type": "function"
    },
    {
      "inputs": [],
      "name": "createPromoterChannel",
      "outputs": [],
      "stateMutability": "nonpayable",
      "type": "function"
    },
    {
      "inputs": [],
      "name": "daiAddress",
      "outputs": [
        {
          "internalType": "address",
          "name": "",
          "type": "address"
        }
      ],
      "stateMutability": "view",
      "type": "function"
    },
    {
      "inputs": [],
      "name": "deactivateChannel",
      "outputs": [],
      "stateMutability": "nonpayable",
      "type": "function"
    },
    {
      "inputs": [
        {
          "internalType": "address",
          "name": "",
          "type": "address"
        },
        {
          "internalType": "address",
          "name": "",
          "type": "address"
        }
      ],
      "name": "delegated_NotificationSenders",
      "outputs": [
        {
          "internalType": "bool",
          "name": "",
          "type": "bool"
        }
      ],
      "stateMutability": "view",
      "type": "function"
    },
    {
      "inputs": [
        {
          "internalType": "address",
          "name": "_channel",
          "type": "address"
        },
        {
          "internalType": "uint256",
          "name": "_block",
          "type": "uint256"
        }
      ],
      "name": "getChannelFSRatio",
      "outputs": [
        {
          "internalType": "uint256",
          "name": "ratio",
          "type": "uint256"
        }
      ],
      "stateMutability": "view",
      "type": "function"
    },
    {
      "inputs": [
        {
          "internalType": "address",
          "name": "_channel",
          "type": "address"
        },
        {
          "internalType": "uint256",
          "name": "_subscriberId",
          "type": "uint256"
        }
      ],
      "name": "getChannelSubscriberAddress",
      "outputs": [
        {
          "internalType": "address",
          "name": "subscriber",
          "type": "address"
        }
      ],
      "stateMutability": "view",
      "type": "function"
    },
    {
      "inputs": [
        {
          "internalType": "address",
          "name": "_channel",
          "type": "address"
        },
        {
          "internalType": "uint256",
          "name": "_subscriberId",
          "type": "uint256"
        }
      ],
      "name": "getChannelSubscriberUserID",
      "outputs": [
        {
          "internalType": "uint256",
          "name": "userId",
          "type": "uint256"
        }
      ],
      "stateMutability": "view",
      "type": "function"
    },
    {
      "inputs": [
        {
          "internalType": "address",
          "name": "_channel",
          "type": "address"
        },
        {
          "internalType": "address",
          "name": "_user",
          "type": "address"
        },
        {
          "internalType": "uint256",
          "name": "_block",
          "type": "uint256"
        }
      ],
      "name": "getSubscriberFSRatio",
      "outputs": [
        {
          "internalType": "uint256",
          "name": "ratio",
          "type": "uint256"
        }
      ],
      "stateMutability": "view",
      "type": "function"
    },
    {
      "inputs": [
        {
          "internalType": "bytes",
          "name": "_publicKey",
          "type": "bytes"
        }
      ],
      "name": "getWalletFromPublicKey",
      "outputs": [
        {
          "internalType": "address",
          "name": "wallet",
          "type": "address"
        }
      ],
      "stateMutability": "pure",
      "type": "function"
    },
    {
      "inputs": [],
      "name": "governance",
      "outputs": [
        {
          "internalType": "address",
          "name": "",
          "type": "address"
        }
      ],
      "stateMutability": "view",
      "type": "function"
    },
    {
      "inputs": [],
      "name": "groupFairShareCount",
      "outputs": [
        {
          "internalType": "uint256",
          "name": "",
          "type": "uint256"
        }
      ],
      "stateMutability": "view",
      "type": "function"
    },
    {
      "inputs": [],
      "name": "groupHistoricalZ",
      "outputs": [
        {
          "internalType": "uint256",
          "name": "",
          "type": "uint256"
        }
      ],
      "stateMutability": "view",
      "type": "function"
    },
    {
      "inputs": [],
      "name": "groupLastUpdate",
      "outputs": [
        {
          "internalType": "uint256",
          "name": "",
          "type": "uint256"
        }
      ],
      "stateMutability": "view",
      "type": "function"
    },
    {
      "inputs": [],
      "name": "groupNormalizedWeight",
      "outputs": [
        {
          "internalType": "uint256",
          "name": "",
          "type": "uint256"
        }
      ],
      "stateMutability": "view",
      "type": "function"
    },
    {
      "inputs": [
        {
          "internalType": "address",
          "name": "_governance",
          "type": "address"
        },
        {
          "internalType": "address",
          "name": "_lendingPoolProviderAddress",
          "type": "address"
        },
        {
          "internalType": "address",
          "name": "_daiAddress",
          "type": "address"
        },
        {
          "internalType": "address",
          "name": "_aDaiAddress",
          "type": "address"
        },
        {
          "internalType": "uint256",
          "name": "_referralCode",
          "type": "uint256"
        }
      ],
      "name": "initialize",
      "outputs": [
        {
          "internalType": "bool",
          "name": "success",
          "type": "bool"
        }
      ],
      "stateMutability": "nonpayable",
      "type": "function"
    },
    {
      "inputs": [],
      "name": "lendingPoolProviderAddress",
      "outputs": [
        {
          "internalType": "address",
          "name": "",
          "type": "address"
        }
      ],
      "stateMutability": "view",
      "type": "function"
    },
    {
      "inputs": [
        {
          "internalType": "uint256",
          "name": "",
          "type": "uint256"
        }
      ],
      "name": "mapAddressChannels",
      "outputs": [
        {
          "internalType": "address",
          "name": "",
          "type": "address"
        }
      ],
      "stateMutability": "view",
      "type": "function"
    },
    {
      "inputs": [
        {
          "internalType": "uint256",
          "name": "",
          "type": "uint256"
        }
      ],
      "name": "mapAddressUsers",
      "outputs": [
        {
          "internalType": "address",
          "name": "",
          "type": "address"
        }
      ],
      "stateMutability": "view",
      "type": "function"
    },
    {
      "inputs": [
        {
          "internalType": "address",
          "name": "_user",
          "type": "address"
        },
        {
          "internalType": "address",
          "name": "_channel",
          "type": "address"
        }
      ],
      "name": "memberExists",
      "outputs": [
        {
          "internalType": "bool",
          "name": "subscribed",
          "type": "bool"
        }
      ],
      "stateMutability": "view",
      "type": "function"
    },
    {
      "inputs": [],
      "name": "poolFunds",
      "outputs": [
        {
          "internalType": "uint256",
          "name": "",
          "type": "uint256"
        }
      ],
      "stateMutability": "view",
      "type": "function"
    },
    {
      "inputs": [
        {
          "internalType": "address",
          "name": "_delegate",
          "type": "address"
        }
      ],
      "name": "removeDelegate",
      "outputs": [],
      "stateMutability": "nonpayable",
      "type": "function"
    },
    {
      "inputs": [
        {
          "internalType": "address",
          "name": "_recipient",
          "type": "address"
        },
        {
          "internalType": "bytes",
          "name": "_identity",
          "type": "bytes"
        }
      ],
      "name": "sendNotification",
      "outputs": [],
      "stateMutability": "nonpayable",
      "type": "function"
    },
    {
      "inputs": [
        {
          "internalType": "address",
          "name": "_channel",
          "type": "address"
        },
        {
          "internalType": "address",
          "name": "_recipient",
          "type": "address"
        },
        {
          "internalType": "bytes",
          "name": "_identity",
          "type": "bytes"
        }
      ],
      "name": "sendNotificationAsDelegate",
      "outputs": [],
      "stateMutability": "nonpayable",
      "type": "function"
    },
    {
      "inputs": [
        {
          "internalType": "address",
          "name": "_channel",
          "type": "address"
        }
      ],
      "name": "subscribe",
      "outputs": [],
      "stateMutability": "nonpayable",
      "type": "function"
    },
    {
      "inputs": [
        {
          "internalType": "address",
          "name": "_channel",
          "type": "address"
        },
        {
          "internalType": "bytes",
          "name": "_publicKey",
          "type": "bytes"
        }
      ],
      "name": "subscribeWithPublicKey",
      "outputs": [],
      "stateMutability": "nonpayable",
      "type": "function"
    },
    {
      "inputs": [
        {
          "internalType": "address",
          "name": "_newGovernance",
          "type": "address"
        }
      ],
      "name": "transferGovernance",
      "outputs": [],
      "stateMutability": "nonpayable",
      "type": "function"
    },
    {
      "inputs": [
        {
          "internalType": "address",
          "name": "_channel",
          "type": "address"
        }
      ],
      "name": "unsubscribe",
      "outputs": [
        {
          "internalType": "uint256",
          "name": "ratio",
          "type": "uint256"
        }
      ],
      "stateMutability": "nonpayable",
      "type": "function"
    },
    {
      "inputs": [
        {
          "internalType": "address",
          "name": "_channel",
          "type": "address"
        },
        {
          "internalType": "bytes",
          "name": "_identity",
          "type": "bytes"
        }
      ],
      "name": "updateChannelMeta",
      "outputs": [],
      "stateMutability": "nonpayable",
      "type": "function"
    },
    {
      "inputs": [
        {
          "internalType": "address",
          "name": "",
          "type": "address"
        }
      ],
      "name": "users",
      "outputs": [
        {
          "internalType": "bool",
          "name": "userActivated",
          "type": "bool"
        },
        {
          "internalType": "bool",
          "name": "publicKeyRegistered",
          "type": "bool"
        },
        {
          "internalType": "bool",
          "name": "channellized",
          "type": "bool"
        },
        {
          "internalType": "uint256",
          "name": "userStartBlock",
          "type": "uint256"
        },
        {
          "internalType": "uint256",
          "name": "subscribedCount",
          "type": "uint256"
        },
        {
          "internalType": "uint256",
          "name": "timeWeightedBalance",
          "type": "uint256"
        }
      ],
      "stateMutability": "view",
      "type": "function"
    },
    {
      "inputs": [],
      "name": "usersCount",
      "outputs": [
        {
          "internalType": "uint256",
          "name": "",
          "type": "uint256"
        }
      ],
      "stateMutability": "view",
      "type": "function"
    },
    {
      "inputs": [
        {
          "internalType": "address",
          "name": "",
          "type": "address"
        }
      ],
      "name": "usersInterestClaimed",
      "outputs": [
        {
          "internalType": "uint256",
          "name": "",
          "type": "uint256"
        }
      ],
      "stateMutability": "view",
      "type": "function"
    },
    {
      "inputs": [
        {
          "internalType": "address",
          "name": "",
          "type": "address"
        }
      ],
      "name": "usersInterestInWallet",
      "outputs": [
        {
          "internalType": "uint256",
          "name": "",
          "type": "uint256"
        }
      ],
      "stateMutability": "view",
      "type": "function"
    },
    {
      "inputs": [],
      "name": "withdrawEthFunds",
      "outputs": [],
      "stateMutability": "nonpayable",
      "type": "function"
    },
    {
      "stateMutability": "payable",
      "type": "receive"
    }
  ],
  "bytecode": "0x608060405234801561001057600080fd5b5060018055613cda806100246000396000f3fe60806040526004361061026b5760003560e01c806375e880fc11610144578063bc2104d2116100b6578063df875fbf1161007a578063df875fbf146106ec578063e71bdf411461070c578063e8846d711461072c578063e886dd0c1461074c578063f7013ef614610761578063fde360011461078157610272565b8063bc2104d214610662578063be3e9ba714610677578063d38bfff414610697578063d3db49cb146106b7578063daa947f5146106d757610272565b806398d2f06a1161010857806398d2f06a1461059b578063a87430ba146105bb578063aba03325146105ed578063b1da2b2e14610602578063b677c7a714610622578063b9d048df1461064257610272565b806375e880fc146104f05780637dce34f7146105055780637faf7ff61461053b57806383efb0dd1461055b5780639019c69f1461057b57610272565b80634ff32245116101dd57806367e7646f116101a157806367e7646f1461045c57806368a8e5b61461047c57806369fb0ede146104915780636ba13a82146104a65780636d1b6d46146104bb5780637262561c146104d057610272565b80634ff32245146103c557806351489826146103f25780635227dd051461041257806355091fe5146104325780635aa6e6751461044757610272565b80631e919cb71161022f5780631e919cb71461031b578063211ea1481461033b5780632c3872751461035b5780633583849a146103705780634134465a1461038557806341a7726a146103a557610272565b806302b19d3c14610277578063098b2041146102995780630ded7731146102c4578063110e01a8146102e657806311e29738146102fb57610272565b3661027257005b600080fd5b34801561028357600080fd5b50610297610292366004613231565b6107a1565b005b3480156102a557600080fd5b506102ae6108cf565b6040516102bb9190613391565b60405180910390f35b3480156102d057600080fd5b506102d96108de565b6040516102bb9190613c2b565b3480156102f257600080fd5b506102d96108e4565b34801561030757600080fd5b506102976103163660046130b8565b6108ea565b34801561032757600080fd5b506102d9610336366004612f42565b6109ad565b34801561034757600080fd5b506102976103563660046130b8565b6109bf565b34801561036757600080fd5b506102ae610a10565b34801561037c57600080fd5b506102d9610a1f565b34801561039157600080fd5b506102ae6103a0366004613196565b610a25565b3480156103b157600080fd5b506102976103c0366004612f42565b610a47565b3480156103d157600080fd5b506103e56103e0366004612f7a565b610abf565b6040516102bb9190613421565b3480156103fe57600080fd5b5061029761040d3660046132bc565b610af2565b34801561041e57600080fd5b506102ae61042d366004613319565b610bb9565b34801561043e57600080fd5b506102d9610bd4565b34801561045357600080fd5b506102ae610bda565b34801561046857600080fd5b50610297610477366004612f42565b610be9565b34801561048857600080fd5b506102d9610cc0565b34801561049d57600080fd5b50610297610cc6565b3480156104b257600080fd5b506102d9610d75565b3480156104c757600080fd5b506102ae610d7b565b3480156104dc57600080fd5b506102d96104eb366004612f42565b610d8a565b3480156104fc57600080fd5b506102976110a5565b34801561051157600080fd5b50610525610520366004612f42565b6111a2565b6040516102bb9a99989796959493929190613498565b34801561054757600080fd5b506102d961055636600461310b565b6111ef565b34801561056757600080fd5b506102d9610576366004613078565b61138b565b34801561058757600080fd5b50610297610596366004613156565b6114c2565b3480156105a757600080fd5b506102ae6105b636600461310b565b611524565b3480156105c757600080fd5b506105db6105d6366004612f42565b611550565b6040516102bb9695949392919061342c565b3480156105f957600080fd5b5061029761158c565b34801561060e57600080fd5b506103e561061d366004612f7a565b611630565b34801561062e57600080fd5b506102d961063d36600461310b565b611650565b34801561064e57600080fd5b506102d961065d36600461310b565b611738565b34801561066e57600080fd5b506102d9611773565b34801561068357600080fd5b506102d9610692366004612f42565b611779565b3480156106a357600080fd5b506102976106b2366004612f42565b61178b565b3480156106c357600080fd5b506102ae6106d2366004613319565b61182b565b3480156106e357600080fd5b506102d9611846565b3480156106f857600080fd5b50610297610707366004613015565b61184c565b34801561071857600080fd5b50610297610727366004612f42565b6118e8565b34801561073857600080fd5b506102d9610747366004613078565b6119b6565b34801561075857600080fd5b506102d9611ad9565b34801561076d57600080fd5b506103e561077c366004612fb2565b611c8a565b34801561078d57600080fd5b5061029761079c3660046130b8565b611e39565b3360009081526004602052604090205462010000900460ff16156107e05760405162461bcd60e51b81526004016107d7906134ec565b60405180910390fd5b8560028160038111156107ef57fe5b14806108065750600381600381111561080457fe5b145b6108225760405162461bcd60e51b81526004016107d790613984565b86600381111561082e57fe5b336001600160a01b0316600080516020613c858339815191528888604051610857929190613456565b60405180910390a333600090815260046020526040902054610100900460ff166108bb576108bb3385858080601f016020809104026020016040519081016040528093929190818152602001838380828437600092019190915250611f0f92505050565b6108c6338884611fba565b50505050505050565b600b546001600160a01b031681565b600f5481565b60115481565b3360008181526004602052604090205462010000900460ff1680156109175750336001600160a01b038216145b8061093e5750600c546001600160a01b03163314801561093e57506001600160a01b038116155b61095a5760405162461bcd60e51b81526004016107d790613a76565b836001600160a01b0316336001600160a01b03167fcc2b84a32bce3d060db75a4c0e59bfef192503be5c83bfa5ad79a41d384ff22c858560405161099f929190613456565b60405180910390a350505050565b60066020526000908152604090205481565b826001600160a01b03167fdd0f9713dcb5498a41e3486b288bc746b035efb57770050da0ec0e800154532c83836040516109fa929190613456565b60405180910390a2610a0b83612013565b505050565b600a546001600160a01b031681565b60145481565b6000815160401415610a3e575080516020820120610a42565b5060005b919050565b6001600160a01b038116600090815260046020526040902054819062010000900460ff168015610a9557506001600160a01b038116600090815260026020526040902054610100900460ff16155b610ab15760405162461bcd60e51b81526004016107d790613587565b610abb82336121a4565b5050565b6001600160a01b039081166000908152600260209081526040808320949093168252600990930190925290205460ff1690565b3360009081526004602052604090205462010000900460ff1615610b285760405162461bcd60e51b81526004016107d7906134ec565b836002816003811115610b3757fe5b1480610b4e57506003816003811115610b4c57fe5b145b610b6a5760405162461bcd60e51b81526004016107d790613984565b846003811115610b7657fe5b336001600160a01b0316600080516020613c858339815191528686604051610b9f929190613456565b60405180910390a3610bb2338684611fba565b5050505050565b6005602052600090815260409020546001600160a01b031681565b600d5481565b600c546001600160a01b031681565b3360008181526004602052604090205462010000900460ff168015610c165750336001600160a01b038216145b80610c3d5750600c546001600160a01b031633148015610c3d57506001600160a01b038116155b610c595760405162461bcd60e51b81526004016107d790613a76565b3360008181526008602090815260408083206001600160a01b038716845290915290819020805460ff19169055517fdccc2d936ded24d2153d2760581a7f0dcb23ec71190c9726b3584cdd700214d491610cb49185906133a5565b60405180910390a15050565b60105481565b600c546001600160a01b03163314610cf05760405162461bcd60e51b81526004016107d7906136a3565b600c5460405147916001600160a01b03169082156108fc029083906000818181858888f19350505050158015610d2a573d6000803e3d6000fd5b50600a5460405133917f2717ead6b9200dd235aad468c9809ea400fe33ac69b5bfaa6d3e90fc922b639891610d6a916001600160a01b03169085906133e3565b60405180910390a250565b600e5481565b6009546001600160a01b031681565b6001600160a01b038116600090815260046020526040812054829062010000900460ff168015610dd857506001600160a01b038116600090815260026020526040902054610100900460ff16155b610df45760405162461bcd60e51b81526004016107d790613587565b82336001600160a01b0382168114801590610e3857506001600160a01b038083166000908152600260209081526040808320938516835260099093019052205460ff165b610e545760405162461bcd60e51b81526004016107d790613b2d565b33600081815260046020526040812090955090610e73908790436119b6565b6001600160a01b03878116600090815260048401602081815260408084208054600289018054875260058a0180865284882054891688529585528387208290558054875294909352818520549285528185208054939096166001600160a01b031993841617909555938390558154835292909120805490921690915554909550610efe906001612391565b6002828101919091556001600160a01b03878116600090815260208381526040808320338452600981018352818420805460ff19169055600a8101808452828520805497830180548752600b840180875285882054891688529286528487208990558054875291909452828520549685528285208054979096166001600160a01b0319978816179095559183905583548352909120805490931690925554610fa7906001612391565b6002808301919091556001600160a01b03881660009081526020919091526040812060048101546003820154600590920154610fe49392906123be565b6001600160a01b038a16600090815260026020526040902060058101919091556003810191909155600401556001815460ff16600381111561102257fe5b148061103d57506002815460ff16600381111561103b57fe5b145b8061105757506003815460ff16600381111561105557fe5b145b156110655761106586612495565b60405133906001600160a01b038916907f9d3d878d2fb01c43ad7ec7c20d8f5d0dbac4888df940a4edaab4540ccefdc10290600090a35050505050919050565b3060009081526004602052604090205462010000900460ff16156110db5760405162461bcd60e51b81526004016107d790613558565b600a546018546040516323b872dd60e01b81526001600160a01b03909216916323b872dd9161111091339130916004016133bf565b602060405180830381600087803b15801561112a57600080fd5b505af115801561113e573d6000803e3d6000fd5b505050506040513d601f19601f820116820180604052508101906111629190613136565b506001306001600160a01b0316600080516020613c8583398151915260405161118a90613653565b60405180910390a36111a030600160185461268c565b565b600260208190526000918252604090912080546001820154928201546003830154600484015460058501546006860154600787015460089097015460ff808816996101009098041697908a565b6001600160a01b038216600090815260046020526040812054839060ff166112295760405162461bcd60e51b81526004016107d790613a46565b6001600160a01b038416600090815260046020526040812060020154905b818110156113825760016001600160a01b038088166000908152600460209081526040808320868452600501825280832054909316825260029052205460ff16600381111561129257fe5b14806112de575060026001600160a01b038088166000908152600460209081526040808320868452600501825280832054909316825260029052205460ff1660038111156112dc57fe5b145b80611329575060036001600160a01b038088166000908152600460209081526040808320868452600501825280832054909316825260029052205460ff16600381111561132757fe5b145b1561137a576001600160a01b0380871660009081526004602090815260408083208584526005019091528120549091611364911688886119b6565b9050611376858263ffffffff6126a016565b9450505b600101611247565b50505092915050565b6001600160a01b038084166000908152600260209081526040808320938616835260099093019052908120548490849060ff166113da5760405162461bcd60e51b81526004016107d790613a0f565b6001600160a01b0380871660009081526002602090815260408083209389168352600c90930190529081205461141790869063ffffffff61239116565b6001600160a01b038816600090815260026020526040812060038101546005909101549293509161144f90889063ffffffff61239116565b6001600160a01b038a166000908152600260205260408120600401549192509061147f908363ffffffff6126cc16565b90506114b4611494848363ffffffff6126a016565b6017546114a890879063ffffffff6126cc16565b9063ffffffff61270616565b9a9950505050505050505050565b33600090815260046020526040902054610100900460ff16156114e457610abb565b610abb3383838080601f016020809104026020016040519081016040528093929190818152602001838380828437600092019190915250611f0f92505050565b6001600160a01b039182166000908152600260209081526040808320938352600b909301905220541690565b600460205260009081526040902080546001820154600283015460039093015460ff808416946101008504821694620100009004909116929186565b3360008181526004602052604090205462010000900460ff1680156115cf57506001600160a01b038116600090815260026020526040902054610100900460ff16155b6115eb5760405162461bcd60e51b81526004016107d790613587565b33600081815260026020526040808220805461ff001916610100179055517f2fea28dd0de917e8a7f7070bf0812f43200736cdd16d12bf1cba3f3e432777199190a250565b600860209081526000928352604080842090915290825290205460ff1681565b6001600160a01b038216600090815260026020526040812060060154819061167f90849063ffffffff61239116565b6001600160a01b03851660009081526002602052604081206008015460105460125460115494955091939092906116bd90889063ffffffff61239116565b600f5490915060006116e56116d8848463ffffffff6126cc16565b859063ffffffff6126cc16565b905060006116f9868363ffffffff6126a016565b9050600061170d898963ffffffff6126cc16565b9050611728826114a8601754846126cc90919063ffffffff16565b9c9b505050505050505050505050565b6001600160a01b039182166000908152600260209081526040808320938352600b84018252808320549094168252600a909201909152205490565b60135481565b60076020526000908152604090205481565b600c546001600160a01b031633146117b55760405162461bcd60e51b81526004016107d7906136a3565b6001600160a01b0381166117db5760405162461bcd60e51b81526004016107d7906139b2565b600c546001600160a01b03828116911614156118095760405162461bcd60e51b81526004016107d790613723565b600c80546001600160a01b0319166001600160a01b0392909216919091179055565b6003602052600090815260409020546001600160a01b031681565b60125481565b6001600160a01b03841660009081526008602090815260408083203380855292529091205485919060ff166118935760405162461bcd60e51b81526004016107d790613bf4565b846001600160a01b0316866001600160a01b03167fcc2b84a32bce3d060db75a4c0e59bfef192503be5c83bfa5ad79a41d384ff22c86866040516118d8929190613456565b60405180910390a3505050505050565b3360008181526004602052604090205462010000900460ff1680156119155750336001600160a01b038216145b8061193c5750600c546001600160a01b03163314801561193c57506001600160a01b038116155b6119585760405162461bcd60e51b81526004016107d790613a76565b3360008181526008602090815260408083206001600160a01b038716845290915290819020805460ff19166001179055517f2fd5b26f00131bd8ca0fc556207292b85a6bec241341df82724333227458e63091610cb49185906133a5565b6001600160a01b038084166000908152600260209081526040808320938616835260099093019052908120548490849060ff16611a055760405162461bcd60e51b81526004016107d790613a0f565b60016001600160a01b03871660009081526002602052604090205460ff166003811115611a2e57fe5b1480611a60575060026001600160a01b03871660009081526002602052604090205460ff166003811115611a5e57fe5b145b80611a91575060036001600160a01b03871660009081526002602052604090205460ff166003811115611a8f57fe5b145b15611ad0576000611aa28786611650565b90506000611ab188888861138b565b601754909150611acb906114a8848463ffffffff6126cc16565b945050505b50509392505050565b3360008181526004602052604081205490919060ff16611b0b5760405162461bcd60e51b81526004016107d790613a46565b60009150815b33600090815260046020526040902060020154811015611c7c573360009081526004602090815260408083208484526005018252808320546001600160a01b031680845260029092529091205460019060ff166003811115611b6f57fe5b1480611ba1575060026001600160a01b03821660009081526002602052604090205460ff166003811115611b9f57fe5b145b80611bd2575060036001600160a01b03821660009081526002602052604090205460ff166003811115611bd057fe5b145b15611c73576001600160a01b0381166000818152600260208181526040808420338552600c81018352908420439055939092529081905260048201546003830154600590930154611c2393906123be565b6001600160a01b03841660009081526002602052604081206005810192909255600382019290925560040191909155611c5d8233436119b6565b9050611c6f858263ffffffff6126a016565b9450505b50600101611b11565b50611c8682612495565b5090565b60008054610100900460ff1680611ca45750611ca4612738565b80611cb2575060005460ff16155b611cce5760405162461bcd60e51b81526004016107d79061388e565b600054610100900460ff16158015611cf9576000805460ff1961ff0019909116610100171660011790555b600c80546001600160a01b03199081166001600160a01b038a811691909117928390556009805483168a8316179055600a80548316898316179055600b805490921687821617909155601485905567016345785d8a00006016556802b5e3af16b18800006018556a0a56fa5b99019a5c800000601555629896806017556000600d819055600e819055600f8190556010819055601181905560128190556013819055604051909290911690600080516020613c8583398151915290611dbd90613603565b60405180910390a3600c54611ddd906001600160a01b0316600080612749565b6000806001600160a01b0316600080516020613c85833981519152604051611e0490613aa6565b60405180910390a3611e196000806000612749565b600191508015611e2f576000805461ff00191690555b5095945050505050565b6001600160a01b038316600090815260046020526040902054839062010000900460ff168015611e8757506001600160a01b038116600090815260026020526040902054610100900460ff16155b611ea35760405162461bcd60e51b81526004016107d790613587565b33600090815260046020526040902054610100900460ff16611eff57611eff3384848080601f016020809104026020016040519081016040528093929190818152602001838380828437600092019190915250611f0f92505050565b611f0984336121a4565b50505050565b611f18826128fa565b506000611f2482610a25565b9050806001600160a01b0316836001600160a01b03161415611fa2576001600160a01b03811660008181526004602052604090819020805461ff001916610100179055517fb3ec32f104accdf61583b5b94e7b80414c5dc5845ffc42e00f5f19775a358a0a90611f95908590613485565b60405180910390a2610a0b565b60405162461bcd60e51b81526004016107d7906137d7565b6018548110158015611fce57506015548111155b611fea5760405162461bcd60e51b81526004016107d790613845565b600a54612008906001600160a01b031684308463ffffffff61298b16565b610a0b83838361268c565b6001600160a01b038116600090815260046020526040902054819062010000900460ff16801561204b5750336001600160a01b038216145b806120725750600c546001600160a01b03163314801561207257506001600160a01b038116155b61208e5760405162461bcd60e51b81526004016107d790613a76565b6001600160a01b038216600090815260046020526040902054829062010000900460ff1680156120dc57506001600160a01b038116600090815260026020526040902054610100900460ff16155b6120f85760405162461bcd60e51b81526004016107d790613587565b600c546001600160a01b0316331480156121435750600c546001600160a01b038481169116148061213057506001600160a01b038316155b8061214357506001600160a01b03831630145b1561214d57612189565b6001600160a01b038316600090815260026020819052604090912001546001146121895760405162461bcd60e51b81526004016107d790613523565b50503360009081526002602052604090204360079091015550565b6001600160a01b03808316600090815260026020908152604080832093851683526009909301905220548290829060ff16156121f25760405162461bcd60e51b81526004016107d79061390c565b6121fb836128fa565b506001600160a01b03808416600090815260046020818152604080842094891680855260028084528286209087018054958801855283872086905594865260058701909352932080546001600160a01b0319169093179092555461226690600163ffffffff6126a016565b600280840191909155810180546001600160a01b0387166000818152600a850160209081526040808320859055938252600b860190529190912080546001600160a01b0319169091179055546122c390600163ffffffff6126a016565b6002808301919091556001600160a01b038087166000908152600c840160209081526040808320439055600986018252808320805460ff19166001908117909155938b168352939052919091206004810154600382015460059092015461232b9392906123be565b6001600160a01b03808a1660008181526002602052604080822060058101959095556003850195909555600490930194909455915191881692917f5ffe3cc8f1055f172e55be8d832143a6cffb4cb3a56a18bf780fd4112d4cecc79190a3505050505050565b6000828211156123b35760405162461bcd60e51b81526004016107d7906136ec565b508082035b92915050565b60008080858060018960028111156123d257fe5b14156123f0576123e982600163ffffffff6126a016565b9150612446565b60008960028111156123fe57fe5b1415612415576123e982600163ffffffff61239116565b600289600281111561242357fe5b141561242e57612446565b60405162461bcd60e51b81526004016107d7906138dc565b6000612458438863ffffffff61239116565b9050600061246c838363ffffffff6126cc16565b905060006124808a8363ffffffff6126a016565b949c949b50439a509398505050505050505050565b600260015414156124b85760405162461bcd60e51b81526004016107d790613bbd565b6002600155600b546040516370a0823160e01b81526000916001600160a01b0316906370a08231906124ee903090600401613391565b60206040518083038186803b15801561250657600080fd5b505afa15801561251a573d6000803e3d6000fd5b505050506040513d601f19601f8201168201806040525081019061253e9190613331565b905060006125576013548361239190919063ffffffff16565b9050600061256b828563ffffffff6126cc16565b905060006125846017548361270690919063ffffffff16565b60135490915061259a908263ffffffff61239116565b601355336000908152600660205260409020546125bd908263ffffffff6126a016565b336000818152600660205260409081902092909255600b54915163a9059cbb60e01b81526001600160a01b039092169163a9059cbb916126019185906004016133e3565b602060405180830381600087803b15801561261b57600080fd5b505af115801561262f573d6000803e3d6000fd5b505050506040513d601f19601f820116820180604052508101906126539190613136565b50604051819033907ff9984c8173c4b4ff9cc454f76ed19c053f4490ccb224fd9ddffeb4ef4bea353090600090a3505060018055505050565b612695816129e3565b610a0b838383612749565b6000828201838110156126c55760405162461bcd60e51b81526004016107d7906135cc565b9392505050565b6000826126db575060006123b8565b828202828482816126e857fe5b04146126c55760405162461bcd60e51b81526004016107d790613943565b60008082116127275760405162461bcd60e51b81526004016107d79061380e565b81838161273057fe5b049392505050565b600061274330612be9565b15905090565b6000612754846128fa565b905060006127736018546114a8601754866126cc90919063ffffffff16565b6001600160a01b0386166000908152600460209081526040808320805462ff00001916620100001790556002909152902060018181018690558154929350869260ff1916908360038111156127c457fe5b02179055506001600160a01b038516600081815260026020908152604080832043600682018190556007820155600801859055600d80548452600390925290912080546001600160a01b0319169092179091555461282990600163ffffffff6126a016565b600d55600184600381111561283a57fe5b14806128515750600284600381111561284f57fe5b145b806128675750600384600381111561286557fe5b145b1561289057612883600182601254600f54601054601154612bef565b601155601055600f556012555b811580156128a657506001600160a01b03851615155b156128c157600c546128c1906001600160a01b0316866121a4565b6001600160a01b038516156128db576128db6000866121a4565b600c546001600160a01b03868116911614610bb257610bb285866121a4565b6001600160a01b03811660009081526004602052604081205460ff161561292357506001610a42565b6001600160a01b038216600081815260046020908152604080832043600180830191909155815460ff19168117909155600e805485526005909352922080546001600160a01b03191690931790925590546129839163ffffffff6126a016565b600e55919050565b611f09846323b872dd60e01b8585856040516024016129ac939291906133bf565b60408051601f198184030181529190526020810180516001600160e01b03166001600160e01b031990931692909217909152612d5b565b6013546129f6908263ffffffff6126a016565b60135560095460408051630261bf8b60e01b815290516001600160a01b03909216916000918391630261bf8b91600480820192602092909190829003018186803b158015612a4357600080fd5b505afa158015612a57573d6000803e3d6000fd5b505050506040513d601f19601f82011682018060405250810190612a7b9190612f5e565b9050600a60009054906101000a90046001600160a01b03166001600160a01b031663095ea7b3836001600160a01b031663ed6ff7606040518163ffffffff1660e01b815260040160206040518083038186803b158015612ada57600080fd5b505afa158015612aee573d6000803e3d6000fd5b505050506040513d601f19601f82011682018060405250810190612b129190612f5e565b856040518363ffffffff1660e01b8152600401612b309291906133e3565b602060405180830381600087803b158015612b4a57600080fd5b505af1158015612b5e573d6000803e3d6000fd5b505050506040513d601f19601f82011682018060405250810190612b829190613136565b50600a54601454604051636968703360e11b81526001600160a01b038085169363d2d0e06693612bbb93919092169188916004016133fc565b600060405180830381600087803b158015612bd557600080fd5b505af11580156108c6573d6000803e3d6000fd5b3b151590565b60008080808780828960018e6002811115612c0657fe5b1415612c4857612c1d84600163ffffffff6126a016565b9350612c2f818463ffffffff6126cc16565b9150612c41828e63ffffffff6126a016565b9150612cc6565b60008e6002811115612c5657fe5b1415612c9157612c6d84600163ffffffff61239116565b9350612c7f818463ffffffff6126cc16565b9150612c41828e63ffffffff61239116565b60028e6002811115612c9f57fe5b141561242e57612c2f612cb984600163ffffffff61239116565b829063ffffffff6126cc16565b836000612cd9438c63ffffffff61239116565b90506000612ced858863ffffffff61270616565b90508c6000612d02858563ffffffff6126cc16565b90506000612d16828563ffffffff6126cc16565b9050612d28838263ffffffff6126a016565b92508560011415612d3857600092505b899d50839c50829b50439a50505050505050505050509650965096509692505050565b6060612db0826040518060400160405280602081526020017f5361666545524332303a206c6f772d6c6576656c2063616c6c206661696c6564815250856001600160a01b0316612dea9092919063ffffffff16565b805190915015610a0b5780806020019051810190612dce9190613136565b610a0b5760405162461bcd60e51b81526004016107d790613b73565b6060612df98484600085612e01565b949350505050565b606082471015612e235760405162461bcd60e51b81526004016107d790613791565b612e2c85612be9565b612e485760405162461bcd60e51b81526004016107d790613af6565b60006060866001600160a01b03168587604051612e659190613375565b60006040518083038185875af1925050503d8060008114612ea2576040519150601f19603f3d011682016040523d82523d6000602084013e612ea7565b606091505b5091509150612eb7828286612ec2565b979650505050505050565b60608315612ed15750816126c5565b825115612ee15782518084602001fd5b8160405162461bcd60e51b81526004016107d79190613485565b60008083601f840112612f0c578182fd5b50813567ffffffffffffffff811115612f23578182fd5b602083019150836020828501011115612f3b57600080fd5b9250929050565b600060208284031215612f53578081fd5b81356126c581613c6c565b600060208284031215612f6f578081fd5b81516126c581613c6c565b60008060408385031215612f8c578081fd5b8235612f9781613c6c565b91506020830135612fa781613c6c565b809150509250929050565b600080600080600060a08688031215612fc9578081fd5b8535612fd481613c6c565b94506020860135612fe481613c6c565b93506040860135612ff481613c6c565b9250606086013561300481613c6c565b949793965091946080013592915050565b6000806000806060858703121561302a578384fd5b843561303581613c6c565b9350602085013561304581613c6c565b9250604085013567ffffffffffffffff811115613060578283fd5b61306c87828801612efb565b95989497509550505050565b60008060006060848603121561308c578283fd5b833561309781613c6c565b925060208401356130a781613c6c565b929592945050506040919091013590565b6000806000604084860312156130cc578283fd5b83356130d781613c6c565b9250602084013567ffffffffffffffff8111156130f2578283fd5b6130fe86828701612efb565b9497909650939450505050565b6000806040838503121561311d578182fd5b823561312881613c6c565b946020939093013593505050565b600060208284031215613147578081fd5b815180151581146126c5578182fd5b60008060208385031215613168578182fd5b823567ffffffffffffffff81111561317e578283fd5b61318a85828601612efb565b90969095509350505050565b6000602082840312156131a7578081fd5b813567ffffffffffffffff808211156131be578283fd5b81840185601f8201126131cf578384fd5b80359250818311156131df578384fd5b604051601f8401601f1916810160200183811182821017156131ff578586fd5b604052838152818401602001871015613216578485fd5b613227846020830160208501613c34565b9695505050505050565b60008060008060008060808789031215613249578081fd5b863560048110613257578182fd5b9550602087013567ffffffffffffffff80821115613273578283fd5b61327f8a838b01612efb565b90975095506040890135915080821115613297578283fd5b506132a489828a01612efb565b979a9699509497949695606090950135949350505050565b600080600080606085870312156132d1578182fd5b8435600481106132df578283fd5b9350602085013567ffffffffffffffff8111156132fa578283fd5b61330687828801612efb565b9598909750949560400135949350505050565b60006020828403121561332a578081fd5b5035919050565b600060208284031215613342578081fd5b5051919050565b60008151808452613361816020860160208601613c40565b601f01601f19169290920160200192915050565b60008251613387818460208701613c40565b9190910192915050565b6001600160a01b0391909116815260200190565b6001600160a01b0392831681529116602082015260400190565b6001600160a01b039384168152919092166020820152604081019190915260600190565b6001600160a01b03929092168252602082015260400190565b6001600160a01b03939093168352602083019190915261ffff16604082015260600190565b901515815260200190565b9515158652931515602086015291151560408501526060840152608083015260a082015260c00190565b60006020825282602083015282846040840137818301604090810191909152601f909201601f19160101919050565b6000602082526126c56020830184613349565b610140810160048c106134a757fe5b9a815298151560208a015260408901979097526060880195909552608087019390935260a086019190915260c085015260e08401526101008301526101209091015290565b6020808252601c908201527f5573657220616c72656164792061204368616e6e656c204f776e657200000000604082015260600190565b6020808252818101527f4368616e6e656c206861732065787465726e616c207375627363726962657273604082015260600190565b60208082526015908201527421b7b73a3930b1ba103430b990283937b6b7ba32b960591b604082015260600190565b60208082526025908201527f4368616e6e656c206465616374697661746564206f7220646f65736e27742065604082015264786973747360d81b606082015260800190565b6020808252601b908201527f536166654d6174683a206164646974696f6e206f766572666c6f770000000000604082015260600190565b60208082526030908201527f312b516d5362525431364a56463932327941423236597857464436446d47736e60408201526f14d21b4e15909c91d5545b961514cdcd60821b606082015260800190565b60208082526030908201527f312b516d526365776e4e70647432445759757564334c784854776f783252715160408201526f1c3abcad2ba2251b32ac9b34a435b33760811b606082015260800190565b60208082526029908201527f45504e53436f72653a3a6f6e6c79476f762c2075736572206973206e6f7420676040820152686f7665726e616e636560b81b606082015260800190565b6020808252601e908201527f536166654d6174683a207375627472616374696f6e206f766572666c6f770000604082015260600190565b60208082526048908201527f45504e53436f72653a3a7472616e73666572476f7665726e616e63652c206e6560408201527f7720676f7665726e616e63652063616e27742062652063757272656e7420676f6060820152677665726e616e636560c01b608082015260a00190565b60208082526026908201527f416464726573733a20696e73756666696369656e742062616c616e636520666f6040820152651c8818d85b1b60d21b606082015260800190565b6020808252601c908201527f5075626c6963204b65792056616c69646174696f6e204661696c656400000000604082015260600190565b6020808252601a908201527f536166654d6174683a206469766973696f6e206279207a65726f000000000000604082015260600190565b60208082526029908201527f496e73756666696369656e742046756e6473206f72206d6178206365696c696e60408201526819c81c995858da195960ba1b606082015260800190565b6020808252602e908201527f496e697469616c697a61626c653a20636f6e747261637420697320616c72656160408201526d191e481a5b9a5d1a585b1a5e995960921b606082015260800190565b60208082526016908201527524b73b30b634b21021b430b73732b61020b1ba34b7b760511b604082015260600190565b60208082526019908201527f5375627363726962657220616c72656164792045786973747300000000000000604082015260600190565b60208082526021908201527f536166654d6174683a206d756c7469706c69636174696f6e206f766572666c6f6040820152607760f81b606082015260800190565b60208082526014908201527310da185b9b995b08151e5c1948125b9d985b1a5960621b604082015260600190565b6020808252603a908201527f45504e53436f72653a3a7472616e73666572476f7665726e616e63652c206e6560408201527f7720676f7665726e616e63652063616e2774206265206e6f6e65000000000000606082015260800190565b60208082526019908201527f5375627363726962657220646f65736e27742045786973747300000000000000604082015260600190565b602080825260169082015275155cd95c881b9bdd081858dd1a5d985d1959081e595d60521b604082015260600190565b6020808252601690820152754368616e6e656c20646f65736e27742045786973747360501b604082015260600190565b60208082526030908201527f312b516d54434b594c324852627744366e474e76464c6534775076444e75615960408201526f477236526956654376576a56706e357360801b606082015260800190565b6020808252601d908201527f416464726573733a2063616c6c20746f206e6f6e2d636f6e7472616374000000604082015260600190565b60208082526026908201527f456974686572204368616e6e656c204f776e6572206f72204e6f74205375627360408201526518dc9a58995960d21b606082015260800190565b6020808252602a908201527f5361666545524332303a204552433230206f7065726174696f6e20646964206e6040820152691bdd081cdd58d8d9595960b21b606082015260800190565b6020808252601f908201527f5265656e7472616e637947756172643a207265656e7472616e742063616c6c00604082015260600190565b6020808252601f908201527f4e6f7420617574686f726973656420746f2073656e64206d6573736167657300604082015260600190565b90815260200190565b82818337506000910152565b60005b83811015613c5b578181015183820152602001613c43565b83811115611f095750506000910152565b6001600160a01b0381168114613c8157600080fd5b5056fe1f97bc77a1686355f130d93883d42f2434474cf65f97b29bc451ea7f9388d36aa264697066735822122082f39f93e243013e1d10ed4d6993279709b409f095cff60c1824ae39b6f647e664736f6c634300060b0033",
  "linkReferences": {},
  "deployedLinkReferences": {}
}