{
  "_format": "hh-sol-artifact-1",
  "contractName": "EPNSStagingV4",
  "sourceName": "contracts/EPNS_StagingV4.sol",
  "abi": [
    {
      "anonymous": false,
      "inputs": [
        {
          "indexed": true,
          "internalType": "address",
          "name": "channel",
          "type": "address"
        },
        {
          "indexed": true,
          "internalType": "enum EPNSStagingV4.ChannelType",
          "name": "channelType",
          "type": "uint8"
        },
        {
          "indexed": false,
          "internalType": "bytes",
          "name": "identity",
          "type": "bytes"
        }
      ],
      "name": "AddChannel",
      "type": "event"
    },
    {
      "anonymous": false,
      "inputs": [
        {
          "indexed": false,
          "internalType": "address",
          "name": "channel",
          "type": "address"
        },
        {
          "indexed": false,
          "internalType": "address",
          "name": "delegate",
          "type": "address"
        }
      ],
      "name": "AddDelegate",
      "type": "event"
    },
    {
      "anonymous": false,
      "inputs": [
        {
          "indexed": false,
          "internalType": "address",
          "name": "_channel",
          "type": "address"
        },
        {
          "indexed": false,
          "internalType": "uint256",
          "name": "totalNotifOptions",
          "type": "uint256"
        },
        {
          "indexed": false,
          "internalType": "string",
          "name": "_notifSettings",
          "type": "string"
        },
        {
          "indexed": false,
          "internalType": "string",
          "name": "_notifDescription",
          "type": "string"
        }
      ],
      "name": "ChannelNotifcationSettingsAdded",
      "type": "event"
    },
    {
      "anonymous": false,
      "inputs": [
        {
          "indexed": true,
          "internalType": "address",
          "name": "channel",
          "type": "address"
        }
      ],
      "name": "DeactivateChannel",
      "type": "event"
    },
    {
      "anonymous": false,
      "inputs": [
        {
          "indexed": true,
          "internalType": "address",
          "name": "user",
          "type": "address"
        },
        {
          "indexed": true,
          "internalType": "uint256",
          "name": "amount",
          "type": "uint256"
        }
      ],
      "name": "InterestClaimed",
      "type": "event"
    },
    {
      "anonymous": false,
      "inputs": [
        {
          "indexed": true,
          "internalType": "address",
          "name": "owner",
          "type": "address"
        },
        {
          "indexed": false,
          "internalType": "bytes",
          "name": "publickey",
          "type": "bytes"
        }
      ],
      "name": "PublicKeyRegistered",
      "type": "event"
    },
    {
      "anonymous": false,
      "inputs": [
        {
          "indexed": false,
          "internalType": "address",
          "name": "channel",
          "type": "address"
        },
        {
          "indexed": false,
          "internalType": "address",
          "name": "delegate",
          "type": "address"
        }
      ],
      "name": "RemoveDelegate",
      "type": "event"
    },
    {
      "anonymous": false,
      "inputs": [
        {
          "indexed": true,
          "internalType": "address",
          "name": "channel",
          "type": "address"
        },
        {
          "indexed": true,
          "internalType": "address",
          "name": "recipient",
          "type": "address"
        },
        {
          "indexed": false,
          "internalType": "bytes",
          "name": "identity",
          "type": "bytes"
        }
      ],
      "name": "SendNotification",
      "type": "event"
    },
    {
      "anonymous": false,
      "inputs": [
        {
          "indexed": true,
          "internalType": "address",
          "name": "channel",
          "type": "address"
        },
        {
          "indexed": true,
          "internalType": "address",
          "name": "user",
          "type": "address"
        }
      ],
      "name": "Subscribe",
      "type": "event"
    },
    {
      "anonymous": false,
      "inputs": [
        {
          "indexed": true,
          "internalType": "address",
          "name": "channel",
          "type": "address"
        },
        {
          "indexed": true,
          "internalType": "address",
          "name": "user",
          "type": "address"
        }
      ],
      "name": "Unsubscribe",
      "type": "event"
    },
    {
      "anonymous": false,
      "inputs": [
        {
          "indexed": true,
          "internalType": "address",
          "name": "channel",
          "type": "address"
        },
        {
          "indexed": false,
          "internalType": "bytes",
          "name": "identity",
          "type": "bytes"
        }
      ],
      "name": "UpdateChannel",
      "type": "event"
    },
    {
      "anonymous": false,
      "inputs": [
        {
          "indexed": false,
          "internalType": "address",
          "name": "_channel",
          "type": "address"
        },
        {
          "indexed": false,
          "internalType": "address",
          "name": "_user",
          "type": "address"
        },
        {
          "indexed": false,
          "internalType": "uint256",
          "name": "_notifID",
          "type": "uint256"
        },
        {
          "indexed": false,
          "internalType": "string",
          "name": "_notifSettings",
          "type": "string"
        }
      ],
      "name": "UserNotifcationSettingsAdded",
      "type": "event"
    },
    {
      "anonymous": false,
      "inputs": [
        {
          "indexed": true,
          "internalType": "address",
          "name": "to",
          "type": "address"
        },
        {
          "indexed": false,
          "internalType": "address",
          "name": "token",
          "type": "address"
        },
        {
          "indexed": false,
          "internalType": "uint256",
          "name": "amount",
          "type": "uint256"
        }
      ],
      "name": "Withdrawal",
      "type": "event"
    },
    {
      "inputs": [],
      "name": "REFERRAL_CODE",
      "outputs": [
        {
          "internalType": "uint256",
          "name": "",
          "type": "uint256"
        }
      ],
      "stateMutability": "view",
      "type": "function"
    },
    {
      "inputs": [],
      "name": "aDaiAddress",
      "outputs": [
        {
          "internalType": "address",
          "name": "",
          "type": "address"
        }
      ],
      "stateMutability": "view",
      "type": "function"
    },
    {
      "inputs": [
        {
          "internalType": "address",
          "name": "_delegate",
          "type": "address"
        }
      ],
      "name": "addDelegate",
      "outputs": [],
      "stateMutability": "nonpayable",
      "type": "function"
    },
    {
      "inputs": [
        {
          "internalType": "bytes",
          "name": "_publicKey",
          "type": "bytes"
        }
      ],
      "name": "broadcastUserPublicKey",
      "outputs": [],
      "stateMutability": "nonpayable",
      "type": "function"
    },
    {
      "inputs": [
        {
          "internalType": "address",
          "name": "_user",
          "type": "address"
        },
        {
          "internalType": "uint256",
          "name": "_block",
          "type": "uint256"
        }
      ],
      "name": "calcAllChannelsRatio",
      "outputs": [
        {
          "internalType": "uint256",
          "name": "ratio",
          "type": "uint256"
        }
      ],
      "stateMutability": "view",
      "type": "function"
    },
    {
      "inputs": [
        {
          "internalType": "address",
          "name": "_channel",
          "type": "address"
        },
        {
          "internalType": "address",
          "name": "_user",
          "type": "address"
        },
        {
          "internalType": "uint256",
          "name": "_block",
          "type": "uint256"
        }
      ],
      "name": "calcSingleChannelEarnRatio",
      "outputs": [
        {
          "internalType": "uint256",
          "name": "ratio",
          "type": "uint256"
        }
      ],
      "stateMutability": "view",
      "type": "function"
    },
    {
      "inputs": [
        {
          "internalType": "address",
          "name": "",
          "type": "address"
        }
      ],
      "name": "channelNotifSettings",
      "outputs": [
        {
          "internalType": "string",
          "name": "",
          "type": "string"
        }
      ],
      "stateMutability": "view",
      "type": "function"
    },
    {
      "inputs": [
        {
          "internalType": "address",
          "name": "",
          "type": "address"
        }
      ],
      "name": "channels",
      "outputs": [
        {
          "internalType": "enum EPNSStagingV4.ChannelType",
          "name": "channelType",
          "type": "uint8"
        },
        {
          "internalType": "bool",
          "name": "deactivated",
          "type": "bool"
        },
        {
          "internalType": "uint256",
          "name": "poolContribution",
          "type": "uint256"
        },
        {
          "internalType": "uint256",
          "name": "memberCount",
          "type": "uint256"
        },
        {
          "internalType": "uint256",
          "name": "channelHistoricalZ",
          "type": "uint256"
        },
        {
          "internalType": "uint256",
          "name": "channelFairShareCount",
          "type": "uint256"
        },
        {
          "internalType": "uint256",
          "name": "channelLastUpdate",
          "type": "uint256"
        },
        {
          "internalType": "uint256",
          "name": "channelStartBlock",
          "type": "uint256"
        },
        {
          "internalType": "uint256",
          "name": "channelUpdateBlock",
          "type": "uint256"
        },
        {
          "internalType": "uint256",
          "name": "channelWeight",
          "type": "uint256"
        }
      ],
      "stateMutability": "view",
      "type": "function"
    },
    {
      "inputs": [],
      "name": "channelsCount",
      "outputs": [
        {
          "internalType": "uint256",
          "name": "",
          "type": "uint256"
        }
      ],
      "stateMutability": "view",
      "type": "function"
    },
    {
      "inputs": [],
      "name": "claimFairShare",
      "outputs": [
        {
          "internalType": "uint256",
          "name": "ratio",
          "type": "uint256"
        }
      ],
      "stateMutability": "nonpayable",
      "type": "function"
    },
    {
      "inputs": [
        {
          "internalType": "uint256",
          "name": "_notifOptions",
          "type": "uint256"
        },
        {
          "internalType": "string",
          "name": "_notifSettings",
          "type": "string"
        },
        {
          "internalType": "string",
          "name": "_notifDescription",
          "type": "string"
        }
      ],
      "name": "createChannelNotificationSettings",
      "outputs": [],
      "stateMutability": "nonpayable",
      "type": "function"
    },
    {
      "inputs": [
        {
          "internalType": "enum EPNSStagingV4.ChannelType",
          "name": "_channelType",
          "type": "uint8"
        },
        {
          "internalType": "bytes",
          "name": "_identity",
          "type": "bytes"
        },
        {
          "internalType": "uint256",
          "name": "_amount",
          "type": "uint256"
        }
      ],
      "name": "createChannelWithFees",
      "outputs": [],
      "stateMutability": "nonpayable",
      "type": "function"
    },
    {
      "inputs": [
        {
          "internalType": "enum EPNSStagingV4.ChannelType",
          "name": "_channelType",
          "type": "uint8"
        },
        {
          "internalType": "bytes",
          "name": "_identity",
          "type": "bytes"
        },
        {
          "internalType": "bytes",
          "name": "_publickey",
          "type": "bytes"
        },
        {
          "internalType": "uint256",
          "name": "_amount",
          "type": "uint256"
        }
      ],
      "name": "createChannelWithFeesAndPublicKey",
      "outputs": [],
      "stateMutability": "nonpayable",
      "type": "function"
    },
    {
      "inputs": [],
      "name": "createPromoterChannel",
      "outputs": [],
      "stateMutability": "nonpayable",
      "type": "function"
    },
    {
      "inputs": [],
      "name": "daiAddress",
      "outputs": [
        {
          "internalType": "address",
          "name": "",
          "type": "address"
        }
      ],
      "stateMutability": "view",
      "type": "function"
    },
    {
      "inputs": [],
      "name": "deactivateChannel",
      "outputs": [],
      "stateMutability": "nonpayable",
      "type": "function"
    },
    {
      "inputs": [
        {
          "internalType": "address",
          "name": "",
          "type": "address"
        },
        {
          "internalType": "address",
          "name": "",
          "type": "address"
        }
      ],
      "name": "delegated_NotificationSenders",
      "outputs": [
        {
          "internalType": "bool",
          "name": "",
          "type": "bool"
        }
      ],
      "stateMutability": "view",
      "type": "function"
    },
    {
      "inputs": [
        {
          "internalType": "address",
          "name": "_channel",
          "type": "address"
        },
        {
          "internalType": "uint256",
          "name": "_block",
          "type": "uint256"
        }
      ],
      "name": "getChannelFSRatio",
      "outputs": [
        {
          "internalType": "uint256",
          "name": "ratio",
          "type": "uint256"
        }
      ],
      "stateMutability": "view",
      "type": "function"
    },
    {
      "inputs": [
        {
          "internalType": "address",
          "name": "_channel",
          "type": "address"
        },
        {
          "internalType": "uint256",
          "name": "_subscriberId",
          "type": "uint256"
        }
      ],
      "name": "getChannelSubscriberAddress",
      "outputs": [
        {
          "internalType": "address",
          "name": "subscriber",
          "type": "address"
        }
      ],
      "stateMutability": "view",
      "type": "function"
    },
    {
      "inputs": [
        {
          "internalType": "address",
          "name": "_channel",
          "type": "address"
        },
        {
          "internalType": "uint256",
          "name": "_subscriberId",
          "type": "uint256"
        }
      ],
      "name": "getChannelSubscriberUserID",
      "outputs": [
        {
          "internalType": "uint256",
          "name": "userId",
          "type": "uint256"
        }
      ],
      "stateMutability": "view",
      "type": "function"
    },
    {
      "inputs": [
        {
          "internalType": "address",
          "name": "_channel",
          "type": "address"
        },
        {
          "internalType": "address",
          "name": "_user",
          "type": "address"
        },
        {
          "internalType": "uint256",
          "name": "_block",
          "type": "uint256"
        }
      ],
      "name": "getSubscriberFSRatio",
      "outputs": [
        {
          "internalType": "uint256",
          "name": "ratio",
          "type": "uint256"
        }
      ],
      "stateMutability": "view",
      "type": "function"
    },
    {
      "inputs": [
        {
          "internalType": "bytes",
          "name": "_publicKey",
          "type": "bytes"
        }
      ],
      "name": "getWalletFromPublicKey",
      "outputs": [
        {
          "internalType": "address",
          "name": "wallet",
          "type": "address"
        }
      ],
      "stateMutability": "pure",
      "type": "function"
    },
    {
      "inputs": [],
      "name": "governance",
      "outputs": [
        {
          "internalType": "address",
          "name": "",
          "type": "address"
        }
      ],
      "stateMutability": "view",
      "type": "function"
    },
    {
      "inputs": [],
      "name": "groupFairShareCount",
      "outputs": [
        {
          "internalType": "uint256",
          "name": "",
          "type": "uint256"
        }
      ],
      "stateMutability": "view",
      "type": "function"
    },
    {
      "inputs": [],
      "name": "groupHistoricalZ",
      "outputs": [
        {
          "internalType": "uint256",
          "name": "",
          "type": "uint256"
        }
      ],
      "stateMutability": "view",
      "type": "function"
    },
    {
      "inputs": [],
      "name": "groupLastUpdate",
      "outputs": [
        {
          "internalType": "uint256",
          "name": "",
          "type": "uint256"
        }
      ],
      "stateMutability": "view",
      "type": "function"
    },
    {
      "inputs": [],
      "name": "groupNormalizedWeight",
      "outputs": [
        {
          "internalType": "uint256",
          "name": "",
          "type": "uint256"
        }
      ],
      "stateMutability": "view",
      "type": "function"
    },
    {
      "inputs": [
        {
          "internalType": "address",
          "name": "_governance",
          "type": "address"
        },
        {
          "internalType": "address",
          "name": "_lendingPoolProviderAddress",
          "type": "address"
        },
        {
          "internalType": "address",
          "name": "_daiAddress",
          "type": "address"
        },
        {
          "internalType": "address",
          "name": "_aDaiAddress",
          "type": "address"
        },
        {
          "internalType": "uint256",
          "name": "_referralCode",
          "type": "uint256"
        }
      ],
      "name": "initialize",
      "outputs": [
        {
          "internalType": "bool",
          "name": "success",
          "type": "bool"
        }
      ],
      "stateMutability": "nonpayable",
      "type": "function"
    },
    {
      "inputs": [],
      "name": "lendingPoolProviderAddress",
      "outputs": [
        {
          "internalType": "address",
          "name": "",
          "type": "address"
        }
      ],
      "stateMutability": "view",
      "type": "function"
    },
    {
      "inputs": [
        {
          "internalType": "uint256",
          "name": "",
          "type": "uint256"
        }
      ],
      "name": "mapAddressChannels",
      "outputs": [
        {
          "internalType": "address",
          "name": "",
          "type": "address"
        }
      ],
      "stateMutability": "view",
      "type": "function"
    },
    {
      "inputs": [
        {
          "internalType": "uint256",
          "name": "",
          "type": "uint256"
        }
      ],
      "name": "mapAddressUsers",
      "outputs": [
        {
          "internalType": "address",
          "name": "",
          "type": "address"
        }
      ],
      "stateMutability": "view",
      "type": "function"
    },
    {
      "inputs": [
        {
          "internalType": "address",
          "name": "_user",
          "type": "address"
        },
        {
          "internalType": "address",
          "name": "_channel",
          "type": "address"
        }
      ],
      "name": "memberExists",
      "outputs": [
        {
          "internalType": "bool",
          "name": "subscribed",
          "type": "bool"
        }
      ],
      "stateMutability": "view",
      "type": "function"
    },
    {
      "inputs": [],
      "name": "poolFunds",
      "outputs": [
        {
          "internalType": "uint256",
          "name": "",
          "type": "uint256"
        }
      ],
      "stateMutability": "view",
      "type": "function"
    },
    {
      "inputs": [
        {
          "internalType": "address",
          "name": "_delegate",
          "type": "address"
        }
      ],
      "name": "removeDelegate",
      "outputs": [],
      "stateMutability": "nonpayable",
      "type": "function"
    },
    {
      "inputs": [
        {
          "internalType": "address",
          "name": "_recipient",
          "type": "address"
        },
        {
          "internalType": "bytes",
          "name": "_identity",
          "type": "bytes"
        }
      ],
      "name": "sendNotification",
      "outputs": [],
      "stateMutability": "nonpayable",
      "type": "function"
    },
    {
      "inputs": [
        {
          "internalType": "address",
          "name": "_channel",
          "type": "address"
        },
        {
          "internalType": "address",
          "name": "_recipient",
          "type": "address"
        },
        {
          "internalType": "bytes",
          "name": "_identity",
          "type": "bytes"
        }
      ],
      "name": "sendNotificationAsDelegate",
      "outputs": [],
      "stateMutability": "nonpayable",
      "type": "function"
    },
    {
      "inputs": [
        {
          "internalType": "address",
          "name": "_channel",
          "type": "address"
        }
      ],
      "name": "subscribe",
      "outputs": [],
      "stateMutability": "nonpayable",
      "type": "function"
    },
    {
      "inputs": [
        {
          "internalType": "address",
          "name": "_channel",
          "type": "address"
        },
        {
          "internalType": "uint256",
          "name": "_notifID",
          "type": "uint256"
        },
        {
          "internalType": "string",
          "name": "_notifSettings",
          "type": "string"
        }
      ],
      "name": "subscribeToSpecificNotification",
      "outputs": [],
      "stateMutability": "nonpayable",
      "type": "function"
    },
    {
      "inputs": [
        {
          "internalType": "address",
          "name": "_channel",
          "type": "address"
        },
        {
          "internalType": "bytes",
          "name": "_publicKey",
          "type": "bytes"
        }
      ],
      "name": "subscribeWithPublicKey",
      "outputs": [],
      "stateMutability": "nonpayable",
      "type": "function"
    },
    {
      "inputs": [
        {
          "internalType": "address",
          "name": "_newGovernance",
          "type": "address"
        }
      ],
      "name": "transferGovernance",
      "outputs": [],
      "stateMutability": "nonpayable",
      "type": "function"
    },
    {
      "inputs": [
        {
          "internalType": "address",
          "name": "_channel",
          "type": "address"
        }
      ],
      "name": "unsubscribe",
      "outputs": [
        {
          "internalType": "uint256",
          "name": "ratio",
          "type": "uint256"
        }
      ],
      "stateMutability": "nonpayable",
      "type": "function"
    },
    {
      "inputs": [
        {
          "internalType": "address",
          "name": "_channel",
          "type": "address"
        },
        {
          "internalType": "bytes",
          "name": "_identity",
          "type": "bytes"
        }
      ],
      "name": "updateChannelMeta",
      "outputs": [],
      "stateMutability": "nonpayable",
      "type": "function"
    },
    {
      "inputs": [
        {
          "internalType": "address",
          "name": "_newAddress",
          "type": "address"
        }
      ],
      "name": "updateUniswapV2Address",
      "outputs": [],
      "stateMutability": "nonpayable",
      "type": "function"
    },
    {
      "inputs": [
        {
          "internalType": "address",
          "name": "",
          "type": "address"
        },
        {
          "internalType": "address",
          "name": "",
          "type": "address"
        }
      ],
      "name": "userToChannelNotifs",
      "outputs": [
        {
          "internalType": "string",
          "name": "",
          "type": "string"
        }
      ],
      "stateMutability": "view",
      "type": "function"
    },
    {
      "inputs": [
        {
          "internalType": "address",
          "name": "",
          "type": "address"
        }
      ],
      "name": "users",
      "outputs": [
        {
          "internalType": "bool",
          "name": "userActivated",
          "type": "bool"
        },
        {
          "internalType": "bool",
          "name": "publicKeyRegistered",
          "type": "bool"
        },
        {
          "internalType": "bool",
          "name": "channellized",
          "type": "bool"
        },
        {
          "internalType": "uint256",
          "name": "userStartBlock",
          "type": "uint256"
        },
        {
          "internalType": "uint256",
          "name": "subscribedCount",
          "type": "uint256"
        },
        {
          "internalType": "uint256",
          "name": "timeWeightedBalance",
          "type": "uint256"
        }
      ],
      "stateMutability": "view",
      "type": "function"
    },
    {
      "inputs": [],
      "name": "usersCount",
      "outputs": [
        {
          "internalType": "uint256",
          "name": "",
          "type": "uint256"
        }
      ],
      "stateMutability": "view",
      "type": "function"
    },
    {
      "inputs": [
        {
          "internalType": "address",
          "name": "",
          "type": "address"
        }
      ],
      "name": "usersInterestClaimed",
      "outputs": [
        {
          "internalType": "uint256",
          "name": "",
          "type": "uint256"
        }
      ],
      "stateMutability": "view",
      "type": "function"
    },
    {
      "inputs": [
        {
          "internalType": "address",
          "name": "",
          "type": "address"
        }
      ],
      "name": "usersInterestInWallet",
      "outputs": [
        {
          "internalType": "uint256",
          "name": "",
          "type": "uint256"
        }
      ],
      "stateMutability": "view",
      "type": "function"
    },
    {
      "inputs": [],
      "name": "withdrawEthFunds",
      "outputs": [],
      "stateMutability": "nonpayable",
      "type": "function"
    },
    {
      "stateMutability": "payable",
      "type": "receive"
    }
  ],
  "bytecode": "0x608060405234801561001057600080fd5b5060018055614658806100246000396000f3fe6080604052600436106102b25760003560e01c80637dce34f711610175578063c02101d0116100dc578063e71bdf4111610095578063eea0b5c51161006f578063eea0b5c514610808578063f7013ef614610835578063f83c7f7714610855578063fde3600114610875576102b9565b8063e71bdf41146107b3578063e8846d71146107d3578063e886dd0c146107f3576102b9565b8063c02101d0146106fe578063c086cfeb1461071e578063d38bfff41461073e578063d3db49cb1461075e578063daa947f51461077e578063df875fbf14610793576102b9565b8063aba033251161012e578063aba0332514610654578063b1da2b2e14610669578063b677c7a714610689578063b9d048df146106a9578063bc2104d2146106c9578063be3e9ba7146106de576102b9565b80637dce34f71461056c5780637faf7ff6146105a257806383efb0dd146105c25780639019c69f146105e257806398d2f06a14610602578063a87430ba14610622576102b9565b8063514898261161021957806368a8e5b6116101d257806368a8e5b6146104e357806369fb0ede146104f85780636ba13a821461050d5780636d1b6d46146105225780637262561c1461053757806375e880fc14610557576102b9565b806351489826146104395780635227dd051461045957806355091fe5146104795780635aa6e6751461048e578063624350f2146104a357806367e7646f146104c3576102b9565b8063211ea1481161026b578063211ea148146103825780632c387275146103a25780633583849a146103b75780634134465a146103cc57806341a7726a146103ec5780634ff322451461040c576102b9565b806302b19d3c146102be578063098b2041146102e05780630ded77311461030b578063110e01a81461032d57806311e29738146103425780631e919cb714610362576102b9565b366102b957005b600080fd5b3480156102ca57600080fd5b506102de6102d93660046139c5565b610895565b005b3480156102ec57600080fd5b506102f56109c3565b6040516103029190613bf1565b60405180910390f35b34801561031757600080fd5b506103206109d2565b60405161030291906144f3565b34801561033957600080fd5b506103206109d8565b34801561034e57600080fd5b506102de61035d366004613788565b6109de565b34801561036e57600080fd5b5061032061037d366004613613565b610aa1565b34801561038e57600080fd5b506102de61039d366004613788565b610ab3565b3480156103ae57600080fd5b506102f5610b04565b3480156103c357600080fd5b50610320610b13565b3480156103d857600080fd5b506102f56103e736600461393c565b610b19565b3480156103f857600080fd5b506102de610407366004613613565b610b3b565b34801561041857600080fd5b5061042c61042736600461364b565b610bb3565b6040516103029190613d04565b34801561044557600080fd5b506102de610454366004613a4c565b610be6565b34801561046557600080fd5b506102f5610474366004613aa5565b610cad565b34801561048557600080fd5b50610320610cc8565b34801561049a57600080fd5b506102f5610cce565b3480156104af57600080fd5b506102de6104be366004613805565b610cdd565b3480156104cf57600080fd5b506102de6104de366004613613565b610dd4565b3480156104ef57600080fd5b50610320610eab565b34801561050457600080fd5b506102de610eb1565b34801561051957600080fd5b50610320610f60565b34801561052e57600080fd5b506102f5610f66565b34801561054357600080fd5b50610320610552366004613613565b610f75565b34801561056357600080fd5b506102de611290565b34801561057857600080fd5b5061058c610587366004613613565b61138d565b6040516103029a99989796959493929190613d60565b3480156105ae57600080fd5b506103206105bd3660046137da565b6113da565b3480156105ce57600080fd5b506103206105dd366004613748565b611576565b3480156105ee57600080fd5b506102de6105fd3660046138fd565b6116ad565b34801561060e57600080fd5b506102f561061d3660046137da565b61170f565b34801561062e57600080fd5b5061064261063d366004613613565b61173b565b60405161030296959493929190613d0f565b34801561066057600080fd5b506102de611777565b34801561067557600080fd5b5061042c61068436600461364b565b61181b565b34801561069557600080fd5b506103206106a43660046137da565b61183b565b3480156106b557600080fd5b506103206106c43660046137da565b611923565b3480156106d557600080fd5b5061032061195e565b3480156106ea57600080fd5b506103206106f9366004613613565b611964565b34801561070a57600080fd5b506102de610719366004613613565b611976565b34801561072a57600080fd5b506102de610739366004613ad5565b6119c2565b34801561074a57600080fd5b506102de610759366004613613565b611aab565b34801561076a57600080fd5b506102f5610779366004613aa5565b611b4b565b34801561078a57600080fd5b50610320611b66565b34801561079f57600080fd5b506102de6107ae3660046136e6565b611b6c565b3480156107bf57600080fd5b506102de6107ce366004613613565b611c08565b3480156107df57600080fd5b506103206107ee366004613748565b611cd6565b3480156107ff57600080fd5b50610320611df9565b34801561081457600080fd5b50610828610823366004613613565b611faa565b6040516103029190613d4d565b34801561084157600080fd5b5061042c610850366004613683565b612045565b34801561086157600080fd5b5061082861087036600461364b565b61223b565b34801561088157600080fd5b506102de610890366004613788565b6122ac565b3360009081526004602052604090205462010000900460ff16156108d45760405162461bcd60e51b81526004016108cb90613db4565b60405180910390fd5b8560028160038111156108e357fe5b14806108fa575060038160038111156108f857fe5b145b6109165760405162461bcd60e51b81526004016108cb9061424c565b86600381111561092257fe5b336001600160a01b0316600080516020614603833981519152888860405161094b929190613d39565b60405180910390a333600090815260046020526040902054610100900460ff166109af576109af3385858080601f01602080910402602001604051908101604052809392919081815260200183838082843760009201919091525061238292505050565b6109ba33888461242d565b50505050505050565b600b546001600160a01b031681565b600f5481565b60115481565b3360008181526004602052604090205462010000900460ff168015610a0b5750336001600160a01b038216145b80610a325750600c546001600160a01b031633148015610a3257506001600160a01b038116155b610a4e5760405162461bcd60e51b81526004016108cb9061433e565b836001600160a01b0316336001600160a01b03167fcc2b84a32bce3d060db75a4c0e59bfef192503be5c83bfa5ad79a41d384ff22c8585604051610a93929190613d39565b60405180910390a350505050565b60066020526000908152604090205481565b826001600160a01b03167fdd0f9713dcb5498a41e3486b288bc746b035efb57770050da0ec0e800154532c8383604051610aee929190613d39565b60405180910390a2610aff83612478565b505050565b600a546001600160a01b031681565b60145481565b6000815160401415610b32575080516020820120610b36565b5060005b919050565b6001600160a01b038116600090815260046020526040902054819062010000900460ff168015610b8957506001600160a01b038116600090815260026020526040902054610100900460ff16155b610ba55760405162461bcd60e51b81526004016108cb90613e4f565b610baf8233612609565b5050565b6001600160a01b039081166000908152600260209081526040808320949093168252600990930190925290205460ff1690565b3360009081526004602052604090205462010000900460ff1615610c1c5760405162461bcd60e51b81526004016108cb90613db4565b836002816003811115610c2b57fe5b1480610c4257506003816003811115610c4057fe5b145b610c5e5760405162461bcd60e51b81526004016108cb9061424c565b846003811115610c6a57fe5b336001600160a01b03166000805160206146038339815191528686604051610c93929190613d39565b60405180910390a3610ca633868461242d565b5050505050565b6005602052600090815260409020546001600160a01b031681565b600d5481565b600c546001600160a01b031681565b6001600160a01b03841660009081526002602090815260408083203380855260099091019092529091205485919060ff16610d2a5760405162461bcd60e51b81526004016108cb906142d7565b6060610d35866127f6565b8585604051602001610d4993929190613bbd565b60408051601f19818403018152918152336000908152601b60209081528282206001600160a01b038c16835281529190208251929350610d8d92909184019061353f565b507f790dac2f69fa06ffde2a1ba07cccf57910606213ce442099a2ab6ebe3bedc0ad87338884604051610dc39493929190613ca2565b60405180910390a150505050505050565b3360008181526004602052604090205462010000900460ff168015610e015750336001600160a01b038216145b80610e285750600c546001600160a01b031633148015610e2857506001600160a01b038116155b610e445760405162461bcd60e51b81526004016108cb9061433e565b3360008181526008602090815260408083206001600160a01b038716845290915290819020805460ff19169055517fdccc2d936ded24d2153d2760581a7f0dcb23ec71190c9726b3584cdd700214d491610e9f918590613c05565b60405180910390a15050565b60105481565b600c546001600160a01b03163314610edb5760405162461bcd60e51b81526004016108cb90613f6b565b600c5460405147916001600160a01b03169082156108fc029083906000818181858888f19350505050158015610f15573d6000803e3d6000fd5b50600a5460405133917f2717ead6b9200dd235aad468c9809ea400fe33ac69b5bfaa6d3e90fc922b639891610f55916001600160a01b0316908590613c43565b60405180910390a250565b600e5481565b6009546001600160a01b031681565b6001600160a01b038116600090815260046020526040812054829062010000900460ff168015610fc357506001600160a01b038116600090815260026020526040902054610100900460ff16155b610fdf5760405162461bcd60e51b81526004016108cb90613e4f565b82336001600160a01b038216811480159061102357506001600160a01b038083166000908152600260209081526040808320938516835260099093019052205460ff165b61103f5760405162461bcd60e51b81526004016108cb906143f5565b3360008181526004602052604081209095509061105e90879043611cd6565b6001600160a01b03878116600090815260048401602081815260408084208054600289018054875260058a0180865284882054891688529585528387208290558054875294909352818520549285528185208054939096166001600160a01b0319938416179095559383905581548352929091208054909216909155549095506110e99060016128d0565b6002828101919091556001600160a01b03878116600090815260208381526040808320338452600981018352818420805460ff19169055600a8101808452828520805497830180548752600b840180875285882054891688529286528487208990558054875291909452828520549685528285208054979096166001600160a01b03199788161790955591839055835483529091208054909316909255546111929060016128d0565b6002808301919091556001600160a01b038816600090815260209190915260408120600481015460038201546005909201546111cf9392906128fd565b6001600160a01b038a16600090815260026020526040902060058101919091556003810191909155600401556001815460ff16600381111561120d57fe5b148061122857506002815460ff16600381111561122657fe5b145b8061124257506003815460ff16600381111561124057fe5b145b1561125057611250866129d4565b60405133906001600160a01b038916907f9d3d878d2fb01c43ad7ec7c20d8f5d0dbac4888df940a4edaab4540ccefdc10290600090a35050505050919050565b3060009081526004602052604090205462010000900460ff16156112c65760405162461bcd60e51b81526004016108cb90613e20565b600a546018546040516323b872dd60e01b81526001600160a01b03909216916323b872dd916112fb9133913091600401613c1f565b602060405180830381600087803b15801561131557600080fd5b505af1158015611329573d6000803e3d6000fd5b505050506040513d601f19601f8201168201806040525081019061134d91906138dd565b506001306001600160a01b031660008051602061460383398151915260405161137590613f1b565b60405180910390a361138b306001601854612b52565b565b600260208190526000918252604090912080546001820154928201546003830154600484015460058501546006860154600787015460089097015460ff808816996101009098041697908a565b6001600160a01b038216600090815260046020526040812054839060ff166114145760405162461bcd60e51b81526004016108cb9061430e565b6001600160a01b038416600090815260046020526040812060020154905b8181101561156d5760016001600160a01b038088166000908152600460209081526040808320868452600501825280832054909316825260029052205460ff16600381111561147d57fe5b14806114c9575060026001600160a01b038088166000908152600460209081526040808320868452600501825280832054909316825260029052205460ff1660038111156114c757fe5b145b80611514575060036001600160a01b038088166000908152600460209081526040808320868452600501825280832054909316825260029052205460ff16600381111561151257fe5b145b15611565576001600160a01b038087166000908152600460209081526040808320858452600501909152812054909161154f91168888611cd6565b9050611561858263ffffffff612b6616565b9450505b600101611432565b50505092915050565b6001600160a01b038084166000908152600260209081526040808320938616835260099093019052908120548490849060ff166115c55760405162461bcd60e51b81526004016108cb906142d7565b6001600160a01b0380871660009081526002602090815260408083209389168352600c90930190529081205461160290869063ffffffff6128d016565b6001600160a01b038816600090815260026020526040812060038101546005909101549293509161163a90889063ffffffff6128d016565b6001600160a01b038a166000908152600260205260408120600401549192509061166a908363ffffffff612b9216565b905061169f61167f848363ffffffff612b6616565b60175461169390879063ffffffff612b9216565b9063ffffffff612bcc16565b9a9950505050505050505050565b33600090815260046020526040902054610100900460ff16156116cf57610baf565b610baf3383838080601f01602080910402602001604051908101604052809392919081815260200183838082843760009201919091525061238292505050565b6001600160a01b039182166000908152600260209081526040808320938352600b909301905220541690565b600460205260009081526040902080546001820154600283015460039093015460ff808416946101008504821694620100009004909116929186565b3360008181526004602052604090205462010000900460ff1680156117ba57506001600160a01b038116600090815260026020526040902054610100900460ff16155b6117d65760405162461bcd60e51b81526004016108cb90613e4f565b33600081815260026020526040808220805461ff001916610100179055517f2fea28dd0de917e8a7f7070bf0812f43200736cdd16d12bf1cba3f3e432777199190a250565b600860209081526000928352604080842090915290825290205460ff1681565b6001600160a01b038216600090815260026020526040812060060154819061186a90849063ffffffff6128d016565b6001600160a01b03851660009081526002602052604081206008015460105460125460115494955091939092906118a890889063ffffffff6128d016565b600f5490915060006118d06118c3848463ffffffff612b9216565b859063ffffffff612b9216565b905060006118e4868363ffffffff612b6616565b905060006118f8898963ffffffff612b9216565b90506119138261169360175484612b9290919063ffffffff16565b9c9b505050505050505050505050565b6001600160a01b039182166000908152600260209081526040808320938352600b84018252808320549094168252600a909201909152205490565b60135481565b60076020526000908152604090205481565b600c546001600160a01b031633146119a05760405162461bcd60e51b81526004016108cb90613f6b565b601980546001600160a01b0319166001600160a01b0392909216919091179055565b3360008181526004602052604090205462010000900460ff168015611a0557506001600160a01b038116600090815260026020526040902054610100900460ff16155b611a215760405162461bcd60e51b81526004016108cb90613e4f565b6060611a2c876127f6565b8686604051602001611a4093929190613bbd565b60408051601f19818403018152918152336000908152601c60209081529190208251929350611a7392909184019061353f565b507f87cfb53b7cc0f446465723d1075eb0d650edc90e4365956fc1419a675c867bba3388838787604051610dc3959493929190613c5c565b600c546001600160a01b03163314611ad55760405162461bcd60e51b81526004016108cb90613f6b565b6001600160a01b038116611afb5760405162461bcd60e51b81526004016108cb9061427a565b600c546001600160a01b0382811691161415611b295760405162461bcd60e51b81526004016108cb90613feb565b600c80546001600160a01b0319166001600160a01b0392909216919091179055565b6003602052600090815260409020546001600160a01b031681565b60125481565b6001600160a01b03841660009081526008602090815260408083203380855292529091205485919060ff16611bb35760405162461bcd60e51b81526004016108cb906144bc565b846001600160a01b0316866001600160a01b03167fcc2b84a32bce3d060db75a4c0e59bfef192503be5c83bfa5ad79a41d384ff22c8686604051611bf8929190613d39565b60405180910390a3505050505050565b3360008181526004602052604090205462010000900460ff168015611c355750336001600160a01b038216145b80611c5c5750600c546001600160a01b031633148015611c5c57506001600160a01b038116155b611c785760405162461bcd60e51b81526004016108cb9061433e565b3360008181526008602090815260408083206001600160a01b038716845290915290819020805460ff19166001179055517f2fd5b26f00131bd8ca0fc556207292b85a6bec241341df82724333227458e63091610e9f918590613c05565b6001600160a01b038084166000908152600260209081526040808320938616835260099093019052908120548490849060ff16611d255760405162461bcd60e51b81526004016108cb906142d7565b60016001600160a01b03871660009081526002602052604090205460ff166003811115611d4e57fe5b1480611d80575060026001600160a01b03871660009081526002602052604090205460ff166003811115611d7e57fe5b145b80611db1575060036001600160a01b03871660009081526002602052604090205460ff166003811115611daf57fe5b145b15611df0576000611dc2878661183b565b90506000611dd1888888611576565b601754909150611deb90611693848463ffffffff612b9216565b945050505b50509392505050565b3360008181526004602052604081205490919060ff16611e2b5760405162461bcd60e51b81526004016108cb9061430e565b60009150815b33600090815260046020526040902060020154811015611f9c573360009081526004602090815260408083208484526005018252808320546001600160a01b031680845260029092529091205460019060ff166003811115611e8f57fe5b1480611ec1575060026001600160a01b03821660009081526002602052604090205460ff166003811115611ebf57fe5b145b80611ef2575060036001600160a01b03821660009081526002602052604090205460ff166003811115611ef057fe5b145b15611f93576001600160a01b0381166000818152600260208181526040808420338552600c81018352908420439055939092529081905260048201546003830154600590930154611f4393906128fd565b6001600160a01b03841660009081526002602052604081206005810192909255600382019290925560040191909155611f7d823343611cd6565b9050611f8f858263ffffffff612b6616565b9450505b50600101611e31565b50611fa6826129d4565b5090565b601c6020908152600091825260409182902080548351601f60026000196101006001861615020190931692909204918201849004840281018401909452808452909183018282801561203d5780601f106120125761010080835404028352916020019161203d565b820191906000526020600020905b81548152906001019060200180831161202057829003601f168201915b505050505081565b60008054610100900460ff168061205f575061205f612bfe565b8061206d575060005460ff16155b6120895760405162461bcd60e51b81526004016108cb90614156565b600054610100900460ff161580156120b4576000805460ff1961ff0019909116610100171660011790555b600c80546001600160a01b03808a166001600160a01b03199283161790925560098054898416908316179055600a8054888416908316179055600b8054928716928216929092179091556014849055601980548216737a250d5630b4cf539739df2c5dacb4c659f2488d179055601a805490911673f418588522d5dd018b425e472991e52ebbeeeeee17905567016345785d8a00006016556802b5e3af16b18800006018556a0a56fa5b99019a5c800000601555629896806017556000600d819055600e819055600f8190556010819055601181905560128190556013819055600c546040516001600160a01b0390911690600080516020614603833981519152906121bf90613ecb565b60405180910390a3600c546121df906001600160a01b0316600080612c10565b6000806001600160a01b03166000805160206146038339815191526040516122069061436e565b60405180910390a361221b6000806000612c10565b600191508015612231576000805461ff00191690555b5095945050505050565b601b6020908152600092835260408084208252918352918190208054825160026001831615610100026000190190921691909104601f81018590048502820185019093528281529290919083018282801561203d5780601f106120125761010080835404028352916020019161203d565b6001600160a01b038316600090815260046020526040902054839062010000900460ff1680156122fa57506001600160a01b038116600090815260026020526040902054610100900460ff16155b6123165760405162461bcd60e51b81526004016108cb90613e4f565b33600090815260046020526040902054610100900460ff16612372576123723384848080601f01602080910402602001604051908101604052809392919081815260200183838082843760009201919091525061238292505050565b61237c8433612609565b50505050565b61238b82612dc1565b50600061239782610b19565b9050806001600160a01b0316836001600160a01b03161415612415576001600160a01b03811660008181526004602052604090819020805461ff001916610100179055517fb3ec32f104accdf61583b5b94e7b80414c5dc5845ffc42e00f5f19775a358a0a90612408908590613d4d565b60405180910390a2610aff565b60405162461bcd60e51b81526004016108cb9061409f565b60185481101561244f5760405162461bcd60e51b81526004016108cb9061410d565b600a5461246d906001600160a01b031684308463ffffffff612e5216565b610aff838383612b52565b6001600160a01b038116600090815260046020526040902054819062010000900460ff1680156124b05750336001600160a01b038216145b806124d75750600c546001600160a01b0316331480156124d757506001600160a01b038116155b6124f35760405162461bcd60e51b81526004016108cb9061433e565b6001600160a01b038216600090815260046020526040902054829062010000900460ff16801561254157506001600160a01b038116600090815260026020526040902054610100900460ff16155b61255d5760405162461bcd60e51b81526004016108cb90613e4f565b600c546001600160a01b0316331480156125a85750600c546001600160a01b038481169116148061259557506001600160a01b038316155b806125a857506001600160a01b03831630145b156125b2576125ee565b6001600160a01b038316600090815260026020819052604090912001546001146125ee5760405162461bcd60e51b81526004016108cb90613deb565b50503360009081526002602052604090204360079091015550565b6001600160a01b03808316600090815260026020908152604080832093851683526009909301905220548290829060ff16156126575760405162461bcd60e51b81526004016108cb906141d4565b61266083612dc1565b506001600160a01b03808416600090815260046020818152604080842094891680855260028084528286209087018054958801855283872086905594865260058701909352932080546001600160a01b031916909317909255546126cb90600163ffffffff612b6616565b600280840191909155810180546001600160a01b0387166000818152600a850160209081526040808320859055938252600b860190529190912080546001600160a01b03191690911790555461272890600163ffffffff612b6616565b6002808301919091556001600160a01b038087166000908152600c840160209081526040808320439055600986018252808320805460ff19166001908117909155938b16835293905291909120600481015460038201546005909201546127909392906128fd565b6001600160a01b03808a1660008181526002602052604080822060058101959095556003850195909555600490930194909455915191881692917f5ffe3cc8f1055f172e55be8d832143a6cffb4cb3a56a18bf780fd4112d4cecc79190a3505050505050565b60608161281b57506040805180820190915260018152600360fc1b6020820152610b36565b8160005b811561283357600101600a8204915061281f565b6060816001600160401b038111801561284b57600080fd5b506040519080825280601f01601f191660200182016040528015612876576020820181803683370190505b50859350905060001982015b83156128c757600a840660300160f81b828280600190039350815181106128a557fe5b60200101906001600160f81b031916908160001a905350600a84049350612882565b50949350505050565b6000828211156128f25760405162461bcd60e51b81526004016108cb90613fb4565b508082035b92915050565b600080808580600189600281111561291157fe5b141561292f5761292882600163ffffffff612b6616565b9150612985565b600089600281111561293d57fe5b14156129545761292882600163ffffffff6128d016565b600289600281111561296257fe5b141561296d57612985565b60405162461bcd60e51b81526004016108cb906141a4565b6000612997438863ffffffff6128d016565b905060006129ab838363ffffffff612b9216565b905060006129bf8a8363ffffffff612b6616565b949c949b50439a509398505050505050505050565b600260015414156129f75760405162461bcd60e51b81526004016108cb90614485565b6002600155600b546040516370a0823160e01b81526000916001600160a01b0316906370a0823190612a2d903090600401613bf1565b60206040518083038186803b158015612a4557600080fd5b505afa158015612a59573d6000803e3d6000fd5b505050506040513d601f19601f82011682018060405250810190612a7d9190613abd565b90506000612a96601354836128d090919063ffffffff16565b90506000612aaa828563ffffffff612b9216565b90506000612ac360175483612bcc90919063ffffffff16565b601354909150612ad9908263ffffffff6128d016565b60135533600090815260066020526040902054612afc908263ffffffff612b6616565b33600081815260066020526040902091909155612b199082612eaa565b50604051819033907ff9984c8173c4b4ff9cc454f76ed19c053f4490ccb224fd9ddffeb4ef4bea353090600090a3505060018055505050565b612b5b81613027565b610aff838383612c10565b600082820183811015612b8b5760405162461bcd60e51b81526004016108cb90613e94565b9392505050565b600082612ba1575060006128f7565b82820282848281612bae57fe5b0414612b8b5760405162461bcd60e51b81526004016108cb9061420b565b6000808211612bed5760405162461bcd60e51b81526004016108cb906140d6565b818381612bf657fe5b049392505050565b6000612c093061322d565b1590505b90565b6000612c1b84612dc1565b90506000612c3a60185461169360175486612b9290919063ffffffff16565b6001600160a01b0386166000908152600460209081526040808320805462ff00001916620100001790556002909152902060018181018690558154929350869260ff191690836003811115612c8b57fe5b02179055506001600160a01b038516600081815260026020908152604080832043600682018190556007820155600801859055600d80548452600390925290912080546001600160a01b03191690921790915554612cf090600163ffffffff612b6616565b600d556001846003811115612d0157fe5b1480612d1857506002846003811115612d1657fe5b145b80612d2e57506003846003811115612d2c57fe5b145b15612d5757612d4a600182601254600f54601054601154613233565b601155601055600f556012555b81158015612d6d57506001600160a01b03851615155b15612d8857600c54612d88906001600160a01b031686612609565b6001600160a01b03851615612da257612da2600086612609565b600c546001600160a01b03868116911614610ca657610ca68586612609565b6001600160a01b03811660009081526004602052604081205460ff1615612dea57506001610b36565b6001600160a01b038216600081815260046020908152604080832043600180830191909155815460ff19168117909155600e805485526005909352922080546001600160a01b0319169093179092559054612e4a9163ffffffff612b6616565b600e55919050565b61237c846323b872dd60e01b858585604051602401612e7393929190613c1f565b60408051601f198184030181529190526020810180516001600160e01b03166001600160e01b03199093169290921790915261339f565b600b5460195460405163095ea7b360e01b81526000926001600160a01b039081169263095ea7b392612ee492909116908690600401613c43565b602060405180830381600087803b158015612efe57600080fd5b505af1158015612f12573d6000803e3d6000fd5b505050506040513d601f19601f82011682018060405250810190612f3691906138dd565b50600b546060805190916001600160a01b0316908290600090612f5557fe5b6001600160a01b039283166020918202929092010152601a54825191169082906001908110612f8057fe5b6001600160a01b0392831660209182029290920101526019546040516338ed173960e01b81529116906338ed173990612fc690869060019086908a9042906004016144fc565b600060405180830381600087803b158015612fe057600080fd5b505af1158015612ff4573d6000803e3d6000fd5b505050506040513d6000823e601f3d908101601f1916820160405261301c9190810190613846565b506001949350505050565b60135461303a908263ffffffff612b6616565b60135560095460408051630261bf8b60e01b815290516001600160a01b03909216916000918391630261bf8b91600480820192602092909190829003018186803b15801561308757600080fd5b505afa15801561309b573d6000803e3d6000fd5b505050506040513d601f19601f820116820180604052508101906130bf919061362f565b9050600a60009054906101000a90046001600160a01b03166001600160a01b031663095ea7b3836001600160a01b031663ed6ff7606040518163ffffffff1660e01b815260040160206040518083038186803b15801561311e57600080fd5b505afa158015613132573d6000803e3d6000fd5b505050506040513d601f19601f82011682018060405250810190613156919061362f565b856040518363ffffffff1660e01b8152600401613174929190613c43565b602060405180830381600087803b15801561318e57600080fd5b505af11580156131a2573d6000803e3d6000fd5b505050506040513d601f19601f820116820180604052508101906131c691906138dd565b50600a54601454604051636968703360e11b81526001600160a01b038085169363d2d0e066936131ff9391909216918891600401613cdf565b600060405180830381600087803b15801561321957600080fd5b505af11580156109ba573d6000803e3d6000fd5b3b151590565b60008080808780828960018e600281111561324a57fe5b141561328c5761326184600163ffffffff612b6616565b9350613273818463ffffffff612b9216565b9150613285828e63ffffffff612b6616565b915061330a565b60008e600281111561329a57fe5b14156132d5576132b184600163ffffffff6128d016565b93506132c3818463ffffffff612b9216565b9150613285828e63ffffffff6128d016565b60028e60028111156132e357fe5b141561296d576132736132fd84600163ffffffff6128d016565b829063ffffffff612b9216565b83600061331d438c63ffffffff6128d016565b90506000613331858863ffffffff612bcc16565b90508c6000613346858563ffffffff612b9216565b9050600061335a828563ffffffff612b9216565b905061336c838263ffffffff612b6616565b9250856001141561337c57600092505b899d50839c50829b50439a50505050505050505050509650965096509692505050565b60606133f4826040518060400160405280602081526020017f5361666545524332303a206c6f772d6c6576656c2063616c6c206661696c6564815250856001600160a01b031661342e9092919063ffffffff16565b805190915015610aff578080602001905181019061341291906138dd565b610aff5760405162461bcd60e51b81526004016108cb9061443b565b606061343d8484600085613445565b949350505050565b6060824710156134675760405162461bcd60e51b81526004016108cb90614059565b6134708561322d565b61348c5760405162461bcd60e51b81526004016108cb906143be565b60006060866001600160a01b031685876040516134a99190613ba1565b60006040518083038185875af1925050503d80600081146134e6576040519150601f19603f3d011682016040523d82523d6000602084013e6134eb565b606091505b50915091506134fb828286613506565b979650505050505050565b60608315613515575081612b8b565b8251156135255782518084602001fd5b8160405162461bcd60e51b81526004016108cb9190613d4d565b828054600181600116156101000203166002900490600052602060002090601f016020900481019282601f1061358057805160ff19168380011785556135ad565b828001600101855582156135ad579182015b828111156135ad578251825591602001919060010190613592565b50611fa692612c0d9250905b80821115611fa657600081556001016135b9565b60008083601f8401126135de578182fd5b5081356001600160401b038111156135f4578182fd5b60208301915083602082850101111561360c57600080fd5b9250929050565b600060208284031215613624578081fd5b8135612b8b816145dd565b600060208284031215613640578081fd5b8151612b8b816145dd565b6000806040838503121561365d578081fd5b8235613668816145dd565b91506020830135613678816145dd565b809150509250929050565b600080600080600060a0868803121561369a578081fd5b85356136a5816145dd565b945060208601356136b5816145dd565b935060408601356136c5816145dd565b925060608601356136d5816145dd565b949793965091946080013592915050565b600080600080606085870312156136fb578384fd5b8435613706816145dd565b93506020850135613716816145dd565b925060408501356001600160401b03811115613730578283fd5b61373c878288016135cd565b95989497509550505050565b60008060006060848603121561375c578283fd5b8335613767816145dd565b92506020840135613777816145dd565b929592945050506040919091013590565b60008060006040848603121561379c578283fd5b83356137a7816145dd565b925060208401356001600160401b038111156137c1578283fd5b6137cd868287016135cd565b9497909650939450505050565b600080604083850312156137ec578182fd5b82356137f7816145dd565b946020939093013593505050565b6000806000806060858703121561381a578384fd5b8435613825816145dd565b93506020850135925060408501356001600160401b03811115613730578283fd5b60006020808385031215613858578182fd5b82516001600160401b0381111561386d578283fd5b80840185601f82011261387e578384fd5b8051915061389361388e83614592565b61456c565b82815283810190828501858502840186018910156138af578687fd5b8693505b848410156138d15780518352600193909301929185019185016138b3565b50979650505050505050565b6000602082840312156138ee578081fd5b81518015158114612b8b578182fd5b6000806020838503121561390f578182fd5b82356001600160401b03811115613924578283fd5b613930858286016135cd565b90969095509350505050565b6000602080838503121561394e578182fd5b82356001600160401b0380821115613964578384fd5b81850186601f820112613975578485fd5b8035925081831115613985578485fd5b613997601f8401601f1916850161456c565b915082825286848483010111156139ac578485fd5b8284820185840137509081019091019190915292915050565b600080600080600080608087890312156139dd578384fd5b86356139e8816145f5565b955060208701356001600160401b0380821115613a03578586fd5b613a0f8a838b016135cd565b90975095506040890135915080821115613a27578283fd5b50613a3489828a016135cd565b979a9699509497949695606090950135949350505050565b60008060008060608587031215613a61578182fd5b8435613a6c816145f5565b935060208501356001600160401b03811115613a86578283fd5b613a92878288016135cd565b9598909750949560400135949350505050565b600060208284031215613ab6578081fd5b5035919050565b600060208284031215613ace578081fd5b5051919050565b600080600080600060608688031215613aec578283fd5b8535945060208601356001600160401b0380821115613b09578485fd5b613b1589838a016135cd565b90965094506040880135915080821115613b2d578283fd5b50613b3a888289016135cd565b969995985093965092949392505050565b60008284528282602086013780602084860101526020601f19601f85011685010190509392505050565b60008151808452613b8d8160208601602086016145b1565b601f01601f19169290920160200192915050565b60008251613bb38184602087016145b1565b9190910192915050565b60008451613bcf8184602089016145b1565b808301602b60f81b815284866001830137909301600101908152949350505050565b6001600160a01b0391909116815260200190565b6001600160a01b0392831681529116602082015260400190565b6001600160a01b039384168152919092166020820152604081019190915260600190565b6001600160a01b03929092168252602082015260400190565b600060018060a01b038716825285602083015260806040830152613c836080830186613b75565b8281036060840152613c96818587613b4b565b98975050505050505050565b6001600160a01b0385811682528416602082015260408101839052608060608201819052600090613cd590830184613b75565b9695505050505050565b6001600160a01b03939093168352602083019190915261ffff16604082015260600190565b901515815260200190565b9515158652931515602086015291151560408501526060840152608083015260a082015260c00190565b60006020825261343d602083018486613b4b565b600060208252612b8b6020830184613b75565b610140810160048c10613d6f57fe5b9a815298151560208a015260408901979097526060880195909552608087019390935260a086019190915260c085015260e08401526101008301526101209091015290565b6020808252601c908201527f5573657220616c72656164792061204368616e6e656c204f776e657200000000604082015260600190565b6020808252818101527f4368616e6e656c206861732065787465726e616c207375627363726962657273604082015260600190565b60208082526015908201527421b7b73a3930b1ba103430b990283937b6b7ba32b960591b604082015260600190565b60208082526025908201527f4368616e6e656c206465616374697661746564206f7220646f65736e27742065604082015264786973747360d81b606082015260800190565b6020808252601b908201527f536166654d6174683a206164646974696f6e206f766572666c6f770000000000604082015260600190565b60208082526030908201527f312b516d5362525431364a56463932327941423236597857464436446d47736e60408201526f14d21b4e15909c91d5545b961514cdcd60821b606082015260800190565b60208082526030908201527f312b516d526365776e4e70647432445759757564334c784854776f783252715160408201526f1c3abcad2ba2251b32ac9b34a435b33760811b606082015260800190565b60208082526029908201527f45504e53436f72653a3a6f6e6c79476f762c2075736572206973206e6f7420676040820152686f7665726e616e636560b81b606082015260800190565b6020808252601e908201527f536166654d6174683a207375627472616374696f6e206f766572666c6f770000604082015260600190565b60208082526048908201527f45504e53436f72653a3a7472616e73666572476f7665726e616e63652c206e6560408201527f7720676f7665726e616e63652063616e27742062652063757272656e7420676f6060820152677665726e616e636560c01b608082015260a00190565b60208082526026908201527f416464726573733a20696e73756666696369656e742062616c616e636520666f6040820152651c8818d85b1b60d21b606082015260800190565b6020808252601c908201527f5075626c6963204b65792056616c69646174696f6e204661696c656400000000604082015260600190565b6020808252601a908201527f536166654d6174683a206469766973696f6e206279207a65726f000000000000604082015260600190565b60208082526029908201527f496e73756666696369656e742046756e6473206f72206d6178206365696c696e60408201526819c81c995858da195960ba1b606082015260800190565b6020808252602e908201527f496e697469616c697a61626c653a20636f6e747261637420697320616c72656160408201526d191e481a5b9a5d1a585b1a5e995960921b606082015260800190565b60208082526016908201527524b73b30b634b21021b430b73732b61020b1ba34b7b760511b604082015260600190565b60208082526019908201527f5375627363726962657220616c72656164792045786973747300000000000000604082015260600190565b60208082526021908201527f536166654d6174683a206d756c7469706c69636174696f6e206f766572666c6f6040820152607760f81b606082015260800190565b60208082526014908201527310da185b9b995b08151e5c1948125b9d985b1a5960621b604082015260600190565b6020808252603a908201527f45504e53436f72653a3a7472616e73666572476f7665726e616e63652c206e6560408201527f7720676f7665726e616e63652063616e2774206265206e6f6e65000000000000606082015260800190565b60208082526019908201527f5375627363726962657220646f65736e27742045786973747300000000000000604082015260600190565b602080825260169082015275155cd95c881b9bdd081858dd1a5d985d1959081e595d60521b604082015260600190565b6020808252601690820152754368616e6e656c20646f65736e27742045786973747360501b604082015260600190565b60208082526030908201527f312b516d54434b594c324852627744366e474e76464c6534775076444e75615960408201526f477236526956654376576a56706e357360801b606082015260800190565b6020808252601d908201527f416464726573733a2063616c6c20746f206e6f6e2d636f6e7472616374000000604082015260600190565b60208082526026908201527f456974686572204368616e6e656c204f776e6572206f72204e6f74205375627360408201526518dc9a58995960d21b606082015260800190565b6020808252602a908201527f5361666545524332303a204552433230206f7065726174696f6e20646964206e6040820152691bdd081cdd58d8d9595960b21b606082015260800190565b6020808252601f908201527f5265656e7472616e637947756172643a207265656e7472616e742063616c6c00604082015260600190565b6020808252601f908201527f4e6f7420617574686f726973656420746f2073656e64206d6573736167657300604082015260600190565b90815260200190565b600060a082018783526020878185015260a0604085015281875180845260c0860191508289019350845b8181101561454b5784516001600160a01b031683529383019391830191600101614526565b50506001600160a01b03969096166060850152505050608001529392505050565b6040518181016001600160401b038111828210171561458a57600080fd5b604052919050565b60006001600160401b038211156145a7578081fd5b5060209081020190565b60005b838110156145cc5781810151838201526020016145b4565b8381111561237c5750506000910152565b6001600160a01b03811681146145f257600080fd5b50565b600481106145f257600080fdfe1f97bc77a1686355f130d93883d42f2434474cf65f97b29bc451ea7f9388d36aa2646970667358221220f1e5652de320b91de613b9c7e6ab84f9ff2c8881333827b7531f97b5cef4d2f064736f6c634300060b0033",
  "linkReferences": {},
  "deployedLinkReferences": {}
}