{
  "_format": "hh-sol-artifact-1",
  "contractName": "EPNSStagingV4",
  "sourceName": "contracts/EPNS_StagingV4.sol",
  "abi": [
    {
      "anonymous": false,
      "inputs": [
        {
          "indexed": true,
          "internalType": "address",
          "name": "channel",
          "type": "address"
        },
        {
          "indexed": true,
          "internalType": "enum EPNSStagingV4.ChannelType",
          "name": "channelType",
          "type": "uint8"
        },
        {
          "indexed": false,
          "internalType": "bytes",
          "name": "identity",
          "type": "bytes"
        }
      ],
      "name": "AddChannel",
      "type": "event"
    },
    {
      "anonymous": false,
      "inputs": [
        {
          "indexed": false,
          "internalType": "address",
          "name": "channel",
          "type": "address"
        },
        {
          "indexed": false,
          "internalType": "address",
          "name": "delegate",
          "type": "address"
        }
      ],
      "name": "AddDelegate",
      "type": "event"
    },
    {
      "anonymous": false,
      "inputs": [
        {
          "indexed": false,
          "internalType": "address",
          "name": "_channel",
          "type": "address"
        },
        {
          "indexed": false,
          "internalType": "uint256",
          "name": "totalNotifOptions",
          "type": "uint256"
        },
        {
          "indexed": false,
          "internalType": "string",
          "name": "_notifSettings",
          "type": "string"
        },
        {
          "indexed": false,
          "internalType": "string",
          "name": "_notifDescription",
          "type": "string"
        }
      ],
      "name": "ChannelNotifcationSettingsAdded",
      "type": "event"
    },
    {
      "anonymous": false,
      "inputs": [
        {
          "indexed": true,
          "internalType": "address",
          "name": "channel",
          "type": "address"
        }
      ],
      "name": "DeactivateChannel",
      "type": "event"
    },
    {
      "anonymous": false,
      "inputs": [
        {
          "indexed": true,
          "internalType": "address",
          "name": "user",
          "type": "address"
        },
        {
          "indexed": true,
          "internalType": "uint256",
          "name": "amount",
          "type": "uint256"
        }
      ],
      "name": "InterestClaimed",
      "type": "event"
    },
    {
      "anonymous": false,
      "inputs": [
        {
          "indexed": true,
          "internalType": "address",
          "name": "owner",
          "type": "address"
        },
        {
          "indexed": false,
          "internalType": "bytes",
          "name": "publickey",
          "type": "bytes"
        }
      ],
      "name": "PublicKeyRegistered",
      "type": "event"
    },
    {
      "anonymous": false,
      "inputs": [
        {
          "indexed": false,
          "internalType": "address",
          "name": "channel",
          "type": "address"
        },
        {
          "indexed": false,
          "internalType": "address",
          "name": "delegate",
          "type": "address"
        }
      ],
      "name": "RemoveDelegate",
      "type": "event"
    },
    {
      "anonymous": false,
      "inputs": [
        {
          "indexed": true,
          "internalType": "address",
          "name": "channel",
          "type": "address"
        },
        {
          "indexed": true,
          "internalType": "address",
          "name": "recipient",
          "type": "address"
        },
        {
          "indexed": false,
          "internalType": "bytes",
          "name": "identity",
          "type": "bytes"
        }
      ],
      "name": "SendNotification",
      "type": "event"
    },
    {
      "anonymous": false,
      "inputs": [
        {
          "indexed": true,
          "internalType": "address",
          "name": "channel",
          "type": "address"
        },
        {
          "indexed": true,
          "internalType": "address",
          "name": "user",
          "type": "address"
        }
      ],
      "name": "Subscribe",
      "type": "event"
    },
    {
      "anonymous": false,
      "inputs": [
        {
          "indexed": true,
          "internalType": "address",
          "name": "channel",
          "type": "address"
        },
        {
          "indexed": true,
          "internalType": "address",
          "name": "user",
          "type": "address"
        }
      ],
      "name": "Unsubscribe",
      "type": "event"
    },
    {
      "anonymous": false,
      "inputs": [
        {
          "indexed": true,
          "internalType": "address",
          "name": "channel",
          "type": "address"
        },
        {
          "indexed": false,
          "internalType": "bytes",
          "name": "identity",
          "type": "bytes"
        }
      ],
      "name": "UpdateChannel",
      "type": "event"
    },
    {
      "anonymous": false,
      "inputs": [
        {
          "indexed": false,
          "internalType": "address",
          "name": "_channel",
          "type": "address"
        },
        {
          "indexed": false,
          "internalType": "address",
          "name": "_user",
          "type": "address"
        },
        {
          "indexed": false,
          "internalType": "uint256",
          "name": "_notifID",
          "type": "uint256"
        },
        {
          "indexed": false,
          "internalType": "string",
          "name": "_notifSettings",
          "type": "string"
        }
      ],
      "name": "UserNotifcationSettingsAdded",
      "type": "event"
    },
    {
      "anonymous": false,
      "inputs": [
        {
          "indexed": true,
          "internalType": "address",
          "name": "to",
          "type": "address"
        },
        {
          "indexed": false,
          "internalType": "address",
          "name": "token",
          "type": "address"
        },
        {
          "indexed": false,
          "internalType": "uint256",
          "name": "amount",
          "type": "uint256"
        }
      ],
      "name": "Withdrawal",
      "type": "event"
    },
    {
      "inputs": [],
      "name": "REFERRAL_CODE",
      "outputs": [
        {
          "internalType": "uint256",
          "name": "",
          "type": "uint256"
        }
      ],
      "stateMutability": "view",
      "type": "function"
    },
    {
      "inputs": [],
      "name": "aDaiAddress",
      "outputs": [
        {
          "internalType": "address",
          "name": "",
          "type": "address"
        }
      ],
      "stateMutability": "view",
      "type": "function"
    },
    {
      "inputs": [
        {
          "internalType": "address",
          "name": "_delegate",
          "type": "address"
        }
      ],
      "name": "addDelegate",
      "outputs": [],
      "stateMutability": "nonpayable",
      "type": "function"
    },
    {
      "inputs": [
        {
          "internalType": "bytes",
          "name": "_publicKey",
          "type": "bytes"
        }
      ],
      "name": "broadcastUserPublicKey",
      "outputs": [],
      "stateMutability": "nonpayable",
      "type": "function"
    },
    {
      "inputs": [
        {
          "internalType": "address",
          "name": "_user",
          "type": "address"
        },
        {
          "internalType": "uint256",
          "name": "_block",
          "type": "uint256"
        }
      ],
      "name": "calcAllChannelsRatio",
      "outputs": [
        {
          "internalType": "uint256",
          "name": "ratio",
          "type": "uint256"
        }
      ],
      "stateMutability": "view",
      "type": "function"
    },
    {
      "inputs": [
        {
          "internalType": "address",
          "name": "_channel",
          "type": "address"
        },
        {
          "internalType": "address",
          "name": "_user",
          "type": "address"
        },
        {
          "internalType": "uint256",
          "name": "_block",
          "type": "uint256"
        }
      ],
      "name": "calcSingleChannelEarnRatio",
      "outputs": [
        {
          "internalType": "uint256",
          "name": "ratio",
          "type": "uint256"
        }
      ],
      "stateMutability": "view",
      "type": "function"
    },
    {
      "inputs": [
        {
          "internalType": "address",
          "name": "",
          "type": "address"
        }
      ],
      "name": "channelNotifSettings",
      "outputs": [
        {
          "internalType": "string",
          "name": "",
          "type": "string"
        }
      ],
      "stateMutability": "view",
      "type": "function"
    },
    {
      "inputs": [
        {
          "internalType": "address",
          "name": "",
          "type": "address"
        }
      ],
      "name": "channels",
      "outputs": [
        {
          "internalType": "enum EPNSStagingV4.ChannelType",
          "name": "channelType",
          "type": "uint8"
        },
        {
          "internalType": "bool",
          "name": "deactivated",
          "type": "bool"
        },
        {
          "internalType": "uint256",
          "name": "poolContribution",
          "type": "uint256"
        },
        {
          "internalType": "uint256",
          "name": "memberCount",
          "type": "uint256"
        },
        {
          "internalType": "uint256",
          "name": "channelHistoricalZ",
          "type": "uint256"
        },
        {
          "internalType": "uint256",
          "name": "channelFairShareCount",
          "type": "uint256"
        },
        {
          "internalType": "uint256",
          "name": "channelLastUpdate",
          "type": "uint256"
        },
        {
          "internalType": "uint256",
          "name": "channelStartBlock",
          "type": "uint256"
        },
        {
          "internalType": "uint256",
          "name": "channelUpdateBlock",
          "type": "uint256"
        },
        {
          "internalType": "uint256",
          "name": "channelWeight",
          "type": "uint256"
        }
      ],
      "stateMutability": "view",
      "type": "function"
    },
    {
      "inputs": [],
      "name": "channelsCount",
      "outputs": [
        {
          "internalType": "uint256",
          "name": "",
          "type": "uint256"
        }
      ],
      "stateMutability": "view",
      "type": "function"
    },
    {
      "inputs": [],
      "name": "claimFairShare",
      "outputs": [
        {
          "internalType": "uint256",
          "name": "ratio",
          "type": "uint256"
        }
      ],
      "stateMutability": "nonpayable",
      "type": "function"
    },
    {
      "inputs": [
        {
          "internalType": "uint256",
          "name": "_notifOptions",
          "type": "uint256"
        },
        {
          "internalType": "string",
          "name": "_notifSettings",
          "type": "string"
        },
        {
          "internalType": "string",
          "name": "_notifDescription",
          "type": "string"
        }
      ],
      "name": "createChannelNotificationSettings",
      "outputs": [],
      "stateMutability": "nonpayable",
      "type": "function"
    },
    {
      "inputs": [
        {
          "internalType": "enum EPNSStagingV4.ChannelType",
          "name": "_channelType",
          "type": "uint8"
        },
        {
          "internalType": "bytes",
          "name": "_identity",
          "type": "bytes"
        },
        {
          "internalType": "uint256",
          "name": "_amount",
          "type": "uint256"
        }
      ],
      "name": "createChannelWithFees",
      "outputs": [],
      "stateMutability": "nonpayable",
      "type": "function"
    },
    {
      "inputs": [
        {
          "internalType": "enum EPNSStagingV4.ChannelType",
          "name": "_channelType",
          "type": "uint8"
        },
        {
          "internalType": "bytes",
          "name": "_identity",
          "type": "bytes"
        },
        {
          "internalType": "bytes",
          "name": "_publickey",
          "type": "bytes"
        },
        {
          "internalType": "uint256",
          "name": "_amount",
          "type": "uint256"
        }
      ],
      "name": "createChannelWithFeesAndPublicKey",
      "outputs": [],
      "stateMutability": "nonpayable",
      "type": "function"
    },
    {
      "inputs": [],
      "name": "createPromoterChannel",
      "outputs": [],
      "stateMutability": "nonpayable",
      "type": "function"
    },
    {
      "inputs": [],
      "name": "daiAddress",
      "outputs": [
        {
          "internalType": "address",
          "name": "",
          "type": "address"
        }
      ],
      "stateMutability": "view",
      "type": "function"
    },
    {
      "inputs": [],
      "name": "deactivateChannel",
      "outputs": [],
      "stateMutability": "nonpayable",
      "type": "function"
    },
    {
      "inputs": [
        {
          "internalType": "address",
          "name": "",
          "type": "address"
        },
        {
          "internalType": "address",
          "name": "",
          "type": "address"
        }
      ],
      "name": "delegated_NotificationSenders",
      "outputs": [
        {
          "internalType": "bool",
          "name": "",
          "type": "bool"
        }
      ],
      "stateMutability": "view",
      "type": "function"
    },
    {
      "inputs": [
        {
          "internalType": "address",
          "name": "_channel",
          "type": "address"
        },
        {
          "internalType": "uint256",
          "name": "_block",
          "type": "uint256"
        }
      ],
      "name": "getChannelFSRatio",
      "outputs": [
        {
          "internalType": "uint256",
          "name": "ratio",
          "type": "uint256"
        }
      ],
      "stateMutability": "view",
      "type": "function"
    },
    {
      "inputs": [
        {
          "internalType": "address",
          "name": "_channel",
          "type": "address"
        },
        {
          "internalType": "uint256",
          "name": "_subscriberId",
          "type": "uint256"
        }
      ],
      "name": "getChannelSubscriberAddress",
      "outputs": [
        {
          "internalType": "address",
          "name": "subscriber",
          "type": "address"
        }
      ],
      "stateMutability": "view",
      "type": "function"
    },
    {
      "inputs": [
        {
          "internalType": "address",
          "name": "_channel",
          "type": "address"
        },
        {
          "internalType": "uint256",
          "name": "_subscriberId",
          "type": "uint256"
        }
      ],
      "name": "getChannelSubscriberUserID",
      "outputs": [
        {
          "internalType": "uint256",
          "name": "userId",
          "type": "uint256"
        }
      ],
      "stateMutability": "view",
      "type": "function"
    },
    {
      "inputs": [
        {
          "internalType": "address",
          "name": "_channel",
          "type": "address"
        },
        {
          "internalType": "address",
          "name": "_user",
          "type": "address"
        },
        {
          "internalType": "uint256",
          "name": "_block",
          "type": "uint256"
        }
      ],
      "name": "getSubscriberFSRatio",
      "outputs": [
        {
          "internalType": "uint256",
          "name": "ratio",
          "type": "uint256"
        }
      ],
      "stateMutability": "view",
      "type": "function"
    },
    {
      "inputs": [
        {
          "internalType": "bytes",
          "name": "_publicKey",
          "type": "bytes"
        }
      ],
      "name": "getWalletFromPublicKey",
      "outputs": [
        {
          "internalType": "address",
          "name": "wallet",
          "type": "address"
        }
      ],
      "stateMutability": "pure",
      "type": "function"
    },
    {
      "inputs": [],
      "name": "governance",
      "outputs": [
        {
          "internalType": "address",
          "name": "",
          "type": "address"
        }
      ],
      "stateMutability": "view",
      "type": "function"
    },
    {
      "inputs": [],
      "name": "groupFairShareCount",
      "outputs": [
        {
          "internalType": "uint256",
          "name": "",
          "type": "uint256"
        }
      ],
      "stateMutability": "view",
      "type": "function"
    },
    {
      "inputs": [],
      "name": "groupHistoricalZ",
      "outputs": [
        {
          "internalType": "uint256",
          "name": "",
          "type": "uint256"
        }
      ],
      "stateMutability": "view",
      "type": "function"
    },
    {
      "inputs": [],
      "name": "groupLastUpdate",
      "outputs": [
        {
          "internalType": "uint256",
          "name": "",
          "type": "uint256"
        }
      ],
      "stateMutability": "view",
      "type": "function"
    },
    {
      "inputs": [],
      "name": "groupNormalizedWeight",
      "outputs": [
        {
          "internalType": "uint256",
          "name": "",
          "type": "uint256"
        }
      ],
      "stateMutability": "view",
      "type": "function"
    },
    {
      "inputs": [
        {
          "internalType": "address",
          "name": "_governance",
          "type": "address"
        },
        {
          "internalType": "address",
          "name": "_lendingPoolProviderAddress",
          "type": "address"
        },
        {
          "internalType": "address",
          "name": "_daiAddress",
          "type": "address"
        },
        {
          "internalType": "address",
          "name": "_aDaiAddress",
          "type": "address"
        },
        {
          "internalType": "uint256",
          "name": "_referralCode",
          "type": "uint256"
        }
      ],
      "name": "initialize",
      "outputs": [
        {
          "internalType": "bool",
          "name": "success",
          "type": "bool"
        }
      ],
      "stateMutability": "nonpayable",
      "type": "function"
    },
    {
      "inputs": [],
      "name": "lendingPoolProviderAddress",
      "outputs": [
        {
          "internalType": "address",
          "name": "",
          "type": "address"
        }
      ],
      "stateMutability": "view",
      "type": "function"
    },
    {
      "inputs": [
        {
          "internalType": "uint256",
          "name": "",
          "type": "uint256"
        }
      ],
      "name": "mapAddressChannels",
      "outputs": [
        {
          "internalType": "address",
          "name": "",
          "type": "address"
        }
      ],
      "stateMutability": "view",
      "type": "function"
    },
    {
      "inputs": [
        {
          "internalType": "uint256",
          "name": "",
          "type": "uint256"
        }
      ],
      "name": "mapAddressUsers",
      "outputs": [
        {
          "internalType": "address",
          "name": "",
          "type": "address"
        }
      ],
      "stateMutability": "view",
      "type": "function"
    },
    {
      "inputs": [
        {
          "internalType": "address",
          "name": "_user",
          "type": "address"
        },
        {
          "internalType": "address",
          "name": "_channel",
          "type": "address"
        }
      ],
      "name": "memberExists",
      "outputs": [
        {
          "internalType": "bool",
          "name": "subscribed",
          "type": "bool"
        }
      ],
      "stateMutability": "view",
      "type": "function"
    },
    {
      "inputs": [],
      "name": "poolFunds",
      "outputs": [
        {
          "internalType": "uint256",
          "name": "",
          "type": "uint256"
        }
      ],
      "stateMutability": "view",
      "type": "function"
    },
    {
      "inputs": [
        {
          "internalType": "address",
          "name": "_delegate",
          "type": "address"
        }
      ],
      "name": "removeDelegate",
      "outputs": [],
      "stateMutability": "nonpayable",
      "type": "function"
    },
    {
      "inputs": [
        {
          "internalType": "address",
          "name": "_recipient",
          "type": "address"
        },
        {
          "internalType": "bytes",
          "name": "_identity",
          "type": "bytes"
        }
      ],
      "name": "sendNotification",
      "outputs": [],
      "stateMutability": "nonpayable",
      "type": "function"
    },
    {
      "inputs": [
        {
          "internalType": "address",
          "name": "_channel",
          "type": "address"
        },
        {
          "internalType": "address",
          "name": "_recipient",
          "type": "address"
        },
        {
          "internalType": "bytes",
          "name": "_identity",
          "type": "bytes"
        }
      ],
      "name": "sendNotificationAsDelegate",
      "outputs": [],
      "stateMutability": "nonpayable",
      "type": "function"
    },
    {
      "inputs": [
        {
          "internalType": "address",
          "name": "_channel",
          "type": "address"
        }
      ],
      "name": "subscribe",
      "outputs": [],
      "stateMutability": "nonpayable",
      "type": "function"
    },
    {
      "inputs": [
        {
          "internalType": "address",
          "name": "_channel",
          "type": "address"
        },
        {
          "internalType": "uint256",
          "name": "_notifID",
          "type": "uint256"
        },
        {
          "internalType": "string",
          "name": "_notifSettings",
          "type": "string"
        }
      ],
      "name": "subscribeToSpecificNotification",
      "outputs": [],
      "stateMutability": "nonpayable",
      "type": "function"
    },
    {
      "inputs": [
        {
          "internalType": "address",
          "name": "_channel",
          "type": "address"
        },
        {
          "internalType": "bytes",
          "name": "_publicKey",
          "type": "bytes"
        }
      ],
      "name": "subscribeWithPublicKey",
      "outputs": [],
      "stateMutability": "nonpayable",
      "type": "function"
    },
    {
      "inputs": [
        {
          "internalType": "address",
          "name": "_newGovernance",
          "type": "address"
        }
      ],
      "name": "transferGovernance",
      "outputs": [],
      "stateMutability": "nonpayable",
      "type": "function"
    },
    {
      "inputs": [
        {
          "internalType": "address",
          "name": "_channel",
          "type": "address"
        }
      ],
      "name": "unsubscribe",
      "outputs": [
        {
          "internalType": "uint256",
          "name": "ratio",
          "type": "uint256"
        }
      ],
      "stateMutability": "nonpayable",
      "type": "function"
    },
    {
      "inputs": [
        {
          "internalType": "address",
          "name": "_channel",
          "type": "address"
        },
        {
          "internalType": "bytes",
          "name": "_identity",
          "type": "bytes"
        }
      ],
      "name": "updateChannelMeta",
      "outputs": [],
      "stateMutability": "nonpayable",
      "type": "function"
    },
    {
      "inputs": [
        {
          "internalType": "address",
          "name": "",
          "type": "address"
        },
        {
          "internalType": "address",
          "name": "",
          "type": "address"
        }
      ],
      "name": "userToChannelNotifs",
      "outputs": [
        {
          "internalType": "string",
          "name": "",
          "type": "string"
        }
      ],
      "stateMutability": "view",
      "type": "function"
    },
    {
      "inputs": [
        {
          "internalType": "address",
          "name": "",
          "type": "address"
        }
      ],
      "name": "users",
      "outputs": [
        {
          "internalType": "bool",
          "name": "userActivated",
          "type": "bool"
        },
        {
          "internalType": "bool",
          "name": "publicKeyRegistered",
          "type": "bool"
        },
        {
          "internalType": "bool",
          "name": "channellized",
          "type": "bool"
        },
        {
          "internalType": "uint256",
          "name": "userStartBlock",
          "type": "uint256"
        },
        {
          "internalType": "uint256",
          "name": "subscribedCount",
          "type": "uint256"
        },
        {
          "internalType": "uint256",
          "name": "timeWeightedBalance",
          "type": "uint256"
        }
      ],
      "stateMutability": "view",
      "type": "function"
    },
    {
      "inputs": [],
      "name": "usersCount",
      "outputs": [
        {
          "internalType": "uint256",
          "name": "",
          "type": "uint256"
        }
      ],
      "stateMutability": "view",
      "type": "function"
    },
    {
      "inputs": [
        {
          "internalType": "address",
          "name": "",
          "type": "address"
        }
      ],
      "name": "usersInterestClaimed",
      "outputs": [
        {
          "internalType": "uint256",
          "name": "",
          "type": "uint256"
        }
      ],
      "stateMutability": "view",
      "type": "function"
    },
    {
      "inputs": [
        {
          "internalType": "address",
          "name": "",
          "type": "address"
        }
      ],
      "name": "usersInterestInWallet",
      "outputs": [
        {
          "internalType": "uint256",
          "name": "",
          "type": "uint256"
        }
      ],
      "stateMutability": "view",
      "type": "function"
    },
    {
      "inputs": [],
      "name": "withdrawEthFunds",
      "outputs": [],
      "stateMutability": "nonpayable",
      "type": "function"
    },
    {
      "stateMutability": "payable",
      "type": "receive"
    }
  ],
  "bytecode": "0x608060405234801561001057600080fd5b5060018055614350806100246000396000f3fe6080604052600436106102975760003560e01c80637dce34f71161015a578063c086cfeb116100c1578063e8846d711161007a578063e8846d7114610798578063e886dd0c146107b8578063eea0b5c5146107cd578063f7013ef6146107fa578063f83c7f771461081a578063fde360011461083a5761029e565b8063c086cfeb146106e3578063d38bfff414610703578063d3db49cb14610723578063daa947f514610743578063df875fbf14610758578063e71bdf41146107785761029e565b8063aba0332511610113578063aba0332514610639578063b1da2b2e1461064e578063b677c7a71461066e578063b9d048df1461068e578063bc2104d2146106ae578063be3e9ba7146106c35761029e565b80637dce34f7146105515780637faf7ff61461058757806383efb0dd146105a75780639019c69f146105c757806398d2f06a146105e7578063a87430ba146106075761029e565b806351489826116101fe57806368a8e5b6116101b757806368a8e5b6146104c857806369fb0ede146104dd5780636ba13a82146104f25780636d1b6d46146105075780637262561c1461051c57806375e880fc1461053c5761029e565b8063514898261461041e5780635227dd051461043e57806355091fe51461045e5780635aa6e67514610473578063624350f21461048857806367e7646f146104a85761029e565b8063211ea14811610250578063211ea148146103675780632c387275146103875780633583849a1461039c5780634134465a146103b157806341a7726a146103d15780634ff32245146103f15761029e565b806302b19d3c146102a3578063098b2041146102c55780630ded7731146102f0578063110e01a81461031257806311e29738146103275780631e919cb7146103475761029e565b3661029e57005b600080fd5b3480156102af57600080fd5b506102c36102be366004613774565b61085a565b005b3480156102d157600080fd5b506102da610988565b6040516102e791906139a9565b60405180910390f35b3480156102fc57600080fd5b50610305610997565b6040516102e791906142a1565b34801561031e57600080fd5b5061030561099d565b34801561033357600080fd5b506102c36103423660046135b9565b6109a3565b34801561035357600080fd5b50610305610362366004613443565b610a66565b34801561037357600080fd5b506102c36103823660046135b9565b610a78565b34801561039357600080fd5b506102da610ac9565b3480156103a857600080fd5b50610305610ad8565b3480156103bd57600080fd5b506102da6103cc3660046136d9565b610ade565b3480156103dd57600080fd5b506102c36103ec366004613443565b610b00565b3480156103fd57600080fd5b5061041161040c36600461347b565b610b78565b6040516102e79190613ab2565b34801561042a57600080fd5b506102c36104393660046137ff565b610bab565b34801561044a57600080fd5b506102da61045936600461385c565b610c72565b34801561046a57600080fd5b50610305610c8d565b34801561047f57600080fd5b506102da610c93565b34801561049457600080fd5b506102c36104a3366004613637565b610ca2565b3480156104b457600080fd5b506102c36104c3366004613443565b610d99565b3480156104d457600080fd5b50610305610e70565b3480156104e957600080fd5b506102c3610e76565b3480156104fe57600080fd5b50610305610f25565b34801561051357600080fd5b506102da610f2b565b34801561052857600080fd5b50610305610537366004613443565b610f3a565b34801561054857600080fd5b506102c3611255565b34801561055d57600080fd5b5061057161056c366004613443565b611352565b6040516102e79a99989796959493929190613b0e565b34801561059357600080fd5b506103056105a236600461360c565b61139f565b3480156105b357600080fd5b506103056105c2366004613579565b61153b565b3480156105d357600080fd5b506102c36105e2366004613699565b611672565b3480156105f357600080fd5b506102da61060236600461360c565b6116d4565b34801561061357600080fd5b50610627610622366004613443565b611700565b6040516102e796959493929190613abd565b34801561064557600080fd5b506102c361173c565b34801561065a57600080fd5b5061041161066936600461347b565b6117e0565b34801561067a57600080fd5b5061030561068936600461360c565b611800565b34801561069a57600080fd5b506103056106a936600461360c565b6118e8565b3480156106ba57600080fd5b50610305611923565b3480156106cf57600080fd5b506103056106de366004613443565b611929565b3480156106ef57600080fd5b506102c36106fe36600461388c565b61193b565b34801561070f57600080fd5b506102c361071e366004613443565b611a24565b34801561072f57600080fd5b506102da61073e36600461385c565b611ac4565b34801561074f57600080fd5b50610305611adf565b34801561076457600080fd5b506102c3610773366004613516565b611ae5565b34801561078457600080fd5b506102c3610793366004613443565b611b81565b3480156107a457600080fd5b506103056107b3366004613579565b611c4f565b3480156107c457600080fd5b50610305611d72565b3480156107d957600080fd5b506107ed6107e8366004613443565b611f23565b6040516102e79190613afb565b34801561080657600080fd5b506104116108153660046134b3565b611fbe565b34801561082657600080fd5b506107ed61083536600461347b565b61216d565b34801561084657600080fd5b506102c36108553660046135b9565b6121de565b3360009081526004602052604090205462010000900460ff16156108995760405162461bcd60e51b815260040161089090613b62565b60405180910390fd5b8560028160038111156108a857fe5b14806108bf575060038160038111156108bd57fe5b145b6108db5760405162461bcd60e51b815260040161089090613ffa565b8660038111156108e757fe5b336001600160a01b03166000805160206142fb8339815191528888604051610910929190613ae7565b60405180910390a333600090815260046020526040902054610100900460ff16610974576109743385858080601f0160208091040260200160405190810160405280939291908181526020018383808284376000920191909152506122b492505050565b61097f33888461235f565b50505050505050565b600b546001600160a01b031681565b600f5481565b60115481565b3360008181526004602052604090205462010000900460ff1680156109d05750336001600160a01b038216145b806109f75750600c546001600160a01b0316331480156109f757506001600160a01b038116155b610a135760405162461bcd60e51b8152600401610890906140ec565b836001600160a01b0316336001600160a01b03167fcc2b84a32bce3d060db75a4c0e59bfef192503be5c83bfa5ad79a41d384ff22c8585604051610a58929190613ae7565b60405180910390a350505050565b60066020526000908152604090205481565b826001600160a01b03167fdd0f9713dcb5498a41e3486b288bc746b035efb57770050da0ec0e800154532c8383604051610ab3929190613ae7565b60405180910390a2610ac4836123aa565b505050565b600a546001600160a01b031681565b60145481565b6000815160401415610af7575080516020820120610afb565b5060005b919050565b6001600160a01b038116600090815260046020526040902054819062010000900460ff168015610b4e57506001600160a01b038116600090815260026020526040902054610100900460ff16155b610b6a5760405162461bcd60e51b815260040161089090613bfd565b610b74823361253b565b5050565b6001600160a01b039081166000908152600260209081526040808320949093168252600990930190925290205460ff1690565b3360009081526004602052604090205462010000900460ff1615610be15760405162461bcd60e51b815260040161089090613b62565b836002816003811115610bf057fe5b1480610c0757506003816003811115610c0557fe5b145b610c235760405162461bcd60e51b815260040161089090613ffa565b846003811115610c2f57fe5b336001600160a01b03166000805160206142fb8339815191528686604051610c58929190613ae7565b60405180910390a3610c6b33868461235f565b5050505050565b6005602052600090815260409020546001600160a01b031681565b600d5481565b600c546001600160a01b031681565b6001600160a01b03841660009081526002602090815260408083203380855260099091019092529091205485919060ff16610cef5760405162461bcd60e51b815260040161089090614085565b6060610cfa86612728565b8585604051602001610d0e93929190613975565b60408051601f19818403018152918152336000908152601960209081528282206001600160a01b038c16835281529190208251929350610d5292909184019061336e565b507f790dac2f69fa06ffde2a1ba07cccf57910606213ce442099a2ab6ebe3bedc0ad87338884604051610d889493929190613a5a565b60405180910390a150505050505050565b3360008181526004602052604090205462010000900460ff168015610dc65750336001600160a01b038216145b80610ded5750600c546001600160a01b031633148015610ded57506001600160a01b038116155b610e095760405162461bcd60e51b8152600401610890906140ec565b3360008181526008602090815260408083206001600160a01b038716845290915290819020805460ff19169055517fdccc2d936ded24d2153d2760581a7f0dcb23ec71190c9726b3584cdd700214d491610e649185906139bd565b60405180910390a15050565b60105481565b600c546001600160a01b03163314610ea05760405162461bcd60e51b815260040161089090613d19565b600c5460405147916001600160a01b03169082156108fc029083906000818181858888f19350505050158015610eda573d6000803e3d6000fd5b50600a5460405133917f2717ead6b9200dd235aad468c9809ea400fe33ac69b5bfaa6d3e90fc922b639891610f1a916001600160a01b03169085906139fb565b60405180910390a250565b600e5481565b6009546001600160a01b031681565b6001600160a01b038116600090815260046020526040812054829062010000900460ff168015610f8857506001600160a01b038116600090815260026020526040902054610100900460ff16155b610fa45760405162461bcd60e51b815260040161089090613bfd565b82336001600160a01b0382168114801590610fe857506001600160a01b038083166000908152600260209081526040808320938516835260099093019052205460ff165b6110045760405162461bcd60e51b8152600401610890906141a3565b3360008181526004602052604081209095509061102390879043611c4f565b6001600160a01b03878116600090815260048401602081815260408084208054600289018054875260058a0180865284882054891688529585528387208290558054875294909352818520549285528185208054939096166001600160a01b0319938416179095559383905581548352929091208054909216909155549095506110ae906001612803565b6002828101919091556001600160a01b03878116600090815260208381526040808320338452600981018352818420805460ff19169055600a8101808452828520805497830180548752600b840180875285882054891688529286528487208990558054875291909452828520549685528285208054979096166001600160a01b0319978816179095559183905583548352909120805490931690925554611157906001612803565b6002808301919091556001600160a01b03881660009081526020919091526040812060048101546003820154600590920154611194939290612830565b6001600160a01b038a16600090815260026020526040902060058101919091556003810191909155600401556001815460ff1660038111156111d257fe5b14806111ed57506002815460ff1660038111156111eb57fe5b145b8061120757506003815460ff16600381111561120557fe5b145b156112155761121586612907565b60405133906001600160a01b038916907f9d3d878d2fb01c43ad7ec7c20d8f5d0dbac4888df940a4edaab4540ccefdc10290600090a35050505050919050565b3060009081526004602052604090205462010000900460ff161561128b5760405162461bcd60e51b815260040161089090613bce565b600a546018546040516323b872dd60e01b81526001600160a01b03909216916323b872dd916112c091339130916004016139d7565b602060405180830381600087803b1580156112da57600080fd5b505af11580156112ee573d6000803e3d6000fd5b505050506040513d601f19601f820116820180604052508101906113129190613679565b506001306001600160a01b03166000805160206142fb83398151915260405161133a90613cc9565b60405180910390a3611350306001601854612afe565b565b600260208190526000918252604090912080546001820154928201546003830154600484015460058501546006860154600787015460089097015460ff808816996101009098041697908a565b6001600160a01b038216600090815260046020526040812054839060ff166113d95760405162461bcd60e51b8152600401610890906140bc565b6001600160a01b038416600090815260046020526040812060020154905b818110156115325760016001600160a01b038088166000908152600460209081526040808320868452600501825280832054909316825260029052205460ff16600381111561144257fe5b148061148e575060026001600160a01b038088166000908152600460209081526040808320868452600501825280832054909316825260029052205460ff16600381111561148c57fe5b145b806114d9575060036001600160a01b038088166000908152600460209081526040808320868452600501825280832054909316825260029052205460ff1660038111156114d757fe5b145b1561152a576001600160a01b038087166000908152600460209081526040808320858452600501909152812054909161151491168888611c4f565b9050611526858263ffffffff612b1216565b9450505b6001016113f7565b50505092915050565b6001600160a01b038084166000908152600260209081526040808320938616835260099093019052908120548490849060ff1661158a5760405162461bcd60e51b815260040161089090614085565b6001600160a01b0380871660009081526002602090815260408083209389168352600c9093019052908120546115c790869063ffffffff61280316565b6001600160a01b03881660009081526002602052604081206003810154600590910154929350916115ff90889063ffffffff61280316565b6001600160a01b038a166000908152600260205260408120600401549192509061162f908363ffffffff612b3e16565b9050611664611644848363ffffffff612b1216565b60175461165890879063ffffffff612b3e16565b9063ffffffff612b7816565b9a9950505050505050505050565b33600090815260046020526040902054610100900460ff161561169457610b74565b610b743383838080601f0160208091040260200160405190810160405280939291908181526020018383808284376000920191909152506122b492505050565b6001600160a01b039182166000908152600260209081526040808320938352600b909301905220541690565b600460205260009081526040902080546001820154600283015460039093015460ff808416946101008504821694620100009004909116929186565b3360008181526004602052604090205462010000900460ff16801561177f57506001600160a01b038116600090815260026020526040902054610100900460ff16155b61179b5760405162461bcd60e51b815260040161089090613bfd565b33600081815260026020526040808220805461ff001916610100179055517f2fea28dd0de917e8a7f7070bf0812f43200736cdd16d12bf1cba3f3e432777199190a250565b600860209081526000928352604080842090915290825290205460ff1681565b6001600160a01b038216600090815260026020526040812060060154819061182f90849063ffffffff61280316565b6001600160a01b038516600090815260026020526040812060080154601054601254601154949550919390929061186d90889063ffffffff61280316565b600f549091506000611895611888848463ffffffff612b3e16565b859063ffffffff612b3e16565b905060006118a9868363ffffffff612b1216565b905060006118bd898963ffffffff612b3e16565b90506118d88261165860175484612b3e90919063ffffffff16565b9c9b505050505050505050505050565b6001600160a01b039182166000908152600260209081526040808320938352600b84018252808320549094168252600a909201909152205490565b60135481565b60076020526000908152604090205481565b3360008181526004602052604090205462010000900460ff16801561197e57506001600160a01b038116600090815260026020526040902054610100900460ff16155b61199a5760405162461bcd60e51b815260040161089090613bfd565b60606119a587612728565b86866040516020016119b993929190613975565b60408051601f19818403018152918152336000908152601a602090815291902082519293506119ec92909184019061336e565b507f87cfb53b7cc0f446465723d1075eb0d650edc90e4365956fc1419a675c867bba3388838787604051610d88959493929190613a14565b600c546001600160a01b03163314611a4e5760405162461bcd60e51b815260040161089090613d19565b6001600160a01b038116611a745760405162461bcd60e51b815260040161089090614028565b600c546001600160a01b0382811691161415611aa25760405162461bcd60e51b815260040161089090613d99565b600c80546001600160a01b0319166001600160a01b0392909216919091179055565b6003602052600090815260409020546001600160a01b031681565b60125481565b6001600160a01b03841660009081526008602090815260408083203380855292529091205485919060ff16611b2c5760405162461bcd60e51b81526004016108909061426a565b846001600160a01b0316866001600160a01b03167fcc2b84a32bce3d060db75a4c0e59bfef192503be5c83bfa5ad79a41d384ff22c8686604051611b71929190613ae7565b60405180910390a3505050505050565b3360008181526004602052604090205462010000900460ff168015611bae5750336001600160a01b038216145b80611bd55750600c546001600160a01b031633148015611bd557506001600160a01b038116155b611bf15760405162461bcd60e51b8152600401610890906140ec565b3360008181526008602090815260408083206001600160a01b038716845290915290819020805460ff19166001179055517f2fd5b26f00131bd8ca0fc556207292b85a6bec241341df82724333227458e63091610e649185906139bd565b6001600160a01b038084166000908152600260209081526040808320938616835260099093019052908120548490849060ff16611c9e5760405162461bcd60e51b815260040161089090614085565b60016001600160a01b03871660009081526002602052604090205460ff166003811115611cc757fe5b1480611cf9575060026001600160a01b03871660009081526002602052604090205460ff166003811115611cf757fe5b145b80611d2a575060036001600160a01b03871660009081526002602052604090205460ff166003811115611d2857fe5b145b15611d69576000611d3b8786611800565b90506000611d4a88888861153b565b601754909150611d6490611658848463ffffffff612b3e16565b945050505b50509392505050565b3360008181526004602052604081205490919060ff16611da45760405162461bcd60e51b8152600401610890906140bc565b60009150815b33600090815260046020526040902060020154811015611f15573360009081526004602090815260408083208484526005018252808320546001600160a01b031680845260029092529091205460019060ff166003811115611e0857fe5b1480611e3a575060026001600160a01b03821660009081526002602052604090205460ff166003811115611e3857fe5b145b80611e6b575060036001600160a01b03821660009081526002602052604090205460ff166003811115611e6957fe5b145b15611f0c576001600160a01b0381166000818152600260208181526040808420338552600c81018352908420439055939092529081905260048201546003830154600590930154611ebc9390612830565b6001600160a01b03841660009081526002602052604081206005810192909255600382019290925560040191909155611ef6823343611c4f565b9050611f08858263ffffffff612b1216565b9450505b50600101611daa565b50611f1f82612907565b5090565b601a6020908152600091825260409182902080548351601f600260001961010060018616150201909316929092049182018490048402810184019094528084529091830182828015611fb65780601f10611f8b57610100808354040283529160200191611fb6565b820191906000526020600020905b815481529060010190602001808311611f9957829003601f168201915b505050505081565b60008054610100900460ff1680611fd85750611fd8612baa565b80611fe6575060005460ff16155b6120025760405162461bcd60e51b815260040161089090613f04565b600054610100900460ff1615801561202d576000805460ff1961ff0019909116610100171660011790555b600c80546001600160a01b03199081166001600160a01b038a811691909117928390556009805483168a8316179055600a80548316898316179055600b805490921687821617909155601485905567016345785d8a00006016556802b5e3af16b18800006018556a0a56fa5b99019a5c800000601555629896806017556000600d819055600e819055600f81905560108190556011819055601281905560138190556040519092909116906000805160206142fb833981519152906120f190613c79565b60405180910390a3600c54612111906001600160a01b0316600080612bbc565b6000806001600160a01b03166000805160206142fb8339815191526040516121389061411c565b60405180910390a361214d6000806000612bbc565b600191508015612163576000805461ff00191690555b5095945050505050565b60196020908152600092835260408084208252918352918190208054825160026001831615610100026000190190921691909104601f810185900485028201850190935282815292909190830182828015611fb65780601f10611f8b57610100808354040283529160200191611fb6565b6001600160a01b038316600090815260046020526040902054839062010000900460ff16801561222c57506001600160a01b038116600090815260026020526040902054610100900460ff16155b6122485760405162461bcd60e51b815260040161089090613bfd565b33600090815260046020526040902054610100900460ff166122a4576122a43384848080601f0160208091040260200160405190810160405280939291908181526020018383808284376000920191909152506122b492505050565b6122ae843361253b565b50505050565b6122bd82612d6d565b5060006122c982610ade565b9050806001600160a01b0316836001600160a01b03161415612347576001600160a01b03811660008181526004602052604090819020805461ff001916610100179055517fb3ec32f104accdf61583b5b94e7b80414c5dc5845ffc42e00f5f19775a358a0a9061233a908590613afb565b60405180910390a2610ac4565b60405162461bcd60e51b815260040161089090613e4d565b6018548110156123815760405162461bcd60e51b815260040161089090613ebb565b600a5461239f906001600160a01b031684308463ffffffff612dfe16565b610ac4838383612afe565b6001600160a01b038116600090815260046020526040902054819062010000900460ff1680156123e25750336001600160a01b038216145b806124095750600c546001600160a01b03163314801561240957506001600160a01b038116155b6124255760405162461bcd60e51b8152600401610890906140ec565b6001600160a01b038216600090815260046020526040902054829062010000900460ff16801561247357506001600160a01b038116600090815260026020526040902054610100900460ff16155b61248f5760405162461bcd60e51b815260040161089090613bfd565b600c546001600160a01b0316331480156124da5750600c546001600160a01b03848116911614806124c757506001600160a01b038316155b806124da57506001600160a01b03831630145b156124e457612520565b6001600160a01b038316600090815260026020819052604090912001546001146125205760405162461bcd60e51b815260040161089090613b99565b50503360009081526002602052604090204360079091015550565b6001600160a01b03808316600090815260026020908152604080832093851683526009909301905220548290829060ff16156125895760405162461bcd60e51b815260040161089090613f82565b61259283612d6d565b506001600160a01b03808416600090815260046020818152604080842094891680855260028084528286209087018054958801855283872086905594865260058701909352932080546001600160a01b031916909317909255546125fd90600163ffffffff612b1216565b600280840191909155810180546001600160a01b0387166000818152600a850160209081526040808320859055938252600b860190529190912080546001600160a01b03191690911790555461265a90600163ffffffff612b1216565b6002808301919091556001600160a01b038087166000908152600c840160209081526040808320439055600986018252808320805460ff19166001908117909155938b16835293905291909120600481015460038201546005909201546126c2939290612830565b6001600160a01b03808a1660008181526002602052604080822060058101959095556003850195909555600490930194909455915191881692917f5ffe3cc8f1055f172e55be8d832143a6cffb4cb3a56a18bf780fd4112d4cecc79190a3505050505050565b60608161274d57506040805180820190915260018152600360fc1b6020820152610afb565b8160005b811561276557600101600a82049150612751565b60608167ffffffffffffffff8111801561277e57600080fd5b506040519080825280601f01601f1916602001820160405280156127a9576020820181803683370190505b50859350905060001982015b83156127fa57600a840660300160f81b828280600190039350815181106127d857fe5b60200101906001600160f81b031916908160001a905350600a840493506127b5565b50949350505050565b6000828211156128255760405162461bcd60e51b815260040161089090613d62565b508082035b92915050565b600080808580600189600281111561284457fe5b14156128625761285b82600163ffffffff612b1216565b91506128b8565b600089600281111561287057fe5b14156128875761285b82600163ffffffff61280316565b600289600281111561289557fe5b14156128a0576128b8565b60405162461bcd60e51b815260040161089090613f52565b60006128ca438863ffffffff61280316565b905060006128de838363ffffffff612b3e16565b905060006128f28a8363ffffffff612b1216565b949c949b50439a509398505050505050505050565b6002600154141561292a5760405162461bcd60e51b815260040161089090614233565b6002600155600b546040516370a0823160e01b81526000916001600160a01b0316906370a08231906129609030906004016139a9565b60206040518083038186803b15801561297857600080fd5b505afa15801561298c573d6000803e3d6000fd5b505050506040513d601f19601f820116820180604052508101906129b09190613874565b905060006129c96013548361280390919063ffffffff16565b905060006129dd828563ffffffff612b3e16565b905060006129f660175483612b7890919063ffffffff16565b601354909150612a0c908263ffffffff61280316565b60135533600090815260066020526040902054612a2f908263ffffffff612b1216565b336000818152600660205260409081902092909255600b54915163a9059cbb60e01b81526001600160a01b039092169163a9059cbb91612a739185906004016139fb565b602060405180830381600087803b158015612a8d57600080fd5b505af1158015612aa1573d6000803e3d6000fd5b505050506040513d601f19601f82011682018060405250810190612ac59190613679565b50604051819033907ff9984c8173c4b4ff9cc454f76ed19c053f4490ccb224fd9ddffeb4ef4bea353090600090a3505060018055505050565b612b0781612e56565b610ac4838383612bbc565b600082820183811015612b375760405162461bcd60e51b815260040161089090613c42565b9392505050565b600082612b4d5750600061282a565b82820282848281612b5a57fe5b0414612b375760405162461bcd60e51b815260040161089090613fb9565b6000808211612b995760405162461bcd60e51b815260040161089090613e84565b818381612ba257fe5b049392505050565b6000612bb53061305c565b1590505b90565b6000612bc784612d6d565b90506000612be660185461165860175486612b3e90919063ffffffff16565b6001600160a01b0386166000908152600460209081526040808320805462ff00001916620100001790556002909152902060018181018690558154929350869260ff191690836003811115612c3757fe5b02179055506001600160a01b038516600081815260026020908152604080832043600682018190556007820155600801859055600d80548452600390925290912080546001600160a01b03191690921790915554612c9c90600163ffffffff612b1216565b600d556001846003811115612cad57fe5b1480612cc457506002846003811115612cc257fe5b145b80612cda57506003846003811115612cd857fe5b145b15612d0357612cf6600182601254600f54601054601154613062565b601155601055600f556012555b81158015612d1957506001600160a01b03851615155b15612d3457600c54612d34906001600160a01b03168661253b565b6001600160a01b03851615612d4e57612d4e60008661253b565b600c546001600160a01b03868116911614610c6b57610c6b858661253b565b6001600160a01b03811660009081526004602052604081205460ff1615612d9657506001610afb565b6001600160a01b038216600081815260046020908152604080832043600180830191909155815460ff19168117909155600e805485526005909352922080546001600160a01b0319169093179092559054612df69163ffffffff612b1216565b600e55919050565b6122ae846323b872dd60e01b858585604051602401612e1f939291906139d7565b60408051601f198184030181529190526020810180516001600160e01b03166001600160e01b0319909316929092179091526131ce565b601354612e69908263ffffffff612b1216565b60135560095460408051630261bf8b60e01b815290516001600160a01b03909216916000918391630261bf8b91600480820192602092909190829003018186803b158015612eb657600080fd5b505afa158015612eca573d6000803e3d6000fd5b505050506040513d601f19601f82011682018060405250810190612eee919061345f565b9050600a60009054906101000a90046001600160a01b03166001600160a01b031663095ea7b3836001600160a01b031663ed6ff7606040518163ffffffff1660e01b815260040160206040518083038186803b158015612f4d57600080fd5b505afa158015612f61573d6000803e3d6000fd5b505050506040513d601f19601f82011682018060405250810190612f85919061345f565b856040518363ffffffff1660e01b8152600401612fa39291906139fb565b602060405180830381600087803b158015612fbd57600080fd5b505af1158015612fd1573d6000803e3d6000fd5b505050506040513d601f19601f82011682018060405250810190612ff59190613679565b50600a54601454604051636968703360e11b81526001600160a01b038085169363d2d0e0669361302e9391909216918891600401613a8d565b600060405180830381600087803b15801561304857600080fd5b505af115801561097f573d6000803e3d6000fd5b3b151590565b60008080808780828960018e600281111561307957fe5b14156130bb5761309084600163ffffffff612b1216565b93506130a2818463ffffffff612b3e16565b91506130b4828e63ffffffff612b1216565b9150613139565b60008e60028111156130c957fe5b1415613104576130e084600163ffffffff61280316565b93506130f2818463ffffffff612b3e16565b91506130b4828e63ffffffff61280316565b60028e600281111561311257fe5b14156128a0576130a261312c84600163ffffffff61280316565b829063ffffffff612b3e16565b83600061314c438c63ffffffff61280316565b90506000613160858863ffffffff612b7816565b90508c6000613175858563ffffffff612b3e16565b90506000613189828563ffffffff612b3e16565b905061319b838263ffffffff612b1216565b925085600114156131ab57600092505b899d50839c50829b50439a50505050505050505050509650965096509692505050565b6060613223826040518060400160405280602081526020017f5361666545524332303a206c6f772d6c6576656c2063616c6c206661696c6564815250856001600160a01b031661325d9092919063ffffffff16565b805190915015610ac457808060200190518101906132419190613679565b610ac45760405162461bcd60e51b8152600401610890906141e9565b606061326c8484600085613274565b949350505050565b6060824710156132965760405162461bcd60e51b815260040161089090613e07565b61329f8561305c565b6132bb5760405162461bcd60e51b81526004016108909061416c565b60006060866001600160a01b031685876040516132d89190613959565b60006040518083038185875af1925050503d8060008114613315576040519150601f19603f3d011682016040523d82523d6000602084013e61331a565b606091505b509150915061332a828286613335565b979650505050505050565b60608315613344575081612b37565b8251156133545782518084602001fd5b8160405162461bcd60e51b81526004016108909190613afb565b828054600181600116156101000203166002900490600052602060002090601f016020900481019282601f106133af57805160ff19168380011785556133dc565b828001600101855582156133dc579182015b828111156133dc5782518255916020019190600101906133c1565b50611f1f92612bb99250905b80821115611f1f57600081556001016133e8565b60008083601f84011261340d578182fd5b50813567ffffffffffffffff811115613424578182fd5b60208301915083602082850101111561343c57600080fd5b9250929050565b600060208284031215613454578081fd5b8135612b37816142e2565b600060208284031215613470578081fd5b8151612b37816142e2565b6000806040838503121561348d578081fd5b8235613498816142e2565b915060208301356134a8816142e2565b809150509250929050565b600080600080600060a086880312156134ca578081fd5b85356134d5816142e2565b945060208601356134e5816142e2565b935060408601356134f5816142e2565b92506060860135613505816142e2565b949793965091946080013592915050565b6000806000806060858703121561352b578384fd5b8435613536816142e2565b93506020850135613546816142e2565b9250604085013567ffffffffffffffff811115613561578283fd5b61356d878288016133fc565b95989497509550505050565b60008060006060848603121561358d578283fd5b8335613598816142e2565b925060208401356135a8816142e2565b929592945050506040919091013590565b6000806000604084860312156135cd578283fd5b83356135d8816142e2565b9250602084013567ffffffffffffffff8111156135f3578283fd5b6135ff868287016133fc565b9497909650939450505050565b6000806040838503121561361e578182fd5b8235613629816142e2565b946020939093013593505050565b6000806000806060858703121561364c578384fd5b8435613657816142e2565b935060208501359250604085013567ffffffffffffffff811115613561578283fd5b60006020828403121561368a578081fd5b81518015158114612b37578182fd5b600080602083850312156136ab578182fd5b823567ffffffffffffffff8111156136c1578283fd5b6136cd858286016133fc565b90969095509350505050565b6000602082840312156136ea578081fd5b813567ffffffffffffffff80821115613701578283fd5b81840185601f820112613712578384fd5b8035925081831115613722578384fd5b604051601f8401601f191681016020018381118282101715613742578586fd5b604052838152818401602001871015613759578485fd5b61376a8460208301602085016142aa565b9695505050505050565b6000806000806000806080878903121561378c578384fd5b86356004811061379a578485fd5b9550602087013567ffffffffffffffff808211156137b6578586fd5b6137c28a838b016133fc565b909750955060408901359150808211156137da578283fd5b506137e789828a016133fc565b979a9699509497949695606090950135949350505050565b60008060008060608587031215613814578182fd5b843560048110613822578283fd5b9350602085013567ffffffffffffffff81111561383d578283fd5b613849878288016133fc565b9598909750949560400135949350505050565b60006020828403121561386d578081fd5b5035919050565b600060208284031215613885578081fd5b5051919050565b6000806000806000606086880312156138a3578283fd5b85359450602086013567ffffffffffffffff808211156138c1578485fd5b6138cd89838a016133fc565b909650945060408801359150808211156138e5578283fd5b506138f2888289016133fc565b969995985093965092949392505050565b60008284528282602086013780602084860101526020601f19601f85011685010190509392505050565b600081518084526139458160208601602086016142b6565b601f01601f19169290920160200192915050565b6000825161396b8184602087016142b6565b9190910192915050565b600084516139878184602089016142b6565b808301602b60f81b815284866001830137909301600101908152949350505050565b6001600160a01b0391909116815260200190565b6001600160a01b0392831681529116602082015260400190565b6001600160a01b039384168152919092166020820152604081019190915260600190565b6001600160a01b03929092168252602082015260400190565b600060018060a01b038716825285602083015260806040830152613a3b608083018661392d565b8281036060840152613a4e818587613903565b98975050505050505050565b6001600160a01b038581168252841660208201526040810183905260806060820181905260009061376a9083018461392d565b6001600160a01b03939093168352602083019190915261ffff16604082015260600190565b901515815260200190565b9515158652931515602086015291151560408501526060840152608083015260a082015260c00190565b60006020825261326c602083018486613903565b600060208252612b37602083018461392d565b610140810160048c10613b1d57fe5b9a815298151560208a015260408901979097526060880195909552608087019390935260a086019190915260c085015260e08401526101008301526101209091015290565b6020808252601c908201527f5573657220616c72656164792061204368616e6e656c204f776e657200000000604082015260600190565b6020808252818101527f4368616e6e656c206861732065787465726e616c207375627363726962657273604082015260600190565b60208082526015908201527421b7b73a3930b1ba103430b990283937b6b7ba32b960591b604082015260600190565b60208082526025908201527f4368616e6e656c206465616374697661746564206f7220646f65736e27742065604082015264786973747360d81b606082015260800190565b6020808252601b908201527f536166654d6174683a206164646974696f6e206f766572666c6f770000000000604082015260600190565b60208082526030908201527f312b516d5362525431364a56463932327941423236597857464436446d47736e60408201526f14d21b4e15909c91d5545b961514cdcd60821b606082015260800190565b60208082526030908201527f312b516d526365776e4e70647432445759757564334c784854776f783252715160408201526f1c3abcad2ba2251b32ac9b34a435b33760811b606082015260800190565b60208082526029908201527f45504e53436f72653a3a6f6e6c79476f762c2075736572206973206e6f7420676040820152686f7665726e616e636560b81b606082015260800190565b6020808252601e908201527f536166654d6174683a207375627472616374696f6e206f766572666c6f770000604082015260600190565b60208082526048908201527f45504e53436f72653a3a7472616e73666572476f7665726e616e63652c206e6560408201527f7720676f7665726e616e63652063616e27742062652063757272656e7420676f6060820152677665726e616e636560c01b608082015260a00190565b60208082526026908201527f416464726573733a20696e73756666696369656e742062616c616e636520666f6040820152651c8818d85b1b60d21b606082015260800190565b6020808252601c908201527f5075626c6963204b65792056616c69646174696f6e204661696c656400000000604082015260600190565b6020808252601a908201527f536166654d6174683a206469766973696f6e206279207a65726f000000000000604082015260600190565b60208082526029908201527f496e73756666696369656e742046756e6473206f72206d6178206365696c696e60408201526819c81c995858da195960ba1b606082015260800190565b6020808252602e908201527f496e697469616c697a61626c653a20636f6e747261637420697320616c72656160408201526d191e481a5b9a5d1a585b1a5e995960921b606082015260800190565b60208082526016908201527524b73b30b634b21021b430b73732b61020b1ba34b7b760511b604082015260600190565b60208082526019908201527f5375627363726962657220616c72656164792045786973747300000000000000604082015260600190565b60208082526021908201527f536166654d6174683a206d756c7469706c69636174696f6e206f766572666c6f6040820152607760f81b606082015260800190565b60208082526014908201527310da185b9b995b08151e5c1948125b9d985b1a5960621b604082015260600190565b6020808252603a908201527f45504e53436f72653a3a7472616e73666572476f7665726e616e63652c206e6560408201527f7720676f7665726e616e63652063616e2774206265206e6f6e65000000000000606082015260800190565b60208082526019908201527f5375627363726962657220646f65736e27742045786973747300000000000000604082015260600190565b602080825260169082015275155cd95c881b9bdd081858dd1a5d985d1959081e595d60521b604082015260600190565b6020808252601690820152754368616e6e656c20646f65736e27742045786973747360501b604082015260600190565b60208082526030908201527f312b516d54434b594c324852627744366e474e76464c6534775076444e75615960408201526f477236526956654376576a56706e357360801b606082015260800190565b6020808252601d908201527f416464726573733a2063616c6c20746f206e6f6e2d636f6e7472616374000000604082015260600190565b60208082526026908201527f456974686572204368616e6e656c204f776e6572206f72204e6f74205375627360408201526518dc9a58995960d21b606082015260800190565b6020808252602a908201527f5361666545524332303a204552433230206f7065726174696f6e20646964206e6040820152691bdd081cdd58d8d9595960b21b606082015260800190565b6020808252601f908201527f5265656e7472616e637947756172643a207265656e7472616e742063616c6c00604082015260600190565b6020808252601f908201527f4e6f7420617574686f726973656420746f2073656e64206d6573736167657300604082015260600190565b90815260200190565b82818337506000910152565b60005b838110156142d15781810151838201526020016142b9565b838111156122ae5750506000910152565b6001600160a01b03811681146142f757600080fd5b5056fe1f97bc77a1686355f130d93883d42f2434474cf65f97b29bc451ea7f9388d36aa2646970667358221220e4286adeae20ee54ea2425535ee60f08fc7780dca73819098970a48d11732a2264736f6c634300060b0033",
  "linkReferences": {},
  "deployedLinkReferences": {}
}