{
  "_format": "hh-sol-artifact-1",
  "contractName": "EPNSStagingV4",
  "sourceName": "contracts/EPNS_StagingV4.sol",
  "abi": [
    {
      "anonymous": false,
      "inputs": [
        {
          "indexed": true,
          "internalType": "address",
          "name": "channel",
          "type": "address"
        },
        {
          "indexed": true,
          "internalType": "enum EPNSStagingV4.ChannelType",
          "name": "channelType",
          "type": "uint8"
        },
        {
          "indexed": false,
          "internalType": "bytes",
          "name": "identity",
          "type": "bytes"
        }
      ],
      "name": "AddChannel",
      "type": "event"
    },
    {
      "anonymous": false,
      "inputs": [
        {
          "indexed": false,
          "internalType": "address",
          "name": "channel",
          "type": "address"
        },
        {
          "indexed": false,
          "internalType": "address",
          "name": "delegate",
          "type": "address"
        }
      ],
      "name": "AddDelegate",
      "type": "event"
    },
    {
      "anonymous": false,
      "inputs": [
        {
          "indexed": false,
          "internalType": "address",
          "name": "_channel",
          "type": "address"
        },
        {
          "indexed": false,
          "internalType": "uint256",
          "name": "totalNotifOptions",
          "type": "uint256"
        },
        {
          "indexed": false,
          "internalType": "string",
          "name": "_notifSettings",
          "type": "string"
        },
        {
          "indexed": false,
          "internalType": "string",
          "name": "_notifDescription",
          "type": "string"
        }
      ],
      "name": "ChannelNotifcationSettingsAdded",
      "type": "event"
    },
    {
      "anonymous": false,
      "inputs": [
        {
          "indexed": true,
          "internalType": "address",
          "name": "channel",
          "type": "address"
        }
      ],
      "name": "DeactivateChannel",
      "type": "event"
    },
    {
      "anonymous": false,
      "inputs": [
        {
          "indexed": true,
          "internalType": "address",
          "name": "user",
          "type": "address"
        },
        {
          "indexed": true,
          "internalType": "uint256",
          "name": "amount",
          "type": "uint256"
        }
      ],
      "name": "InterestClaimed",
      "type": "event"
    },
    {
      "anonymous": false,
      "inputs": [
        {
          "indexed": true,
          "internalType": "address",
          "name": "owner",
          "type": "address"
        },
        {
          "indexed": false,
          "internalType": "bytes",
          "name": "publickey",
          "type": "bytes"
        }
      ],
      "name": "PublicKeyRegistered",
      "type": "event"
    },
    {
      "anonymous": false,
      "inputs": [
        {
          "indexed": false,
          "internalType": "address",
          "name": "channel",
          "type": "address"
        },
        {
          "indexed": false,
          "internalType": "address",
          "name": "delegate",
          "type": "address"
        }
      ],
      "name": "RemoveDelegate",
      "type": "event"
    },
    {
      "anonymous": false,
      "inputs": [
        {
          "indexed": true,
          "internalType": "address",
          "name": "channel",
          "type": "address"
        },
        {
          "indexed": true,
          "internalType": "address",
          "name": "recipient",
          "type": "address"
        },
        {
          "indexed": false,
          "internalType": "bytes",
          "name": "identity",
          "type": "bytes"
        }
      ],
      "name": "SendNotification",
      "type": "event"
    },
    {
      "anonymous": false,
      "inputs": [
        {
          "indexed": true,
          "internalType": "address",
          "name": "channel",
          "type": "address"
        },
        {
          "indexed": true,
          "internalType": "address",
          "name": "user",
          "type": "address"
        }
      ],
      "name": "Subscribe",
      "type": "event"
    },
    {
      "anonymous": false,
      "inputs": [
        {
          "indexed": true,
          "internalType": "address",
          "name": "channel",
          "type": "address"
        },
        {
          "indexed": true,
          "internalType": "address",
          "name": "user",
          "type": "address"
        }
      ],
      "name": "Unsubscribe",
      "type": "event"
    },
    {
      "anonymous": false,
      "inputs": [
        {
          "indexed": true,
          "internalType": "address",
          "name": "channel",
          "type": "address"
        },
        {
          "indexed": false,
          "internalType": "bytes",
          "name": "identity",
          "type": "bytes"
        }
      ],
      "name": "UpdateChannel",
      "type": "event"
    },
    {
      "anonymous": false,
      "inputs": [
        {
          "indexed": false,
          "internalType": "address",
          "name": "_channel",
          "type": "address"
        },
        {
          "indexed": false,
          "internalType": "address",
          "name": "_user",
          "type": "address"
        },
        {
          "indexed": false,
          "internalType": "uint256",
          "name": "_notifID",
          "type": "uint256"
        },
        {
          "indexed": false,
          "internalType": "string",
          "name": "_notifSettings",
          "type": "string"
        }
      ],
      "name": "UserNotifcationSettingsAdded",
      "type": "event"
    },
    {
      "anonymous": false,
      "inputs": [
        {
          "indexed": true,
          "internalType": "address",
          "name": "to",
          "type": "address"
        },
        {
          "indexed": false,
          "internalType": "address",
          "name": "token",
          "type": "address"
        },
        {
          "indexed": false,
          "internalType": "uint256",
          "name": "amount",
          "type": "uint256"
        }
      ],
      "name": "Withdrawal",
      "type": "event"
    },
    {
      "inputs": [],
      "name": "DOMAIN_TYPEHASH",
      "outputs": [
        {
          "internalType": "bytes32",
          "name": "",
          "type": "bytes32"
        }
      ],
      "stateMutability": "view",
      "type": "function"
    },
    {
      "inputs": [],
      "name": "REFERRAL_CODE",
      "outputs": [
        {
          "internalType": "uint256",
          "name": "",
          "type": "uint256"
        }
      ],
      "stateMutability": "view",
      "type": "function"
    },
    {
      "inputs": [],
      "name": "SUBSCRIBE_TYPEHASH",
      "outputs": [
        {
          "internalType": "bytes32",
          "name": "",
          "type": "bytes32"
        }
      ],
      "stateMutability": "view",
      "type": "function"
    },
    {
      "inputs": [],
      "name": "UNSUBSCRIBE_TYPEHASH",
      "outputs": [
        {
          "internalType": "bytes32",
          "name": "",
          "type": "bytes32"
        }
      ],
      "stateMutability": "view",
      "type": "function"
    },
    {
      "inputs": [],
      "name": "aDaiAddress",
      "outputs": [
        {
          "internalType": "address",
          "name": "",
          "type": "address"
        }
      ],
      "stateMutability": "view",
      "type": "function"
    },
    {
      "inputs": [
        {
          "internalType": "address",
          "name": "_delegate",
          "type": "address"
        }
      ],
      "name": "addDelegate",
      "outputs": [],
      "stateMutability": "nonpayable",
      "type": "function"
    },
    {
      "inputs": [
        {
          "internalType": "bytes",
          "name": "_publicKey",
          "type": "bytes"
        }
      ],
      "name": "broadcastUserPublicKey",
      "outputs": [],
      "stateMutability": "nonpayable",
      "type": "function"
    },
    {
      "inputs": [
        {
          "internalType": "address",
          "name": "_user",
          "type": "address"
        },
        {
          "internalType": "uint256",
          "name": "_block",
          "type": "uint256"
        }
      ],
      "name": "calcAllChannelsRatio",
      "outputs": [
        {
          "internalType": "uint256",
          "name": "ratio",
          "type": "uint256"
        }
      ],
      "stateMutability": "view",
      "type": "function"
    },
    {
      "inputs": [
        {
          "internalType": "address",
          "name": "_channel",
          "type": "address"
        },
        {
          "internalType": "address",
          "name": "_user",
          "type": "address"
        },
        {
          "internalType": "uint256",
          "name": "_block",
          "type": "uint256"
        }
      ],
      "name": "calcSingleChannelEarnRatio",
      "outputs": [
        {
          "internalType": "uint256",
          "name": "ratio",
          "type": "uint256"
        }
      ],
      "stateMutability": "view",
      "type": "function"
    },
    {
      "inputs": [
        {
          "internalType": "address",
          "name": "",
          "type": "address"
        }
      ],
      "name": "channelNotifSettings",
      "outputs": [
        {
          "internalType": "string",
          "name": "",
          "type": "string"
        }
      ],
      "stateMutability": "view",
      "type": "function"
    },
    {
      "inputs": [
        {
          "internalType": "address",
          "name": "",
          "type": "address"
        }
      ],
      "name": "channels",
      "outputs": [
        {
          "internalType": "enum EPNSStagingV4.ChannelType",
          "name": "channelType",
          "type": "uint8"
        },
        {
          "internalType": "bool",
          "name": "deactivated",
          "type": "bool"
        },
        {
          "internalType": "uint256",
          "name": "poolContribution",
          "type": "uint256"
        },
        {
          "internalType": "uint256",
          "name": "memberCount",
          "type": "uint256"
        },
        {
          "internalType": "uint256",
          "name": "channelHistoricalZ",
          "type": "uint256"
        },
        {
          "internalType": "uint256",
          "name": "channelFairShareCount",
          "type": "uint256"
        },
        {
          "internalType": "uint256",
          "name": "channelLastUpdate",
          "type": "uint256"
        },
        {
          "internalType": "uint256",
          "name": "channelStartBlock",
          "type": "uint256"
        },
        {
          "internalType": "uint256",
          "name": "channelUpdateBlock",
          "type": "uint256"
        },
        {
          "internalType": "uint256",
          "name": "channelWeight",
          "type": "uint256"
        }
      ],
      "stateMutability": "view",
      "type": "function"
    },
    {
      "inputs": [],
      "name": "channelsCount",
      "outputs": [
        {
          "internalType": "uint256",
          "name": "",
          "type": "uint256"
        }
      ],
      "stateMutability": "view",
      "type": "function"
    },
    {
      "inputs": [],
      "name": "claimFairShare",
      "outputs": [
        {
          "internalType": "uint256",
          "name": "ratio",
          "type": "uint256"
        }
      ],
      "stateMutability": "nonpayable",
      "type": "function"
    },
    {
      "inputs": [
        {
          "internalType": "uint256",
          "name": "_notifOptions",
          "type": "uint256"
        },
        {
          "internalType": "string",
          "name": "_notifSettings",
          "type": "string"
        },
        {
          "internalType": "string",
          "name": "_notifDescription",
          "type": "string"
        }
      ],
      "name": "createChannelNotificationSettings",
      "outputs": [],
      "stateMutability": "nonpayable",
      "type": "function"
    },
    {
      "inputs": [
        {
          "internalType": "enum EPNSStagingV4.ChannelType",
          "name": "_channelType",
          "type": "uint8"
        },
        {
          "internalType": "bytes",
          "name": "_identity",
          "type": "bytes"
        },
        {
          "internalType": "uint256",
          "name": "_amount",
          "type": "uint256"
        }
      ],
      "name": "createChannelWithFees",
      "outputs": [],
      "stateMutability": "nonpayable",
      "type": "function"
    },
    {
      "inputs": [
        {
          "internalType": "enum EPNSStagingV4.ChannelType",
          "name": "_channelType",
          "type": "uint8"
        },
        {
          "internalType": "bytes",
          "name": "_identity",
          "type": "bytes"
        },
        {
          "internalType": "bytes",
          "name": "_publickey",
          "type": "bytes"
        },
        {
          "internalType": "uint256",
          "name": "_amount",
          "type": "uint256"
        }
      ],
      "name": "createChannelWithFeesAndPublicKey",
      "outputs": [],
      "stateMutability": "nonpayable",
      "type": "function"
    },
    {
      "inputs": [],
      "name": "createPromoterChannel",
      "outputs": [],
      "stateMutability": "nonpayable",
      "type": "function"
    },
    {
      "inputs": [],
      "name": "daiAddress",
      "outputs": [
        {
          "internalType": "address",
          "name": "",
          "type": "address"
        }
      ],
      "stateMutability": "view",
      "type": "function"
    },
    {
      "inputs": [],
      "name": "deactivateChannel",
      "outputs": [],
      "stateMutability": "nonpayable",
      "type": "function"
    },
    {
      "inputs": [
        {
          "internalType": "address",
          "name": "",
          "type": "address"
        },
        {
          "internalType": "address",
          "name": "",
          "type": "address"
        }
      ],
      "name": "delegated_NotificationSenders",
      "outputs": [
        {
          "internalType": "bool",
          "name": "",
          "type": "bool"
        }
      ],
      "stateMutability": "view",
      "type": "function"
    },
    {
      "inputs": [
        {
          "internalType": "address",
          "name": "_channel",
          "type": "address"
        },
        {
          "internalType": "uint256",
          "name": "_block",
          "type": "uint256"
        }
      ],
      "name": "getChannelFSRatio",
      "outputs": [
        {
          "internalType": "uint256",
          "name": "ratio",
          "type": "uint256"
        }
      ],
      "stateMutability": "view",
      "type": "function"
    },
    {
      "inputs": [
        {
          "internalType": "address",
          "name": "_channel",
          "type": "address"
        },
        {
          "internalType": "uint256",
          "name": "_subscriberId",
          "type": "uint256"
        }
      ],
      "name": "getChannelSubscriberAddress",
      "outputs": [
        {
          "internalType": "address",
          "name": "subscriber",
          "type": "address"
        }
      ],
      "stateMutability": "view",
      "type": "function"
    },
    {
      "inputs": [
        {
          "internalType": "address",
          "name": "_channel",
          "type": "address"
        },
        {
          "internalType": "uint256",
          "name": "_subscriberId",
          "type": "uint256"
        }
      ],
      "name": "getChannelSubscriberUserID",
      "outputs": [
        {
          "internalType": "uint256",
          "name": "userId",
          "type": "uint256"
        }
      ],
      "stateMutability": "view",
      "type": "function"
    },
    {
      "inputs": [
        {
          "internalType": "address",
          "name": "_channel",
          "type": "address"
        },
        {
          "internalType": "address",
          "name": "_user",
          "type": "address"
        },
        {
          "internalType": "uint256",
          "name": "_block",
          "type": "uint256"
        }
      ],
      "name": "getSubscriberFSRatio",
      "outputs": [
        {
          "internalType": "uint256",
          "name": "ratio",
          "type": "uint256"
        }
      ],
      "stateMutability": "view",
      "type": "function"
    },
    {
      "inputs": [
        {
          "internalType": "bytes",
          "name": "_publicKey",
          "type": "bytes"
        }
      ],
      "name": "getWalletFromPublicKey",
      "outputs": [
        {
          "internalType": "address",
          "name": "wallet",
          "type": "address"
        }
      ],
      "stateMutability": "pure",
      "type": "function"
    },
    {
      "inputs": [],
      "name": "governance",
      "outputs": [
        {
          "internalType": "address",
          "name": "",
          "type": "address"
        }
      ],
      "stateMutability": "view",
      "type": "function"
    },
    {
      "inputs": [],
      "name": "groupFairShareCount",
      "outputs": [
        {
          "internalType": "uint256",
          "name": "",
          "type": "uint256"
        }
      ],
      "stateMutability": "view",
      "type": "function"
    },
    {
      "inputs": [],
      "name": "groupHistoricalZ",
      "outputs": [
        {
          "internalType": "uint256",
          "name": "",
          "type": "uint256"
        }
      ],
      "stateMutability": "view",
      "type": "function"
    },
    {
      "inputs": [],
      "name": "groupLastUpdate",
      "outputs": [
        {
          "internalType": "uint256",
          "name": "",
          "type": "uint256"
        }
      ],
      "stateMutability": "view",
      "type": "function"
    },
    {
      "inputs": [],
      "name": "groupNormalizedWeight",
      "outputs": [
        {
          "internalType": "uint256",
          "name": "",
          "type": "uint256"
        }
      ],
      "stateMutability": "view",
      "type": "function"
    },
    {
      "inputs": [
        {
          "internalType": "address",
          "name": "_governance",
          "type": "address"
        },
        {
          "internalType": "address",
          "name": "_lendingPoolProviderAddress",
          "type": "address"
        },
        {
          "internalType": "address",
          "name": "_daiAddress",
          "type": "address"
        },
        {
          "internalType": "address",
          "name": "_aDaiAddress",
          "type": "address"
        },
        {
          "internalType": "uint256",
          "name": "_referralCode",
          "type": "uint256"
        }
      ],
      "name": "initialize",
      "outputs": [
        {
          "internalType": "bool",
          "name": "success",
          "type": "bool"
        }
      ],
      "stateMutability": "nonpayable",
      "type": "function"
    },
    {
      "inputs": [],
      "name": "lendingPoolProviderAddress",
      "outputs": [
        {
          "internalType": "address",
          "name": "",
          "type": "address"
        }
      ],
      "stateMutability": "view",
      "type": "function"
    },
    {
      "inputs": [
        {
          "internalType": "uint256",
          "name": "",
          "type": "uint256"
        }
      ],
      "name": "mapAddressChannels",
      "outputs": [
        {
          "internalType": "address",
          "name": "",
          "type": "address"
        }
      ],
      "stateMutability": "view",
      "type": "function"
    },
    {
      "inputs": [
        {
          "internalType": "uint256",
          "name": "",
          "type": "uint256"
        }
      ],
      "name": "mapAddressUsers",
      "outputs": [
        {
          "internalType": "address",
          "name": "",
          "type": "address"
        }
      ],
      "stateMutability": "view",
      "type": "function"
    },
    {
      "inputs": [
        {
          "internalType": "address",
          "name": "_user",
          "type": "address"
        },
        {
          "internalType": "address",
          "name": "_channel",
          "type": "address"
        }
      ],
      "name": "memberExists",
      "outputs": [
        {
          "internalType": "bool",
          "name": "subscribed",
          "type": "bool"
        }
      ],
      "stateMutability": "view",
      "type": "function"
    },
    {
      "inputs": [],
      "name": "name",
      "outputs": [
        {
          "internalType": "string",
          "name": "",
          "type": "string"
        }
      ],
      "stateMutability": "view",
      "type": "function"
    },
    {
      "inputs": [
        {
          "internalType": "address",
          "name": "",
          "type": "address"
        }
      ],
      "name": "nonces",
      "outputs": [
        {
          "internalType": "uint256",
          "name": "",
          "type": "uint256"
        }
      ],
      "stateMutability": "view",
      "type": "function"
    },
    {
      "inputs": [],
      "name": "poolFunds",
      "outputs": [
        {
          "internalType": "uint256",
          "name": "",
          "type": "uint256"
        }
      ],
      "stateMutability": "view",
      "type": "function"
    },
    {
      "inputs": [
        {
          "internalType": "address",
          "name": "_delegate",
          "type": "address"
        }
      ],
      "name": "removeDelegate",
      "outputs": [],
      "stateMutability": "nonpayable",
      "type": "function"
    },
    {
      "inputs": [
        {
          "internalType": "address",
          "name": "_recipient",
          "type": "address"
        },
        {
          "internalType": "bytes",
          "name": "_identity",
          "type": "bytes"
        }
      ],
      "name": "sendNotification",
      "outputs": [],
      "stateMutability": "nonpayable",
      "type": "function"
    },
    {
      "inputs": [
        {
          "internalType": "address",
          "name": "_channel",
          "type": "address"
        },
        {
          "internalType": "address",
          "name": "_recipient",
          "type": "address"
        },
        {
          "internalType": "bytes",
          "name": "_identity",
          "type": "bytes"
        }
      ],
      "name": "sendNotificationAsDelegate",
      "outputs": [],
      "stateMutability": "nonpayable",
      "type": "function"
    },
    {
      "inputs": [
        {
          "internalType": "address",
          "name": "_channel",
          "type": "address"
        }
      ],
      "name": "subscribe",
      "outputs": [],
      "stateMutability": "nonpayable",
      "type": "function"
    },
    {
      "inputs": [
        {
          "internalType": "address",
          "name": "channel",
          "type": "address"
        },
        {
          "internalType": "uint256",
          "name": "nonce",
          "type": "uint256"
        },
        {
          "internalType": "uint256",
          "name": "expiry",
          "type": "uint256"
        },
        {
          "internalType": "uint8",
          "name": "v",
          "type": "uint8"
        },
        {
          "internalType": "bytes32",
          "name": "r",
          "type": "bytes32"
        },
        {
          "internalType": "bytes32",
          "name": "s",
          "type": "bytes32"
        }
      ],
      "name": "subscribeBySignature",
      "outputs": [],
      "stateMutability": "nonpayable",
      "type": "function"
    },
    {
      "inputs": [
        {
          "internalType": "address",
          "name": "_channel",
          "type": "address"
        },
        {
          "internalType": "uint256",
          "name": "_notifID",
          "type": "uint256"
        },
        {
          "internalType": "string",
          "name": "_notifSettings",
          "type": "string"
        }
      ],
      "name": "subscribeToSpecificNotification",
      "outputs": [],
      "stateMutability": "nonpayable",
      "type": "function"
    },
    {
      "inputs": [
        {
          "internalType": "address",
          "name": "_channel",
          "type": "address"
        },
        {
          "internalType": "bytes",
          "name": "_publicKey",
          "type": "bytes"
        }
      ],
      "name": "subscribeWithPublicKey",
      "outputs": [],
      "stateMutability": "nonpayable",
      "type": "function"
    },
    {
      "inputs": [
        {
          "internalType": "address",
          "name": "_newGovernance",
          "type": "address"
        }
      ],
      "name": "transferGovernance",
      "outputs": [],
      "stateMutability": "nonpayable",
      "type": "function"
    },
    {
      "inputs": [
        {
          "internalType": "address",
          "name": "_channel",
          "type": "address"
        }
      ],
      "name": "unsubscribe",
      "outputs": [],
      "stateMutability": "nonpayable",
      "type": "function"
    },
    {
      "inputs": [
        {
          "internalType": "address",
          "name": "channel",
          "type": "address"
        },
        {
          "internalType": "uint256",
          "name": "nonce",
          "type": "uint256"
        },
        {
          "internalType": "uint256",
          "name": "expiry",
          "type": "uint256"
        },
        {
          "internalType": "uint8",
          "name": "v",
          "type": "uint8"
        },
        {
          "internalType": "bytes32",
          "name": "r",
          "type": "bytes32"
        },
        {
          "internalType": "bytes32",
          "name": "s",
          "type": "bytes32"
        }
      ],
      "name": "unsubscribeBySignature",
      "outputs": [],
      "stateMutability": "nonpayable",
      "type": "function"
    },
    {
      "inputs": [
        {
          "internalType": "address",
          "name": "_channel",
          "type": "address"
        },
        {
          "internalType": "bytes",
          "name": "_identity",
          "type": "bytes"
        }
      ],
      "name": "updateChannelMeta",
      "outputs": [],
      "stateMutability": "nonpayable",
      "type": "function"
    },
    {
      "inputs": [
        {
          "internalType": "address",
          "name": "_newAddress",
          "type": "address"
        }
      ],
      "name": "updateUniswapV2Address",
      "outputs": [],
      "stateMutability": "nonpayable",
      "type": "function"
    },
    {
      "inputs": [
        {
          "internalType": "address",
          "name": "",
          "type": "address"
        },
        {
          "internalType": "address",
          "name": "",
          "type": "address"
        }
      ],
      "name": "userToChannelNotifs",
      "outputs": [
        {
          "internalType": "string",
          "name": "",
          "type": "string"
        }
      ],
      "stateMutability": "view",
      "type": "function"
    },
    {
      "inputs": [
        {
          "internalType": "address",
          "name": "",
          "type": "address"
        }
      ],
      "name": "users",
      "outputs": [
        {
          "internalType": "bool",
          "name": "userActivated",
          "type": "bool"
        },
        {
          "internalType": "bool",
          "name": "publicKeyRegistered",
          "type": "bool"
        },
        {
          "internalType": "bool",
          "name": "channellized",
          "type": "bool"
        },
        {
          "internalType": "uint256",
          "name": "userStartBlock",
          "type": "uint256"
        },
        {
          "internalType": "uint256",
          "name": "subscribedCount",
          "type": "uint256"
        },
        {
          "internalType": "uint256",
          "name": "timeWeightedBalance",
          "type": "uint256"
        }
      ],
      "stateMutability": "view",
      "type": "function"
    },
    {
      "inputs": [],
      "name": "usersCount",
      "outputs": [
        {
          "internalType": "uint256",
          "name": "",
          "type": "uint256"
        }
      ],
      "stateMutability": "view",
      "type": "function"
    },
    {
      "inputs": [
        {
          "internalType": "address",
          "name": "",
          "type": "address"
        }
      ],
      "name": "usersInterestClaimed",
      "outputs": [
        {
          "internalType": "uint256",
          "name": "",
          "type": "uint256"
        }
      ],
      "stateMutability": "view",
      "type": "function"
    },
    {
      "inputs": [
        {
          "internalType": "address",
          "name": "",
          "type": "address"
        }
      ],
      "name": "usersInterestInWallet",
      "outputs": [
        {
          "internalType": "uint256",
          "name": "",
          "type": "uint256"
        }
      ],
      "stateMutability": "view",
      "type": "function"
    },
    {
      "inputs": [],
      "name": "withdrawEthFunds",
      "outputs": [],
      "stateMutability": "nonpayable",
      "type": "function"
    },
    {
      "stateMutability": "payable",
      "type": "receive"
    }
  ],
  "bytecode": "0x608060405234801561001057600080fd5b5060018055614e6f806100246000396000f3fe60806040526004361061036f5760003560e01c80637dce34f7116101c6578063c02101d0116100f7578063e71bdf4111610095578063eea0b5c51161006f578063eea0b5c514610986578063f7013ef6146109a6578063f83c7f77146109c6578063fde36001146109e657610376565b8063e71bdf4114610931578063e8846d7114610951578063e886dd0c1461097157610376565b8063d3db49cb116100d1578063d3db49cb146108c7578063daa947f5146108e7578063df875fbf146108fc578063e059c6d01461091c57610376565b8063c02101d014610867578063c086cfeb14610887578063d38bfff4146108a757610376565b8063a87430ba11610164578063b677c7a71161013e578063b677c7a7146107f2578063b9d048df14610812578063bc2104d214610832578063be3e9ba71461084757610376565b8063a87430ba1461078b578063aba03325146107bd578063b1da2b2e146107d257610376565b806383efb0dd116101a057806383efb0dd1461070b57806383f25aa61461072b5780639019c69f1461074b57806398d2f06a1461076b57610376565b80637dce34f7146106955780637ecebe00146106cb5780637faf7ff6146106eb57610376565b806341a7726a116102a057806367e7646f1161023e5780636ba13a82116102185780636ba13a82146106365780636d1b6d461461064b5780637262561c1461066057806375e880fc1461068057610376565b806367e7646f146105ec57806368a8e5b61461060c57806369fb0ede1461062157610376565b80635227dd051161027a5780635227dd051461058257806355091fe5146105a25780635aa6e675146105b7578063624350f2146105cc57610376565b806341a7726a146105155780634ff3224514610535578063514898261461056257610376565b80631e919cb71161030d5780632a4788fe116102e75780632a4788fe146104ab5780632c387275146104cb5780633583849a146104e05780634134465a146104f557610376565b80631e919cb71461045657806320606b7014610476578063211ea1481461048b57610376565b8063098b204111610349578063098b2041146103ea5780630ded77311461040c578063110e01a81461042157806311e297381461043657610376565b806302b19d3c1461037b578063040e80ed1461039d57806306fdde03146103c857610376565b3661037657005b600080fd5b34801561038757600080fd5b5061039b610396366004613fec565b610a06565b005b3480156103a957600080fd5b506103b2610b34565b6040516103bf919061447a565b60405180910390f35b3480156103d457600080fd5b506103dd610b4b565b6040516103bf91906144fd565b3480156103f657600080fd5b506103ff610b76565b6040516103bf9190614332565b34801561041857600080fd5b506103b2610b85565b34801561042d57600080fd5b506103b2610b8b565b34801561044257600080fd5b5061039b610451366004613d4f565b610b91565b34801561046257600080fd5b506103b2610471366004613bda565b610c54565b34801561048257600080fd5b506103b2610c66565b34801561049757600080fd5b5061039b6104a6366004613d4f565b610c72565b3480156104b757600080fd5b5061039b6104c6366004613e0d565b610cc3565b3480156104d757600080fd5b506103ff610eb3565b3480156104ec57600080fd5b506103b2610ec2565b34801561050157600080fd5b506103ff610510366004613f63565b610ec8565b34801561052157600080fd5b5061039b610530366004613bda565b610eea565b34801561054157600080fd5b50610555610550366004613c12565b610f62565b6040516103bf9190614445565b34801561056e57600080fd5b5061039b61057d366004614076565b610f95565b34801561058e57600080fd5b506103ff61059d3660046140d2565b61105c565b3480156105ae57600080fd5b506103b2611077565b3480156105c357600080fd5b506103ff61107d565b3480156105d857600080fd5b5061039b6105e7366004613dcc565b61108c565b3480156105f857600080fd5b5061039b610607366004613bda565b611183565b34801561061857600080fd5b506103b261125a565b34801561062d57600080fd5b5061039b611260565b34801561064257600080fd5b506103b261130f565b34801561065757600080fd5b506103ff611315565b34801561066c57600080fd5b5061039b61067b366004613bda565b611324565b34801561068c57600080fd5b5061039b6113f8565b3480156106a157600080fd5b506106b56106b0366004613bda565b6114f5565b6040516103bf9a99989796959493929190614510565b3480156106d757600080fd5b506103b26106e6366004613bda565b611542565b3480156106f757600080fd5b506103b2610706366004613da1565b611554565b34801561071757600080fd5b506103b2610726366004613d0f565b6116f0565b34801561073757600080fd5b5061039b610746366004613e0d565b611827565b34801561075757600080fd5b5061039b610766366004613f24565b611a18565b34801561077757600080fd5b506103ff610786366004613da1565b611a7a565b34801561079757600080fd5b506107ab6107a6366004613bda565b611aa6565b6040516103bf96959493929190614450565b3480156107c957600080fd5b5061039b611ae2565b3480156107de57600080fd5b506105556107ed366004613c12565b611b86565b3480156107fe57600080fd5b506103b261080d366004613da1565b611ba6565b34801561081e57600080fd5b506103b261082d366004613da1565b611c8e565b34801561083e57600080fd5b506103b2611cc9565b34801561085357600080fd5b506103b2610862366004613bda565b611ccf565b34801561087357600080fd5b5061039b610882366004613bda565b611ce1565b34801561089357600080fd5b5061039b6108a2366004614102565b611d2d565b3480156108b357600080fd5b5061039b6108c2366004613bda565b611e16565b3480156108d357600080fd5b506103ff6108e23660046140d2565b611eb6565b3480156108f357600080fd5b506103b2611ed1565b34801561090857600080fd5b5061039b610917366004613cad565b611ed7565b34801561092857600080fd5b506103b2611f73565b34801561093d57600080fd5b5061039b61094c366004613bda565b611f7f565b34801561095d57600080fd5b506103b261096c366004613d0f565b61204d565b34801561097d57600080fd5b506103b2612170565b34801561099257600080fd5b506103dd6109a1366004613bda565b612321565b3480156109b257600080fd5b506105556109c1366004613c4a565b6123bc565b3480156109d257600080fd5b506103dd6109e1366004613c12565b6125b2565b3480156109f257600080fd5b5061039b610a01366004613d4f565b612623565b3360009081526004602052604090205462010000900460ff1615610a455760405162461bcd60e51b8152600401610a3c90614564565b60405180910390fd5b856002816003811115610a5457fe5b1480610a6b57506003816003811115610a6957fe5b145b610a875760405162461bcd60e51b8152600401610a3c90614a4e565b866003811115610a9357fe5b336001600160a01b0316600080516020614e1a8339815191528888604051610abc9291906144e9565b60405180910390a333600090815260046020526040902054610100900460ff16610b2057610b203385858080601f0160208091040260200160405190810160405280939291908181526020018383808284376000920191909152506126f992505050565b610b2b3388846127a4565b50505050505050565b604051610b40906142e3565b604051809103902081565b6040518060400160405280600f81526020016e11541394c814d51051d25391c8158d608a1b81525081565b600c546001600160a01b031681565b60105481565b60125481565b3360008181526004602052604090205462010000900460ff168015610bbe5750336001600160a01b038216145b80610be55750600d546001600160a01b031633148015610be557506001600160a01b038116155b610c015760405162461bcd60e51b8152600401610a3c90614b6b565b836001600160a01b0316336001600160a01b03167fcc2b84a32bce3d060db75a4c0e59bfef192503be5c83bfa5ad79a41d384ff22c8585604051610c469291906144e9565b60405180910390a350505050565b60066020526000908152604090205481565b604051610b4090614239565b826001600160a01b03167fdd0f9713dcb5498a41e3486b288bc746b035efb57770050da0ec0e800154532c8383604051610cad9291906144e9565b60405180910390a2610cbe836127ef565b505050565b6000604051610cd190614239565b60408051918290038220828201909152600f82526e11541394c814d51051d25391c8158d608a1b6020909201919091527f03f38fc8175bc6fb4952a7623e13093c2e564828be17aea79f6ef6e35e754dae610d2a612980565b30604051602001610d3e94939291906144a7565b6040516020818303038152906040528051906020012090506000604051610d6490614294565b604051908190038120610d7f918a908a908a90602001614483565b60405160208183030381529060405280519060200120905060008282604051602001610dac92919061421e565b604051602081830303815290604052805190602001209050600060018288888860405160008152602001604052604051610de994939291906144cb565b6020604051602081039080840390855afa158015610e0b573d6000803e3d6000fd5b5050604051601f1901519150506001600160a01b038116610e3e5760405162461bcd60e51b8152600401610a3c9061478b565b6001600160a01b03811660009081526009602052604090208054600181019091558914610e7d5760405162461bcd60e51b8152600401610a3c906145ff565b87421115610e9d5760405162461bcd60e51b8152600401610a3c90614a7c565b610ea78a82612985565b50505050505050505050565b600b546001600160a01b031681565b60155481565b6000815160401415610ee1575080516020820120610ee5565b5060005b919050565b6001600160a01b038116600090815260046020526040902054819062010000900460ff168015610f3857506001600160a01b038116600090815260026020526040902054610100900460ff16155b610f545760405162461bcd60e51b8152600401610a3c90614626565b610f5e8233612985565b5050565b6001600160a01b039081166000908152600260209081526040808320949093168252600990930190925290205460ff1690565b3360009081526004602052604090205462010000900460ff1615610fcb5760405162461bcd60e51b8152600401610a3c90614564565b836002816003811115610fda57fe5b1480610ff157506003816003811115610fef57fe5b145b61100d5760405162461bcd60e51b8152600401610a3c90614a4e565b84600381111561101957fe5b336001600160a01b0316600080516020614e1a83398151915286866040516110429291906144e9565b60405180910390a36110553386846127a4565b5050505050565b6005602052600090815260409020546001600160a01b031681565b600e5481565b600d546001600160a01b031681565b6001600160a01b03841660009081526002602090815260408083203380855260099091019092529091205485919060ff166110d95760405162461bcd60e51b8152600401610a3c90614b04565b60606110e486612b72565b85856040516020016110f8939291906141ea565b60408051601f19818403018152918152336000908152601c60209081528282206001600160a01b038c1683528152919020825192935061113c929091840190613b06565b507f790dac2f69fa06ffde2a1ba07cccf57910606213ce442099a2ab6ebe3bedc0ad8733888460405161117294939291906143e3565b60405180910390a150505050505050565b3360008181526004602052604090205462010000900460ff1680156111b05750336001600160a01b038216145b806111d75750600d546001600160a01b0316331480156111d757506001600160a01b038116155b6111f35760405162461bcd60e51b8152600401610a3c90614b6b565b3360008181526008602090815260408083206001600160a01b038716845290915290819020805460ff19169055517fdccc2d936ded24d2153d2760581a7f0dcb23ec71190c9726b3584cdd700214d49161124e918590614346565b60405180910390a15050565b60115481565b600d546001600160a01b0316331461128a5760405162461bcd60e51b8152600401610a3c90614742565b600d5460405147916001600160a01b03169082156108fc029083906000818181858888f193505050501580156112c4573d6000803e3d6000fd5b50600b5460405133917f2717ead6b9200dd235aad468c9809ea400fe33ac69b5bfaa6d3e90fc922b639891611304916001600160a01b0316908590614384565b60405180910390a250565b600f5481565b600a546001600160a01b031681565b6001600160a01b038116600090815260046020526040902054819062010000900460ff16801561137257506001600160a01b038116600090815260026020526040902054610100900460ff16155b61138e5760405162461bcd60e51b8152600401610a3c90614626565b81336001600160a01b03821681148015906113d257506001600160a01b038083166000908152600260209081526040808320938516835260099093019052205460ff165b6113ee5760405162461bcd60e51b8152600401610a3c90614c22565b6110558433612c4c565b3060009081526004602052604090205462010000900460ff161561142e5760405162461bcd60e51b8152600401610a3c906145d0565b600b546019546040516323b872dd60e01b81526001600160a01b03909216916323b872dd916114639133913091600401614360565b602060405180830381600087803b15801561147d57600080fd5b505af1158015611491573d6000803e3d6000fd5b505050506040513d601f19601f820116820180604052508101906114b59190613f04565b506001306001600160a01b0316600080516020614e1a8339815191526040516114dd906146f2565b60405180910390a36114f3306001601954612e99565b565b600260208190526000918252604090912080546001820154928201546003830154600484015460058501546006860154600787015460089097015460ff808816996101009098041697908a565b60096020526000908152604090205481565b6001600160a01b038216600090815260046020526040812054839060ff1661158e5760405162461bcd60e51b8152600401610a3c90614b3b565b6001600160a01b038416600090815260046020526040812060020154905b818110156116e75760016001600160a01b038088166000908152600460209081526040808320868452600501825280832054909316825260029052205460ff1660038111156115f757fe5b1480611643575060026001600160a01b038088166000908152600460209081526040808320868452600501825280832054909316825260029052205460ff16600381111561164157fe5b145b8061168e575060036001600160a01b038088166000908152600460209081526040808320868452600501825280832054909316825260029052205460ff16600381111561168c57fe5b145b156116df576001600160a01b03808716600090815260046020908152604080832085845260050190915281205490916116c99116888861204d565b90506116db858263ffffffff612ead16565b9450505b6001016115ac565b50505092915050565b6001600160a01b038084166000908152600260209081526040808320938616835260099093019052908120548490849060ff1661173f5760405162461bcd60e51b8152600401610a3c90614b04565b6001600160a01b0380871660009081526002602090815260408083209389168352600c90930190529081205461177c90869063ffffffff612edb16565b6001600160a01b03881660009081526002602052604081206003810154600590910154929350916117b490889063ffffffff612edb16565b6001600160a01b038a16600090815260026020526040812060040154919250906117e4908363ffffffff612f0316565b90506118196117f9848363ffffffff612ead16565b60185461180d90879063ffffffff612f0316565b9063ffffffff612f3d16565b9a9950505050505050505050565b600060405161183590614239565b60408051918290038220828201909152600f82526e11541394c814d51051d25391c8158d608a1b6020909201919091527f03f38fc8175bc6fb4952a7623e13093c2e564828be17aea79f6ef6e35e754dae61188e612980565b306040516020016118a294939291906144a7565b60405160208183030381529060405280519060200120905060006040516118c8906142e3565b6040519081900381206118e3918a908a908a90602001614483565b6040516020818303038152906040528051906020012090506000828260405160200161191092919061421e565b60405160208183030381529060405280519060200120905060006001828888886040516000815260200160405260405161194d94939291906144cb565b6020604051602081039080840390855afa15801561196f573d6000803e3d6000fd5b5050604051601f1901519150506001600160a01b0381166119a25760405162461bcd60e51b8152600401610a3c9061478b565b6001600160a01b038116600090815260096020526040902080546001810190915589146119e15760405162461bcd60e51b8152600401610a3c906145ff565b87421115611a015760405162461bcd60e51b8152600401610a3c90614a7c565b611a0b8a82612c4c565b5050505050505050505050565b33600090815260046020526040902054610100900460ff1615611a3a57610f5e565b610f5e3383838080601f0160208091040260200160405190810160405280939291908181526020018383808284376000920191909152506126f992505050565b6001600160a01b039182166000908152600260209081526040808320938352600b909301905220541690565b600460205260009081526040902080546001820154600283015460039093015460ff808416946101008504821694620100009004909116929186565b3360008181526004602052604090205462010000900460ff168015611b2557506001600160a01b038116600090815260026020526040902054610100900460ff16155b611b415760405162461bcd60e51b8152600401610a3c90614626565b33600081815260026020526040808220805461ff001916610100179055517f2fea28dd0de917e8a7f7070bf0812f43200736cdd16d12bf1cba3f3e432777199190a250565b600860209081526000928352604080842090915290825290205460ff1681565b6001600160a01b0382166000908152600260205260408120600601548190611bd590849063ffffffff612edb16565b6001600160a01b0385166000908152600260205260408120600801546011546013546012549495509193909290611c1390889063ffffffff612edb16565b6010549091506000611c3b611c2e848463ffffffff612f0316565b859063ffffffff612f0316565b90506000611c4f868363ffffffff612ead16565b90506000611c63898963ffffffff612f0316565b9050611c7e8261180d60185484612f0390919063ffffffff16565b9c9b505050505050505050505050565b6001600160a01b039182166000908152600260209081526040808320938352600b84018252808320549094168252600a909201909152205490565b60145481565b60076020526000908152604090205481565b600d546001600160a01b03163314611d0b5760405162461bcd60e51b8152600401610a3c90614742565b601a80546001600160a01b0319166001600160a01b0392909216919091179055565b3360008181526004602052604090205462010000900460ff168015611d7057506001600160a01b038116600090815260026020526040902054610100900460ff16155b611d8c5760405162461bcd60e51b8152600401610a3c90614626565b6060611d9787612b72565b8686604051602001611dab939291906141ea565b60408051601f19818403018152918152336000908152601d60209081529190208251929350611dde929091840190613b06565b507f87cfb53b7cc0f446465723d1075eb0d650edc90e4365956fc1419a675c867bba338883878760405161117295949392919061439d565b600d546001600160a01b03163314611e405760405162461bcd60e51b8152600401610a3c90614742565b6001600160a01b038116611e665760405162461bcd60e51b8152600401610a3c90614aa7565b600d546001600160a01b0382811691161415611e945760405162461bcd60e51b8152600401610a3c906147ed565b600d80546001600160a01b0319166001600160a01b0392909216919091179055565b6003602052600090815260409020546001600160a01b031681565b60135481565b6001600160a01b03841660009081526008602090815260408083203380855292529091205485919060ff16611f1e5760405162461bcd60e51b8152600401610a3c90614ce9565b846001600160a01b0316866001600160a01b03167fcc2b84a32bce3d060db75a4c0e59bfef192503be5c83bfa5ad79a41d384ff22c8686604051611f639291906144e9565b60405180910390a3505050505050565b604051610b4090614294565b3360008181526004602052604090205462010000900460ff168015611fac5750336001600160a01b038216145b80611fd35750600d546001600160a01b031633148015611fd357506001600160a01b038116155b611fef5760405162461bcd60e51b8152600401610a3c90614b6b565b3360008181526008602090815260408083206001600160a01b038716845290915290819020805460ff19166001179055517f2fd5b26f00131bd8ca0fc556207292b85a6bec241341df82724333227458e6309161124e918590614346565b6001600160a01b038084166000908152600260209081526040808320938616835260099093019052908120548490849060ff1661209c5760405162461bcd60e51b8152600401610a3c90614b04565b60016001600160a01b03871660009081526002602052604090205460ff1660038111156120c557fe5b14806120f7575060026001600160a01b03871660009081526002602052604090205460ff1660038111156120f557fe5b145b80612128575060036001600160a01b03871660009081526002602052604090205460ff16600381111561212657fe5b145b156121675760006121398786611ba6565b905060006121488888886116f0565b6018549091506121629061180d848463ffffffff612f0316565b945050505b50509392505050565b3360008181526004602052604081205490919060ff166121a25760405162461bcd60e51b8152600401610a3c90614b3b565b60009150815b33600090815260046020526040902060020154811015612313573360009081526004602090815260408083208484526005018252808320546001600160a01b031680845260029092529091205460019060ff16600381111561220657fe5b1480612238575060026001600160a01b03821660009081526002602052604090205460ff16600381111561223657fe5b145b80612269575060036001600160a01b03821660009081526002602052604090205460ff16600381111561226757fe5b145b1561230a576001600160a01b0381166000818152600260208181526040808420338552600c810183529084204390559390925290819052600482015460038301546005909301546122ba9390612f6f565b6001600160a01b038416600090815260026020526040812060058101929092556003820192909255600401919091556122f482334361204d565b9050612306858263ffffffff612ead16565b9450505b506001016121a8565b5061231d82613046565b5090565b601d6020908152600091825260409182902080548351601f6002600019610100600186161502019093169290920491820184900484028101840190945280845290918301828280156123b45780601f10612389576101008083540402835291602001916123b4565b820191906000526020600020905b81548152906001019060200180831161239757829003601f168201915b505050505081565b60008054610100900460ff16806123d657506123d66131c4565b806123e4575060005460ff16155b6124005760405162461bcd60e51b8152600401610a3c90614958565b600054610100900460ff1615801561242b576000805460ff1961ff0019909116610100171660011790555b600d80546001600160a01b03808a166001600160a01b031992831617909255600a8054898416908316179055600b8054888416908316179055600c8054928716928216929092179091556015849055601a80548216737a250d5630b4cf539739df2c5dacb4c659f2488d179055601b805490911673f418588522d5dd018b425e472991e52ebbeeeeee17905567016345785d8a00006017556802b5e3af16b18800006019556a0a56fa5b99019a5c800000601655629896806018556000600e819055600f81905560108190556011819055601281905560138190556014819055600d546040516001600160a01b0390911690600080516020614e1a83398151915290612536906146a2565b60405180910390a3600d54612556906001600160a01b03166000806131d5565b6000806001600160a01b0316600080516020614e1a83398151915260405161257d90614b9b565b60405180910390a361259260008060006131d5565b6001915080156125a8576000805461ff00191690555b5095945050505050565b601c6020908152600092835260408084208252918352918190208054825160026001831615610100026000190190921691909104601f8101859004850282018501909352828152929091908301828280156123b45780601f10612389576101008083540402835291602001916123b4565b6001600160a01b038316600090815260046020526040902054839062010000900460ff16801561267157506001600160a01b038116600090815260026020526040902054610100900460ff16155b61268d5760405162461bcd60e51b8152600401610a3c90614626565b33600090815260046020526040902054610100900460ff166126e9576126e93384848080601f0160208091040260200160405190810160405280939291908181526020018383808284376000920191909152506126f992505050565b6126f38433612985565b50505050565b61270282613386565b50600061270e82610ec8565b9050806001600160a01b0316836001600160a01b0316141561278c576001600160a01b03811660008181526004602052604090819020805461ff001916610100179055517fb3ec32f104accdf61583b5b94e7b80414c5dc5845ffc42e00f5f19775a358a0a9061277f9085906144fd565b60405180910390a2610cbe565b60405162461bcd60e51b8152600401610a3c906148a1565b6019548110156127c65760405162461bcd60e51b8152600401610a3c9061490f565b600b546127e4906001600160a01b031684308463ffffffff61341716565b610cbe838383612e99565b6001600160a01b038116600090815260046020526040902054819062010000900460ff1680156128275750336001600160a01b038216145b8061284e5750600d546001600160a01b03163314801561284e57506001600160a01b038116155b61286a5760405162461bcd60e51b8152600401610a3c90614b6b565b6001600160a01b038216600090815260046020526040902054829062010000900460ff1680156128b857506001600160a01b038116600090815260026020526040902054610100900460ff16155b6128d45760405162461bcd60e51b8152600401610a3c90614626565b600d546001600160a01b03163314801561291f5750600d546001600160a01b038481169116148061290c57506001600160a01b038316155b8061291f57506001600160a01b03831630145b1561292957612965565b6001600160a01b038316600090815260026020819052604090912001546001146129655760405162461bcd60e51b8152600401610a3c9061459b565b50503360009081526002602052604090204360079091015550565b465b90565b6001600160a01b03808316600090815260026020908152604080832093851683526009909301905220548290829060ff16156129d35760405162461bcd60e51b8152600401610a3c906149d6565b6129dc83613386565b506001600160a01b03808416600090815260046020818152604080842094891680855260028084528286209087018054958801855283872086905594865260058701909352932080546001600160a01b03191690931790925554612a4790600163ffffffff612ead16565b600280840191909155810180546001600160a01b0387166000818152600a850160209081526040808320859055938252600b860190529190912080546001600160a01b031916909117905554612aa490600163ffffffff612ead16565b6002808301919091556001600160a01b038087166000908152600c840160209081526040808320439055600986018252808320805460ff19166001908117909155938b1683529390529190912060048101546003820154600590920154612b0c939290612f6f565b6001600160a01b03808a1660008181526002602052604080822060058101959095556003850195909555600490930194909455915191881692917f5ffe3cc8f1055f172e55be8d832143a6cffb4cb3a56a18bf780fd4112d4cecc79190a3505050505050565b606081612b9757506040805180820190915260018152600360fc1b6020820152610ee5565b8160005b8115612baf57600101600a82049150612b9b565b6060816001600160401b0381118015612bc757600080fd5b506040519080825280601f01601f191660200182016040528015612bf2576020820181803683370190505b50859350905060001982015b8315612c4357600a840660300160f81b82828060019003935081518110612c2157fe5b60200101906001600160f81b031916908160001a905350600a84049350612bfe565b50949350505050565b3360008181526004602052604081209091612c699085904361204d565b6001600160a01b03858116600090815260048401602081815260408084208054600289018054875260058a0180865284882054891688529585528387208290558054875294909352818520549285528185208054939096166001600160a01b031993841617909555938390558154835292909120805490921690915554909250612cf4906001612edb565b6002828101919091556001600160a01b03858116600090815260208381526040808320338452600981018352818420805460ff19169055600a8101808452828520805497830180548752600b840180875285882054891688529286528487208990558054875291909452828520549685528285208054979096166001600160a01b0319978816179095559183905583548352909120805490931690925554612d9d906001612edb565b6002808301919091556001600160a01b03861660009081526020919091526040812060048101546003820154600590920154612dda939290612f6f565b6001600160a01b038816600090815260026020526040902060058101919091556003810191909155600401556001815460ff166003811115612e1857fe5b1480612e3357506002815460ff166003811115612e3157fe5b145b80612e4d57506003815460ff166003811115612e4b57fe5b145b15612e5b57612e5b83613046565b60405133906001600160a01b038716907f9d3d878d2fb01c43ad7ec7c20d8f5d0dbac4888df940a4edaab4540ccefdc10290600090a3505092915050565b612ea28161346f565b610cbe8383836131d5565b600082820183811015612ed25760405162461bcd60e51b8152600401610a3c9061466b565b90505b92915050565b600082821115612efd5760405162461bcd60e51b8152600401610a3c906147b6565b50900390565b600082612f1257506000612ed5565b82820282848281612f1f57fe5b0414612ed25760405162461bcd60e51b8152600401610a3c90614a0d565b6000808211612f5e5760405162461bcd60e51b8152600401610a3c906148d8565b818381612f6757fe5b049392505050565b6000808085806001896002811115612f8357fe5b1415612fa157612f9a82600163ffffffff612ead16565b9150612ff7565b6000896002811115612faf57fe5b1415612fc657612f9a82600163ffffffff612edb16565b6002896002811115612fd457fe5b1415612fdf57612ff7565b60405162461bcd60e51b8152600401610a3c906149a6565b6000613009438863ffffffff612edb16565b9050600061301d838363ffffffff612f0316565b905060006130318a8363ffffffff612ead16565b949c949b50439a509398505050505050505050565b600260015414156130695760405162461bcd60e51b8152600401610a3c90614cb2565b6002600155600c546040516370a0823160e01b81526000916001600160a01b0316906370a082319061309f903090600401614332565b60206040518083038186803b1580156130b757600080fd5b505afa1580156130cb573d6000803e3d6000fd5b505050506040513d601f19601f820116820180604052508101906130ef91906140ea565b9050600061310860145483612edb90919063ffffffff16565b9050600061311c828563ffffffff612f0316565b9050600061313560185483612f3d90919063ffffffff16565b60145490915061314b908263ffffffff612edb16565b6014553360009081526006602052604090205461316e908263ffffffff612ead16565b3360008181526006602052604090209190915561318b9082613675565b50604051819033907ff9984c8173c4b4ff9cc454f76ed19c053f4490ccb224fd9ddffeb4ef4bea353090600090a3505060018055505050565b60006131cf306137f2565b15905090565b60006131e084613386565b905060006131ff60195461180d60185486612f0390919063ffffffff16565b6001600160a01b0386166000908152600460209081526040808320805462ff00001916620100001790556002909152902060018181018690558154929350869260ff19169083600381111561325057fe5b02179055506001600160a01b038516600081815260026020908152604080832043600682018190556007820155600801859055600e80548452600390925290912080546001600160a01b031916909217909155546132b590600163ffffffff612ead16565b600e5560018460038111156132c657fe5b14806132dd575060028460038111156132db57fe5b145b806132f3575060038460038111156132f157fe5b145b1561331c5761330f6001826013546010546011546012546137f8565b6012556011556010556013555b8115801561333257506001600160a01b03851615155b1561334d57600d5461334d906001600160a01b031686612985565b6001600160a01b0385161561336757613367600086612985565b600d546001600160a01b03868116911614611055576110558586612985565b6001600160a01b03811660009081526004602052604081205460ff16156133af57506001610ee5565b6001600160a01b038216600081815260046020908152604080832043600180830191909155815460ff19168117909155600f805485526005909352922080546001600160a01b031916909317909255905461340f9163ffffffff612ead16565b600f55919050565b6126f3846323b872dd60e01b85858560405160240161343893929190614360565b60408051601f198184030181529190526020810180516001600160e01b03166001600160e01b031990931692909217909152613964565b601454613482908263ffffffff612ead16565b601455600a5460408051630261bf8b60e01b815290516001600160a01b03909216916000918391630261bf8b91600480820192602092909190829003018186803b1580156134cf57600080fd5b505afa1580156134e3573d6000803e3d6000fd5b505050506040513d601f19601f820116820180604052508101906135079190613bf6565b9050600b60009054906101000a90046001600160a01b03166001600160a01b031663095ea7b3836001600160a01b031663ed6ff7606040518163ffffffff1660e01b815260040160206040518083038186803b15801561356657600080fd5b505afa15801561357a573d6000803e3d6000fd5b505050506040513d601f19601f8201168201806040525081019061359e9190613bf6565b856040518363ffffffff1660e01b81526004016135bc929190614384565b602060405180830381600087803b1580156135d657600080fd5b505af11580156135ea573d6000803e3d6000fd5b505050506040513d601f19601f8201168201806040525081019061360e9190613f04565b50600b54601554604051636968703360e11b81526001600160a01b038085169363d2d0e066936136479391909216918891600401614420565b600060405180830381600087803b15801561366157600080fd5b505af1158015610b2b573d6000803e3d6000fd5b600c54601a5460405163095ea7b360e01b81526000926001600160a01b039081169263095ea7b3926136af92909116908690600401614384565b602060405180830381600087803b1580156136c957600080fd5b505af11580156136dd573d6000803e3d6000fd5b505050506040513d601f19601f820116820180604052508101906137019190613f04565b50600c546060805190916001600160a01b031690829060009061372057fe5b6001600160a01b039283166020918202929092010152601b5482519116908290600190811061374b57fe5b6001600160a01b039283166020918202929092010152601a546040516338ed173960e01b81529116906338ed17399061379190869060019086908a904290600401614d20565b600060405180830381600087803b1580156137ab57600080fd5b505af11580156137bf573d6000803e3d6000fd5b505050506040513d6000823e601f3d908101601f191682016040526137e79190810190613e6d565b506001949350505050565b3b151590565b60008080808780828960018e600281111561380f57fe5b14156138515761382684600163ffffffff612ead16565b9350613838818463ffffffff612f0316565b915061384a828e63ffffffff612ead16565b91506138cf565b60008e600281111561385f57fe5b141561389a5761387684600163ffffffff612edb16565b9350613888818463ffffffff612f0316565b915061384a828e63ffffffff612edb16565b60028e60028111156138a857fe5b1415612fdf576138386138c284600163ffffffff612edb16565b829063ffffffff612f0316565b8360006138e2438c63ffffffff612edb16565b905060006138f6858863ffffffff612f3d16565b90508c600061390b858563ffffffff612f0316565b9050600061391f828563ffffffff612f0316565b9050613931838263ffffffff612ead16565b9250856001141561394157600092505b899d50839c50829b50439a50505050505050505050509650965096509692505050565b60606139b9826040518060400160405280602081526020017f5361666545524332303a206c6f772d6c6576656c2063616c6c206661696c6564815250856001600160a01b03166139f39092919063ffffffff16565b805190915015610cbe57808060200190518101906139d79190613f04565b610cbe5760405162461bcd60e51b8152600401610a3c90614c68565b6060613a028484600085613a0c565b90505b9392505050565b606082471015613a2e5760405162461bcd60e51b8152600401610a3c9061485b565b613a37856137f2565b613a535760405162461bcd60e51b8152600401610a3c90614beb565b60006060866001600160a01b03168587604051613a7091906141ce565b60006040518083038185875af1925050503d8060008114613aad576040519150601f19603f3d011682016040523d82523d6000602084013e613ab2565b606091505b5091509150613ac2828286613acd565b979650505050505050565b60608315613adc575081613a05565b825115613aec5782518084602001fd5b8160405162461bcd60e51b8152600401610a3c91906144fd565b828054600181600116156101000203166002900490600052602060002090601f016020900481019282601f10613b4757805160ff1916838001178555613b74565b82800160010185558215613b74579182015b82811115613b74578251825591602001919060010190613b59565b5061231d926129829250905b8082111561231d5760008155600101613b80565b60008083601f840112613ba5578182fd5b5081356001600160401b03811115613bbb578182fd5b602083019150836020828501011115613bd357600080fd5b9250929050565b600060208284031215613beb578081fd5b8135612ed281614e01565b600060208284031215613c07578081fd5b8151612ed281614e01565b60008060408385031215613c24578081fd5b8235613c2f81614e01565b91506020830135613c3f81614e01565b809150509250929050565b600080600080600060a08688031215613c61578081fd5b8535613c6c81614e01565b94506020860135613c7c81614e01565b93506040860135613c8c81614e01565b92506060860135613c9c81614e01565b949793965091946080013592915050565b60008060008060608587031215613cc2578384fd5b8435613ccd81614e01565b93506020850135613cdd81614e01565b925060408501356001600160401b03811115613cf7578283fd5b613d0387828801613b94565b95989497509550505050565b600080600060608486031215613d23578283fd5b8335613d2e81614e01565b92506020840135613d3e81614e01565b929592945050506040919091013590565b600080600060408486031215613d63578283fd5b8335613d6e81614e01565b925060208401356001600160401b03811115613d88578283fd5b613d9486828701613b94565b9497909650939450505050565b60008060408385031215613db3578182fd5b8235613dbe81614e01565b946020939093013593505050565b60008060008060608587031215613de1578384fd5b8435613dec81614e01565b93506020850135925060408501356001600160401b03811115613cf7578283fd5b60008060008060008060c08789031215613e25578384fd5b8635613e3081614e01565b95506020870135945060408701359350606087013560ff81168114613e53578182fd5b9598949750929560808101359460a0909101359350915050565b60006020808385031215613e7f578182fd5b82516001600160401b03811115613e94578283fd5b80840185601f820112613ea5578384fd5b80519150613eba613eb583614db6565b614d90565b8281528381019082850185850284018601891015613ed6578687fd5b8693505b84841015613ef8578051835260019390930192918501918501613eda565b50979650505050505050565b600060208284031215613f15578081fd5b81518015158114612ed2578182fd5b60008060208385031215613f36578182fd5b82356001600160401b03811115613f4b578283fd5b613f5785828601613b94565b90969095509350505050565b60006020808385031215613f75578182fd5b82356001600160401b0380821115613f8b578384fd5b81850186601f820112613f9c578485fd5b8035925081831115613fac578485fd5b613fbe601f8401601f19168501614d90565b91508282528684848301011115613fd3578485fd5b8284820185840137509081019091019190915292915050565b60008060008060008060808789031215614004578384fd5b863560048110614012578485fd5b955060208701356001600160401b038082111561402d578586fd5b6140398a838b01613b94565b90975095506040890135915080821115614051578384fd5b5061405e89828a01613b94565b979a9699509497949695606090950135949350505050565b6000806000806060858703121561408b578182fd5b843560048110614099578283fd5b935060208501356001600160401b038111156140b3578283fd5b6140bf87828801613b94565b9598909750949560400135949350505050565b6000602082840312156140e3578081fd5b5035919050565b6000602082840312156140fb578081fd5b5051919050565b600080600080600060608688031215614119578283fd5b8535945060208601356001600160401b0380821115614136578485fd5b61414289838a01613b94565b9096509450604088013591508082111561415a578283fd5b5061416788828901613b94565b969995985093965092949392505050565b60008284528282602086013780602084860101526020601f19601f85011685010190509392505050565b600081518084526141ba816020860160208601614dd5565b601f01601f19169290920160200192915050565b600082516141e0818460208701614dd5565b9190910192915050565b600084516141fc818460208901614dd5565b808301602b60f81b815284866001830137909301600101908152949350505050565b61190160f01b81526002810192909252602282015260420190565b7f454950373132446f6d61696e28737472696e67206e616d652c75696e7432353681527f20636861696e49642c6164647265737320766572696679696e67436f6e74726160208201526263742960e81b604082015260430190565b7f5375627363726962652861646472657373206368616e6e656c2c75696e74323581527f36206e6f6e63652c75696e743235362065787069727929000000000000000000602082015260370190565b7f556e7375627363726962652861646472657373206368616e6e656c2c75696e7481527f323536206e6f6e63652c75696e74323536206578706972792900000000000000602082015260390190565b6001600160a01b0391909116815260200190565b6001600160a01b0392831681529116602082015260400190565b6001600160a01b039384168152919092166020820152604081019190915260600190565b6001600160a01b03929092168252602082015260400190565b600060018060a01b0387168252856020830152608060408301526143c460808301866141a2565b82810360608401526143d7818587614178565b98975050505050505050565b6001600160a01b0385811682528416602082015260408101839052608060608201819052600090614416908301846141a2565b9695505050505050565b6001600160a01b03939093168352602083019190915261ffff16604082015260600190565b901515815260200190565b9515158652931515602086015291151560408501526060840152608083015260a082015260c00190565b90815260200190565b9384526001600160a01b039290921660208401526040830152606082015260800190565b938452602084019290925260408301526001600160a01b0316606082015260800190565b93845260ff9290921660208401526040830152606082015260800190565b600060208252613a02602083018486614178565b600060208252613a0560208301846141a2565b610140810160048c1061451f57fe5b9a815298151560208a015260408901979097526060880195909552608087019390935260a086019190915260c085015260e08401526101008301526101209091015290565b6020808252601c908201527f5573657220616c72656164792061204368616e6e656c204f776e657200000000604082015260600190565b6020808252818101527f4368616e6e656c206861732065787465726e616c207375627363726962657273604082015260600190565b60208082526015908201527421b7b73a3930b1ba103430b990283937b6b7ba32b960591b604082015260600190565b6020808252600d908201526c496e76616c6964206e6f6e636560981b604082015260600190565b60208082526025908201527f4368616e6e656c206465616374697661746564206f7220646f65736e27742065604082015264786973747360d81b606082015260800190565b6020808252601b908201527f536166654d6174683a206164646974696f6e206f766572666c6f770000000000604082015260600190565b60208082526030908201527f312b516d5362525431364a56463932327941423236597857464436446d47736e60408201526f14d21b4e15909c91d5545b961514cdcd60821b606082015260800190565b60208082526030908201527f312b516d526365776e4e70647432445759757564334c784854776f783252715160408201526f1c3abcad2ba2251b32ac9b34a435b33760811b606082015260800190565b60208082526029908201527f45504e53436f72653a3a6f6e6c79476f762c2075736572206973206e6f7420676040820152686f7665726e616e636560b81b606082015260800190565b602080825260119082015270496e76616c6964207369676e617475726560781b604082015260600190565b6020808252601e908201527f536166654d6174683a207375627472616374696f6e206f766572666c6f770000604082015260600190565b60208082526048908201527f45504e53436f72653a3a7472616e73666572476f7665726e616e63652c206e6560408201527f7720676f7665726e616e63652063616e27742062652063757272656e7420676f6060820152677665726e616e636560c01b608082015260a00190565b60208082526026908201527f416464726573733a20696e73756666696369656e742062616c616e636520666f6040820152651c8818d85b1b60d21b606082015260800190565b6020808252601c908201527f5075626c6963204b65792056616c69646174696f6e204661696c656400000000604082015260600190565b6020808252601a908201527f536166654d6174683a206469766973696f6e206279207a65726f000000000000604082015260600190565b60208082526029908201527f496e73756666696369656e742046756e6473206f72206d6178206365696c696e60408201526819c81c995858da195960ba1b606082015260800190565b6020808252602e908201527f496e697469616c697a61626c653a20636f6e747261637420697320616c72656160408201526d191e481a5b9a5d1a585b1a5e995960921b606082015260800190565b60208082526016908201527524b73b30b634b21021b430b73732b61020b1ba34b7b760511b604082015260600190565b60208082526019908201527f5375627363726962657220616c72656164792045786973747300000000000000604082015260600190565b60208082526021908201527f536166654d6174683a206d756c7469706c69636174696f6e206f766572666c6f6040820152607760f81b606082015260800190565b60208082526014908201527310da185b9b995b08151e5c1948125b9d985b1a5960621b604082015260600190565b60208082526011908201527014da59db985d1d5c9948195e1c1a5c9959607a1b604082015260600190565b6020808252603a908201527f45504e53436f72653a3a7472616e73666572476f7665726e616e63652c206e6560408201527f7720676f7665726e616e63652063616e2774206265206e6f6e65000000000000606082015260800190565b60208082526019908201527f5375627363726962657220646f65736e27742045786973747300000000000000604082015260600190565b602080825260169082015275155cd95c881b9bdd081858dd1a5d985d1959081e595d60521b604082015260600190565b6020808252601690820152754368616e6e656c20646f65736e27742045786973747360501b604082015260600190565b60208082526030908201527f312b516d54434b594c324852627744366e474e76464c6534775076444e75615960408201526f477236526956654376576a56706e357360801b606082015260800190565b6020808252601d908201527f416464726573733a2063616c6c20746f206e6f6e2d636f6e7472616374000000604082015260600190565b60208082526026908201527f456974686572204368616e6e656c204f776e6572206f72204e6f74205375627360408201526518dc9a58995960d21b606082015260800190565b6020808252602a908201527f5361666545524332303a204552433230206f7065726174696f6e20646964206e6040820152691bdd081cdd58d8d9595960b21b606082015260800190565b6020808252601f908201527f5265656e7472616e637947756172643a207265656e7472616e742063616c6c00604082015260600190565b6020808252601f908201527f4e6f7420617574686f726973656420746f2073656e64206d6573736167657300604082015260600190565b600060a082018783526020878185015260a0604085015281875180845260c0860191508289019350845b81811015614d6f5784516001600160a01b031683529383019391830191600101614d4a565b50506001600160a01b03969096166060850152505050608001529392505050565b6040518181016001600160401b0381118282101715614dae57600080fd5b604052919050565b60006001600160401b03821115614dcb578081fd5b5060209081020190565b60005b83811015614df0578181015183820152602001614dd8565b838111156126f35750506000910152565b6001600160a01b0381168114614e1657600080fd5b5056fe1f97bc77a1686355f130d93883d42f2434474cf65f97b29bc451ea7f9388d36aa26469706673582212205d88caeb96477f8064d99e3831680ae4c387ea60cc771863a166aaff0692979864736f6c634300060b0033",
  "linkReferences": {},
  "deployedLinkReferences": {}
}