{"abi":[{"type":"function","name":"ADD_CHANNEL_MIN_FEES","inputs":[],"outputs":[{"name":"","type":"uint256","internalType":"uint256"}],"stateMutability":"view"},{"type":"function","name":"CHANNEL_POOL_FUNDS","inputs":[],"outputs":[{"name":"","type":"uint256","internalType":"uint256"}],"stateMutability":"view"},{"type":"function","name":"CREATE_CHANNEL_TYPEHASH","inputs":[],"outputs":[{"name":"","type":"bytes32","internalType":"bytes32"}],"stateMutability":"view"},{"type":"function","name":"DOMAIN_TYPEHASH","inputs":[],"outputs":[{"name":"","type":"bytes32","internalType":"bytes32"}],"stateMutability":"view"},{"type":"function","name":"FEE_AMOUNT","inputs":[],"outputs":[{"name":"","type":"uint256","internalType":"uint256"}],"stateMutability":"view"},{"type":"function","name":"MIN_POOL_CONTRIBUTION","inputs":[],"outputs":[{"name":"","type":"uint256","internalType":"uint256"}],"stateMutability":"view"},{"type":"function","name":"PROTOCOL_POOL_FEES","inputs":[],"outputs":[{"name":"","type":"uint256","internalType":"uint256"}],"stateMutability":"view"},{"type":"function","name":"PUSH_TOKEN_ADDRESS","inputs":[],"outputs":[{"name":"","type":"address","internalType":"address"}],"stateMutability":"view"},{"type":"function","name":"REFERRAL_CODE","inputs":[],"outputs":[{"name":"","type":"uint256","internalType":"uint256"}],"stateMutability":"view"},{"type":"function","name":"UNISWAP_V2_ROUTER","inputs":[],"outputs":[{"name":"","type":"address","internalType":"address"}],"stateMutability":"view"},{"type":"function","name":"WETH_ADDRESS","inputs":[],"outputs":[{"name":"","type":"address","internalType":"address"}],"stateMutability":"view"},{"type":"function","name":"aDaiAddress","inputs":[],"outputs":[{"name":"","type":"address","internalType":"address"}],"stateMutability":"view"},{"type":"function","name":"addPoolFees","inputs":[{"name":"_rewardAmount","type":"uint256","internalType":"uint256"}],"outputs":[],"stateMutability":"nonpayable"},{"type":"function","name":"addSubGraph","inputs":[{"name":"_subGraphData","type":"bytes","internalType":"bytes"}],"outputs":[],"stateMutability":"nonpayable"},{"type":"function","name":"arbitraryReqFees","inputs":[{"name":"","type":"address","internalType":"address"}],"outputs":[{"name":"","type":"uint256","internalType":"uint256"}],"stateMutability":"view"},{"type":"function","name":"batchVerification","inputs":[{"name":"_startIndex","type":"uint256","internalType":"uint256"},{"name":"_endIndex","type":"uint256","internalType":"uint256"},{"name":"_channelList","type":"address[]","internalType":"address[]"}],"outputs":[{"name":"","type":"bool","internalType":"bool"}],"stateMutability":"nonpayable"},{"type":"function","name":"blockChannel","inputs":[{"name":"_channelAddress","type":"address","internalType":"address"}],"outputs":[],"stateMutability":"nonpayable"},{"type":"function","name":"calculateEpochRewards","inputs":[{"name":"_user","type":"address","internalType":"address"},{"name":"_epochId","type":"uint256","internalType":"uint256"}],"outputs":[{"name":"rewards","type":"uint256","internalType":"uint256"}],"stateMutability":"view"},{"type":"function","name":"celebUserFunds","inputs":[{"name":"","type":"address","internalType":"address"}],"outputs":[{"name":"","type":"uint256","internalType":"uint256"}],"stateMutability":"view"},{"type":"function","name":"channelById","inputs":[{"name":"","type":"uint256","internalType":"uint256"}],"outputs":[{"name":"","type":"address","internalType":"address"}],"stateMutability":"view"},{"type":"function","name":"channelInfo","inputs":[{"name":"","type":"bytes32","internalType":"bytes32"}],"outputs":[{"name":"channelType","type":"uint8","internalType":"enum CoreTypes.ChannelType"},{"name":"channelState","type":"uint8","internalType":"uint8"},{"name":"verifiedBy","type":"address","internalType":"address"},{"name":"poolContribution","type":"uint256","internalType":"uint256"},{"name":"channelHistoricalZ","type":"uint256","internalType":"uint256"},{"name":"channelFairShareCount","type":"uint256","internalType":"uint256"},{"name":"channelLastUpdate","type":"uint256","internalType":"uint256"},{"name":"channelStartBlock","type":"uint256","internalType":"uint256"},{"name":"channelUpdateBlock","type":"uint256","internalType":"uint256"},{"name":"channelWeight","type":"uint256","internalType":"uint256"},{"name":"expiryTime","type":"uint256","internalType":"uint256"}],"stateMutability":"view"},{"type":"function","name":"channelNotifSettings","inputs":[{"name":"","type":"address","internalType":"address"}],"outputs":[{"name":"","type":"string","internalType":"string"}],"stateMutability":"view"},{"type":"function","name":"channelUpdateCounter","inputs":[{"name":"","type":"address","internalType":"address"}],"outputs":[{"name":"","type":"uint256","internalType":"uint256"}],"stateMutability":"view"},{"type":"function","name":"channels","inputs":[{"name":"","type":"address","internalType":"address"}],"outputs":[{"name":"channelType","type":"uint8","internalType":"enum CoreTypes.ChannelType"},{"name":"channelState","type":"uint8","internalType":"uint8"},{"name":"verifiedBy","type":"address","internalType":"address"},{"name":"poolContribution","type":"uint256","internalType":"uint256"},{"name":"channelHistoricalZ","type":"uint256","internalType":"uint256"},{"name":"channelFairShareCount","type":"uint256","internalType":"uint256"},{"name":"channelLastUpdate","type":"uint256","internalType":"uint256"},{"name":"channelStartBlock","type":"uint256","internalType":"uint256"},{"name":"channelUpdateBlock","type":"uint256","internalType":"uint256"},{"name":"channelWeight","type":"uint256","internalType":"uint256"},{"name":"expiryTime","type":"uint256","internalType":"uint256"}],"stateMutability":"view"},{"type":"function","name":"channelsCount","inputs":[],"outputs":[{"name":"","type":"uint256","internalType":"uint256"}],"stateMutability":"view"},{"type":"function","name":"claimChatIncentives","inputs":[{"name":"_amount","type":"uint256","internalType":"uint256"}],"outputs":[],"stateMutability":"nonpayable"},{"type":"function","name":"createChannelSettings","inputs":[{"name":"_notifOptions","type":"uint256","internalType":"uint256"},{"name":"_notifSettings","type":"string","internalType":"string"},{"name":"_notifDescription","type":"string","internalType":"string"},{"name":"_amountDeposited","type":"uint256","internalType":"uint256"}],"outputs":[],"stateMutability":"nonpayable"},{"type":"function","name":"createChannelWithPUSH","inputs":[{"name":"_channelType","type":"uint8","internalType":"enum CoreTypes.ChannelType"},{"name":"_identity","type":"bytes","internalType":"bytes"},{"name":"_amount","type":"uint256","internalType":"uint256"},{"name":"_channelExpiryTime","type":"uint256","internalType":"uint256"}],"outputs":[],"stateMutability":"nonpayable"},{"type":"function","name":"daiAddress","inputs":[],"outputs":[{"name":"","type":"address","internalType":"address"}],"stateMutability":"view"},{"type":"function","name":"daoHarvestPaginated","inputs":[{"name":"_tillEpoch","type":"uint256","internalType":"uint256"}],"outputs":[],"stateMutability":"nonpayable"},{"type":"function","name":"epnsCommunicator","inputs":[],"outputs":[{"name":"","type":"address","internalType":"address"}],"stateMutability":"view"},{"type":"function","name":"epochDuration","inputs":[],"outputs":[{"name":"","type":"uint256","internalType":"uint256"}],"stateMutability":"view"},{"type":"function","name":"epochRewards","inputs":[{"name":"","type":"uint256","internalType":"uint256"}],"outputs":[{"name":"","type":"uint256","internalType":"uint256"}],"stateMutability":"view"},{"type":"function","name":"epochToTotalStakedWeight","inputs":[{"name":"","type":"uint256","internalType":"uint256"}],"outputs":[{"name":"","type":"uint256","internalType":"uint256"}],"stateMutability":"view"},{"type":"function","name":"feePoolStakingContract","inputs":[],"outputs":[{"name":"","type":"address","internalType":"address"}],"stateMutability":"view"},{"type":"function","name":"genesisEpoch","inputs":[],"outputs":[{"name":"","type":"uint256","internalType":"uint256"}],"stateMutability":"view"},{"type":"function","name":"getChannelVerfication","inputs":[{"name":"_channel","type":"address","internalType":"address"}],"outputs":[{"name":"verificationStatus","type":"uint8","internalType":"uint8"}],"stateMutability":"view"},{"type":"function","name":"governance","inputs":[],"outputs":[{"name":"","type":"address","internalType":"address"}],"stateMutability":"view"},{"type":"function","name":"groupFairShareCount","inputs":[],"outputs":[{"name":"","type":"uint256","internalType":"uint256"}],"stateMutability":"view"},{"type":"function","name":"groupHistoricalZ","inputs":[],"outputs":[{"name":"","type":"uint256","internalType":"uint256"}],"stateMutability":"view"},{"type":"function","name":"groupLastUpdate","inputs":[],"outputs":[{"name":"","type":"uint256","internalType":"uint256"}],"stateMutability":"view"},{"type":"function","name":"groupNormalizedWeight","inputs":[],"outputs":[{"name":"","type":"uint256","internalType":"uint256"}],"stateMutability":"view"},{"type":"function","name":"handleChatRequestData","inputs":[{"name":"requestSender","type":"address","internalType":"address"},{"name":"requestReceiver","type":"address","internalType":"address"},{"name":"amount","type":"uint256","internalType":"uint256"}],"outputs":[],"stateMutability":"nonpayable"},{"type":"function","name":"harvestAll","inputs":[],"outputs":[],"stateMutability":"nonpayable"},{"type":"function","name":"harvestPaginated","inputs":[{"name":"_tillEpoch","type":"uint256","internalType":"uint256"}],"outputs":[],"stateMutability":"nonpayable"},{"type":"function","name":"initializeStake","inputs":[],"outputs":[],"stateMutability":"nonpayable"},{"type":"function","name":"isMigrationComplete","inputs":[],"outputs":[{"name":"","type":"bool","internalType":"bool"}],"stateMutability":"view"},{"type":"function","name":"lastEpochRelative","inputs":[{"name":"_from","type":"uint256","internalType":"uint256"},{"name":"_to","type":"uint256","internalType":"uint256"}],"outputs":[{"name":"","type":"uint256","internalType":"uint256"}],"stateMutability":"view"},{"type":"function","name":"lendingPoolProviderAddress","inputs":[],"outputs":[{"name":"","type":"address","internalType":"address"}],"stateMutability":"view"},{"type":"function","name":"name","inputs":[],"outputs":[{"name":"","type":"string","internalType":"string"}],"stateMutability":"view"},{"type":"function","name":"nonces","inputs":[{"name":"","type":"address","internalType":"address"}],"outputs":[{"name":"","type":"uint256","internalType":"uint256"}],"stateMutability":"view"},{"type":"function","name":"pauseContract","inputs":[],"outputs":[],"stateMutability":"nonpayable"},{"type":"function","name":"paused","inputs":[],"outputs":[{"name":"","type":"bool","internalType":"bool"}],"stateMutability":"view"},{"type":"function","name":"previouslySetEpochRewards","inputs":[],"outputs":[{"name":"","type":"uint256","internalType":"uint256"}],"stateMutability":"view"},{"type":"function","name":"processedMessages","inputs":[{"name":"","type":"bytes32","internalType":"bytes32"}],"outputs":[{"name":"","type":"bool","internalType":"bool"}],"stateMutability":"view"},{"type":"function","name":"pushChannelAdmin","inputs":[],"outputs":[{"name":"","type":"address","internalType":"address"}],"stateMutability":"view"},{"type":"function","name":"receiveWormholeMessages","inputs":[{"name":"payload","type":"bytes","internalType":"bytes"},{"name":"","type":"bytes[]","internalType":"bytes[]"},{"name":"sourceAddress","type":"bytes32","internalType":"bytes32"},{"name":"sourceChain","type":"uint16","internalType":"uint16"},{"name":"deliveryHash","type":"bytes32","internalType":"bytes32"}],"outputs":[],"stateMutability":"payable"},{"type":"function","name":"registeredSenders","inputs":[{"name":"","type":"uint16","internalType":"uint16"}],"outputs":[{"name":"","type":"bytes32","internalType":"bytes32"}],"stateMutability":"view"},{"type":"function","name":"setEpnsCommunicatorAddress","inputs":[{"name":"_commAddress","type":"address","internalType":"address"}],"outputs":[],"stateMutability":"nonpayable"},{"type":"function","name":"setFeeAmount","inputs":[{"name":"_newFees","type":"uint256","internalType":"uint256"}],"outputs":[],"stateMutability":"nonpayable"},{"type":"function","name":"setGovernanceAddress","inputs":[{"name":"_governanceAddress","type":"address","internalType":"address"}],"outputs":[],"stateMutability":"nonpayable"},{"type":"function","name":"setMinChannelCreationFees","inputs":[{"name":"_newFees","type":"uint256","internalType":"uint256"}],"outputs":[],"stateMutability":"nonpayable"},{"type":"function","name":"setMinPoolContribution","inputs":[{"name":"_newAmount","type":"uint256","internalType":"uint256"}],"outputs":[],"stateMutability":"nonpayable"},{"type":"function","name":"setRegisteredSender","inputs":[{"name":"sourceChain","type":"uint16","internalType":"uint16"},{"name":"sourceAddress","type":"bytes32","internalType":"bytes32"}],"outputs":[],"stateMutability":"nonpayable"},{"type":"function","name":"setWormholeRelayer","inputs":[{"name":"_wormholeRelayer","type":"address","internalType":"address"}],"outputs":[],"stateMutability":"nonpayable"},{"type":"function","name":"stake","inputs":[{"name":"_amount","type":"uint256","internalType":"uint256"}],"outputs":[],"stateMutability":"nonpayable"},{"type":"function","name":"totalStakedAmount","inputs":[],"outputs":[{"name":"","type":"uint256","internalType":"uint256"}],"stateMutability":"view"},{"type":"function","name":"transferPushChannelAdminControl","inputs":[{"name":"_newAdmin","type":"address","internalType":"address"}],"outputs":[],"stateMutability":"nonpayable"},{"type":"function","name":"unPauseContract","inputs":[],"outputs":[],"stateMutability":"nonpayable"},{"type":"function","name":"unstake","inputs":[],"outputs":[],"stateMutability":"nonpayable"},{"type":"function","name":"unverifyChannel","inputs":[{"name":"_channel","type":"address","internalType":"address"}],"outputs":[],"stateMutability":"nonpayable"},{"type":"function","name":"updateChannelMeta","inputs":[{"name":"_channel","type":"address","internalType":"address"},{"name":"_newIdentity","type":"bytes","internalType":"bytes"},{"name":"_amount","type":"uint256","internalType":"uint256"}],"outputs":[],"stateMutability":"nonpayable"},{"type":"function","name":"updateChannelState","inputs":[{"name":"_amount","type":"uint256","internalType":"uint256"}],"outputs":[],"stateMutability":"nonpayable"},{"type":"function","name":"userFeesInfo","inputs":[{"name":"","type":"address","internalType":"address"}],"outputs":[{"name":"stakedAmount","type":"uint256","internalType":"uint256"},{"name":"stakedWeight","type":"uint256","internalType":"uint256"},{"name":"lastStakedBlock","type":"uint256","internalType":"uint256"},{"name":"lastClaimedBlock","type":"uint256","internalType":"uint256"}],"stateMutability":"view"},{"type":"function","name":"usersRewardsClaimed","inputs":[{"name":"","type":"address","internalType":"address"}],"outputs":[{"name":"","type":"uint256","internalType":"uint256"}],"stateMutability":"view"},{"type":"function","name":"verifyChannel","inputs":[{"name":"_channel","type":"address","internalType":"address"}],"outputs":[],"stateMutability":"nonpayable"},{"type":"function","name":"wormholeRelayer","inputs":[],"outputs":[{"name":"","type":"address","internalType":"address"}],"stateMutability":"view"},{"type":"event","name":"AddChannel","inputs":[{"name":"channel","type":"bytes32","indexed":true,"internalType":"bytes32"},{"name":"channelType","type":"uint8","indexed":true,"internalType":"enum CoreTypes.ChannelType"},{"name":"identity","type":"bytes","indexed":false,"internalType":"bytes"}],"anonymous":false},{"type":"event","name":"AddChannel","inputs":[{"name":"channel","type":"address","indexed":true,"internalType":"address"},{"name":"channelType","type":"uint8","indexed":true,"internalType":"enum CoreTypes.ChannelType"},{"name":"identity","type":"bytes","indexed":false,"internalType":"bytes"}],"anonymous":false},{"type":"event","name":"AddSubGraph","inputs":[{"name":"channel","type":"address","indexed":true,"internalType":"address"},{"name":"_subGraphData","type":"bytes","indexed":false,"internalType":"bytes"}],"anonymous":false},{"type":"event","name":"ArbitraryRequest","inputs":[{"name":"sender","type":"address","indexed":true,"internalType":"address"},{"name":"receiver","type":"address","indexed":true,"internalType":"address"},{"name":"amountDeposited","type":"uint256","indexed":false,"internalType":"uint256"},{"name":"feePercent","type":"uint256","indexed":false,"internalType":"uint256"},{"name":"feeId","type":"uint256","indexed":true,"internalType":"uint256"}],"anonymous":false},{"type":"event","name":"ChannelBlocked","inputs":[{"name":"channel","type":"bytes32","indexed":true,"internalType":"bytes32"}],"anonymous":false},{"type":"event","name":"ChannelBlocked","inputs":[{"name":"channel","type":"address","indexed":true,"internalType":"address"}],"anonymous":false},{"type":"event","name":"ChannelCreated","inputs":[{"name":"channel","type":"bytes32","indexed":true,"internalType":"bytes32"},{"name":"channelType","type":"uint8","indexed":true,"internalType":"enum CoreTypes.ChannelType"},{"name":"identity","type":"bytes","indexed":false,"internalType":"bytes"}],"anonymous":false},{"type":"event","name":"ChannelNotifcationSettingsAdded","inputs":[{"name":"_channel","type":"bytes32","indexed":false,"internalType":"bytes32"},{"name":"totalNotifOptions","type":"uint256","indexed":false,"internalType":"uint256"},{"name":"_notifSettings","type":"string","indexed":false,"internalType":"string"},{"name":"_notifDescription","type":"string","indexed":false,"internalType":"string"}],"anonymous":false},{"type":"event","name":"ChannelNotifcationSettingsAdded","inputs":[{"name":"_channel","type":"address","indexed":false,"internalType":"address"},{"name":"totalNotifOptions","type":"uint256","indexed":false,"internalType":"uint256"},{"name":"_notifSettings","type":"string","indexed":false,"internalType":"string"},{"name":"_notifDescription","type":"string","indexed":false,"internalType":"string"}],"anonymous":false},{"type":"event","name":"ChannelStateUpdate","inputs":[{"name":"channel","type":"address","indexed":true,"internalType":"address"},{"name":"amountRefunded","type":"uint256","indexed":false,"internalType":"uint256"},{"name":"amountDeposited","type":"uint256","indexed":false,"internalType":"uint256"}],"anonymous":false},{"type":"event","name":"ChannelStateUpdate","inputs":[{"name":"channel","type":"bytes32","indexed":true,"internalType":"bytes32"},{"name":"amountRefunded","type":"uint256","indexed":false,"internalType":"uint256"},{"name":"amountDeposited","type":"uint256","indexed":false,"internalType":"uint256"}],"anonymous":false},{"type":"event","name":"ChannelVerificationRevoked","inputs":[{"name":"channel","type":"bytes32","indexed":true,"internalType":"bytes32"},{"name":"revoker","type":"address","indexed":true,"internalType":"address"}],"anonymous":false},{"type":"event","name":"ChannelVerificationRevoked","inputs":[{"name":"channel","type":"address","indexed":true,"internalType":"address"},{"name":"revoker","type":"address","indexed":true,"internalType":"address"}],"anonymous":false},{"type":"event","name":"ChannelVerified","inputs":[{"name":"channel","type":"bytes32","indexed":true,"internalType":"bytes32"},{"name":"verifier","type":"address","indexed":true,"internalType":"address"}],"anonymous":false},{"type":"event","name":"ChannelVerified","inputs":[{"name":"channel","type":"address","indexed":true,"internalType":"address"},{"name":"verifier","type":"address","indexed":true,"internalType":"address"}],"anonymous":false},{"type":"event","name":"ChatIncentiveClaimed","inputs":[{"name":"user","type":"address","indexed":true,"internalType":"address"},{"name":"amountClaimed","type":"uint256","indexed":true,"internalType":"uint256"}],"anonymous":false},{"type":"event","name":"IncentivizeChatReqReceived","inputs":[{"name":"requestSender","type":"address","indexed":false,"internalType":"address"},{"name":"requestReceiver","type":"address","indexed":false,"internalType":"address"},{"name":"amountForReqReceiver","type":"uint256","indexed":false,"internalType":"uint256"},{"name":"feePoolAmount","type":"uint256","indexed":false,"internalType":"uint256"},{"name":"timestamp","type":"uint256","indexed":false,"internalType":"uint256"}],"anonymous":false},{"type":"event","name":"Initialized","inputs":[{"name":"version","type":"uint8","indexed":false,"internalType":"uint8"}],"anonymous":false},{"type":"event","name":"Paused","inputs":[{"name":"account","type":"address","indexed":false,"internalType":"address"}],"anonymous":false},{"type":"event","name":"RewardsHarvested","inputs":[{"name":"user","type":"address","indexed":true,"internalType":"address"},{"name":"rewardAmount","type":"uint256","indexed":true,"internalType":"uint256"},{"name":"fromEpoch","type":"uint256","indexed":false,"internalType":"uint256"},{"name":"tillEpoch","type":"uint256","indexed":false,"internalType":"uint256"}],"anonymous":false},{"type":"event","name":"Staked","inputs":[{"name":"user","type":"address","indexed":true,"internalType":"address"},{"name":"amountStaked","type":"uint256","indexed":true,"internalType":"uint256"}],"anonymous":false},{"type":"event","name":"Unpaused","inputs":[{"name":"account","type":"address","indexed":false,"internalType":"address"}],"anonymous":false},{"type":"event","name":"Unstaked","inputs":[{"name":"user","type":"address","indexed":true,"internalType":"address"},{"name":"amountUnstaked","type":"uint256","indexed":true,"internalType":"uint256"}],"anonymous":false},{"type":"event","name":"UpdateChannel","inputs":[{"name":"channel","type":"bytes32","indexed":true,"internalType":"bytes32"},{"name":"identity","type":"bytes","indexed":false,"internalType":"bytes"},{"name":"amountDeposited","type":"uint256","indexed":true,"internalType":"uint256"}],"anonymous":false},{"type":"event","name":"UpdateChannel","inputs":[{"name":"channel","type":"address","indexed":true,"internalType":"address"},{"name":"identity","type":"bytes","indexed":false,"internalType":"bytes"},{"name":"amountDeposited","type":"uint256","indexed":true,"internalType":"uint256"}],"anonymous":false},{"type":"error","name":"CallerNotAdmin","inputs":[]},{"type":"error","name":"CallerNotGovernance","inputs":[]},{"type":"error","name":"Core_InvalidChannel","inputs":[]},{"type":"error","name":"Core_InvalidChannelType","inputs":[]},{"type":"error","name":"Core_InvalidExpiryTime","inputs":[]},{"type":"error","name":"InvalidArg_LessThanExpected","inputs":[{"name":"min_threshold","type":"uint256","internalType":"uint256"},{"name":"actual_value","type":"uint256","internalType":"uint256"}]},{"type":"error","name":"InvalidArg_MoreThanExpected","inputs":[{"name":"max_threshold","type":"uint256","internalType":"uint256"},{"name":"actual_value","type":"uint256","internalType":"uint256"}]},{"type":"error","name":"InvalidArgument_WrongAddress","inputs":[{"name":"user","type":"address","internalType":"address"}]},{"type":"error","name":"Payload_Duplicacy_Error","inputs":[]},{"type":"error","name":"PushStaking_InvalidEpoch_LessThanExpected","inputs":[]},{"type":"error","name":"UnauthorizedCaller","inputs":[{"name":"caller","type":"address","internalType":"address"}]}],"bytecode":{"object":"0x608060405234801561001057600080fd5b50614e40806100206000396000f3fe6080604052600436106105225760003560e01c80638b749ce5116102af578063c57acfe511610179578063dfdbd358116100d6578063eea0b5c51161008a578063f029c18c1161006f578063f029c18c14611055578063f8ac833614611098578063fc6b859b146110cc57600080fd5b8063eea0b5c514611015578063f01948c11461103557600080fd5b8063e9f36598116100bb578063e9f3659814610fb2578063ec50b8e014610fc8578063edd1395914610fe857600080fd5b8063dfdbd35814610f72578063e159378d14610f9257600080fd5b8063da25b7251161012d578063dc4a4e4e11610112578063dc4a4e4e14610f12578063dc4e357114610f32578063dd12d68b14610f5257600080fd5b8063da25b72514610ecf578063daa947f514610efc57600080fd5b8063cfc162541161015e578063cfc1625414610e70578063d487e30514610e90578063d712808414610eb057600080fd5b8063c57acfe514610e30578063cdc43a4b14610e5057600080fd5b8063a90521c311610227578063bc680515116101db578063c048799b116101c0578063c048799b14610de5578063c175256f14610e05578063c208381d14610e1b57600080fd5b8063bc68051514610d85578063bd90f81514610db257600080fd5b8063af809d091161020c578063af809d0914610d2d578063b70e6be614610d5a578063bac1520314610d7057600080fd5b8063a90521c314610cf7578063ad5f157414610d1757600080fd5b8063952b33311161027e57806399199642116102635780639919964214610c8a578063a694fc3a14610caa578063a82ed9ec14610cca57600080fd5b8063952b333114610c12578063954e5f6114610c2857600080fd5b80638b749ce514610b275780638cfbc3e014610bb05780638ed955b914610bdd578063908519db14610bf257600080fd5b80634dc47d34116103f05780635c975abb116103685780637dce34f71161031c578063843fdad311610301578063843fdad314610aa55780638779904e14610ad757806388ba16ab14610af757600080fd5b80637dce34f7146109d55780637ecebe0014610a7857600080fd5b80636b3926801161034d5780636b3926801461095b5780636d1b6d461461097b57806379f0371d146109a857600080fd5b80635c975abb1461092157806368a8e5b61461094557600080fd5b806353807e2f116103bf57806355091fe5116103a457806355091fe5146108c8578063567e98f9146108de5780635aa6e675146108f457600080fd5b806353807e2f1461087b578063539050891461089b57600080fd5b80634dc47d341461080e5780634def9ef21461083b5780634ff0876a14610851578063529dca321461086857600080fd5b8063185e1a6a1161049e5780632def66201161045257806337a1b7821161043757806337a1b7821461079f5780633ecaec8b146107cc578063439766ce146107f957600080fd5b80632def6620146107745780633583849a1461078957600080fd5b80632359600c116104835780632359600c14610711578063270dd8a0146107315780632c3872751461074757600080fd5b8063185e1a6a146106bd57806320606b70146106dd57600080fd5b8063098b2041116104f55780630d33a019116104da5780630d33a019146106635780630ded773114610683578063110e01a8146106a757600080fd5b8063098b2041146106165780630d01c2d51461064357600080fd5b8063017d5efe14610527578063035d42b014610549578063040141e51461056957806306fdde03146105c0575b600080fd5b34801561053357600080fd5b50610547610542366004613fe0565b6110f9565b005b34801561055557600080fd5b50610547610564366004613ffd565b6111e5565b34801561057557600080fd5b506008546105969073ffffffffffffffffffffffffffffffffffffffff1681565b60405173ffffffffffffffffffffffffffffffffffffffff90911681526020015b60405180910390f35b3480156105cc57600080fd5b506106096040518060400160405280600c81526020017f45504e535f434f52455f5632000000000000000000000000000000000000000081525081565b6040516105b79190614084565b34801561062257600080fd5b506007546105969073ffffffffffffffffffffffffffffffffffffffff1681565b34801561064f57600080fd5b5061054761065e366004613fe0565b61121c565b34801561066f57600080fd5b5061054761067e3660046140e0565b6113e0565b34801561068f57600080fd5b5061069960105481565b6040519081526020016105b7565b3480156106b357600080fd5b5061069960125481565b3480156106c957600080fd5b506105476106d8366004613ffd565b61157f565b3480156106e957600080fd5b506106997f2ce9970b46ea1bff1d78000ab660407f50a9499f6742ac914d6e6aa91d8c8b2481565b34801561071d57600080fd5b5061054761072c36600461413c565b6115c0565b34801561073d57600080fd5b5061069960155481565b34801561075357600080fd5b506006546105969073ffffffffffffffffffffffffffffffffffffffff1681565b34801561078057600080fd5b506105476116de565b34801561079557600080fd5b50610699600d5481565b3480156107ab57600080fd5b506106996107ba366004613fe0565b607f6020526000908152604090205481565b3480156107d857600080fd5b506106996107e7366004613ffd565b60876020526000908152604090205481565b34801561080557600080fd5b5061054761183d565b34801561081a57600080fd5b50610699610829366004613ffd565b60856020526000908152604090205481565b34801561084757600080fd5b5061069960185481565b34801561085d57600080fd5b5061069962024b0481565b6105476108763660046142d7565b61184f565b34801561088757600080fd5b50610547610896366004613ffd565b6119db565b3480156108a757600080fd5b506106996108b6366004613fe0565b608d6020526000908152604090205481565b3480156108d457600080fd5b50610699600f5481565b3480156108ea57600080fd5b5061069960835481565b34801561090057600080fd5b506005546105969073ffffffffffffffffffffffffffffffffffffffff1681565b34801561092d57600080fd5b50604b5460ff165b60405190151581526020016105b7565b34801561095157600080fd5b5061069960115481565b34801561096757600080fd5b50610547610976366004613ffd565b611db5565b34801561098757600080fd5b50600c546105969073ffffffffffffffffffffffffffffffffffffffff1681565b3480156109b457600080fd5b506106996109c33660046143e0565b608c6020526000908152604090205481565b3480156109e157600080fd5b50610a616109f0366004613fe0565b600160208190526000918252604090912080549181015460028201546003830154600484015460058501546006860154600787015460089097015460ff808a16996101008104909116986201000090910473ffffffffffffffffffffffffffffffffffffffff16979695949392918b565b6040516105b79b9a9998979695949392919061442a565b348015610a8457600080fd5b50610699610a93366004613fe0565b607d6020526000908152604090205481565b348015610ab157600080fd5b50610ac5610ac0366004613fe0565b611e4f565b60405160ff90911681526020016105b7565b348015610ae357600080fd5b50610547610af23660046144ca565b611f65565b348015610b0357600080fd5b50610935610b12366004613ffd565b608b6020526000908152604090205460ff1681565b348015610b3357600080fd5b50610a61610b42366004613ffd565b608e6020526000908152604090208054600182015460028301546003840154600485015460058601546006870154600788015460089098015460ff808916996101008a049091169862010000900473ffffffffffffffffffffffffffffffffffffffff16979695949392918b565b348015610bbc57600080fd5b50600b546105969073ffffffffffffffffffffffffffffffffffffffff1681565b348015610be957600080fd5b50610547611fc2565b348015610bfe57600080fd5b50610547610c0d366004613fe0565b611fe8565b348015610c1e57600080fd5b5061069960845481565b348015610c3457600080fd5b50610c6a610c43366004613fe0565b60866020526000908152604090208054600182015460028301546003909301549192909184565b6040805194855260208501939093529183015260608201526080016105b7565b348015610c9657600080fd5b50610547610ca5366004613fe0565b612132565b348015610cb657600080fd5b50610547610cc5366004613ffd565b612236565b348015610cd657600080fd5b50600a546105969073ffffffffffffffffffffffffffffffffffffffff1681565b348015610d0357600080fd5b50610547610d12366004614519565b612270565b348015610d2357600080fd5b5061069960175481565b348015610d3957600080fd5b50610699610d48366004613fe0565b60886020526000908152604090205481565b348015610d6657600080fd5b5061069960805481565b348015610d7c57600080fd5b5061054761244a565b348015610d9157600080fd5b506089546105969073ffffffffffffffffffffffffffffffffffffffff1681565b348015610dbe57600080fd5b506004546105969062010000900473ffffffffffffffffffffffffffffffffffffffff1681565b348015610df157600080fd5b50610699610e00366004614580565b61245a565b348015610e1157600080fd5b5061069960165481565b348015610e2757600080fd5b506105476124cc565b348015610e3c57600080fd5b50610935610e4b3660046145a2565b612551565b348015610e5c57600080fd5b50610547610e6b366004613ffd565b6125a5565b348015610e7c57600080fd5b50610547610e8b366004613fe0565b612682565b348015610e9c57600080fd5b50610547610eab366004613ffd565b6126d1565b348015610ebc57600080fd5b5060045461093590610100900460ff1681565b348015610edb57600080fd5b50608a546105969073ffffffffffffffffffffffffffffffffffffffff1681565b348015610f0857600080fd5b5061069960135481565b348015610f1e57600080fd5b50610699610f2d366004614625565b61270a565b348015610f3e57600080fd5b50610547610f4d366004613ffd565b612766565b348015610f5e57600080fd5b50610547610f6d366004614651565b6127b7565b348015610f7e57600080fd5b50610547610f8d366004613fe0565b6127d6565b348015610f9e57600080fd5b50610547610fad366004613fe0565b612825565b348015610fbe57600080fd5b5061069960145481565b348015610fd457600080fd5b50610547610fe3366004613ffd565b612874565b348015610ff457600080fd5b50610699611003366004613fe0565b607e6020526000908152604090205481565b34801561102157600080fd5b50610609611030366004613fe0565b6128da565b34801561104157600080fd5b5061054761105036600461466d565b612974565b34801561106157600080fd5b50610596611070366004613ffd565b60026020526000908152604090205473ffffffffffffffffffffffffffffffffffffffff1681565b3480156110a457600080fd5b506106997f0eb0b7c1f0e1a4ef47cef3c68abdb1aaaa449bede7fde99a8d0ee0952ce817e981565b3480156110d857600080fd5b506009546105969073ffffffffffffffffffffffffffffffffffffffff1681565b611101612aac565b73ffffffffffffffffffffffffffffffffffffffff81161580611144575060045473ffffffffffffffffffffffffffffffffffffffff8281166201000090920416145b15611198576040517f3e1378c100000000000000000000000000000000000000000000000000000000815273ffffffffffffffffffffffffffffffffffffffff821660048201526024015b60405180910390fd5b6004805473ffffffffffffffffffffffffffffffffffffffff90921662010000027fffffffffffffffffffff0000000000000000000000000000000000000000ffff909216919091179055565b60006111f13383612b03565b600b549091506112189073ffffffffffffffffffffffffffffffffffffffff163383612d7b565b5050565b611224612e54565b61122c612ec1565b73ffffffffffffffffffffffffffffffffffffffff8116600090815260016020526040902054610100900460ff1660031480611293575073ffffffffffffffffffffffffffffffffffffffff8116600090815260016020526040902054610100900460ff16155b156112ca576040517f4052a4ad00000000000000000000000000000000000000000000000000000000815260040160405180910390fd5b60185473ffffffffffffffffffffffffffffffffffffffff8216600090815260016020819052604082209081015490919061130690849061471e565b905080601454611316919061471e565b601455601554611327908290614731565b601555600e54600090849061133c9082614744565b611346919061475b565b90506001600f54611357919061471e565b600f5582547fffffffffffffffffffffffffffffffffffffffffffffffffffffffffffff00ff16610300178355600783018190554360068401556001830184905560405173ffffffffffffffffffffffffffffffffffffffff8616907ffbbb06adde8edc33cf72be5516c0a7d1eca7103419494556226e58774943c17690600090a25050505050565b6113e8612e54565b6113f184612f12565b3373ffffffffffffffffffffffffffffffffffffffff851614611442576040517fd86ad9cf00000000000000000000000000000000000000000000000000000000815233600482015260240161118f565b73ffffffffffffffffffffffffffffffffffffffff84166000908152607e6020526040812054611473906001614731565b90506000816016546114859190614744565b9050808310156114cb576040517f2d93586c000000000000000000000000000000000000000000000000000000008152600481018290526024810184905260440161118f565b826015546114d99190614731565b60155573ffffffffffffffffffffffffffffffffffffffff8087166000908152607e602090815260408083208690556001909152902043600690910155600b546115269116873086612f7d565b828673ffffffffffffffffffffffffffffffffffffffff167fd080354cc7cff21b2f3e3190c00a803ac7dce5831b8291ec60b4860392045b7a878760405161156f9291906147df565b60405180910390a3505050505050565b611587612ec1565b60006115933083612b03565b600554600b549192506112189173ffffffffffffffffffffffffffffffffffffffff908116911683612d7b565b60095473ffffffffffffffffffffffffffffffffffffffff163314611613576040517fd86ad9cf00000000000000000000000000000000000000000000000000000000815233600482015260240161118f565b6017546000611622828461471e565b73ffffffffffffffffffffffffffffffffffffffff851660009081526088602052604081208054929350839290919061165c908490614731565b909155505060155461166f908390614731565b6015556040805173ffffffffffffffffffffffffffffffffffffffff808816825286166020820152908101829052606081018390524260808201527fe37c9556702a8226b38b7fe7302b45c6cfa7c8c6b55b38636fe8da4cd62038519060a00160405180910390a15050505050565b336000908152608660205260409020600201546116ff9062024b0490614731565b4311611737576040517f2c44f48000000000000000000000000000000000000000000000000000000000815260040160405180910390fd5b336000908152608660205260408120549003611781576040517fd86ad9cf00000000000000000000000000000000000000000000000000000000815233600482015260240161118f565b611789611fc2565b33600081815260866020526040902054600b5490916117bf9173ffffffffffffffffffffffffffffffffffffffff169083612d7b565b3360008181526086602052604090206001908101546117de9291612fdb565b3360009081526086602052604081208181556001018190556083805483929061180890849061471e565b9091555050604051819033907f0f5bb82176feb1b5e747e28471aa92156a04d9f3ab9f45f28e2d704232b93f7590600090a350565b611845612aac565b61184d6131d5565b565b61ffff82166000908152608c60205260409020548290849081146118cf576040517f08c379a000000000000000000000000000000000000000000000000000000000815260206004820152601560248201527f4e6f7420726567697374657265642073656e6465720000000000000000000000604482015260640161118f565b6118d761325a565b6000838152608b602052604090205460ff1615611920576040517fac8afec600000000000000000000000000000000000000000000000000000000815260040160405180910390fd5b600087806020019051810190611936919061485f565b925050508060ff16600003611972576000808980602001905181019061195c91906148fa565b509150915061196b82826132ab565b505061199b565b600080898060200190518101906119899190614a36565b5091509150611998828261344a565b50505b5050506000908152608b6020526040902080547fffffffffffffffffffffffffffffffffffffffffffffffffffffffffffffff0016600117905550505050565b6119e3612e54565b3360009081526001602081905260409091208054909161010090910460ff16908114801590611a1657508060ff16600214155b15611a4d576040517f4052a4ad00000000000000000000000000000000000000000000000000000000815260040160405180910390fd5b60185460ff8216600103611c61576000806004855460ff166005811115611a7657611a766143fb565b14905080611b2757828560010154611a8e919061471e565b9150600083600e5485611aa19190614744565b611aab919061475b565b86547fffffffffffffffffffffffffffffffffffffffffffffffffffffffffffff00ff166102001787556007870181905560018701859055604080518581526000602082015291925033917f5204269aa832589f2095308cb84f4ce20e8767b9eb24ff4ff7165c45492f8b13910160405180910390a250611c25565b42856008015410611b64576040517f4052a4ad00000000000000000000000000000000000000000000000000000000815260040160405180910390fd5b846001015491506001600f54611b7a919061471e565b600f5533600081815260016020818152604080842080547fffffffffffffffffffff0000000000000000000000000000000000000000000016815592830184905560028301849055600383018490556004830184905560058301849055600683018490556007830184905560089092018390558151868152908101929092527f5204269aa832589f2095308cb84f4ce20e8767b9eb24ff4ff7165c45492f8b13910160405180910390a25b81601454611c33919061471e565b601455600b54611c5a9073ffffffffffffffffffffffffffffffffffffffff163384612d7b565b5050611daf565b601654841015611cab576016546040517f2d93586c00000000000000000000000000000000000000000000000000000000815260048101919091526024810185905260440161118f565b600b54611cd09073ffffffffffffffffffffffffffffffffffffffff16333087612f7d565b6017546000611cdf828761471e565b905080601454611cef9190614731565b601455601554611d00908390614731565b6015556001850154600090611d16908390614731565b9050600084600e5483611d299190614744565b611d33919061475b565b87547fffffffffffffffffffffffffffffffffffffffffffffffffffffffffffff00ff1661010017885560018801839055600788018190556040805160008152602081018b905291925033917f5204269aa832589f2095308cb84f4ce20e8767b9eb24ff4ff7165c45492f8b13910160405180910390a2505050505b50505050565b611dbd612ec1565b80600003611e01576040517f2d93586c000000000000000000000000000000000000000000000000000000008152600160048201526024810182905260440161118f565b6016548110611e4a576016546040517f308eac4d00000000000000000000000000000000000000000000000000000000815260048101919091526024810182905260440161118f565b601755565b73ffffffffffffffffffffffffffffffffffffffff808216600090815260016020526040812054600454919262010000918290048116928492900416821480611eb8575060045473ffffffffffffffffffffffffffffffffffffffff8581166201000090920416145b15611ec65760019250611f5e565b5b80611f5e5773ffffffffffffffffffffffffffffffffffffffff8216611ef35750600091506001611ec7565b60045473ffffffffffffffffffffffffffffffffffffffff62010000909104811690831603611f285750600291506001611ec7565b73ffffffffffffffffffffffffffffffffffffffff91821660009081526001602052604090205462010000900490911690611ec7565b5050919050565b611f6e33612f12565b3373ffffffffffffffffffffffffffffffffffffffff167f3c6f586adc28bd6371da8f4f7a15d49e8350b80e99cb596d4268805db193cc198383604051611fb69291906147df565b60405180910390a25050565b6000611fd06080544361245a565b905060006111f133611fe360018561471e565b612b03565b611ff181612f12565b6000611ffc33611e4f565b90508060ff1660000361203d576040517fd86ad9cf00000000000000000000000000000000000000000000000000000000815233600482015260240161118f565b600061204883611e4f565b905060ff81161580612077575060045462010000900473ffffffffffffffffffffffffffffffffffffffff1633145b6120ad576040517f4052a4ad00000000000000000000000000000000000000000000000000000000815260040160405180910390fd5b73ffffffffffffffffffffffffffffffffffffffff831660008181526001602052604080822080547fffffffffffffffffffff0000000000000000000000000000000000000000ffff16336201000081029190911790915590519092917f84899820e388057bcb96cb9aa9c946c45de73a45051bb4184391046c4438329a91a3505050565b73ffffffffffffffffffffffffffffffffffffffff8181166000908152600160205260409020546201000090041633148061218a575060045462010000900473ffffffffffffffffffffffffffffffffffffffff1633145b6121c0576040517f06d919f200000000000000000000000000000000000000000000000000000000815260040160405180910390fd5b73ffffffffffffffffffffffffffffffffffffffff811660008181526001602052604080822080547fffffffffffffffffffff0000000000000000000000000000000000000000ffff169055513392917f9d0e3265e47ea38b22548ea0663e73c8f406d4b04ade46b227c1b766ffbc605e91a350565b612240338261352f565b604051819033907f9e71bc8eea02a63969f509818f2dafb9254532904319f9dbda79b67bd34a5f3d90600090a350565b612278612e54565b6016548210156122c2576016546040517f2d93586c00000000000000000000000000000000000000000000000000000000815260048101919091526024810183905260440161118f565b33600090815260016020526040902054610100900460ff1615612311576040517f4052a4ad00000000000000000000000000000000000000000000000000000000815260040160405180910390fd5b6002856005811115612325576123256143fb565b148061234257506003856005811115612340576123406143fb565b145b8061235e5750600485600581111561235c5761235c6143fb565b145b8061237a57506005856005811115612378576123786143fb565b145b6123b0576040517f43376f5100000000000000000000000000000000000000000000000000000000815260040160405180910390fd5b8460058111156123c2576123c26143fb565b3373ffffffffffffffffffffffffffffffffffffffff167f1f97bc77a1686355f130d93883d42f2434474cf65f97b29bc451ea7f9388d36a868660405161240a9291906147df565b60405180910390a3600b546124379073ffffffffffffffffffffffffffffffffffffffff16333085612f7d565b61244333868484613676565b5050505050565b612452612aac565b61184d613837565b6000828210156124a0576040517f2d93586c000000000000000000000000000000000000000000000000000000008152600481018490526024810183905260440161118f565b62024b046124ae848461471e565b6124b8919061475b565b6124c3906001614731565b90505b92915050565b60805415612536576040517f08c379a000000000000000000000000000000000000000000000000000000000815260206004820152601360248201527f416c726561647920496e697469616c697a656400000000000000000000000000604482015260640161118f565b43608081905560815561184d30670de0b6b3a764000061352f565b600061255b612aac565b845b848110156125975761258f84848381811061257a5761257a614aea565b9050602002016020810190610c0d9190613fe0565b60010161255d565b50600190505b949350505050565b3360009081526088602052604090205481111561260a5733600090815260886020526040908190205490517f308eac4d00000000000000000000000000000000000000000000000000000000815260048101919091526024810182905260440161118f565b336000908152608860205260408120805483929061262990849061471e565b9091555050600b546126529073ffffffffffffffffffffffffffffffffffffffff163383612d7b565b604051819033907f2230358eceb5a0a4628b45edd28b2a8cbeb1811be034efa5f1c9af7e3f3efa7e90600090a350565b61268a612aac565b600580547fffffffffffffffffffffffff00000000000000000000000000000000000000001673ffffffffffffffffffffffffffffffffffffffff92909216919091179055565b600b546126f69073ffffffffffffffffffffffffffffffffffffffff16333084612f7d565b806015546127049190614731565b60155550565b600081815260876020908152604080832054608583528184205473ffffffffffffffffffffffffffffffffffffffff871685526086845282852086865260040190935290832054909161275c91614744565b6124c3919061475b565b61276e612ec1565b806000036127b2576040517f2d93586c000000000000000000000000000000000000000000000000000000008152600160048201526024810182905260440161118f565b601855565b6127bf612aac565b61ffff9091166000908152608c6020526040902055565b6127de612aac565b600980547fffffffffffffffffffffffff00000000000000000000000000000000000000001673ffffffffffffffffffffffffffffffffffffffff92909216919091179055565b61282d612aac565b608a80547fffffffffffffffffffffffff00000000000000000000000000000000000000001673ffffffffffffffffffffffffffffffffffffffff92909216919091179055565b61287c612ec1565b600060175460185461288e9190614731565b9050808210156128d4576040517f2d93586c000000000000000000000000000000000000000000000000000000008152600481018290526024810183905260440161118f565b50601655565b600360205260009081526040902080546128f390614b19565b80601f016020809104026020016040519081016040528092919081815260200182805461291f90614b19565b801561296c5780601f106129415761010080835404028352916020019161296c565b820191906000526020600020905b81548152906001019060200180831161294f57829003601f168201915b505050505081565b61297d33612f12565b6016548110156129c7576016546040517f2d93586c00000000000000000000000000000000000000000000000000000000815260048101919091526024810182905260440161118f565b60006129d28761388e565b86866040516020016129e693929190614b6c565b604080517fffffffffffffffffffffffffffffffffffffffffffffffffffffffffffffffe0818403018152918152336000908152600360205220909150612a2d8282614c0d565b5081601554612a3c9190614731565b601555600b54612a649073ffffffffffffffffffffffffffffffffffffffff16333085612f7d565b7f87cfb53b7cc0f446465723d1075eb0d650edc90e4365956fc1419a675c867bba3388838787604051612a9b959493929190614d27565b60405180910390a150505050505050565b60045462010000900473ffffffffffffffffffffffffffffffffffffffff16331461184d576040517f06d919f200000000000000000000000000000000000000000000000000000000815260040160405180910390fd5b600b546040517ff18365d900000000000000000000000000000000000000000000000000000000815273ffffffffffffffffffffffffffffffffffffffff8481166004830152600092169063f18365d990602401600060405180830381600087803b158015612b7157600080fd5b505af1158015612b85573d6000803e3d6000fd5b50505050612b9583600080612fdb565b6000612ba36080544361245a565b60805473ffffffffffffffffffffffffffffffffffffffff861660009081526086602052604081206003015492935091612bdd919061245a565b9050838211612c18576040517f2c44f48000000000000000000000000000000000000000000000000000000000815260040160405180910390fd5b80841015612c5c576040517f2d93586c000000000000000000000000000000000000000000000000000000008152600481018290526024810185905260440161118f565b805b848111612c93576000612c71878361270a565b9050612c7d8186614731565b9450508080612c8b90614d7b565b915050612c5e565b5073ffffffffffffffffffffffffffffffffffffffff85166000908152607f6020526040902054612cc5908490614731565b73ffffffffffffffffffffffffffffffffffffffff86166000908152607f6020526040812091909155612cfb62024b0486614744565b608054612d089190614731565b73ffffffffffffffffffffffffffffffffffffffff8716600081815260866020908152604091829020600301849055815186815290810189905292935086927f57f92f16fa09c9e4bb565a3d9d987c04877f97eb9067730674bb415730aaa652910160405180910390a350505092915050565b60405173ffffffffffffffffffffffffffffffffffffffff8316602482015260448101829052612e4f9084907fa9059cbb00000000000000000000000000000000000000000000000000000000906064015b604080517fffffffffffffffffffffffffffffffffffffffffffffffffffffffffffffffe08184030181529190526020810180517bffffffffffffffffffffffffffffffffffffffffffffffffffffffff167fffffffff000000000000000000000000000000000000000000000000000000009093169290921790915261394c565b505050565b604b5460ff161561184d576040517f08c379a000000000000000000000000000000000000000000000000000000000815260206004820152601060248201527f5061757361626c653a2070617573656400000000000000000000000000000000604482015260640161118f565b60055473ffffffffffffffffffffffffffffffffffffffff16331461184d576040517ff2be30fb00000000000000000000000000000000000000000000000000000000815260040160405180910390fd5b73ffffffffffffffffffffffffffffffffffffffff8116600090815260016020819052604090912054610100900460ff1614612f7a576040517f4052a4ad00000000000000000000000000000000000000000000000000000000815260040160405180910390fd5b50565b60405173ffffffffffffffffffffffffffffffffffffffff80851660248301528316604482015260648101829052611daf9085907f23b872dd0000000000000000000000000000000000000000000000000000000090608401612dcd565b6000612fe96080544361245a565b9050612ff6838284613a5b565b73ffffffffffffffffffffffffffffffffffffffff8416600090815260866020526040812060010154908190036130575773ffffffffffffffffffffffffffffffffffffffff8516600090815260866020526040902060010184905561319e565b60805473ffffffffffffffffffffffffffffffffffffffff8616600090815260866020526040812060020154909161308e9161245a565b90508083036130e357836130ab576130a68583614731565b6130b5565b6130b5858361471e565b73ffffffffffffffffffffffffffffffffffffffff871660009081526086602052604090206001015561319c565b805b83811161319a5783811461312e5773ffffffffffffffffffffffffffffffffffffffff871660009081526086602090815260408083208484526004019091529020839055613188565b846131425761313d8684614731565b61314c565b61314c868461471e565b73ffffffffffffffffffffffffffffffffffffffff88166000908152608660209081526040808320600181018590558584526004019091529020555b8061319281614d7b565b9150506130e5565b505b505b8315612443575050505073ffffffffffffffffffffffffffffffffffffffff16600090815260866020526040902043600290910155565b6131dd612e54565b604b80547fffffffffffffffffffffffffffffffffffffffffffffffffffffffffffffff001660011790557f62e78cea01bee320cd4e420270b5ea74000d11b0c9f74754ebdbfc544b05a2586132303390565b60405173ffffffffffffffffffffffffffffffffffffffff909116815260200160405180910390a1565b608a5473ffffffffffffffffffffffffffffffffffffffff16331461184d576040517f06d919f200000000000000000000000000000000000000000000000000000000815260040160405180910390fd5b81517f56fade3d000000000000000000000000000000000000000000000000000000007fffffffff0000000000000000000000000000000000000000000000000000000082160161338a576040808401516060808601516020810151918101519301519192909160ff16826005811115613327576133276143fb565b8673ffffffffffffffffffffffffffffffffffffffff167f1f97bc77a1686355f130d93883d42f2434474cf65f97b29bc451ea7f9388d36a8460405161336d9190614084565b60405180910390a361338186848684613676565b50505050505050565b7fdca69ff4000000000000000000000000000000000000000000000000000000007fffffffff000000000000000000000000000000000000000000000000000000008216016133e857604083015160208401516124438482846115c0565b6040517f08c379a000000000000000000000000000000000000000000000000000000000815260206004820152601a60248201527f496e76616c69642046756e6374696f6e205369676e6174757265000000000000604482015260640161118f565b602082015160808301516060840151604085015160ff16600061346d8483613c3e565b905080601560008282546134819190614731565b909155506134919050818561471e565b73ffffffffffffffffffffffffffffffffffffffff84166000908152608d6020526040812080549091906134c6908490614731565b9091555050604080518581526020810184905260ff87169173ffffffffffffffffffffffffffffffffffffffff80871692908a16917f850fd6ac8a9506b5609414360c91f7b6ddfeca689a1df9ec98189d37dc54bd0b910160405180910390a450505050505050565b600061353d6080544361245a565b9050600061354e8262024b04614744565b60805461355b9190614731565b9050600061356a858584613c4c565b600b549091506135929073ffffffffffffffffffffffffffffffffffffffff16333087612f7d565b73ffffffffffffffffffffffffffffffffffffffff85166000908152608660205260409020546135c3908590614731565b73ffffffffffffffffffffffffffffffffffffffff8616600090815260866020526040902090815560030154156136225773ffffffffffffffffffffffffffffffffffffffff8516600090815260866020526040902060030154613626565b6080545b73ffffffffffffffffffffffffffffffffffffffff861660009081526086602052604081206003019190915560838054869290613664908490614731565b90915550612443905085826000612fdb565b6017546000613685828561471e565b9050806014546136959190614731565b6014556015546136a6908390614731565b601555601854600e54600091906136bd9084614744565b6136c7919061475b565b73ffffffffffffffffffffffffffffffffffffffff8816600090815260016020819052604090912080546101007fffffffffffffffffffffffffffffffffffffffffffffffffffffffffffff00ff821681178355828401879055939450899391927fffffffffffffffffffffffffffffffffffffffffffffffffffffffffffff000090911690911790836005811115613762576137626143fb565b021790555073ffffffffffffffffffffffffffffffffffffffff8716600090815260016020819052604090912043600582018190556006820155600701829055600f546137ae91614731565b600f5560048660058111156137c5576137c56143fb565b0361338157428411613803576040517f52743ef000000000000000000000000000000000000000000000000000000000815260040160405180910390fd5b73ffffffffffffffffffffffffffffffffffffffff8716600090815260016020526040902060080184905550505050505050565b61383f613cff565b604b80547fffffffffffffffffffffffffffffffffffffffffffffffffffffffffffffff001690557f5db9ee0a495bf2e6ff9c91a7834c1ba4fdd244a5e8aa4e537bd38aeae4b073aa33613230565b6060600061389b83613d6b565b600101905060008167ffffffffffffffff8111156138bb576138bb61417d565b6040519080825280601f01601f1916602001820160405280156138e5576020820181803683370190505b5090508181016020015b7fffffffffffffffffffffffffffffffffffffffffffffffffffffffffffffffff017f3031323334353637383961626364656600000000000000000000000000000000600a86061a8153600a85049450846138ef57509392505050565b60006139ae826040518060400160405280602081526020017f5361666545524332303a206c6f772d6c6576656c2063616c6c206661696c65648152508573ffffffffffffffffffffffffffffffffffffffff16613e4d9092919063ffffffff16565b90508051600014806139cf5750808060200190518101906139cf9190614db3565b612e4f576040517f08c379a000000000000000000000000000000000000000000000000000000000815260206004820152602a60248201527f5361666545524332303a204552433230206f7065726174696f6e20646964206e60448201527f6f74207375636365656400000000000000000000000000000000000000000000606482015260840161118f565b6000613a6b60805460815461245a565b905080831180613a7b5750826001145b15613b14576000608454601554613a92919061471e565b90506000613aa0838661471e565b90506001811115613ae3578160856000613abb60018961471e565b81526020019081526020016000206000828254613ad89190614731565b90915550613b079050565b60008581526085602052604081208054849290613b01908490614731565b90915550505b5050436081556015546084555b6082541580613b24575082608254145b15613b7b5781613b4d57600083815260876020526040902054613b48908590614731565b613b67565b600083815260876020526040902054613b6790859061471e565b600084815260876020526040902055613c36565b60006082546001613b8c9190614731565b90505b613b9a60018561471e565b8111613be1576000818152608760205260408120549003613bcf57608254600090815260876020526040808220548383529120555b80613bd981614d7b565b915050613b8f565b5081613c0957608254600090815260876020526040902054613c04908590614731565b613c26565b608254600090815260876020526040902054613c2690859061471e565b6000848152608760205260409020555b505060825550565b6000606461275c8385614744565b600b546040517f51b0718000000000000000000000000000000000000000000000000000000000815273ffffffffffffffffffffffffffffffffffffffff858116600483015260009216906351b0718090602401602060405180830381865afa158015613cbd573d6000803e3d6000fd5b505050506040513d601f19601f82011682018060405250810190613ce19190614dd5565b613ceb908361471e565b613cf59084614744565b90505b9392505050565b604b5460ff1661184d576040517f08c379a000000000000000000000000000000000000000000000000000000000815260206004820152601460248201527f5061757361626c653a206e6f7420706175736564000000000000000000000000604482015260640161118f565b6000807a184f03e93ff9f4daa797ed6e38ed64bf6a1f0100000000000000008310613db4577a184f03e93ff9f4daa797ed6e38ed64bf6a1f010000000000000000830492506040015b6d04ee2d6d415b85acef81000000008310613de0576d04ee2d6d415b85acef8100000000830492506020015b662386f26fc100008310613dfe57662386f26fc10000830492506010015b6305f5e1008310613e16576305f5e100830492506008015b6127108310613e2a57612710830492506004015b60648310613e3c576064830492506002015b600a83106124c65760010192915050565b6060613cf58484600085856000808673ffffffffffffffffffffffffffffffffffffffff168587604051613e819190614dee565b60006040518083038185875af1925050503d8060008114613ebe576040519150601f19603f3d011682016040523d82523d6000602084013e613ec3565b606091505b5091509150613ed487838387613edf565b979650505050505050565b60608315613f75578251600003613f6e5773ffffffffffffffffffffffffffffffffffffffff85163b613f6e576040517f08c379a000000000000000000000000000000000000000000000000000000000815260206004820152601d60248201527f416464726573733a2063616c6c20746f206e6f6e2d636f6e7472616374000000604482015260640161118f565b508161259d565b61259d8383815115613f8a5781518083602001fd5b806040517f08c379a000000000000000000000000000000000000000000000000000000000815260040161118f9190614084565b73ffffffffffffffffffffffffffffffffffffffff81168114612f7a57600080fd5b600060208284031215613ff257600080fd5b8135613cf881613fbe565b60006020828403121561400f57600080fd5b5035919050565b60005b83811015614031578181015183820152602001614019565b50506000910152565b60008151808452614052816020860160208601614016565b601f017fffffffffffffffffffffffffffffffffffffffffffffffffffffffffffffffe0169290920160200192915050565b6020815260006124c3602083018461403a565b60008083601f8401126140a957600080fd5b50813567ffffffffffffffff8111156140c157600080fd5b6020830191508360208285010111156140d957600080fd5b9250929050565b600080600080606085870312156140f657600080fd5b843561410181613fbe565b9350602085013567ffffffffffffffff81111561411d57600080fd5b61412987828801614097565b9598909750949560400135949350505050565b60008060006060848603121561415157600080fd5b833561415c81613fbe565b9250602084013561416c81613fbe565b929592945050506040919091013590565b7f4e487b7100000000000000000000000000000000000000000000000000000000600052604160045260246000fd5b6040516080810167ffffffffffffffff811182821017156141cf576141cf61417d565b60405290565b604051601f82017fffffffffffffffffffffffffffffffffffffffffffffffffffffffffffffffe016810167ffffffffffffffff8111828210171561421c5761421c61417d565b604052919050565b600067ffffffffffffffff82111561423e5761423e61417d565b50601f017fffffffffffffffffffffffffffffffffffffffffffffffffffffffffffffffe01660200190565b600082601f83011261427b57600080fd5b813561428e61428982614224565b6141d5565b8181528460208386010111156142a357600080fd5b816020850160208301376000918101602001919091529392505050565b803561ffff811681146142d257600080fd5b919050565b600080600080600060a086880312156142ef57600080fd5b853567ffffffffffffffff8082111561430757600080fd5b61431389838a0161426a565b965060209150818801358181111561432a57600080fd5b8801601f81018a1361433b57600080fd5b80358281111561434d5761434d61417d565b8060051b61435c8582016141d5565b918252828101850191858101908d84111561437657600080fd5b86850192505b838310156143b2578235868111156143945760008081fd5b6143a28f898389010161426a565b835250918601919086019061437c565b809a5050505050505050604086013592506143cf606087016142c0565b949793965091946080013592915050565b6000602082840312156143f257600080fd5b6124c3826142c0565b7f4e487b7100000000000000000000000000000000000000000000000000000000600052602160045260246000fd5b610160810160068d10614466577f4e487b7100000000000000000000000000000000000000000000000000000000600052602160045260246000fd5b9b815260ff9a909a1660208b015273ffffffffffffffffffffffffffffffffffffffff9890981660408a01526060890196909652608088019490945260a087019290925260c086015260e08501526101008401526101208301526101409091015290565b600080602083850312156144dd57600080fd5b823567ffffffffffffffff8111156144f457600080fd5b61450085828601614097565b90969095509350505050565b60068110612f7a57600080fd5b60008060008060006080868803121561453157600080fd5b853561453c8161450c565b9450602086013567ffffffffffffffff81111561455857600080fd5b61456488828901614097565b9699909850959660408101359660609091013595509350505050565b6000806040838503121561459357600080fd5b50508035926020909101359150565b600080600080606085870312156145b857600080fd5b8435935060208501359250604085013567ffffffffffffffff808211156145de57600080fd5b818701915087601f8301126145f257600080fd5b81358181111561460157600080fd5b8860208260051b850101111561461657600080fd5b95989497505060200194505050565b6000806040838503121561463857600080fd5b823561464381613fbe565b946020939093013593505050565b6000806040838503121561466457600080fd5b614643836142c0565b6000806000806000806080878903121561468657600080fd5b86359550602087013567ffffffffffffffff808211156146a557600080fd5b6146b18a838b01614097565b909750955060408901359150808211156146ca57600080fd5b506146d789828a01614097565b979a9699509497949695606090950135949350505050565b7f4e487b7100000000000000000000000000000000000000000000000000000000600052601160045260246000fd5b818103818111156124c6576124c66146ef565b808201808211156124c6576124c66146ef565b80820281158282048414176124c6576124c66146ef565b600082614791577f4e487b7100000000000000000000000000000000000000000000000000000000600052601260045260246000fd5b500490565b8183528181602085013750600060208284010152600060207fffffffffffffffffffffffffffffffffffffffffffffffffffffffffffffffe0601f840116840101905092915050565b602081526000613cf5602083018486614796565b600061480161428984614224565b905082815283838301111561481557600080fd5b613cf8836020830184614016565b600082601f83011261483457600080fd5b6124c3838351602085016147f3565b80516142d281613fbe565b805160ff811681146142d257600080fd5b60008060006060848603121561487457600080fd5b835167ffffffffffffffff81111561488b57600080fd5b61489786828701614823565b93505060208401516148a881613fbe565b91506148b66040850161484e565b90509250925092565b80517fffffffff00000000000000000000000000000000000000000000000000000000811681146142d257600080fd5b80516142d28161450c565b60008060006060848603121561490f57600080fd5b835167ffffffffffffffff8082111561492757600080fd5b908501906080828803121561493b57600080fd5b6149436141ac565b61494c836148bf565b815260208084015161495d81613fbe565b828201526040848101519083015260608401518381111561497d57600080fd5b93909301926080848a03121561499257600080fd5b61499a6141ac565b8451848111156149a957600080fd5b8501601f81018b136149ba57600080fd5b6149c88b82518584016147f3565b8252506149d68286016148ef565b828201526149e66040860161484e565b60408201526060850151848111156149fd57600080fd5b614a098b828801614823565b60608301525080606084015250819650614a24818901614843565b9550505050506148b66040850161484e565b600080600083850360e0811215614a4c57600080fd5b60a0811215614a5a57600080fd5b5060405160a0810181811067ffffffffffffffff82111715614a7e57614a7e61417d565b604052614a8a856148bf565b8152614a986020860161484e565b6020820152614aa96040860161484e565b60408201526060850151614abc81613fbe565b60608201526080858101519082015260a0850151909350614adc81613fbe565b91506148b660c0850161484e565b7f4e487b7100000000000000000000000000000000000000000000000000000000600052603260045260246000fd5b600181811c90821680614b2d57607f821691505b602082108103614b66577f4e487b7100000000000000000000000000000000000000000000000000000000600052602260045260246000fd5b50919050565b60008451614b7e818460208901614016565b7f2b00000000000000000000000000000000000000000000000000000000000000908301908152838560018301376000930160010192835250909392505050565b601f821115612e4f57600081815260208120601f850160051c81016020861015614be65750805b601f850160051c820191505b81811015614c0557828155600101614bf2565b505050505050565b815167ffffffffffffffff811115614c2757614c2761417d565b614c3b81614c358454614b19565b84614bbf565b602080601f831160018114614c8e5760008415614c585750858301515b7fffffffffffffffffffffffffffffffffffffffffffffffffffffffffffffffff600386901b1c1916600185901b178555614c05565b6000858152602081207fffffffffffffffffffffffffffffffffffffffffffffffffffffffffffffffe08616915b82811015614cdb57888601518255948401946001909101908401614cbc565b5085821015614d1757878501517fffffffffffffffffffffffffffffffffffffffffffffffffffffffffffffffff600388901b60f8161c191681555b5050505050600190811b01905550565b73ffffffffffffffffffffffffffffffffffffffff86168152846020820152608060408201526000614d5c608083018661403a565b8281036060840152614d6f818587614796565b98975050505050505050565b60007fffffffffffffffffffffffffffffffffffffffffffffffffffffffffffffffff8203614dac57614dac6146ef565b5060010190565b600060208284031215614dc557600080fd5b81518015158114613cf857600080fd5b600060208284031215614de757600080fd5b5051919050565b60008251614e00818460208701614016565b919091019291505056fea2646970667358221220d11d1121cabe118a6daba10a5959c6f82f059e99cdcce6c26b9f241f1642f5ca64736f6c63430008140033","linkReferences":{}},"methodIdentifiers":{"ADD_CHANNEL_MIN_FEES()":"c175256f","CHANNEL_POOL_FUNDS()":"e9f36598","CREATE_CHANNEL_TYPEHASH()":"f8ac8336","DOMAIN_TYPEHASH()":"20606b70","FEE_AMOUNT()":"ad5f1574","MIN_POOL_CONTRIBUTION()":"4def9ef2","PROTOCOL_POOL_FEES()":"270dd8a0","PUSH_TOKEN_ADDRESS()":"8cfbc3e0","REFERRAL_CODE()":"3583849a","UNISWAP_V2_ROUTER()":"a82ed9ec","WETH_ADDRESS()":"040141e5","aDaiAddress()":"098b2041","addPoolFees(uint256)":"d487e305","addSubGraph(bytes)":"8779904e","arbitraryReqFees(address)":"53905089","batchVerification(uint256,uint256,address[])":"c57acfe5","blockChannel(address)":"0d01c2d5","calculateEpochRewards(address,uint256)":"dc4a4e4e","celebUserFunds(address)":"af809d09","channelById(uint256)":"f029c18c","channelInfo(bytes32)":"8b749ce5","channelNotifSettings(address)":"eea0b5c5","channelUpdateCounter(address)":"edd13959","channels(address)":"7dce34f7","channelsCount()":"55091fe5","claimChatIncentives(uint256)":"cdc43a4b","createChannelSettings(uint256,string,string,uint256)":"f01948c1","createChannelWithPUSH(uint8,bytes,uint256,uint256)":"a90521c3","daiAddress()":"2c387275","daoHarvestPaginated(uint256)":"185e1a6a","epnsCommunicator()":"fc6b859b","epochDuration()":"4ff0876a","epochRewards(uint256)":"4dc47d34","epochToTotalStakedWeight(uint256)":"3ecaec8b","feePoolStakingContract()":"bc680515","genesisEpoch()":"b70e6be6","getChannelVerfication(address)":"843fdad3","governance()":"5aa6e675","groupFairShareCount()":"daa947f5","groupHistoricalZ()":"68a8e5b6","groupLastUpdate()":"110e01a8","groupNormalizedWeight()":"0ded7731","handleChatRequestData(address,address,uint256)":"2359600c","harvestAll()":"8ed955b9","harvestPaginated(uint256)":"035d42b0","initializeStake()":"c208381d","isMigrationComplete()":"d7128084","lastEpochRelative(uint256,uint256)":"c048799b","lendingPoolProviderAddress()":"6d1b6d46","name()":"06fdde03","nonces(address)":"7ecebe00","pauseContract()":"439766ce","paused()":"5c975abb","previouslySetEpochRewards()":"952b3331","processedMessages(bytes32)":"88ba16ab","pushChannelAdmin()":"bd90f815","receiveWormholeMessages(bytes,bytes[],bytes32,uint16,bytes32)":"529dca32","registeredSenders(uint16)":"79f0371d","setEpnsCommunicatorAddress(address)":"dfdbd358","setFeeAmount(uint256)":"6b392680","setGovernanceAddress(address)":"cfc16254","setMinChannelCreationFees(uint256)":"ec50b8e0","setMinPoolContribution(uint256)":"dc4e3571","setRegisteredSender(uint16,bytes32)":"dd12d68b","setWormholeRelayer(address)":"e159378d","stake(uint256)":"a694fc3a","totalStakedAmount()":"567e98f9","transferPushChannelAdminControl(address)":"017d5efe","unPauseContract()":"bac15203","unstake()":"2def6620","unverifyChannel(address)":"99199642","updateChannelMeta(address,bytes,uint256)":"0d33a019","updateChannelState(uint256)":"53807e2f","userFeesInfo(address)":"954e5f61","usersRewardsClaimed(address)":"37a1b782","verifyChannel(address)":"908519db","wormholeRelayer()":"da25b725"},"id":9}