{"abi":[{"type":"function","name":"DOMAIN_TYPEHASH","inputs":[],"outputs":[{"name":"","type":"bytes32","internalType":"bytes32"}],"stateMutability":"view"},{"type":"function","name":"EPNSCoreAddress","inputs":[],"outputs":[{"name":"","type":"address","internalType":"address"}],"stateMutability":"view"},{"type":"function","name":"NAME_HASH","inputs":[],"outputs":[{"name":"","type":"bytes32","internalType":"bytes32"}],"stateMutability":"view"},{"type":"function","name":"PUSH_TOKEN_ADDRESS","inputs":[],"outputs":[{"name":"","type":"address","internalType":"address"}],"stateMutability":"view"},{"type":"function","name":"SEND_NOTIFICATION_TYPEHASH","inputs":[],"outputs":[{"name":"","type":"bytes32","internalType":"bytes32"}],"stateMutability":"view"},{"type":"function","name":"SUBSCRIBE_TYPEHASH","inputs":[],"outputs":[{"name":"","type":"bytes32","internalType":"bytes32"}],"stateMutability":"view"},{"type":"function","name":"UNSUBSCRIBE_TYPEHASH","inputs":[],"outputs":[{"name":"","type":"bytes32","internalType":"bytes32"}],"stateMutability":"view"},{"type":"function","name":"chainID","inputs":[],"outputs":[{"name":"","type":"uint256","internalType":"uint256"}],"stateMutability":"view"},{"type":"function","name":"chainName","inputs":[],"outputs":[{"name":"","type":"string","internalType":"string"}],"stateMutability":"view"},{"type":"function","name":"delegatedNotificationSenders","inputs":[{"name":"","type":"address","internalType":"address"},{"name":"","type":"address","internalType":"address"}],"outputs":[{"name":"","type":"bool","internalType":"bool"}],"stateMutability":"view"},{"type":"function","name":"governance","inputs":[],"outputs":[{"name":"","type":"address","internalType":"address"}],"stateMutability":"view"},{"type":"function","name":"isMigrationComplete","inputs":[],"outputs":[{"name":"","type":"bool","internalType":"bool"}],"stateMutability":"view"},{"type":"function","name":"mapAddressUsers","inputs":[{"name":"","type":"uint256","internalType":"uint256"}],"outputs":[{"name":"","type":"address","internalType":"address"}],"stateMutability":"view"},{"type":"function","name":"name","inputs":[],"outputs":[{"name":"","type":"string","internalType":"string"}],"stateMutability":"view"},{"type":"function","name":"nonces","inputs":[{"name":"","type":"address","internalType":"address"}],"outputs":[{"name":"","type":"uint256","internalType":"uint256"}],"stateMutability":"view"},{"type":"function","name":"pushChannelAdmin","inputs":[],"outputs":[{"name":"","type":"address","internalType":"address"}],"stateMutability":"view"},{"type":"function","name":"userChatData","inputs":[{"name":"","type":"address","internalType":"address"}],"outputs":[{"name":"requestSender","type":"address","internalType":"address"},{"name":"timestamp","type":"uint256","internalType":"uint256"},{"name":"amountDeposited","type":"uint256","internalType":"uint256"}],"stateMutability":"view"},{"type":"function","name":"userToChannelNotifs","inputs":[{"name":"","type":"address","internalType":"address"},{"name":"","type":"address","internalType":"address"}],"outputs":[{"name":"","type":"string","internalType":"string"}],"stateMutability":"view"},{"type":"function","name":"users","inputs":[{"name":"","type":"address","internalType":"address"}],"outputs":[{"name":"userActivated","type":"bool","internalType":"bool"},{"name":"publicKeyRegistered","type":"bool","internalType":"bool"},{"name":"userStartBlock","type":"uint256","internalType":"uint256"},{"name":"subscribedCount","type":"uint256","internalType":"uint256"}],"stateMutability":"view"},{"type":"function","name":"usersCount","inputs":[],"outputs":[{"name":"","type":"uint256","internalType":"uint256"}],"stateMutability":"view"},{"type":"function","name":"walletToPGP","inputs":[{"name":"","type":"bytes32","internalType":"bytes32"}],"outputs":[{"name":"","type":"string","internalType":"string"}],"stateMutability":"view"}],"bytecode":{"object":"0x608060405234801561001057600080fd5b50610787806100206000396000f3fe608060405234801561001057600080fd5b50600436106101775760003560e01c80635aa6e675116100d8578063a87430ba1161008c578063d712808411610066578063d7128084146104e9578063e059c6d0146104f6578063f83c7f771461051d57600080fd5b8063a87430ba14610463578063adc879e9146104c0578063bd90f815146104c957600080fd5b80636e0d232c116100bd5780636e0d232c146103e55780637ecebe00146104235780638cfbc3e01461044357600080fd5b80635aa6e675146103bc5780636ba13a82146103dc57600080fd5b806320606b701161012f57806342564cb41161011457806342564cb4146103295780634aea4bbb146103735780635227dd051461038657600080fd5b806320606b701461028a5780633e5b73c6146102b157600080fd5b806306fdde031161016057806306fdde031461021257806317aeae581461025b5780631c93b03a1461028257600080fd5b8063040e80ed1461017c57806304622c2e146101b6575b600080fd5b6101a37f25283200315ac15e79f5b17ebe844bb8f5facab77bd5c9c8f8d4b592b9949d8981565b6040519081526020015b60405180910390f35b60408051808201909152600c81527f45504e5320434f4d4d20563100000000000000000000000000000000000000006020909101526101a37f7c232e0a8d7516843ab49a97f72ad251bb744a65be4e5bc6de77904d54673db981565b61024e6040518060400160405280600c81526020017f45504e5320434f4d4d205631000000000000000000000000000000000000000081525081565b6040516101ad91906105fb565b6101a37fa3e12f3a1cbc87b63b39a5ed58d9a2941caba455abcd2a654e7800d7c3a69de281565b61024e610530565b6101a37f8cad95687ba82c2ce50e74f7b754645e5117c3a5bec8151c0726d5857980a86681565b6102f76102bf366004610690565b600c6020526000908152604090208054600182015460029092015473ffffffffffffffffffffffffffffffffffffffff909116919083565b6040805173ffffffffffffffffffffffffffffffffffffffff90941684526020840192909252908201526060016101ad565b60095461034e90610100900473ffffffffffffffffffffffffffffffffffffffff1681565b60405173ffffffffffffffffffffffffffffffffffffffff90911681526020016101ad565b61024e6103813660046106b2565b6105be565b61034e6103943660046106b2565b60026020526000908152604090205473ffffffffffffffffffffffffffffffffffffffff1681565b60055461034e9073ffffffffffffffffffffffffffffffffffffffff1681565b6101a360085481565b6104136103f33660046106cb565b600460209081526000928352604080842090915290825290205460ff1681565b60405190151581526020016101ad565b6101a3610431366004610690565b60016020526000908152604090205481565b600b5461034e9073ffffffffffffffffffffffffffffffffffffffff1681565b61049e610471366004610690565b60006020819052908152604090208054600182015460029092015460ff8083169361010090930416919084565b60408051941515855292151560208501529183015260608201526080016101ad565b6101a360075481565b60065461034e9073ffffffffffffffffffffffffffffffffffffffff1681565b6009546104139060ff1681565b6101a37f8d9aa0830ab50a97d876b6b35a987f5043ee4c983259ae5783c506feee3842c581565b61024e61052b3660046106cb565b6105d7565b600a805461053d906106fe565b80601f0160208091040260200160405190810160405280929190818152602001828054610569906106fe565b80156105b65780601f1061058b576101008083540402835291602001916105b6565b820191906000526020600020905b81548152906001019060200180831161059957829003601f168201915b505050505081565b600d602052600090815260409020805461053d906106fe565b60036020908152600092835260408084209091529082529020805461053d906106fe565b600060208083528351808285015260005b818110156106285785810183015185820160400152820161060c565b5060006040828601015260407fffffffffffffffffffffffffffffffffffffffffffffffffffffffffffffffe0601f8301168501019250505092915050565b803573ffffffffffffffffffffffffffffffffffffffff8116811461068b57600080fd5b919050565b6000602082840312156106a257600080fd5b6106ab82610667565b9392505050565b6000602082840312156106c457600080fd5b5035919050565b600080604083850312156106de57600080fd5b6106e783610667565b91506106f560208401610667565b90509250929050565b600181811c9082168061071257607f821691505b60208210810361074b577f4e487b7100000000000000000000000000000000000000000000000000000000600052602260045260246000fd5b5091905056fea26469706673582212206c084fa858e6d877dae14a8f9de0ffa52aa3c5e80e673d50f17396111b5c357664736f6c63430008140033","linkReferences":{}},"methodIdentifiers":{"DOMAIN_TYPEHASH()":"20606b70","EPNSCoreAddress()":"42564cb4","NAME_HASH()":"04622c2e","PUSH_TOKEN_ADDRESS()":"8cfbc3e0","SEND_NOTIFICATION_TYPEHASH()":"17aeae58","SUBSCRIBE_TYPEHASH()":"e059c6d0","UNSUBSCRIBE_TYPEHASH()":"040e80ed","chainID()":"adc879e9","chainName()":"1c93b03a","delegatedNotificationSenders(address,address)":"6e0d232c","governance()":"5aa6e675","isMigrationComplete()":"d7128084","mapAddressUsers(uint256)":"5227dd05","name()":"06fdde03","nonces(address)":"7ecebe00","pushChannelAdmin()":"bd90f815","userChatData(address)":"3e5b73c6","userToChannelNotifs(address,address)":"f83c7f77","users(address)":"a87430ba","usersCount()":"6ba13a82","walletToPGP(bytes32)":"4aea4bbb"},"id":2}