{"abi":[{"type":"constructor","inputs":[{"name":"account","type":"address","internalType":"address"}],"stateMutability":"nonpayable"},{"type":"function","name":"DELEGATION_TYPEHASH","inputs":[],"outputs":[{"name":"","type":"bytes32","internalType":"bytes32"}],"stateMutability":"view"},{"type":"function","name":"DOMAIN_TYPEHASH","inputs":[],"outputs":[{"name":"","type":"bytes32","internalType":"bytes32"}],"stateMutability":"view"},{"type":"function","name":"PERMIT_TYPEHASH","inputs":[],"outputs":[{"name":"","type":"bytes32","internalType":"bytes32"}],"stateMutability":"view"},{"type":"function","name":"allowance","inputs":[{"name":"account","type":"address","internalType":"address"},{"name":"spender","type":"address","internalType":"address"}],"outputs":[{"name":"","type":"uint256","internalType":"uint256"}],"stateMutability":"view"},{"type":"function","name":"approve","inputs":[{"name":"spender","type":"address","internalType":"address"},{"name":"rawAmount","type":"uint256","internalType":"uint256"}],"outputs":[{"name":"","type":"bool","internalType":"bool"}],"stateMutability":"nonpayable"},{"type":"function","name":"balanceOf","inputs":[{"name":"account","type":"address","internalType":"address"}],"outputs":[{"name":"","type":"uint256","internalType":"uint256"}],"stateMutability":"view"},{"type":"function","name":"born","inputs":[],"outputs":[{"name":"","type":"uint256","internalType":"uint256"}],"stateMutability":"view"},{"type":"function","name":"burn","inputs":[{"name":"rawAmount","type":"uint256","internalType":"uint256"}],"outputs":[],"stateMutability":"nonpayable"},{"type":"function","name":"checkpoints","inputs":[{"name":"","type":"address","internalType":"address"},{"name":"","type":"uint32","internalType":"uint32"}],"outputs":[{"name":"fromBlock","type":"uint32","internalType":"uint32"},{"name":"votes","type":"uint96","internalType":"uint96"}],"stateMutability":"view"},{"type":"function","name":"decimals","inputs":[],"outputs":[{"name":"","type":"uint8","internalType":"uint8"}],"stateMutability":"view"},{"type":"function","name":"delegate","inputs":[{"name":"delegatee","type":"address","internalType":"address"}],"outputs":[],"stateMutability":"nonpayable"},{"type":"function","name":"delegateBySig","inputs":[{"name":"delegatee","type":"address","internalType":"address"},{"name":"nonce","type":"uint256","internalType":"uint256"},{"name":"expiry","type":"uint256","internalType":"uint256"},{"name":"v","type":"uint8","internalType":"uint8"},{"name":"r","type":"bytes32","internalType":"bytes32"},{"name":"s","type":"bytes32","internalType":"bytes32"}],"outputs":[],"stateMutability":"nonpayable"},{"type":"function","name":"delegates","inputs":[{"name":"","type":"address","internalType":"address"}],"outputs":[{"name":"","type":"address","internalType":"address"}],"stateMutability":"view"},{"type":"function","name":"getCurrentVotes","inputs":[{"name":"account","type":"address","internalType":"address"}],"outputs":[{"name":"","type":"uint96","internalType":"uint96"}],"stateMutability":"view"},{"type":"function","name":"getPriorVotes","inputs":[{"name":"account","type":"address","internalType":"address"},{"name":"blockNumber","type":"uint256","internalType":"uint256"}],"outputs":[{"name":"","type":"uint96","internalType":"uint96"}],"stateMutability":"view"},{"type":"function","name":"holderDelegation","inputs":[{"name":"","type":"address","internalType":"address"},{"name":"","type":"address","internalType":"address"}],"outputs":[{"name":"","type":"bool","internalType":"bool"}],"stateMutability":"view"},{"type":"function","name":"holderWeight","inputs":[{"name":"","type":"address","internalType":"address"}],"outputs":[{"name":"","type":"uint256","internalType":"uint256"}],"stateMutability":"view"},{"type":"function","name":"name","inputs":[],"outputs":[{"name":"","type":"string","internalType":"string"}],"stateMutability":"view"},{"type":"function","name":"nonces","inputs":[{"name":"","type":"address","internalType":"address"}],"outputs":[{"name":"","type":"uint256","internalType":"uint256"}],"stateMutability":"view"},{"type":"function","name":"numCheckpoints","inputs":[{"name":"","type":"address","internalType":"address"}],"outputs":[{"name":"","type":"uint32","internalType":"uint32"}],"stateMutability":"view"},{"type":"function","name":"permit","inputs":[{"name":"owner","type":"address","internalType":"address"},{"name":"spender","type":"address","internalType":"address"},{"name":"rawAmount","type":"uint256","internalType":"uint256"},{"name":"deadline","type":"uint256","internalType":"uint256"},{"name":"v","type":"uint8","internalType":"uint8"},{"name":"r","type":"bytes32","internalType":"bytes32"},{"name":"s","type":"bytes32","internalType":"bytes32"}],"outputs":[],"stateMutability":"nonpayable"},{"type":"function","name":"resetHolderWeight","inputs":[{"name":"holder","type":"address","internalType":"address"}],"outputs":[],"stateMutability":"nonpayable"},{"type":"function","name":"returnHolderDelegation","inputs":[{"name":"account","type":"address","internalType":"address"},{"name":"delegate","type":"address","internalType":"address"}],"outputs":[{"name":"","type":"bool","internalType":"bool"}],"stateMutability":"view"},{"type":"function","name":"returnHolderUnits","inputs":[{"name":"account","type":"address","internalType":"address"},{"name":"atBlock","type":"uint256","internalType":"uint256"}],"outputs":[{"name":"","type":"uint256","internalType":"uint256"}],"stateMutability":"view"},{"type":"function","name":"setHolderDelegation","inputs":[{"name":"delegate","type":"address","internalType":"address"},{"name":"value","type":"bool","internalType":"bool"}],"outputs":[],"stateMutability":"nonpayable"},{"type":"function","name":"symbol","inputs":[],"outputs":[{"name":"","type":"string","internalType":"string"}],"stateMutability":"view"},{"type":"function","name":"totalSupply","inputs":[],"outputs":[{"name":"","type":"uint256","internalType":"uint256"}],"stateMutability":"view"},{"type":"function","name":"transfer","inputs":[{"name":"dst","type":"address","internalType":"address"},{"name":"rawAmount","type":"uint256","internalType":"uint256"}],"outputs":[{"name":"","type":"bool","internalType":"bool"}],"stateMutability":"nonpayable"},{"type":"function","name":"transferFrom","inputs":[{"name":"src","type":"address","internalType":"address"},{"name":"dst","type":"address","internalType":"address"},{"name":"rawAmount","type":"uint256","internalType":"uint256"}],"outputs":[{"name":"","type":"bool","internalType":"bool"}],"stateMutability":"nonpayable"},{"type":"event","name":"Approval","inputs":[{"name":"owner","type":"address","indexed":true,"internalType":"address"},{"name":"spender","type":"address","indexed":true,"internalType":"address"},{"name":"amount","type":"uint256","indexed":false,"internalType":"uint256"}],"anonymous":false},{"type":"event","name":"DelegateChanged","inputs":[{"name":"delegator","type":"address","indexed":true,"internalType":"address"},{"name":"fromDelegate","type":"address","indexed":true,"internalType":"address"},{"name":"toDelegate","type":"address","indexed":true,"internalType":"address"}],"anonymous":false},{"type":"event","name":"DelegateVotesChanged","inputs":[{"name":"delegate","type":"address","indexed":true,"internalType":"address"},{"name":"previousBalance","type":"uint256","indexed":false,"internalType":"uint256"},{"name":"newBalance","type":"uint256","indexed":false,"internalType":"uint256"}],"anonymous":false},{"type":"event","name":"HolderWeightChanged","inputs":[{"name":"holder","type":"address","indexed":true,"internalType":"address"},{"name":"amount","type":"uint256","indexed":false,"internalType":"uint256"},{"name":"weight","type":"uint256","indexed":false,"internalType":"uint256"}],"anonymous":false},{"type":"event","name":"Transfer","inputs":[{"name":"from","type":"address","indexed":true,"internalType":"address"},{"name":"to","type":"address","indexed":true,"internalType":"address"},{"name":"amount","type":"uint256","indexed":false,"internalType":"uint256"}],"anonymous":false}],"bytecode":{"object":"0x60806040526a52b7d2dcc80cd2e40000005f553480156200001e575f80fd5b5060405162003032380380620030328339810160408190526200004191620000d4565b5f80546001600160a01b03831680835260036020908152604080852080546001600160601b0319166001600160601b0390951694909417909355835492519283529092917fddf252ad1be2c89b69c2b068fc378daa952ba7f163c4a11628f55a4df523b3ef910160405180910390a36001600160a01b03165f908152600460205260409020439081905560015562000103565b5f60208284031215620000e5575f80fd5b81516001600160a01b0381168114620000fc575f80fd5b9392505050565b612f2180620001115f395ff3fe608060405234801561000f575f80fd5b50600436106101c6575f3560e01c8063587cde1e116100fe578063a9059cbb1161009e578063dd62ed3e1161006e578063dd62ed3e14610592578063e7a324dc146105e5578063f1127ed81461060c578063f18365d91461067d575f80fd5b8063a9059cbb14610546578063b4b5ea5714610559578063c3cda5201461056c578063d505accf1461057f575f80fd5b806370a08231116100d957806370a0823114610478578063782d6fe1146104bb5780637ecebe00146104eb57806395d89b411461050a575f80fd5b8063587cde1e146103d15780635c19a95c1461042b5780636fcfff451461043e575f80fd5b80632477c6e8116101695780633f5af244116101445780633f5af2441461032a57806342966c68146103725780634823838d1461038557806351b07180146103b2575f80fd5b80632477c6e81461027757806330adf81f146102e9578063313ce56714610310575f80fd5b806310c19421116101a457806310c194211461022c57806318160ddd1461023557806320606b701461023d57806323b872dd14610264575f80fd5b806306fdde03146101ca578063095ea7b3146101e85780630b1b72f21461020b575b5f80fd5b6101d2610690565b6040516101df919061270d565b60405180910390f35b6101fb6101f636600461279e565b6106ac565b60405190151581526020016101df565b61021e61021936600461279e565b6107a3565b6040519081526020016101df565b61021e60015481565b61021e5f5481565b61021e7f8cad95687ba82c2ce50e74f7b754645e5117c3a5bec8151c0726d5857980a86681565b6101fb6102723660046127c6565b61082f565b6102e76102853660046127ff565b335f90815260056020908152604080832073ffffffffffffffffffffffffffffffffffffffff9590951683529390529190912080547fffffffffffffffffffffffffffffffffffffffffffffffffffffffffffffff0016911515919091179055565b005b61021e7f6e71edae12b1b97f4d1f60370fef10105fa2faae0126114a169c64845d6126c981565b610318601281565b60405160ff90911681526020016101df565b6101fb610338366004612838565b73ffffffffffffffffffffffffffffffffffffffff9182165f90815260056020908152604080832093909416825291909152205460ff1690565b6102e7610380366004612869565b6109cc565b6101fb610393366004612838565b600560209081525f928352604080842090915290825290205460ff1681565b61021e6103c0366004612880565b60046020525f908152604090205481565b6104066103df366004612880565b60066020525f908152604090205473ffffffffffffffffffffffffffffffffffffffff1681565b60405173ffffffffffffffffffffffffffffffffffffffff90911681526020016101df565b6102e7610439366004612880565b610b45565b61046361044c366004612880565b60086020525f908152604090205463ffffffff1681565b60405163ffffffff90911681526020016101df565b61021e610486366004612880565b73ffffffffffffffffffffffffffffffffffffffff165f908152600360205260409020546bffffffffffffffffffffffff1690565b6104ce6104c936600461279e565b610b52565b6040516bffffffffffffffffffffffff90911681526020016101df565b61021e6104f9366004612880565b60096020525f908152604090205481565b6101d26040518060400160405280600481526020017f505553480000000000000000000000000000000000000000000000000000000081525081565b6101fb61055436600461279e565b610e3f565b6104ce610567366004612880565b610e7a565b6102e761057a3660046128a9565b610f13565b6102e761058d3660046128fd565b6112f8565b61021e6105a0366004612838565b73ffffffffffffffffffffffffffffffffffffffff9182165f9081526002602090815260408083209390941682529190915220546bffffffffffffffffffffffff1690565b61021e7fe48329057bfd03d55e49b547132e39cffd9c1820ad7b9d4c5307691425d15adf81565b61065461061a366004612962565b600760209081525f928352604080842090915290825290205463ffffffff81169064010000000090046bffffffffffffffffffffffff1682565b6040805163ffffffff90931683526bffffffffffffffffffffffff9091166020830152016101df565b6102e761068b366004612880565b61184c565b604051806060016040528060228152602001612bc46022913981565b5f806bffffffffffffffffffffffff83106106d457506bffffffffffffffffffffffff6106f9565b6106f683604051806060016040528060258152602001612d78602591396119ae565b90505b335f81815260026020908152604080832073ffffffffffffffffffffffffffffffffffffffff89168085529083529281902080547fffffffffffffffffffffffffffffffffffffffff000000000000000000000000166bffffffffffffffffffffffff871690811790915590519081529192917f8c5be1e5ebec7d5bd14f71427d1e84f3dd0314c0f7b2291e5b200ac8c7c3b925910160405180910390a360019150505b92915050565b73ffffffffffffffffffffffffffffffffffffffff82165f9081526003602090815260408083205460048352818420548251608081019093526044808452610828946bffffffffffffffffffffffff9093169361080a9388939290612e01908301396119ff565b604051806060016040528060308152602001612b5960309139611a51565b9392505050565b73ffffffffffffffffffffffffffffffffffffffff83165f9081526002602090815260408083203380855290835281842054825160608101909352602580845291936bffffffffffffffffffffffff9091169285926108989288929190612d78908301396119ae565b90508673ffffffffffffffffffffffffffffffffffffffff168373ffffffffffffffffffffffffffffffffffffffff16141580156108e457506bffffffffffffffffffffffff82811614155b156109b4575f61090d83836040518060600160405280603d8152602001612d9d603d9139611abb565b73ffffffffffffffffffffffffffffffffffffffff8981165f818152600260209081526040808320948a168084529482529182902080547fffffffffffffffffffffffffffffffffffffffff000000000000000000000000166bffffffffffffffffffffffff87169081179091559151918252939450919290917f8c5be1e5ebec7d5bd14f71427d1e84f3dd0314c0f7b2291e5b200ac8c7c3b925910160405180910390a3505b6109bf878783611b28565b5060019695505050505050565b335f8181526003602090815260408083205481516060810190925260228083526bffffffffffffffffffffffff9091169392610a129287929091612c86908301396119ae565b9050610a378282604051806060016040528060278152602001612dda60279139611abb565b60035f8573ffffffffffffffffffffffffffffffffffffffff1673ffffffffffffffffffffffffffffffffffffffff1681526020019081526020015f205f6101000a8154816bffffffffffffffffffffffff02191690836bffffffffffffffffffffffff160217905550610ae25f54856040518060400160405280601c81526020017f507573683a3a6275726e3a20737570706c7920756e646572666c6f77000000008152506119ff565b5f9081556040516bffffffffffffffffffffffff8316815273ffffffffffffffffffffffffffffffffffffffff8516907fddf252ad1be2c89b69c2b068fc378daa952ba7f163c4a11628f55a4df523b3ef9060200160405180910390a350505050565b610b4f3382611e41565b50565b5f438210610be7576040517f08c379a000000000000000000000000000000000000000000000000000000000815260206004820152602760248201527f507573683a3a6765745072696f72566f7465733a206e6f74207965742064657460448201527f65726d696e65640000000000000000000000000000000000000000000000000060648201526084015b60405180910390fd5b73ffffffffffffffffffffffffffffffffffffffff83165f9081526008602052604081205463ffffffff1690819003610c23575f91505061079d565b73ffffffffffffffffffffffffffffffffffffffff84165f90815260076020526040812081610c536001856129c1565b63ffffffff908116825260208083019390935260409182015f208251808401909352549081168083526401000000009091046bffffffffffffffffffffffff169282019290925291508410610caf5760200151915061079d9050565b73ffffffffffffffffffffffffffffffffffffffff85165f90815260076020908152604080832083805290915290205463ffffffff16841015610cf6575f9250505061079d565b5f80610d036001856129c1565b90505b8163ffffffff168163ffffffff161115610de7575f6002610d2784846129c1565b610d319190612a12565b610d3b90836129c1565b73ffffffffffffffffffffffffffffffffffffffff89165f90815260076020908152604080832063ffffffff8581168552908352928190208151808301909252549283168082526401000000009093046bffffffffffffffffffffffff1691810191909152919250889003610dbb5760200151955061079d945050505050565b805163ffffffff16881115610dd257819350610de0565b610ddd6001836129c1565b92505b5050610d06565b5073ffffffffffffffffffffffffffffffffffffffff86165f90815260076020908152604080832063ffffffff909416835292905220546bffffffffffffffffffffffff640100000000909104169250505092915050565b5f80610e6383604051806060016040528060268152602001612e6c602691396119ae565b9050610e70338583611b28565b5060019392505050565b73ffffffffffffffffffffffffffffffffffffffff81165f9081526008602052604081205463ffffffff1680610eb0575f610828565b73ffffffffffffffffffffffffffffffffffffffff83165f90815260076020526040812090610ee06001846129c1565b63ffffffff16815260208101919091526040015f205464010000000090046bffffffffffffffffffffffff169392505050565b5f7f8cad95687ba82c2ce50e74f7b754645e5117c3a5bec8151c0726d5857980a866604051806060016040528060228152602001612bc4602291398051602091820120604080518084019490945283810191909152466060840152306080808501919091528151808503909101815260a0840182528051908301207fe48329057bfd03d55e49b547132e39cffd9c1820ad7b9d4c5307691425d15adf60c085015273ffffffffffffffffffffffffffffffffffffffff8b1660e085015261010084018a90526101208085018a9052825180860390910181526101408501909252815191909201207f190100000000000000000000000000000000000000000000000000000000000061016084015261016283018290526101828301819052909250905f906101a201604080517fffffffffffffffffffffffffffffffffffffffffffffffffffffffffffffffe081840301815282825280516020918201205f80855291840180845281905260ff8a169284019290925260608301889052608083018790529092509060019060a0016020604051602081039080840390855afa1580156110c1573d5f803e3d5ffd5b50506040517fffffffffffffffffffffffffffffffffffffffffffffffffffffffffffffffe0015191505073ffffffffffffffffffffffffffffffffffffffff811661118f576040517f08c379a000000000000000000000000000000000000000000000000000000000815260206004820152602660248201527f507573683a3a64656c656761746542795369673a20696e76616c69642073696760448201527f6e617475726500000000000000000000000000000000000000000000000000006064820152608401610bde565b73ffffffffffffffffffffffffffffffffffffffff81165f9081526009602052604081208054916111bf83612a34565b919050558914611251576040517f08c379a000000000000000000000000000000000000000000000000000000000815260206004820152602260248201527f507573683a3a64656c656761746542795369673a20696e76616c6964206e6f6e60448201527f63650000000000000000000000000000000000000000000000000000000000006064820152608401610bde565b874211156112e1576040517f08c379a000000000000000000000000000000000000000000000000000000000815260206004820152602660248201527f507573683a3a64656c656761746542795369673a207369676e6174757265206560448201527f78706972656400000000000000000000000000000000000000000000000000006064820152608401610bde565b6112eb818b611e41565b505050505b505050505050565b5f7fffffffffffffffffffffffffffffffffffffffffffffffffffffffffffffffff860361133357506bffffffffffffffffffffffff611358565b61135586604051806060016040528060248152602001612e92602491396119ae565b90505b5f7f8cad95687ba82c2ce50e74f7b754645e5117c3a5bec8151c0726d5857980a866604051806060016040528060228152602001612bc460229139805160209182012060408051928301939093529181019190915246606082015230608082015260a001604080517fffffffffffffffffffffffffffffffffffffffffffffffffffffffffffffffe0818403018152918152815160209283012073ffffffffffffffffffffffffffffffffffffffff8c165f908152600990935290822080549193507f6e71edae12b1b97f4d1f60370fef10105fa2faae0126114a169c64845d6126c9918c918c918c918661144c83612a34565b9091555060408051602081019690965273ffffffffffffffffffffffffffffffffffffffff94851690860152929091166060840152608083015260a082015260c0810188905260e0016040516020818303038152906040528051906020012090505f82826040516020016114f29291907f190100000000000000000000000000000000000000000000000000000000000081526002810192909252602282015260420190565b604080517fffffffffffffffffffffffffffffffffffffffffffffffffffffffffffffffe081840301815282825280516020918201205f80855291840180845281905260ff8b169284019290925260608301899052608083018890529092509060019060a0016020604051602081039080840390855afa158015611578573d5f803e3d5ffd5b50506040517fffffffffffffffffffffffffffffffffffffffffffffffffffffffffffffffe0015191505073ffffffffffffffffffffffffffffffffffffffff8116611620576040517f08c379a000000000000000000000000000000000000000000000000000000000815260206004820152601f60248201527f507573683a3a7065726d69743a20696e76616c6964207369676e6174757265006044820152606401610bde565b8b73ffffffffffffffffffffffffffffffffffffffff168173ffffffffffffffffffffffffffffffffffffffff16146116b5576040517f08c379a000000000000000000000000000000000000000000000000000000000815260206004820152601a60248201527f507573683a3a7065726d69743a20756e617574686f72697a65640000000000006044820152606401610bde565b8842111561171f576040517f08c379a000000000000000000000000000000000000000000000000000000000815260206004820152601f60248201527f507573683a3a7065726d69743a207369676e61747572652065787069726564006044820152606401610bde565b8460025f8e73ffffffffffffffffffffffffffffffffffffffff1673ffffffffffffffffffffffffffffffffffffffff1681526020019081526020015f205f8d73ffffffffffffffffffffffffffffffffffffffff1673ffffffffffffffffffffffffffffffffffffffff1681526020019081526020015f205f6101000a8154816bffffffffffffffffffffffff02191690836bffffffffffffffffffffffff1602179055508a73ffffffffffffffffffffffffffffffffffffffff168c73ffffffffffffffffffffffffffffffffffffffff167f8c5be1e5ebec7d5bd14f71427d1e84f3dd0314c0f7b2291e5b200ac8c7c3b9258760405161183691906bffffffffffffffffffffffff91909116815260200190565b60405180910390a3505050505050505050505050565b73ffffffffffffffffffffffffffffffffffffffff81165f90815260056020908152604080832033845290915290205460ff161515600114806118a4575073ffffffffffffffffffffffffffffffffffffffff811633145b611930576040517f08c379a000000000000000000000000000000000000000000000000000000000815260206004820152602560248201527f507573683a3a7265736574486f6c6465725765696768743a20756e617574686f60448201527f72697a65640000000000000000000000000000000000000000000000000000006064820152608401610bde565b73ffffffffffffffffffffffffffffffffffffffff81165f818152600460209081526040808320439081905560038352928190205481516bffffffffffffffffffffffff9091168152918201929092527f7ffd5ecbf13a4814c06acbd9d31dff13c728c3936046c339e8053a8c26b38bb5910160405180910390a250565b5f816c0100000000000000000000000084106119f7576040517f08c379a0000000000000000000000000000000000000000000000000000000008152600401610bde919061270d565b509192915050565b5f8184841115611a3c576040517f08c379a0000000000000000000000000000000000000000000000000000000008152600401610bde919061270d565b505f611a488486612a6b565b95945050505050565b5f835f03611a6057505f610828565b5f611a6b8486612a7e565b905083611a788683612a95565b148390611ab2576040517f08c379a0000000000000000000000000000000000000000000000000000000008152600401610bde919061270d565b50949350505050565b5f836bffffffffffffffffffffffff16836bffffffffffffffffffffffff1611158290611b15576040517f08c379a0000000000000000000000000000000000000000000000000000000008152600401610bde919061270d565b50611b208385612aa8565b949350505050565b73ffffffffffffffffffffffffffffffffffffffff8316611bcb576040517f08c379a000000000000000000000000000000000000000000000000000000000815260206004820152603c60248201527f507573683a3a5f7472616e73666572546f6b656e733a2063616e6e6f7420747260448201527f616e736665722066726f6d20746865207a65726f2061646472657373000000006064820152608401610bde565b73ffffffffffffffffffffffffffffffffffffffff8216611c6e576040517f08c379a000000000000000000000000000000000000000000000000000000000815260206004820152603a60248201527f507573683a3a5f7472616e73666572546f6b656e733a2063616e6e6f7420747260448201527f616e7366657220746f20746865207a65726f20616464726573730000000000006064820152608401610bde565b611c79838383611ef4565b73ffffffffffffffffffffffffffffffffffffffff83165f90815260036020908152604091829020548251606081019093526036808452611cd5936bffffffffffffffffffffffff9092169285929190612c5090830139611abb565b73ffffffffffffffffffffffffffffffffffffffff8481165f90815260036020908152604080832080547fffffffffffffffffffffffffffffffffffffffff000000000000000000000000166bffffffffffffffffffffffff968716179055928616825290829020548251606081019093526030808452611d669491909116928592909190612c2090830139612144565b73ffffffffffffffffffffffffffffffffffffffff8381165f8181526003602090815260409182902080547fffffffffffffffffffffffffffffffffffffffff000000000000000000000000166bffffffffffffffffffffffff968716179055905193851684529092918616917fddf252ad1be2c89b69c2b068fc378daa952ba7f163c4a11628f55a4df523b3ef910160405180910390a373ffffffffffffffffffffffffffffffffffffffff8084165f90815260066020526040808220548584168352912054611e3c929182169116836121ab565b505050565b73ffffffffffffffffffffffffffffffffffffffff8083165f81815260066020818152604080842080546003845282862054949093528787167fffffffffffffffffffffffff000000000000000000000000000000000000000084168117909155905191909516946bffffffffffffffffffffffff9092169391928592917f3134e8a2e6d97e929a7e54011ea5485d7d196dd5f0ba4d4ef95803e8e3fc257f9190a4611eee8284836121ab565b50505050565b73ffffffffffffffffffffffffffffffffffffffff82165f908152600360205260408120546bffffffffffffffffffffffff1690819003611f635773ffffffffffffffffffffffffffffffffffffffff8085165f90815260046020526040808220549286168252902055611eee565b5f611fd260045f8673ffffffffffffffffffffffffffffffffffffffff1673ffffffffffffffffffffffffffffffffffffffff1681526020019081526020015f2054836bffffffffffffffffffffffff166040518060600160405280603b8152602001612d15603b9139611a51565b90505f61204360045f8873ffffffffffffffffffffffffffffffffffffffff1673ffffffffffffffffffffffffffffffffffffffff1681526020019081526020015f2054856bffffffffffffffffffffffff166040518060600160405280603b8152602001612b89603b9139611a51565b90505f6120698383604051806060016040528060368152602001612b23603691396123c5565b90505f6120ab856bffffffffffffffffffffffff16876bffffffffffffffffffffffff16604051806060016040528060368152602001612eb6603691396123c5565b90505f6120c882600260405180602001604052805f81525061240f565b90505f6120ee8483604051806060016040528060398152602001612ca8603991396123c5565b905061211381846040518060600160405280603a8152602001612be6603a913961240f565b73ffffffffffffffffffffffffffffffffffffffff8a165f9081526004602052604090205550505050505050505050565b5f806121508486612acd565b9050846bffffffffffffffffffffffff16816bffffffffffffffffffffffff1610158390611ab2576040517f08c379a0000000000000000000000000000000000000000000000000000000008152600401610bde919061270d565b8173ffffffffffffffffffffffffffffffffffffffff168373ffffffffffffffffffffffffffffffffffffffff16141580156121f457505f816bffffffffffffffffffffffff16115b15611e3c5773ffffffffffffffffffffffffffffffffffffffff8316156122e15773ffffffffffffffffffffffffffffffffffffffff83165f9081526008602052604081205463ffffffff16908161224c575f6122a9565b73ffffffffffffffffffffffffffffffffffffffff85165f9081526007602052604081209061227c6001856129c1565b63ffffffff16815260208101919091526040015f205464010000000090046bffffffffffffffffffffffff165b90505f6122cf8285604051806060016040528060288152602001612d5060289139611abb565b90506122dd86848484612455565b5050505b73ffffffffffffffffffffffffffffffffffffffff821615611e3c5773ffffffffffffffffffffffffffffffffffffffff82165f9081526008602052604081205463ffffffff169081612334575f612391565b73ffffffffffffffffffffffffffffffffffffffff84165f908152600760205260408120906123646001856129c1565b63ffffffff16815260208101919091526040015f205464010000000090046bffffffffffffffffffffffff165b90505f6123b78285604051806060016040528060278152602001612e4560279139612144565b90506112f085848484612455565b5f806123d18486612af2565b90508285821015611ab2576040517f08c379a0000000000000000000000000000000000000000000000000000000008152600401610bde919061270d565b5f8183612449576040517f08c379a0000000000000000000000000000000000000000000000000000000008152600401610bde919061270d565b505f611a488486612a95565b5f61247843604051806060016040528060348152602001612ce1603491396126d0565b90505f8463ffffffff161180156124dc575073ffffffffffffffffffffffffffffffffffffffff85165f90815260076020526040812063ffffffff8316916124c16001886129c1565b63ffffffff908116825260208201929092526040015f205416145b156125705773ffffffffffffffffffffffffffffffffffffffff85165f90815260076020526040812083916125126001886129c1565b63ffffffff16815260208101919091526040015f2080546bffffffffffffffffffffffff92909216640100000000027fffffffffffffffffffffffffffffffff000000000000000000000000ffffffff909216919091179055612669565b60408051808201825263ffffffff80841682526bffffffffffffffffffffffff808616602080850191825273ffffffffffffffffffffffffffffffffffffffff8b165f908152600782528681208b8616825290915294909420925183549451909116640100000000027fffffffffffffffffffffffffffffffff00000000000000000000000000000000909416911617919091179055612611846001612b05565b73ffffffffffffffffffffffffffffffffffffffff86165f90815260086020526040902080547fffffffffffffffffffffffffffffffffffffffffffffffffffffffff000000001663ffffffff929092169190911790555b604080516bffffffffffffffffffffffff80861682528416602082015273ffffffffffffffffffffffffffffffffffffffff8716917fdec2bacdd2f05b59de34da9b523dff8be42e5e38e818c82fdb0bae774387a724910160405180910390a25050505050565b5f8164010000000084106119f7576040517f08c379a0000000000000000000000000000000000000000000000000000000008152600401610bde91905b5f6020808352835180828501525f5b818110156127385785810183015185820160400152820161271c565b505f6040828601015260407fffffffffffffffffffffffffffffffffffffffffffffffffffffffffffffffe0601f8301168501019250505092915050565b803573ffffffffffffffffffffffffffffffffffffffff81168114612799575f80fd5b919050565b5f80604083850312156127af575f80fd5b6127b883612776565b946020939093013593505050565b5f805f606084860312156127d8575f80fd5b6127e184612776565b92506127ef60208501612776565b9150604084013590509250925092565b5f8060408385031215612810575f80fd5b61281983612776565b91506020830135801515811461282d575f80fd5b809150509250929050565b5f8060408385031215612849575f80fd5b61285283612776565b915061286060208401612776565b90509250929050565b5f60208284031215612879575f80fd5b5035919050565b5f60208284031215612890575f80fd5b61082882612776565b803560ff81168114612799575f80fd5b5f805f805f8060c087890312156128be575f80fd5b6128c787612776565b955060208701359450604087013593506128e360608801612899565b92506080870135915060a087013590509295509295509295565b5f805f805f805f60e0888a031215612913575f80fd5b61291c88612776565b965061292a60208901612776565b9550604088013594506060880135935061294660808901612899565b925060a0880135915060c0880135905092959891949750929550565b5f8060408385031215612973575f80fd5b61297c83612776565b9150602083013563ffffffff8116811461282d575f80fd5b7f4e487b71000000000000000000000000000000000000000000000000000000005f52601160045260245ffd5b63ffffffff8281168282160390808211156129de576129de612994565b5092915050565b7f4e487b71000000000000000000000000000000000000000000000000000000005f52601260045260245ffd5b5f63ffffffff80841680612a2857612a286129e5565b92169190910492915050565b5f7fffffffffffffffffffffffffffffffffffffffffffffffffffffffffffffffff8203612a6457612a64612994565b5060010190565b8181038181111561079d5761079d612994565b808202811582820484141761079d5761079d612994565b5f82612aa357612aa36129e5565b500490565b6bffffffffffffffffffffffff8281168282160390808211156129de576129de612994565b6bffffffffffffffffffffffff8181168382160190808211156129de576129de612994565b8082018082111561079d5761079d612994565b63ffffffff8181168382160190808211156129de576129de61299456fe507573683a3a5f61646a757374486f6c6465725765696768743a20746f74616c20776569676874206578636565646564206c696d6974507573683a3a72657475726e486f6c646572556e6974733a20726174696f2065786365656473206d61782072616e6765507573683a3a5f61646a757374486f6c6465725765696768743a20686f6c6465722073726320776569676874206578636565646564206c696d6974457468657265756d2050757368204e6f74696669636174696f6e2053657276696365507573683a3a5f61646a757374486f6c6465725765696768743a2061646a757374656420686f6c646572206e6567617469766520646976696465507573683a3a5f7472616e73666572546f6b656e733a207472616e7366657220616d6f756e74206f766572666c6f7773507573683a3a5f7472616e73666572546f6b656e733a207472616e7366657220616d6f756e7420657863656564732062616c616e6365507573683a3a6275726e3a20616d6f756e7420657863656564732039362062697473507573683a3a5f61646a757374486f6c6465725765696768743a20726f756e6420757020616d6f756e74206578636565646564206c696d6974507573683a3a5f7772697465436865636b706f696e743a20626c6f636b206e756d62657220657863656564732033322062697473507573683a3a5f61646a757374486f6c6465725765696768743a20686f6c6465722064737420776569676874206578636565646564206c696d6974507573683a3a5f6d6f7665566f7465733a20766f746520616d6f756e7420756e646572666c6f7773507573683a3a617070726f76653a20616d6f756e7420657863656564732039362062697473507573683a3a7472616e7366657246726f6d3a207472616e7366657220616d6f756e742065786365656473207370656e64657220616c6c6f77616e6365507573683a3a6275726e3a206275726e20616d6f756e7420657863656564732062616c616e6365507573683a3a72657475726e486f6c646572556e6974733a206174426c6f636b2073686f756c642062652067726561746572207468616e20686f6c646572576569676874507573683a3a5f6d6f7665566f7465733a20766f746520616d6f756e74206f766572666c6f7773507573683a3a7472616e736665723a20616d6f756e7420657863656564732039362062697473507573683a3a7065726d69743a20616d6f756e7420657863656564732039362062697473507573683a3a5f61646a757374486f6c6465725765696768743a20746f74616c20616d6f756e74206578636565646564206c696d6974a2646970667358221220eae044c636a041e6bf15c718abf552f344a06bea5e2393d623e1d8ca2ca3ffb264736f6c63430008140033","linkReferences":{}},"methodIdentifiers":{"DELEGATION_TYPEHASH()":"e7a324dc","DOMAIN_TYPEHASH()":"20606b70","PERMIT_TYPEHASH()":"30adf81f","allowance(address,address)":"dd62ed3e","approve(address,uint256)":"095ea7b3","balanceOf(address)":"70a08231","born()":"10c19421","burn(uint256)":"42966c68","checkpoints(address,uint32)":"f1127ed8","decimals()":"313ce567","delegate(address)":"5c19a95c","delegateBySig(address,uint256,uint256,uint8,bytes32,bytes32)":"c3cda520","delegates(address)":"587cde1e","getCurrentVotes(address)":"b4b5ea57","getPriorVotes(address,uint256)":"782d6fe1","holderDelegation(address,address)":"4823838d","holderWeight(address)":"51b07180","name()":"06fdde03","nonces(address)":"7ecebe00","numCheckpoints(address)":"6fcfff45","permit(address,address,uint256,uint256,uint8,bytes32,bytes32)":"d505accf","resetHolderWeight(address)":"f18365d9","returnHolderDelegation(address,address)":"3f5af244","returnHolderUnits(address,uint256)":"0b1b72f2","setHolderDelegation(address,bool)":"2477c6e8","symbol()":"95d89b41","totalSupply()":"18160ddd","transfer(address,uint256)":"a9059cbb","transferFrom(address,address,uint256)":"23b872dd"},"id":33}