{"abi":[{"type":"function","name":"DOMAIN_TYPEHASH","inputs":[],"outputs":[{"name":"","type":"bytes32","internalType":"bytes32"}],"stateMutability":"view"},{"type":"function","name":"EPNSCoreAddress","inputs":[],"outputs":[{"name":"","type":"address","internalType":"address"}],"stateMutability":"view"},{"type":"function","name":"NAME_HASH","inputs":[],"outputs":[{"name":"","type":"bytes32","internalType":"bytes32"}],"stateMutability":"view"},{"type":"function","name":"PUSH_TOKEN_ADDRESS","inputs":[],"outputs":[{"name":"","type":"address","internalType":"address"}],"stateMutability":"view"},{"type":"function","name":"SEND_NOTIFICATION_TYPEHASH","inputs":[],"outputs":[{"name":"","type":"bytes32","internalType":"bytes32"}],"stateMutability":"view"},{"type":"function","name":"SUBSCRIBE_TYPEHASH","inputs":[],"outputs":[{"name":"","type":"bytes32","internalType":"bytes32"}],"stateMutability":"view"},{"type":"function","name":"UNSUBSCRIBE_TYPEHASH","inputs":[],"outputs":[{"name":"","type":"bytes32","internalType":"bytes32"}],"stateMutability":"view"},{"type":"function","name":"addDelegate","inputs":[{"name":"_delegate","type":"address","internalType":"address"}],"outputs":[],"stateMutability":"nonpayable"},{"type":"function","name":"batchSubscribe","inputs":[{"name":"_channelList","type":"address[]","internalType":"address[]"}],"outputs":[{"name":"","type":"bool","internalType":"bool"}],"stateMutability":"nonpayable"},{"type":"function","name":"batchUnsubscribe","inputs":[{"name":"_channelList","type":"address[]","internalType":"address[]"}],"outputs":[{"name":"","type":"bool","internalType":"bool"}],"stateMutability":"nonpayable"},{"type":"function","name":"chainID","inputs":[],"outputs":[{"name":"","type":"uint256","internalType":"uint256"}],"stateMutability":"view"},{"type":"function","name":"chainName","inputs":[],"outputs":[{"name":"","type":"string","internalType":"string"}],"stateMutability":"view"},{"type":"function","name":"changeUserChannelSettings","inputs":[{"name":"_channel","type":"address","internalType":"address"},{"name":"_notifID","type":"uint256","internalType":"uint256"},{"name":"_notifSettings","type":"string","internalType":"string"}],"outputs":[],"stateMutability":"nonpayable"},{"type":"function","name":"completeMigration","inputs":[],"outputs":[],"stateMutability":"nonpayable"},{"type":"function","name":"createIncentivizeChatRequest","inputs":[{"name":"requestReceiver","type":"address","internalType":"address"},{"name":"amount","type":"uint256","internalType":"uint256"}],"outputs":[],"stateMutability":"nonpayable"},{"type":"function","name":"delegatedNotificationSenders","inputs":[{"name":"","type":"address","internalType":"address"},{"name":"","type":"address","internalType":"address"}],"outputs":[{"name":"","type":"bool","internalType":"bool"}],"stateMutability":"view"},{"type":"function","name":"governance","inputs":[],"outputs":[{"name":"","type":"address","internalType":"address"}],"stateMutability":"view"},{"type":"function","name":"initialize","inputs":[{"name":"_pushChannelAdmin","type":"address","internalType":"address"},{"name":"_chainName","type":"string","internalType":"string"}],"outputs":[{"name":"","type":"bool","internalType":"bool"}],"stateMutability":"nonpayable"},{"type":"function","name":"isMigrationComplete","inputs":[],"outputs":[{"name":"","type":"bool","internalType":"bool"}],"stateMutability":"view"},{"type":"function","name":"isUserSubscribed","inputs":[{"name":"_channel","type":"address","internalType":"address"},{"name":"_user","type":"address","internalType":"address"}],"outputs":[{"name":"","type":"bool","internalType":"bool"}],"stateMutability":"view"},{"type":"function","name":"mapAddressUsers","inputs":[{"name":"","type":"uint256","internalType":"uint256"}],"outputs":[{"name":"","type":"address","internalType":"address"}],"stateMutability":"view"},{"type":"function","name":"name","inputs":[],"outputs":[{"name":"","type":"string","internalType":"string"}],"stateMutability":"view"},{"type":"function","name":"nonces","inputs":[{"name":"","type":"address","internalType":"address"}],"outputs":[{"name":"","type":"uint256","internalType":"uint256"}],"stateMutability":"view"},{"type":"function","name":"pushChannelAdmin","inputs":[],"outputs":[{"name":"","type":"address","internalType":"address"}],"stateMutability":"view"},{"type":"function","name":"removeDelegate","inputs":[{"name":"_delegate","type":"address","internalType":"address"}],"outputs":[],"stateMutability":"nonpayable"},{"type":"function","name":"sendNotifBySig","inputs":[{"name":"_channel","type":"address","internalType":"address"},{"name":"_recipient","type":"address","internalType":"address"},{"name":"_signer","type":"address","internalType":"address"},{"name":"_identity","type":"bytes","internalType":"bytes"},{"name":"nonce","type":"uint256","internalType":"uint256"},{"name":"expiry","type":"uint256","internalType":"uint256"},{"name":"v","type":"uint8","internalType":"uint8"},{"name":"r","type":"bytes32","internalType":"bytes32"},{"name":"s","type":"bytes32","internalType":"bytes32"}],"outputs":[{"name":"","type":"bool","internalType":"bool"}],"stateMutability":"nonpayable"},{"type":"function","name":"sendNotification","inputs":[{"name":"_channel","type":"address","internalType":"address"},{"name":"_recipient","type":"address","internalType":"address"},{"name":"_identity","type":"bytes","internalType":"bytes"}],"outputs":[{"name":"","type":"bool","internalType":"bool"}],"stateMutability":"nonpayable"},{"type":"function","name":"setEPNSCoreAddress","inputs":[{"name":"_coreAddress","type":"address","internalType":"address"}],"outputs":[],"stateMutability":"nonpayable"},{"type":"function","name":"setGovernanceAddress","inputs":[{"name":"_governanceAddress","type":"address","internalType":"address"}],"outputs":[],"stateMutability":"nonpayable"},{"type":"function","name":"setPushTokenAddress","inputs":[{"name":"_tokenAddress","type":"address","internalType":"address"}],"outputs":[],"stateMutability":"nonpayable"},{"type":"function","name":"subscribe","inputs":[{"name":"_channel","type":"address","internalType":"address"}],"outputs":[{"name":"","type":"bool","internalType":"bool"}],"stateMutability":"nonpayable"},{"type":"function","name":"subscribeBySig","inputs":[{"name":"channel","type":"address","internalType":"address"},{"name":"subscriber","type":"address","internalType":"address"},{"name":"nonce","type":"uint256","internalType":"uint256"},{"name":"expiry","type":"uint256","internalType":"uint256"},{"name":"v","type":"uint8","internalType":"uint8"},{"name":"r","type":"bytes32","internalType":"bytes32"},{"name":"s","type":"bytes32","internalType":"bytes32"}],"outputs":[],"stateMutability":"nonpayable"},{"type":"function","name":"subscribeViaCore","inputs":[{"name":"_channel","type":"address","internalType":"address"},{"name":"_user","type":"address","internalType":"address"}],"outputs":[{"name":"","type":"bool","internalType":"bool"}],"stateMutability":"nonpayable"},{"type":"function","name":"transferPushChannelAdminControl","inputs":[{"name":"_newAdmin","type":"address","internalType":"address"}],"outputs":[],"stateMutability":"nonpayable"},{"type":"function","name":"unSubscribeViaCore","inputs":[{"name":"_channel","type":"address","internalType":"address"},{"name":"_user","type":"address","internalType":"address"}],"outputs":[{"name":"","type":"bool","internalType":"bool"}],"stateMutability":"nonpayable"},{"type":"function","name":"unsubscribe","inputs":[{"name":"_channel","type":"address","internalType":"address"}],"outputs":[{"name":"","type":"bool","internalType":"bool"}],"stateMutability":"nonpayable"},{"type":"function","name":"unsubscribeBySig","inputs":[{"name":"channel","type":"address","internalType":"address"},{"name":"subscriber","type":"address","internalType":"address"},{"name":"nonce","type":"uint256","internalType":"uint256"},{"name":"expiry","type":"uint256","internalType":"uint256"},{"name":"v","type":"uint8","internalType":"uint8"},{"name":"r","type":"bytes32","internalType":"bytes32"},{"name":"s","type":"bytes32","internalType":"bytes32"}],"outputs":[],"stateMutability":"nonpayable"},{"type":"function","name":"userChatData","inputs":[{"name":"","type":"address","internalType":"address"}],"outputs":[{"name":"requestSender","type":"address","internalType":"address"},{"name":"timestamp","type":"uint256","internalType":"uint256"},{"name":"amountDeposited","type":"uint256","internalType":"uint256"}],"stateMutability":"view"},{"type":"function","name":"userToChannelNotifs","inputs":[{"name":"","type":"address","internalType":"address"},{"name":"","type":"address","internalType":"address"}],"outputs":[{"name":"","type":"string","internalType":"string"}],"stateMutability":"view"},{"type":"function","name":"users","inputs":[{"name":"","type":"address","internalType":"address"}],"outputs":[{"name":"userActivated","type":"bool","internalType":"bool"},{"name":"publicKeyRegistered","type":"bool","internalType":"bool"},{"name":"userStartBlock","type":"uint256","internalType":"uint256"},{"name":"subscribedCount","type":"uint256","internalType":"uint256"}],"stateMutability":"view"},{"type":"function","name":"usersCount","inputs":[],"outputs":[{"name":"","type":"uint256","internalType":"uint256"}],"stateMutability":"view"},{"type":"function","name":"verifyChannelAlias","inputs":[{"name":"_channelAddress","type":"string","internalType":"string"}],"outputs":[],"stateMutability":"nonpayable"},{"type":"event","name":"AddDelegate","inputs":[{"name":"channel","type":"address","indexed":false,"internalType":"address"},{"name":"delegate","type":"address","indexed":false,"internalType":"address"}],"anonymous":false},{"type":"event","name":"ChannelAlias","inputs":[{"name":"_chainName","type":"string","indexed":false,"internalType":"string"},{"name":"_chainID","type":"uint256","indexed":true,"internalType":"uint256"},{"name":"_channelOwnerAddress","type":"address","indexed":true,"internalType":"address"},{"name":"_ethereumChannelAddress","type":"string","indexed":false,"internalType":"string"}],"anonymous":false},{"type":"event","name":"IncentivizeChatReqInitiated","inputs":[{"name":"requestSender","type":"address","indexed":false,"internalType":"address"},{"name":"requestReceiver","type":"address","indexed":false,"internalType":"address"},{"name":"amountDeposited","type":"uint256","indexed":false,"internalType":"uint256"},{"name":"timestamp","type":"uint256","indexed":false,"internalType":"uint256"}],"anonymous":false},{"type":"event","name":"Initialized","inputs":[{"name":"version","type":"uint64","indexed":false,"internalType":"uint64"}],"anonymous":false},{"type":"event","name":"PublicKeyRegistered","inputs":[{"name":"owner","type":"address","indexed":true,"internalType":"address"},{"name":"publickey","type":"bytes","indexed":false,"internalType":"bytes"}],"anonymous":false},{"type":"event","name":"RemoveDelegate","inputs":[{"name":"channel","type":"address","indexed":false,"internalType":"address"},{"name":"delegate","type":"address","indexed":false,"internalType":"address"}],"anonymous":false},{"type":"event","name":"SendNotification","inputs":[{"name":"channel","type":"address","indexed":true,"internalType":"address"},{"name":"recipient","type":"address","indexed":true,"internalType":"address"},{"name":"identity","type":"bytes","indexed":false,"internalType":"bytes"}],"anonymous":false},{"type":"event","name":"Subscribe","inputs":[{"name":"channel","type":"address","indexed":true,"internalType":"address"},{"name":"user","type":"address","indexed":true,"internalType":"address"}],"anonymous":false},{"type":"event","name":"Unsubscribe","inputs":[{"name":"channel","type":"address","indexed":true,"internalType":"address"},{"name":"user","type":"address","indexed":true,"internalType":"address"}],"anonymous":false},{"type":"event","name":"UserNotifcationSettingsAdded","inputs":[{"name":"_channel","type":"address","indexed":false,"internalType":"address"},{"name":"_user","type":"address","indexed":false,"internalType":"address"},{"name":"_notifID","type":"uint256","indexed":false,"internalType":"uint256"},{"name":"_notifSettings","type":"string","indexed":false,"internalType":"string"}],"anonymous":false},{"type":"error","name":"AddressEmptyCode","inputs":[{"name":"target","type":"address","internalType":"address"}]},{"type":"error","name":"AddressInsufficientBalance","inputs":[{"name":"account","type":"address","internalType":"address"}]},{"type":"error","name":"CallerNotAdmin","inputs":[]},{"type":"error","name":"Comm_InvalidNonce","inputs":[]},{"type":"error","name":"Comm_InvalidSignature_FromContract","inputs":[]},{"type":"error","name":"Comm_InvalidSignature_FromEOA","inputs":[]},{"type":"error","name":"Comm_InvalidSubscriber","inputs":[]},{"type":"error","name":"Comm_TimeExpired","inputs":[{"name":"endTime","type":"uint256","internalType":"uint256"},{"name":"currentTime","type":"uint256","internalType":"uint256"}]},{"type":"error","name":"FailedInnerCall","inputs":[]},{"type":"error","name":"InvalidArg_LessThanExpected","inputs":[{"name":"min_threshold","type":"uint256","internalType":"uint256"},{"name":"actual_value","type":"uint256","internalType":"uint256"}]},{"type":"error","name":"InvalidArgument_WrongAddress","inputs":[{"name":"user","type":"address","internalType":"address"}]},{"type":"error","name":"InvalidInitialization","inputs":[]},{"type":"error","name":"NotInitializing","inputs":[]},{"type":"error","name":"SafeERC20FailedOperation","inputs":[{"name":"token","type":"address","internalType":"address"}]},{"type":"error","name":"UnauthorizedCaller","inputs":[{"name":"caller","type":"address","internalType":"address"}]}],"bytecode":{"object":"0x608060405234801561001057600080fd5b50613610806100206000396000f3fe608060405234801561001057600080fd5b50600436106102dd5760003560e01c80636e0d232c11610186578063adc879e9116100e3578063e059c6d011610097578063f399e22e11610071578063f399e22e146107e3578063f83c7f77146107f6578063ffb848831461080957600080fd5b8063e059c6d014610796578063e71bdf41146107bd578063ed7ee0f6146107d057600080fd5b8063bd90f815116100c8578063bd90f81514610756578063cfc1625414610776578063d71280841461078957600080fd5b8063adc879e91461073a578063ba3d69d71461074357600080fd5b80637f6c16dc1161013a57806392d41a531161011f57806392d41a53146106b7578063a0e30b2c146106ca578063a87430ba146106dd57600080fd5b80637f6c16dc146106845780638cfbc3e01461069757600080fd5b80637262561c1161016b5780637262561c1461063e57806373ec8cfb146106515780637ecebe001461066457600080fd5b80636e0d232c146105fd57806371fed0921461062b57600080fd5b80633e5b73c61161023f5780634886f62c116101f35780635aa6e675116101cd5780635aa6e675146105c157806367e7646f146105e15780636ba13a82146105f457600080fd5b80634886f62c146105705780635227dd051461057857806356aaba49146105ae57600080fd5b806341a7726a1161022457806341a7726a1461050057806342564cb41461051357806344c3bca51461055d57600080fd5b80633e5b73c6146104755780633f6109fb146104ed57600080fd5b806317aeae581161029657806320606b701161027b57806320606b70146104285780632d57f9361461044f57806337a4ebb81461046257600080fd5b806317aeae58146103f95780631c93b03a1461042057600080fd5b8063040e80ed116102c7578063040e80ed1461031f57806304622c2e1461035457806306fdde03146103b057600080fd5b806224be7a146102e2578063017d5efe1461030a575b600080fd5b6102f56102f0366004612bcc565b61081c565b60405190151581526020015b60405180910390f35b61031d610318366004612c6a565b61086e565b005b6103467f25283200315ac15e79f5b17ebe844bb8f5facab77bd5c9c8f8d4b592b9949d8981565b604051908152602001610301565b60408051808201909152600c81527f45504e5320434f4d4d20563100000000000000000000000000000000000000006020909101526103467f7c232e0a8d7516843ab49a97f72ad251bb744a65be4e5bc6de77904d54673db981565b6103ec6040518060400160405280600c81526020017f45504e5320434f4d4d205631000000000000000000000000000000000000000081525081565b6040516103019190612cf3565b6103467fa3e12f3a1cbc87b63b39a5ed58d9a2941caba455abcd2a654e7800d7c3a69de281565b6103ec610997565b6103467f8cad95687ba82c2ce50e74f7b754645e5117c3a5bec8151c0726d5857980a86681565b61031d61045d366004612d06565b610a25565b6102f5610470366004612bcc565b610c25565b6104bb610483366004612c6a565b600c6020526000908152604090208054600182015460029092015473ffffffffffffffffffffffffffffffffffffffff909116919083565b6040805173ffffffffffffffffffffffffffffffffffffffff9094168452602084019290925290820152606001610301565b61031d6104fb366004612d41565b610c6a565b6102f561050e366004612c6a565b611138565b60095461053890610100900473ffffffffffffffffffffffffffffffffffffffff1681565b60405173ffffffffffffffffffffffffffffffffffffffff9091168152602001610301565b61031d61056b366004612d41565b61114c565b61031d61160e565b610538610586366004612dab565b60026020526000908152604090205473ffffffffffffffffffffffffffffffffffffffff1681565b61031d6105bc366004612c6a565b61168c565b6005546105389073ffffffffffffffffffffffffffffffffffffffff1681565b61031d6105ef366004612c6a565b611724565b61034660085481565b6102f561060b366004612dc4565b600460209081526000928352604080842090915290825290205460ff1681565b61031d610639366004612c6a565b6117b8565b6102f561064c366004612c6a565b611855565b6102f561065f366004612dc4565b611861565b610346610672366004612c6a565b60016020526000908152604090205481565b61031d610692366004612eda565b6118cf565b600b546105389073ffffffffffffffffffffffffffffffffffffffff1681565b6102f56106c5366004612dc4565b611926565b6102f56106d8366004612f60565b61198b565b6107186106eb366004612c6a565b60006020819052908152604090208054600182015460029092015460ff8083169361010090930416919084565b6040805194151585529215156020850152918301526060820152608001610301565b61034660075481565b6102f561075136600461300d565b611dde565b6006546105389073ffffffffffffffffffffffffffffffffffffffff1681565b61031d610784366004612c6a565b611e6f565b6009546102f59060ff1681565b6103467f8d9aa0830ab50a97d876b6b35a987f5043ee4c983259ae5783c506feee3842c581565b61031d6107cb366004612c6a565b611f07565b61031d6107de36600461307f565b611fb5565b6102f56107f13660046130d9565b6120b1565b6103ec610804366004612dc4565b612293565b6102f5610817366004612dc4565b6122b7565b600081815b818110156108615761085985858381811061083e5761083e613127565b90506020020160208101906108539190612c6a565b3361230b565b600101610821565b5060019150505b92915050565b60065473ffffffffffffffffffffffffffffffffffffffff1633146108bf576040517f06d919f200000000000000000000000000000000000000000000000000000000815260040160405180910390fd5b73ffffffffffffffffffffffffffffffffffffffff811615806108fc575060065473ffffffffffffffffffffffffffffffffffffffff8281169116145b15610950576040517f3e1378c100000000000000000000000000000000000000000000000000000000815273ffffffffffffffffffffffffffffffffffffffff821660048201526024015b60405180910390fd5b600680547fffffffffffffffffffffffff00000000000000000000000000000000000000001673ffffffffffffffffffffffffffffffffffffffff92909216919091179055565b600a80546109a490613156565b80601f01602080910402602001604051908101604052809291908181526020018280546109d090613156565b8015610a1d5780601f106109f257610100808354040283529160200191610a1d565b820191906000526020600020905b815481529060010190602001808311610a0057829003601f168201915b505050505081565b80600003610a69576040517f2d93586c0000000000000000000000000000000000000000000000000000000081526001600482015260248101829052604401610947565b600954600b54339173ffffffffffffffffffffffffffffffffffffffff610100909104811691610a9c911683838661244c565b73ffffffffffffffffffffffffffffffffffffffff82166000908152600c602052604081206002810154909103610b0c5780547fffffffffffffffffffffffff00000000000000000000000000000000000000001673ffffffffffffffffffffffffffffffffffffffff84161781555b42816001018190555083816002016000828254610b2991906131d8565b90915550506040517f2359600c00000000000000000000000000000000000000000000000000000000815273ffffffffffffffffffffffffffffffffffffffff8481166004830152868116602483015260448201869052831690632359600c90606401600060405180830381600087803b158015610ba657600080fd5b505af1158015610bba573d6000803e3d6000fd5b50506040805173ffffffffffffffffffffffffffffffffffffffff8088168252891660208201529081018790524260608201527fed128fa94586dc6952f835aebbb851abae26a553240d766abf93ba2429e22a62925060800190505b60405180910390a15050505050565b600081815b8181101561086157610c62858583818110610c4757610c47613127565b9050602002016020810190610c5c9190612c6a565b336124e7565b600101610c2a565b73ffffffffffffffffffffffffffffffffffffffff8616610ccf576040517f3e1378c100000000000000000000000000000000000000000000000000000000815273ffffffffffffffffffffffffffffffffffffffff87166004820152602401610947565b73ffffffffffffffffffffffffffffffffffffffff86166000908152600160205260408120805491610d00836131eb565b919050558514610d3c576040517f2dc499f600000000000000000000000000000000000000000000000000000000815260040160405180910390fd5b83421115610d7f576040517f4ba2d6f900000000000000000000000000000000000000000000000000000000815260048101859052426024820152604401610947565b604080518082018252600c81527f45504e5320434f4d4d205631000000000000000000000000000000000000000060209182015281517f8cad95687ba82c2ce50e74f7b754645e5117c3a5bec8151c0726d5857980a866818301527f7c232e0a8d7516843ab49a97f72ad251bb744a65be4e5bc6de77904d54673db981840152466060820152306080808301919091528351808303909101815260a0820184528051908301207f8d9aa0830ab50a97d876b6b35a987f5043ee4c983259ae5783c506feee3842c560c083015273ffffffffffffffffffffffffffffffffffffffff8b811660e08401528a16610100830152610120820189905261014080830189905284518084039091018152610160830185528051908401207f190100000000000000000000000000000000000000000000000000000000000061018084015261018283018290526101a2808401829052855180850390910181526101c290930190945281519190920120909190883b1561105b57604080516020810187905280820186905260f888901b7fff000000000000000000000000000000000000000000000000000000000000001660608201528151604181830301815260618201928390527f1626ba7e0000000000000000000000000000000000000000000000000000000090925260009173ffffffffffffffffffffffffffffffffffffffff8c1691631626ba7e91610f9791869190606501613223565b602060405180830381865afa158015610fb4573d6000803e3d6000fd5b505050506040513d601f19601f82011682018060405250810190610fd8919061323c565b90507f1626ba7e000000000000000000000000000000000000000000000000000000007fffffffff00000000000000000000000000000000000000000000000000000000821614611055576040517fd0f006f100000000000000000000000000000000000000000000000000000000815260040160405180910390fd5b50611122565b6040805160008082526020820180845284905260ff891692820192909252606081018790526080810186905260019060a0016020604051602081039080840390855afa1580156110af573d6000803e3d6000fd5b5050506020604051035190508973ffffffffffffffffffffffffffffffffffffffff168173ffffffffffffffffffffffffffffffffffffffff1614611120576040517fbc4057ad00000000000000000000000000000000000000000000000000000000815260040160405180910390fd5b505b61112c8a8a6124e7565b50505050505050505050565b600061114482336124e7565b506001919050565b73ffffffffffffffffffffffffffffffffffffffff86166111b1576040517f3e1378c100000000000000000000000000000000000000000000000000000000815273ffffffffffffffffffffffffffffffffffffffff87166004820152602401610947565b73ffffffffffffffffffffffffffffffffffffffff861660009081526001602052604081208054916111e2836131eb565b91905055851461121e576040517f2dc499f600000000000000000000000000000000000000000000000000000000815260040160405180910390fd5b83421115611261576040517f4ba2d6f900000000000000000000000000000000000000000000000000000000815260048101859052426024820152604401610947565b604080518082018252600c81527f45504e5320434f4d4d205631000000000000000000000000000000000000000060209182015281517f8cad95687ba82c2ce50e74f7b754645e5117c3a5bec8151c0726d5857980a866818301527f7c232e0a8d7516843ab49a97f72ad251bb744a65be4e5bc6de77904d54673db981840152466060820152306080808301919091528351808303909101815260a0820184528051908301207f25283200315ac15e79f5b17ebe844bb8f5facab77bd5c9c8f8d4b592b9949d8960c083015273ffffffffffffffffffffffffffffffffffffffff8b811660e08401528a16610100830152610120820189905261014080830189905284518084039091018152610160830185528051908401207f190100000000000000000000000000000000000000000000000000000000000061018084015261018283018290526101a2808401829052855180850390910181526101c290930190945281519190920120909190883b1561153d57604080516020810187905280820186905260f888901b7fff000000000000000000000000000000000000000000000000000000000000001660608201528151604181830301815260618201928390527f1626ba7e0000000000000000000000000000000000000000000000000000000090925260009173ffffffffffffffffffffffffffffffffffffffff8c1691631626ba7e9161147991869190606501613223565b602060405180830381865afa158015611496573d6000803e3d6000fd5b505050506040513d601f19601f820116820180604052508101906114ba919061323c565b90507f1626ba7e000000000000000000000000000000000000000000000000000000007fffffffff00000000000000000000000000000000000000000000000000000000821614611537576040517fd0f006f100000000000000000000000000000000000000000000000000000000815260040160405180910390fd5b50611604565b6040805160008082526020820180845284905260ff891692820192909252606081018790526080810186905260019060a0016020604051602081039080840390855afa158015611591573d6000803e3d6000fd5b5050506020604051035190508973ffffffffffffffffffffffffffffffffffffffff168173ffffffffffffffffffffffffffffffffffffffff1614611602576040517fbc4057ad00000000000000000000000000000000000000000000000000000000815260040160405180910390fd5b505b61112c8a8a61230b565b60065473ffffffffffffffffffffffffffffffffffffffff16331461165f576040517f06d919f200000000000000000000000000000000000000000000000000000000815260040160405180910390fd5b600980547fffffffffffffffffffffffffffffffffffffffffffffffffffffffffffffff00166001179055565b60065473ffffffffffffffffffffffffffffffffffffffff1633146116dd576040517f06d919f200000000000000000000000000000000000000000000000000000000815260040160405180910390fd5b600b80547fffffffffffffffffffffffff00000000000000000000000000000000000000001673ffffffffffffffffffffffffffffffffffffffff92909216919091179055565b33600081815260046020908152604080832073ffffffffffffffffffffffffffffffffffffffff86168085529083529281902080547fffffffffffffffffffffffffffffffffffffffffffffffffffffffffffffff001690558051938452908301919091527fdccc2d936ded24d2153d2760581a7f0dcb23ec71190c9726b3584cdd700214d491015b60405180910390a150565b60065473ffffffffffffffffffffffffffffffffffffffff163314611809576040517f06d919f200000000000000000000000000000000000000000000000000000000815260040160405180910390fd5b6009805473ffffffffffffffffffffffffffffffffffffffff909216610100027fffffffffffffffffffffff0000000000000000000000000000000000000000ff909216919091179055565b6000611144823361230b565b600954600090610100900473ffffffffffffffffffffffffffffffffffffffff1633146118bc576040517fd86ad9cf000000000000000000000000000000000000000000000000000000008152336004820152602401610947565b6118c683836124e7565b50600192915050565b3373ffffffffffffffffffffffffffffffffffffffff166007547f6bc2285dcf7383bc0c0f37cc28ca4786636941d3a6d3e09c6d6f46f7efa39268600a8460405161191b92919061327e565b60405180910390a350565b600954600090610100900473ffffffffffffffffffffffffffffffffffffffff163314611981576040517fd86ad9cf000000000000000000000000000000000000000000000000000000008152336004820152602401610947565b6118c6838361230b565b600073ffffffffffffffffffffffffffffffffffffffff891615806119d5575073ffffffffffffffffffffffffffffffffffffffff89166000908152600160205260409020548614155b806119df57508442115b156119ec57506000611dd0565b604080518082018252600c81527f45504e5320434f4d4d205631000000000000000000000000000000000000000060209182015281517f8cad95687ba82c2ce50e74f7b754645e5117c3a5bec8151c0726d5857980a866918101919091527f7c232e0a8d7516843ab49a97f72ad251bb744a65be4e5bc6de77904d54673db99181019190915246606082015230608082015260009060a00160405160208183030381529060405280519060200120905060007fa3e12f3a1cbc87b63b39a5ed58d9a2941caba455abcd2a654e7800d7c3a69de28d8d8c8c604051611ad1929190613332565b60408051918290038220602083019590955273ffffffffffffffffffffffffffffffffffffffff9384169082015291166060820152608081019190915260a0810189905260c0810188905260e00160405160208183030381529060405280519060200120905060008282604051602001611b7d9291907f190100000000000000000000000000000000000000000000000000000000000081526002810192909252602282015260420190565b604051602081830303815290604052805190602001209050611b9f8c3b151590565b15611ce657604080516020810188905280820187905260f889901b7fff000000000000000000000000000000000000000000000000000000000000001660608201528151604181830301815260618201928390527f1626ba7e0000000000000000000000000000000000000000000000000000000090925260009173ffffffffffffffffffffffffffffffffffffffff8f1691631626ba7e91611c4791869190606501613223565b602060405180830381865afa158015611c64573d6000803e3d6000fd5b505050506040513d601f19601f82011682018060405250810190611c88919061323c565b90507f1626ba7e000000000000000000000000000000000000000000000000000000007fffffffff00000000000000000000000000000000000000000000000000000000821614611ce0576000945050505050611dd0565b50611d88565b6040805160008082526020820180845284905260ff8a1692820192909252606081018890526080810187905260019060a0016020604051602081039080840390855afa158015611d3a573d6000803e3d6000fd5b5050506020604051035190508c73ffffffffffffffffffffffffffffffffffffffff168173ffffffffffffffffffffffffffffffffffffffff1614611d86576000945050505050611dd0565b505b6000611d978f8f8f8f8f612607565b9050611da48a60016131d8565b73ffffffffffffffffffffffffffffffffffffffff8e1660009081526001602052604090205593505050505b9a9950505050505050505050565b600080611deb85856126f6565b90508015611e62578373ffffffffffffffffffffffffffffffffffffffff168573ffffffffffffffffffffffffffffffffffffffff167fcc2b84a32bce3d060db75a4c0e59bfef192503be5c83bfa5ad79a41d384ff22c85604051611e509190612cf3565b60405180910390a36001915050611e68565b60009150505b9392505050565b60065473ffffffffffffffffffffffffffffffffffffffff163314611ec0576040517f06d919f200000000000000000000000000000000000000000000000000000000815260040160405180910390fd5b600580547fffffffffffffffffffffffff00000000000000000000000000000000000000001673ffffffffffffffffffffffffffffffffffffffff92909216919091179055565b33600081815260046020908152604080832073ffffffffffffffffffffffffffffffffffffffff86168452909152902080547fffffffffffffffffffffffffffffffffffffffffffffffffffffffffffffff00166001179055611f6a90826124e7565b6040805133815273ffffffffffffffffffffffffffffffffffffffff831660208201527f2fd5b26f00131bd8ca0fc556207292b85a6bec241341df82724333227458e63091016117ad565b611fbf84336122b7565b611ff5576040517f02155a6800000000000000000000000000000000000000000000000000000000815260040160405180910390fd5b600061200084612762565b838360405160200161201493929190613342565b604080517fffffffffffffffffffffffffffffffffffffffffffffffffffffffffffffffe08184030181529181523360009081526003602090815282822073ffffffffffffffffffffffffffffffffffffffff8a16835290522090915061207b82826133e3565b507f790dac2f69fa06ffde2a1ba07cccf57910606213ce442099a2ab6ebe3bedc0ad85338684604051610c1694939291906134fd565b7ff0c57e16840df040f15088dc2f81fe391c3923bec73e23a9662efc9c229c6a0080546000919068010000000000000000810460ff16159067ffffffffffffffff1683811580156120ff5750825b905060008267ffffffffffffffff16600114801561211c5750303b155b90508115801561212a575080155b15612161576040517ff92ee8a900000000000000000000000000000000000000000000000000000000815260040160405180910390fd5b84547fffffffffffffffffffffffffffffffffffffffffffffffff000000000000000016600117855583156121c25784547fffffffffffffffffffffffffffffffffffffffffffffff00ffffffffffffffff16680100000000000000001785555b6006805473ffffffffffffffffffffffffffffffffffffffff8a167fffffffffffffffffffffffff00000000000000000000000000000000000000009182168117909255600580549091169091179055600a61221e88826133e3565b50466007556001955083156122885784547fffffffffffffffffffffffffffffffffffffffffffffff00ffffffffffffffff168555604051600181527fc7f505b2f371ae2175ee4913f4499e1f2633a7b5936321eed1cdaeb6115181d29060200160405180910390a15b505050505092915050565b6003602090815260009283526040808420909152908252902080546109a490613156565b73ffffffffffffffffffffffffffffffffffffffff80821660009081526020818152604080832093861683526003840190915281205490919060ff16600103612304576001915050610868565b5092915050565b61231582826122b7565b156124485773ffffffffffffffffffffffffffffffffffffffff8116600090815260208190526040812060028101549091906123539060019061353c565b73ffffffffffffffffffffffffffffffffffffffff8581166000818152600386016020908152604080832080547fffffffffffffffffffffffffffffffffffffffffffffffffffffffffffffff0016905560048801808352818420805488865260058b0180865284872080548a168852938652848720829055835491875290945282852080549488167fffffffffffffffffffffffff0000000000000000000000000000000000000000958616179055849055868452805490921690915560028701859055519394509186169290917f9d3d878d2fb01c43ad7ec7c20d8f5d0dbac4888df940a4edaab4540ccefdc10291a350505b5050565b6040805173ffffffffffffffffffffffffffffffffffffffff85811660248301528416604482015260648082018490528251808303909101815260849091019091526020810180517bffffffffffffffffffffffffffffffffffffffffffffffffffffffff167f23b872dd000000000000000000000000000000000000000000000000000000001790526124e1908590612820565b50505050565b6124f182826122b7565b612448576124fe816128bb565b73ffffffffffffffffffffffffffffffffffffffff808216600090815260208181526040808320600281015494871680855260038201845282852080547fffffffffffffffffffffffffffffffffffffffffffffffffffffffffffffff00166001908117909155600483018552838620879055868652600583019094529190932080547fffffffffffffffffffffffff00000000000000000000000000000000000000001690911790559091906125b69082906131d8565b600283015560405173ffffffffffffffffffffffffffffffffffffffff80851691908616907f5ffe3cc8f1055f172e55be8d832143a6cffb4cb3a56a18bf780fd4112d4cecc790600090a350505050565b60008373ffffffffffffffffffffffffffffffffffffffff168673ffffffffffffffffffffffffffffffffffffffff161480612675575073ffffffffffffffffffffffffffffffffffffffff80871660009081526004602090815260408083209388168352929052205460ff165b156126e9578473ffffffffffffffffffffffffffffffffffffffff168673ffffffffffffffffffffffffffffffffffffffff167fcc2b84a32bce3d060db75a4c0e59bfef192503be5c83bfa5ad79a41d384ff22c85856040516126d992919061354f565b60405180910390a35060016126ed565b5060005b95945050505050565b600073ffffffffffffffffffffffffffffffffffffffff831633148061274c575073ffffffffffffffffffffffffffffffffffffffff8316600090815260046020908152604080832033845290915290205460ff165b1561275957506001610868565b50600092915050565b6060600061276f8361298a565b600101905060008167ffffffffffffffff81111561278f5761278f612df7565b6040519080825280601f01601f1916602001820160405280156127b9576020820181803683370190505b5090508181016020015b7fffffffffffffffffffffffffffffffffffffffffffffffffffffffffffffffff017f3031323334353637383961626364656600000000000000000000000000000000600a86061a8153600a85049450846127c357509392505050565b600061284273ffffffffffffffffffffffffffffffffffffffff841683612a6c565b90508051600014158015612867575080806020019051810190612865919061359c565b155b156128b6576040517f5274afe700000000000000000000000000000000000000000000000000000000815273ffffffffffffffffffffffffffffffffffffffff84166004820152602401610947565b505050565b73ffffffffffffffffffffffffffffffffffffffff811660009081526020819052604090205460ff166129875773ffffffffffffffffffffffffffffffffffffffff81166000818152602081815260408083204360018083019190915581547fffffffffffffffffffffffffffffffffffffffffffffffffffffffffffffff001681179091556008805485526002909352922080547fffffffffffffffffffffffff0000000000000000000000000000000000000000169093179092559054612983916131d8565b6008555b50565b6000807a184f03e93ff9f4daa797ed6e38ed64bf6a1f01000000000000000083106129d3577a184f03e93ff9f4daa797ed6e38ed64bf6a1f010000000000000000830492506040015b6d04ee2d6d415b85acef810000000083106129ff576d04ee2d6d415b85acef8100000000830492506020015b662386f26fc100008310612a1d57662386f26fc10000830492506010015b6305f5e1008310612a35576305f5e100830492506008015b6127108310612a4957612710830492506004015b60648310612a5b576064830492506002015b600a83106108685760010192915050565b6060611e6883836000846000808573ffffffffffffffffffffffffffffffffffffffff168486604051612a9f91906135be565b60006040518083038185875af1925050503d8060008114612adc576040519150601f19603f3d011682016040523d82523d6000602084013e612ae1565b606091505b5091509150612af1868383612afb565b9695505050505050565b606082612b1057612b0b82612b8a565b611e68565b8151158015612b34575073ffffffffffffffffffffffffffffffffffffffff84163b155b15612b83576040517f9996b31500000000000000000000000000000000000000000000000000000000815273ffffffffffffffffffffffffffffffffffffffff85166004820152602401610947565b5080611e68565b805115612b9a5780518082602001fd5b6040517f1425ea4200000000000000000000000000000000000000000000000000000000815260040160405180910390fd5b60008060208385031215612bdf57600080fd5b823567ffffffffffffffff80821115612bf757600080fd5b818501915085601f830112612c0b57600080fd5b813581811115612c1a57600080fd5b8660208260051b8501011115612c2f57600080fd5b60209290920196919550909350505050565b803573ffffffffffffffffffffffffffffffffffffffff81168114612c6557600080fd5b919050565b600060208284031215612c7c57600080fd5b611e6882612c41565b60005b83811015612ca0578181015183820152602001612c88565b50506000910152565b60008151808452612cc1816020860160208601612c85565b601f017fffffffffffffffffffffffffffffffffffffffffffffffffffffffffffffffe0169290920160200192915050565b602081526000611e686020830184612ca9565b60008060408385031215612d1957600080fd5b612d2283612c41565b946020939093013593505050565b803560ff81168114612c6557600080fd5b600080600080600080600060e0888a031215612d5c57600080fd5b612d6588612c41565b9650612d7360208901612c41565b95506040880135945060608801359350612d8f60808901612d30565b925060a0880135915060c0880135905092959891949750929550565b600060208284031215612dbd57600080fd5b5035919050565b60008060408385031215612dd757600080fd5b612de083612c41565b9150612dee60208401612c41565b90509250929050565b7f4e487b7100000000000000000000000000000000000000000000000000000000600052604160045260246000fd5b600067ffffffffffffffff80841115612e4157612e41612df7565b604051601f85017fffffffffffffffffffffffffffffffffffffffffffffffffffffffffffffffe0908116603f01168101908282118183101715612e8757612e87612df7565b81604052809350858152868686011115612ea057600080fd5b858560208301376000602087830101525050509392505050565b600082601f830112612ecb57600080fd5b611e6883833560208501612e26565b600060208284031215612eec57600080fd5b813567ffffffffffffffff811115612f0357600080fd5b612f0f84828501612eba565b949350505050565b60008083601f840112612f2957600080fd5b50813567ffffffffffffffff811115612f4157600080fd5b602083019150836020828501011115612f5957600080fd5b9250929050565b6000806000806000806000806000806101208b8d031215612f8057600080fd5b612f898b612c41565b9950612f9760208c01612c41565b9850612fa560408c01612c41565b975060608b013567ffffffffffffffff811115612fc157600080fd5b612fcd8d828e01612f17565b90985096505060808b0135945060a08b01359350612fed60c08c01612d30565b925060e08b013591506101008b013590509295989b9194979a5092959850565b60008060006060848603121561302257600080fd5b61302b84612c41565b925061303960208501612c41565b9150604084013567ffffffffffffffff81111561305557600080fd5b8401601f8101861361306657600080fd5b61307586823560208401612e26565b9150509250925092565b6000806000806060858703121561309557600080fd5b61309e85612c41565b935060208501359250604085013567ffffffffffffffff8111156130c157600080fd5b6130cd87828801612f17565b95989497509550505050565b600080604083850312156130ec57600080fd5b6130f583612c41565b9150602083013567ffffffffffffffff81111561311157600080fd5b61311d85828601612eba565b9150509250929050565b7f4e487b7100000000000000000000000000000000000000000000000000000000600052603260045260246000fd5b600181811c9082168061316a57607f821691505b6020821081036131a3577f4e487b7100000000000000000000000000000000000000000000000000000000600052602260045260246000fd5b50919050565b7f4e487b7100000000000000000000000000000000000000000000000000000000600052601160045260246000fd5b80820180821115610868576108686131a9565b60007fffffffffffffffffffffffffffffffffffffffffffffffffffffffffffffffff820361321c5761321c6131a9565b5060010190565b828152604060208201526000612f0f6040830184612ca9565b60006020828403121561324e57600080fd5b81517fffffffff0000000000000000000000000000000000000000000000000000000081168114611e6857600080fd5b60408152600080845461329081613156565b80604086015260606001808416600081146132b257600181146132ea5761331b565b7fffffffffffffffffffffffffffffffffffffffffffffffffffffffffffffff008516838901528284151560051b890101955061331b565b8960005260208060002060005b868110156133125781548b82018701529084019082016132f7565b8a018501975050505b505050505082810360208401526126ed8185612ca9565b8183823760009101908152919050565b60008451613354818460208901612c85565b7f2b00000000000000000000000000000000000000000000000000000000000000908301908152838560018301376000930160010192835250909392505050565b601f8211156128b657600081815260208120601f850160051c810160208610156133bc5750805b601f850160051c820191505b818110156133db578281556001016133c8565b505050505050565b815167ffffffffffffffff8111156133fd576133fd612df7565b6134118161340b8454613156565b84613395565b602080601f831160018114613464576000841561342e5750858301515b7fffffffffffffffffffffffffffffffffffffffffffffffffffffffffffffffff600386901b1c1916600185901b1785556133db565b6000858152602081207fffffffffffffffffffffffffffffffffffffffffffffffffffffffffffffffe08616915b828110156134b157888601518255948401946001909101908401613492565b50858210156134ed57878501517fffffffffffffffffffffffffffffffffffffffffffffffffffffffffffffffff600388901b60f8161c191681555b5050505050600190811b01905550565b600073ffffffffffffffffffffffffffffffffffffffff808716835280861660208401525083604083015260806060830152612af16080830184612ca9565b81810381811115610868576108686131a9565b60208152816020820152818360408301376000818301604090810191909152601f9092017fffffffffffffffffffffffffffffffffffffffffffffffffffffffffffffffe0160101919050565b6000602082840312156135ae57600080fd5b81518015158114611e6857600080fd5b600082516135d0818460208701612c85565b919091019291505056fea26469706673582212203319de15779046fc75af4e1747fef08429cabc8ac2f42caf4e84cd967053f20564736f6c63430008140033","linkReferences":{}},"methodIdentifiers":{"DOMAIN_TYPEHASH()":"20606b70","EPNSCoreAddress()":"42564cb4","NAME_HASH()":"04622c2e","PUSH_TOKEN_ADDRESS()":"8cfbc3e0","SEND_NOTIFICATION_TYPEHASH()":"17aeae58","SUBSCRIBE_TYPEHASH()":"e059c6d0","UNSUBSCRIBE_TYPEHASH()":"040e80ed","addDelegate(address)":"e71bdf41","batchSubscribe(address[])":"37a4ebb8","batchUnsubscribe(address[])":"0024be7a","chainID()":"adc879e9","chainName()":"1c93b03a","changeUserChannelSettings(address,uint256,string)":"ed7ee0f6","completeMigration()":"4886f62c","createIncentivizeChatRequest(address,uint256)":"2d57f936","delegatedNotificationSenders(address,address)":"6e0d232c","governance()":"5aa6e675","initialize(address,string)":"f399e22e","isMigrationComplete()":"d7128084","isUserSubscribed(address,address)":"ffb84883","mapAddressUsers(uint256)":"5227dd05","name()":"06fdde03","nonces(address)":"7ecebe00","pushChannelAdmin()":"bd90f815","removeDelegate(address)":"67e7646f","sendNotifBySig(address,address,address,bytes,uint256,uint256,uint8,bytes32,bytes32)":"a0e30b2c","sendNotification(address,address,bytes)":"ba3d69d7","setEPNSCoreAddress(address)":"71fed092","setGovernanceAddress(address)":"cfc16254","setPushTokenAddress(address)":"56aaba49","subscribe(address)":"41a7726a","subscribeBySig(address,address,uint256,uint256,uint8,bytes32,bytes32)":"3f6109fb","subscribeViaCore(address,address)":"73ec8cfb","transferPushChannelAdminControl(address)":"017d5efe","unSubscribeViaCore(address,address)":"92d41a53","unsubscribe(address)":"7262561c","unsubscribeBySig(address,address,uint256,uint256,uint8,bytes32,bytes32)":"44c3bca5","userChatData(address)":"3e5b73c6","userToChannelNotifs(address,address)":"f83c7f77","users(address)":"a87430ba","usersCount()":"6ba13a82","verifyChannelAlias(string)":"7f6c16dc"},"id":3}