{"abi":[{"type":"function","name":"ADD_CHANNEL_MIN_FEES","inputs":[],"outputs":[{"name":"","type":"uint256","internalType":"uint256"}],"stateMutability":"view"},{"type":"function","name":"DOMAIN_TYPEHASH","inputs":[],"outputs":[{"name":"","type":"bytes32","internalType":"bytes32"}],"stateMutability":"view"},{"type":"function","name":"EPNSCoreAddress","inputs":[],"outputs":[{"name":"","type":"address","internalType":"address"}],"stateMutability":"view"},{"type":"function","name":"FEE_AMOUNT","inputs":[],"outputs":[{"name":"","type":"uint256","internalType":"uint256"}],"stateMutability":"view"},{"type":"function","name":"NAME_HASH","inputs":[],"outputs":[{"name":"","type":"bytes32","internalType":"bytes32"}],"stateMutability":"view"},{"type":"function","name":"NTT_MANAGER","inputs":[],"outputs":[{"name":"","type":"address","internalType":"contract INttManager"}],"stateMutability":"view"},{"type":"function","name":"PROTOCOL_POOL_FEE","inputs":[],"outputs":[{"name":"","type":"uint256","internalType":"uint256"}],"stateMutability":"view"},{"type":"function","name":"PUSH_NTT","inputs":[],"outputs":[{"name":"","type":"address","internalType":"contract IERC20"}],"stateMutability":"view"},{"type":"function","name":"PUSH_TOKEN_ADDRESS","inputs":[],"outputs":[{"name":"","type":"address","internalType":"address"}],"stateMutability":"view"},{"type":"function","name":"SEND_NOTIFICATION_TYPEHASH","inputs":[],"outputs":[{"name":"","type":"bytes32","internalType":"bytes32"}],"stateMutability":"view"},{"type":"function","name":"SUBSCRIBE_TYPEHASH","inputs":[],"outputs":[{"name":"","type":"bytes32","internalType":"bytes32"}],"stateMutability":"view"},{"type":"function","name":"UNSUBSCRIBE_TYPEHASH","inputs":[],"outputs":[{"name":"","type":"bytes32","internalType":"bytes32"}],"stateMutability":"view"},{"type":"function","name":"WORMHOLE_RECIPIENT_CHAIN","inputs":[],"outputs":[{"name":"","type":"uint16","internalType":"uint16"}],"stateMutability":"view"},{"type":"function","name":"WORMHOLE_RELAYER","inputs":[],"outputs":[{"name":"","type":"address","internalType":"contract IWormholeRelayer"}],"stateMutability":"view"},{"type":"function","name":"WORMHOLE_TRANSCEIVER","inputs":[],"outputs":[{"name":"","type":"address","internalType":"contract IWormholeTransceiver"}],"stateMutability":"view"},{"type":"function","name":"chainID","inputs":[],"outputs":[{"name":"","type":"uint256","internalType":"uint256"}],"stateMutability":"view"},{"type":"function","name":"chainName","inputs":[],"outputs":[{"name":"","type":"string","internalType":"string"}],"stateMutability":"view"},{"type":"function","name":"delegatedNotificationSenders","inputs":[{"name":"","type":"address","internalType":"address"},{"name":"","type":"address","internalType":"address"}],"outputs":[{"name":"","type":"bool","internalType":"bool"}],"stateMutability":"view"},{"type":"function","name":"governance","inputs":[],"outputs":[{"name":"","type":"address","internalType":"address"}],"stateMutability":"view"},{"type":"function","name":"isMigrationComplete","inputs":[],"outputs":[{"name":"","type":"bool","internalType":"bool"}],"stateMutability":"view"},{"type":"function","name":"mapAddressUsers","inputs":[{"name":"","type":"uint256","internalType":"uint256"}],"outputs":[{"name":"","type":"address","internalType":"address"}],"stateMutability":"view"},{"type":"function","name":"name","inputs":[],"outputs":[{"name":"","type":"string","internalType":"string"}],"stateMutability":"view"},{"type":"function","name":"nonces","inputs":[{"name":"","type":"address","internalType":"address"}],"outputs":[{"name":"","type":"uint256","internalType":"uint256"}],"stateMutability":"view"},{"type":"function","name":"pushChannelAdmin","inputs":[],"outputs":[{"name":"","type":"address","internalType":"address"}],"stateMutability":"view"},{"type":"function","name":"userChatData","inputs":[{"name":"","type":"address","internalType":"address"}],"outputs":[{"name":"requestSender","type":"address","internalType":"address"},{"name":"timestamp","type":"uint256","internalType":"uint256"},{"name":"amountDeposited","type":"uint256","internalType":"uint256"}],"stateMutability":"view"},{"type":"function","name":"userToChannelNotifs","inputs":[{"name":"","type":"address","internalType":"address"},{"name":"","type":"address","internalType":"address"}],"outputs":[{"name":"","type":"string","internalType":"string"}],"stateMutability":"view"},{"type":"function","name":"users","inputs":[{"name":"","type":"address","internalType":"address"}],"outputs":[{"name":"userActivated","type":"bool","internalType":"bool"},{"name":"publicKeyRegistered","type":"bool","internalType":"bool"},{"name":"userStartBlock","type":"uint256","internalType":"uint256"},{"name":"subscribedCount","type":"uint256","internalType":"uint256"}],"stateMutability":"view"},{"type":"function","name":"usersCount","inputs":[],"outputs":[{"name":"","type":"uint256","internalType":"uint256"}],"stateMutability":"view"}],"bytecode":{"object":"0x608060405234801561000f575f80fd5b5061085e8061001d5f395ff3fe608060405234801561000f575f80fd5b50600436106101bb575f3560e01c80637ecebe00116100f3578063bd90f81511610093578063d197413f1161006e578063d197413f146105c8578063d7128084146105e8578063e059c6d0146105f5578063f83c7f771461061c575f80fd5b8063bd90f81514610596578063c175256f146105b6578063cf22d18b146105bf575f80fd5b8063a87430ba116100ce578063a87430ba146104ef578063aab0cab81461054b578063ad5f157414610584578063adc879e91461058d575f80fd5b80637ecebe001461049057806380d4a43a146104af5780638cfbc3e0146104cf575f80fd5b80633e5b73c61161015e5780635aa6e675116101395780635aa6e6751461040a5780636ba13a821461042a5780636cf124f2146104335780636e0d232c14610453575f80fd5b80633e5b73c61461033957806342564cb4146103b05780635227dd05146103d5575f80fd5b80630f1f9cfc116101995780630f1f9cfc1461029e57806317aeae58146102e35780631c93b03a1461030a57806320606b7014610312575f80fd5b8063040e80ed146101bf57806304622c2e146101f957806306fdde0314610255575b5f80fd5b6101e67f25283200315ac15e79f5b17ebe844bb8f5facab77bd5c9c8f8d4b592b9949d8981565b6040519081526020015b60405180910390f35b60408051808201909152600c81527f45504e5320434f4d4d20563100000000000000000000000000000000000000006020909101526101e67f7c232e0a8d7516843ab49a97f72ad251bb744a65be4e5bc6de77904d54673db981565b6102916040518060400160405280600c81526020017f45504e5320434f4d4d205631000000000000000000000000000000000000000081525081565b6040516101f091906106de565b6010546102be9073ffffffffffffffffffffffffffffffffffffffff1681565b60405173ffffffffffffffffffffffffffffffffffffffff90911681526020016101f0565b6101e67fa3e12f3a1cbc87b63b39a5ed58d9a2941caba455abcd2a654e7800d7c3a69de281565b61029161062f565b6101e67f8cad95687ba82c2ce50e74f7b754645e5117c3a5bec8151c0726d5857980a86681565b61037e61034736600461076f565b600c6020525f908152604090208054600182015460029092015473ffffffffffffffffffffffffffffffffffffffff909116919083565b6040805173ffffffffffffffffffffffffffffffffffffffff90941684526020840192909252908201526060016101f0565b6009546102be90610100900473ffffffffffffffffffffffffffffffffffffffff1681565b6102be6103e336600461078f565b60026020525f908152604090205473ffffffffffffffffffffffffffffffffffffffff1681565b6005546102be9073ffffffffffffffffffffffffffffffffffffffff1681565b6101e660085481565b600d546102be9073ffffffffffffffffffffffffffffffffffffffff1681565b6104806104613660046107a6565b600460209081525f928352604080842090915290825290205460ff1681565b60405190151581526020016101f0565b6101e661049e36600461076f565b60016020525f908152604090205481565b600e546102be9073ffffffffffffffffffffffffffffffffffffffff1681565b600b546102be9073ffffffffffffffffffffffffffffffffffffffff1681565b6105296104fd36600461076f565b5f6020819052908152604090208054600182015460029092015460ff8083169361010090930416919084565b60408051941515855292151560208501529183015260608201526080016101f0565b6010546105719074010000000000000000000000000000000000000000900461ffff1681565b60405161ffff90911681526020016101f0565b6101e660125481565b6101e660075481565b6006546102be9073ffffffffffffffffffffffffffffffffffffffff1681565b6101e660115481565b6101e660135481565b600f546102be9073ffffffffffffffffffffffffffffffffffffffff1681565b6009546104809060ff1681565b6101e67f8d9aa0830ab50a97d876b6b35a987f5043ee4c983259ae5783c506feee3842c581565b61029161062a3660046107a6565b6106bb565b600a805461063c906107d7565b80601f0160208091040260200160405190810160405280929190818152602001828054610668906107d7565b80156106b35780601f1061068a576101008083540402835291602001916106b3565b820191905f5260205f20905b81548152906001019060200180831161069657829003601f168201915b505050505081565b600360209081525f92835260408084209091529082529020805461063c906107d7565b5f6020808352835180828501525f5b81811015610709578581018301518582016040015282016106ed565b505f6040828601015260407fffffffffffffffffffffffffffffffffffffffffffffffffffffffffffffffe0601f8301168501019250505092915050565b803573ffffffffffffffffffffffffffffffffffffffff8116811461076a575f80fd5b919050565b5f6020828403121561077f575f80fd5b61078882610747565b9392505050565b5f6020828403121561079f575f80fd5b5035919050565b5f80604083850312156107b7575f80fd5b6107c083610747565b91506107ce60208401610747565b90509250929050565b600181811c908216806107eb57607f821691505b602082108103610822577f4e487b71000000000000000000000000000000000000000000000000000000005f52602260045260245ffd5b5091905056fea26469706673582212202926515036982128ed12c48b2d4f3a20f302ae4080ef68868501522b92f4acb564736f6c63430008140033","linkReferences":{}},"methodIdentifiers":{"ADD_CHANNEL_MIN_FEES()":"c175256f","DOMAIN_TYPEHASH()":"20606b70","EPNSCoreAddress()":"42564cb4","FEE_AMOUNT()":"ad5f1574","NAME_HASH()":"04622c2e","NTT_MANAGER()":"80d4a43a","PROTOCOL_POOL_FEE()":"cf22d18b","PUSH_NTT()":"6cf124f2","PUSH_TOKEN_ADDRESS()":"8cfbc3e0","SEND_NOTIFICATION_TYPEHASH()":"17aeae58","SUBSCRIBE_TYPEHASH()":"e059c6d0","UNSUBSCRIBE_TYPEHASH()":"040e80ed","WORMHOLE_RECIPIENT_CHAIN()":"aab0cab8","WORMHOLE_RELAYER()":"0f1f9cfc","WORMHOLE_TRANSCEIVER()":"d197413f","chainID()":"adc879e9","chainName()":"1c93b03a","delegatedNotificationSenders(address,address)":"6e0d232c","governance()":"5aa6e675","isMigrationComplete()":"d7128084","mapAddressUsers(uint256)":"5227dd05","name()":"06fdde03","nonces(address)":"7ecebe00","pushChannelAdmin()":"bd90f815","userChatData(address)":"3e5b73c6","userToChannelNotifs(address,address)":"f83c7f77","users(address)":"a87430ba","usersCount()":"6ba13a82"},"id":5}