{"abi":[{"type":"function","name":"ADD_CHANNEL_MIN_FEES","inputs":[],"outputs":[{"name":"","type":"uint256","internalType":"uint256"}],"stateMutability":"view"},{"type":"function","name":"CHANNEL_POOL_FUNDS","inputs":[],"outputs":[{"name":"","type":"uint256","internalType":"uint256"}],"stateMutability":"view"},{"type":"function","name":"CREATE_CHANNEL_TYPEHASH","inputs":[],"outputs":[{"name":"","type":"bytes32","internalType":"bytes32"}],"stateMutability":"view"},{"type":"function","name":"DOMAIN_TYPEHASH","inputs":[],"outputs":[{"name":"","type":"bytes32","internalType":"bytes32"}],"stateMutability":"view"},{"type":"function","name":"FEE_AMOUNT","inputs":[],"outputs":[{"name":"","type":"uint256","internalType":"uint256"}],"stateMutability":"view"},{"type":"function","name":"MIN_POOL_CONTRIBUTION","inputs":[],"outputs":[{"name":"","type":"uint256","internalType":"uint256"}],"stateMutability":"view"},{"type":"function","name":"PROTOCOL_POOL_FEES","inputs":[],"outputs":[{"name":"","type":"uint256","internalType":"uint256"}],"stateMutability":"view"},{"type":"function","name":"PUSH_TOKEN_ADDRESS","inputs":[],"outputs":[{"name":"","type":"address","internalType":"address"}],"stateMutability":"view"},{"type":"function","name":"REFERRAL_CODE","inputs":[],"outputs":[{"name":"","type":"uint256","internalType":"uint256"}],"stateMutability":"view"},{"type":"function","name":"UNISWAP_V2_ROUTER","inputs":[],"outputs":[{"name":"","type":"address","internalType":"address"}],"stateMutability":"view"},{"type":"function","name":"WETH_ADDRESS","inputs":[],"outputs":[{"name":"","type":"address","internalType":"address"}],"stateMutability":"view"},{"type":"function","name":"aDaiAddress","inputs":[],"outputs":[{"name":"","type":"address","internalType":"address"}],"stateMutability":"view"},{"type":"function","name":"addPoolFees","inputs":[{"name":"_rewardAmount","type":"uint256","internalType":"uint256"}],"outputs":[],"stateMutability":"nonpayable"},{"type":"function","name":"addSubGraph","inputs":[{"name":"_subGraphData","type":"bytes","internalType":"bytes"}],"outputs":[],"stateMutability":"nonpayable"},{"type":"function","name":"arbitraryReqFees","inputs":[{"name":"","type":"address","internalType":"address"}],"outputs":[{"name":"","type":"uint256","internalType":"uint256"}],"stateMutability":"view"},{"type":"function","name":"batchVerification","inputs":[{"name":"_startIndex","type":"uint256","internalType":"uint256"},{"name":"_endIndex","type":"uint256","internalType":"uint256"},{"name":"_channelList","type":"bytes32[]","internalType":"bytes32[]"}],"outputs":[{"name":"","type":"bool","internalType":"bool"}],"stateMutability":"nonpayable"},{"type":"function","name":"blockChannel","inputs":[{"name":"_channelAddress","type":"bytes32","internalType":"bytes32"}],"outputs":[],"stateMutability":"nonpayable"},{"type":"function","name":"calculateEpochRewards","inputs":[{"name":"_user","type":"address","internalType":"address"},{"name":"_epochId","type":"uint256","internalType":"uint256"}],"outputs":[{"name":"rewards","type":"uint256","internalType":"uint256"}],"stateMutability":"view"},{"type":"function","name":"celebUserFunds","inputs":[{"name":"","type":"address","internalType":"address"}],"outputs":[{"name":"","type":"uint256","internalType":"uint256"}],"stateMutability":"view"},{"type":"function","name":"channelById","inputs":[{"name":"","type":"uint256","internalType":"uint256"}],"outputs":[{"name":"","type":"address","internalType":"address"}],"stateMutability":"view"},{"type":"function","name":"channelInfo","inputs":[{"name":"","type":"bytes32","internalType":"bytes32"}],"outputs":[{"name":"channelType","type":"uint8","internalType":"enum CoreTypes.ChannelType"},{"name":"channelState","type":"uint8","internalType":"uint8"},{"name":"verifiedBy","type":"address","internalType":"address"},{"name":"poolContribution","type":"uint256","internalType":"uint256"},{"name":"channelHistoricalZ","type":"uint256","internalType":"uint256"},{"name":"channelFairShareCount","type":"uint256","internalType":"uint256"},{"name":"channelLastUpdate","type":"uint256","internalType":"uint256"},{"name":"channelStartBlock","type":"uint256","internalType":"uint256"},{"name":"channelUpdateBlock","type":"uint256","internalType":"uint256"},{"name":"channelWeight","type":"uint256","internalType":"uint256"},{"name":"expiryTime","type":"uint256","internalType":"uint256"}],"stateMutability":"view"},{"type":"function","name":"channelNotifSettings","inputs":[{"name":"","type":"address","internalType":"address"}],"outputs":[{"name":"","type":"string","internalType":"string"}],"stateMutability":"view"},{"type":"function","name":"channelUpdateCounter","inputs":[{"name":"","type":"bytes32","internalType":"bytes32"}],"outputs":[{"name":"","type":"uint256","internalType":"uint256"}],"stateMutability":"view"},{"type":"function","name":"channels","inputs":[{"name":"","type":"address","internalType":"address"}],"outputs":[{"name":"channelType","type":"uint8","internalType":"enum CoreTypes.ChannelType"},{"name":"channelState","type":"uint8","internalType":"uint8"},{"name":"verifiedBy","type":"address","internalType":"address"},{"name":"poolContribution","type":"uint256","internalType":"uint256"},{"name":"channelHistoricalZ","type":"uint256","internalType":"uint256"},{"name":"channelFairShareCount","type":"uint256","internalType":"uint256"},{"name":"channelLastUpdate","type":"uint256","internalType":"uint256"},{"name":"channelStartBlock","type":"uint256","internalType":"uint256"},{"name":"channelUpdateBlock","type":"uint256","internalType":"uint256"},{"name":"channelWeight","type":"uint256","internalType":"uint256"},{"name":"expiryTime","type":"uint256","internalType":"uint256"}],"stateMutability":"view"},{"type":"function","name":"channelsCount","inputs":[],"outputs":[{"name":"","type":"uint256","internalType":"uint256"}],"stateMutability":"view"},{"type":"function","name":"claimArbitraryRequestFees","inputs":[{"name":"_amount","type":"uint256","internalType":"uint256"}],"outputs":[],"stateMutability":"nonpayable"},{"type":"function","name":"claimChatIncentives","inputs":[{"name":"_amount","type":"uint256","internalType":"uint256"}],"outputs":[],"stateMutability":"nonpayable"},{"type":"function","name":"createChannelSettings","inputs":[{"name":"_notifOptions","type":"uint256","internalType":"uint256"},{"name":"_notifSettings","type":"string","internalType":"string"},{"name":"_notifDescription","type":"string","internalType":"string"},{"name":"_amountDeposited","type":"uint256","internalType":"uint256"}],"outputs":[],"stateMutability":"nonpayable"},{"type":"function","name":"createChannelWithPUSH","inputs":[{"name":"_channelType","type":"uint8","internalType":"enum CoreTypes.ChannelType"},{"name":"_identity","type":"bytes","internalType":"bytes"},{"name":"_amount","type":"uint256","internalType":"uint256"},{"name":"_channelExpiryTime","type":"uint256","internalType":"uint256"}],"outputs":[],"stateMutability":"nonpayable"},{"type":"function","name":"daiAddress","inputs":[],"outputs":[{"name":"","type":"address","internalType":"address"}],"stateMutability":"view"},{"type":"function","name":"daoHarvestPaginated","inputs":[{"name":"_tillEpoch","type":"uint256","internalType":"uint256"}],"outputs":[],"stateMutability":"nonpayable"},{"type":"function","name":"epnsCommunicator","inputs":[],"outputs":[{"name":"","type":"address","internalType":"address"}],"stateMutability":"view"},{"type":"function","name":"epochDuration","inputs":[],"outputs":[{"name":"","type":"uint256","internalType":"uint256"}],"stateMutability":"view"},{"type":"function","name":"epochRewards","inputs":[{"name":"","type":"uint256","internalType":"uint256"}],"outputs":[{"name":"","type":"uint256","internalType":"uint256"}],"stateMutability":"view"},{"type":"function","name":"epochToTotalStakedWeight","inputs":[{"name":"","type":"uint256","internalType":"uint256"}],"outputs":[{"name":"","type":"uint256","internalType":"uint256"}],"stateMutability":"view"},{"type":"function","name":"feePoolStakingContract","inputs":[],"outputs":[{"name":"","type":"address","internalType":"address"}],"stateMutability":"view"},{"type":"function","name":"genesisEpoch","inputs":[],"outputs":[{"name":"","type":"uint256","internalType":"uint256"}],"stateMutability":"view"},{"type":"function","name":"getChannelVerfication","inputs":[{"name":"_channel","type":"bytes32","internalType":"bytes32"}],"outputs":[{"name":"verificationStatus","type":"uint8","internalType":"uint8"}],"stateMutability":"view"},{"type":"function","name":"governance","inputs":[],"outputs":[{"name":"","type":"address","internalType":"address"}],"stateMutability":"view"},{"type":"function","name":"groupFairShareCount","inputs":[],"outputs":[{"name":"","type":"uint256","internalType":"uint256"}],"stateMutability":"view"},{"type":"function","name":"groupHistoricalZ","inputs":[],"outputs":[{"name":"","type":"uint256","internalType":"uint256"}],"stateMutability":"view"},{"type":"function","name":"groupLastUpdate","inputs":[],"outputs":[{"name":"","type":"uint256","internalType":"uint256"}],"stateMutability":"view"},{"type":"function","name":"groupNormalizedWeight","inputs":[],"outputs":[{"name":"","type":"uint256","internalType":"uint256"}],"stateMutability":"view"},{"type":"function","name":"handleArbitraryRequestData","inputs":[{"name":"feeId","type":"uint8","internalType":"uint8"},{"name":"feePercentage","type":"tuple","internalType":"struct GenericTypes.Percentage","components":[{"name":"percentageNumber","type":"uint256","internalType":"uint256"},{"name":"decimalPlaces","type":"uint256","internalType":"uint256"}]},{"name":"amountRecipient","type":"address","internalType":"address"},{"name":"amount","type":"uint256","internalType":"uint256"}],"outputs":[],"stateMutability":"nonpayable"},{"type":"function","name":"handleChatRequestData","inputs":[{"name":"requestSender","type":"address","internalType":"address"},{"name":"requestReceiver","type":"address","internalType":"address"},{"name":"amount","type":"uint256","internalType":"uint256"}],"outputs":[],"stateMutability":"nonpayable"},{"type":"function","name":"harvestAll","inputs":[],"outputs":[],"stateMutability":"nonpayable"},{"type":"function","name":"harvestPaginated","inputs":[{"name":"_tillEpoch","type":"uint256","internalType":"uint256"}],"outputs":[],"stateMutability":"nonpayable"},{"type":"function","name":"initializeStake","inputs":[],"outputs":[],"stateMutability":"nonpayable"},{"type":"function","name":"isMigrationComplete","inputs":[],"outputs":[{"name":"","type":"bool","internalType":"bool"}],"stateMutability":"view"},{"type":"function","name":"lastEpochRelative","inputs":[{"name":"_from","type":"uint256","internalType":"uint256"},{"name":"_to","type":"uint256","internalType":"uint256"}],"outputs":[{"name":"","type":"uint256","internalType":"uint256"}],"stateMutability":"view"},{"type":"function","name":"lendingPoolProviderAddress","inputs":[],"outputs":[{"name":"","type":"address","internalType":"address"}],"stateMutability":"view"},{"type":"function","name":"migrateAddressToBytes32","inputs":[{"name":"_channels","type":"address[]","internalType":"address[]"}],"outputs":[],"stateMutability":"nonpayable"},{"type":"function","name":"name","inputs":[],"outputs":[{"name":"","type":"string","internalType":"string"}],"stateMutability":"view"},{"type":"function","name":"nonces","inputs":[{"name":"","type":"address","internalType":"address"}],"outputs":[{"name":"","type":"uint256","internalType":"uint256"}],"stateMutability":"view"},{"type":"function","name":"oldChannelUpdateCounter","inputs":[{"name":"","type":"address","internalType":"address"}],"outputs":[{"name":"","type":"uint256","internalType":"uint256"}],"stateMutability":"view"},{"type":"function","name":"pauseContract","inputs":[],"outputs":[],"stateMutability":"nonpayable"},{"type":"function","name":"paused","inputs":[],"outputs":[{"name":"","type":"bool","internalType":"bool"}],"stateMutability":"view"},{"type":"function","name":"previouslySetEpochRewards","inputs":[],"outputs":[{"name":"","type":"uint256","internalType":"uint256"}],"stateMutability":"view"},{"type":"function","name":"processedMessages","inputs":[{"name":"","type":"bytes32","internalType":"bytes32"}],"outputs":[{"name":"","type":"bool","internalType":"bool"}],"stateMutability":"view"},{"type":"function","name":"pushChannelAdmin","inputs":[],"outputs":[{"name":"","type":"address","internalType":"address"}],"stateMutability":"view"},{"type":"function","name":"receiveWormholeMessages","inputs":[{"name":"payload","type":"bytes","internalType":"bytes"},{"name":"","type":"bytes[]","internalType":"bytes[]"},{"name":"sourceAddress","type":"bytes32","internalType":"bytes32"},{"name":"sourceChain","type":"uint16","internalType":"uint16"},{"name":"deliveryHash","type":"bytes32","internalType":"bytes32"}],"outputs":[],"stateMutability":"payable"},{"type":"function","name":"registeredSenders","inputs":[{"name":"","type":"uint16","internalType":"uint16"}],"outputs":[{"name":"","type":"bytes32","internalType":"bytes32"}],"stateMutability":"view"},{"type":"function","name":"setEpnsCommunicatorAddress","inputs":[{"name":"_commAddress","type":"address","internalType":"address"}],"outputs":[],"stateMutability":"nonpayable"},{"type":"function","name":"setFeeAmount","inputs":[{"name":"_newFees","type":"uint256","internalType":"uint256"}],"outputs":[],"stateMutability":"nonpayable"},{"type":"function","name":"setGovernanceAddress","inputs":[{"name":"_governanceAddress","type":"address","internalType":"address"}],"outputs":[],"stateMutability":"nonpayable"},{"type":"function","name":"setMinChannelCreationFees","inputs":[{"name":"_newFees","type":"uint256","internalType":"uint256"}],"outputs":[],"stateMutability":"nonpayable"},{"type":"function","name":"setMinPoolContribution","inputs":[{"name":"_newAmount","type":"uint256","internalType":"uint256"}],"outputs":[],"stateMutability":"nonpayable"},{"type":"function","name":"setRegisteredSender","inputs":[{"name":"sourceChain","type":"uint16","internalType":"uint16"},{"name":"sourceAddress","type":"bytes32","internalType":"bytes32"}],"outputs":[],"stateMutability":"nonpayable"},{"type":"function","name":"setWormholeRelayer","inputs":[{"name":"_wormholeRelayer","type":"address","internalType":"address"}],"outputs":[],"stateMutability":"nonpayable"},{"type":"function","name":"stake","inputs":[{"name":"_amount","type":"uint256","internalType":"uint256"}],"outputs":[],"stateMutability":"nonpayable"},{"type":"function","name":"totalStakedAmount","inputs":[],"outputs":[{"name":"","type":"uint256","internalType":"uint256"}],"stateMutability":"view"},{"type":"function","name":"transferPushChannelAdminControl","inputs":[{"name":"_newAdmin","type":"address","internalType":"address"}],"outputs":[],"stateMutability":"nonpayable"},{"type":"function","name":"unPauseContract","inputs":[],"outputs":[],"stateMutability":"nonpayable"},{"type":"function","name":"unstake","inputs":[],"outputs":[],"stateMutability":"nonpayable"},{"type":"function","name":"unverifyChannel","inputs":[{"name":"_channel","type":"bytes32","internalType":"bytes32"}],"outputs":[],"stateMutability":"nonpayable"},{"type":"function","name":"updateChannelMeta","inputs":[{"name":"_newIdentity","type":"bytes","internalType":"bytes"},{"name":"_amount","type":"uint256","internalType":"uint256"}],"outputs":[],"stateMutability":"nonpayable"},{"type":"function","name":"updateChannelState","inputs":[{"name":"_amount","type":"uint256","internalType":"uint256"}],"outputs":[],"stateMutability":"nonpayable"},{"type":"function","name":"userFeesInfo","inputs":[{"name":"","type":"address","internalType":"address"}],"outputs":[{"name":"stakedAmount","type":"uint256","internalType":"uint256"},{"name":"stakedWeight","type":"uint256","internalType":"uint256"},{"name":"lastStakedBlock","type":"uint256","internalType":"uint256"},{"name":"lastClaimedBlock","type":"uint256","internalType":"uint256"}],"stateMutability":"view"},{"type":"function","name":"usersRewardsClaimed","inputs":[{"name":"","type":"address","internalType":"address"}],"outputs":[{"name":"","type":"uint256","internalType":"uint256"}],"stateMutability":"view"},{"type":"function","name":"verifyChannel","inputs":[{"name":"_channel","type":"bytes32","internalType":"bytes32"}],"outputs":[],"stateMutability":"nonpayable"},{"type":"function","name":"wormholeRelayer","inputs":[],"outputs":[{"name":"","type":"address","internalType":"address"}],"stateMutability":"view"},{"type":"event","name":"AddChannel","inputs":[{"name":"channel","type":"bytes32","indexed":true,"internalType":"bytes32"},{"name":"channelType","type":"uint8","indexed":true,"internalType":"enum CoreTypes.ChannelType"},{"name":"identity","type":"bytes","indexed":false,"internalType":"bytes"}],"anonymous":false},{"type":"event","name":"AddSubGraph","inputs":[{"name":"channel","type":"address","indexed":true,"internalType":"address"},{"name":"_subGraphData","type":"bytes","indexed":false,"internalType":"bytes"}],"anonymous":false},{"type":"event","name":"ArbitraryRequest","inputs":[{"name":"sender","type":"bytes32","indexed":true,"internalType":"bytes32"},{"name":"receiver","type":"address","indexed":true,"internalType":"address"},{"name":"amountDeposited","type":"uint256","indexed":false,"internalType":"uint256"},{"name":"feePercent","type":"tuple","indexed":false,"internalType":"struct GenericTypes.Percentage","components":[{"name":"percentageNumber","type":"uint256","internalType":"uint256"},{"name":"decimalPlaces","type":"uint256","internalType":"uint256"}]},{"name":"feeId","type":"uint256","indexed":true,"internalType":"uint256"}],"anonymous":false},{"type":"event","name":"ArbitraryRequestFeesClaimed","inputs":[{"name":"user","type":"address","indexed":true,"internalType":"address"},{"name":"amountClaimed","type":"uint256","indexed":true,"internalType":"uint256"}],"anonymous":false},{"type":"event","name":"ChannelBlocked","inputs":[{"name":"channel","type":"bytes32","indexed":true,"internalType":"bytes32"}],"anonymous":false},{"type":"event","name":"ChannelCreated","inputs":[{"name":"channel","type":"bytes32","indexed":true,"internalType":"bytes32"},{"name":"channelType","type":"uint8","indexed":true,"internalType":"enum CoreTypes.ChannelType"},{"name":"identity","type":"bytes","indexed":false,"internalType":"bytes"}],"anonymous":false},{"type":"event","name":"ChannelNotifcationSettingsAdded","inputs":[{"name":"_channel","type":"bytes32","indexed":false,"internalType":"bytes32"},{"name":"totalNotifOptions","type":"uint256","indexed":false,"internalType":"uint256"},{"name":"_notifSettings","type":"string","indexed":false,"internalType":"string"},{"name":"_notifDescription","type":"string","indexed":false,"internalType":"string"}],"anonymous":false},{"type":"event","name":"ChannelStateUpdate","inputs":[{"name":"channel","type":"bytes32","indexed":true,"internalType":"bytes32"},{"name":"amountRefunded","type":"uint256","indexed":false,"internalType":"uint256"},{"name":"amountDeposited","type":"uint256","indexed":false,"internalType":"uint256"}],"anonymous":false},{"type":"event","name":"ChannelVerificationRevoked","inputs":[{"name":"channel","type":"bytes32","indexed":true,"internalType":"bytes32"},{"name":"revoker","type":"address","indexed":true,"internalType":"address"}],"anonymous":false},{"type":"event","name":"ChannelVerified","inputs":[{"name":"channel","type":"bytes32","indexed":true,"internalType":"bytes32"},{"name":"verifier","type":"address","indexed":true,"internalType":"address"}],"anonymous":false},{"type":"event","name":"ChatIncentiveClaimed","inputs":[{"name":"user","type":"address","indexed":true,"internalType":"address"},{"name":"amountClaimed","type":"uint256","indexed":true,"internalType":"uint256"}],"anonymous":false},{"type":"event","name":"IncentivizeChatReqReceived","inputs":[{"name":"requestSender","type":"bytes32","indexed":false,"internalType":"bytes32"},{"name":"requestReceiver","type":"address","indexed":false,"internalType":"address"},{"name":"amountForReqReceiver","type":"uint256","indexed":false,"internalType":"uint256"},{"name":"feePoolAmount","type":"uint256","indexed":false,"internalType":"uint256"},{"name":"timestamp","type":"uint256","indexed":false,"internalType":"uint256"}],"anonymous":false},{"type":"event","name":"Initialized","inputs":[{"name":"version","type":"uint8","indexed":false,"internalType":"uint8"}],"anonymous":false},{"type":"event","name":"Paused","inputs":[{"name":"account","type":"address","indexed":false,"internalType":"address"}],"anonymous":false},{"type":"event","name":"RewardsHarvested","inputs":[{"name":"user","type":"address","indexed":true,"internalType":"address"},{"name":"rewardAmount","type":"uint256","indexed":true,"internalType":"uint256"},{"name":"fromEpoch","type":"uint256","indexed":false,"internalType":"uint256"},{"name":"tillEpoch","type":"uint256","indexed":false,"internalType":"uint256"}],"anonymous":false},{"type":"event","name":"Staked","inputs":[{"name":"user","type":"address","indexed":true,"internalType":"address"},{"name":"amountStaked","type":"uint256","indexed":true,"internalType":"uint256"}],"anonymous":false},{"type":"event","name":"Unpaused","inputs":[{"name":"account","type":"address","indexed":false,"internalType":"address"}],"anonymous":false},{"type":"event","name":"Unstaked","inputs":[{"name":"user","type":"address","indexed":true,"internalType":"address"},{"name":"amountUnstaked","type":"uint256","indexed":true,"internalType":"uint256"}],"anonymous":false},{"type":"event","name":"UpdateChannel","inputs":[{"name":"channel","type":"bytes32","indexed":true,"internalType":"bytes32"},{"name":"identity","type":"bytes","indexed":false,"internalType":"bytes"},{"name":"amountDeposited","type":"uint256","indexed":true,"internalType":"uint256"}],"anonymous":false},{"type":"error","name":"CallerNotAdmin","inputs":[]},{"type":"error","name":"CallerNotGovernance","inputs":[]},{"type":"error","name":"Core_InvalidChannel","inputs":[]},{"type":"error","name":"Core_InvalidChannelType","inputs":[]},{"type":"error","name":"Core_InvalidExpiryTime","inputs":[]},{"type":"error","name":"InvalidArg_LessThanExpected","inputs":[{"name":"min_threshold","type":"uint256","internalType":"uint256"},{"name":"actual_value","type":"uint256","internalType":"uint256"}]},{"type":"error","name":"InvalidArg_MoreThanExpected","inputs":[{"name":"max_threshold","type":"uint256","internalType":"uint256"},{"name":"actual_value","type":"uint256","internalType":"uint256"}]},{"type":"error","name":"InvalidArgument_WrongAddress","inputs":[{"name":"user","type":"address","internalType":"address"}]},{"type":"error","name":"Payload_Duplicacy_Error","inputs":[]},{"type":"error","name":"PushStaking_InvalidEpoch_LessThanExpected","inputs":[]},{"type":"error","name":"UnauthorizedCaller","inputs":[{"name":"caller","type":"address","internalType":"address"}]}],"bytecode":{"object":"0x608060405234801561000f575f80fd5b506152498061001d5f395ff3fe60806040526004361061055e575f3560e01c80638b749ce5116102c4578063c88680821161017b578063dd12d68b116100dc578063ec50b8e011610092578063f029c18c1161006d578063f029c18c146110c3578063f8ac833614611104578063fc6b859b14611137575f80fd5b8063ec50b8e014611066578063eea0b5c514611085578063f01948c1146110a4575f80fd5b8063dfdbd358116100c2578063dfdbd35814611013578063e159378d14611032578063e9f3659814611051575f80fd5b8063dd12d68b14610fc3578063dec4ae0614610fe2575f80fd5b8063d8c4402111610131578063daa947f511610117578063daa947f514610f70578063dc4a4e4e14610f85578063dc4e357114610fa4575f80fd5b8063d8c4402114610f19578063da25b72514610f44575f80fd5b8063cfc1625411610161578063cfc1625414610ebd578063d487e30514610edc578063d712808414610efb575f80fd5b8063c886808214610e7f578063cdc43a4b14610e9e575f80fd5b8063af809d0911610225578063bc680515116101db578063c048799b116101c1578063c048799b14610e37578063c175256f14610e56578063c208381d14610e6b575f80fd5b8063bc68051514610dd9578063bd90f81514610e05575f80fd5b8063b70e6be61161020b578063b70e6be614610d91578063b84c884b14610da6578063bac1520314610dc5575f80fd5b8063af809d0914610d3b578063afe40c9114610d66575f80fd5b8063a694fc3a1161027a578063a90521c311610260578063a90521c314610ce8578063aa7847da14610d07578063ad5f157414610d26575f80fd5b8063a694fc3a14610c9d578063a82ed9ec14610cbc575f80fd5b80638ed955b9116102aa5780638ed955b914610c14578063952b333114610c28578063954e5f6114610c3d575f80fd5b80638b749ce514610b615780638cfbc3e014610be8575f80fd5b80634def9ef21161041857806368a8e5b61161037957806379f0371d1161032f5780637ecebe00116103155780637ecebe0014610ae95780638779904e14610b1457806388ba16ab14610b33575f80fd5b806379f0371d14610a1d5780637dce34f714610a48575f80fd5b80636d1b6d461161035f5780636d1b6d46146109b35780636e73483b146109df5780636f973500146109fe575f80fd5b806368a8e5b61461097f5780636b39268014610994575f80fd5b806353905089116103ce578063567e98f9116103b4578063567e98f91461091b5780635aa6e675146109305780635c975abb1461095c575f80fd5b806353905089146108db57806355091fe514610906575f80fd5b8063529dca32116103fe578063529dca321461088a5780635371dc421461089d57806353807e2f146108bc575f80fd5b80634def9ef21461085f5780634ff0876a14610874575f80fd5b80632359600c116104c257806336eedd54116104785780633ecaec8b1161045e5780633ecaec8b146107f5578063439766ce146108205780634dc47d3414610834575f80fd5b806336eedd54146107ab57806337a1b782146107ca575f80fd5b80632c387275116104a85780632c387275146107565780632def6620146107825780633583849a14610796575f80fd5b80632359600c14610722578063270dd8a014610741575f80fd5b80630ded773111610517578063185e1a6a116104fd578063185e1a6a146106b15780631d9311ab146106d057806320606b70146106ef575f80fd5b80630ded773114610679578063110e01a81461069c575f80fd5b8063040141e511610547578063040141e5146105a257806306fdde03146105f8578063098b20411461064d575f80fd5b8063017d5efe14610562578063035d42b014610583575b5f80fd5b34801561056d575f80fd5b5061058161057c36600461448d565b611163565b005b34801561058e575f80fd5b5061058161059d3660046144af565b61124f565b3480156105ad575f80fd5b506008546105ce9073ffffffffffffffffffffffffffffffffffffffff1681565b60405173ffffffffffffffffffffffffffffffffffffffff90911681526020015b60405180910390f35b348015610603575f80fd5b506106406040518060400160405280600c81526020017f45504e535f434f52455f5632000000000000000000000000000000000000000081525081565b6040516105ef9190614531565b348015610658575f80fd5b506007546105ce9073ffffffffffffffffffffffffffffffffffffffff1681565b348015610684575f80fd5b5061068e60105481565b6040519081526020016105ef565b3480156106a7575f80fd5b5061068e60125481565b3480156106bc575f80fd5b506105816106cb3660046144af565b611285565b3480156106db575f80fd5b506105816106ea366004614551565b6112c5565b3480156106fa575f80fd5b5061068e7f2ce9970b46ea1bff1d78000ab660407f50a9499f6742ac914d6e6aa91d8c8b2481565b34801561072d575f80fd5b5061058161073c3660046145c6565b61130b565b34801561074c575f80fd5b5061068e60155481565b348015610761575f80fd5b506006546105ce9073ffffffffffffffffffffffffffffffffffffffff1681565b34801561078d575f80fd5b50610581611384565b3480156107a1575f80fd5b5061068e600d5481565b3480156107b6575f80fd5b506105816107c53660046144af565b6114dd565b3480156107d5575f80fd5b5061068e6107e436600461448d565b607f6020525f908152604090205481565b348015610800575f80fd5b5061068e61080f3660046144af565b60876020525f908152604090205481565b34801561082b575f80fd5b506105816115a2565b34801561083f575f80fd5b5061068e61084e3660046144af565b60856020525f908152604090205481565b34801561086a575f80fd5b5061068e60185481565b34801561087f575f80fd5b5061068e62024b0481565b610581610898366004614756565b6115b4565b3480156108a8575f80fd5b506105816108b73660046144af565b611991565b3480156108c7575f80fd5b506105816108d63660046144af565b611ac2565b3480156108e6575f80fd5b5061068e6108f536600461448d565b608d6020525f908152604090205481565b348015610911575f80fd5b5061068e600f5481565b348015610926575f80fd5b5061068e60835481565b34801561093b575f80fd5b506005546105ce9073ffffffffffffffffffffffffffffffffffffffff1681565b348015610967575f80fd5b50604b5460ff165b60405190151581526020016105ef565b34801561098a575f80fd5b5061068e60115481565b34801561099f575f80fd5b506105816109ae3660046144af565b611b6d565b3480156109be575f80fd5b50600c546105ce9073ffffffffffffffffffffffffffffffffffffffff1681565b3480156109ea575f80fd5b506105816109f93660046144af565b611c06565b348015610a09575f80fd5b50610581610a183660046144af565b611d69565b348015610a28575f80fd5b5061068e610a37366004614856565b608c6020525f908152604090205481565b348015610a53575f80fd5b50610ad2610a6236600461448d565b600160208190525f918252604090912080549181015460028201546003830154600484015460058501546006860154600787015460089097015460ff808a16996101008104909116986201000090910473ffffffffffffffffffffffffffffffffffffffff16979695949392918b565b6040516105ef9b9a9998979695949392919061489c565b348015610af4575f80fd5b5061068e610b0336600461448d565b607d6020525f908152604090205481565b348015610b1f575f80fd5b50610581610b2e36600461497f565b611e53565b348015610b3e575f80fd5b5061096f610b4d3660046144af565b608b6020525f908152604090205460ff1681565b348015610b6c575f80fd5b50610ad2610b7b3660046144af565b608e6020525f908152604090208054600182015460028301546003840154600485015460058601546006870154600788015460089098015460ff808916996101008a049091169862010000900473ffffffffffffffffffffffffffffffffffffffff16979695949392918b565b348015610bf3575f80fd5b50600b546105ce9073ffffffffffffffffffffffffffffffffffffffff1681565b348015610c1f575f80fd5b50610581611eb0565b348015610c33575f80fd5b5061068e60845481565b348015610c48575f80fd5b50610c7d610c5736600461448d565b60866020525f908152604090208054600182015460028301546003909301549192909184565b6040805194855260208501939093529183015260608201526080016105ef565b348015610ca8575f80fd5b50610581610cb73660046144af565b611ed4565b348015610cc7575f80fd5b50600a546105ce9073ffffffffffffffffffffffffffffffffffffffff1681565b348015610cf3575f80fd5b50610581610d023660046149ca565b611f0d565b348015610d12575f80fd5b50610581610d21366004614a6d565b611fe6565b348015610d31575f80fd5b5061068e60175481565b348015610d46575f80fd5b5061068e610d5536600461448d565b60886020525f908152604090205481565b348015610d71575f80fd5b5061068e610d803660046144af565b608f6020525f908152604090205481565b348015610d9c575f80fd5b5061068e60805481565b348015610db1575f80fd5b5061096f610dc0366004614aa0565b612339565b348015610dd0575f80fd5b50610581612383565b348015610de4575f80fd5b506089546105ce9073ffffffffffffffffffffffffffffffffffffffff1681565b348015610e10575f80fd5b506004546105ce9062010000900473ffffffffffffffffffffffffffffffffffffffff1681565b348015610e42575f80fd5b5061068e610e51366004614aef565b612393565b348015610e61575f80fd5b5061068e60165481565b348015610e76575f80fd5b50610581612404565b348015610e8a575f80fd5b50610581610e99366004614b0f565b612489565b348015610ea9575f80fd5b50610581610eb83660046144af565b6124f9565b348015610ec8575f80fd5b50610581610ed736600461448d565b6125d2565b348015610ee7575f80fd5b50610581610ef63660046144af565b612621565b348015610f06575f80fd5b5060045461096f90610100900460ff1681565b348015610f24575f80fd5b5061068e610f3336600461448d565b607e6020525f908152604090205481565b348015610f4f575f80fd5b50608a546105ce9073ffffffffffffffffffffffffffffffffffffffff1681565b348015610f7b575f80fd5b5061068e60135481565b348015610f90575f80fd5b5061068e610f9f366004614b57565b61265a565b348015610faf575f80fd5b50610581610fbe3660046144af565b6126b5565b348015610fce575f80fd5b50610581610fdd366004614b81565b612705565b348015610fed575f80fd5b50611001610ffc3660046144af565b612723565b60405160ff90911681526020016105ef565b34801561101e575f80fd5b5061058161102d36600461448d565b61282d565b34801561103d575f80fd5b5061058161104c36600461448d565b61287c565b34801561105c575f80fd5b5061068e60145481565b348015611071575f80fd5b506105816110803660046144af565b6128cb565b348015611090575f80fd5b5061064061109f36600461448d565b612930565b3480156110af575f80fd5b506105816110be366004614b9b565b6129c7565b3480156110ce575f80fd5b506105ce6110dd3660046144af565b60026020525f908152604090205473ffffffffffffffffffffffffffffffffffffffff1681565b34801561110f575f80fd5b5061068e7f0eb0b7c1f0e1a4ef47cef3c68abdb1aaaa449bede7fde99a8d0ee0952ce817e981565b348015611142575f80fd5b506009546105ce9073ffffffffffffffffffffffffffffffffffffffff1681565b61116b612ac0565b73ffffffffffffffffffffffffffffffffffffffff811615806111ae575060045473ffffffffffffffffffffffffffffffffffffffff8281166201000090920416145b15611202576040517f3e1378c100000000000000000000000000000000000000000000000000000000815273ffffffffffffffffffffffffffffffffffffffff821660048201526024015b60405180910390fd5b6004805473ffffffffffffffffffffffffffffffffffffffff90921662010000027fffffffffffffffffffff0000000000000000000000000000000000000000ffff909216919091179055565b5f61125a3383612b17565b600b549091506112819073ffffffffffffffffffffffffffffffffffffffff163383612d82565b5050565b61128d612e56565b5f6112983083612b17565b600554600b549192506112819173ffffffffffffffffffffffffffffffffffffffff908116911683612d82565b600b546112ea9073ffffffffffffffffffffffffffffffffffffffff16333084612ea7565b61130533856112fe36879003870187614c17565b8585612f05565b50505050565b60095473ffffffffffffffffffffffffffffffffffffffff16331461135e576040517fd86ad9cf0000000000000000000000000000000000000000000000000000000081523360048201526024016111f9565b61137f73ffffffffffffffffffffffffffffffffffffffff84168383612fe1565b505050565b335f908152608660205260409020600201546113a49062024b0490614c74565b43116113dc576040517f2c44f48000000000000000000000000000000000000000000000000000000000815260040160405180910390fd5b335f908152608660205260408120549003611425576040517fd86ad9cf0000000000000000000000000000000000000000000000000000000081523360048201526024016111f9565b61142d611eb0565b335f81815260866020526040902054600b5490916114629173ffffffffffffffffffffffffffffffffffffffff169083612d82565b335f81815260866020526040902060019081015461148092916130a8565b335f908152608660205260408120818155600101819055608380548392906114a9908490614c87565b9091555050604051819033907f0f5bb82176feb1b5e747e28471aa92156a04d9f3ab9f45f28e2d704232b93f75905f90a350565b335f908152608d602052604090205481811015611530576040517f308eac4d00000000000000000000000000000000000000000000000000000000815260048101829052602481018390526044016111f9565b61153a8282614c87565b335f818152608d6020526040902091909155600b546115729173ffffffffffffffffffffffffffffffffffffffff9091169084612d82565b604051829033907f6563bbaa4e1f56d63b529376f2327d04791716c1abf9d01750ad62c1f7c4d682905f90a35050565b6115aa612ac0565b6115b261329d565b565b61ffff82165f908152608c6020526040902054829084908114611633576040517f08c379a000000000000000000000000000000000000000000000000000000000815260206004820152601560248201527f4e6f7420726567697374657265642073656e646572000000000000000000000060448201526064016111f9565b61163b613322565b5f838152608b602052604090205460ff1615611683576040517fac8afec600000000000000000000000000000000000000000000000000000000815260040160405180910390fd5b5f805f808a80602001905181019061169b9190614cdc565b929650909450925090505f8460078111156116b8576116b861486f565b03611738575f805f858060200190518101906116d49190614d3c565b9250925092508260058111156116ec576116ec61486f565b847f7f3722bfccefb0b4adb7400b93732bd081ca66740f912f6be4277230dfd68c518460405161171c9190614531565b60405180910390a361173084848784613373565b50505061194f565b600184600781111561174c5761174c61486f565b03611779575f838060200190518101906117669190614d92565b9050611773828285612fe1565b5061194f565b600384600781111561178d5761178d61486f565b036117bc575f805f858060200190518101906117a99190614da9565b9250925092506117308484878585613581565b60078460078111156117d0576117d061486f565b036117f7575f838060200190518101906117ea9190614e11565b9050611773828285613603565b600684600781111561180b5761180b61486f565b03611847575f838060200190518101906118259190614e43565b5f838152608e602052604090209091506118408383836136f1565b505061194f565b600584600781111561185b5761185b61486f565b0361186f5761186a81836138ec565b61194f565b60028460078111156118835761188361486f565b036118b8575f805f8580602001905181019061189f9190614e5e565b9250925092506117308484846118b28590565b89612f05565b60048460078111156118cc576118cc61486f565b036118ed578160155f8282546118e29190614c74565b9091555061194f9050565b6040517f08c379a000000000000000000000000000000000000000000000000000000000815260206004820152601560248201527f496e76616c69642046756e6374696f6e2054797065000000000000000000000060448201526064016111f9565b5050505f9384525050608b602052506040902080547fffffffffffffffffffffffffffffffffffffffffffffffffffffffffffffff0016600117905550505050565b61199a816139db565b5f6119a433612723565b90508060ff165f036119e4576040517fd86ad9cf0000000000000000000000000000000000000000000000000000000081523360048201526024016111f9565b5f6119ee83612723565b905060ff81161580611a1d575060045462010000900473ffffffffffffffffffffffffffffffffffffffff1633145b611a53576040517f4052a4ad00000000000000000000000000000000000000000000000000000000815260040160405180910390fd5b5f838152608e602052604080822080547fffffffffffffffffffff0000000000000000000000000000000000000000ffff1633620100008102919091179091559051909185917f2d4c06003e2f9a4ede1755dd1dab6676e513adaba8fa9affcbfd6583b1c859d39190a3505050565b611aca613a2e565b335f818152608e602052604090208054610100900460ff16600203611b6257601654831015611b33576016546040517f2d93586c0000000000000000000000000000000000000000000000000000000081526004810191909152602481018490526044016111f9565b600b54611b589073ffffffffffffffffffffffffffffffffffffffff16333086612ea7565b61137f82846138ec565b61137f8233836136f1565b611b75612e56565b805f03611bb8576040517f2d93586c00000000000000000000000000000000000000000000000000000000815260016004820152602481018290526044016111f9565b6016548110611c01576016546040517f308eac4d0000000000000000000000000000000000000000000000000000000081526004810191909152602481018290526044016111f9565b601755565b611c0e613a2e565b611c16612e56565b5f818152608e6020526040902054610100900460ff1660031480611c4d57505f818152608e6020526040902054610100900460ff16155b15611c84576040517f4052a4ad00000000000000000000000000000000000000000000000000000000815260040160405180910390fd5b6018545f828152608e602052604081206001810154909190611ca7908490614c87565b905080601454611cb79190614c87565b601455601554611cc8908290614c74565b601555600e545f908490611cdc9082614ed9565b611ce69190614ef0565b90506001600f54611cf79190614c87565b600f5582547fffffffffffffffffffffffffffffffffffffffffffffffffffffffffffff00ff16610300178355600783018190554360068401556001830184905560405185907fdb5aa5132056e0f7fe530c612ee5341d3ece536c9f6db1f81c355d829b938950905f90a25050505050565b5f818152608e602052604090205462010000900473ffffffffffffffffffffffffffffffffffffffff16331480611dbd575060045462010000900473ffffffffffffffffffffffffffffffffffffffff1633145b611df3576040517f06d919f200000000000000000000000000000000000000000000000000000000815260040160405180910390fd5b5f818152608e602052604080822080547fffffffffffffffffffff0000000000000000000000000000000000000000ffff16905551339183917fdbe8716a20339414408f1c4bca0037005ea92e3beb22c5d42fa785850434feba9190a350565b611e5c336139db565b3373ffffffffffffffffffffffffffffffffffffffff167f3c6f586adc28bd6371da8f4f7a15d49e8350b80e99cb596d4268805db193cc198383604051611ea4929190614f28565b60405180910390a25050565b5f611ebd60805443612393565b90505f61125a33611ecf600185614c87565b612b17565b611ede3382613a9b565b604051819033907f9e71bc8eea02a63969f509818f2dafb9254532904319f9dbda79b67bd34a5f3d905f90a350565b611f15613a2e565b601654821015611f5f576016546040517f2d93586c0000000000000000000000000000000000000000000000000000000081526004810191909152602481018390526044016111f9565b600b543390611f869073ffffffffffffffffffffffffffffffffffffffff16823086612ea7565b856005811115611f9857611f9861486f565b817f7f3722bfccefb0b4adb7400b93732bd081ca66740f912f6be4277230dfd68c518787604051611fca929190614f28565b60405180910390a3611fde81878585613373565b505050505050565b611fee613bda565b611ff6612ac0565b5f5b8181101561137f575f60015f85858581811061201657612016614f74565b905060200201602081019061202b919061448d565b73ffffffffffffffffffffffffffffffffffffffff168152602081019190915260409081015f20815161016081019092528054829060ff1660058111156120745761207461486f565b60058111156120855761208561486f565b8152815461010080820460ff1660208401526201000090910473ffffffffffffffffffffffffffffffffffffffff1660408301526001830154606083015260028301546080830152600383015460a0830152600483015460c0830152600583015460e083015260068301549082015260078201546101208201526008909101546101409091015290505f61215285858581811061212457612124614f74565b9050602002016020810190612139919061448d565b73ffffffffffffffffffffffffffffffffffffffff1690565b5f818152608e6020526040902083518154929350849282907fffffffffffffffffffffffffffffffffffffffffffffffffffffffffffffff001660018360058111156121a0576121a061486f565b02179055506020820151815460408401517fffffffffffffffffffff000000000000000000000000000000000000000000ff90911661010060ff90931683027fffffffffffffffffffff0000000000000000000000000000000000000000ffff16176201000073ffffffffffffffffffffffffffffffffffffffff9092169190910217825560608301516001808401919091556080840151600284015560a0840151600384015560c0840151600484015560e084015160058401559083015160068301556101208301516007830155610140909201516008909101555f86868681811061228f5761228f614f74565b90506020020160208101906122a4919061448d565b73ffffffffffffffffffffffffffffffffffffffff16815260208101919091526040015f90812080547fffffffffffffffffffff00000000000000000000000000000000000000000000168155600181018290556002810182905560038101829055600481018290556005810182905560068101829055600781018290556008015550612332905081614fa1565b9050611ff8565b5f612342612ac0565b845b848110156123755761236d84848381811061236157612361614f74565b90506020020135611991565b600101612344565b50600190505b949350505050565b61238b612ac0565b6115b2613c46565b5f828210156123d8576040517f2d93586c00000000000000000000000000000000000000000000000000000000815260048101849052602481018390526044016111f9565b62024b046123e68484614c87565b6123f09190614ef0565b6123fb906001614c74565b90505b92915050565b6080541561246e576040517f08c379a000000000000000000000000000000000000000000000000000000000815260206004820152601360248201527f416c726561647920496e697469616c697a65640000000000000000000000000060448201526064016111f9565b4360808190556081556115b230670de0b6b3a7640000613a9b565b612491613a2e565b600b5433906124b89073ffffffffffffffffffffffffffffffffffffffff16823085612ea7565b6113058185858080601f0160208091040260200160405190810160405280939291908181526020018383808284375f92019190915250879250613603915050565b335f9081526088602052604090205481111561255c57335f90815260886020526040908190205490517f308eac4d0000000000000000000000000000000000000000000000000000000081526004810191909152602481018290526044016111f9565b335f908152608860205260408120805483929061257a908490614c87565b9091555050600b546125a39073ffffffffffffffffffffffffffffffffffffffff163383612d82565b604051819033907f2230358eceb5a0a4628b45edd28b2a8cbeb1811be034efa5f1c9af7e3f3efa7e905f90a350565b6125da612ac0565b600580547fffffffffffffffffffffffff00000000000000000000000000000000000000001673ffffffffffffffffffffffffffffffffffffffff92909216919091179055565b600b546126469073ffffffffffffffffffffffffffffffffffffffff16333084612ea7565b806015546126549190614c74565b60155550565b5f81815260876020908152604080832054608583528184205473ffffffffffffffffffffffffffffffffffffffff87168552608684528285208686526004019093529083205490916126ab91614ed9565b6123fb9190614ef0565b6126bd612e56565b805f03612700576040517f2d93586c00000000000000000000000000000000000000000000000000000000815260016004820152602481018290526044016111f9565b601855565b61270d612ac0565b61ffff9091165f908152608c6020526040902055565b5f818152608e602052604081205460045473ffffffffffffffffffffffffffffffffffffffff620100009283900481169284920416821480612782575060045462010000900473ffffffffffffffffffffffffffffffffffffffff1684145b156127905760019250612826565b5b806128265773ffffffffffffffffffffffffffffffffffffffff82166127bc57505f91506001612791565b60045473ffffffffffffffffffffffffffffffffffffffff620100009091048116908316036127f15750600291506001612791565b73ffffffffffffffffffffffffffffffffffffffff9182165f908152608e602052604090205462010000900490911690612791565b5050919050565b612835612ac0565b600980547fffffffffffffffffffffffff00000000000000000000000000000000000000001673ffffffffffffffffffffffffffffffffffffffff92909216919091179055565b612884612ac0565b608a80547fffffffffffffffffffffffff00000000000000000000000000000000000000001673ffffffffffffffffffffffffffffffffffffffff92909216919091179055565b6128d3612e56565b5f6017546018546128e49190614c74565b90508082101561292a576040517f2d93586c00000000000000000000000000000000000000000000000000000000815260048101829052602481018390526044016111f9565b50601655565b60036020525f90815260409020805461294890614fd8565b80601f016020809104026020016040519081016040528092919081815260200182805461297490614fd8565b80156129bf5780601f10612996576101008083540402835291602001916129bf565b820191905f5260205f20905b8154815290600101906020018083116129a257829003601f168201915b505050505081565b6129d0336139db565b601654811015612a1a576016546040517f2d93586c0000000000000000000000000000000000000000000000000000000081526004810191909152602481018290526044016111f9565b600b54612a3f9073ffffffffffffffffffffffffffffffffffffffff16333084612ea7565b5f339050612ab781888489898080601f0160208091040260200160405190810160405280939291908181526020018383808284375f9201919091525050604080516020601f8d018190048102820181019092528b815292508b91508a90819084018382808284375f9201919091525061358192505050565b50505050505050565b60045462010000900473ffffffffffffffffffffffffffffffffffffffff1633146115b2576040517f06d919f200000000000000000000000000000000000000000000000000000000815260040160405180910390fd5b600b546040517ff18365d900000000000000000000000000000000000000000000000000000000815273ffffffffffffffffffffffffffffffffffffffff84811660048301525f92169063f18365d9906024015f604051808303815f87803b158015612b81575f80fd5b505af1158015612b93573d5f803e3d5ffd5b50505050612ba2835f806130a8565b5f612baf60805443612393565b60805473ffffffffffffffffffffffffffffffffffffffff86165f9081526086602052604081206003015492935091612be89190612393565b9050838211612c23576040517f2c44f48000000000000000000000000000000000000000000000000000000000815260040160405180910390fd5b80841015612c67576040517f2d93586c00000000000000000000000000000000000000000000000000000000815260048101829052602481018590526044016111f9565b805b848111612c9d575f612c7b878361265a565b9050612c878186614c74565b9450508080612c9590614fa1565b915050612c69565b5073ffffffffffffffffffffffffffffffffffffffff85165f908152607f6020526040902054612cce908490614c74565b73ffffffffffffffffffffffffffffffffffffffff86165f908152607f6020526040812091909155612d0362024b0486614ed9565b608054612d109190614c74565b73ffffffffffffffffffffffffffffffffffffffff87165f81815260866020908152604091829020600301849055815186815290810189905292935086927f57f92f16fa09c9e4bb565a3d9d987c04877f97eb9067730674bb415730aaa652910160405180910390a350505092915050565b60405173ffffffffffffffffffffffffffffffffffffffff831660248201526044810182905261137f9084907fa9059cbb00000000000000000000000000000000000000000000000000000000906064015b604080517fffffffffffffffffffffffffffffffffffffffffffffffffffffffffffffffe08184030181529190526020810180517bffffffffffffffffffffffffffffffffffffffffffffffffffffffff167fffffffff0000000000000000000000000000000000000000000000000000000090931692909217909152613c9d565b60055473ffffffffffffffffffffffffffffffffffffffff1633146115b2576040517ff2be30fb00000000000000000000000000000000000000000000000000000000815260040160405180910390fd5b60405173ffffffffffffffffffffffffffffffffffffffff808516602483015283166044820152606481018290526113059085907f23b872dd0000000000000000000000000000000000000000000000000000000090608401612dd4565b5f612f108285613daa565b90508060155f828254612f239190614c74565b90915550612f3390508183614c87565b73ffffffffffffffffffffffffffffffffffffffff84165f908152608d602052604081208054909190612f67908490614c74565b925050819055508460ff168373ffffffffffffffffffffffffffffffffffffffff16877fae6a726df42847c6ad97d7d7a0d5d72d5c0727964bf41b64898693e3b182cca88588604051612fd192919091825280516020808401919091520151604082015260600190565b60405180910390a4505050505050565b6017545f612fef8284614c87565b73ffffffffffffffffffffffffffffffffffffffff85165f90815260886020526040812080549293508392909190613028908490614c74565b909155505060155461303b908390614c74565b6015556040805186815273ffffffffffffffffffffffffffffffffffffffff86166020820152908101829052606081018390524260808201527f0e2c42abd67913eb2dbf86de37ed984eaa9b48d4f4a3e68ccd431d055e54c4a99060a00160405180910390a15050505050565b5f6130b560805443612393565b90506130c2838284613e55565b73ffffffffffffffffffffffffffffffffffffffff84165f90815260866020526040812060010154908190036131215773ffffffffffffffffffffffffffffffffffffffff85165f908152608660205260409020600101849055613264565b60805473ffffffffffffffffffffffffffffffffffffffff86165f90815260866020526040812060020154909161315791612393565b90508083036131ab57836131745761316f8583614c74565b61317e565b61317e8583614c87565b73ffffffffffffffffffffffffffffffffffffffff87165f90815260866020526040902060010155613262565b805b838111613260578381146131f55773ffffffffffffffffffffffffffffffffffffffff87165f908152608660209081526040808320848452600401909152902083905561324e565b84613209576132048684614c74565b613213565b6132138684614c87565b73ffffffffffffffffffffffffffffffffffffffff88165f908152608660209081526040808320600181018590558584526004019091529020555b8061325881614fa1565b9150506131ad565b505b505b83156132965773ffffffffffffffffffffffffffffffffffffffff85165f908152608660205260409020436002909101555b5050505050565b6132a5613a2e565b604b80547fffffffffffffffffffffffffffffffffffffffffffffffffffffffffffffff001660011790557f62e78cea01bee320cd4e420270b5ea74000d11b0c9f74754ebdbfc544b05a2586132f83390565b60405173ffffffffffffffffffffffffffffffffffffffff909116815260200160405180910390a1565b608a5473ffffffffffffffffffffffffffffffffffffffff1633146115b2576040517f06d919f200000000000000000000000000000000000000000000000000000000815260040160405180910390fd5b5f848152608e6020526040902054610100900460ff16156133c0576040517f4052a4ad00000000000000000000000000000000000000000000000000000000815260040160405180910390fd5b60028360058111156133d4576133d461486f565b60ff16101561340f576040517f43376f5100000000000000000000000000000000000000000000000000000000815260040160405180910390fd5b60048360058111156134235761342361486f565b0361347557428111613461576040517f52743ef000000000000000000000000000000000000000000000000000000000815260040160405180910390fd5b5f848152608e602052604090206008018190555b6017545f6134838285614c87565b9050806014546134939190614c74565b6014556015546134a4908390614c74565b601555601854600e545f91906134ba9084614ed9565b6134c49190614ef0565b5f888152608e6020526040902080546101007fffffffffffffffffffffffffffffffffffffffffffffffffffffffffffff00ff821681178355600180840187905593945089937fffffffffffffffffffffffffffffffffffffffffffffffffffffffffffff000090921617908360058111156135425761354261486f565b02179055505f878152608e6020526040902043600582018190556006820155600701819055600f54613575906001614c74565b600f5550505050505050565b8260155461358f9190614c74565b6015555f61359c85614028565b836040516020016135ae929190615029565b60405160208183030381529060405290507eceb37a3f432e740acc0a640f3c6c9e2287f23b28bde169dcfcfa8629b86585868683856040516135f39493929190615080565b60405180910390a1505050505050565b61360c836139db565b5f838152608f6020526040812054613625906001614c74565b90505f816016546136369190614ed9565b90508083101561367c576040517f2d93586c00000000000000000000000000000000000000000000000000000000815260048101829052602481018490526044016111f9565b8260155461368a9190614c74565b6015555f858152608f60209081526040808320859055608e909152908190204360069091015551839086907f68ad6e227c6ddb8f0f065281bf0b34895ac9061c8cf29ff70fa12b259ac702c9906136e2908890614531565b60405180910390a35050505050565b8054610100900460ff1660018114613735576040517f4052a4ad00000000000000000000000000000000000000000000000000000000815260040160405180910390fd5b6018545f6004845460ff1660058111156137515761375161486f565b146137be578184600101546137669190614c87565b90505f82600e54846137789190614ed9565b6137829190614ef0565b85547fffffffffffffffffffffffffffffffffffffffffffffffffffffffffffff00ff166102001786556007860155506001840182905561387d565b428460080154106137fb576040517f4052a4ad00000000000000000000000000000000000000000000000000000000815260040160405180910390fd5b836001015490506001600f546138119190614c87565b600f555f868152608e6020526040812080547fffffffffffffffffffff0000000000000000000000000000000000000000000016815560018101829055600281018290556003810182905560048101829055600581018290556006810182905560078101829055600801555b604080518281525f602082015287917f603a6781e748375d7213e5a189375efc45670d2852e1e26176ebc18ae07f0e64910160405180910390a2806014546138c59190614c87565b601455600b54611fde9073ffffffffffffffffffffffffffffffffffffffff168683612d82565b5f828152608e6020526040812060175490916139088285614c87565b9050806014546139189190614c74565b601455601554613929908390614c74565b60155560018301545f9061393e908390614c74565b90505f601854600e54836139529190614ed9565b61395c9190614ef0565b85547fffffffffffffffffffffffffffffffffffffffffffffffffffffffffffff00ff166101001786556001860183905560078601819055604080515f81526020810189905291925088917f603a6781e748375d7213e5a189375efc45670d2852e1e26176ebc18ae07f0e64910160405180910390a250505050505050565b5f818152608e602052604090205460ff61010090910416600114613a2b576040517f4052a4ad00000000000000000000000000000000000000000000000000000000815260040160405180910390fd5b50565b604b5460ff16156115b2576040517f08c379a000000000000000000000000000000000000000000000000000000000815260206004820152601060248201527f5061757361626c653a207061757365640000000000000000000000000000000060448201526064016111f9565b5f613aa860805443612393565b90505f613ab88262024b04614ed9565b608054613ac59190614c74565b90505f613ad38585846140e4565b600b54909150613afb9073ffffffffffffffffffffffffffffffffffffffff16333087612ea7565b73ffffffffffffffffffffffffffffffffffffffff85165f90815260866020526040902054613b2b908590614c74565b73ffffffffffffffffffffffffffffffffffffffff86165f9081526086602052604090209081556003015415613b885773ffffffffffffffffffffffffffffffffffffffff85165f90815260866020526040902060030154613b8c565b6080545b73ffffffffffffffffffffffffffffffffffffffff86165f9081526086602052604081206003019190915560838054869290613bc9908490614c74565b90915550613296905085825f6130a8565b604b5460ff166115b2576040517f08c379a000000000000000000000000000000000000000000000000000000000815260206004820152601460248201527f5061757361626c653a206e6f742070617573656400000000000000000000000060448201526064016111f9565b613c4e613bda565b604b80547fffffffffffffffffffffffffffffffffffffffffffffffffffffffffffffff001690557f5db9ee0a495bf2e6ff9c91a7834c1ba4fdd244a5e8aa4e537bd38aeae4b073aa336132f8565b5f613cfe826040518060400160405280602081526020017f5361666545524332303a206c6f772d6c6576656c2063616c6c206661696c65648152508573ffffffffffffffffffffffffffffffffffffffff1661418a9092919063ffffffff16565b905080515f1480613d1e575080806020019051810190613d1e91906150b0565b61137f576040517f08c379a000000000000000000000000000000000000000000000000000000000815260206004820152602a60248201527f5361666545524332303a204552433230206f7065726174696f6e20646964206e60448201527f6f7420737563636565640000000000000000000000000000000000000000000060648201526084016111f9565b5f808260200151600a613dbd91906151ed565b9050613dca816064614ed9565b83511115613e34576040517f08c379a000000000000000000000000000000000000000000000000000000000815260206004820152601760248201527f50657263656e746167652065786365656473203130302500000000000000000060448201526064016111f9565b613e3f816064614ed9565b8351613e4b9086614ed9565b61237b9190614ef0565b5f613e64608054608154612393565b905080831180613e745750826001145b15613f07575f608454601554613e8a9190614c87565b90505f613e978386614c87565b90506001811115613ed7578160855f613eb1600189614c87565b81526020019081526020015f205f828254613ecc9190614c74565b90915550613efa9050565b5f8581526085602052604081208054849290613ef4908490614c74565b90915550505b5050436081556015546084555b6082541580613f17575082608254145b15613f6b5781613f3f575f83815260876020526040902054613f3a908590614c74565b613f58565b5f83815260876020526040902054613f58908590614c87565b5f84815260876020526040902055614020565b5f6082546001613f7b9190614c74565b90505b613f89600185614c87565b8111613fce575f818152608760205260408120549003613fbc576082545f90815260876020526040808220548383529120555b80613fc681614fa1565b915050613f7e565b5081613ff5576082545f90815260876020526040902054613ff0908590614c74565b614011565b6082545f90815260876020526040902054614011908590614c87565b5f848152608760205260409020555b505060825550565b60605f61403483614198565b60010190505f8167ffffffffffffffff81111561405357614053614604565b6040519080825280601f01601f19166020018201604052801561407d576020820181803683370190505b5090508181016020015b7fffffffffffffffffffffffffffffffffffffffffffffffffffffffffffffffff017f3031323334353637383961626364656600000000000000000000000000000000600a86061a8153600a850494508461408757509392505050565b600b546040517f51b0718000000000000000000000000000000000000000000000000000000000815273ffffffffffffffffffffffffffffffffffffffff85811660048301525f9216906351b0718090602401602060405180830381865afa158015614152573d5f803e3d5ffd5b505050506040513d601f19601f820116820180604052508101906141769190614d92565b6141809083614c87565b61237b9084614ed9565b606061237b84845f85614279565b5f807a184f03e93ff9f4daa797ed6e38ed64bf6a1f01000000000000000083106141e0577a184f03e93ff9f4daa797ed6e38ed64bf6a1f010000000000000000830492506040015b6d04ee2d6d415b85acef8100000000831061420c576d04ee2d6d415b85acef8100000000830492506020015b662386f26fc10000831061422a57662386f26fc10000830492506010015b6305f5e1008310614242576305f5e100830492506008015b612710831061425657612710830492506004015b60648310614268576064830492506002015b600a83106123fe5760010192915050565b60608247101561430b576040517f08c379a000000000000000000000000000000000000000000000000000000000815260206004820152602660248201527f416464726573733a20696e73756666696369656e742062616c616e636520666f60448201527f722063616c6c000000000000000000000000000000000000000000000000000060648201526084016111f9565b5f808673ffffffffffffffffffffffffffffffffffffffff16858760405161433391906151f8565b5f6040518083038185875af1925050503d805f811461436d576040519150601f19603f3d011682016040523d82523d5f602084013e614372565b606091505b50915091506143838783838761438e565b979650505050505050565b606083156144235782515f0361441c5773ffffffffffffffffffffffffffffffffffffffff85163b61441c576040517f08c379a000000000000000000000000000000000000000000000000000000000815260206004820152601d60248201527f416464726573733a2063616c6c20746f206e6f6e2d636f6e747261637400000060448201526064016111f9565b508161237b565b61237b83838151156144385781518083602001fd5b806040517f08c379a00000000000000000000000000000000000000000000000000000000081526004016111f99190614531565b73ffffffffffffffffffffffffffffffffffffffff81168114613a2b575f80fd5b5f6020828403121561449d575f80fd5b81356144a88161446c565b9392505050565b5f602082840312156144bf575f80fd5b5035919050565b5f5b838110156144e05781810151838201526020016144c8565b50505f910152565b5f81518084526144ff8160208601602086016144c6565b601f017fffffffffffffffffffffffffffffffffffffffffffffffffffffffffffffffe0169290920160200192915050565b602081525f6123fb60208301846144e8565b60ff81168114613a2b575f80fd5b5f805f8084860360a0811215614565575f80fd5b853561457081614543565b945060407fffffffffffffffffffffffffffffffffffffffffffffffffffffffffffffffe0820112156145a1575f80fd5b5060208501925060608501356145b68161446c565b9396929550929360800135925050565b5f805f606084860312156145d8575f80fd5b83356145e38161446c565b925060208401356145f38161446c565b929592945050506040919091013590565b7f4e487b71000000000000000000000000000000000000000000000000000000005f52604160045260245ffd5b6040805190810167ffffffffffffffff8111828210171561465457614654614604565b60405290565b604051601f82017fffffffffffffffffffffffffffffffffffffffffffffffffffffffffffffffe016810167ffffffffffffffff811182821017156146a1576146a1614604565b604052919050565b5f67ffffffffffffffff8211156146c2576146c2614604565b50601f017fffffffffffffffffffffffffffffffffffffffffffffffffffffffffffffffe01660200190565b5f82601f8301126146fd575f80fd5b813561471061470b826146a9565b61465a565b818152846020838601011115614724575f80fd5b816020850160208301375f918101602001919091529392505050565b803561ffff81168114614751575f80fd5b919050565b5f805f805f60a0868803121561476a575f80fd5b853567ffffffffffffffff80821115614781575f80fd5b61478d89838a016146ee565b96506020915081880135818111156147a3575f80fd5b8801601f81018a136147b3575f80fd5b8035828111156147c5576147c5614604565b8060051b6147d485820161465a565b918252828101850191858101908d8411156147ed575f80fd5b86850192505b838310156148285782358681111561480a575f8081fd5b6148188f89838901016146ee565b83525091860191908601906147f3565b809a50505050505050506040860135925061484560608701614740565b949793965091946080013592915050565b5f60208284031215614866575f80fd5b6123fb82614740565b7f4e487b71000000000000000000000000000000000000000000000000000000005f52602160045260245ffd5b610160810160068d106148d6577f4e487b71000000000000000000000000000000000000000000000000000000005f52602160045260245ffd5b9b815260ff9a909a1660208b015273ffffffffffffffffffffffffffffffffffffffff9890981660408a01526060890196909652608088019490945260a087019290925260c086015260e08501526101008401526101208301526101409091015290565b5f8083601f84011261494a575f80fd5b50813567ffffffffffffffff811115614961575f80fd5b602083019150836020828501011115614978575f80fd5b9250929050565b5f8060208385031215614990575f80fd5b823567ffffffffffffffff8111156149a6575f80fd5b6149b28582860161493a565b90969095509350505050565b60068110613a2b575f80fd5b5f805f805f608086880312156149de575f80fd5b85356149e9816149be565b9450602086013567ffffffffffffffff811115614a04575f80fd5b614a108882890161493a565b9699909850959660408101359660609091013595509350505050565b5f8083601f840112614a3c575f80fd5b50813567ffffffffffffffff811115614a53575f80fd5b6020830191508360208260051b8501011115614978575f80fd5b5f8060208385031215614a7e575f80fd5b823567ffffffffffffffff811115614a94575f80fd5b6149b285828601614a2c565b5f805f8060608587031215614ab3575f80fd5b8435935060208501359250604085013567ffffffffffffffff811115614ad7575f80fd5b614ae387828801614a2c565b95989497509550505050565b5f8060408385031215614b00575f80fd5b50508035926020909101359150565b5f805f60408486031215614b21575f80fd5b833567ffffffffffffffff811115614b37575f80fd5b614b438682870161493a565b909790965060209590950135949350505050565b5f8060408385031215614b68575f80fd5b8235614b738161446c565b946020939093013593505050565b5f8060408385031215614b92575f80fd5b614b7383614740565b5f805f805f8060808789031215614bb0575f80fd5b86359550602087013567ffffffffffffffff80821115614bce575f80fd5b614bda8a838b0161493a565b90975095506040890135915080821115614bf2575f80fd5b50614bff89828a0161493a565b979a9699509497949695606090950135949350505050565b5f60408284031215614c27575f80fd5b614c2f614631565b82358152602083013560208201528091505092915050565b7f4e487b71000000000000000000000000000000000000000000000000000000005f52601160045260245ffd5b808201808211156123fe576123fe614c47565b818103818111156123fe576123fe614c47565b5f82601f830112614ca9575f80fd5b8151614cb761470b826146a9565b818152846020838601011115614ccb575f80fd5b61237b8260208301602087016144c6565b5f805f8060808587031215614cef575f80fd5b845160088110614cfd575f80fd5b602086015190945067ffffffffffffffff811115614d19575f80fd5b614d2587828801614c9a565b604087015160609097015195989097509350505050565b5f805f60608486031215614d4e575f80fd5b8351614d59816149be565b602085015190935067ffffffffffffffff811115614d75575f80fd5b614d8186828701614c9a565b925050604084015190509250925092565b5f60208284031215614da2575f80fd5b5051919050565b5f805f60608486031215614dbb575f80fd5b83519250602084015167ffffffffffffffff80821115614dd9575f80fd5b614de587838801614c9a565b93506040860151915080821115614dfa575f80fd5b50614e0786828701614c9a565b9150509250925092565b5f60208284031215614e21575f80fd5b815167ffffffffffffffff811115614e37575f80fd5b61237b84828501614c9a565b5f60208284031215614e53575f80fd5b81516144a88161446c565b5f805f8385036080811215614e71575f80fd5b8451614e7c81614543565b935060407fffffffffffffffffffffffffffffffffffffffffffffffffffffffffffffffe082011215614ead575f80fd5b50614eb6614631565b602085015181526040850151602082015280925050606084015190509250925092565b80820281158282048414176123fe576123fe614c47565b5f82614f23577f4e487b71000000000000000000000000000000000000000000000000000000005f52601260045260245ffd5b500490565b60208152816020820152818360408301375f818301604090810191909152601f9092017fffffffffffffffffffffffffffffffffffffffffffffffffffffffffffffffe0160101919050565b7f4e487b71000000000000000000000000000000000000000000000000000000005f52603260045260245ffd5b5f7fffffffffffffffffffffffffffffffffffffffffffffffffffffffffffffffff8203614fd157614fd1614c47565b5060010190565b600181811c90821680614fec57607f821691505b602082108103615023577f4e487b71000000000000000000000000000000000000000000000000000000005f52602260045260245ffd5b50919050565b5f835161503a8184602088016144c6565b7f2b0000000000000000000000000000000000000000000000000000000000000090830190815283516150748160018401602088016144c6565b01600101949350505050565b848152836020820152608060408201525f61509e60808301856144e8565b828103606084015261438381856144e8565b5f602082840312156150c0575f80fd5b815180151581146144a8575f80fd5b600181815b8085111561512857817fffffffffffffffffffffffffffffffffffffffffffffffffffffffffffffffff0482111561510e5761510e614c47565b8085161561511b57918102915b93841c93908002906150d4565b509250929050565b5f8261513e575060016123fe565b8161514a57505f6123fe565b8160018114615160576002811461516a57615186565b60019150506123fe565b60ff84111561517b5761517b614c47565b50506001821b6123fe565b5060208310610133831016604e8410600b84101617156151a9575081810a6123fe565b6151b383836150cf565b807fffffffffffffffffffffffffffffffffffffffffffffffffffffffffffffffff048211156151e5576151e5614c47565b029392505050565b5f6123fb8383615130565b5f82516152098184602087016144c6565b919091019291505056fea26469706673582212202e3c662a8111e52a825e08375ef2bc53f7ecbe5f9420b1fd32a3e73fe4382ef364736f6c63430008140033","linkReferences":{}},"methodIdentifiers":{"ADD_CHANNEL_MIN_FEES()":"c175256f","CHANNEL_POOL_FUNDS()":"e9f36598","CREATE_CHANNEL_TYPEHASH()":"f8ac8336","DOMAIN_TYPEHASH()":"20606b70","FEE_AMOUNT()":"ad5f1574","MIN_POOL_CONTRIBUTION()":"4def9ef2","PROTOCOL_POOL_FEES()":"270dd8a0","PUSH_TOKEN_ADDRESS()":"8cfbc3e0","REFERRAL_CODE()":"3583849a","UNISWAP_V2_ROUTER()":"a82ed9ec","WETH_ADDRESS()":"040141e5","aDaiAddress()":"098b2041","addPoolFees(uint256)":"d487e305","addSubGraph(bytes)":"8779904e","arbitraryReqFees(address)":"53905089","batchVerification(uint256,uint256,bytes32[])":"b84c884b","blockChannel(bytes32)":"6e73483b","calculateEpochRewards(address,uint256)":"dc4a4e4e","celebUserFunds(address)":"af809d09","channelById(uint256)":"f029c18c","channelInfo(bytes32)":"8b749ce5","channelNotifSettings(address)":"eea0b5c5","channelUpdateCounter(bytes32)":"afe40c91","channels(address)":"7dce34f7","channelsCount()":"55091fe5","claimArbitraryRequestFees(uint256)":"36eedd54","claimChatIncentives(uint256)":"cdc43a4b","createChannelSettings(uint256,string,string,uint256)":"f01948c1","createChannelWithPUSH(uint8,bytes,uint256,uint256)":"a90521c3","daiAddress()":"2c387275","daoHarvestPaginated(uint256)":"185e1a6a","epnsCommunicator()":"fc6b859b","epochDuration()":"4ff0876a","epochRewards(uint256)":"4dc47d34","epochToTotalStakedWeight(uint256)":"3ecaec8b","feePoolStakingContract()":"bc680515","genesisEpoch()":"b70e6be6","getChannelVerfication(bytes32)":"dec4ae06","governance()":"5aa6e675","groupFairShareCount()":"daa947f5","groupHistoricalZ()":"68a8e5b6","groupLastUpdate()":"110e01a8","groupNormalizedWeight()":"0ded7731","handleArbitraryRequestData(uint8,(uint256,uint256),address,uint256)":"1d9311ab","handleChatRequestData(address,address,uint256)":"2359600c","harvestAll()":"8ed955b9","harvestPaginated(uint256)":"035d42b0","initializeStake()":"c208381d","isMigrationComplete()":"d7128084","lastEpochRelative(uint256,uint256)":"c048799b","lendingPoolProviderAddress()":"6d1b6d46","migrateAddressToBytes32(address[])":"aa7847da","name()":"06fdde03","nonces(address)":"7ecebe00","oldChannelUpdateCounter(address)":"d8c44021","pauseContract()":"439766ce","paused()":"5c975abb","previouslySetEpochRewards()":"952b3331","processedMessages(bytes32)":"88ba16ab","pushChannelAdmin()":"bd90f815","receiveWormholeMessages(bytes,bytes[],bytes32,uint16,bytes32)":"529dca32","registeredSenders(uint16)":"79f0371d","setEpnsCommunicatorAddress(address)":"dfdbd358","setFeeAmount(uint256)":"6b392680","setGovernanceAddress(address)":"cfc16254","setMinChannelCreationFees(uint256)":"ec50b8e0","setMinPoolContribution(uint256)":"dc4e3571","setRegisteredSender(uint16,bytes32)":"dd12d68b","setWormholeRelayer(address)":"e159378d","stake(uint256)":"a694fc3a","totalStakedAmount()":"567e98f9","transferPushChannelAdminControl(address)":"017d5efe","unPauseContract()":"bac15203","unstake()":"2def6620","unverifyChannel(bytes32)":"6f973500","updateChannelMeta(bytes,uint256)":"c8868082","updateChannelState(uint256)":"53807e2f","userFeesInfo(address)":"954e5f61","usersRewardsClaimed(address)":"37a1b782","verifyChannel(bytes32)":"5371dc42","wormholeRelayer()":"da25b725"},"id":11}