{
  "_format": "hh-sol-artifact-1",
  "contractName": "EPNSStagingV2",
  "sourceName": "contracts/EPNS_StagingV2.sol",
  "abi": [
    {
      "anonymous": false,
      "inputs": [
        {
          "indexed": true,
          "internalType": "address",
          "name": "channel",
          "type": "address"
        },
        {
          "indexed": true,
          "internalType": "enum EPNSStagingV2.ChannelType",
          "name": "channelType",
          "type": "uint8"
        },
        {
          "indexed": false,
          "internalType": "bytes",
          "name": "identity",
          "type": "bytes"
        }
      ],
      "name": "AddChannel",
      "type": "event"
    },
    {
      "anonymous": false,
      "inputs": [
        {
          "indexed": true,
          "internalType": "address",
          "name": "channel",
          "type": "address"
        }
      ],
      "name": "DeactivateChannel",
      "type": "event"
    },
    {
      "anonymous": false,
      "inputs": [
        {
          "indexed": true,
          "internalType": "address",
          "name": "donator",
          "type": "address"
        },
        {
          "indexed": false,
          "internalType": "uint256",
          "name": "amt",
          "type": "uint256"
        }
      ],
      "name": "Donation",
      "type": "event"
    },
    {
      "anonymous": false,
      "inputs": [
        {
          "indexed": true,
          "internalType": "address",
          "name": "user",
          "type": "address"
        },
        {
          "indexed": true,
          "internalType": "uint256",
          "name": "amount",
          "type": "uint256"
        }
      ],
      "name": "InterestClaimed",
      "type": "event"
    },
    {
      "anonymous": false,
      "inputs": [
        {
          "indexed": true,
          "internalType": "address",
          "name": "owner",
          "type": "address"
        },
        {
          "indexed": false,
          "internalType": "bytes",
          "name": "publickey",
          "type": "bytes"
        }
      ],
      "name": "PublicKeyRegistered",
      "type": "event"
    },
    {
      "anonymous": false,
      "inputs": [
        {
          "indexed": true,
          "internalType": "address",
          "name": "channel",
          "type": "address"
        },
        {
          "indexed": true,
          "internalType": "address",
          "name": "recipient",
          "type": "address"
        },
        {
          "indexed": false,
          "internalType": "bytes",
          "name": "identity",
          "type": "bytes"
        }
      ],
      "name": "SendNotification",
      "type": "event"
    },
    {
      "anonymous": false,
      "inputs": [
        {
          "indexed": true,
          "internalType": "address",
          "name": "channel",
          "type": "address"
        },
        {
          "indexed": true,
          "internalType": "address",
          "name": "user",
          "type": "address"
        }
      ],
      "name": "Subscribe",
      "type": "event"
    },
    {
      "anonymous": false,
      "inputs": [
        {
          "indexed": true,
          "internalType": "address",
          "name": "channel",
          "type": "address"
        },
        {
          "indexed": true,
          "internalType": "address",
          "name": "user",
          "type": "address"
        }
      ],
      "name": "Unsubscribe",
      "type": "event"
    },
    {
      "anonymous": false,
      "inputs": [
        {
          "indexed": true,
          "internalType": "address",
          "name": "channel",
          "type": "address"
        },
        {
          "indexed": false,
          "internalType": "bytes",
          "name": "identity",
          "type": "bytes"
        }
      ],
      "name": "UpdateChannel",
      "type": "event"
    },
    {
      "anonymous": false,
      "inputs": [
        {
          "indexed": true,
          "internalType": "address",
          "name": "to",
          "type": "address"
        },
        {
          "indexed": false,
          "internalType": "address",
          "name": "token",
          "type": "address"
        },
        {
          "indexed": false,
          "internalType": "uint256",
          "name": "amount",
          "type": "uint256"
        }
      ],
      "name": "Withdrawal",
      "type": "event"
    },
    {
      "stateMutability": "nonpayable",
      "type": "fallback"
    },
    {
      "inputs": [],
      "name": "REFERRAL_CODE",
      "outputs": [
        {
          "internalType": "uint256",
          "name": "",
          "type": "uint256"
        }
      ],
      "stateMutability": "view",
      "type": "function"
    },
    {
      "inputs": [],
      "name": "aDaiAddress",
      "outputs": [
        {
          "internalType": "address",
          "name": "",
          "type": "address"
        }
      ],
      "stateMutability": "view",
      "type": "function"
    },
    {
      "inputs": [
        {
          "internalType": "address",
          "name": "_addr",
          "type": "address"
        }
      ],
      "name": "addToChannelizationWhitelist",
      "outputs": [],
      "stateMutability": "nonpayable",
      "type": "function"
    },
    {
      "inputs": [
        {
          "internalType": "bytes",
          "name": "_publicKey",
          "type": "bytes"
        }
      ],
      "name": "broadcastUserPublicKey",
      "outputs": [],
      "stateMutability": "nonpayable",
      "type": "function"
    },
    {
      "inputs": [
        {
          "internalType": "address",
          "name": "_user",
          "type": "address"
        },
        {
          "internalType": "uint256",
          "name": "_block",
          "type": "uint256"
        }
      ],
      "name": "calcAllChannelsRatio",
      "outputs": [
        {
          "internalType": "uint256",
          "name": "ratio",
          "type": "uint256"
        }
      ],
      "stateMutability": "view",
      "type": "function"
    },
    {
      "inputs": [
        {
          "internalType": "address",
          "name": "_channel",
          "type": "address"
        },
        {
          "internalType": "address",
          "name": "_user",
          "type": "address"
        },
        {
          "internalType": "uint256",
          "name": "_block",
          "type": "uint256"
        }
      ],
      "name": "calcSingleChannelEarnRatio",
      "outputs": [
        {
          "internalType": "uint256",
          "name": "ratio",
          "type": "uint256"
        }
      ],
      "stateMutability": "view",
      "type": "function"
    },
    {
      "inputs": [
        {
          "internalType": "address",
          "name": "",
          "type": "address"
        }
      ],
      "name": "channels",
      "outputs": [
        {
          "internalType": "enum EPNSStagingV2.ChannelType",
          "name": "channelType",
          "type": "uint8"
        },
        {
          "internalType": "bool",
          "name": "deactivated",
          "type": "bool"
        },
        {
          "internalType": "uint256",
          "name": "poolContribution",
          "type": "uint256"
        },
        {
          "internalType": "uint256",
          "name": "memberCount",
          "type": "uint256"
        },
        {
          "internalType": "uint256",
          "name": "channelHistoricalZ",
          "type": "uint256"
        },
        {
          "internalType": "uint256",
          "name": "channelFairShareCount",
          "type": "uint256"
        },
        {
          "internalType": "uint256",
          "name": "channelLastUpdate",
          "type": "uint256"
        },
        {
          "internalType": "uint256",
          "name": "channelStartBlock",
          "type": "uint256"
        },
        {
          "internalType": "uint256",
          "name": "channelUpdateBlock",
          "type": "uint256"
        },
        {
          "internalType": "uint256",
          "name": "channelWeight",
          "type": "uint256"
        }
      ],
      "stateMutability": "view",
      "type": "function"
    },
    {
      "inputs": [],
      "name": "channelsCount",
      "outputs": [
        {
          "internalType": "uint256",
          "name": "",
          "type": "uint256"
        }
      ],
      "stateMutability": "view",
      "type": "function"
    },
    {
      "inputs": [],
      "name": "claimFairShare",
      "outputs": [
        {
          "internalType": "uint256",
          "name": "ratio",
          "type": "uint256"
        }
      ],
      "stateMutability": "nonpayable",
      "type": "function"
    },
    {
      "inputs": [
        {
          "internalType": "enum EPNSStagingV2.ChannelType",
          "name": "_channelType",
          "type": "uint8"
        },
        {
          "internalType": "bytes",
          "name": "_identity",
          "type": "bytes"
        }
      ],
      "name": "createChannelWithFees",
      "outputs": [],
      "stateMutability": "nonpayable",
      "type": "function"
    },
    {
      "inputs": [
        {
          "internalType": "enum EPNSStagingV2.ChannelType",
          "name": "_channelType",
          "type": "uint8"
        },
        {
          "internalType": "bytes",
          "name": "_identity",
          "type": "bytes"
        },
        {
          "internalType": "bytes",
          "name": "_publickey",
          "type": "bytes"
        }
      ],
      "name": "createChannelWithFeesAndPublicKey",
      "outputs": [],
      "stateMutability": "nonpayable",
      "type": "function"
    },
    {
      "inputs": [],
      "name": "createPromoterChannel",
      "outputs": [],
      "stateMutability": "nonpayable",
      "type": "function"
    },
    {
      "inputs": [],
      "name": "daiAddress",
      "outputs": [
        {
          "internalType": "address",
          "name": "",
          "type": "address"
        }
      ],
      "stateMutability": "view",
      "type": "function"
    },
    {
      "inputs": [],
      "name": "deactivateChannel",
      "outputs": [],
      "stateMutability": "nonpayable",
      "type": "function"
    },
    {
      "inputs": [],
      "name": "donate",
      "outputs": [],
      "stateMutability": "payable",
      "type": "function"
    },
    {
      "inputs": [
        {
          "internalType": "address",
          "name": "_channel",
          "type": "address"
        },
        {
          "internalType": "uint256",
          "name": "_block",
          "type": "uint256"
        }
      ],
      "name": "getChannelFSRatio",
      "outputs": [
        {
          "internalType": "uint256",
          "name": "ratio",
          "type": "uint256"
        }
      ],
      "stateMutability": "view",
      "type": "function"
    },
    {
      "inputs": [
        {
          "internalType": "address",
          "name": "_channel",
          "type": "address"
        },
        {
          "internalType": "uint256",
          "name": "_subscriberId",
          "type": "uint256"
        }
      ],
      "name": "getChannelSubscriberAddress",
      "outputs": [
        {
          "internalType": "address",
          "name": "subscriber",
          "type": "address"
        }
      ],
      "stateMutability": "view",
      "type": "function"
    },
    {
      "inputs": [
        {
          "internalType": "address",
          "name": "_channel",
          "type": "address"
        },
        {
          "internalType": "uint256",
          "name": "_subscriberId",
          "type": "uint256"
        }
      ],
      "name": "getChannelSubscriberUserID",
      "outputs": [
        {
          "internalType": "uint256",
          "name": "userId",
          "type": "uint256"
        }
      ],
      "stateMutability": "view",
      "type": "function"
    },
    {
      "inputs": [
        {
          "internalType": "address",
          "name": "_channel",
          "type": "address"
        },
        {
          "internalType": "address",
          "name": "_user",
          "type": "address"
        },
        {
          "internalType": "uint256",
          "name": "_block",
          "type": "uint256"
        }
      ],
      "name": "getSubscriberFSRatio",
      "outputs": [
        {
          "internalType": "uint256",
          "name": "ratio",
          "type": "uint256"
        }
      ],
      "stateMutability": "view",
      "type": "function"
    },
    {
      "inputs": [
        {
          "internalType": "bytes",
          "name": "_publicKey",
          "type": "bytes"
        }
      ],
      "name": "getWalletFromPublicKey",
      "outputs": [
        {
          "internalType": "address",
          "name": "wallet",
          "type": "address"
        }
      ],
      "stateMutability": "pure",
      "type": "function"
    },
    {
      "inputs": [],
      "name": "governance",
      "outputs": [
        {
          "internalType": "address",
          "name": "",
          "type": "address"
        }
      ],
      "stateMutability": "view",
      "type": "function"
    },
    {
      "inputs": [],
      "name": "groupFairShareCount",
      "outputs": [
        {
          "internalType": "uint256",
          "name": "",
          "type": "uint256"
        }
      ],
      "stateMutability": "view",
      "type": "function"
    },
    {
      "inputs": [],
      "name": "groupHistoricalZ",
      "outputs": [
        {
          "internalType": "uint256",
          "name": "",
          "type": "uint256"
        }
      ],
      "stateMutability": "view",
      "type": "function"
    },
    {
      "inputs": [],
      "name": "groupLastUpdate",
      "outputs": [
        {
          "internalType": "uint256",
          "name": "",
          "type": "uint256"
        }
      ],
      "stateMutability": "view",
      "type": "function"
    },
    {
      "inputs": [],
      "name": "groupNormalizedWeight",
      "outputs": [
        {
          "internalType": "uint256",
          "name": "",
          "type": "uint256"
        }
      ],
      "stateMutability": "view",
      "type": "function"
    },
    {
      "inputs": [
        {
          "internalType": "address",
          "name": "_governance",
          "type": "address"
        },
        {
          "internalType": "address",
          "name": "_lendingPoolProviderAddress",
          "type": "address"
        },
        {
          "internalType": "address",
          "name": "_daiAddress",
          "type": "address"
        },
        {
          "internalType": "address",
          "name": "_aDaiAddress",
          "type": "address"
        },
        {
          "internalType": "uint256",
          "name": "_referralCode",
          "type": "uint256"
        }
      ],
      "name": "initialize",
      "outputs": [
        {
          "internalType": "bool",
          "name": "success",
          "type": "bool"
        }
      ],
      "stateMutability": "nonpayable",
      "type": "function"
    },
    {
      "inputs": [],
      "name": "lendingPoolProviderAddress",
      "outputs": [
        {
          "internalType": "address",
          "name": "",
          "type": "address"
        }
      ],
      "stateMutability": "view",
      "type": "function"
    },
    {
      "inputs": [
        {
          "internalType": "uint256",
          "name": "",
          "type": "uint256"
        }
      ],
      "name": "mapAddressChannels",
      "outputs": [
        {
          "internalType": "address",
          "name": "",
          "type": "address"
        }
      ],
      "stateMutability": "view",
      "type": "function"
    },
    {
      "inputs": [
        {
          "internalType": "uint256",
          "name": "",
          "type": "uint256"
        }
      ],
      "name": "mapAddressUsers",
      "outputs": [
        {
          "internalType": "address",
          "name": "",
          "type": "address"
        }
      ],
      "stateMutability": "view",
      "type": "function"
    },
    {
      "inputs": [
        {
          "internalType": "address",
          "name": "_user",
          "type": "address"
        },
        {
          "internalType": "address",
          "name": "_channel",
          "type": "address"
        }
      ],
      "name": "memberExists",
      "outputs": [
        {
          "internalType": "bool",
          "name": "subscribed",
          "type": "bool"
        }
      ],
      "stateMutability": "view",
      "type": "function"
    },
    {
      "inputs": [],
      "name": "ownerDaiFunds",
      "outputs": [
        {
          "internalType": "uint256",
          "name": "",
          "type": "uint256"
        }
      ],
      "stateMutability": "view",
      "type": "function"
    },
    {
      "inputs": [],
      "name": "poolFunds",
      "outputs": [
        {
          "internalType": "uint256",
          "name": "",
          "type": "uint256"
        }
      ],
      "stateMutability": "view",
      "type": "function"
    },
    {
      "inputs": [
        {
          "internalType": "address",
          "name": "_addr",
          "type": "address"
        }
      ],
      "name": "removeFromChannelizationWhitelist",
      "outputs": [],
      "stateMutability": "nonpayable",
      "type": "function"
    },
    {
      "inputs": [
        {
          "internalType": "address",
          "name": "_recipient",
          "type": "address"
        },
        {
          "internalType": "bytes",
          "name": "_identity",
          "type": "bytes"
        }
      ],
      "name": "sendNotification",
      "outputs": [],
      "stateMutability": "nonpayable",
      "type": "function"
    },
    {
      "inputs": [
        {
          "internalType": "address",
          "name": "_channel",
          "type": "address"
        },
        {
          "internalType": "address",
          "name": "_recipient",
          "type": "address"
        },
        {
          "internalType": "bytes",
          "name": "_identity",
          "type": "bytes"
        }
      ],
      "name": "sendNotificationOverrideChannel",
      "outputs": [],
      "stateMutability": "nonpayable",
      "type": "function"
    },
    {
      "inputs": [
        {
          "internalType": "address",
          "name": "_channel",
          "type": "address"
        }
      ],
      "name": "subscribe",
      "outputs": [],
      "stateMutability": "nonpayable",
      "type": "function"
    },
    {
      "inputs": [
        {
          "internalType": "address",
          "name": "_channel",
          "type": "address"
        },
        {
          "internalType": "address",
          "name": "_user",
          "type": "address"
        }
      ],
      "name": "subscribeDelegated",
      "outputs": [],
      "stateMutability": "nonpayable",
      "type": "function"
    },
    {
      "inputs": [
        {
          "internalType": "address",
          "name": "_channel",
          "type": "address"
        },
        {
          "internalType": "bytes",
          "name": "_publicKey",
          "type": "bytes"
        }
      ],
      "name": "subscribeWithPublicKey",
      "outputs": [],
      "stateMutability": "nonpayable",
      "type": "function"
    },
    {
      "inputs": [
        {
          "internalType": "address",
          "name": "_channel",
          "type": "address"
        },
        {
          "internalType": "address",
          "name": "_user",
          "type": "address"
        },
        {
          "internalType": "bytes",
          "name": "_publicKey",
          "type": "bytes"
        }
      ],
      "name": "subscribeWithPublicKeyDelegated",
      "outputs": [],
      "stateMutability": "nonpayable",
      "type": "function"
    },
    {
      "inputs": [
        {
          "internalType": "address",
          "name": "_newGovernance",
          "type": "address"
        }
      ],
      "name": "transferGovernance",
      "outputs": [],
      "stateMutability": "nonpayable",
      "type": "function"
    },
    {
      "inputs": [
        {
          "internalType": "address",
          "name": "_channel",
          "type": "address"
        }
      ],
      "name": "unsubscribe",
      "outputs": [
        {
          "internalType": "uint256",
          "name": "ratio",
          "type": "uint256"
        }
      ],
      "stateMutability": "nonpayable",
      "type": "function"
    },
    {
      "inputs": [
        {
          "internalType": "address",
          "name": "_channel",
          "type": "address"
        },
        {
          "internalType": "bytes",
          "name": "_identity",
          "type": "bytes"
        }
      ],
      "name": "updateChannelMeta",
      "outputs": [],
      "stateMutability": "nonpayable",
      "type": "function"
    },
    {
      "inputs": [
        {
          "internalType": "address",
          "name": "",
          "type": "address"
        }
      ],
      "name": "users",
      "outputs": [
        {
          "internalType": "bool",
          "name": "userActivated",
          "type": "bool"
        },
        {
          "internalType": "bool",
          "name": "publicKeyRegistered",
          "type": "bool"
        },
        {
          "internalType": "bool",
          "name": "channellized",
          "type": "bool"
        },
        {
          "internalType": "uint256",
          "name": "userStartBlock",
          "type": "uint256"
        },
        {
          "internalType": "uint256",
          "name": "subscribedCount",
          "type": "uint256"
        },
        {
          "internalType": "uint256",
          "name": "timeWeightedBalance",
          "type": "uint256"
        }
      ],
      "stateMutability": "view",
      "type": "function"
    },
    {
      "inputs": [],
      "name": "usersCount",
      "outputs": [
        {
          "internalType": "uint256",
          "name": "",
          "type": "uint256"
        }
      ],
      "stateMutability": "view",
      "type": "function"
    },
    {
      "inputs": [
        {
          "internalType": "address",
          "name": "",
          "type": "address"
        }
      ],
      "name": "usersInterestClaimed",
      "outputs": [
        {
          "internalType": "uint256",
          "name": "",
          "type": "uint256"
        }
      ],
      "stateMutability": "view",
      "type": "function"
    },
    {
      "inputs": [
        {
          "internalType": "address",
          "name": "",
          "type": "address"
        }
      ],
      "name": "usersInterestInWallet",
      "outputs": [
        {
          "internalType": "uint256",
          "name": "",
          "type": "uint256"
        }
      ],
      "stateMutability": "view",
      "type": "function"
    },
    {
      "inputs": [],
      "name": "withdrawDaiFunds",
      "outputs": [],
      "stateMutability": "nonpayable",
      "type": "function"
    },
    {
      "inputs": [],
      "name": "withdrawEthFunds",
      "outputs": [],
      "stateMutability": "nonpayable",
      "type": "function"
    },
    {
      "stateMutability": "payable",
      "type": "receive"
    }
  ],
  "bytecode": "0x608060405234801561001057600080fd5b506001805561427a806100246000396000f3fe6080604052600436106102975760003560e01c806375e880fc1161015a578063b9d048df116100c1578063e8846d711161007a578063e8846d71146107be578063e886dd0c146107de578063ed88c68e146107f3578063f7013ef6146107fb578063fb9e9e271461081b578063fde360011461083b5761029e565b8063b9d048df14610714578063bc2104d214610734578063be3e9ba714610749578063d38bfff414610769578063d3db49cb14610789578063daa947f5146107a95761029e565b80639519d5db116101135780639519d5db1461065857806398d2f06a1461066d5780639c9c2cbe1461068d578063a87430ba146106ad578063aba03325146106df578063b677c7a7146106f45761029e565b806375e880fc1461058d5780637d306268146105a25780637dce34f7146105c25780637faf7ff6146105f857806383efb0dd146106185780639019c69f146106385761029e565b806341a7726a116101fe5780635aa6e675116101b75780635aa6e6751461050457806368a8e5b61461051957806369fb0ede1461052e5780636ba13a82146105435780636d1b6d46146105585780637262561c1461056d5761029e565b806341a7726a146104425780634486b167146104625780634ff322451461048257806350e20060146104af5780635227dd05146104cf57806355091fe5146104ef5761029e565b8063211ea14811610250578063211ea148146103a35780632c387275146103c3578063341c485b146103d85780633583849a146103f85780633d1e76eb1461040d5780634134465a146104225761029e565b8063098b2041146102e15780630ded77311461030c578063110e01a81461032e57806311e297381461034357806313d5f201146103635780631e919cb7146103835761029e565b3661029e57005b3480156102aa57600080fd5b506102df60405180604001604052806013815260200172696e2066616c6c6261636b206f6620636f726560681b81525061085b565b005b3480156102ed57600080fd5b506102f66108a1565b60405161030391906138ca565b60405180910390f35b34801561031857600080fd5b506103216108b0565b60405161030391906141ce565b34801561033a57600080fd5b506103216108b6565b34801561034f57600080fd5b506102df61035e36600461363c565b6108bc565b34801561036f57600080fd5b506102df61037e3660046134c6565b61098d565b34801561038f57600080fd5b5061032161039e3660046134c6565b6109db565b3480156103af57600080fd5b506102df6103be36600461363c565b6109ed565b3480156103cf57600080fd5b506102f6610a3e565b3480156103e457600080fd5b506102df6103f33660046134fe565b610a4d565b34801561040457600080fd5b50610321610b23565b34801561041957600080fd5b506102df610b29565b34801561042e57600080fd5b506102f661043d36600461371a565b610bc3565b34801561044e57600080fd5b506102df61045d3660046134c6565b610be5565b34801561046e57600080fd5b506102df61047d366004613599565b610c62565b34801561048e57600080fd5b506104a261049d3660046134fe565b610d9f565b604051610303919061395a565b3480156104bb57600080fd5b506102df6104ca3660046134c6565b610dd2565b3480156104db57600080fd5b506102f66104ea366004613852565b610e1d565b3480156104fb57600080fd5b50610321610e38565b34801561051057600080fd5b506102f6610e3e565b34801561052557600080fd5b50610321610e4d565b34801561053a57600080fd5b506102df610e53565b34801561054f57600080fd5b50610321610ef7565b34801561056457600080fd5b506102f6610efd565b34801561057957600080fd5b506103216105883660046134c6565b610f0c565b34801561059957600080fd5b506102df61122a565b3480156105ae57600080fd5b506102df6105bd366004613599565b611451565b3480156105ce57600080fd5b506105e26105dd3660046134c6565b611544565b6040516103039a999897969594939291906139d1565b34801561060457600080fd5b5061032161061336600461368f565b611594565b34801561062457600080fd5b506103216106333660046135fc565b611738565b34801561064457600080fd5b506102df6106533660046136da565b611875565b34801561066457600080fd5b506103216118dd565b34801561067957600080fd5b506102f661068836600461368f565b6118e3565b34801561069957600080fd5b506102df6106a83660046137b5565b61190f565b3480156106b957600080fd5b506106cd6106c83660046134c6565b6119d4565b60405161030396959493929190613965565b3480156106eb57600080fd5b506102df611a10565b34801561070057600080fd5b5061032161070f36600461368f565b611a93565b34801561072057600080fd5b5061032161072f36600461368f565b611b7b565b34801561074057600080fd5b50610321611bb6565b34801561075557600080fd5b506103216107643660046134c6565b611bbc565b34801561077557600080fd5b506102df6107843660046134c6565b611bce565b34801561079557600080fd5b506102f66107a4366004613852565b611c6e565b3480156107b557600080fd5b50610321611c89565b3480156107ca57600080fd5b506103216107d93660046135fc565b611c8f565b3480156107ea57600080fd5b50610321611dbb565b6102df611f82565b34801561080757600080fd5b506104a2610816366004613536565b611fec565b34801561082757600080fd5b506102df6108363660046137d3565b6121a0565b34801561084757600080fd5b506102df61085636600461363c565b6122c3565b61089e8160405160240161086f91906139be565b60408051601f198184030181529190526020810180516001600160e01b031663104c13eb60e21b179052612398565b50565b600b546001600160a01b031681565b600f5481565b60115481565b3360008181526005602052604090205462010000900460ff16151560011480156108ee5750336001600160a01b038216145b806109155750600c546001600160a01b03163314801561091557506001600160a01b038116155b61093a5760405162461bcd60e51b815260040161093190614050565b60405180910390fd5b836001600160a01b0316336001600160a01b03167fcc2b84a32bce3d060db75a4c0e59bfef192503be5c83bfa5ad79a41d384ff22c858560405161097f92919061398f565b60405180910390a350505050565b600c546001600160a01b031633146109b75760405162461bcd60e51b815260040161093190613c7d565b6001600160a01b03166000908152600260205260409020805460ff19166001179055565b60076020526000908152604090205481565b826001600160a01b03167fdd0f9713dcb5498a41e3486b288bc746b035efb57770050da0ec0e800154532c8383604051610a2892919061398f565b60405180910390a2610a39836123b9565b505050565b600a546001600160a01b031681565b6001600160a01b038216600090815260056020526040902054829062010000900460ff1615156001148015610aa057506001600160a01b038116600090815260036020526040902054610100900460ff16155b610abc5760405162461bcd60e51b815260040161093190613b35565b6001600160a01b03808316600090815260056020908152604080832093871683526006909301905220548390839060ff1615610b0a5760405162461bcd60e51b815260040161093190613ac0565b610b12612553565b610b1c858561258d565b5050505050565b60155481565b600c546001600160a01b03163314610b535760405162461bcd60e51b815260040161093190613c7d565b601454600a54610b74906001600160a01b031630338463ffffffff61277816565b6000601455600a5460405133917f2717ead6b9200dd235aad468c9809ea400fe33ac69b5bfaa6d3e90fc922b639891610bb8916001600160a01b031690859061391c565b60405180910390a250565b6000815160401415610bdc575080516020820120610be0565b5060005b919050565b6001600160a01b038116600090815260056020526040902054819062010000900460ff1615156001148015610c3857506001600160a01b038116600090815260036020526040902054610100900460ff16155b610c545760405162461bcd60e51b815260040161093190613b35565b610c5e823361258d565b5050565b6001600160a01b038416600090815260056020526040902054849062010000900460ff1615156001148015610cb557506001600160a01b038116600090815260036020526040902054610100900460ff16155b610cd15760405162461bcd60e51b815260040161093190613b35565b6001600160a01b03808516600090815260056020908152604080832093891683526006909301905220548590859060ff1615610d1f5760405162461bcd60e51b815260040161093190613ac0565b610d27612553565b6001600160a01b038616600090815260056020526040902054610100900460ff16610d8c57610d8c3386868080601f0160208091040260200160405190810160405280939291908181526020018383808284376000920191909152506127d092505050565b610d96878761258d565b50505050505050565b6001600160a01b039081166000908152600360209081526040808320949093168252600990930190925290205460ff1690565b600c546001600160a01b03163314610dfc5760405162461bcd60e51b815260040161093190613c7d565b6001600160a01b03166000908152600260205260409020805460ff19169055565b6006602052600090815260409020546001600160a01b031681565b600d5481565b600c546001600160a01b031681565b60105481565b600c546001600160a01b03163314610e7d5760405162461bcd60e51b815260040161093190613c7d565b600c5460405147916001600160a01b03169082156108fc029083906000818181858888f19350505050158015610eb7573d6000803e3d6000fd5b50600a5460405133917f2717ead6b9200dd235aad468c9809ea400fe33ac69b5bfaa6d3e90fc922b639891610bb8916001600160a01b031690859061391c565b600e5481565b6009546001600160a01b031681565b6001600160a01b038116600090815260056020526040812054829062010000900460ff161515600114610f515760405162461bcd60e51b815260040161093190614050565b82336001600160a01b0382168114801590610f9a57506001600160a01b038083166000908152600360209081526040808320938516835260099093019052205460ff1615156001145b610fb65760405162461bcd60e51b815260040161093190614107565b3360008181526005602090815260408083206001600160a01b038a168452600681019092528220805460ff1916600117905590955090610ff890879043611c8f565b6001600160a01b03878116600090815260048401602081815260408084208054600289018054875260058a0180865284882054891688529585528387208290558054875294909352818520549285528185208054939096166001600160a01b03199384161790955593839055815483529290912080549092169091555490955061108390600161287b565b6002828101919091556001600160a01b038781166000908152600360209081526040808320338452600981018352818420805460ff19169055600a8101808452828520805497830180548752600b840180875285882054891688529286528487208990558054875291909452828520549685528285208054979096166001600160a01b031997881617909555918390558354835290912080549093169092555461112e90600161287b565b60028201556001600160a01b03871660009081526003602081905260408220600481015491810154600590910154611168939291906128a8565b6001600160a01b038a1660009081526003602081905260409091206005810192909255810191909155600401556001815460ff1660038111156111a757fe5b14806111c257506002815460ff1660038111156111c057fe5b145b806111dc57506003815460ff1660038111156111da57fe5b145b156111ea576111ea8661297f565b60405133906001600160a01b038916907f9d3d878d2fb01c43ad7ec7c20d8f5d0dbac4888df940a4edaab4540ccefdc10290600090a35050505050919050565b3060009081526005602052604090205462010000900460ff16156112605760405162461bcd60e51b815260040161093190613a91565b600a5460195460405163095ea7b360e01b81526001600160a01b039092169163095ea7b3916112949130919060040161391c565b602060405180830381600087803b1580156112ae57600080fd5b505af11580156112c2573d6000803e3d6000fd5b505050506040513d601f19601f820116820180604052508101906112e691906136ba565b50601954600a54604051636eb1769f60e11b81526001600160a01b039091169063dd62ed3e9061131c90339030906004016138de565b60206040518083038186803b15801561133457600080fd5b505afa158015611348573d6000803e3d6000fd5b505050506040513d601f19601f8201168201806040525081019061136c919061386a565b101561138a5760405162461bcd60e51b815260040161093190613c51565b600a546019546040516323b872dd60e01b81526001600160a01b03909216916323b872dd916113bf91339130916004016138f8565b602060405180830381600087803b1580156113d957600080fd5b505af11580156113ed573d6000803e3d6000fd5b505050506040513d601f19601f8201168201806040525081019061141191906136ba565b506001306001600160a01b031660008051602061422583398151915260405161143990613c01565b60405180910390a361144f306001601954612b76565b565b3360008181526005602052604090205462010000900460ff16151560011480156114835750336001600160a01b038216145b806114aa5750600c546001600160a01b0316331480156114aa57506001600160a01b038116155b6114c65760405162461bcd60e51b815260040161093190614050565b600c546001600160a01b031633146114f05760405162461bcd60e51b815260040161093190613c7d565b836001600160a01b0316856001600160a01b03167fcc2b84a32bce3d060db75a4c0e59bfef192503be5c83bfa5ad79a41d384ff22c858560405161153592919061398f565b60405180910390a35050505050565b600360208190526000918252604090912080546001820154600283015493830154600484015460058501546006860154600787015460089097015460ff808816996101009098041697959695908a565b6001600160a01b038216600090815260056020526040812054839060ff1615156001146115d35760405162461bcd60e51b815260040161093190614020565b6001600160a01b038416600090815260056020526040812060020154905b8181101561172f5760016001600160a01b038088166000908152600560208181526040808420878552909201815281832054909316825260039283905290205460ff169081111561163e57fe5b148061168c575060026001600160a01b038088166000908152600560208181526040808420878552909201815281832054909316825260039283905290205460ff169081111561168a57fe5b145b806116d757506001600160a01b038681166000908152600560208181526040808420868552909201815281832054909316825260039283905290205460ff16818111156116d557fe5b145b15611727576001600160a01b0380871660009081526005602081815260408084208685529092019052812054909161171191168888611c8f565b9050611723858263ffffffff612b8a16565b9450505b6001016115f1565b50505092915050565b6001600160a01b038084166000908152600360209081526040808320938616835260099093019052908120548490849060ff16151560011461178c5760405162461bcd60e51b815260040161093190613fe9565b6001600160a01b0380871660009081526003602090815260408083209389168352600c9093019052908120546117c990869063ffffffff61287b16565b6001600160a01b03881660009081526003602081905260408220908101546005909101549293509161180290889063ffffffff61287b16565b6001600160a01b038a1660009081526003602052604081206004015491925090611832908363ffffffff612bb616565b9050611867611847848363ffffffff612b8a16565b60185461185b90879063ffffffff612bb616565b9063ffffffff612bf016565b9a9950505050505050505050565b3360009081526005602052604090205460ff6101009091041615156001141561189d57610c5e565b610c5e3383838080601f0160208091040260200160405190810160405280939291908181526020018383808284376000920191909152506127d092505050565b60145481565b6001600160a01b039182166000908152600360209081526040808320938352600b909301905220541690565b3360009081526005602052604090205462010000900460ff16156119455760405162461bcd60e51b815260040161093190613a25565b82600281600381111561195457fe5b148061196b5750600381600381111561196957fe5b145b6119875760405162461bcd60e51b815260040161093190613f5e565b83600381111561199357fe5b336001600160a01b031660008051602061422583398151915285856040516119bc92919061398f565b60405180910390a36119ce3385612c22565b50505050565b600560205260009081526040902080546001820154600283015460039093015460ff808416946101008504821694620100009004909116929186565b3360008181526005602052604090205462010000900460ff1615156001148015611a5857506001600160a01b038116600090815260036020526040902054610100900460ff16155b611a745760405162461bcd60e51b815260040161093190613b35565b50336000908152600360205260409020805461ff001916610100179055565b6001600160a01b0382166000908152600360205260408120600601548190611ac290849063ffffffff61287b16565b6001600160a01b0385166000908152600360205260408120600801546010546012546011549495509193909290611b0090889063ffffffff61287b16565b600f549091506000611b28611b1b848463ffffffff612bb616565b859063ffffffff612bb616565b90506000611b3c868363ffffffff612b8a16565b90506000611b50898963ffffffff612bb616565b9050611b6b8261185b60185484612bb690919063ffffffff16565b9c9b505050505050505050505050565b6001600160a01b039182166000908152600360209081526040808320938352600b84018252808320549094168252600a909201909152205490565b60135481565b60086020526000908152604090205481565b600c546001600160a01b03163314611bf85760405162461bcd60e51b815260040161093190613c7d565b6001600160a01b038116611c1e5760405162461bcd60e51b815260040161093190613f8c565b600c546001600160a01b0382811691161415611c4c5760405162461bcd60e51b815260040161093190613cfd565b600c80546001600160a01b0319166001600160a01b0392909216919091179055565b6004602052600090815260409020546001600160a01b031681565b60125481565b6001600160a01b038084166000908152600360209081526040808320938616835260099093019052908120548490849060ff161515600114611ce35760405162461bcd60e51b815260040161093190613fe9565b60016001600160a01b03871660009081526003602081905260409091205460ff1690811115611d0e57fe5b1480611d42575060026001600160a01b03871660009081526003602081905260409091205460ff1690811115611d4057fe5b145b80611d7357506001600160a01b03861660009081526003602081905260409091205460ff1681811115611d7157fe5b145b15611db2576000611d848786611a93565b90506000611d93888888611738565b601854909150611dad9061185b848463ffffffff612bb616565b945050505b50509392505050565b3360008181526005602052604081205490919060ff161515600114611df25760405162461bcd60e51b815260040161093190614020565b60009150815b33600090815260056020526040902060020154811015611f745733600090815260056020818152604080842085855290920190529020546001600160a01b031660016001600160a01b03821660009081526003602081905260409091205460ff1690811115611e6357fe5b1480611e97575060026001600160a01b03821660009081526003602081905260409091205460ff1690811115611e9557fe5b145b80611ec857506001600160a01b03811660009081526003602081905260409091205460ff1681811115611ec657fe5b145b15611f6b576001600160a01b0381166000818152600360208181526040808420338552600c810183529084204390559390925290819052600482015490820154600590920154611f1b92600292916128a8565b6001600160a01b03841660009081526003602081905260408220600581019390935582019290925560040191909155611f55823343611c8f565b9050611f67858263ffffffff612b8a16565b9450505b50600101611df8565b50611f7e8261297f565b5090565b66038d7ea4c68000341015611fa95760405162461bcd60e51b815260040161093190613aef565b336001600160a01b03167f5d8bc849764969eb1bcc6d0a2f55999d0167c1ccec240a4f39cf664ca9c4148e34604051611fe291906141ce565b60405180910390a2565b60008054610100900460ff16806120065750612006612d00565b80612014575060005460ff16155b6120305760405162461bcd60e51b815260040161093190613e68565b600054610100900460ff1615801561205b576000805460ff1961ff0019909116610100171660011790555b600c80546001600160a01b03199081166001600160a01b038a811691909117928390556009805483168a8316179055600a80548316898316179055600b805490921687821617909155601585905567016345785d8a00006017556802b5e3af16b18800006019556a0a56fa5b99019a5c800000601655629896806018556000600d819055600e819055600f819055601081905560118190556012819055601381905560148190556040519092909116906000805160206142258339815191529061212490613bb1565b60405180910390a3600c54612144906001600160a01b0316600080612d11565b6000806001600160a01b031660008051602061422583398151915260405161216b90614080565b60405180910390a36121806000806000612d11565b600191508015612196576000805461ff00191690555b5095945050505050565b3360009081526005602052604090205462010000900460ff16156121d65760405162461bcd60e51b815260040161093190613a25565b8460028160038111156121e557fe5b14806121fc575060038160038111156121fa57fe5b145b6122185760405162461bcd60e51b815260040161093190613f5e565b85600381111561222457fe5b336001600160a01b0316600080516020614225833981519152878760405161224d92919061398f565b60405180910390a333600090815260056020526040902054610100900460ff166122b1576122b13384848080601f0160208091040260200160405190810160405280939291908181526020018383808284376000920191909152506127d092505050565b6122bb3387612c22565b505050505050565b6001600160a01b038316600090815260056020526040902054839062010000900460ff161515600114801561231657506001600160a01b038116600090815260036020526040902054610100900460ff16155b6123325760405162461bcd60e51b815260040161093190613b35565b33600090815260056020526040902054610100900460ff1661238e5761238e3384848080601f0160208091040260200160405190810160405280939291908181526020018383808284376000920191909152506127d092505050565b6119ce843361258d565b80516a636f6e736f6c652e6c6f67602083016000808483855afa5050505050565b6001600160a01b038116600090815260056020526040902054819062010000900460ff16151560011480156123f65750336001600160a01b038216145b8061241d5750600c546001600160a01b03163314801561241d57506001600160a01b038116155b6124395760405162461bcd60e51b815260040161093190614050565b6001600160a01b038216600090815260056020526040902054829062010000900460ff161515600114801561248c57506001600160a01b038116600090815260036020526040902054610100900460ff16155b6124a85760405162461bcd60e51b815260040161093190613b35565b600c546001600160a01b0316331480156124f35750600c546001600160a01b03848116911614806124e057506001600160a01b038316155b806124f357506001600160a01b03831630145b156124fd57612538565b6001600160a01b0383166000908152600360205260409020600201546001146125385760405162461bcd60e51b815260040161093190613a5c565b50503360009081526003602052604090204360079091015550565b601754600a54612578916001600160a01b03909116903390309063ffffffff61277816565b60175460145461089e9163ffffffff612b8a16565b6001600160a01b03808316600090815260036020908152604080832093851683526009909301905220548290829060ff16156125db5760405162461bcd60e51b815260040161093190613ee6565b6125e483612ec7565b506001600160a01b038084166000908152600560208181526040808420948916808552600383528185206002870180546004890186528488208190558752948701909352932080546001600160a01b0319169093179092555461264e90600163ffffffff612b8a16565b600280840191909155810180546001600160a01b0387166000818152600a850160209081526040808320859055938252600b860190529190912080546001600160a01b0319169091179055546126ab90600163ffffffff612b8a16565b60028201556001600160a01b038086166000908152600c830160209081526040808320439055600985018252808320805460ff19166001908117909155938a168352600391829052909120600481015491810154600590910154612711939291906128a8565b6001600160a01b03808a166000818152600360208190526040808320600581019690965590850195909555600490930194909455915191881692917f5ffe3cc8f1055f172e55be8d832143a6cffb4cb3a56a18bf780fd4112d4cecc79190a3505050505050565b6119ce846323b872dd60e01b858585604051602401612799939291906138f8565b60408051601f198184030181529190526020810180516001600160e01b03166001600160e01b031990931692909217909152612f58565b6127d982612ec7565b5060006127e582610bc3565b9050806001600160a01b0316836001600160a01b03161415612863576001600160a01b03811660008181526005602052604090819020805461ff001916610100179055517fb3ec32f104accdf61583b5b94e7b80414c5dc5845ffc42e00f5f19775a358a0a906128569085906139be565b60405180910390a2610a39565b60405162461bcd60e51b815260040161093190613db1565b60008282111561289d5760405162461bcd60e51b815260040161093190613cc6565b508082035b92915050565b60008080858060018960028111156128bc57fe5b14156128da576128d382600163ffffffff612b8a16565b9150612930565b60008960028111156128e857fe5b14156128ff576128d382600163ffffffff61287b16565b600289600281111561290d57fe5b141561291857612930565b60405162461bcd60e51b815260040161093190613eb6565b6000612942438863ffffffff61287b16565b90506000612956838363ffffffff612bb616565b9050600061296a8a8363ffffffff612b8a16565b949c949b50439a509398505050505050505050565b600260015414156129a25760405162461bcd60e51b815260040161093190614197565b6002600155600b546040516370a0823160e01b81526000916001600160a01b0316906370a08231906129d89030906004016138ca565b60206040518083038186803b1580156129f057600080fd5b505afa158015612a04573d6000803e3d6000fd5b505050506040513d601f19601f82011682018060405250810190612a28919061386a565b90506000612a416013548361287b90919063ffffffff16565b90506000612a55828563ffffffff612bb616565b90506000612a6e60185483612bf090919063ffffffff16565b601354909150612a84908263ffffffff61287b16565b60135533600090815260076020526040902054612aa7908263ffffffff612b8a16565b336000818152600760205260409081902092909255600b54915163a9059cbb60e01b81526001600160a01b039092169163a9059cbb91612aeb91859060040161391c565b602060405180830381600087803b158015612b0557600080fd5b505af1158015612b19573d6000803e3d6000fd5b505050506040513d601f19601f82011682018060405250810190612b3d91906136ba565b50604051819033907ff9984c8173c4b4ff9cc454f76ed19c053f4490ccb224fd9ddffeb4ef4bea353090600090a3505060018055505050565b612b7f81612fe7565b610a39838383612d11565b600082820183811015612baf5760405162461bcd60e51b815260040161093190613b7a565b9392505050565b600082612bc5575060006128a2565b82820282848281612bd257fe5b0414612baf5760405162461bcd60e51b815260040161093190613f1d565b6000808211612c115760405162461bcd60e51b815260040161093190613de8565b818381612c1a57fe5b049392505050565b600a54604051636eb1769f60e11b81526000916001600160a01b03169063dd62ed3e90612c5590869030906004016138de565b60206040518083038186803b158015612c6d57600080fd5b505afa158015612c81573d6000803e3d6000fd5b505050506040513d601f19601f82011682018060405250810190612ca5919061386a565b90506019548110158015612cbb57506016548111155b612cd75760405162461bcd60e51b815260040161093190613e1f565b600a54612cf5906001600160a01b031684308463ffffffff61277816565b610a39838383612b76565b6000612d0b306131ed565b15905090565b6000612d1c84612ec7565b90506000612d3b60195461185b60185486612bb690919063ffffffff16565b6001600160a01b0386166000908152600560209081526040808320805462ff0000191662010000179055600391829052909120600181810187905581549394508793919260ff19909216918490811115612d9157fe5b02179055506001600160a01b038516600081815260036020908152604080832043600682018190556007820155600801859055600d80548452600490925290912080546001600160a01b03191690921790915554612df690600163ffffffff612b8a16565b600d556001846003811115612e0757fe5b1480612e1e57506002846003811115612e1c57fe5b145b80612e3457506003846003811115612e3257fe5b145b15612e5d57612e50600182601254600f546010546011546131f3565b601155601055600f556012555b81158015612e7357506001600160a01b03851615155b15612e8e57600c54612e8e906001600160a01b03168661258d565b6001600160a01b03851615612ea857612ea860008661258d565b600c546001600160a01b03868116911614610b1c57610b1c858661258d565b6001600160a01b03811660009081526005602052604081205460ff1615612ef057506001610be0565b6001600160a01b038216600081815260056020908152604080832043600180830191909155815460ff19168117909155600e805485526006909352922080546001600160a01b0319169093179092559054612f509163ffffffff612b8a16565b600e55919050565b6060612fad826040518060400160405280602081526020017f5361666545524332303a206c6f772d6c6576656c2063616c6c206661696c6564815250856001600160a01b031661335f9092919063ffffffff16565b805190915015610a395780806020019051810190612fcb91906136ba565b610a395760405162461bcd60e51b81526004016109319061414d565b601354612ffa908263ffffffff612b8a16565b60135560095460408051630261bf8b60e01b815290516001600160a01b03909216916000918391630261bf8b91600480820192602092909190829003018186803b15801561304757600080fd5b505afa15801561305b573d6000803e3d6000fd5b505050506040513d601f19601f8201168201806040525081019061307f91906134e2565b9050600a60009054906101000a90046001600160a01b03166001600160a01b031663095ea7b3836001600160a01b031663ed6ff7606040518163ffffffff1660e01b815260040160206040518083038186803b1580156130de57600080fd5b505afa1580156130f2573d6000803e3d6000fd5b505050506040513d601f19601f8201168201806040525081019061311691906134e2565b856040518363ffffffff1660e01b815260040161313492919061391c565b602060405180830381600087803b15801561314e57600080fd5b505af1158015613162573d6000803e3d6000fd5b505050506040513d601f19601f8201168201806040525081019061318691906136ba565b50600a54601554604051636968703360e11b81526001600160a01b038085169363d2d0e066936131bf9391909216918891600401613935565b600060405180830381600087803b1580156131d957600080fd5b505af1158015610d96573d6000803e3d6000fd5b3b151590565b60008080808780828960018e600281111561320a57fe5b141561324c5761322184600163ffffffff612b8a16565b9350613233818463ffffffff612bb616565b9150613245828e63ffffffff612b8a16565b91506132ca565b60008e600281111561325a57fe5b14156132955761327184600163ffffffff61287b16565b9350613283818463ffffffff612bb616565b9150613245828e63ffffffff61287b16565b60028e60028111156132a357fe5b1415612918576132336132bd84600163ffffffff61287b16565b829063ffffffff612bb616565b8360006132dd438c63ffffffff61287b16565b905060006132f1858863ffffffff612bf016565b90508c6000613306858563ffffffff612bb616565b9050600061331a828563ffffffff612bb616565b905061332c838263ffffffff612b8a16565b9250856001141561333c57600092505b899d50839c50829b50439a50505050505050505050509650965096509692505050565b606061336e8484600085613376565b949350505050565b6060824710156133985760405162461bcd60e51b815260040161093190613d6b565b6133a1856131ed565b6133bd5760405162461bcd60e51b8152600401610931906140d0565b60006060866001600160a01b031685876040516133da91906138ae565b60006040518083038185875af1925050503d8060008114613417576040519150601f19603f3d011682016040523d82523d6000602084013e61341c565b606091505b509150915061342c828286613437565b979650505050505050565b60608315613446575081612baf565b8251156134565782518084602001fd5b8160405162461bcd60e51b815260040161093191906139be565b60008083601f840112613481578182fd5b50813567ffffffffffffffff811115613498578182fd5b6020830191508360208285010111156134b057600080fd5b9250929050565b8035600481106128a257600080fd5b6000602082840312156134d7578081fd5b8135612baf8161420f565b6000602082840312156134f3578081fd5b8151612baf8161420f565b60008060408385031215613510578081fd5b823561351b8161420f565b9150602083013561352b8161420f565b809150509250929050565b600080600080600060a0868803121561354d578081fd5b85356135588161420f565b945060208601356135688161420f565b935060408601356135788161420f565b925060608601356135888161420f565b949793965091946080013592915050565b600080600080606085870312156135ae578384fd5b84356135b98161420f565b935060208501356135c98161420f565b9250604085013567ffffffffffffffff8111156135e4578283fd5b6135f087828801613470565b95989497509550505050565b600080600060608486031215613610578283fd5b833561361b8161420f565b9250602084013561362b8161420f565b929592945050506040919091013590565b600080600060408486031215613650578283fd5b833561365b8161420f565b9250602084013567ffffffffffffffff811115613676578283fd5b61368286828701613470565b9497909650939450505050565b600080604083850312156136a1578182fd5b82356136ac8161420f565b946020939093013593505050565b6000602082840312156136cb578081fd5b81518015158114612baf578182fd5b600080602083850312156136ec578182fd5b823567ffffffffffffffff811115613702578283fd5b61370e85828601613470565b90969095509350505050565b60006020828403121561372b578081fd5b813567ffffffffffffffff80821115613742578283fd5b81840185601f820112613753578384fd5b8035925081831115613763578384fd5b604051601f8401601f191681016020018381118282101715613783578586fd5b60405283815281840160200187101561379a578485fd5b6137ab8460208301602085016141d7565b9695505050505050565b6000806000604084860312156137c9578283fd5b61365b85856134b7565b6000806000806000606086880312156137ea578283fd5b6137f487876134b7565b9450602086013567ffffffffffffffff80821115613810578485fd5b61381c89838a01613470565b90965094506040880135915080821115613834578283fd5b5061384188828901613470565b969995985093965092949392505050565b600060208284031215613863578081fd5b5035919050565b60006020828403121561387b578081fd5b5051919050565b6000815180845261389a8160208601602086016141e3565b601f01601f19169290920160200192915050565b600082516138c08184602087016141e3565b9190910192915050565b6001600160a01b0391909116815260200190565b6001600160a01b0392831681529116602082015260400190565b6001600160a01b039384168152919092166020820152604081019190915260600190565b6001600160a01b03929092168252602082015260400190565b6001600160a01b03939093168352602083019190915261ffff16604082015260600190565b901515815260200190565b9515158652931515602086015291151560408501526060840152608083015260a082015260c00190565b60006020825282602083015282846040840137818301604090810191909152601f909201601f19160101919050565b600060208252612baf6020830184613882565b610140810160048c106139e057fe5b9a815298151560208a015260408901979097526060880195909552608087019390935260a086019190915260c085015260e08401526101008301526101209091015290565b6020808252601c908201527f5573657220616c72656164792061204368616e6e656c204f776e657200000000604082015260600190565b6020808252818101527f4368616e6e656c206861732065787465726e616c207375627363726962657273604082015260600190565b60208082526015908201527421b7b73a3930b1ba103430b990283937b6b7ba32b960591b604082015260600190565b60208082526015908201527410da185b9b995b081a5cc819dc985e5b1a5cdd1959605a1b604082015260600190565b60208082526026908201527f4d696e696d756d20446f6e6174696f6e20616d6f756e7420697320302e3030316040820152651032ba3432b960d11b606082015260800190565b60208082526025908201527f4368616e6e656c206465616374697661746564206f7220646f65736e27742065604082015264786973747360d81b606082015260800190565b6020808252601b908201527f536166654d6174683a206164646974696f6e206f766572666c6f770000000000604082015260600190565b60208082526030908201527f312b516d5362525431364a56463932327941423236597857464436446d47736e60408201526f14d21b4e15909c91d5545b961514cdcd60821b606082015260800190565b60208082526030908201527f312b516d526365776e4e70647432445759757564334c784854776f783252715160408201526f1c3abcad2ba2251b32ac9b34a435b33760811b606082015260800190565b602080825260129082015271496e73756666696369656e742046756e647360701b604082015260600190565b60208082526029908201527f45504e53436f72653a3a6f6e6c79476f762c2075736572206973206e6f7420676040820152686f7665726e616e636560b81b606082015260800190565b6020808252601e908201527f536166654d6174683a207375627472616374696f6e206f766572666c6f770000604082015260600190565b60208082526048908201527f45504e53436f72653a3a7472616e73666572476f7665726e616e63652c206e6560408201527f7720676f7665726e616e63652063616e27742062652063757272656e7420676f6060820152677665726e616e636560c01b608082015260a00190565b60208082526026908201527f416464726573733a20696e73756666696369656e742062616c616e636520666f6040820152651c8818d85b1b60d21b606082015260800190565b6020808252601c908201527f5075626c6963204b65792056616c69646174696f6e204661696c656400000000604082015260600190565b6020808252601a908201527f536166654d6174683a206469766973696f6e206279207a65726f000000000000604082015260600190565b60208082526029908201527f496e73756666696369656e742046756e6473206f72206d6178206365696c696e60408201526819c81c995858da195960ba1b606082015260800190565b6020808252602e908201527f496e697469616c697a61626c653a20636f6e747261637420697320616c72656160408201526d191e481a5b9a5d1a585b1a5e995960921b606082015260800190565b60208082526016908201527524b73b30b634b21021b430b73732b61020b1ba34b7b760511b604082015260600190565b60208082526019908201527f5375627363726962657220616c72656164792045786973747300000000000000604082015260600190565b60208082526021908201527f536166654d6174683a206d756c7469706c69636174696f6e206f766572666c6f6040820152607760f81b606082015260800190565b60208082526014908201527310da185b9b995b08151e5c1948125b9d985b1a5960621b604082015260600190565b6020808252603a908201527f45504e53436f72653a3a7472616e73666572476f7665726e616e63652c206e6560408201527f7720676f7665726e616e63652063616e2774206265206e6f6e65000000000000606082015260800190565b60208082526019908201527f5375627363726962657220646f65736e27742045786973747300000000000000604082015260600190565b602080825260169082015275155cd95c881b9bdd081858dd1a5d985d1959081e595d60521b604082015260600190565b6020808252601690820152754368616e6e656c20646f65736e27742045786973747360501b604082015260600190565b60208082526030908201527f312b516d54434b594c324852627744366e474e76464c6534775076444e75615960408201526f477236526956654376576a56706e357360801b606082015260800190565b6020808252601d908201527f416464726573733a2063616c6c20746f206e6f6e2d636f6e7472616374000000604082015260600190565b60208082526026908201527f456974686572204368616e6e656c204f776e6572206f72204e6f74205375627360408201526518dc9a58995960d21b606082015260800190565b6020808252602a908201527f5361666545524332303a204552433230206f7065726174696f6e20646964206e6040820152691bdd081cdd58d8d9595960b21b606082015260800190565b6020808252601f908201527f5265656e7472616e637947756172643a207265656e7472616e742063616c6c00604082015260600190565b90815260200190565b82818337506000910152565b60005b838110156141fe5781810151838201526020016141e6565b838111156119ce5750506000910152565b6001600160a01b038116811461089e57600080fdfe1f97bc77a1686355f130d93883d42f2434474cf65f97b29bc451ea7f9388d36aa26469706673582212200af53bbfcdd39da97b8c862d496562876957fcc0c636cf303b5038b37e82993664736f6c634300060b0033",
  "linkReferences": {},
  "deployedLinkReferences": {}
}