{
  "_format": "hh-sol-artifact-1",
  "contractName": "EPNSStagingV1",
  "sourceName": "contracts/EPNS_StagingV1.sol",
  "abi": [
    {
      "anonymous": false,
      "inputs": [
        {
          "indexed": true,
          "internalType": "address",
          "name": "channel",
          "type": "address"
        },
        {
          "indexed": true,
          "internalType": "enum EPNSStagingV1.ChannelType",
          "name": "channelType",
          "type": "uint8"
        },
        {
          "indexed": false,
          "internalType": "bytes",
          "name": "identity",
          "type": "bytes"
        }
      ],
      "name": "AddChannel",
      "type": "event"
    },
    {
      "anonymous": false,
      "inputs": [
        {
          "indexed": true,
          "internalType": "address",
          "name": "channel",
          "type": "address"
        }
      ],
      "name": "DeactivateChannel",
      "type": "event"
    },
    {
      "anonymous": false,
      "inputs": [
        {
          "indexed": true,
          "internalType": "address",
          "name": "donator",
          "type": "address"
        },
        {
          "indexed": false,
          "internalType": "uint256",
          "name": "amt",
          "type": "uint256"
        }
      ],
      "name": "Donation",
      "type": "event"
    },
    {
      "anonymous": false,
      "inputs": [
        {
          "indexed": true,
          "internalType": "address",
          "name": "user",
          "type": "address"
        },
        {
          "indexed": true,
          "internalType": "uint256",
          "name": "amount",
          "type": "uint256"
        }
      ],
      "name": "InterestClaimed",
      "type": "event"
    },
    {
      "anonymous": false,
      "inputs": [
        {
          "indexed": true,
          "internalType": "address",
          "name": "owner",
          "type": "address"
        },
        {
          "indexed": false,
          "internalType": "bytes",
          "name": "publickey",
          "type": "bytes"
        }
      ],
      "name": "PublicKeyRegistered",
      "type": "event"
    },
    {
      "anonymous": false,
      "inputs": [
        {
          "indexed": true,
          "internalType": "address",
          "name": "channel",
          "type": "address"
        },
        {
          "indexed": true,
          "internalType": "address",
          "name": "recipient",
          "type": "address"
        },
        {
          "indexed": false,
          "internalType": "bytes",
          "name": "identity",
          "type": "bytes"
        }
      ],
      "name": "SendNotification",
      "type": "event"
    },
    {
      "anonymous": false,
      "inputs": [
        {
          "indexed": true,
          "internalType": "address",
          "name": "channel",
          "type": "address"
        },
        {
          "indexed": true,
          "internalType": "address",
          "name": "user",
          "type": "address"
        }
      ],
      "name": "Subscribe",
      "type": "event"
    },
    {
      "anonymous": false,
      "inputs": [
        {
          "indexed": true,
          "internalType": "address",
          "name": "channel",
          "type": "address"
        },
        {
          "indexed": true,
          "internalType": "address",
          "name": "user",
          "type": "address"
        }
      ],
      "name": "Unsubscribe",
      "type": "event"
    },
    {
      "anonymous": false,
      "inputs": [
        {
          "indexed": true,
          "internalType": "address",
          "name": "channel",
          "type": "address"
        },
        {
          "indexed": false,
          "internalType": "bytes",
          "name": "identity",
          "type": "bytes"
        }
      ],
      "name": "UpdateChannel",
      "type": "event"
    },
    {
      "anonymous": false,
      "inputs": [
        {
          "indexed": true,
          "internalType": "address",
          "name": "to",
          "type": "address"
        },
        {
          "indexed": false,
          "internalType": "address",
          "name": "token",
          "type": "address"
        },
        {
          "indexed": false,
          "internalType": "uint256",
          "name": "amount",
          "type": "uint256"
        }
      ],
      "name": "Withdrawal",
      "type": "event"
    },
    {
      "stateMutability": "nonpayable",
      "type": "fallback"
    },
    {
      "inputs": [],
      "name": "REFERRAL_CODE",
      "outputs": [
        {
          "internalType": "uint256",
          "name": "",
          "type": "uint256"
        }
      ],
      "stateMutability": "view",
      "type": "function"
    },
    {
      "inputs": [],
      "name": "aDaiAddress",
      "outputs": [
        {
          "internalType": "address",
          "name": "",
          "type": "address"
        }
      ],
      "stateMutability": "view",
      "type": "function"
    },
    {
      "inputs": [
        {
          "internalType": "address",
          "name": "_addr",
          "type": "address"
        }
      ],
      "name": "addToChannelizationWhitelist",
      "outputs": [],
      "stateMutability": "nonpayable",
      "type": "function"
    },
    {
      "inputs": [
        {
          "internalType": "bytes",
          "name": "_publicKey",
          "type": "bytes"
        }
      ],
      "name": "broadcastUserPublicKey",
      "outputs": [],
      "stateMutability": "nonpayable",
      "type": "function"
    },
    {
      "inputs": [
        {
          "internalType": "address",
          "name": "_user",
          "type": "address"
        },
        {
          "internalType": "uint256",
          "name": "_block",
          "type": "uint256"
        }
      ],
      "name": "calcAllChannelsRatio",
      "outputs": [
        {
          "internalType": "uint256",
          "name": "ratio",
          "type": "uint256"
        }
      ],
      "stateMutability": "view",
      "type": "function"
    },
    {
      "inputs": [
        {
          "internalType": "address",
          "name": "_channel",
          "type": "address"
        },
        {
          "internalType": "address",
          "name": "_user",
          "type": "address"
        },
        {
          "internalType": "uint256",
          "name": "_block",
          "type": "uint256"
        }
      ],
      "name": "calcSingleChannelEarnRatio",
      "outputs": [
        {
          "internalType": "uint256",
          "name": "ratio",
          "type": "uint256"
        }
      ],
      "stateMutability": "view",
      "type": "function"
    },
    {
      "inputs": [
        {
          "internalType": "address",
          "name": "",
          "type": "address"
        }
      ],
      "name": "channels",
      "outputs": [
        {
          "internalType": "enum EPNSStagingV1.ChannelType",
          "name": "channelType",
          "type": "uint8"
        },
        {
          "internalType": "bool",
          "name": "deactivated",
          "type": "bool"
        },
        {
          "internalType": "uint256",
          "name": "poolContribution",
          "type": "uint256"
        },
        {
          "internalType": "uint256",
          "name": "memberCount",
          "type": "uint256"
        },
        {
          "internalType": "uint256",
          "name": "channelHistoricalZ",
          "type": "uint256"
        },
        {
          "internalType": "uint256",
          "name": "channelFairShareCount",
          "type": "uint256"
        },
        {
          "internalType": "uint256",
          "name": "channelLastUpdate",
          "type": "uint256"
        },
        {
          "internalType": "uint256",
          "name": "channelStartBlock",
          "type": "uint256"
        },
        {
          "internalType": "uint256",
          "name": "channelUpdateBlock",
          "type": "uint256"
        },
        {
          "internalType": "uint256",
          "name": "channelWeight",
          "type": "uint256"
        }
      ],
      "stateMutability": "view",
      "type": "function"
    },
    {
      "inputs": [],
      "name": "channelsCount",
      "outputs": [
        {
          "internalType": "uint256",
          "name": "",
          "type": "uint256"
        }
      ],
      "stateMutability": "view",
      "type": "function"
    },
    {
      "inputs": [],
      "name": "claimFairShare",
      "outputs": [
        {
          "internalType": "uint256",
          "name": "ratio",
          "type": "uint256"
        }
      ],
      "stateMutability": "nonpayable",
      "type": "function"
    },
    {
      "inputs": [
        {
          "internalType": "enum EPNSStagingV1.ChannelType",
          "name": "_channelType",
          "type": "uint8"
        },
        {
          "internalType": "bytes",
          "name": "_identity",
          "type": "bytes"
        }
      ],
      "name": "createChannelWithFees",
      "outputs": [],
      "stateMutability": "nonpayable",
      "type": "function"
    },
    {
      "inputs": [
        {
          "internalType": "enum EPNSStagingV1.ChannelType",
          "name": "_channelType",
          "type": "uint8"
        },
        {
          "internalType": "bytes",
          "name": "_identity",
          "type": "bytes"
        },
        {
          "internalType": "bytes",
          "name": "_publickey",
          "type": "bytes"
        }
      ],
      "name": "createChannelWithFeesAndPublicKey",
      "outputs": [],
      "stateMutability": "nonpayable",
      "type": "function"
    },
    {
      "inputs": [],
      "name": "createPromoterChannel",
      "outputs": [],
      "stateMutability": "nonpayable",
      "type": "function"
    },
    {
      "inputs": [],
      "name": "daiAddress",
      "outputs": [
        {
          "internalType": "address",
          "name": "",
          "type": "address"
        }
      ],
      "stateMutability": "view",
      "type": "function"
    },
    {
      "inputs": [],
      "name": "deactivateChannel",
      "outputs": [],
      "stateMutability": "nonpayable",
      "type": "function"
    },
    {
      "inputs": [],
      "name": "donate",
      "outputs": [],
      "stateMutability": "payable",
      "type": "function"
    },
    {
      "inputs": [
        {
          "internalType": "address",
          "name": "_channel",
          "type": "address"
        },
        {
          "internalType": "uint256",
          "name": "_block",
          "type": "uint256"
        }
      ],
      "name": "getChannelFSRatio",
      "outputs": [
        {
          "internalType": "uint256",
          "name": "ratio",
          "type": "uint256"
        }
      ],
      "stateMutability": "view",
      "type": "function"
    },
    {
      "inputs": [
        {
          "internalType": "address",
          "name": "_channel",
          "type": "address"
        },
        {
          "internalType": "uint256",
          "name": "_subscriberId",
          "type": "uint256"
        }
      ],
      "name": "getChannelSubscriberAddress",
      "outputs": [
        {
          "internalType": "address",
          "name": "subscriber",
          "type": "address"
        }
      ],
      "stateMutability": "view",
      "type": "function"
    },
    {
      "inputs": [
        {
          "internalType": "address",
          "name": "_channel",
          "type": "address"
        },
        {
          "internalType": "uint256",
          "name": "_subscriberId",
          "type": "uint256"
        }
      ],
      "name": "getChannelSubscriberUserID",
      "outputs": [
        {
          "internalType": "uint256",
          "name": "userId",
          "type": "uint256"
        }
      ],
      "stateMutability": "view",
      "type": "function"
    },
    {
      "inputs": [
        {
          "internalType": "address",
          "name": "_channel",
          "type": "address"
        },
        {
          "internalType": "address",
          "name": "_user",
          "type": "address"
        },
        {
          "internalType": "uint256",
          "name": "_block",
          "type": "uint256"
        }
      ],
      "name": "getSubscriberFSRatio",
      "outputs": [
        {
          "internalType": "uint256",
          "name": "ratio",
          "type": "uint256"
        }
      ],
      "stateMutability": "view",
      "type": "function"
    },
    {
      "inputs": [
        {
          "internalType": "bytes",
          "name": "_publicKey",
          "type": "bytes"
        }
      ],
      "name": "getWalletFromPublicKey",
      "outputs": [
        {
          "internalType": "address",
          "name": "wallet",
          "type": "address"
        }
      ],
      "stateMutability": "pure",
      "type": "function"
    },
    {
      "inputs": [],
      "name": "governance",
      "outputs": [
        {
          "internalType": "address",
          "name": "",
          "type": "address"
        }
      ],
      "stateMutability": "view",
      "type": "function"
    },
    {
      "inputs": [],
      "name": "groupFairShareCount",
      "outputs": [
        {
          "internalType": "uint256",
          "name": "",
          "type": "uint256"
        }
      ],
      "stateMutability": "view",
      "type": "function"
    },
    {
      "inputs": [],
      "name": "groupHistoricalZ",
      "outputs": [
        {
          "internalType": "uint256",
          "name": "",
          "type": "uint256"
        }
      ],
      "stateMutability": "view",
      "type": "function"
    },
    {
      "inputs": [],
      "name": "groupLastUpdate",
      "outputs": [
        {
          "internalType": "uint256",
          "name": "",
          "type": "uint256"
        }
      ],
      "stateMutability": "view",
      "type": "function"
    },
    {
      "inputs": [],
      "name": "groupNormalizedWeight",
      "outputs": [
        {
          "internalType": "uint256",
          "name": "",
          "type": "uint256"
        }
      ],
      "stateMutability": "view",
      "type": "function"
    },
    {
      "inputs": [
        {
          "internalType": "address",
          "name": "_governance",
          "type": "address"
        },
        {
          "internalType": "address",
          "name": "_lendingPoolProviderAddress",
          "type": "address"
        },
        {
          "internalType": "address",
          "name": "_daiAddress",
          "type": "address"
        },
        {
          "internalType": "address",
          "name": "_aDaiAddress",
          "type": "address"
        },
        {
          "internalType": "uint256",
          "name": "_referralCode",
          "type": "uint256"
        }
      ],
      "name": "initialize",
      "outputs": [
        {
          "internalType": "bool",
          "name": "success",
          "type": "bool"
        }
      ],
      "stateMutability": "nonpayable",
      "type": "function"
    },
    {
      "inputs": [],
      "name": "lendingPoolProviderAddress",
      "outputs": [
        {
          "internalType": "address",
          "name": "",
          "type": "address"
        }
      ],
      "stateMutability": "view",
      "type": "function"
    },
    {
      "inputs": [
        {
          "internalType": "uint256",
          "name": "",
          "type": "uint256"
        }
      ],
      "name": "mapAddressChannels",
      "outputs": [
        {
          "internalType": "address",
          "name": "",
          "type": "address"
        }
      ],
      "stateMutability": "view",
      "type": "function"
    },
    {
      "inputs": [
        {
          "internalType": "uint256",
          "name": "",
          "type": "uint256"
        }
      ],
      "name": "mapAddressUsers",
      "outputs": [
        {
          "internalType": "address",
          "name": "",
          "type": "address"
        }
      ],
      "stateMutability": "view",
      "type": "function"
    },
    {
      "inputs": [
        {
          "internalType": "address",
          "name": "_user",
          "type": "address"
        },
        {
          "internalType": "address",
          "name": "_channel",
          "type": "address"
        }
      ],
      "name": "memberExists",
      "outputs": [
        {
          "internalType": "bool",
          "name": "subscribed",
          "type": "bool"
        }
      ],
      "stateMutability": "view",
      "type": "function"
    },
    {
      "inputs": [],
      "name": "ownerDaiFunds",
      "outputs": [
        {
          "internalType": "uint256",
          "name": "",
          "type": "uint256"
        }
      ],
      "stateMutability": "view",
      "type": "function"
    },
    {
      "inputs": [],
      "name": "poolFunds",
      "outputs": [
        {
          "internalType": "uint256",
          "name": "",
          "type": "uint256"
        }
      ],
      "stateMutability": "view",
      "type": "function"
    },
    {
      "inputs": [
        {
          "internalType": "address",
          "name": "_addr",
          "type": "address"
        }
      ],
      "name": "removeFromChannelizationWhitelist",
      "outputs": [],
      "stateMutability": "nonpayable",
      "type": "function"
    },
    {
      "inputs": [
        {
          "internalType": "address",
          "name": "_recipient",
          "type": "address"
        },
        {
          "internalType": "bytes",
          "name": "_identity",
          "type": "bytes"
        }
      ],
      "name": "sendNotification",
      "outputs": [],
      "stateMutability": "nonpayable",
      "type": "function"
    },
    {
      "inputs": [
        {
          "internalType": "address",
          "name": "_channel",
          "type": "address"
        },
        {
          "internalType": "address",
          "name": "_recipient",
          "type": "address"
        },
        {
          "internalType": "bytes",
          "name": "_identity",
          "type": "bytes"
        }
      ],
      "name": "sendNotificationOverrideChannel",
      "outputs": [],
      "stateMutability": "nonpayable",
      "type": "function"
    },
    {
      "inputs": [
        {
          "internalType": "address",
          "name": "_channel",
          "type": "address"
        }
      ],
      "name": "subscribe",
      "outputs": [],
      "stateMutability": "nonpayable",
      "type": "function"
    },
    {
      "inputs": [
        {
          "internalType": "address",
          "name": "_channel",
          "type": "address"
        },
        {
          "internalType": "address",
          "name": "_user",
          "type": "address"
        }
      ],
      "name": "subscribeDelegated",
      "outputs": [],
      "stateMutability": "nonpayable",
      "type": "function"
    },
    {
      "inputs": [
        {
          "internalType": "address",
          "name": "_channel",
          "type": "address"
        },
        {
          "internalType": "bytes",
          "name": "_publicKey",
          "type": "bytes"
        }
      ],
      "name": "subscribeWithPublicKey",
      "outputs": [],
      "stateMutability": "nonpayable",
      "type": "function"
    },
    {
      "inputs": [
        {
          "internalType": "address",
          "name": "_channel",
          "type": "address"
        },
        {
          "internalType": "address",
          "name": "_user",
          "type": "address"
        },
        {
          "internalType": "bytes",
          "name": "_publicKey",
          "type": "bytes"
        }
      ],
      "name": "subscribeWithPublicKeyDelegated",
      "outputs": [],
      "stateMutability": "nonpayable",
      "type": "function"
    },
    {
      "inputs": [
        {
          "internalType": "address",
          "name": "_newGovernance",
          "type": "address"
        }
      ],
      "name": "transferGovernance",
      "outputs": [],
      "stateMutability": "nonpayable",
      "type": "function"
    },
    {
      "inputs": [
        {
          "internalType": "address",
          "name": "_channel",
          "type": "address"
        }
      ],
      "name": "unsubscribe",
      "outputs": [
        {
          "internalType": "uint256",
          "name": "ratio",
          "type": "uint256"
        }
      ],
      "stateMutability": "nonpayable",
      "type": "function"
    },
    {
      "inputs": [
        {
          "internalType": "address",
          "name": "_channel",
          "type": "address"
        },
        {
          "internalType": "bytes",
          "name": "_identity",
          "type": "bytes"
        }
      ],
      "name": "updateChannelMeta",
      "outputs": [],
      "stateMutability": "nonpayable",
      "type": "function"
    },
    {
      "inputs": [
        {
          "internalType": "address",
          "name": "",
          "type": "address"
        }
      ],
      "name": "users",
      "outputs": [
        {
          "internalType": "bool",
          "name": "userActivated",
          "type": "bool"
        },
        {
          "internalType": "bool",
          "name": "publicKeyRegistered",
          "type": "bool"
        },
        {
          "internalType": "bool",
          "name": "channellized",
          "type": "bool"
        },
        {
          "internalType": "uint256",
          "name": "userStartBlock",
          "type": "uint256"
        },
        {
          "internalType": "uint256",
          "name": "subscribedCount",
          "type": "uint256"
        },
        {
          "internalType": "uint256",
          "name": "timeWeightedBalance",
          "type": "uint256"
        }
      ],
      "stateMutability": "view",
      "type": "function"
    },
    {
      "inputs": [],
      "name": "usersCount",
      "outputs": [
        {
          "internalType": "uint256",
          "name": "",
          "type": "uint256"
        }
      ],
      "stateMutability": "view",
      "type": "function"
    },
    {
      "inputs": [
        {
          "internalType": "address",
          "name": "",
          "type": "address"
        }
      ],
      "name": "usersInterestClaimed",
      "outputs": [
        {
          "internalType": "uint256",
          "name": "",
          "type": "uint256"
        }
      ],
      "stateMutability": "view",
      "type": "function"
    },
    {
      "inputs": [
        {
          "internalType": "address",
          "name": "",
          "type": "address"
        }
      ],
      "name": "usersInterestInWallet",
      "outputs": [
        {
          "internalType": "uint256",
          "name": "",
          "type": "uint256"
        }
      ],
      "stateMutability": "view",
      "type": "function"
    },
    {
      "inputs": [],
      "name": "withdrawDaiFunds",
      "outputs": [],
      "stateMutability": "nonpayable",
      "type": "function"
    },
    {
      "inputs": [],
      "name": "withdrawEthFunds",
      "outputs": [],
      "stateMutability": "nonpayable",
      "type": "function"
    },
    {
      "stateMutability": "payable",
      "type": "receive"
    }
  ],
  "bytecode": "0x608060405234801561001057600080fd5b5060018055614321806100246000396000f3fe6080604052600436106102975760003560e01c806375e880fc1161015a578063b9d048df116100c1578063e8846d711161007a578063e8846d71146107be578063e886dd0c146107de578063ed88c68e146107f3578063f7013ef6146107fb578063fb9e9e271461081b578063fde360011461083b5761029e565b8063b9d048df14610714578063bc2104d214610734578063be3e9ba714610749578063d38bfff414610769578063d3db49cb14610789578063daa947f5146107a95761029e565b80639519d5db116101135780639519d5db1461065857806398d2f06a1461066d5780639c9c2cbe1461068d578063a87430ba146106ad578063aba03325146106df578063b677c7a7146106f45761029e565b806375e880fc1461058d5780637d306268146105a25780637dce34f7146105c25780637faf7ff6146105f857806383efb0dd146106185780639019c69f146106385761029e565b806341a7726a116101fe5780635aa6e675116101b75780635aa6e6751461050457806368a8e5b61461051957806369fb0ede1461052e5780636ba13a82146105435780636d1b6d46146105585780637262561c1461056d5761029e565b806341a7726a146104425780634486b167146104625780634ff322451461048257806350e20060146104af5780635227dd05146104cf57806355091fe5146104ef5761029e565b8063211ea14811610250578063211ea148146103a35780632c387275146103c3578063341c485b146103d85780633583849a146103f85780633d1e76eb1461040d5780634134465a146104225761029e565b8063098b2041146102e15780630ded77311461030c578063110e01a81461032e57806311e297381461034357806313d5f201146103635780631e919cb7146103835761029e565b3661029e57005b3480156102aa57600080fd5b506102df60405180604001604052806013815260200172696e2066616c6c6261636b206f6620636f726560681b81525061085b565b005b3480156102ed57600080fd5b506102f66108a1565b604051610303919061392d565b60405180910390f35b34801561031857600080fd5b506103216108b0565b6040516103039190614275565b34801561033a57600080fd5b506103216108b6565b34801561034f57600080fd5b506102df61035e366004613697565b6108bc565b34801561036f57600080fd5b506102df61037e366004613521565b61098d565b34801561038f57600080fd5b5061032161039e366004613521565b6109db565b3480156103af57600080fd5b506102df6103be366004613697565b6109ed565b3480156103cf57600080fd5b506102f6610a3e565b3480156103e457600080fd5b506102df6103f3366004613559565b610a4d565b34801561040457600080fd5b50610321610b23565b34801561041957600080fd5b506102df610b29565b34801561042e57600080fd5b506102f661043d366004613775565b610bc3565b34801561044e57600080fd5b506102df61045d366004613521565b610be5565b34801561046e57600080fd5b506102df61047d3660046135f4565b610c62565b34801561048e57600080fd5b506104a261049d366004613559565b610d9f565b60405161030391906139bd565b3480156104bb57600080fd5b506102df6104ca366004613521565b610dd2565b3480156104db57600080fd5b506102f66104ea3660046138b5565b610e1d565b3480156104fb57600080fd5b50610321610e38565b34801561051057600080fd5b506102f6610e3e565b34801561052557600080fd5b50610321610e4d565b34801561053a57600080fd5b506102df610e53565b34801561054f57600080fd5b50610321610ef7565b34801561056457600080fd5b506102f6610efd565b34801561057957600080fd5b50610321610588366004613521565b610f0c565b34801561059957600080fd5b506102df61122a565b3480156105ae57600080fd5b506102df6105bd3660046135f4565b611451565b3480156105ce57600080fd5b506105e26105dd366004613521565b611544565b6040516103039a99989796959493929190613a34565b34801561060457600080fd5b506103216106133660046136ea565b611594565b34801561062457600080fd5b50610321610633366004613657565b611738565b34801561064457600080fd5b506102df610653366004613735565b611875565b34801561066457600080fd5b506103216118dd565b34801561067957600080fd5b506102f66106883660046136ea565b6118e3565b34801561069957600080fd5b506102df6106a8366004613810565b61190f565b3480156106b957600080fd5b506106cd6106c8366004613521565b6119ec565b604051610303969594939291906139c8565b3480156106eb57600080fd5b506102df611a28565b34801561070057600080fd5b5061032161070f3660046136ea565b611aab565b34801561072057600080fd5b5061032161072f3660046136ea565b611b93565b34801561074057600080fd5b50610321611bce565b34801561075557600080fd5b50610321610764366004613521565b611bd4565b34801561077557600080fd5b506102df610784366004613521565b611be6565b34801561079557600080fd5b506102f66107a43660046138b5565b611c86565b3480156107b557600080fd5b50610321611ca1565b3480156107ca57600080fd5b506103216107d9366004613657565b611ca7565b3480156107ea57600080fd5b50610321611dd3565b6102df611f9a565b34801561080757600080fd5b506104a2610816366004613591565b612004565b34801561082757600080fd5b506102df610836366004613832565b6121b8565b34801561084757600080fd5b506102df610856366004613697565b612327565b61089e8160405160240161086f9190613a21565b60408051601f198184030181529190526020810180516001600160e01b031663104c13eb60e21b179052612402565b50565b600b546001600160a01b031681565b600f5481565b60115481565b3360008181526005602052604090205462010000900460ff16151560011480156108ee5750336001600160a01b038216145b806109155750600c546001600160a01b03163314801561091557506001600160a01b038116155b61093a5760405162461bcd60e51b8152600401610931906140f7565b60405180910390fd5b836001600160a01b0316336001600160a01b03167fcc2b84a32bce3d060db75a4c0e59bfef192503be5c83bfa5ad79a41d384ff22c858560405161097f9291906139f2565b60405180910390a350505050565b600c546001600160a01b031633146109b75760405162461bcd60e51b815260040161093190613d24565b6001600160a01b03166000908152600260205260409020805460ff19166001179055565b60076020526000908152604090205481565b826001600160a01b03167fdd0f9713dcb5498a41e3486b288bc746b035efb57770050da0ec0e800154532c8383604051610a289291906139f2565b60405180910390a2610a3983612423565b505050565b600a546001600160a01b031681565b6001600160a01b038216600090815260056020526040902054829062010000900460ff1615156001148015610aa057506001600160a01b038116600090815260036020526040902054610100900460ff16155b610abc5760405162461bcd60e51b815260040161093190613b98565b6001600160a01b03808316600090815260056020908152604080832093871683526006909301905220548390839060ff1615610b0a5760405162461bcd60e51b815260040161093190613b23565b610b126125bd565b610b1c85856125f7565b5050505050565b60155481565b600c546001600160a01b03163314610b535760405162461bcd60e51b815260040161093190613d24565b601454600a54610b74906001600160a01b031630338463ffffffff6127e216565b6000601455600a5460405133917f2717ead6b9200dd235aad468c9809ea400fe33ac69b5bfaa6d3e90fc922b639891610bb8916001600160a01b031690859061397f565b60405180910390a250565b6000815160401415610bdc575080516020820120610be0565b5060005b919050565b6001600160a01b038116600090815260056020526040902054819062010000900460ff1615156001148015610c3857506001600160a01b038116600090815260036020526040902054610100900460ff16155b610c545760405162461bcd60e51b815260040161093190613b98565b610c5e82336125f7565b5050565b6001600160a01b038416600090815260056020526040902054849062010000900460ff1615156001148015610cb557506001600160a01b038116600090815260036020526040902054610100900460ff16155b610cd15760405162461bcd60e51b815260040161093190613b98565b6001600160a01b03808516600090815260056020908152604080832093891683526006909301905220548590859060ff1615610d1f5760405162461bcd60e51b815260040161093190613b23565b610d276125bd565b6001600160a01b038616600090815260056020526040902054610100900460ff16610d8c57610d8c3386868080601f01602080910402602001604051908101604052809392919081815260200183838082843760009201919091525061283a92505050565b610d9687876125f7565b50505050505050565b6001600160a01b039081166000908152600360209081526040808320949093168252600990930190925290205460ff1690565b600c546001600160a01b03163314610dfc5760405162461bcd60e51b815260040161093190613d24565b6001600160a01b03166000908152600260205260409020805460ff19169055565b6006602052600090815260409020546001600160a01b031681565b600d5481565b600c546001600160a01b031681565b60105481565b600c546001600160a01b03163314610e7d5760405162461bcd60e51b815260040161093190613d24565b600c5460405147916001600160a01b03169082156108fc029083906000818181858888f19350505050158015610eb7573d6000803e3d6000fd5b50600a5460405133917f2717ead6b9200dd235aad468c9809ea400fe33ac69b5bfaa6d3e90fc922b639891610bb8916001600160a01b031690859061397f565b600e5481565b6009546001600160a01b031681565b6001600160a01b038116600090815260056020526040812054829062010000900460ff161515600114610f515760405162461bcd60e51b8152600401610931906140f7565b82336001600160a01b0382168114801590610f9a57506001600160a01b038083166000908152600360209081526040808320938516835260099093019052205460ff1615156001145b610fb65760405162461bcd60e51b8152600401610931906141ae565b3360008181526005602090815260408083206001600160a01b038a168452600681019092528220805460ff1916600117905590955090610ff890879043611ca7565b6001600160a01b03878116600090815260048401602081815260408084208054600289018054875260058a0180865284882054891688529585528387208290558054875294909352818520549285528185208054939096166001600160a01b0319938416179095559383905581548352929091208054909216909155549095506110839060016128e5565b6002828101919091556001600160a01b038781166000908152600360209081526040808320338452600981018352818420805460ff19169055600a8101808452828520805497830180548752600b840180875285882054891688529286528487208990558054875291909452828520549685528285208054979096166001600160a01b031997881617909555918390558354835290912080549093169092555461112e9060016128e5565b60028201556001600160a01b0387166000908152600360208190526040822060048101549181015460059091015461116893929190612912565b6001600160a01b038a1660009081526003602081905260409091206005810192909255810191909155600401556001815460ff1660038111156111a757fe5b14806111c257506002815460ff1660038111156111c057fe5b145b806111dc57506003815460ff1660038111156111da57fe5b145b156111ea576111ea866129e9565b60405133906001600160a01b038916907f9d3d878d2fb01c43ad7ec7c20d8f5d0dbac4888df940a4edaab4540ccefdc10290600090a35050505050919050565b3060009081526005602052604090205462010000900460ff16156112605760405162461bcd60e51b815260040161093190613af4565b600a5460195460405163095ea7b360e01b81526001600160a01b039092169163095ea7b3916112949130919060040161397f565b602060405180830381600087803b1580156112ae57600080fd5b505af11580156112c2573d6000803e3d6000fd5b505050506040513d601f19601f820116820180604052508101906112e69190613715565b50601954600a54604051636eb1769f60e11b81526001600160a01b039091169063dd62ed3e9061131c9033903090600401613941565b60206040518083038186803b15801561133457600080fd5b505afa158015611348573d6000803e3d6000fd5b505050506040513d601f19601f8201168201806040525081019061136c91906138cd565b101561138a5760405162461bcd60e51b815260040161093190613cf8565b600a546019546040516323b872dd60e01b81526001600160a01b03909216916323b872dd916113bf913391309160040161395b565b602060405180830381600087803b1580156113d957600080fd5b505af11580156113ed573d6000803e3d6000fd5b505050506040513d601f19601f820116820180604052508101906114119190613715565b506001306001600160a01b03166000805160206142cc83398151915260405161143990613c64565b60405180910390a361144f306001601954612be0565b565b3360008181526005602052604090205462010000900460ff16151560011480156114835750336001600160a01b038216145b806114aa5750600c546001600160a01b0316331480156114aa57506001600160a01b038116155b6114c65760405162461bcd60e51b8152600401610931906140f7565b600c546001600160a01b031633146114f05760405162461bcd60e51b815260040161093190613d24565b836001600160a01b0316856001600160a01b03167fcc2b84a32bce3d060db75a4c0e59bfef192503be5c83bfa5ad79a41d384ff22c85856040516115359291906139f2565b60405180910390a35050505050565b600360208190526000918252604090912080546001820154600283015493830154600484015460058501546006860154600787015460089097015460ff808816996101009098041697959695908a565b6001600160a01b038216600090815260056020526040812054839060ff1615156001146115d35760405162461bcd60e51b8152600401610931906140c7565b6001600160a01b038416600090815260056020526040812060020154905b8181101561172f5760016001600160a01b038088166000908152600560208181526040808420878552909201815281832054909316825260039283905290205460ff169081111561163e57fe5b148061168c575060026001600160a01b038088166000908152600560208181526040808420878552909201815281832054909316825260039283905290205460ff169081111561168a57fe5b145b806116d757506001600160a01b038681166000908152600560208181526040808420868552909201815281832054909316825260039283905290205460ff16818111156116d557fe5b145b15611727576001600160a01b0380871660009081526005602081815260408084208685529092019052812054909161171191168888611ca7565b9050611723858263ffffffff612bf416565b9450505b6001016115f1565b50505092915050565b6001600160a01b038084166000908152600360209081526040808320938616835260099093019052908120548490849060ff16151560011461178c5760405162461bcd60e51b815260040161093190614090565b6001600160a01b0380871660009081526003602090815260408083209389168352600c9093019052908120546117c990869063ffffffff6128e516565b6001600160a01b03881660009081526003602081905260408220908101546005909101549293509161180290889063ffffffff6128e516565b6001600160a01b038a1660009081526003602052604081206004015491925090611832908363ffffffff612c2016565b9050611867611847848363ffffffff612bf416565b60185461185b90879063ffffffff612c2016565b9063ffffffff612c5a16565b9a9950505050505050505050565b3360009081526005602052604090205460ff6101009091041615156001141561189d57610c5e565b610c5e3383838080601f01602080910402602001604051908101604052809392919081815260200183838082843760009201919091525061283a92505050565b60145481565b6001600160a01b039182166000908152600360209081526040808320938352600b909301905220541690565b600c5433906001600160a01b031681148061194757506001600160a01b03811660009081526002602052604090205460ff1615156001145b6119635760405162461bcd60e51b815260040161093190613cb4565b83600281600381111561197257fe5b14806119895750600381600381111561198757fe5b145b6119a55760405162461bcd60e51b815260040161093190614005565b8460038111156119b157fe5b336001600160a01b03166000805160206142cc83398151915286866040516119da9291906139f2565b60405180910390a3610b1c3386612c8c565b600560205260009081526040902080546001820154600283015460039093015460ff808416946101008504821694620100009004909116929186565b3360008181526005602052604090205462010000900460ff1615156001148015611a7057506001600160a01b038116600090815260036020526040902054610100900460ff16155b611a8c5760405162461bcd60e51b815260040161093190613b98565b50336000908152600360205260409020805461ff001916610100179055565b6001600160a01b0382166000908152600360205260408120600601548190611ada90849063ffffffff6128e516565b6001600160a01b0385166000908152600360205260408120600801546010546012546011549495509193909290611b1890889063ffffffff6128e516565b600f549091506000611b40611b33848463ffffffff612c2016565b859063ffffffff612c2016565b90506000611b54868363ffffffff612bf416565b90506000611b68898963ffffffff612c2016565b9050611b838261185b60185484612c2090919063ffffffff16565b9c9b505050505050505050505050565b6001600160a01b039182166000908152600360209081526040808320938352600b84018252808320549094168252600a909201909152205490565b60135481565b60086020526000908152604090205481565b600c546001600160a01b03163314611c105760405162461bcd60e51b815260040161093190613d24565b6001600160a01b038116611c365760405162461bcd60e51b815260040161093190614033565b600c546001600160a01b0382811691161415611c645760405162461bcd60e51b815260040161093190613da4565b600c80546001600160a01b0319166001600160a01b0392909216919091179055565b6004602052600090815260409020546001600160a01b031681565b60125481565b6001600160a01b038084166000908152600360209081526040808320938616835260099093019052908120548490849060ff161515600114611cfb5760405162461bcd60e51b815260040161093190614090565b60016001600160a01b03871660009081526003602081905260409091205460ff1690811115611d2657fe5b1480611d5a575060026001600160a01b03871660009081526003602081905260409091205460ff1690811115611d5857fe5b145b80611d8b57506001600160a01b03861660009081526003602081905260409091205460ff1681811115611d8957fe5b145b15611dca576000611d9c8786611aab565b90506000611dab888888611738565b601854909150611dc59061185b848463ffffffff612c2016565b945050505b50509392505050565b3360008181526005602052604081205490919060ff161515600114611e0a5760405162461bcd60e51b8152600401610931906140c7565b60009150815b33600090815260056020526040902060020154811015611f8c5733600090815260056020818152604080842085855290920190529020546001600160a01b031660016001600160a01b03821660009081526003602081905260409091205460ff1690811115611e7b57fe5b1480611eaf575060026001600160a01b03821660009081526003602081905260409091205460ff1690811115611ead57fe5b145b80611ee057506001600160a01b03811660009081526003602081905260409091205460ff1681811115611ede57fe5b145b15611f83576001600160a01b0381166000818152600360208181526040808420338552600c810183529084204390559390925290819052600482015490820154600590920154611f339260029291612912565b6001600160a01b03841660009081526003602081905260408220600581019390935582019290925560040191909155611f6d823343611ca7565b9050611f7f858263ffffffff612bf416565b9450505b50600101611e10565b50611f96826129e9565b5090565b66038d7ea4c68000341015611fc15760405162461bcd60e51b815260040161093190613b52565b336001600160a01b03167f5d8bc849764969eb1bcc6d0a2f55999d0167c1ccec240a4f39cf664ca9c4148e34604051611ffa9190614275565b60405180910390a2565b60008054610100900460ff168061201e575061201e612d6a565b8061202c575060005460ff16155b6120485760405162461bcd60e51b815260040161093190613f0f565b600054610100900460ff16158015612073576000805460ff1961ff0019909116610100171660011790555b600c80546001600160a01b03199081166001600160a01b038a811691909117928390556009805483168a8316179055600a80548316898316179055600b805490921687821617909155601585905567016345785d8a00006017556802b5e3af16b18800006019556a0a56fa5b99019a5c800000601655629896806018556000600d819055600e819055600f819055601081905560118190556012819055601381905560148190556040519092909116906000805160206142cc8339815191529061213c90613c14565b60405180910390a3600c5461215c906001600160a01b0316600080612d7b565b6000806001600160a01b03166000805160206142cc83398151915260405161218390614127565b60405180910390a36121986000806000612d7b565b6001915080156121ae576000805461ff00191690555b5095945050505050565b3360009081526005602052604090205462010000900460ff16156121ee5760405162461bcd60e51b815260040161093190613a88565b8460028160038111156121fd57fe5b14806122145750600381600381111561221257fe5b145b6122305760405162461bcd60e51b815260040161093190614005565b600c5433906001600160a01b031681148061226857506001600160a01b03811660009081526002602052604090205460ff1615156001145b6122845760405162461bcd60e51b815260040161093190613cb4565b86600381111561229057fe5b336001600160a01b03166000805160206142cc83398151915288886040516122b99291906139f2565b60405180910390a333600090815260056020526040902054610100900460ff1661231d5761231d3385858080601f01602080910402602001604051908101604052809392919081815260200183838082843760009201919091525061283a92505050565b610d963388612c8c565b6001600160a01b038316600090815260056020526040902054839062010000900460ff161515600114801561237a57506001600160a01b038116600090815260036020526040902054610100900460ff16155b6123965760405162461bcd60e51b815260040161093190613b98565b33600090815260056020526040902054610100900460ff166123f2576123f23384848080601f01602080910402602001604051908101604052809392919081815260200183838082843760009201919091525061283a92505050565b6123fc84336125f7565b50505050565b80516a636f6e736f6c652e6c6f67602083016000808483855afa5050505050565b6001600160a01b038116600090815260056020526040902054819062010000900460ff16151560011480156124605750336001600160a01b038216145b806124875750600c546001600160a01b03163314801561248757506001600160a01b038116155b6124a35760405162461bcd60e51b8152600401610931906140f7565b6001600160a01b038216600090815260056020526040902054829062010000900460ff16151560011480156124f657506001600160a01b038116600090815260036020526040902054610100900460ff16155b6125125760405162461bcd60e51b815260040161093190613b98565b600c546001600160a01b03163314801561255d5750600c546001600160a01b038481169116148061254a57506001600160a01b038316155b8061255d57506001600160a01b03831630145b15612567576125a2565b6001600160a01b0383166000908152600360205260409020600201546001146125a25760405162461bcd60e51b815260040161093190613abf565b50503360009081526003602052604090204360079091015550565b601754600a546125e2916001600160a01b03909116903390309063ffffffff6127e216565b60175460145461089e9163ffffffff612bf416565b6001600160a01b03808316600090815260036020908152604080832093851683526009909301905220548290829060ff16156126455760405162461bcd60e51b815260040161093190613f8d565b61264e83612f31565b506001600160a01b038084166000908152600560208181526040808420948916808552600383528185206002870180546004890186528488208190558752948701909352932080546001600160a01b031916909317909255546126b890600163ffffffff612bf416565b600280840191909155810180546001600160a01b0387166000818152600a850160209081526040808320859055938252600b860190529190912080546001600160a01b03191690911790555461271590600163ffffffff612bf416565b60028201556001600160a01b038086166000908152600c830160209081526040808320439055600985018252808320805460ff19166001908117909155938a16835260039182905290912060048101549181015460059091015461277b93929190612912565b6001600160a01b03808a166000818152600360208190526040808320600581019690965590850195909555600490930194909455915191881692917f5ffe3cc8f1055f172e55be8d832143a6cffb4cb3a56a18bf780fd4112d4cecc79190a3505050505050565b6123fc846323b872dd60e01b8585856040516024016128039392919061395b565b60408051601f198184030181529190526020810180516001600160e01b03166001600160e01b031990931692909217909152612fc2565b61284382612f31565b50600061284f82610bc3565b9050806001600160a01b0316836001600160a01b031614156128cd576001600160a01b03811660008181526005602052604090819020805461ff001916610100179055517fb3ec32f104accdf61583b5b94e7b80414c5dc5845ffc42e00f5f19775a358a0a906128c0908590613a21565b60405180910390a2610a39565b60405162461bcd60e51b815260040161093190613e58565b6000828211156129075760405162461bcd60e51b815260040161093190613d6d565b508082035b92915050565b600080808580600189600281111561292657fe5b14156129445761293d82600163ffffffff612bf416565b915061299a565b600089600281111561295257fe5b14156129695761293d82600163ffffffff6128e516565b600289600281111561297757fe5b14156129825761299a565b60405162461bcd60e51b815260040161093190613f5d565b60006129ac438863ffffffff6128e516565b905060006129c0838363ffffffff612c2016565b905060006129d48a8363ffffffff612bf416565b949c949b50439a509398505050505050505050565b60026001541415612a0c5760405162461bcd60e51b81526004016109319061423e565b6002600155600b546040516370a0823160e01b81526000916001600160a01b0316906370a0823190612a4290309060040161392d565b60206040518083038186803b158015612a5a57600080fd5b505afa158015612a6e573d6000803e3d6000fd5b505050506040513d601f19601f82011682018060405250810190612a9291906138cd565b90506000612aab601354836128e590919063ffffffff16565b90506000612abf828563ffffffff612c2016565b90506000612ad860185483612c5a90919063ffffffff16565b601354909150612aee908263ffffffff6128e516565b60135533600090815260076020526040902054612b11908263ffffffff612bf416565b336000818152600760205260409081902092909255600b54915163a9059cbb60e01b81526001600160a01b039092169163a9059cbb91612b5591859060040161397f565b602060405180830381600087803b158015612b6f57600080fd5b505af1158015612b83573d6000803e3d6000fd5b505050506040513d601f19601f82011682018060405250810190612ba79190613715565b50604051819033907ff9984c8173c4b4ff9cc454f76ed19c053f4490ccb224fd9ddffeb4ef4bea353090600090a3505060018055505050565b612be981613051565b610a39838383612d7b565b600082820183811015612c195760405162461bcd60e51b815260040161093190613bdd565b9392505050565b600082612c2f5750600061290c565b82820282848281612c3c57fe5b0414612c195760405162461bcd60e51b815260040161093190613fc4565b6000808211612c7b5760405162461bcd60e51b815260040161093190613e8f565b818381612c8457fe5b049392505050565b600a54604051636eb1769f60e11b81526000916001600160a01b03169063dd62ed3e90612cbf9086903090600401613941565b60206040518083038186803b158015612cd757600080fd5b505afa158015612ceb573d6000803e3d6000fd5b505050506040513d601f19601f82011682018060405250810190612d0f91906138cd565b90506019548110158015612d2557506016548111155b612d415760405162461bcd60e51b815260040161093190613ec6565b600a54612d5f906001600160a01b031684308463ffffffff6127e216565b610a39838383612be0565b6000612d7530613257565b15905090565b6000612d8684612f31565b90506000612da560195461185b60185486612c2090919063ffffffff16565b6001600160a01b0386166000908152600560209081526040808320805462ff0000191662010000179055600391829052909120600181810187905581549394508793919260ff19909216918490811115612dfb57fe5b02179055506001600160a01b038516600081815260036020908152604080832043600682018190556007820155600801859055600d80548452600490925290912080546001600160a01b03191690921790915554612e6090600163ffffffff612bf416565b600d556001846003811115612e7157fe5b1480612e8857506002846003811115612e8657fe5b145b80612e9e57506003846003811115612e9c57fe5b145b15612ec757612eba600182601254600f5460105460115461325d565b601155601055600f556012555b81158015612edd57506001600160a01b03851615155b15612ef857600c54612ef8906001600160a01b0316866125f7565b6001600160a01b03851615612f1257612f126000866125f7565b600c546001600160a01b03868116911614610b1c57610b1c85866125f7565b6001600160a01b03811660009081526005602052604081205460ff1615612f5a57506001610be0565b6001600160a01b038216600081815260056020908152604080832043600180830191909155815460ff19168117909155600e805485526006909352922080546001600160a01b0319169093179092559054612fba9163ffffffff612bf416565b600e55919050565b6060613017826040518060400160405280602081526020017f5361666545524332303a206c6f772d6c6576656c2063616c6c206661696c6564815250856001600160a01b03166133c99092919063ffffffff16565b805190915015610a3957808060200190518101906130359190613715565b610a395760405162461bcd60e51b8152600401610931906141f4565b601354613064908263ffffffff612bf416565b60135560095460408051630261bf8b60e01b815290516001600160a01b03909216916000918391630261bf8b91600480820192602092909190829003018186803b1580156130b157600080fd5b505afa1580156130c5573d6000803e3d6000fd5b505050506040513d601f19601f820116820180604052508101906130e9919061353d565b9050600a60009054906101000a90046001600160a01b03166001600160a01b031663095ea7b3836001600160a01b031663ed6ff7606040518163ffffffff1660e01b815260040160206040518083038186803b15801561314857600080fd5b505afa15801561315c573d6000803e3d6000fd5b505050506040513d601f19601f82011682018060405250810190613180919061353d565b856040518363ffffffff1660e01b815260040161319e92919061397f565b602060405180830381600087803b1580156131b857600080fd5b505af11580156131cc573d6000803e3d6000fd5b505050506040513d601f19601f820116820180604052508101906131f09190613715565b50600a54601554604051636968703360e11b81526001600160a01b038085169363d2d0e066936132299391909216918891600401613998565b600060405180830381600087803b15801561324357600080fd5b505af1158015610d96573d6000803e3d6000fd5b3b151590565b60008080808780828960018e600281111561327457fe5b14156132b65761328b84600163ffffffff612bf416565b935061329d818463ffffffff612c2016565b91506132af828e63ffffffff612bf416565b9150613334565b60008e60028111156132c457fe5b14156132ff576132db84600163ffffffff6128e516565b93506132ed818463ffffffff612c2016565b91506132af828e63ffffffff6128e516565b60028e600281111561330d57fe5b14156129825761329d61332784600163ffffffff6128e516565b829063ffffffff612c2016565b836000613347438c63ffffffff6128e516565b9050600061335b858863ffffffff612c5a16565b90508c6000613370858563ffffffff612c2016565b90506000613384828563ffffffff612c2016565b9050613396838263ffffffff612bf416565b925085600114156133a657600092505b899d50839c50829b50439a50505050505050505050509650965096509692505050565b60606133d884846000856133e0565b949350505050565b6060824710156134025760405162461bcd60e51b815260040161093190613e12565b61340b85613257565b6134275760405162461bcd60e51b815260040161093190614177565b60006060866001600160a01b031685876040516134449190613911565b60006040518083038185875af1925050503d8060008114613481576040519150601f19603f3d011682016040523d82523d6000602084013e613486565b606091505b50915091506134968282866134a1565b979650505050505050565b606083156134b0575081612c19565b8251156134c05782518084602001fd5b8160405162461bcd60e51b81526004016109319190613a21565b60008083601f8401126134eb578182fd5b50813567ffffffffffffffff811115613502578182fd5b60208301915083602082850101111561351a57600080fd5b9250929050565b600060208284031215613532578081fd5b8135612c19816142b6565b60006020828403121561354e578081fd5b8151612c19816142b6565b6000806040838503121561356b578081fd5b8235613576816142b6565b91506020830135613586816142b6565b809150509250929050565b600080600080600060a086880312156135a8578081fd5b85356135b3816142b6565b945060208601356135c3816142b6565b935060408601356135d3816142b6565b925060608601356135e3816142b6565b949793965091946080013592915050565b60008060008060608587031215613609578384fd5b8435613614816142b6565b93506020850135613624816142b6565b9250604085013567ffffffffffffffff81111561363f578283fd5b61364b878288016134da565b95989497509550505050565b60008060006060848603121561366b578283fd5b8335613676816142b6565b92506020840135613686816142b6565b929592945050506040919091013590565b6000806000604084860312156136ab578283fd5b83356136b6816142b6565b9250602084013567ffffffffffffffff8111156136d1578283fd5b6136dd868287016134da565b9497909650939450505050565b600080604083850312156136fc578182fd5b8235613707816142b6565b946020939093013593505050565b600060208284031215613726578081fd5b81518015158114612c19578182fd5b60008060208385031215613747578182fd5b823567ffffffffffffffff81111561375d578283fd5b613769858286016134da565b90969095509350505050565b600060208284031215613786578081fd5b813567ffffffffffffffff8082111561379d578283fd5b81840185601f8201126137ae578384fd5b80359250818311156137be578384fd5b604051601f8401601f1916810160200183811182821017156137de578586fd5b6040528381528184016020018710156137f5578485fd5b61380684602083016020850161427e565b9695505050505050565b600080600060408486031215613824578283fd5b8335600481106136b6578384fd5b600080600080600060608688031215613849578283fd5b853560048110613857578384fd5b9450602086013567ffffffffffffffff80821115613873578485fd5b61387f89838a016134da565b90965094506040880135915080821115613897578283fd5b506138a4888289016134da565b969995985093965092949392505050565b6000602082840312156138c6578081fd5b5035919050565b6000602082840312156138de578081fd5b5051919050565b600081518084526138fd81602086016020860161428a565b601f01601f19169290920160200192915050565b6000825161392381846020870161428a565b9190910192915050565b6001600160a01b0391909116815260200190565b6001600160a01b0392831681529116602082015260400190565b6001600160a01b039384168152919092166020820152604081019190915260600190565b6001600160a01b03929092168252602082015260400190565b6001600160a01b03939093168352602083019190915261ffff16604082015260600190565b901515815260200190565b9515158652931515602086015291151560408501526060840152608083015260a082015260c00190565b60006020825282602083015282846040840137818301604090810191909152601f909201601f19160101919050565b600060208252612c1960208301846138e5565b610140810160048c10613a4357fe5b9a815298151560208a015260408901979097526060880195909552608087019390935260a086019190915260c085015260e08401526101008301526101209091015290565b6020808252601c908201527f5573657220616c72656164792061204368616e6e656c204f776e657200000000604082015260600190565b6020808252818101527f4368616e6e656c206861732065787465726e616c207375627363726962657273604082015260600190565b60208082526015908201527421b7b73a3930b1ba103430b990283937b6b7ba32b960591b604082015260600190565b60208082526015908201527410da185b9b995b081a5cc819dc985e5b1a5cdd1959605a1b604082015260600190565b60208082526026908201527f4d696e696d756d20446f6e6174696f6e20616d6f756e7420697320302e3030316040820152651032ba3432b960d11b606082015260800190565b60208082526025908201527f4368616e6e656c206465616374697661746564206f7220646f65736e27742065604082015264786973747360d81b606082015260800190565b6020808252601b908201527f536166654d6174683a206164646974696f6e206f766572666c6f770000000000604082015260600190565b60208082526030908201527f312b516d5362525431364a56463932327941423236597857464436446d47736e60408201526f14d21b4e15909c91d5545b961514cdcd60821b606082015260800190565b60208082526030908201527f312b516d526365776e4e70647432445759757564334c784854776f783252715160408201526f1c3abcad2ba2251b32ac9b34a435b33760811b606082015260800190565b60208082526024908201527f55736572206e6f7420696e204368616e6e656c697a6174696f6e2057686974656040820152631b1a5cdd60e21b606082015260800190565b602080825260129082015271496e73756666696369656e742046756e647360701b604082015260600190565b60208082526029908201527f45504e53436f72653a3a6f6e6c79476f762c2075736572206973206e6f7420676040820152686f7665726e616e636560b81b606082015260800190565b6020808252601e908201527f536166654d6174683a207375627472616374696f6e206f766572666c6f770000604082015260600190565b60208082526048908201527f45504e53436f72653a3a7472616e73666572476f7665726e616e63652c206e6560408201527f7720676f7665726e616e63652063616e27742062652063757272656e7420676f6060820152677665726e616e636560c01b608082015260a00190565b60208082526026908201527f416464726573733a20696e73756666696369656e742062616c616e636520666f6040820152651c8818d85b1b60d21b606082015260800190565b6020808252601c908201527f5075626c6963204b65792056616c69646174696f6e204661696c656400000000604082015260600190565b6020808252601a908201527f536166654d6174683a206469766973696f6e206279207a65726f000000000000604082015260600190565b60208082526029908201527f496e73756666696369656e742046756e6473206f72206d6178206365696c696e60408201526819c81c995858da195960ba1b606082015260800190565b6020808252602e908201527f496e697469616c697a61626c653a20636f6e747261637420697320616c72656160408201526d191e481a5b9a5d1a585b1a5e995960921b606082015260800190565b60208082526016908201527524b73b30b634b21021b430b73732b61020b1ba34b7b760511b604082015260600190565b60208082526019908201527f5375627363726962657220616c72656164792045786973747300000000000000604082015260600190565b60208082526021908201527f536166654d6174683a206d756c7469706c69636174696f6e206f766572666c6f6040820152607760f81b606082015260800190565b60208082526014908201527310da185b9b995b08151e5c1948125b9d985b1a5960621b604082015260600190565b6020808252603a908201527f45504e53436f72653a3a7472616e73666572476f7665726e616e63652c206e6560408201527f7720676f7665726e616e63652063616e2774206265206e6f6e65000000000000606082015260800190565b60208082526019908201527f5375627363726962657220646f65736e27742045786973747300000000000000604082015260600190565b602080825260169082015275155cd95c881b9bdd081858dd1a5d985d1959081e595d60521b604082015260600190565b6020808252601690820152754368616e6e656c20646f65736e27742045786973747360501b604082015260600190565b60208082526030908201527f312b516d54434b594c324852627744366e474e76464c6534775076444e75615960408201526f477236526956654376576a56706e357360801b606082015260800190565b6020808252601d908201527f416464726573733a2063616c6c20746f206e6f6e2d636f6e7472616374000000604082015260600190565b60208082526026908201527f456974686572204368616e6e656c204f776e6572206f72204e6f74205375627360408201526518dc9a58995960d21b606082015260800190565b6020808252602a908201527f5361666545524332303a204552433230206f7065726174696f6e20646964206e6040820152691bdd081cdd58d8d9595960b21b606082015260800190565b6020808252601f908201527f5265656e7472616e637947756172643a207265656e7472616e742063616c6c00604082015260600190565b90815260200190565b82818337506000910152565b60005b838110156142a557818101518382015260200161428d565b838111156123fc5750506000910152565b6001600160a01b038116811461089e57600080fdfe1f97bc77a1686355f130d93883d42f2434474cf65f97b29bc451ea7f9388d36aa2646970667358221220d1d4fb6511a2ae1f2a22489055a7747137c1b9ce9151a4b531b121bc8b8f280764736f6c634300060b0033",
  "linkReferences": {},
  "deployedLinkReferences": {}
}