{"abi":[{"type":"function","name":"ADD_CHANNEL_MIN_FEES","inputs":[],"outputs":[{"name":"","type":"uint256","internalType":"uint256"}],"stateMutability":"view"},{"type":"function","name":"CHANNEL_POOL_FUNDS","inputs":[],"outputs":[{"name":"","type":"uint256","internalType":"uint256"}],"stateMutability":"view"},{"type":"function","name":"FEE_AMOUNT","inputs":[],"outputs":[{"name":"","type":"uint256","internalType":"uint256"}],"stateMutability":"view"},{"type":"function","name":"MIN_POOL_CONTRIBUTION","inputs":[],"outputs":[{"name":"","type":"uint256","internalType":"uint256"}],"stateMutability":"view"},{"type":"function","name":"PROTOCOL_POOL_FEES","inputs":[],"outputs":[{"name":"","type":"uint256","internalType":"uint256"}],"stateMutability":"view"},{"type":"function","name":"PUSH_TOKEN_ADDRESS","inputs":[],"outputs":[{"name":"","type":"address","internalType":"address"}],"stateMutability":"view"},{"type":"function","name":"REFERRAL_CODE","inputs":[],"outputs":[{"name":"","type":"uint256","internalType":"uint256"}],"stateMutability":"view"},{"type":"function","name":"UNISWAP_V2_ROUTER","inputs":[],"outputs":[{"name":"","type":"address","internalType":"address"}],"stateMutability":"view"},{"type":"function","name":"WETH_ADDRESS","inputs":[],"outputs":[{"name":"","type":"address","internalType":"address"}],"stateMutability":"view"},{"type":"function","name":"aDaiAddress","inputs":[],"outputs":[{"name":"","type":"address","internalType":"address"}],"stateMutability":"view"},{"type":"function","name":"channelById","inputs":[{"name":"","type":"uint256","internalType":"uint256"}],"outputs":[{"name":"","type":"address","internalType":"address"}],"stateMutability":"view"},{"type":"function","name":"channelNotifSettings","inputs":[{"name":"","type":"address","internalType":"address"}],"outputs":[{"name":"","type":"string","internalType":"string"}],"stateMutability":"view"},{"type":"function","name":"channels","inputs":[{"name":"","type":"address","internalType":"address"}],"outputs":[{"name":"channelType","type":"uint8","internalType":"enum CoreTypes.ChannelType"},{"name":"channelState","type":"uint8","internalType":"uint8"},{"name":"verifiedBy","type":"address","internalType":"address"},{"name":"poolContribution","type":"uint256","internalType":"uint256"},{"name":"channelHistoricalZ","type":"uint256","internalType":"uint256"},{"name":"channelFairShareCount","type":"uint256","internalType":"uint256"},{"name":"channelLastUpdate","type":"uint256","internalType":"uint256"},{"name":"channelStartBlock","type":"uint256","internalType":"uint256"},{"name":"channelUpdateBlock","type":"uint256","internalType":"uint256"},{"name":"channelWeight","type":"uint256","internalType":"uint256"},{"name":"expiryTime","type":"uint256","internalType":"uint256"}],"stateMutability":"view"},{"type":"function","name":"channelsCount","inputs":[],"outputs":[{"name":"","type":"uint256","internalType":"uint256"}],"stateMutability":"view"},{"type":"function","name":"daiAddress","inputs":[],"outputs":[{"name":"","type":"address","internalType":"address"}],"stateMutability":"view"},{"type":"function","name":"epnsCommunicator","inputs":[],"outputs":[{"name":"","type":"address","internalType":"address"}],"stateMutability":"view"},{"type":"function","name":"governance","inputs":[],"outputs":[{"name":"","type":"address","internalType":"address"}],"stateMutability":"view"},{"type":"function","name":"groupFairShareCount","inputs":[],"outputs":[{"name":"","type":"uint256","internalType":"uint256"}],"stateMutability":"view"},{"type":"function","name":"groupHistoricalZ","inputs":[],"outputs":[{"name":"","type":"uint256","internalType":"uint256"}],"stateMutability":"view"},{"type":"function","name":"groupLastUpdate","inputs":[],"outputs":[{"name":"","type":"uint256","internalType":"uint256"}],"stateMutability":"view"},{"type":"function","name":"groupNormalizedWeight","inputs":[],"outputs":[{"name":"","type":"uint256","internalType":"uint256"}],"stateMutability":"view"},{"type":"function","name":"isMigrationComplete","inputs":[],"outputs":[{"name":"","type":"bool","internalType":"bool"}],"stateMutability":"view"},{"type":"function","name":"lendingPoolProviderAddress","inputs":[],"outputs":[{"name":"","type":"address","internalType":"address"}],"stateMutability":"view"},{"type":"function","name":"name","inputs":[],"outputs":[{"name":"","type":"string","internalType":"string"}],"stateMutability":"view"},{"type":"function","name":"pushChannelAdmin","inputs":[],"outputs":[{"name":"","type":"address","internalType":"address"}],"stateMutability":"view"}],"bytecode":{"object":"0x608060405234801561000f575f80fd5b5061071a8061001d5f395ff3fe608060405234801561000f575f80fd5b506004361061019a575f3560e01c80636d1b6d46116100e8578063c175256f11610093578063e9f365981161006e578063e9f3659814610433578063eea0b5c51461043c578063f029c18c1461044f578063fc6b859b14610484575f80fd5b8063c175256f146103ff578063d712808414610408578063daa947f51461042a575f80fd5b8063a82ed9ec116100c3578063a82ed9ec146103b0578063ad5f1574146103d0578063bd90f815146103d9575f80fd5b80636d1b6d46146102de5780637dce34f7146102fe5780638cfbc3e014610390575f80fd5b80632c3872751161014857806355091fe51161012357806355091fe5146102ac5780635aa6e675146102b557806368a8e5b6146102d5575f80fd5b80632c3872751461027a5780633583849a1461029a5780634def9ef2146102a3575f80fd5b80630ded7731116101785780630ded773114610251578063110e01a814610268578063270dd8a014610271575f80fd5b8063040141e51461019e57806306fdde03146101e8578063098b204114610231575b5f80fd5b6007546101be9073ffffffffffffffffffffffffffffffffffffffff1681565b60405173ffffffffffffffffffffffffffffffffffffffff90911681526020015b60405180910390f35b6102246040518060400160405280600c81526020017f45504e535f434f52455f5632000000000000000000000000000000000000000081525081565b6040516101df919061053b565b6006546101be9073ffffffffffffffffffffffffffffffffffffffff1681565b61025a600f5481565b6040519081526020016101df565b61025a60115481565b61025a60145481565b6005546101be9073ffffffffffffffffffffffffffffffffffffffff1681565b61025a600c5481565b61025a60175481565b61025a600e5481565b6004546101be9073ffffffffffffffffffffffffffffffffffffffff1681565b61025a60105481565b600b546101be9073ffffffffffffffffffffffffffffffffffffffff1681565b61037961030c3660046105a4565b5f6020819052908152604090208054600182015460028301546003840154600485015460058601546006870154600788015460089098015460ff808916996101008a049091169862010000900473ffffffffffffffffffffffffffffffffffffffff16979695949392918b565b6040516101df9b9a999897969594939291906105de565b600a546101be9073ffffffffffffffffffffffffffffffffffffffff1681565b6009546101be9073ffffffffffffffffffffffffffffffffffffffff1681565b61025a60165481565b6003546101be9062010000900473ffffffffffffffffffffffffffffffffffffffff1681565b61025a60155481565b60035461041a90610100900460ff1681565b60405190151581526020016101df565b61025a60125481565b61025a60135481565b61022461044a3660046105a4565b6104a4565b6101be61045d36600461067c565b60016020525f908152604090205473ffffffffffffffffffffffffffffffffffffffff1681565b6008546101be9073ffffffffffffffffffffffffffffffffffffffff1681565b60026020525f9081526040902080546104bc90610693565b80601f01602080910402602001604051908101604052809291908181526020018280546104e890610693565b80156105335780601f1061050a57610100808354040283529160200191610533565b820191905f5260205f20905b81548152906001019060200180831161051657829003601f168201915b505050505081565b5f6020808352835180828501525f5b818110156105665785810183015185820160400152820161054a565b505f6040828601015260407fffffffffffffffffffffffffffffffffffffffffffffffffffffffffffffffe0601f8301168501019250505092915050565b5f602082840312156105b4575f80fd5b813573ffffffffffffffffffffffffffffffffffffffff811681146105d7575f80fd5b9392505050565b610160810160068d10610618577f4e487b71000000000000000000000000000000000000000000000000000000005f52602160045260245ffd5b9b815260ff9a909a1660208b015273ffffffffffffffffffffffffffffffffffffffff9890981660408a01526060890196909652608088019490945260a087019290925260c086015260e08501526101008401526101208301526101409091015290565b5f6020828403121561068c575f80fd5b5035919050565b600181811c908216806106a757607f821691505b6020821081036106de577f4e487b71000000000000000000000000000000000000000000000000000000005f52602260045260245ffd5b5091905056fea2646970667358221220db5fdb071f435c1f9bcb1a40746706da1bb92f8d7579c9f8809678c4e72e857664736f6c63430008140033","linkReferences":{}},"methodIdentifiers":{"ADD_CHANNEL_MIN_FEES()":"c175256f","CHANNEL_POOL_FUNDS()":"e9f36598","FEE_AMOUNT()":"ad5f1574","MIN_POOL_CONTRIBUTION()":"4def9ef2","PROTOCOL_POOL_FEES()":"270dd8a0","PUSH_TOKEN_ADDRESS()":"8cfbc3e0","REFERRAL_CODE()":"3583849a","UNISWAP_V2_ROUTER()":"a82ed9ec","WETH_ADDRESS()":"040141e5","aDaiAddress()":"098b2041","channelById(uint256)":"f029c18c","channelNotifSettings(address)":"eea0b5c5","channels(address)":"7dce34f7","channelsCount()":"55091fe5","daiAddress()":"2c387275","epnsCommunicator()":"fc6b859b","governance()":"5aa6e675","groupFairShareCount()":"daa947f5","groupHistoricalZ()":"68a8e5b6","groupLastUpdate()":"110e01a8","groupNormalizedWeight()":"0ded7731","isMigrationComplete()":"d7128084","lendingPoolProviderAddress()":"6d1b6d46","name()":"06fdde03","pushChannelAdmin()":"bd90f815"},"id":9}