{"abi":[{"type":"function","name":"DOMAIN_TYPEHASH","inputs":[],"outputs":[{"name":"","type":"bytes32","internalType":"bytes32"}],"stateMutability":"view"},{"type":"function","name":"EPNSCoreAddress","inputs":[],"outputs":[{"name":"","type":"address","internalType":"address"}],"stateMutability":"view"},{"type":"function","name":"NAME_HASH","inputs":[],"outputs":[{"name":"","type":"bytes32","internalType":"bytes32"}],"stateMutability":"view"},{"type":"function","name":"PUSH_TOKEN_ADDRESS","inputs":[],"outputs":[{"name":"","type":"address","internalType":"address"}],"stateMutability":"view"},{"type":"function","name":"SEND_NOTIFICATION_TYPEHASH","inputs":[],"outputs":[{"name":"","type":"bytes32","internalType":"bytes32"}],"stateMutability":"view"},{"type":"function","name":"SUBSCRIBE_TYPEHASH","inputs":[],"outputs":[{"name":"","type":"bytes32","internalType":"bytes32"}],"stateMutability":"view"},{"type":"function","name":"UNSUBSCRIBE_TYPEHASH","inputs":[],"outputs":[{"name":"","type":"bytes32","internalType":"bytes32"}],"stateMutability":"view"},{"type":"function","name":"chainID","inputs":[],"outputs":[{"name":"","type":"uint256","internalType":"uint256"}],"stateMutability":"view"},{"type":"function","name":"chainName","inputs":[],"outputs":[{"name":"","type":"string","internalType":"string"}],"stateMutability":"view"},{"type":"function","name":"delegatedNotificationSenders","inputs":[{"name":"","type":"address","internalType":"address"},{"name":"","type":"address","internalType":"address"}],"outputs":[{"name":"","type":"bool","internalType":"bool"}],"stateMutability":"view"},{"type":"function","name":"governance","inputs":[],"outputs":[{"name":"","type":"address","internalType":"address"}],"stateMutability":"view"},{"type":"function","name":"isMigrationComplete","inputs":[],"outputs":[{"name":"","type":"bool","internalType":"bool"}],"stateMutability":"view"},{"type":"function","name":"mapAddressUsers","inputs":[{"name":"","type":"uint256","internalType":"uint256"}],"outputs":[{"name":"","type":"address","internalType":"address"}],"stateMutability":"view"},{"type":"function","name":"name","inputs":[],"outputs":[{"name":"","type":"string","internalType":"string"}],"stateMutability":"view"},{"type":"function","name":"nonces","inputs":[{"name":"","type":"address","internalType":"address"}],"outputs":[{"name":"","type":"uint256","internalType":"uint256"}],"stateMutability":"view"},{"type":"function","name":"pushChannelAdmin","inputs":[],"outputs":[{"name":"","type":"address","internalType":"address"}],"stateMutability":"view"},{"type":"function","name":"userChatData","inputs":[{"name":"","type":"address","internalType":"address"}],"outputs":[{"name":"requestSender","type":"address","internalType":"address"},{"name":"timestamp","type":"uint256","internalType":"uint256"},{"name":"amountDeposited","type":"uint256","internalType":"uint256"}],"stateMutability":"view"},{"type":"function","name":"userToChannelNotifs","inputs":[{"name":"","type":"address","internalType":"address"},{"name":"","type":"address","internalType":"address"}],"outputs":[{"name":"","type":"string","internalType":"string"}],"stateMutability":"view"},{"type":"function","name":"users","inputs":[{"name":"","type":"address","internalType":"address"}],"outputs":[{"name":"userActivated","type":"bool","internalType":"bool"},{"name":"publicKeyRegistered","type":"bool","internalType":"bool"},{"name":"userStartBlock","type":"uint256","internalType":"uint256"},{"name":"subscribedCount","type":"uint256","internalType":"uint256"}],"stateMutability":"view"},{"type":"function","name":"usersCount","inputs":[],"outputs":[{"name":"","type":"uint256","internalType":"uint256"}],"stateMutability":"view"}],"bytecode":{"object":"0x608060405234801561000f575f80fd5b506107328061001d5f395ff3fe608060405234801561000f575f80fd5b5060043610610163575f3560e01c80636ba13a82116100c7578063adc879e91161007d578063d712808411610063578063d7128084146104bc578063e059c6d0146104c9578063f83c7f77146104f0575f80fd5b8063adc879e914610493578063bd90f8151461049c575f80fd5b80637ecebe00116100ad5780637ecebe00146103f85780638cfbc3e014610417578063a87430ba14610437575f80fd5b80636ba13a82146103b25780636e0d232c146103bb575f80fd5b806320606b701161011c57806342564cb41161010257806342564cb4146103135780635227dd051461035d5780635aa6e67514610392575f80fd5b806320606b70146102755780633e5b73c61461029c575f80fd5b806306fdde031161014c57806306fdde03146101fd57806317aeae58146102465780631c93b03a1461026d575f80fd5b8063040e80ed1461016757806304622c2e146101a1575b5f80fd5b61018e7f25283200315ac15e79f5b17ebe844bb8f5facab77bd5c9c8f8d4b592b9949d8981565b6040519081526020015b60405180910390f35b60408051808201909152600c81527f45504e5320434f4d4d205631000000000000000000000000000000000000000060209091015261018e7f7c232e0a8d7516843ab49a97f72ad251bb744a65be4e5bc6de77904d54673db981565b6102396040518060400160405280600c81526020017f45504e5320434f4d4d205631000000000000000000000000000000000000000081525081565b60405161019891906105b2565b61018e7fa3e12f3a1cbc87b63b39a5ed58d9a2941caba455abcd2a654e7800d7c3a69de281565b610239610503565b61018e7f8cad95687ba82c2ce50e74f7b754645e5117c3a5bec8151c0726d5857980a86681565b6102e16102aa366004610643565b600c6020525f908152604090208054600182015460029092015473ffffffffffffffffffffffffffffffffffffffff909116919083565b6040805173ffffffffffffffffffffffffffffffffffffffff9094168452602084019290925290820152606001610198565b60095461033890610100900473ffffffffffffffffffffffffffffffffffffffff1681565b60405173ffffffffffffffffffffffffffffffffffffffff9091168152602001610198565b61033861036b366004610663565b60026020525f908152604090205473ffffffffffffffffffffffffffffffffffffffff1681565b6005546103389073ffffffffffffffffffffffffffffffffffffffff1681565b61018e60085481565b6103e86103c936600461067a565b600460209081525f928352604080842090915290825290205460ff1681565b6040519015158152602001610198565b61018e610406366004610643565b60016020525f908152604090205481565b600b546103389073ffffffffffffffffffffffffffffffffffffffff1681565b610471610445366004610643565b5f6020819052908152604090208054600182015460029092015460ff8083169361010090930416919084565b6040805194151585529215156020850152918301526060820152608001610198565b61018e60075481565b6006546103389073ffffffffffffffffffffffffffffffffffffffff1681565b6009546103e89060ff1681565b61018e7f8d9aa0830ab50a97d876b6b35a987f5043ee4c983259ae5783c506feee3842c581565b6102396104fe36600461067a565b61058f565b600a8054610510906106ab565b80601f016020809104026020016040519081016040528092919081815260200182805461053c906106ab565b80156105875780601f1061055e57610100808354040283529160200191610587565b820191905f5260205f20905b81548152906001019060200180831161056a57829003601f168201915b505050505081565b600360209081525f928352604080842090915290825290208054610510906106ab565b5f6020808352835180828501525f5b818110156105dd578581018301518582016040015282016105c1565b505f6040828601015260407fffffffffffffffffffffffffffffffffffffffffffffffffffffffffffffffe0601f8301168501019250505092915050565b803573ffffffffffffffffffffffffffffffffffffffff8116811461063e575f80fd5b919050565b5f60208284031215610653575f80fd5b61065c8261061b565b9392505050565b5f60208284031215610673575f80fd5b5035919050565b5f806040838503121561068b575f80fd5b6106948361061b565b91506106a26020840161061b565b90509250929050565b600181811c908216806106bf57607f821691505b6020821081036106f6577f4e487b71000000000000000000000000000000000000000000000000000000005f52602260045260245ffd5b5091905056fea2646970667358221220668f5f67b38b047d50035852a8081ccfc717c6436e2fa0307c3ad1c44a6f6fc864736f6c63430008140033","linkReferences":{}},"methodIdentifiers":{"DOMAIN_TYPEHASH()":"20606b70","EPNSCoreAddress()":"42564cb4","NAME_HASH()":"04622c2e","PUSH_TOKEN_ADDRESS()":"8cfbc3e0","SEND_NOTIFICATION_TYPEHASH()":"17aeae58","SUBSCRIBE_TYPEHASH()":"e059c6d0","UNSUBSCRIBE_TYPEHASH()":"040e80ed","chainID()":"adc879e9","chainName()":"1c93b03a","delegatedNotificationSenders(address,address)":"6e0d232c","governance()":"5aa6e675","isMigrationComplete()":"d7128084","mapAddressUsers(uint256)":"5227dd05","name()":"06fdde03","nonces(address)":"7ecebe00","pushChannelAdmin()":"bd90f815","userChatData(address)":"3e5b73c6","userToChannelNotifs(address,address)":"f83c7f77","users(address)":"a87430ba","usersCount()":"6ba13a82"},"id":3}