{"abi":[{"type":"function","name":"ADD_CHANNEL_MIN_FEES","inputs":[],"outputs":[{"name":"","type":"uint256","internalType":"uint256"}],"stateMutability":"view"},{"type":"function","name":"CHANNEL_POOL_FUNDS","inputs":[],"outputs":[{"name":"","type":"uint256","internalType":"uint256"}],"stateMutability":"view"},{"type":"function","name":"CREATE_CHANNEL_TYPEHASH","inputs":[],"outputs":[{"name":"","type":"bytes32","internalType":"bytes32"}],"stateMutability":"view"},{"type":"function","name":"DOMAIN_TYPEHASH","inputs":[],"outputs":[{"name":"","type":"bytes32","internalType":"bytes32"}],"stateMutability":"view"},{"type":"function","name":"FEE_AMOUNT","inputs":[],"outputs":[{"name":"","type":"uint256","internalType":"uint256"}],"stateMutability":"view"},{"type":"function","name":"MIN_POOL_CONTRIBUTION","inputs":[],"outputs":[{"name":"","type":"uint256","internalType":"uint256"}],"stateMutability":"view"},{"type":"function","name":"PROTOCOL_POOL_FEES","inputs":[],"outputs":[{"name":"","type":"uint256","internalType":"uint256"}],"stateMutability":"view"},{"type":"function","name":"PUSH_TOKEN_ADDRESS","inputs":[],"outputs":[{"name":"","type":"address","internalType":"address"}],"stateMutability":"view"},{"type":"function","name":"REFERRAL_CODE","inputs":[],"outputs":[{"name":"","type":"uint256","internalType":"uint256"}],"stateMutability":"view"},{"type":"function","name":"UNISWAP_V2_ROUTER","inputs":[],"outputs":[{"name":"","type":"address","internalType":"address"}],"stateMutability":"view"},{"type":"function","name":"WETH_ADDRESS","inputs":[],"outputs":[{"name":"","type":"address","internalType":"address"}],"stateMutability":"view"},{"type":"function","name":"aDaiAddress","inputs":[],"outputs":[{"name":"","type":"address","internalType":"address"}],"stateMutability":"view"},{"type":"function","name":"addPoolFees","inputs":[{"name":"_rewardAmount","type":"uint256","internalType":"uint256"}],"outputs":[],"stateMutability":"nonpayable"},{"type":"function","name":"addSubGraph","inputs":[{"name":"_subGraphData","type":"bytes","internalType":"bytes"}],"outputs":[],"stateMutability":"nonpayable"},{"type":"function","name":"batchVerification","inputs":[{"name":"_startIndex","type":"uint256","internalType":"uint256"},{"name":"_endIndex","type":"uint256","internalType":"uint256"},{"name":"_channelList","type":"address[]","internalType":"address[]"}],"outputs":[{"name":"","type":"bool","internalType":"bool"}],"stateMutability":"nonpayable"},{"type":"function","name":"blockChannel","inputs":[{"name":"_channelAddress","type":"address","internalType":"address"}],"outputs":[],"stateMutability":"nonpayable"},{"type":"function","name":"calculateEpochRewards","inputs":[{"name":"_user","type":"address","internalType":"address"},{"name":"_epochId","type":"uint256","internalType":"uint256"}],"outputs":[{"name":"rewards","type":"uint256","internalType":"uint256"}],"stateMutability":"view"},{"type":"function","name":"celebUserFunds","inputs":[{"name":"","type":"address","internalType":"address"}],"outputs":[{"name":"","type":"uint256","internalType":"uint256"}],"stateMutability":"view"},{"type":"function","name":"channelById","inputs":[{"name":"","type":"uint256","internalType":"uint256"}],"outputs":[{"name":"","type":"address","internalType":"address"}],"stateMutability":"view"},{"type":"function","name":"channelNotifSettings","inputs":[{"name":"","type":"address","internalType":"address"}],"outputs":[{"name":"","type":"string","internalType":"string"}],"stateMutability":"view"},{"type":"function","name":"channelUpdateCounter","inputs":[{"name":"","type":"address","internalType":"address"}],"outputs":[{"name":"","type":"uint256","internalType":"uint256"}],"stateMutability":"view"},{"type":"function","name":"channels","inputs":[{"name":"","type":"address","internalType":"address"}],"outputs":[{"name":"channelType","type":"uint8","internalType":"enum CoreTypes.ChannelType"},{"name":"channelState","type":"uint8","internalType":"uint8"},{"name":"verifiedBy","type":"address","internalType":"address"},{"name":"poolContribution","type":"uint256","internalType":"uint256"},{"name":"channelHistoricalZ","type":"uint256","internalType":"uint256"},{"name":"channelFairShareCount","type":"uint256","internalType":"uint256"},{"name":"channelLastUpdate","type":"uint256","internalType":"uint256"},{"name":"channelStartBlock","type":"uint256","internalType":"uint256"},{"name":"channelUpdateBlock","type":"uint256","internalType":"uint256"},{"name":"channelWeight","type":"uint256","internalType":"uint256"},{"name":"expiryTime","type":"uint256","internalType":"uint256"}],"stateMutability":"view"},{"type":"function","name":"channelsCount","inputs":[],"outputs":[{"name":"","type":"uint256","internalType":"uint256"}],"stateMutability":"view"},{"type":"function","name":"claimChatIncentives","inputs":[{"name":"_amount","type":"uint256","internalType":"uint256"}],"outputs":[],"stateMutability":"nonpayable"},{"type":"function","name":"createChannelSettings","inputs":[{"name":"_notifOptions","type":"uint256","internalType":"uint256"},{"name":"_notifSettings","type":"string","internalType":"string"},{"name":"_notifDescription","type":"string","internalType":"string"},{"name":"_amountDeposited","type":"uint256","internalType":"uint256"}],"outputs":[],"stateMutability":"nonpayable"},{"type":"function","name":"createChannelWithPUSH","inputs":[{"name":"_channelType","type":"uint8","internalType":"enum CoreTypes.ChannelType"},{"name":"_identity","type":"bytes","internalType":"bytes"},{"name":"_amount","type":"uint256","internalType":"uint256"},{"name":"_channelExpiryTime","type":"uint256","internalType":"uint256"}],"outputs":[],"stateMutability":"nonpayable"},{"type":"function","name":"daiAddress","inputs":[],"outputs":[{"name":"","type":"address","internalType":"address"}],"stateMutability":"view"},{"type":"function","name":"daoHarvestPaginated","inputs":[{"name":"_tillEpoch","type":"uint256","internalType":"uint256"}],"outputs":[],"stateMutability":"nonpayable"},{"type":"function","name":"deactivateChannel","inputs":[],"outputs":[],"stateMutability":"nonpayable"},{"type":"function","name":"destroyTimeBoundChannel","inputs":[{"name":"_channelAddress","type":"address","internalType":"address"}],"outputs":[],"stateMutability":"nonpayable"},{"type":"function","name":"epnsCommunicator","inputs":[],"outputs":[{"name":"","type":"address","internalType":"address"}],"stateMutability":"view"},{"type":"function","name":"epochDuration","inputs":[],"outputs":[{"name":"","type":"uint256","internalType":"uint256"}],"stateMutability":"view"},{"type":"function","name":"epochRewards","inputs":[{"name":"","type":"uint256","internalType":"uint256"}],"outputs":[{"name":"","type":"uint256","internalType":"uint256"}],"stateMutability":"view"},{"type":"function","name":"epochToTotalStakedWeight","inputs":[{"name":"","type":"uint256","internalType":"uint256"}],"outputs":[{"name":"","type":"uint256","internalType":"uint256"}],"stateMutability":"view"},{"type":"function","name":"feePoolStakingContract","inputs":[],"outputs":[{"name":"","type":"address","internalType":"address"}],"stateMutability":"view"},{"type":"function","name":"genesisEpoch","inputs":[],"outputs":[{"name":"","type":"uint256","internalType":"uint256"}],"stateMutability":"view"},{"type":"function","name":"getChannelVerfication","inputs":[{"name":"_channel","type":"address","internalType":"address"}],"outputs":[{"name":"verificationStatus","type":"uint8","internalType":"uint8"}],"stateMutability":"view"},{"type":"function","name":"governance","inputs":[],"outputs":[{"name":"","type":"address","internalType":"address"}],"stateMutability":"view"},{"type":"function","name":"groupFairShareCount","inputs":[],"outputs":[{"name":"","type":"uint256","internalType":"uint256"}],"stateMutability":"view"},{"type":"function","name":"groupHistoricalZ","inputs":[],"outputs":[{"name":"","type":"uint256","internalType":"uint256"}],"stateMutability":"view"},{"type":"function","name":"groupLastUpdate","inputs":[],"outputs":[{"name":"","type":"uint256","internalType":"uint256"}],"stateMutability":"view"},{"type":"function","name":"groupNormalizedWeight","inputs":[],"outputs":[{"name":"","type":"uint256","internalType":"uint256"}],"stateMutability":"view"},{"type":"function","name":"handleChatRequestData","inputs":[{"name":"requestSender","type":"address","internalType":"address"},{"name":"requestReceiver","type":"address","internalType":"address"},{"name":"amount","type":"uint256","internalType":"uint256"}],"outputs":[],"stateMutability":"nonpayable"},{"type":"function","name":"harvestAll","inputs":[],"outputs":[],"stateMutability":"nonpayable"},{"type":"function","name":"harvestPaginated","inputs":[{"name":"_tillEpoch","type":"uint256","internalType":"uint256"}],"outputs":[],"stateMutability":"nonpayable"},{"type":"function","name":"initialize","inputs":[{"name":"_pushChannelAdmin","type":"address","internalType":"address"},{"name":"_pushTokenAddress","type":"address","internalType":"address"},{"name":"_wethAddress","type":"address","internalType":"address"},{"name":"_uniswapRouterAddress","type":"address","internalType":"address"},{"name":"_lendingPoolProviderAddress","type":"address","internalType":"address"},{"name":"_daiAddress","type":"address","internalType":"address"},{"name":"_aDaiAddress","type":"address","internalType":"address"},{"name":"_referralCode","type":"uint256","internalType":"uint256"}],"outputs":[{"name":"success","type":"bool","internalType":"bool"}],"stateMutability":"nonpayable"},{"type":"function","name":"initializeStake","inputs":[],"outputs":[],"stateMutability":"nonpayable"},{"type":"function","name":"isMigrationComplete","inputs":[],"outputs":[{"name":"","type":"bool","internalType":"bool"}],"stateMutability":"view"},{"type":"function","name":"lastEpochRelative","inputs":[{"name":"_from","type":"uint256","internalType":"uint256"},{"name":"_to","type":"uint256","internalType":"uint256"}],"outputs":[{"name":"","type":"uint256","internalType":"uint256"}],"stateMutability":"view"},{"type":"function","name":"lendingPoolProviderAddress","inputs":[],"outputs":[{"name":"","type":"address","internalType":"address"}],"stateMutability":"view"},{"type":"function","name":"name","inputs":[],"outputs":[{"name":"","type":"string","internalType":"string"}],"stateMutability":"view"},{"type":"function","name":"nonces","inputs":[{"name":"","type":"address","internalType":"address"}],"outputs":[{"name":"","type":"uint256","internalType":"uint256"}],"stateMutability":"view"},{"type":"function","name":"pauseContract","inputs":[],"outputs":[],"stateMutability":"nonpayable"},{"type":"function","name":"paused","inputs":[],"outputs":[{"name":"","type":"bool","internalType":"bool"}],"stateMutability":"view"},{"type":"function","name":"previouslySetEpochRewards","inputs":[],"outputs":[{"name":"","type":"uint256","internalType":"uint256"}],"stateMutability":"view"},{"type":"function","name":"pushChannelAdmin","inputs":[],"outputs":[{"name":"","type":"address","internalType":"address"}],"stateMutability":"view"},{"type":"function","name":"reactivateChannel","inputs":[{"name":"_amount","type":"uint256","internalType":"uint256"}],"outputs":[],"stateMutability":"nonpayable"},{"type":"function","name":"setEpnsCommunicatorAddress","inputs":[{"name":"_commAddress","type":"address","internalType":"address"}],"outputs":[],"stateMutability":"nonpayable"},{"type":"function","name":"setFeeAmount","inputs":[{"name":"_newFees","type":"uint256","internalType":"uint256"}],"outputs":[],"stateMutability":"nonpayable"},{"type":"function","name":"setGovernanceAddress","inputs":[{"name":"_governanceAddress","type":"address","internalType":"address"}],"outputs":[],"stateMutability":"nonpayable"},{"type":"function","name":"setMinChannelCreationFees","inputs":[{"name":"_newFees","type":"uint256","internalType":"uint256"}],"outputs":[],"stateMutability":"nonpayable"},{"type":"function","name":"setMinPoolContribution","inputs":[{"name":"_newAmount","type":"uint256","internalType":"uint256"}],"outputs":[],"stateMutability":"nonpayable"},{"type":"function","name":"stake","inputs":[{"name":"_amount","type":"uint256","internalType":"uint256"}],"outputs":[],"stateMutability":"nonpayable"},{"type":"function","name":"totalStakedAmount","inputs":[],"outputs":[{"name":"","type":"uint256","internalType":"uint256"}],"stateMutability":"view"},{"type":"function","name":"transferPushChannelAdminControl","inputs":[{"name":"_newAdmin","type":"address","internalType":"address"}],"outputs":[],"stateMutability":"nonpayable"},{"type":"function","name":"unPauseContract","inputs":[],"outputs":[],"stateMutability":"nonpayable"},{"type":"function","name":"unstake","inputs":[],"outputs":[],"stateMutability":"nonpayable"},{"type":"function","name":"unverifyChannel","inputs":[{"name":"_channel","type":"address","internalType":"address"}],"outputs":[],"stateMutability":"nonpayable"},{"type":"function","name":"updateChannelMeta","inputs":[{"name":"_channel","type":"address","internalType":"address"},{"name":"_newIdentity","type":"bytes","internalType":"bytes"},{"name":"_amount","type":"uint256","internalType":"uint256"}],"outputs":[],"stateMutability":"nonpayable"},{"type":"function","name":"userFeesInfo","inputs":[{"name":"","type":"address","internalType":"address"}],"outputs":[{"name":"stakedAmount","type":"uint256","internalType":"uint256"},{"name":"stakedWeight","type":"uint256","internalType":"uint256"},{"name":"lastStakedBlock","type":"uint256","internalType":"uint256"},{"name":"lastClaimedBlock","type":"uint256","internalType":"uint256"}],"stateMutability":"view"},{"type":"function","name":"usersRewardsClaimed","inputs":[{"name":"","type":"address","internalType":"address"}],"outputs":[{"name":"","type":"uint256","internalType":"uint256"}],"stateMutability":"view"},{"type":"function","name":"verifyChannel","inputs":[{"name":"_channel","type":"address","internalType":"address"}],"outputs":[],"stateMutability":"nonpayable"},{"type":"event","name":"AddChannel","inputs":[{"name":"channel","type":"address","indexed":true,"internalType":"address"},{"name":"channelType","type":"uint8","indexed":true,"internalType":"enum CoreTypes.ChannelType"},{"name":"identity","type":"bytes","indexed":false,"internalType":"bytes"}],"anonymous":false},{"type":"event","name":"AddSubGraph","inputs":[{"name":"channel","type":"address","indexed":true,"internalType":"address"},{"name":"_subGraphData","type":"bytes","indexed":false,"internalType":"bytes"}],"anonymous":false},{"type":"event","name":"ChannelBlocked","inputs":[{"name":"channel","type":"address","indexed":true,"internalType":"address"}],"anonymous":false},{"type":"event","name":"ChannelNotifcationSettingsAdded","inputs":[{"name":"_channel","type":"address","indexed":false,"internalType":"address"},{"name":"totalNotifOptions","type":"uint256","indexed":false,"internalType":"uint256"},{"name":"_notifSettings","type":"string","indexed":false,"internalType":"string"},{"name":"_notifDescription","type":"string","indexed":false,"internalType":"string"}],"anonymous":false},{"type":"event","name":"ChannelVerificationRevoked","inputs":[{"name":"channel","type":"address","indexed":true,"internalType":"address"},{"name":"revoker","type":"address","indexed":true,"internalType":"address"}],"anonymous":false},{"type":"event","name":"ChannelVerified","inputs":[{"name":"channel","type":"address","indexed":true,"internalType":"address"},{"name":"verifier","type":"address","indexed":true,"internalType":"address"}],"anonymous":false},{"type":"event","name":"ChatIncentiveClaimed","inputs":[{"name":"user","type":"address","indexed":true,"internalType":"address"},{"name":"amountClaimed","type":"uint256","indexed":true,"internalType":"uint256"}],"anonymous":false},{"type":"event","name":"DeactivateChannel","inputs":[{"name":"channel","type":"address","indexed":true,"internalType":"address"},{"name":"amountRefunded","type":"uint256","indexed":true,"internalType":"uint256"}],"anonymous":false},{"type":"event","name":"IncentivizeChatReqReceived","inputs":[{"name":"requestSender","type":"address","indexed":false,"internalType":"address"},{"name":"requestReceiver","type":"address","indexed":false,"internalType":"address"},{"name":"amountForReqReceiver","type":"uint256","indexed":false,"internalType":"uint256"},{"name":"feePoolAmount","type":"uint256","indexed":false,"internalType":"uint256"},{"name":"timestamp","type":"uint256","indexed":false,"internalType":"uint256"}],"anonymous":false},{"type":"event","name":"Initialized","inputs":[{"name":"version","type":"uint64","indexed":false,"internalType":"uint64"}],"anonymous":false},{"type":"event","name":"Paused","inputs":[{"name":"account","type":"address","indexed":false,"internalType":"address"}],"anonymous":false},{"type":"event","name":"ReactivateChannel","inputs":[{"name":"channel","type":"address","indexed":true,"internalType":"address"},{"name":"amountDeposited","type":"uint256","indexed":true,"internalType":"uint256"}],"anonymous":false},{"type":"event","name":"RewardsHarvested","inputs":[{"name":"user","type":"address","indexed":true,"internalType":"address"},{"name":"rewardAmount","type":"uint256","indexed":true,"internalType":"uint256"},{"name":"fromEpoch","type":"uint256","indexed":false,"internalType":"uint256"},{"name":"tillEpoch","type":"uint256","indexed":false,"internalType":"uint256"}],"anonymous":false},{"type":"event","name":"Staked","inputs":[{"name":"user","type":"address","indexed":true,"internalType":"address"},{"name":"amountStaked","type":"uint256","indexed":true,"internalType":"uint256"}],"anonymous":false},{"type":"event","name":"TimeBoundChannelDestroyed","inputs":[{"name":"channel","type":"address","indexed":true,"internalType":"address"},{"name":"amountRefunded","type":"uint256","indexed":true,"internalType":"uint256"}],"anonymous":false},{"type":"event","name":"Unpaused","inputs":[{"name":"account","type":"address","indexed":false,"internalType":"address"}],"anonymous":false},{"type":"event","name":"Unstaked","inputs":[{"name":"user","type":"address","indexed":true,"internalType":"address"},{"name":"amountUnstaked","type":"uint256","indexed":true,"internalType":"uint256"}],"anonymous":false},{"type":"event","name":"UpdateChannel","inputs":[{"name":"channel","type":"address","indexed":true,"internalType":"address"},{"name":"identity","type":"bytes","indexed":false,"internalType":"bytes"},{"name":"amountDeposited","type":"uint256","indexed":true,"internalType":"uint256"}],"anonymous":false},{"type":"error","name":"AddressEmptyCode","inputs":[{"name":"target","type":"address","internalType":"address"}]},{"type":"error","name":"AddressInsufficientBalance","inputs":[{"name":"account","type":"address","internalType":"address"}]},{"type":"error","name":"CallerNotAdmin","inputs":[]},{"type":"error","name":"CallerNotGovernance","inputs":[]},{"type":"error","name":"Core_InvalidChannel","inputs":[]},{"type":"error","name":"Core_InvalidChannelType","inputs":[]},{"type":"error","name":"Core_InvalidExpiryTime","inputs":[]},{"type":"error","name":"EnforcedPause","inputs":[]},{"type":"error","name":"ExpectedPause","inputs":[]},{"type":"error","name":"FailedInnerCall","inputs":[]},{"type":"error","name":"InvalidArg_LessThanExpected","inputs":[{"name":"min_threshold","type":"uint256","internalType":"uint256"},{"name":"actual_value","type":"uint256","internalType":"uint256"}]},{"type":"error","name":"InvalidArg_MoreThanExpected","inputs":[{"name":"max_threshold","type":"uint256","internalType":"uint256"},{"name":"actual_value","type":"uint256","internalType":"uint256"}]},{"type":"error","name":"InvalidArgument_WrongAddress","inputs":[{"name":"user","type":"address","internalType":"address"}]},{"type":"error","name":"InvalidInitialization","inputs":[]},{"type":"error","name":"NotInitializing","inputs":[]},{"type":"error","name":"PushStaking_InvalidEpoch_LessThanExpected","inputs":[]},{"type":"error","name":"SafeERC20FailedOperation","inputs":[{"name":"token","type":"address","internalType":"address"}]},{"type":"error","name":"UnauthorizedCaller","inputs":[{"name":"caller","type":"address","internalType":"address"}]}],"bytecode":{"object":"0x608060405234801561001057600080fd5b50614488806100206000396000f3fe608060405234801561001057600080fd5b50600436106104a85760003560e01c80638ed955b91161026b578063c208381d11610150578063dfdbd358116100c8578063eea0b5c511610097578063f029c18c1161007c578063f029c18c14610b37578063f8ac833614610b6d578063fc6b859b14610b9457600080fd5b8063eea0b5c514610b11578063f01948c114610b2457600080fd5b8063dfdbd35814610ac2578063e9f3659814610ad5578063ec50b8e014610ade578063edd1395914610af157600080fd5b8063d487e3051161011f578063daa947f511610104578063daa947f514610a93578063dc4a4e4e14610a9c578063dc4e357114610aaf57600080fd5b8063d487e30514610a6e578063d712808414610a8157600080fd5b8063c208381d14610a2d578063c57acfe514610a35578063cdc43a4b14610a48578063cfc1625414610a5b57600080fd5b8063ad5f1574116101e3578063bc680515116101b2578063bd90f81511610197578063bd90f815146109eb578063c048799b14610a11578063c175256f14610a2457600080fd5b8063bc680515146109b8578063bd427203146109d857600080fd5b8063ad5f15741461097e578063af809d0914610987578063b70e6be6146109a7578063bac15203146109b057600080fd5b8063991996421161023a578063a82ed9ec1161021f578063a82ed9ec14610943578063a90521c314610963578063aba033251461097657600080fd5b8063991996421461091d578063a694fc3a1461093057600080fd5b80638ed955b9146108a4578063908519db146108ac578063952b3331146108bf578063954e5f61146108c857600080fd5b80633ecaec8b1161039157806368a8e5b6116103095780637ecebe00116102d85780638779904e116102bd5780638779904e1461085e57806388301911146108715780638cfbc3e01461088457600080fd5b80637ecebe0014610819578063843fdad31461083957600080fd5b806368a8e5b61461074a5780636b392680146107535780636d1b6d46146107665780637dce34f71461078657600080fd5b80634ff0876a11610360578063567e98f911610345578063567e98f9146106eb5780635aa6e675146106f45780635c975abb1461071457600080fd5b80634ff0876a146106d857806355091fe5146106e257600080fd5b80633ecaec8b14610688578063439766ce146106a85780634dc47d34146106b05780634def9ef2146106cf57600080fd5b8063185e1a6a116104245780632c387275116103f35780632f00dfe0116103d85780632f00dfe01461064c5780633583849a1461065f57806337a1b7821461066857600080fd5b80632c387275146106245780632def66201461064457600080fd5b8063185e1a6a146105ce57806320606b70146105e15780632359600c14610608578063270dd8a01461061b57600080fd5b8063098b20411161047b5780630d33a019116104605780630d33a0191461059b5780630ded7731146105ae578063110e01a8146105c557600080fd5b8063098b2041146105685780630d01c2d51461058857600080fd5b8063017d5efe146104ad578063035d42b0146104c2578063040141e5146104d557806306fdde031461051f575b600080fd5b6104c06104bb366004613b0e565b610bb4565b005b6104c06104d0366004613b29565b610ca0565b6007546104f59073ffffffffffffffffffffffffffffffffffffffff1681565b60405173ffffffffffffffffffffffffffffffffffffffff90911681526020015b60405180910390f35b61055b6040518060400160405280600c81526020017f45504e535f434f52455f5632000000000000000000000000000000000000000081525081565b6040516105169190613bb0565b6006546104f59073ffffffffffffffffffffffffffffffffffffffff1681565b6104c0610596366004613b0e565b610cdf565b6104c06105a9366004613c0c565b610ea2565b6105b7600f5481565b604051908152602001610516565b6105b760115481565b6104c06105dc366004613b29565b610fef565b6105b77f2ce9970b46ea1bff1d78000ab660407f50a9499f6742ac914d6e6aa91d8c8b2481565b6104c0610616366004613c66565b611038565b6105b760145481565b6005546104f59073ffffffffffffffffffffffffffffffffffffffff1681565b6104c0611156565b6104c061065a366004613b29565b6112bd565b6105b7600c5481565b6105b7610676366004613b0e565b601a6020526000908152604090205481565b6105b7610696366004613b29565b60226020526000908152604090205481565b6104c0611469565b6105b76106be366004613b29565b602080526000908152604090205481565b6105b760175481565b6105b762024b0481565b6105b7600e5481565b6105b7601e5481565b6004546104f59073ffffffffffffffffffffffffffffffffffffffff1681565b7fcd5ed15c6e187e77e9aee88184c21f4f2182ab5827cb3b7e07fbedcd63f033005460ff165b6040519015158152602001610516565b6105b760105481565b6104c0610761366004613b29565b61147b565b600b546104f59073ffffffffffffffffffffffffffffffffffffffff1681565b610802610794366004613b0e565b60006020819052908152604090208054600182015460028301546003840154600485015460058601546006870154600788015460089098015460ff808916996101008a049091169862010000900473ffffffffffffffffffffffffffffffffffffffff16979695949392918b565b6040516105169b9a99989796959493929190613cd1565b6105b7610827366004613b0e565b60186020526000908152604090205481565b61084c610847366004613b0e565b611515565b60405160ff9091168152602001610516565b6104c061086c366004613d71565b61162b565b61073a61087f366004613db3565b611688565b600a546104f59073ffffffffffffffffffffffffffffffffffffffff1681565b6104c0611a67565b6104c06108ba366004613b0e565b611a95565b6105b7601f5481565b6108fd6108d6366004613b0e565b60216020526000908152604090208054600182015460028301546003909301549192909184565b604080519485526020850193909352918301526060820152608001610516565b6104c061092b366004613b0e565b611bdf565b6104c061093e366004613b29565b611ce3565b6009546104f59073ffffffffffffffffffffffffffffffffffffffff1681565b6104c0610971366004613e43565b611d25565b6104c0611eff565b6105b760165481565b6105b7610995366004613b0e565b60236020526000908152604090205481565b6105b7601b5481565b6104c0611ff6565b6024546104f59073ffffffffffffffffffffffffffffffffffffffff1681565b6104c06109e6366004613b0e565b612006565b6003546104f59062010000900473ffffffffffffffffffffffffffffffffffffffff1681565b6105b7610a1f366004613eae565b612327565b6105b760155481565b6104c0612399565b61073a610a43366004613ed0565b61241e565b6104c0610a56366004613b29565b612470565b6104c0610a69366004613b0e565b61254d565b6104c0610a7c366004613b29565b61259c565b60035461073a90610100900460ff1681565b6105b760125481565b6105b7610aaa366004613f53565b6125d5565b6104c0610abd366004613b29565b612630565b6104c0610ad0366004613b0e565b612681565b6105b760135481565b6104c0610aec366004613b29565b6126d0565b6105b7610aff366004613b0e565b60196020526000908152604090205481565b61055b610b1f366004613b0e565b612736565b6104c0610b32366004613f7d565b6127d0565b6104f5610b45366004613b29565b60016020526000908152604090205473ffffffffffffffffffffffffffffffffffffffff1681565b6105b77f0eb0b7c1f0e1a4ef47cef3c68abdb1aaaa449bede7fde99a8d0ee0952ce817e981565b6008546104f59073ffffffffffffffffffffffffffffffffffffffff1681565b610bbc612908565b73ffffffffffffffffffffffffffffffffffffffff81161580610bff575060035473ffffffffffffffffffffffffffffffffffffffff8281166201000090920416145b15610c53576040517f3e1378c100000000000000000000000000000000000000000000000000000000815273ffffffffffffffffffffffffffffffffffffffff821660048201526024015b60405180910390fd5b6003805473ffffffffffffffffffffffffffffffffffffffff90921662010000027fffffffffffffffffffff0000000000000000000000000000000000000000ffff909216919091179055565b610ca861295f565b6000610cb433836129bb565b600a54909150610cdb9073ffffffffffffffffffffffffffffffffffffffff163383612c33565b5050565b610ce761295f565b610cef612cb9565b73ffffffffffffffffffffffffffffffffffffffff8116600090815260208190526040902054610100900460ff1660031480610d56575073ffffffffffffffffffffffffffffffffffffffff8116600090815260208190526040902054610100900460ff16155b15610d8d576040517f4052a4ad00000000000000000000000000000000000000000000000000000000815260040160405180910390fd5b60175473ffffffffffffffffffffffffffffffffffffffff821660009081526020819052604081206001810154909190610dc890849061402e565b905080601354610dd8919061402e565b601355601454610de9908290614041565b601455600d546000908490610dfe9082614054565b610e08919061406b565b90506001600e54610e19919061402e565b600e5582547fffffffffffffffffffffffffffffffffffffffffffffffffffffffffffff00ff16610300178355600783018190554360068401556001830184905560405173ffffffffffffffffffffffffffffffffffffffff8616907ffbbb06adde8edc33cf72be5516c0a7d1eca7103419494556226e58774943c17690600090a25050505050565b610eaa61295f565b610eb384612d0a565b73ffffffffffffffffffffffffffffffffffffffff8416600090815260196020526040812054610ee4906001614041565b9050600081601554610ef69190614054565b905080831015610f3c576040517f2d93586c0000000000000000000000000000000000000000000000000000000081526004810182905260248101849052604401610c4a565b82601454610f4a9190614041565b60145573ffffffffffffffffffffffffffffffffffffffff808716600090815260196020908152604080832086905590829052902043600690910155600a54610f969116333086612d98565b828673ffffffffffffffffffffffffffffffffffffffff167fd080354cc7cff21b2f3e3190c00a803ac7dce5831b8291ec60b4860392045b7a8787604051610fdf9291906140ef565b60405180910390a3505050505050565b610ff761295f565b610fff612cb9565b600061100b30836129bb565b600454600a54919250610cdb9173ffffffffffffffffffffffffffffffffffffffff908116911683612c33565b60085473ffffffffffffffffffffffffffffffffffffffff16331461108b576040517fd86ad9cf000000000000000000000000000000000000000000000000000000008152336004820152602401610c4a565b601654600061109a828461402e565b73ffffffffffffffffffffffffffffffffffffffff85166000908152602360205260408120805492935083929091906110d4908490614041565b90915550506014546110e7908390614041565b6014556040805173ffffffffffffffffffffffffffffffffffffffff808816825286166020820152908101829052606081018390524260808201527fe37c9556702a8226b38b7fe7302b45c6cfa7c8c6b55b38636fe8da4cd62038519060a00160405180910390a15050505050565b61115e61295f565b3360009081526021602052604090206002015461117f9062024b0490614041565b43116111b7576040517f2c44f48000000000000000000000000000000000000000000000000000000000815260040160405180910390fd5b336000908152602160205260408120549003611201576040517fd86ad9cf000000000000000000000000000000000000000000000000000000008152336004820152602401610c4a565b611209611a67565b33600081815260216020526040902054600a54909161123f9173ffffffffffffffffffffffffffffffffffffffff169083612c33565b33600081815260216020526040902060019081015461125e9291612de4565b336000908152602160205260408120818155600101819055601e805483929061128890849061402e565b9091555050604051819033907f0f5bb82176feb1b5e747e28471aa92156a04d9f3ab9f45f28e2d704232b93f7590600090a350565b6112c561295f565b60155481101561130f576015546040517f2d93586c000000000000000000000000000000000000000000000000000000008152600481019190915260248101829052604401610c4a565b33600090815260208190526040902054610100900460ff16600214611360576040517f4052a4ad00000000000000000000000000000000000000000000000000000000815260040160405180910390fd5b600a546113859073ffffffffffffffffffffffffffffffffffffffff16333084612d98565b6016546000611394828461402e565b9050806013546113a49190614041565b6013556014546113b5908390614041565b60145533600090815260208190526040812060018101549091906113da908490614041565b90506000601754600d54836113ef9190614054565b6113f9919061406b565b83547fffffffffffffffffffffffffffffffffffffffffffffffffffffffffffff00ff166101001784556001840183905560078401819055604051909150869033907fbc047405ceee77073c6c9c3fcc50396bd24c9a1e36ad8c3574db1ce6674f0a8790600090a3505050505050565b611471612908565b611479612fde565b565b611483612cb9565b806000036114c7576040517f2d93586c0000000000000000000000000000000000000000000000000000000081526001600482015260248101829052604401610c4a565b6015548110611510576015546040517f308eac4d000000000000000000000000000000000000000000000000000000008152600481019190915260248101829052604401610c4a565b601655565b73ffffffffffffffffffffffffffffffffffffffff80821660009081526020819052604081205460035491926201000091829004811692849290041682148061157e575060035473ffffffffffffffffffffffffffffffffffffffff8581166201000090920416145b1561158c5760019250611624565b5b806116245773ffffffffffffffffffffffffffffffffffffffff82166115b9575060009150600161158d565b60035473ffffffffffffffffffffffffffffffffffffffff620100009091048116908316036115ee575060029150600161158d565b73ffffffffffffffffffffffffffffffffffffffff9182166000908152602081905260409020546201000090049091169061158d565b5050919050565b6116343361307e565b3373ffffffffffffffffffffffffffffffffffffffff167f3c6f586adc28bd6371da8f4f7a15d49e8350b80e99cb596d4268805db193cc19838360405161167c9291906140ef565b60405180910390a25050565b7ff0c57e16840df040f15088dc2f81fe391c3923bec73e23a9662efc9c229c6a0080546000919068010000000000000000810460ff16159067ffffffffffffffff1683811580156116d65750825b905060008267ffffffffffffffff1660011480156116f35750303b155b905081158015611701575080155b15611738576040517ff92ee8a900000000000000000000000000000000000000000000000000000000815260040160405180910390fd5b84547fffffffffffffffffffffffffffffffffffffffffffffffff000000000000000016600117855583156117995784547fffffffffffffffffffffffffffffffffffffffffffffff00ffffffffffffffff16680100000000000000001785555b8d600360026101000a81548173ffffffffffffffffffffffffffffffffffffffff021916908373ffffffffffffffffffffffffffffffffffffffff1602179055508d600460006101000a81548173ffffffffffffffffffffffffffffffffffffffff021916908373ffffffffffffffffffffffffffffffffffffffff16021790555088600560006101000a81548173ffffffffffffffffffffffffffffffffffffffff021916908373ffffffffffffffffffffffffffffffffffffffff16021790555087600660006101000a81548173ffffffffffffffffffffffffffffffffffffffff021916908373ffffffffffffffffffffffffffffffffffffffff1602179055508b600760006101000a81548173ffffffffffffffffffffffffffffffffffffffff021916908373ffffffffffffffffffffffffffffffffffffffff16021790555086600c819055508c600a60006101000a81548173ffffffffffffffffffffffffffffffffffffffff021916908373ffffffffffffffffffffffffffffffffffffffff1602179055508a600960006101000a81548173ffffffffffffffffffffffffffffffffffffffff021916908373ffffffffffffffffffffffffffffffffffffffff16021790555089600b60006101000a81548173ffffffffffffffffffffffffffffffffffffffff021916908373ffffffffffffffffffffffffffffffffffffffff160217905550678ac7230489e800006016819055506802b5e3af16b18800006017819055506802b5e3af16b188000060158190555062989680600d8190555043601181905550600d54600f81905550600195508315611a565784547fffffffffffffffffffffffffffffffffffffffffffffff00ffffffffffffffff168555604051600181527fc7f505b2f371ae2175ee4913f4499e1f2633a7b5936321eed1cdaeb6115181d29060200160405180910390a15b505050505098975050505050505050565b611a6f61295f565b6000611a7d601b5443612327565b90506000610cb433611a9060018561402e565b6129bb565b611a9e8161307e565b6000611aa933611515565b90508060ff16600003611aea576040517fd86ad9cf000000000000000000000000000000000000000000000000000000008152336004820152602401610c4a565b6000611af583611515565b905060ff81161580611b24575060035462010000900473ffffffffffffffffffffffffffffffffffffffff1633145b611b5a576040517f4052a4ad00000000000000000000000000000000000000000000000000000000815260040160405180910390fd5b73ffffffffffffffffffffffffffffffffffffffff831660008181526020819052604080822080547fffffffffffffffffffff0000000000000000000000000000000000000000ffff16336201000081029190911790915590519092917f84899820e388057bcb96cb9aa9c946c45de73a45051bb4184391046c4438329a91a3505050565b73ffffffffffffffffffffffffffffffffffffffff81811660009081526020819052604090205462010000900416331480611c37575060035462010000900473ffffffffffffffffffffffffffffffffffffffff1633145b611c6d576040517f06d919f200000000000000000000000000000000000000000000000000000000815260040160405180910390fd5b73ffffffffffffffffffffffffffffffffffffffff811660008181526020819052604080822080547fffffffffffffffffffff0000000000000000000000000000000000000000ffff169055513392917f9d0e3265e47ea38b22548ea0663e73c8f406d4b04ade46b227c1b766ffbc605e91a350565b611ceb61295f565b611cf533826130e6565b604051819033907f9e71bc8eea02a63969f509818f2dafb9254532904319f9dbda79b67bd34a5f3d90600090a350565b611d2d61295f565b601554821015611d77576015546040517f2d93586c000000000000000000000000000000000000000000000000000000008152600481019190915260248101839052604401610c4a565b33600090815260208190526040902054610100900460ff1615611dc6576040517f4052a4ad00000000000000000000000000000000000000000000000000000000815260040160405180910390fd5b6002856005811115611dda57611dda613ca2565b1480611df757506003856005811115611df557611df5613ca2565b145b80611e1357506004856005811115611e1157611e11613ca2565b145b80611e2f57506005856005811115611e2d57611e2d613ca2565b145b611e65576040517f43376f5100000000000000000000000000000000000000000000000000000000815260040160405180910390fd5b846005811115611e7757611e77613ca2565b3373ffffffffffffffffffffffffffffffffffffffff167f1f97bc77a1686355f130d93883d42f2434474cf65f97b29bc451ea7f9388d36a8686604051611ebf9291906140ef565b60405180910390a3600a54611eec9073ffffffffffffffffffffffffffffffffffffffff16333085612d98565b611ef83386848461322d565b5050505050565b611f0761295f565b611f103361307e565b336000908152602081905260408120601754600182015491929091611f3690839061402e565b9050600082600d5484611f499190614054565b611f53919061406b565b84547fffffffffffffffffffffffffffffffffffffffffffffffffffffffffffff00ff16610200178555601354909150611f8e90839061402e565b6013556007840181905560018401839055600a54611fc39073ffffffffffffffffffffffffffffffffffffffff163384612c33565b604051829033907f2280e0164fd038143a9177af9744ff6b78c8a7b2547be0efaf673d8c2876ca1790600090a350505050565b611ffe612908565b6114796133e9565b61200e61295f565b6120178161307e565b73ffffffffffffffffffffffffffffffffffffffff8116600090815260208190526040808220815161016081019092528054829060ff16600581111561205f5761205f613ca2565b600581111561207057612070613ca2565b8152815461010080820460ff1660208401526201000090910473ffffffffffffffffffffffffffffffffffffffff1660408301526001830154606083015260028301546080830152600383015460a083015260048084015460c0840152600584015460e08401526006840154918301919091526007830154610120830152600890920154610140909101529091508151600581111561211157612111613ca2565b14612148576040517f43376f5100000000000000000000000000000000000000000000000000000000815260040160405180910390fd5b3373ffffffffffffffffffffffffffffffffffffffff8316148015612171575042816101400151105b806121b6575060035462010000900473ffffffffffffffffffffffffffffffffffffffff16331480156121b6575042816101400151621275006121b49190614041565b105b6121ee576040517fd86ad9cf000000000000000000000000000000000000000000000000000000008152336004820152602401610c4a565b606081015160135461220190829061402e565b60135560035462010000900473ffffffffffffffffffffffffffffffffffffffff16331461225257600a5461224d9073ffffffffffffffffffffffffffffffffffffffff163383612c33565b612264565b806014546122609190614041565b6014555b6001600e54612273919061402e565b600e5573ffffffffffffffffffffffffffffffffffffffff831660009081526020819052604080822080547fffffffffffffffffffff000000000000000000000000000000000000000000001681556001810183905560028101839055600381018390556004810183905560058101839055600681018390556007810183905560080182905551829133917f994ca324b9d2f7966a11b77f1853c1152783ae967ac925ddb5c42fc5b793f68a9190a3505050565b60008282101561236d576040517f2d93586c0000000000000000000000000000000000000000000000000000000081526004810184905260248101839052604401610c4a565b62024b0461237b848461402e565b612385919061406b565b612390906001614041565b90505b92915050565b601b5415612403576040517f08c379a000000000000000000000000000000000000000000000000000000000815260206004820152601360248201527f416c726561647920496e697469616c697a6564000000000000000000000000006044820152606401610c4a565b43601b819055601c5561147930670de0b6b3a76400006130e6565b6000612428612908565b845b848110156124645761245c84848381811061244757612447614103565b90506020020160208101906108ba9190613b0e565b60010161242a565b50600195945050505050565b336000908152602360205260409020548111156124d55733600090815260236020526040908190205490517f308eac4d000000000000000000000000000000000000000000000000000000008152600481019190915260248101829052604401610c4a565b33600090815260236020526040812080548392906124f490849061402e565b9091555050600a5461251d9073ffffffffffffffffffffffffffffffffffffffff163383612c33565b604051819033907f2230358eceb5a0a4628b45edd28b2a8cbeb1811be034efa5f1c9af7e3f3efa7e90600090a350565b612555612908565b600480547fffffffffffffffffffffffff00000000000000000000000000000000000000001673ffffffffffffffffffffffffffffffffffffffff92909216919091179055565b600a546125c19073ffffffffffffffffffffffffffffffffffffffff16333084612d98565b806014546125cf9190614041565b60145550565b6000818152602260209081526040808320548280528184205473ffffffffffffffffffffffffffffffffffffffff871685526021845282852086865260040190935290832054909161262691614054565b612390919061406b565b612638612cb9565b8060000361267c576040517f2d93586c0000000000000000000000000000000000000000000000000000000081526001600482015260248101829052604401610c4a565b601755565b612689612908565b600880547fffffffffffffffffffffffff00000000000000000000000000000000000000001673ffffffffffffffffffffffffffffffffffffffff92909216919091179055565b6126d8612cb9565b60006016546017546126ea9190614041565b905080821015612730576040517f2d93586c0000000000000000000000000000000000000000000000000000000081526004810182905260248101839052604401610c4a565b50601555565b6002602052600090815260409020805461274f90614132565b80601f016020809104026020016040519081016040528092919081815260200182805461277b90614132565b80156127c85780601f1061279d576101008083540402835291602001916127c8565b820191906000526020600020905b8154815290600101906020018083116127ab57829003601f168201915b505050505081565b6127d93361307e565b601554811015612823576015546040517f2d93586c000000000000000000000000000000000000000000000000000000008152600481019190915260248101829052604401610c4a565b600061282e8761345f565b868660405160200161284293929190614185565b604080517fffffffffffffffffffffffffffffffffffffffffffffffffffffffffffffffe08184030181529181523360009081526002602052209091506128898282614255565b50816014546128989190614041565b601455600a546128c09073ffffffffffffffffffffffffffffffffffffffff16333085612d98565b7f87cfb53b7cc0f446465723d1075eb0d650edc90e4365956fc1419a675c867bba33888387876040516128f795949392919061436f565b60405180910390a150505050505050565b60035462010000900473ffffffffffffffffffffffffffffffffffffffff163314611479576040517f06d919f200000000000000000000000000000000000000000000000000000000815260040160405180910390fd5b7fcd5ed15c6e187e77e9aee88184c21f4f2182ab5827cb3b7e07fbedcd63f033005460ff1615611479576040517fd93c066500000000000000000000000000000000000000000000000000000000815260040160405180910390fd5b600a546040517ff18365d900000000000000000000000000000000000000000000000000000000815273ffffffffffffffffffffffffffffffffffffffff8481166004830152600092169063f18365d990602401600060405180830381600087803b158015612a2957600080fd5b505af1158015612a3d573d6000803e3d6000fd5b50505050612a4d83600080612de4565b6000612a5b601b5443612327565b601b5473ffffffffffffffffffffffffffffffffffffffff861660009081526021602052604081206003015492935091612a959190612327565b9050838211612ad0576040517f2c44f48000000000000000000000000000000000000000000000000000000000815260040160405180910390fd5b80841015612b14576040517f2d93586c0000000000000000000000000000000000000000000000000000000081526004810182905260248101859052604401610c4a565b805b848111612b4b576000612b2987836125d5565b9050612b358186614041565b9450508080612b43906143c3565b915050612b16565b5073ffffffffffffffffffffffffffffffffffffffff85166000908152601a6020526040902054612b7d908490614041565b73ffffffffffffffffffffffffffffffffffffffff86166000908152601a6020526040812091909155612bb362024b0486614054565b601b54612bc09190614041565b73ffffffffffffffffffffffffffffffffffffffff8716600081815260216020908152604091829020600301849055815186815290810189905292935086927f57f92f16fa09c9e4bb565a3d9d987c04877f97eb9067730674bb415730aaa652910160405180910390a350505092915050565b60405173ffffffffffffffffffffffffffffffffffffffff838116602483015260448201839052612cb491859182169063a9059cbb906064015b604051602081830303815290604052915060e01b6020820180517bffffffffffffffffffffffffffffffffffffffffffffffffffffffff838183161783525050505061351d565b505050565b60045473ffffffffffffffffffffffffffffffffffffffff163314611479576040517ff2be30fb00000000000000000000000000000000000000000000000000000000815260040160405180910390fd5b73ffffffffffffffffffffffffffffffffffffffff811660009081526020819052604090205460ff610100909104166001148015612d5d57503373ffffffffffffffffffffffffffffffffffffffff8216145b612d95576040517fd86ad9cf000000000000000000000000000000000000000000000000000000008152336004820152602401610c4a565b50565b60405173ffffffffffffffffffffffffffffffffffffffff8481166024830152838116604483015260648201839052612dde9186918216906323b872dd90608401612c6d565b50505050565b6000612df2601b5443612327565b9050612dff8382846135b3565b73ffffffffffffffffffffffffffffffffffffffff841660009081526021602052604081206001015490819003612e605773ffffffffffffffffffffffffffffffffffffffff85166000908152602160205260409020600101849055612fa7565b601b5473ffffffffffffffffffffffffffffffffffffffff86166000908152602160205260408120600201549091612e9791612327565b9050808303612eec5783612eb457612eaf8583614041565b612ebe565b612ebe858361402e565b73ffffffffffffffffffffffffffffffffffffffff8716600090815260216020526040902060010155612fa5565b805b838111612fa357838114612f375773ffffffffffffffffffffffffffffffffffffffff871660009081526021602090815260408083208484526004019091529020839055612f91565b84612f4b57612f468684614041565b612f55565b612f55868461402e565b73ffffffffffffffffffffffffffffffffffffffff88166000908152602160209081526040808320600181018590558584526004019091529020555b80612f9b816143c3565b915050612eee565b505b505b8315611ef8575050505073ffffffffffffffffffffffffffffffffffffffff16600090815260216020526040902043600290910155565b612fe661295f565b7fcd5ed15c6e187e77e9aee88184c21f4f2182ab5827cb3b7e07fbedcd63f0330080547fffffffffffffffffffffffffffffffffffffffffffffffffffffffffffffff001660011781557f62e78cea01bee320cd4e420270b5ea74000d11b0c9f74754ebdbfc544b05a258335b60405173ffffffffffffffffffffffffffffffffffffffff909116815260200160405180910390a150565b73ffffffffffffffffffffffffffffffffffffffff811660009081526020819052604090205460ff61010090910416600114612d95576040517f4052a4ad00000000000000000000000000000000000000000000000000000000815260040160405180910390fd5b60006130f4601b5443612327565b905060006131058262024b04614054565b601b546131129190614041565b90506000613121858584613795565b600a549091506131499073ffffffffffffffffffffffffffffffffffffffff16333087612d98565b73ffffffffffffffffffffffffffffffffffffffff851660009081526021602052604090205461317a908590614041565b73ffffffffffffffffffffffffffffffffffffffff8616600090815260216020526040902090815560030154156131d95773ffffffffffffffffffffffffffffffffffffffff85166000908152602160205260409020600301546131dd565b601b545b73ffffffffffffffffffffffffffffffffffffffff8616600090815260216020526040812060030191909155601e805486929061321b908490614041565b90915550611ef8905085826000612de4565b601654600061323c828561402e565b90508060135461324c9190614041565b60135560145461325d908390614041565b601455601754600d54600091906132749084614054565b61327e919061406b565b73ffffffffffffffffffffffffffffffffffffffff8816600090815260208190526040902080546101007fffffffffffffffffffffffffffffffffffffffffffffffffffffffffffff00ff821681178355600180840187905593945089937fffffffffffffffffffffffffffffffffffffffffffffffffffffffffffff0000909216179083600581111561331457613314613ca2565b021790555073ffffffffffffffffffffffffffffffffffffffff8716600090815260208190526040902043600582018190556006820155600701819055600e5461335f906001614041565b600e55600486600581111561337657613376613ca2565b036133e0574284116133b4576040517f52743ef000000000000000000000000000000000000000000000000000000000815260040160405180910390fd5b73ffffffffffffffffffffffffffffffffffffffff871660009081526020819052604090206008018490555b50505050505050565b6133f1613848565b7fcd5ed15c6e187e77e9aee88184c21f4f2182ab5827cb3b7e07fbedcd63f0330080547fffffffffffffffffffffffffffffffffffffffffffffffffffffffffffffff001681557f5db9ee0a495bf2e6ff9c91a7834c1ba4fdd244a5e8aa4e537bd38aeae4b073aa33613053565b6060600061346c836138a3565b600101905060008167ffffffffffffffff81111561348c5761348c6141d8565b6040519080825280601f01601f1916602001820160405280156134b6576020820181803683370190505b5090508181016020015b7fffffffffffffffffffffffffffffffffffffffffffffffffffffffffffffffff017f3031323334353637383961626364656600000000000000000000000000000000600a86061a8153600a85049450846134c057509392505050565b600061353f73ffffffffffffffffffffffffffffffffffffffff841683613985565b9050805160001415801561356457508080602001905181019061356291906143fb565b155b15612cb4576040517f5274afe700000000000000000000000000000000000000000000000000000000815273ffffffffffffffffffffffffffffffffffffffff84166004820152602401610c4a565b60006135c3601b54601c54612327565b9050808311806135d35750826001145b1561366b576000601f546014546135ea919061402e565b905060006135f8838661402e565b9050600181111561363b57816020600061361360018961402e565b815260200190815260200160002060008282546136309190614041565b9091555061365e9050565b600085815260208052604081208054849290613658908490614041565b90915550505b505043601c55601454601f555b601d54158061367b575082601d54145b156136d257816136a45760008381526022602052604090205461369f908590614041565b6136be565b6000838152602260205260409020546136be90859061402e565b60008481526022602052604090205561378d565b6000601d5460016136e39190614041565b90505b6136f160018561402e565b811161373857600081815260226020526040812054900361372657601d54600090815260226020526040808220548383529120555b80613730816143c3565b9150506136e6565b508161376057601d5460009081526022602052604090205461375b908590614041565b61377d565b601d5460009081526022602052604090205461377d90859061402e565b6000848152602260205260409020555b5050601d5550565b600a546040517f51b0718000000000000000000000000000000000000000000000000000000000815273ffffffffffffffffffffffffffffffffffffffff858116600483015260009216906351b0718090602401602060405180830381865afa158015613806573d6000803e3d6000fd5b505050506040513d601f19601f8201168201806040525081019061382a919061441d565b613834908361402e565b61383e9084614054565b90505b9392505050565b7fcd5ed15c6e187e77e9aee88184c21f4f2182ab5827cb3b7e07fbedcd63f033005460ff16611479576040517f8dfc202b00000000000000000000000000000000000000000000000000000000815260040160405180910390fd5b6000807a184f03e93ff9f4daa797ed6e38ed64bf6a1f01000000000000000083106138ec577a184f03e93ff9f4daa797ed6e38ed64bf6a1f010000000000000000830492506040015b6d04ee2d6d415b85acef81000000008310613918576d04ee2d6d415b85acef8100000000830492506020015b662386f26fc10000831061393657662386f26fc10000830492506010015b6305f5e100831061394e576305f5e100830492506008015b612710831061396257612710830492506004015b60648310613974576064830492506002015b600a83106123935760010192915050565b606061239083836000846000808573ffffffffffffffffffffffffffffffffffffffff1684866040516139b89190614436565b60006040518083038185875af1925050503d80600081146139f5576040519150601f19603f3d011682016040523d82523d6000602084013e6139fa565b606091505b5091509150613a0a868383613a14565b9695505050505050565b606082613a2957613a2482613aa3565b613841565b8151158015613a4d575073ffffffffffffffffffffffffffffffffffffffff84163b155b15613a9c576040517f9996b31500000000000000000000000000000000000000000000000000000000815273ffffffffffffffffffffffffffffffffffffffff85166004820152602401610c4a565b5080613841565b805115613ab35780518082602001fd5b6040517f1425ea4200000000000000000000000000000000000000000000000000000000815260040160405180910390fd5b803573ffffffffffffffffffffffffffffffffffffffff81168114613b0957600080fd5b919050565b600060208284031215613b2057600080fd5b61239082613ae5565b600060208284031215613b3b57600080fd5b5035919050565b60005b83811015613b5d578181015183820152602001613b45565b50506000910152565b60008151808452613b7e816020860160208601613b42565b601f017fffffffffffffffffffffffffffffffffffffffffffffffffffffffffffffffe0169290920160200192915050565b6020815260006123906020830184613b66565b60008083601f840112613bd557600080fd5b50813567ffffffffffffffff811115613bed57600080fd5b602083019150836020828501011115613c0557600080fd5b9250929050565b60008060008060608587031215613c2257600080fd5b613c2b85613ae5565b9350602085013567ffffffffffffffff811115613c4757600080fd5b613c5387828801613bc3565b9598909750949560400135949350505050565b600080600060608486031215613c7b57600080fd5b613c8484613ae5565b9250613c9260208501613ae5565b9150604084013590509250925092565b7f4e487b7100000000000000000000000000000000000000000000000000000000600052602160045260246000fd5b610160810160068d10613d0d577f4e487b7100000000000000000000000000000000000000000000000000000000600052602160045260246000fd5b9b815260ff9a909a1660208b015273ffffffffffffffffffffffffffffffffffffffff9890981660408a01526060890196909652608088019490945260a087019290925260c086015260e08501526101008401526101208301526101409091015290565b60008060208385031215613d8457600080fd5b823567ffffffffffffffff811115613d9b57600080fd5b613da785828601613bc3565b90969095509350505050565b600080600080600080600080610100898b031215613dd057600080fd5b613dd989613ae5565b9750613de760208a01613ae5565b9650613df560408a01613ae5565b9550613e0360608a01613ae5565b9450613e1160808a01613ae5565b9350613e1f60a08a01613ae5565b9250613e2d60c08a01613ae5565b915060e089013590509295985092959890939650565b600080600080600060808688031215613e5b57600080fd5b853560068110613e6a57600080fd5b9450602086013567ffffffffffffffff811115613e8657600080fd5b613e9288828901613bc3565b9699909850959660408101359660609091013595509350505050565b60008060408385031215613ec157600080fd5b50508035926020909101359150565b60008060008060608587031215613ee657600080fd5b8435935060208501359250604085013567ffffffffffffffff80821115613f0c57600080fd5b818701915087601f830112613f2057600080fd5b813581811115613f2f57600080fd5b8860208260051b8501011115613f4457600080fd5b95989497505060200194505050565b60008060408385031215613f6657600080fd5b613f6f83613ae5565b946020939093013593505050565b60008060008060008060808789031215613f9657600080fd5b86359550602087013567ffffffffffffffff80821115613fb557600080fd5b613fc18a838b01613bc3565b90975095506040890135915080821115613fda57600080fd5b50613fe789828a01613bc3565b979a9699509497949695606090950135949350505050565b7f4e487b7100000000000000000000000000000000000000000000000000000000600052601160045260246000fd5b8181038181111561239357612393613fff565b8082018082111561239357612393613fff565b808202811582820484141761239357612393613fff565b6000826140a1577f4e487b7100000000000000000000000000000000000000000000000000000000600052601260045260246000fd5b500490565b8183528181602085013750600060208284010152600060207fffffffffffffffffffffffffffffffffffffffffffffffffffffffffffffffe0601f840116840101905092915050565b60208152600061383e6020830184866140a6565b7f4e487b7100000000000000000000000000000000000000000000000000000000600052603260045260246000fd5b600181811c9082168061414657607f821691505b60208210810361417f577f4e487b7100000000000000000000000000000000000000000000000000000000600052602260045260246000fd5b50919050565b60008451614197818460208901613b42565b7f2b00000000000000000000000000000000000000000000000000000000000000908301908152838560018301376000930160010192835250909392505050565b7f4e487b7100000000000000000000000000000000000000000000000000000000600052604160045260246000fd5b601f821115612cb457600081815260208120601f850160051c8101602086101561422e5750805b601f850160051c820191505b8181101561424d5782815560010161423a565b505050505050565b815167ffffffffffffffff81111561426f5761426f6141d8565b6142838161427d8454614132565b84614207565b602080601f8311600181146142d657600084156142a05750858301515b7fffffffffffffffffffffffffffffffffffffffffffffffffffffffffffffffff600386901b1c1916600185901b17855561424d565b6000858152602081207fffffffffffffffffffffffffffffffffffffffffffffffffffffffffffffffe08616915b8281101561432357888601518255948401946001909101908401614304565b508582101561435f57878501517fffffffffffffffffffffffffffffffffffffffffffffffffffffffffffffffff600388901b60f8161c191681555b5050505050600190811b01905550565b73ffffffffffffffffffffffffffffffffffffffff861681528460208201526080604082015260006143a46080830186613b66565b82810360608401526143b78185876140a6565b98975050505050505050565b60007fffffffffffffffffffffffffffffffffffffffffffffffffffffffffffffffff82036143f4576143f4613fff565b5060010190565b60006020828403121561440d57600080fd5b8151801515811461384157600080fd5b60006020828403121561442f57600080fd5b5051919050565b60008251614448818460208701613b42565b919091019291505056fea26469706673582212203c6c76cfc1a28a717aca237bc731b016943a3a134e17f10154f7024ab2a7966d64736f6c63430008140033","linkReferences":{}},"methodIdentifiers":{"ADD_CHANNEL_MIN_FEES()":"c175256f","CHANNEL_POOL_FUNDS()":"e9f36598","CREATE_CHANNEL_TYPEHASH()":"f8ac8336","DOMAIN_TYPEHASH()":"20606b70","FEE_AMOUNT()":"ad5f1574","MIN_POOL_CONTRIBUTION()":"4def9ef2","PROTOCOL_POOL_FEES()":"270dd8a0","PUSH_TOKEN_ADDRESS()":"8cfbc3e0","REFERRAL_CODE()":"3583849a","UNISWAP_V2_ROUTER()":"a82ed9ec","WETH_ADDRESS()":"040141e5","aDaiAddress()":"098b2041","addPoolFees(uint256)":"d487e305","addSubGraph(bytes)":"8779904e","batchVerification(uint256,uint256,address[])":"c57acfe5","blockChannel(address)":"0d01c2d5","calculateEpochRewards(address,uint256)":"dc4a4e4e","celebUserFunds(address)":"af809d09","channelById(uint256)":"f029c18c","channelNotifSettings(address)":"eea0b5c5","channelUpdateCounter(address)":"edd13959","channels(address)":"7dce34f7","channelsCount()":"55091fe5","claimChatIncentives(uint256)":"cdc43a4b","createChannelSettings(uint256,string,string,uint256)":"f01948c1","createChannelWithPUSH(uint8,bytes,uint256,uint256)":"a90521c3","daiAddress()":"2c387275","daoHarvestPaginated(uint256)":"185e1a6a","deactivateChannel()":"aba03325","destroyTimeBoundChannel(address)":"bd427203","epnsCommunicator()":"fc6b859b","epochDuration()":"4ff0876a","epochRewards(uint256)":"4dc47d34","epochToTotalStakedWeight(uint256)":"3ecaec8b","feePoolStakingContract()":"bc680515","genesisEpoch()":"b70e6be6","getChannelVerfication(address)":"843fdad3","governance()":"5aa6e675","groupFairShareCount()":"daa947f5","groupHistoricalZ()":"68a8e5b6","groupLastUpdate()":"110e01a8","groupNormalizedWeight()":"0ded7731","handleChatRequestData(address,address,uint256)":"2359600c","harvestAll()":"8ed955b9","harvestPaginated(uint256)":"035d42b0","initialize(address,address,address,address,address,address,address,uint256)":"88301911","initializeStake()":"c208381d","isMigrationComplete()":"d7128084","lastEpochRelative(uint256,uint256)":"c048799b","lendingPoolProviderAddress()":"6d1b6d46","name()":"06fdde03","nonces(address)":"7ecebe00","pauseContract()":"439766ce","paused()":"5c975abb","previouslySetEpochRewards()":"952b3331","pushChannelAdmin()":"bd90f815","reactivateChannel(uint256)":"2f00dfe0","setEpnsCommunicatorAddress(address)":"dfdbd358","setFeeAmount(uint256)":"6b392680","setGovernanceAddress(address)":"cfc16254","setMinChannelCreationFees(uint256)":"ec50b8e0","setMinPoolContribution(uint256)":"dc4e3571","stake(uint256)":"a694fc3a","totalStakedAmount()":"567e98f9","transferPushChannelAdminControl(address)":"017d5efe","unPauseContract()":"bac15203","unstake()":"2def6620","unverifyChannel(address)":"99199642","updateChannelMeta(address,bytes,uint256)":"0d33a019","userFeesInfo(address)":"954e5f61","usersRewardsClaimed(address)":"37a1b782","verifyChannel(address)":"908519db"},"id":9}