{"abi":[{"type":"constructor","inputs":[],"stateMutability":"nonpayable"},{"type":"function","name":"claimReward","inputs":[{"name":"token","type":"address","internalType":"address"}],"outputs":[],"stateMutability":"nonpayable"}],"bytecode":{"object":"0x608060405234801561000f575f80fd5b506101278061001d5f395ff3fe6080604052348015600e575f80fd5b50600436106026575f3560e01c8063d279c19114602a575b5f80fd5b6039603536600460b9565b603b565b005b6040517ff18365d9000000000000000000000000000000000000000000000000000000008152336004820152819073ffffffffffffffffffffffffffffffffffffffff82169063f18365d9906024015f604051808303815f87803b15801560a0575f80fd5b505af115801560b1573d5f803e3d5ffd5b505050505050565b5f6020828403121560c8575f80fd5b813573ffffffffffffffffffffffffffffffffffffffff8116811460ea575f80fd5b939250505056fea26469706673582212201771acfd337105fec1684d63f9c7b8e121a042323bb5d30e2292e1ca8644328464736f6c63430008140033","linkReferences":{}},"methodIdentifiers":{"claimReward(address)":"d279c191"},"id":31}